{"abi":[{"type":"constructor","inputs":[],"stateMutability":"nonpayable"},{"type":"function","name":"depositUSDC","inputs":[{"name":"tokenId","type":"uint256","internalType":"uint256"},{"name":"usdcAmount","type":"uint256","internalType":"uint256"}],"outputs":[],"stateMutability":"nonpayable"},{"type":"function","name":"endMarket","inputs":[],"outputs":[],"stateMutability":"nonpayable"},{"type":"function","name":"enterMarketWithCUSDC","inputs":[],"outputs":[],"stateMutability":"nonpayable"},{"type":"function","name":"getAvailableRewards","inputs":[{"name":"_address","type":"address","internalType":"address"}],"outputs":[{"name":"","type":"uint256","internalType":"uint256"}],"stateMutability":"view"},{"type":"function","name":"getDeposit","inputs":[{"name":"tokenId","type":"uint256","internalType":"uint256"}],"outputs":[{"name":"","type":"uint256","internalType":"uint256"}],"stateMutability":"view"},{"type":"function","name":"initialMinNFTDeposit","inputs":[],"outputs":[{"name":"","type":"uint256","internalType":"uint256"}],"stateMutability":"view"},{"type":"function","name":"initialize","inputs":[{"name":"_LockToken","type":"address","internalType":"address"},{"name":"_cUsdcAddress","type":"address","internalType":"address"},{"name":"comptroller_","type":"address","internalType":"address"}],"outputs":[],"stateMutability":"nonpayable"},{"type":"function","name":"isStaked","inputs":[{"name":"tokenId","type":"uint256","internalType":"uint256"}],"outputs":[{"name":"","type":"bool","internalType":"bool"}],"stateMutability":"view"},{"type":"function","name":"minimumStakePrice","inputs":[],"outputs":[{"name":"","type":"uint256","internalType":"uint256"}],"stateMutability":"view"},{"type":"function","name":"mintWithUSDC","inputs":[{"name":"to","type":"address","internalType":"address"},{"name":"usdcAmount","type":"uint256","internalType":"uint256"}],"outputs":[{"name":"","type":"uint256","internalType":"uint256"}],"stateMutability":"nonpayable"},{"type":"function","name":"onERC721Received","inputs":[{"name":"","type":"address","internalType":"address"},{"name":"","type":"address","internalType":"address"},{"name":"","type":"uint256","internalType":"uint256"},{"name":"","type":"bytes","internalType":"bytes"}],"outputs":[{"name":"","type":"bytes4","internalType":"bytes4"}],"stateMutability":"nonpayable"},{"type":"function","name":"owner","inputs":[],"outputs":[{"name":"","type":"address","internalType":"address"}],"stateMutability":"view"},{"type":"function","name":"pauseContract","inputs":[],"outputs":[],"stateMutability":"nonpayable"},{"type":"function","name":"paused","inputs":[],"outputs":[{"name":"","type":"bool","internalType":"bool"}],"stateMutability":"view"},{"type":"function","name":"redeemCompoundRewards","inputs":[{"name":"tokenId","type":"uint256","internalType":"uint256"},{"name":"rewardAmount","type":"uint256","internalType":"uint256"}],"outputs":[{"name":"","type":"uint256","internalType":"uint256"}],"stateMutability":"nonpayable"},{"type":"function","name":"renounceOwnership","inputs":[],"outputs":[],"stateMutability":"nonpayable"},{"type":"function","name":"setMarketConditions","inputs":[{"name":"initDeposit","type":"uint256","internalType":"uint256"},{"name":"stakePrice","type":"uint256","internalType":"uint256"},{"name":"mintFee","type":"uint256","internalType":"uint256"}],"outputs":[],"stateMutability":"nonpayable"},{"type":"function","name":"setPrevOwner","inputs":[{"name":"tokenId","type":"uint256","internalType":"uint256"},{"name":"prevOwner","type":"address","internalType":"address"}],"outputs":[],"stateMutability":"nonpayable"},{"type":"function","name":"setStaked","inputs":[{"name":"tokenId","type":"uint256","internalType":"uint256"},{"name":"staked","type":"bool","internalType":"bool"}],"outputs":[],"stateMutability":"nonpayable"},{"type":"function","name":"stake","inputs":[{"name":"tokenId","type":"uint256","internalType":"uint256"},{"name":"usdcAmount","type":"uint256","internalType":"uint256"}],"outputs":[],"stateMutability":"nonpayable"},{"type":"function","name":"startMarket","inputs":[{"name":"initDeposit","type":"uint256","internalType":"uint256"},{"name":"stakePrice","type":"uint256","internalType":"uint256"},{"name":"mintFee","type":"uint256","internalType":"uint256"}],"outputs":[],"stateMutability":"nonpayable"},{"type":"function","name":"totalDeposits","inputs":[],"outputs":[{"name":"","type":"uint256","internalType":"uint256"}],"stateMutability":"view"},{"type":"function","name":"transferOwnership","inputs":[{"name":"newOwner","type":"address","internalType":"address"}],"outputs":[],"stateMutability":"nonpayable"},{"type":"function","name":"unStake","inputs":[{"name":"to","type":"address","internalType":"address"},{"name":"tokenId","type":"uint256","internalType":"uint256"}],"outputs":[],"stateMutability":"nonpayable"},{"type":"function","name":"unpauseContract","inputs":[],"outputs":[],"stateMutability":"nonpayable"},{"type":"function","name":"withdrawMintingProfit","inputs":[{"name":"recipient","type":"address","internalType":"address"}],"outputs":[],"stateMutability":"nonpayable"},{"type":"function","name":"withdrawUSDC","inputs":[{"name":"tokenId","type":"uint256","internalType":"uint256"},{"name":"amount","type":"uint256","internalType":"uint256"}],"outputs":[],"stateMutability":"nonpayable"},{"type":"event","name":"Deposit","inputs":[{"name":"id","type":"uint256","indexed":true,"internalType":"uint256"},{"name":"amount","type":"uint256","indexed":false,"internalType":"uint256"}],"anonymous":false},{"type":"event","name":"Initialized","inputs":[{"name":"version","type":"uint8","indexed":false,"internalType":"uint8"}],"anonymous":false},{"type":"event","name":"OwnershipTransferred","inputs":[{"name":"previousOwner","type":"address","indexed":true,"internalType":"address"},{"name":"newOwner","type":"address","indexed":true,"internalType":"address"}],"anonymous":false},{"type":"event","name":"Paused","inputs":[{"name":"account","type":"address","indexed":false,"internalType":"address"}],"anonymous":false},{"type":"event","name":"TransferCUSDC","inputs":[{"name":"from","type":"address","indexed":false,"internalType":"address"},{"name":"to","type":"address","indexed":false,"internalType":"address"},{"name":"amount","type":"uint256","indexed":false,"internalType":"uint256"}],"anonymous":false},{"type":"event","name":"Unpaused","inputs":[{"name":"account","type":"address","indexed":false,"internalType":"address"}],"anonymous":false},{"type":"event","name":"Withdraw","inputs":[{"name":"id","type":"uint256","indexed":true,"internalType":"uint256"},{"name":"amount","type":"uint256","indexed":false,"internalType":"uint256"}],"anonymous":false},{"type":"error","name":"MarketAlreadyStarted","inputs":[]},{"type":"error","name":"MarketNotActive","inputs":[]},{"type":"error","name":"NonexistentToken","inputs":[]},{"type":"error","name":"OnlyToken","inputs":[]},{"type":"error","name":"ZeroAddress","inputs":[]}],"bytecode":{"object":"0x60806040526012805460ff1916905534801561001a57600080fd5b506100243361003a565b6000805460ff60b01b191690556001805561008a565b600080546001600160a01b038381166001600160a01b0319831681178455604051919092169283917f8be0079c531659141344cd1fd0a4f28419497f9722a3daafe3b4186f6b6457e09190a35050565b6128b2806100996000396000f3fe608060405234801561001057600080fd5b50600436106101a95760003560e01c8063873e31fa116100f9578063b610bcc611610097578063c895b8eb11610071578063c895b8eb14610398578063d9393814146103a0578063e740010f146103b3578063f2fde38b146103c657600080fd5b8063b610bcc61461034f578063baa51f8614610362578063c0c53b8b1461038557600080fd5b806392b7942b116100d357806392b7942b146103015780639f9fb96814610314578063acada2f414610334578063b33712c51461034757600080fd5b8063873e31fa146102aa57806388e08665146102d35780638da5cb5b146102e657600080fd5b80635c975abb11610166578063715018a611610140578063715018a6146102735780637a4fad741461027b5780637b0472f01461028e5780637d882097146102a157600080fd5b80635c975abb146102355780636a527072146102535780636fd556e81461026a57600080fd5b80630b9c32b6146101ae578063150b7a02146101c35780632023e673146101ff578063439766ce146102125780635379c2e71461021a5780635390271514610222575b600080fd5b6101c16101bc366004612439565b6103d9565b005b6101e16101d13660046124c1565b630a85bd0160e11b949350505050565b6040516001600160e01b031990911681526020015b60405180910390f35b6101c161020d366004612439565b61042f565b6101c1610445565b6101c1610457565b6101c1610230366004612593565b610528565b600054600160b01b900460ff165b60405190151581526020016101f6565b61025c600f5481565b6040519081526020016101f6565b61025c60105481565b6101c1610573565b6101c16102893660046125c3565b610585565b6101c161029c3660046125e8565b6105de565b61025c60115481565b61025c6102b836600461260a565b6001600160a01b03166000908152600b602052604090205490565b6101c16102e13660046125e8565b6108b8565b6000546040516001600160a01b0390911681526020016101f6565b61025c61030f3660046125e8565b610b61565b61025c610322366004612627565b60009081526006602052604090205490565b6101c161034236600461260a565b610f32565b6101c1610fbb565b61025c61035d366004612640565b610fcb565b610243610370366004612627565b60009081526007602052604090205460ff1690565b6101c161039336600461266c565b61129b565b6101c16114f7565b6101c16103ae366004612640565b611536565b6101c16103c13660046125e8565b61176a565b6101c16103d436600461260a565b61190d565b6103e1611986565b6103e96119d3565b60125460ff161561040d5760405163764c7cf560e11b815260040160405180910390fd5b60006011556012805460ff1916600117905561042a83838361042f565b505050565b6104376119d3565b600f92909255601055600d55565b61044d6119d3565b610455611a2d565b565b61045f6119d3565b60408051600180825281830190925260009160208083019080368337505060035482519293506001600160a01b0316918391506000906104a1576104a16126b7565b6001600160a01b03928316602091820292909201015260048054604051631853304760e31b815292169163c2998238916104dd918591016126cd565b6000604051808303816000875af11580156104fc573d6000803e3d6000fd5b505050506040513d6000823e601f3d908101601f19168201604052610524919081019061271a565b5050565b6005546001600160a01b0316331461055357604051633d0f0d9f60e21b815260040160405180910390fd5b600091825260076020526040909120805460ff1916911515919091179055565b61057b6119d3565b6104556000611a8d565b6005546001600160a01b031633146105b057604051633d0f0d9f60e21b815260040160405180910390fd5b6000918252600a602052604090912080546001600160a01b0319166001600160a01b03909216919091179055565b6105e6611986565b60125460ff1661060957604051635a90bb8d60e11b815260040160405180910390fd5b610611611add565b600554604051637c27433b60e11b8152336004820152602481018490526001600160a01b039091169063f84e867690604401602060405180830381865afa158015610660573d6000803e3d6000fd5b505050506040513d601f19601f8201168201806040525081019061068491906127c0565b5060008281526007602052604090205460ff16156106e05760405162461bcd60e51b8152602060048201526014602482015273151bdad95b88185b1c9958591e481cdd185ad95960621b60448201526064015b60405180910390fd5b6000828152600660205260409020548111156107345760405162461bcd60e51b81526020600482015260136024820152724e6f7420656e6f756768206465706f7369747360681b60448201526064016106d7565b6010548110156107865760405162461bcd60e51b815260206004820152601960248201527f496e73756666696369656e74207374616b6520616d6f756e740000000000000060448201526064016106d7565b60008281526008602090815260408083208490556009825280832080546001600160a01b03191633179055600790915290819020805460ff1916600117905560055490516331a9108f60e11b8152600481018490526001600160a01b03909116906323b872dd908290636352211e90602401602060405180830381865afa158015610815573d6000803e3d6000fd5b505050506040513d601f19601f8201168201806040525081019061083991906127dd565b30856040518463ffffffff1660e01b8152600401610859939291906127fa565b600060405180830381600087803b15801561087357600080fd5b505af1158015610887573d6000803e3d6000fd5b5050506000838152600a60205260409020546108ae91506001600160a01b03168284611b36565b5061052460018055565b6108c0611986565b60125460ff166108e357604051635a90bb8d60e11b815260040160405180910390fd5b6108eb611add565b600554604051637c27433b60e11b8152336004820152602481018490526001600160a01b039091169063f84e867690604401602060405180830381865afa15801561093a573d6000803e3d6000fd5b505050506040513d601f19601f8201168201806040525081019061095e91906127c0565b5060008281526007602052604090205460ff16156109b35760405162461bcd60e51b8152602060048201526012602482015271151bdad95b881cdd1a5b1b081cdd185ad95960721b60448201526064016106d7565b600082815260066020526040902054811115610a215760405162461bcd60e51b815260206004820152602760248201527f5769746864726177616c2067726561746572207468616e206465706f73697465604482015266642076616c756560c81b60648201526084016106d7565b80600003610a6a5760405162461bcd60e51b815260206004820152601660248201527543616e6e6f742077697468647261772030205553444360501b60448201526064016106d7565b610a748282611f08565b60025460405163095ea7b360e01b8152306004820152602481018390526001600160a01b039091169063095ea7b3906044016020604051808303816000875af1158015610ac5573d6000803e3d6000fd5b505050506040513d601f19601f82011682018060405250810190610ae991906127c0565b506002546040516323b872dd60e01b81526001600160a01b03909116906323b872dd90610b1e903090339086906004016127fa565b6020604051808303816000875af1158015610b3d573d6000803e3d6000fd5b505050506040513d601f19601f820116820180604052508101906108ae91906127c0565b6000610b6b611986565b60125460ff16610b8e57604051635a90bb8d60e11b815260040160405180910390fd5b610b96611add565b600554604051637c27433b60e11b8152336004820152602481018590526001600160a01b039091169063f84e867690604401602060405180830381865afa158015610be5573d6000803e3d6000fd5b505050506040513d601f19601f82011682018060405250810190610c0991906127c0565b5060008381526007602052604090205460ff1615610c5e5760405162461bcd60e51b8152602060048201526012602482015271151bdad95b881cdd1a5b1b081cdd185ad95960721b60448201526064016106d7565b60008211610c9b5760405162461bcd60e51b815260206004820152600a6024820152694e6f205265776172647360b01b60448201526064016106d7565b336000908152600b6020526040902054821115610d145760405162461bcd60e51b815260206004820152603160248201527f526564656d6d696e67206d6f72652072657761726473207468616e20617661696044820152701b18589b1948199bdc881858d8dbdd5b9d607a1b60648201526084016106d7565b610d1e8383611f08565b60025460405163095ea7b360e01b8152306004820152602481018490526001600160a01b039091169063095ea7b3906044016020604051808303816000875af1158015610d6f573d6000803e3d6000fd5b505050506040513d601f19601f82011682018060405250810190610d9391906127c0565b506002546040516370a0823160e01b81523060048201526000916001600160a01b0316906370a0823190602401602060405180830381865afa158015610ddd573d6000803e3d6000fd5b505050506040513d601f19601f82011682018060405250810190610e01919061281e565b6002546040516323b872dd60e01b81529192506001600160a01b0316906323b872dd90610e36903090339088906004016127fa565b6020604051808303816000875af1158015610e55573d6000803e3d6000fd5b505050506040513d601f19601f82011682018060405250810190610e7991906127c0565b506002546040516370a0823160e01b8152306004820152600091610ef39184916001600160a01b0316906370a08231906024015b602060405180830381865afa158015610eca573d6000803e3d6000fd5b505050506040513d601f19601f82011682018060405250810190610eee919061281e565b611f9b565b336000908152600b6020526040902054909150610f109082611f9b565b336000908152600b6020526040902055915050610f2c60018055565b92915050565b610f3a6119d3565b600254600e546040516323b872dd60e01b81526001600160a01b03909216916323b872dd91610f6f91309186916004016127fa565b6020604051808303816000875af1158015610f8e573d6000803e3d6000fd5b505050506040513d601f19601f82011682018060405250810190610fb291906127c0565b50506000600e55565b610fc36119d3565b610455611fc1565b6000610fd5611986565b60125460ff16610ff857604051635a90bb8d60e11b815260040160405180910390fd5b611000611add565b600f548210156110685760405162461bcd60e51b815260206004820152602d60248201527f4d696e7420616d6f756e74206c657373207468616e206d696e696d756d20696e60448201526c1a5d1a585b0819195c1bdcda5d609a1b60648201526084016106d7565b61107482600d54611f9b565b9150600d54600e600082825461108a919061284d565b909155505060055460408051636e02007d60e01b815290516000926001600160a01b031691636e02007d916004808301926020929190829003018187875af11580156110da573d6000803e3d6000fd5b505050506040513d601f19601f820116820180604052508101906110fe919061281e565b61110990600161284d565b6005546040516335313c2160e11b81526001600160a01b038781166004830152929350911690636a62784290602401600060405180830381600087803b15801561115257600080fd5b505af1158015611166573d6000803e3d6000fd5b505050506111748184611ffd565b600254600d546001600160a01b039091169063095ea7b3903090611198908761284d565b6040516001600160e01b031960e085901b1681526001600160a01b03909216600483015260248201526044016020604051808303816000875af11580156111e3573d6000803e3d6000fd5b505050506040513d601f19601f8201168201806040525081019061120791906127c0565b50600254600d546001600160a01b03909116906323b872dd903390309061122e908861284d565b6040518463ffffffff1660e01b815260040161124c939291906127fa565b6020604051808303816000875af115801561126b573d6000803e3d6000fd5b505050506040513d601f19601f8201168201806040525081019061128f91906127c0565b509050610f2c60018055565b600054600160a81b900460ff16158080156112c357506000546001600160a01b90910460ff16105b806112e45750303b1580156112e45750600054600160a01b900460ff166001145b6113475760405162461bcd60e51b815260206004820152602e60248201527f496e697469616c697a61626c653a20636f6e747261637420697320616c72656160448201526d191e481a5b9a5d1a585b1a5e995960921b60648201526084016106d7565b6000805460ff60a01b1916600160a01b1790558015611374576000805460ff60a81b1916600160a81b1790555b61137c6119d3565b6001600160a01b0384166113a35760405163d92e233d60e01b815260040160405180910390fd5b6001600160a01b0383166113ca5760405163d92e233d60e01b815260040160405180910390fd5b6001600160a01b0382166113f15760405163d92e233d60e01b815260040160405180910390fd5b600580546001600160a01b038087166001600160a01b031992831617909255600480548584169083161781556003805493871693909216831790915560408051636f307dc360e01b81529051636f307dc3928281019260209291908290030181865afa158015611465573d6000803e3d6000fd5b505050506040513d601f19601f8201168201806040525081019061148991906127dd565b600280546001600160a01b0319166001600160a01b039290921691909117905580156114f1576000805460ff60a81b19169055604051600181527f7f26b83ff96e1f2b6a682f133852f6798a09c465da95921460cefb38474024989060200160405180910390a15b50505050565b6114ff611986565b60125460ff1661152257604051635a90bb8d60e11b815260040160405180910390fd5b61152a6119d3565b6012805460ff19169055565b61153e611986565b60125460ff1661156157604051635a90bb8d60e11b815260040160405180910390fd5b611569611add565b60008181526007602052604090205460ff166115ba5760405162461bcd60e51b815260206004820152601060248201526f151bdad95b881b9bdd081cdd185ad95960821b60448201526064016106d7565b6000818152600960205260409020546001600160a01b03163314806115f557506000818152600a60205260409020546001600160a01b031633145b6116415760405162461bcd60e51b815260206004820152601a60248201527f43616c6c6572206973206e6f7420746f6b656e207374616b657200000000000060448201526064016106d7565b306001600160a01b038316036116995760405162461bcd60e51b815260206004820152601d60248201527f43616e6e6f7420756e7374616b6520746f206d61726b6574706c61636500000060448201526064016106d7565b60008181526009602052604080822080546001600160a01b03191690556005549051635c46a7ef60e11b81523060048201526001600160a01b0385811660248301526044820185905260806064830152608482019390935291169063b88d4fde9060a401600060405180830381600087803b15801561171757600080fd5b505af115801561172b573d6000803e3d6000fd5b5050506000828152600a602052604090205461175191506001600160a01b03168261208c565b5060008181526008602052604081205561052460018055565b611772611986565b60125460ff1661179557604051635a90bb8d60e11b815260040160405180910390fd5b61179d611add565b806000036117e55760405162461bcd60e51b815260206004820152601560248201527443616e6e6f74206465706f7369742030205553444360581b60448201526064016106d7565b600554604051637c27433b60e11b8152336004820152602481018490526001600160a01b039091169063f84e867690604401602060405180830381865afa158015611834573d6000803e3d6000fd5b505050506040513d601f19601f8201168201806040525081019061185891906127c0565b506118638282611ffd565b60025460405163095ea7b360e01b8152306004820152602481018390526001600160a01b039091169063095ea7b3906044016020604051808303816000875af11580156118b4573d6000803e3d6000fd5b505050506040513d601f19601f820116820180604052508101906118d891906127c0565b506002546040516323b872dd60e01b81526001600160a01b03909116906323b872dd90610b1e903390309086906004016127fa565b6119156119d3565b6001600160a01b03811661197a5760405162461bcd60e51b815260206004820152602660248201527f4f776e61626c653a206e6577206f776e657220697320746865207a65726f206160448201526564647265737360d01b60648201526084016106d7565b61198381611a8d565b50565b600054600160b01b900460ff16156104555760405162461bcd60e51b815260206004820152601060248201526f14185d5cd8589b194e881c185d5cd95960821b60448201526064016106d7565b6000546001600160a01b031633146104555760405162461bcd60e51b815260206004820181905260248201527f4f776e61626c653a2063616c6c6572206973206e6f7420746865206f776e657260448201526064016106d7565b611a35611986565b6000805460ff60b01b1916600160b01b1790557f62e78cea01bee320cd4e420270b5ea74000d11b0c9f74754ebdbfc544b05a258611a703390565b6040516001600160a01b03909116815260200160405180910390a1565b600080546001600160a01b038381166001600160a01b0319831681178455604051919092169283917f8be0079c531659141344cd1fd0a4f28419497f9722a3daafe3b4186f6b6457e09190a35050565b600260015403611b2f5760405162461bcd60e51b815260206004820152601f60248201527f5265656e7472616e637947756172643a207265656e7472616e742063616c6c0060448201526064016106d7565b6002600155565b600081815260086020908152604080832054600690925282205410801590611b6c57506000828152600860205260409020548311155b611bc75760405162461bcd60e51b815260206004820152602660248201527f4d696e74696e67206d6f7265204355534443207468616e206465706f7369746560448201526564205553444360d01b60648201526084016106d7565b6002546040516370a0823160e01b81523060048201526000916001600160a01b0316906370a0823190602401602060405180830381865afa158015611c10573d6000803e3d6000fd5b505050506040513d601f19601f82011682018060405250810190611c34919061281e565b6003546040516370a0823160e01b81523060048201529192506000916001600160a01b03909116906370a0823190602401602060405180830381865afa158015611c82573d6000803e3d6000fd5b505050506040513d601f19601f82011682018060405250810190611ca6919061281e565b60025460035460405163095ea7b360e01b81526001600160a01b03918216600482015260248101899052929350169063095ea7b3906044016020604051808303816000875af1158015611cfd573d6000803e3d6000fd5b505050506040513d601f19601f82011682018060405250810190611d2191906127c0565b5060035460405163140e25ad60e31b8152600481018790526001600160a01b039091169063a0712d68906024016020604051808303816000875af1158015611d6d573d6000803e3d6000fd5b505050506040513d601f19601f82011682018060405250810190611d91919061281e565b15611dd25760405162461bcd60e51b8152602060048201526011602482015270135a5b9d0810d554d110c819985a5b1959607a1b60448201526064016106d7565b6002546040516370a0823160e01b8152306004820152600091611e099185916001600160a01b0316906370a0823190602401610ead565b9050611e158582611f08565b6003546040516370a0823160e01b8152306004820152600091611e8e916001600160a01b03909116906370a0823190602401602060405180830381865afa158015611e64573d6000803e3d6000fd5b505050506040513d601f19601f82011682018060405250810190611e88919061281e565b84611f9b565b6001600160a01b0389166000908152600c6020526040812080549293508392909190611ebb90849061284d565b90915550506001600160a01b0388166000908152600b6020526040902054611ee39083611f9b565b6001600160a01b0389166000908152600b602052604090205593505050509392505050565b81600003611f295760405163163a09e160e31b815260040160405180910390fd5b600082815260066020526040902054611f429082611f9b565b600083815260066020526040902055601154611f5e9082611f9b565b60115560405181815282907f56ca301a9219608c91e7bcee90e083c19671d2cdcc96752c7af291cee5f9c8c8906020015b60405180910390a25050565b600081831015611fac576000611fba565b611fb68284612865565b9250825b9392505050565b611fc96123e9565b6000805460ff60b01b191690557f5db9ee0a495bf2e6ff9c91a7834c1ba4fdd244a5e8aa4e537bd38aeae4b073aa33611a70565b8160000361201e5760405163163a09e160e31b815260040160405180910390fd5b6000828152600660205260408120805483929061203c90849061284d565b925050819055508060116000828254612055919061284d565b909155505060405181815282907fa3af609bf46297028ce551832669030f9effef2b02606d02cbbcc40fe6b47c5590602001611f8f565b6003546040516370a0823160e01b815230600482015260009182916001600160a01b03909116906370a0823190602401602060405180830381865afa1580156120d9573d6000803e3d6000fd5b505050506040513d601f19601f820116820180604052508101906120fd919061281e565b6002546040516370a0823160e01b81523060048201529192506000916001600160a01b03909116906370a0823190602401602060405180830381865afa15801561214b573d6000803e3d6000fd5b505050506040513d601f19601f8201168201806040525081019061216f919061281e565b6003546005546040516331a9108f60e11b8152600481018890529293506001600160a01b039182169263db006a7592600c92600092911690636352211e90602401602060405180830381865afa1580156121cd573d6000803e3d6000fd5b505050506040513d601f19601f820116820180604052508101906121f191906127dd565b6001600160a01b03166001600160a01b03168152602001908152602001600020546040518263ffffffff1660e01b815260040161223091815260200190565b6020604051808303816000875af115801561224f573d6000803e3d6000fd5b505050506040513d601f19601f82011682018060405250810190612273919061281e565b156122b65760405162461bcd60e51b815260206004820152601360248201527214995919595b4810d554d110c811985a5b1959606a1b60448201526064016106d7565b6002546040516370a0823160e01b815230600482015260009161232f916001600160a01b03909116906370a0823190602401602060405180830381865afa158015612305573d6000803e3d6000fd5b505050506040513d601f19601f82011682018060405250810190612329919061281e565b83611f9b565b905061233b8582611ffd565b6001600160a01b0386166000908152600b60205260408120805483929061236390849061284d565b90915550506003546040516370a0823160e01b815230600482015260009161239f9186916001600160a01b0316906370a0823190602401610ead565b6001600160a01b0388166000908152600c60205260409020549091506123c59082611f9b565b6001600160a01b0388166000908152600c6020526040902055509250505092915050565b600054600160b01b900460ff166104555760405162461bcd60e51b815260206004820152601460248201527314185d5cd8589b194e881b9bdd081c185d5cd95960621b60448201526064016106d7565b60008060006060848603121561244e57600080fd5b505081359360208301359350604090920135919050565b6001600160a01b038116811461198357600080fd5b634e487b7160e01b600052604160045260246000fd5b604051601f8201601f1916810167ffffffffffffffff811182821017156124b9576124b961247a565b604052919050565b600080600080608085870312156124d757600080fd5b84356124e281612465565b93506020858101356124f381612465565b935060408601359250606086013567ffffffffffffffff8082111561251757600080fd5b818801915088601f83011261252b57600080fd5b81358181111561253d5761253d61247a565b61254f601f8201601f19168501612490565b9150808252898482850101111561256557600080fd5b808484018584013760008482840101525080935050505092959194509250565b801515811461198357600080fd5b600080604083850312156125a657600080fd5b8235915060208301356125b881612585565b809150509250929050565b600080604083850312156125d657600080fd5b8235915060208301356125b881612465565b600080604083850312156125fb57600080fd5b50508035926020909101359150565b60006020828403121561261c57600080fd5b8135611fba81612465565b60006020828403121561263957600080fd5b5035919050565b6000806040838503121561265357600080fd5b823561265e81612465565b946020939093013593505050565b60008060006060848603121561268157600080fd5b833561268c81612465565b9250602084013561269c81612465565b915060408401356126ac81612465565b809150509250925092565b634e487b7160e01b600052603260045260246000fd5b6020808252825182820181905260009190848201906040850190845b8181101561270e5783516001600160a01b0316835292840192918401916001016126e9565b50909695505050505050565b6000602080838503121561272d57600080fd5b825167ffffffffffffffff8082111561274557600080fd5b818501915085601f83011261275957600080fd5b81518181111561276b5761276b61247a565b8060051b915061277c848301612490565b818152918301840191848101908884111561279657600080fd5b938501935b838510156127b45784518252938501939085019061279b565b98975050505050505050565b6000602082840312156127d257600080fd5b8151611fba81612585565b6000602082840312156127ef57600080fd5b8151611fba81612465565b6001600160a01b039384168152919092166020820152604081019190915260600190565b60006020828403121561283057600080fd5b5051919050565b634e487b7160e01b600052601160045260246000fd5b6000821982111561286057612860612837565b500190565b60008282101561287757612877612837565b50039056fea2646970667358221220cf5247d7eb06bfc00740899b2f011f3ff7bcdcf5a6233d4938dd974c92a6c14464736f6c634300080d0033","linkReferences":{}},"methodIdentifiers":{"depositUSDC(uint256,uint256)":"e740010f","endMarket()":"c895b8eb","enterMarketWithCUSDC()":"5379c2e7","getAvailableRewards(address)":"873e31fa","getDeposit(uint256)":"9f9fb968","initialMinNFTDeposit()":"6a527072","initialize(address,address,address)":"c0c53b8b","isStaked(uint256)":"baa51f86","minimumStakePrice()":"6fd556e8","mintWithUSDC(address,uint256)":"b610bcc6","onERC721Received(address,address,uint256,bytes)":"150b7a02","owner()":"8da5cb5b","pauseContract()":"439766ce","paused()":"5c975abb","redeemCompoundRewards(uint256,uint256)":"92b7942b","renounceOwnership()":"715018a6","setMarketConditions(uint256,uint256,uint256)":"2023e673","setPrevOwner(uint256,address)":"7a4fad74","setStaked(uint256,bool)":"53902715","stake(uint256,uint256)":"7b0472f0","startMarket(uint256,uint256,uint256)":"0b9c32b6","totalDeposits()":"7d882097","transferOwnership(address)":"f2fde38b","unStake(address,uint256)":"d9393814","unpauseContract()":"b33712c5","withdrawMintingProfit(address)":"acada2f4","withdrawUSDC(uint256,uint256)":"88e08665"},"id":43}