{"abi":[{"type":"constructor","inputs":[{"name":"array","type":"address[]","internalType":"address[]"}],"stateMutability":"nonpayable"},{"type":"function","name":"unsafeAccess","inputs":[{"name":"pos","type":"uint256","internalType":"uint256"}],"outputs":[{"name":"","type":"address","internalType":"address"}],"stateMutability":"view"}],"bytecode":{"object":"0x608060405234801561001057600080fd5b5060405161029c38038061029c83398101604081905261002f916100f5565b8051610042906000906020840190610049565b50506101b9565b82805482825590600052602060002090810192821561009e579160200282015b8281111561009e57825182546001600160a01b0319166001600160a01b03909116178255602090920191600190910190610069565b506100aa9291506100ae565b5090565b5b808211156100aa57600081556001016100af565b634e487b7160e01b600052604160045260246000fd5b80516001600160a01b03811681146100f057600080fd5b919050565b6000602080838503121561010857600080fd5b82516001600160401b038082111561011f57600080fd5b818501915085601f83011261013357600080fd5b815181811115610145576101456100c3565b8060051b604051601f19603f8301168101818110858211171561016a5761016a6100c3565b60405291825284820192508381018501918883111561018857600080fd5b938501935b828510156101ad5761019e856100d9565b8452938501939285019261018d565b98975050505050505050565b60d5806101c76000396000f3fe6080604052348015600f57600080fd5b506004361060285760003560e01c806340aa934d14602d575b600080fd5b606b60383660046087565b600080527f290decd9548b62a8d60345a988386fc84ba6bc95484008f6362f93160ef3e56301546001600160a01b031690565b6040516001600160a01b03909116815260200160405180910390f35b600060208284031215609857600080fd5b503591905056fea264697066735822122029cffbcc731247ae7ae6ce83309371769efaf1054cb046b97cfc3a4da5a4c24264736f6c634300080d0033","linkReferences":{}},"methodIdentifiers":{"unsafeAccess(uint256)":"40aa934d"},"id":91}