{"abi":[{"type":"constructor","inputs":[{"name":"array","type":"bytes32[]","internalType":"bytes32[]"}],"stateMutability":"nonpayable"},{"type":"function","name":"unsafeAccess","inputs":[{"name":"pos","type":"uint256","internalType":"uint256"}],"outputs":[{"name":"","type":"bytes32","internalType":"bytes32"}],"stateMutability":"view"}],"bytecode":{"object":"0x608060405234801561001057600080fd5b5060405161024c38038061024c83398101604081905261002f916100bf565b8051610042906000906020840190610049565b505061017c565b828054828255906000526020600020908101928215610084579160200282015b82811115610084578251825591602001919060010190610069565b50610090929150610094565b5090565b5b808211156100905760008155600101610095565b634e487b7160e01b600052604160045260246000fd5b600060208083850312156100d257600080fd5b82516001600160401b03808211156100e957600080fd5b818501915085601f8301126100fd57600080fd5b81518181111561010f5761010f6100a9565b8060051b604051601f19603f83011681018181108582111715610134576101346100a9565b60405291825284820192508381018501918883111561015257600080fd5b938501935b8285101561017057845184529385019392850192610157565b98975050505050505050565b60c28061018a6000396000f3fe6080604052348015600f57600080fd5b506004361060285760003560e01c806340aa934d14602d575b600080fd5b606260383660046074565b600080527f290decd9548b62a8d60345a988386fc84ba6bc95484008f6362f93160ef3e563015490565b60405190815260200160405180910390f35b600060208284031215608557600080fd5b503591905056fea26469706673582212203e3c301b9abf10f50af63bd692311b3085e97ac921a28c93680e54af68827ff364736f6c634300080d0033","linkReferences":{}},"methodIdentifiers":{"unsafeAccess(uint256)":"40aa934d"},"id":91}