{"abi":[{"type":"constructor","inputs":[{"name":"array","type":"uint256[]","internalType":"uint256[]"}],"stateMutability":"nonpayable"},{"type":"function","name":"findUpperBound","inputs":[{"name":"element","type":"uint256","internalType":"uint256"}],"outputs":[{"name":"","type":"uint256","internalType":"uint256"}],"stateMutability":"view"},{"type":"function","name":"unsafeAccess","inputs":[{"name":"pos","type":"uint256","internalType":"uint256"}],"outputs":[{"name":"","type":"uint256","internalType":"uint256"}],"stateMutability":"view"}],"bytecode":{"object":"0x608060405234801561001057600080fd5b506040516103ba3803806103ba83398101604081905261002f916100bf565b8051610042906000906020840190610049565b505061017c565b828054828255906000526020600020908101928215610084579160200282015b82811115610084578251825591602001919060010190610069565b50610090929150610094565b5090565b5b808211156100905760008155600101610095565b634e487b7160e01b600052604160045260246000fd5b600060208083850312156100d257600080fd5b82516001600160401b03808211156100e957600080fd5b818501915085601f8301126100fd57600080fd5b81518181111561010f5761010f6100a9565b8060051b604051601f19603f83011681018181108582111715610134576101346100a9565b60405291825284820192508381018501918883111561015257600080fd5b938501935b8285101561017057845184529385019392850192610157565b98975050505050505050565b61022f8061018b6000396000f3fe608060405234801561001057600080fd5b50600436106100365760003560e01c806333e3a58a1461003b57806340aa934d14610060575b600080fd5b61004e610049366004610179565b610098565b60405190815260200160405180910390f35b61004e61006e366004610179565b600080527f290decd9548b62a8d60345a988386fc84ba6bc95484008f6362f93160ef3e563015490565b60006100a481836100aa565b92915050565b815460009081036100bd575060006100a4565b82546000905b8082101561010a5760006100d78383610157565b600087815260209020909150859082015411156100f657809150610104565b6101018160016101a8565b92505b506100c3565b600082118015610136575083610133866101256001866101c0565b600091825260209091200190565b54145b1561014f576101466001836101c0565b925050506100a4565b509392505050565b600061016660028484186101d7565b610172908484166101a8565b9392505050565b60006020828403121561018b57600080fd5b5035919050565b634e487b7160e01b600052601160045260246000fd5b600082198211156101bb576101bb610192565b500190565b6000828210156101d2576101d2610192565b500390565b6000826101f457634e487b7160e01b600052601260045260246000fd5b50049056fea26469706673582212202fd3503232f2939705dad66120a4c33929358a72c6b4f97bdb4ce156e0bce6a564736f6c634300080d0033","linkReferences":{}},"methodIdentifiers":{"findUpperBound(uint256)":"33e3a58a","unsafeAccess(uint256)":"40aa934d"},"id":91}