{"abi":[{"type":"function","name":"DEFAULT_ADMIN_ROLE","inputs":[],"outputs":[{"name":"","type":"bytes32","internalType":"bytes32"}],"stateMutability":"view"},{"type":"function","name":"MINTER_ROLE","inputs":[],"outputs":[{"name":"","type":"bytes32","internalType":"bytes32"}],"stateMutability":"view"},{"type":"function","name":"PAUSER_ROLE","inputs":[],"outputs":[{"name":"","type":"bytes32","internalType":"bytes32"}],"stateMutability":"view"},{"type":"function","name":"allowance","inputs":[{"name":"owner","type":"address","internalType":"address"},{"name":"spender","type":"address","internalType":"address"}],"outputs":[{"name":"","type":"uint256","internalType":"uint256"}],"stateMutability":"view"},{"type":"function","name":"approve","inputs":[{"name":"spender","type":"address","internalType":"address"},{"name":"amount","type":"uint256","internalType":"uint256"}],"outputs":[{"name":"","type":"bool","internalType":"bool"}],"stateMutability":"nonpayable"},{"type":"function","name":"balanceOf","inputs":[{"name":"account","type":"address","internalType":"address"}],"outputs":[{"name":"","type":"uint256","internalType":"uint256"}],"stateMutability":"view"},{"type":"function","name":"burn","inputs":[{"name":"amount","type":"uint256","internalType":"uint256"}],"outputs":[],"stateMutability":"nonpayable"},{"type":"function","name":"burnFrom","inputs":[{"name":"account","type":"address","internalType":"address"},{"name":"amount","type":"uint256","internalType":"uint256"}],"outputs":[],"stateMutability":"nonpayable"},{"type":"function","name":"decimals","inputs":[],"outputs":[{"name":"","type":"uint8","internalType":"uint8"}],"stateMutability":"view"},{"type":"function","name":"decreaseAllowance","inputs":[{"name":"spender","type":"address","internalType":"address"},{"name":"subtractedValue","type":"uint256","internalType":"uint256"}],"outputs":[{"name":"","type":"bool","internalType":"bool"}],"stateMutability":"nonpayable"},{"type":"function","name":"getRoleAdmin","inputs":[{"name":"role","type":"bytes32","internalType":"bytes32"}],"outputs":[{"name":"","type":"bytes32","internalType":"bytes32"}],"stateMutability":"view"},{"type":"function","name":"getRoleMember","inputs":[{"name":"role","type":"bytes32","internalType":"bytes32"},{"name":"index","type":"uint256","internalType":"uint256"}],"outputs":[{"name":"","type":"address","internalType":"address"}],"stateMutability":"view"},{"type":"function","name":"getRoleMemberCount","inputs":[{"name":"role","type":"bytes32","internalType":"bytes32"}],"outputs":[{"name":"","type":"uint256","internalType":"uint256"}],"stateMutability":"view"},{"type":"function","name":"grantRole","inputs":[{"name":"role","type":"bytes32","internalType":"bytes32"},{"name":"account","type":"address","internalType":"address"}],"outputs":[],"stateMutability":"nonpayable"},{"type":"function","name":"hasRole","inputs":[{"name":"role","type":"bytes32","internalType":"bytes32"},{"name":"account","type":"address","internalType":"address"}],"outputs":[{"name":"","type":"bool","internalType":"bool"}],"stateMutability":"view"},{"type":"function","name":"increaseAllowance","inputs":[{"name":"spender","type":"address","internalType":"address"},{"name":"addedValue","type":"uint256","internalType":"uint256"}],"outputs":[{"name":"","type":"bool","internalType":"bool"}],"stateMutability":"nonpayable"},{"type":"function","name":"initialize","inputs":[{"name":"name","type":"string","internalType":"string"},{"name":"symbol","type":"string","internalType":"string"}],"outputs":[],"stateMutability":"nonpayable"},{"type":"function","name":"mint","inputs":[{"name":"to","type":"address","internalType":"address"},{"name":"amount","type":"uint256","internalType":"uint256"}],"outputs":[],"stateMutability":"nonpayable"},{"type":"function","name":"name","inputs":[],"outputs":[{"name":"","type":"string","internalType":"string"}],"stateMutability":"view"},{"type":"function","name":"pause","inputs":[],"outputs":[],"stateMutability":"nonpayable"},{"type":"function","name":"paused","inputs":[],"outputs":[{"name":"","type":"bool","internalType":"bool"}],"stateMutability":"view"},{"type":"function","name":"renounceRole","inputs":[{"name":"role","type":"bytes32","internalType":"bytes32"},{"name":"account","type":"address","internalType":"address"}],"outputs":[],"stateMutability":"nonpayable"},{"type":"function","name":"revokeRole","inputs":[{"name":"role","type":"bytes32","internalType":"bytes32"},{"name":"account","type":"address","internalType":"address"}],"outputs":[],"stateMutability":"nonpayable"},{"type":"function","name":"supportsInterface","inputs":[{"name":"interfaceId","type":"bytes4","internalType":"bytes4"}],"outputs":[{"name":"","type":"bool","internalType":"bool"}],"stateMutability":"view"},{"type":"function","name":"symbol","inputs":[],"outputs":[{"name":"","type":"string","internalType":"string"}],"stateMutability":"view"},{"type":"function","name":"totalSupply","inputs":[],"outputs":[{"name":"","type":"uint256","internalType":"uint256"}],"stateMutability":"view"},{"type":"function","name":"transfer","inputs":[{"name":"to","type":"address","internalType":"address"},{"name":"amount","type":"uint256","internalType":"uint256"}],"outputs":[{"name":"","type":"bool","internalType":"bool"}],"stateMutability":"nonpayable"},{"type":"function","name":"transferFrom","inputs":[{"name":"from","type":"address","internalType":"address"},{"name":"to","type":"address","internalType":"address"},{"name":"amount","type":"uint256","internalType":"uint256"}],"outputs":[{"name":"","type":"bool","internalType":"bool"}],"stateMutability":"nonpayable"},{"type":"function","name":"unpause","inputs":[],"outputs":[],"stateMutability":"nonpayable"},{"type":"event","name":"Approval","inputs":[{"name":"owner","type":"address","indexed":true,"internalType":"address"},{"name":"spender","type":"address","indexed":true,"internalType":"address"},{"name":"value","type":"uint256","indexed":false,"internalType":"uint256"}],"anonymous":false},{"type":"event","name":"Initialized","inputs":[{"name":"version","type":"uint8","indexed":false,"internalType":"uint8"}],"anonymous":false},{"type":"event","name":"Paused","inputs":[{"name":"account","type":"address","indexed":false,"internalType":"address"}],"anonymous":false},{"type":"event","name":"RoleAdminChanged","inputs":[{"name":"role","type":"bytes32","indexed":true,"internalType":"bytes32"},{"name":"previousAdminRole","type":"bytes32","indexed":true,"internalType":"bytes32"},{"name":"newAdminRole","type":"bytes32","indexed":true,"internalType":"bytes32"}],"anonymous":false},{"type":"event","name":"RoleGranted","inputs":[{"name":"role","type":"bytes32","indexed":true,"internalType":"bytes32"},{"name":"account","type":"address","indexed":true,"internalType":"address"},{"name":"sender","type":"address","indexed":true,"internalType":"address"}],"anonymous":false},{"type":"event","name":"RoleRevoked","inputs":[{"name":"role","type":"bytes32","indexed":true,"internalType":"bytes32"},{"name":"account","type":"address","indexed":true,"internalType":"address"},{"name":"sender","type":"address","indexed":true,"internalType":"address"}],"anonymous":false},{"type":"event","name":"Transfer","inputs":[{"name":"from","type":"address","indexed":true,"internalType":"address"},{"name":"to","type":"address","indexed":true,"internalType":"address"},{"name":"value","type":"uint256","indexed":false,"internalType":"uint256"}],"anonymous":false},{"type":"event","name":"Unpaused","inputs":[{"name":"account","type":"address","indexed":false,"internalType":"address"}],"anonymous":false}],"bytecode":{"object":"0x6080604052348015600e575f5ffd5b50611c8f8061001c5f395ff3fe608060405234801561000f575f5ffd5b50600436106101c6575f3560e01c80635c975abb116100fe578063a217fddf1161009e578063d53913931161006e578063d5391393146103c1578063d547741f146103e8578063dd62ed3e146103fb578063e63ab1e91461040e575f5ffd5b8063a217fddf14610381578063a457c2d714610388578063a9059cbb1461039b578063ca15c873146103ae575f5ffd5b80638456cb59116100d95780638456cb59146103335780639010d07c1461033b57806391d148541461036657806395d89b4114610379575f5ffd5b80635c975abb146102ec57806370a08231146102f857806379cc679014610320575f5ffd5b8063313ce567116101695780633f4ba83a116101445780633f4ba83a146102ab57806340c10f19146102b357806342966c68146102c65780634cd88b76146102d9575f5ffd5b8063313ce5671461027657806336568abe146102855780633950935114610298575f5ffd5b806318160ddd116101a457806318160ddd1461021a57806323b872dd1461022c578063248a9ca31461023f5780632f2ff15d14610261575f5ffd5b806301ffc9a7146101ca57806306fdde03146101f2578063095ea7b314610207575b5f5ffd5b6101dd6101d836600461172e565b610422565b60405190151581526020015b60405180910390f35b6101fa61044c565b6040516101e99190611755565b6101dd6102153660046117a5565b6104dc565b60cb545b6040519081526020016101e9565b6101dd61023a3660046117cd565b6104f3565b61021e61024d366004611807565b5f9081526065602052604090206001015490565b61027461026f36600461181e565b610516565b005b604051601281526020016101e9565b61027461029336600461181e565b61053f565b6101dd6102a63660046117a5565b6105c2565b6102746105e3565b6102746102c13660046117a5565b610676565b6102746102d4366004611807565b610715565b6102746102e73660046118e7565b610722565b61012d5460ff166101dd565b61021e61030636600461194c565b6001600160a01b03165f90815260c9602052604090205490565b61027461032e3660046117a5565b610830565b610274610845565b61034e610349366004611965565b6108d6565b6040516001600160a01b0390911681526020016101e9565b6101dd61037436600461181e565b6108f4565b6101fa61091e565b61021e5f81565b6101dd6103963660046117a5565b61092d565b6101dd6103a93660046117a5565b6109a7565b61021e6103bc366004611807565b6109b4565b61021e7f9f2df0fed2c77648de5860a4cc508cd0818c85b8b8a1ab4ceeef8d981c8956a681565b6102746103f636600461181e565b6109ca565b61021e610409366004611985565b6109ee565b61021e5f516020611c3a5f395f51905f5281565b5f6001600160e01b03198216635a05180f60e01b1480610446575061044682610a18565b92915050565b606060cc805461045b906119ad565b80601f0160208091040260200160405190810160405280929190818152602001828054610487906119ad565b80156104d25780601f106104a9576101008083540402835291602001916104d2565b820191905f5260205f20905b8154815290600101906020018083116104b557829003601f168201915b5050505050905090565b5f336104e9818585610a4c565b5060019392505050565b5f33610500858285610b6f565b61050b858585610be7565b506001949350505050565b5f8281526065602052604090206001015461053081610d9b565b61053a8383610da5565b505050565b6001600160a01b03811633146105b45760405162461bcd60e51b815260206004820152602f60248201527f416363657373436f6e74726f6c3a2063616e206f6e6c792072656e6f756e636560448201526e103937b632b9903337b91039b2b63360891b60648201526084015b60405180910390fd5b6105be8282610dc6565b5050565b5f336104e98185856105d483836109ee565b6105de91906119f9565b610a4c565b6105fa5f516020611c3a5f395f51905f52336108f4565b61066c5760405162461bcd60e51b815260206004820152603960248201527f45524332305072657365744d696e7465725061757365723a206d75737420686160448201527f76652070617573657220726f6c6520746f20756e70617573650000000000000060648201526084016105ab565b610674610de7565b565b6106a07f9f2df0fed2c77648de5860a4cc508cd0818c85b8b8a1ab4ceeef8d981c8956a6336108f4565b61070b5760405162461bcd60e51b815260206004820152603660248201527f45524332305072657365744d696e7465725061757365723a206d7573742068616044820152751d99481b5a5b9d195c881c9bdb19481d1bc81b5a5b9d60521b60648201526084016105ab565b6105be8282610e3a565b61071f3382610f04565b50565b5f54610100900460ff161580801561074057505f54600160ff909116105b806107595750303b15801561075957505f5460ff166001145b6107bc5760405162461bcd60e51b815260206004820152602e60248201527f496e697469616c697a61626c653a20636f6e747261637420697320616c72656160448201526d191e481a5b9a5d1a585b1a5e995960921b60648201526084016105ab565b5f805460ff1916600117905580156107dd575f805461ff0019166101001790555b6107e78383611041565b801561053a575f805461ff0019169055604051600181527f7f26b83ff96e1f2b6a682f133852f6798a09c465da95921460cefb38474024989060200160405180910390a1505050565b61083b823383610b6f565b6105be8282610f04565b61085c5f516020611c3a5f395f51905f52336108f4565b6108ce5760405162461bcd60e51b815260206004820152603760248201527f45524332305072657365744d696e7465725061757365723a206d75737420686160448201527f76652070617573657220726f6c6520746f20706175736500000000000000000060648201526084016105ab565b610674611083565b5f8281526097602052604081206108ed90836110c1565b9392505050565b5f9182526065602090815260408084206001600160a01b0393909316845291905290205460ff1690565b606060cd805461045b906119ad565b5f338161093a82866109ee565b90508381101561099a5760405162461bcd60e51b815260206004820152602560248201527f45524332303a2064656372656173656420616c6c6f77616e63652062656c6f77604482015264207a65726f60d81b60648201526084016105ab565b61050b8286868403610a4c565b5f336104e9818585610be7565b5f818152609760205260408120610446906110cc565b5f828152606560205260409020600101546109e481610d9b565b61053a8383610dc6565b6001600160a01b039182165f90815260ca6020908152604080832093909416825291909152205490565b5f6001600160e01b03198216637965db0b60e01b148061044657506301ffc9a760e01b6001600160e01b0319831614610446565b6001600160a01b038316610aae5760405162461bcd60e51b8152602060048201526024808201527f45524332303a20617070726f76652066726f6d20746865207a65726f206164646044820152637265737360e01b60648201526084016105ab565b6001600160a01b038216610b0f5760405162461bcd60e51b815260206004820152602260248201527f45524332303a20617070726f766520746f20746865207a65726f206164647265604482015261737360f01b60648201526084016105ab565b6001600160a01b038381165f81815260ca602090815260408083209487168084529482529182902085905590518481527f8c5be1e5ebec7d5bd14f71427d1e84f3dd0314c0f7b2291e5b200ac8c7c3b925910160405180910390a3505050565b5f610b7a84846109ee565b90505f198114610be15781811015610bd45760405162461bcd60e51b815260206004820152601d60248201527f45524332303a20696e73756666696369656e7420616c6c6f77616e636500000060448201526064016105ab565b610be18484848403610a4c565b50505050565b6001600160a01b038316610c4b5760405162461bcd60e51b815260206004820152602560248201527f45524332303a207472616e736665722066726f6d20746865207a65726f206164604482015264647265737360d81b60648201526084016105ab565b6001600160a01b038216610cad5760405162461bcd60e51b815260206004820152602360248201527f45524332303a207472616e7366657220746f20746865207a65726f206164647260448201526265737360e81b60648201526084016105ab565b610cb88383836110d5565b6001600160a01b0383165f90815260c9602052604090205481811015610d2f5760405162461bcd60e51b815260206004820152602660248201527f45524332303a207472616e7366657220616d6f756e7420657863656564732062604482015265616c616e636560d01b60648201526084016105ab565b6001600160a01b038085165f81815260c9602052604080822086860390559286168082529083902080548601905591517fddf252ad1be2c89b69c2b068fc378daa952ba7f163c4a11628f55a4df523b3ef90610d8e9086815260200190565b60405180910390a3610be1565b61071f81336110e0565b610daf8282611139565b5f82815260976020526040902061053a90826111be565b610dd082826111d2565b5f82815260976020526040902061053a9082611238565b610def61124c565b61012d805460ff191690557f5db9ee0a495bf2e6ff9c91a7834c1ba4fdd244a5e8aa4e537bd38aeae4b073aa335b6040516001600160a01b03909116815260200160405180910390a1565b6001600160a01b038216610e905760405162461bcd60e51b815260206004820152601f60248201527f45524332303a206d696e7420746f20746865207a65726f20616464726573730060448201526064016105ab565b610e9b5f83836110d5565b8060cb5f828254610eac91906119f9565b90915550506001600160a01b0382165f81815260c960209081526040808320805486019055518481527fddf252ad1be2c89b69c2b068fc378daa952ba7f163c4a11628f55a4df523b3ef910160405180910390a35050565b6001600160a01b038216610f645760405162461bcd60e51b815260206004820152602160248201527f45524332303a206275726e2066726f6d20746865207a65726f206164647265736044820152607360f81b60648201526084016105ab565b610f6f825f836110d5565b6001600160a01b0382165f90815260c9602052604090205481811015610fe25760405162461bcd60e51b815260206004820152602260248201527f45524332303a206275726e20616d6f756e7420657863656564732062616c616e604482015261636560f01b60648201526084016105ab565b6001600160a01b0383165f81815260c960209081526040808320868603905560cb80548790039055518581529192917fddf252ad1be2c89b69c2b068fc378daa952ba7f163c4a11628f55a4df523b3ef910160405180910390a3505050565b5f54610100900460ff166110675760405162461bcd60e51b81526004016105ab90611a0c565b6110718282611296565b6110796112d5565b6105be8282611308565b61108b611379565b61012d805460ff191660011790557f62e78cea01bee320cd4e420270b5ea74000d11b0c9f74754ebdbfc544b05a258610e1d3390565b5f6108ed83836113c0565b5f610446825490565b61053a8383836113e6565b6110ea82826108f4565b6105be576110f78161144d565b61110283602061145f565b604051602001611113929190611a6e565b60408051601f198184030181529082905262461bcd60e51b82526105ab91600401611755565b61114382826108f4565b6105be575f8281526065602090815260408083206001600160a01b03851684529091529020805460ff1916600117905561117a3390565b6001600160a01b0316816001600160a01b0316837f2f8788117e7eff1d82e926ec794901d17c78024a50270940304540a733656f0d60405160405180910390a45050565b5f6108ed836001600160a01b0384166115f5565b6111dc82826108f4565b156105be575f8281526065602090815260408083206001600160a01b0385168085529252808320805460ff1916905551339285917ff6391f5c32d9c69d2a47ea670b442974b53935d1edc7fd64eb21e047a839171b9190a45050565b5f6108ed836001600160a01b038416611641565b61012d5460ff166106745760405162461bcd60e51b815260206004820152601460248201527314185d5cd8589b194e881b9bdd081c185d5cd95960621b60448201526064016105ab565b5f54610100900460ff166112bc5760405162461bcd60e51b81526004016105ab90611a0c565b60cc6112c88382611b17565b5060cd61053a8282611b17565b5f54610100900460ff166112fb5760405162461bcd60e51b81526004016105ab90611a0c565b61012d805460ff19169055565b5f54610100900460ff1661132e5760405162461bcd60e51b81526004016105ab90611a0c565b6113385f33611724565b6113627f9f2df0fed2c77648de5860a4cc508cd0818c85b8b8a1ab4ceeef8d981c8956a633611724565b6105be5f516020611c3a5f395f51905f5233611724565b61012d5460ff16156106745760405162461bcd60e51b815260206004820152601060248201526f14185d5cd8589b194e881c185d5cd95960821b60448201526064016105ab565b5f825f0182815481106113d5576113d5611bd2565b905f5260205f200154905092915050565b61012d5460ff161561053a5760405162461bcd60e51b815260206004820152602a60248201527f45524332305061757361626c653a20746f6b656e207472616e736665722077686044820152691a5b19481c185d5cd95960b21b60648201526084016105ab565b60606104466001600160a01b03831660145b60605f61146d836002611be6565b6114789060026119f9565b67ffffffffffffffff81111561149057611490611848565b6040519080825280601f01601f1916602001820160405280156114ba576020820181803683370190505b509050600360fc1b815f815181106114d4576114d4611bd2565b60200101906001600160f81b03191690815f1a905350600f60fb1b8160018151811061150257611502611bd2565b60200101906001600160f81b03191690815f1a9053505f611524846002611be6565b61152f9060016119f9565b90505b60018111156115a6576f181899199a1a9b1b9c1cb0b131b232b360811b85600f166010811061156357611563611bd2565b1a60f81b82828151811061157957611579611bd2565b60200101906001600160f81b03191690815f1a90535060049490941c9361159f81611bfd565b9050611532565b5083156108ed5760405162461bcd60e51b815260206004820181905260248201527f537472696e67733a20686578206c656e67746820696e73756666696369656e7460448201526064016105ab565b5f81815260018301602052604081205461163a57508154600181810184555f848152602080822090930184905584548482528286019093526040902091909155610446565b505f610446565b5f818152600183016020526040812054801561171b575f611663600183611c12565b85549091505f9061167690600190611c12565b90508181146116d5575f865f01828154811061169457611694611bd2565b905f5260205f200154905080875f0184815481106116b4576116b4611bd2565b5f918252602080832090910192909255918252600188019052604090208390555b85548690806116e6576116e6611c25565b600190038181905f5260205f20015f90559055856001015f8681526020019081526020015f205f905560019350505050610446565b5f915050610446565b6105be8282610da5565b5f6020828403121561173e575f5ffd5b81356001600160e01b0319811681146108ed575f5ffd5b602081525f82518060208401528060208501604085015e5f604082850101526040601f19601f83011684010191505092915050565b80356001600160a01b03811681146117a0575f5ffd5b919050565b5f5f604083850312156117b6575f5ffd5b6117bf8361178a565b946020939093013593505050565b5f5f5f606084860312156117df575f5ffd5b6117e88461178a565b92506117f66020850161178a565b929592945050506040919091013590565b5f60208284031215611817575f5ffd5b5035919050565b5f5f6040838503121561182f575f5ffd5b8235915061183f6020840161178a565b90509250929050565b634e487b7160e01b5f52604160045260245ffd5b5f82601f83011261186b575f5ffd5b813567ffffffffffffffff81111561188557611885611848565b604051601f8201601f19908116603f0116810167ffffffffffffffff811182821017156118b4576118b4611848565b6040528181528382016020018510156118cb575f5ffd5b816020850160208301375f918101602001919091529392505050565b5f5f604083850312156118f8575f5ffd5b823567ffffffffffffffff81111561190e575f5ffd5b61191a8582860161185c565b925050602083013567ffffffffffffffff811115611936575f5ffd5b6119428582860161185c565b9150509250929050565b5f6020828403121561195c575f5ffd5b6108ed8261178a565b5f5f60408385031215611976575f5ffd5b50508035926020909101359150565b5f5f60408385031215611996575f5ffd5b61199f8361178a565b915061183f6020840161178a565b600181811c908216806119c157607f821691505b6020821081036119df57634e487b7160e01b5f52602260045260245ffd5b50919050565b634e487b7160e01b5f52601160045260245ffd5b80820180821115610446576104466119e5565b6020808252602b908201527f496e697469616c697a61626c653a20636f6e7472616374206973206e6f74206960408201526a6e697469616c697a696e6760a81b606082015260800190565b5f81518060208401855e5f93019283525090919050565b7f416363657373436f6e74726f6c3a206163636f756e742000000000000000000081525f611a9f6017830185611a57565b7001034b99036b4b9b9b4b733903937b6329607d1b8152611ac36011820185611a57565b95945050505050565b601f82111561053a57805f5260205f20601f840160051c81016020851015611af15750805b601f840160051c820191505b81811015611b10575f8155600101611afd565b5050505050565b815167ffffffffffffffff811115611b3157611b31611848565b611b4581611b3f84546119ad565b84611acc565b6020601f821160018114611b77575f8315611b605750848201515b5f19600385901b1c1916600184901b178455611b10565b5f84815260208120601f198516915b82811015611ba65787850151825560209485019460019092019101611b86565b5084821015611bc357868401515f19600387901b60f8161c191681555b50505050600190811b01905550565b634e487b7160e01b5f52603260045260245ffd5b8082028115828204841417610446576104466119e5565b5f81611c0b57611c0b6119e5565b505f190190565b81810381811115610446576104466119e5565b634e487b7160e01b5f52603160045260245ffdfe65d7a28e3265b37a6474929f336521b332c1681b933f6cb9f3376673440d862aa26469706673582212201bf92d73dfe11d189e53e700dbb9e6cad3d30851775720bba79d43cd64812c8a64736f6c634300081c0033","linkReferences":{}},"methodIdentifiers":{"DEFAULT_ADMIN_ROLE()":"a217fddf","MINTER_ROLE()":"d5391393","PAUSER_ROLE()":"e63ab1e9","allowance(address,address)":"dd62ed3e","approve(address,uint256)":"095ea7b3","balanceOf(address)":"70a08231","burn(uint256)":"42966c68","burnFrom(address,uint256)":"79cc6790","decimals()":"313ce567","decreaseAllowance(address,uint256)":"a457c2d7","getRoleAdmin(bytes32)":"248a9ca3","getRoleMember(bytes32,uint256)":"9010d07c","getRoleMemberCount(bytes32)":"ca15c873","grantRole(bytes32,address)":"2f2ff15d","hasRole(bytes32,address)":"91d14854","increaseAllowance(address,uint256)":"39509351","initialize(string,string)":"4cd88b76","mint(address,uint256)":"40c10f19","name()":"06fdde03","pause()":"8456cb59","paused()":"5c975abb","renounceRole(bytes32,address)":"36568abe","revokeRole(bytes32,address)":"d547741f","supportsInterface(bytes4)":"01ffc9a7","symbol()":"95d89b41","totalSupply()":"18160ddd","transfer(address,uint256)":"a9059cbb","transferFrom(address,address,uint256)":"23b872dd","unpause()":"3f4ba83a"},"id":122}