{"abi":[{"type":"constructor","inputs":[{"name":"_challengeContract","type":"address","internalType":"address"},{"name":"_threshold","type":"uint96","internalType":"uint96"},{"name":"_withdrawValidators","type":"address[]","internalType":"address[]"}],"stateMutability":"payable"},{"type":"function","name":"NFT_WEIGHT","inputs":[],"outputs":[{"name":"","type":"uint256","internalType":"uint256"}],"stateMutability":"view"},{"type":"function","name":"OWNER_WEIGHT","inputs":[],"outputs":[{"name":"","type":"uint256","internalType":"uint256"}],"stateMutability":"view"},{"type":"function","name":"VALIDATOR_PRICE","inputs":[],"outputs":[{"name":"","type":"uint256","internalType":"uint256"}],"stateMutability":"view"},{"type":"function","name":"adminNftContract","inputs":[],"outputs":[{"name":"","type":"address","internalType":"address"}],"stateMutability":"view"},{"type":"function","name":"bridgeSettingValidators","inputs":[{"name":"","type":"uint256","internalType":"uint256"}],"outputs":[{"name":"","type":"address","internalType":"address"}],"stateMutability":"view"},{"type":"function","name":"challengeContract","inputs":[],"outputs":[{"name":"","type":"address","internalType":"address"}],"stateMutability":"view"},{"type":"function","name":"changeBridgeSettings","inputs":[{"name":"message","type":"bytes","internalType":"bytes"},{"name":"signatures","type":"bytes[]","internalType":"bytes[]"}],"outputs":[],"stateMutability":"nonpayable"},{"type":"function","name":"currentNftId","inputs":[],"outputs":[{"name":"","type":"uint256","internalType":"uint256"}],"stateMutability":"view"},{"type":"function","name":"depositEth","inputs":[{"name":"destinationChain","type":"string","internalType":"string"},{"name":"destinationAddress","type":"address","internalType":"address"}],"outputs":[],"stateMutability":"payable"},{"type":"function","name":"mintAdminNFT","inputs":[],"outputs":[],"stateMutability":"payable"},{"type":"function","name":"onERC1155BatchReceived","inputs":[{"name":"","type":"address","internalType":"address"},{"name":"from","type":"address","internalType":"address"},{"name":"ids","type":"uint256[]","internalType":"uint256[]"},{"name":"","type":"uint256[]","internalType":"uint256[]"},{"name":"","type":"bytes","internalType":"bytes"}],"outputs":[{"name":"","type":"bytes4","internalType":"bytes4"}],"stateMutability":"nonpayable"},{"type":"function","name":"onERC1155Received","inputs":[{"name":"","type":"address","internalType":"address"},{"name":"from","type":"address","internalType":"address"},{"name":"","type":"uint256","internalType":"uint256"},{"name":"","type":"uint256","internalType":"uint256"},{"name":"","type":"bytes","internalType":"bytes"}],"outputs":[{"name":"","type":"bytes4","internalType":"bytes4"}],"stateMutability":"nonpayable"},{"type":"function","name":"owner","inputs":[],"outputs":[{"name":"","type":"address","internalType":"address"}],"stateMutability":"view"},{"type":"function","name":"processedMessages","inputs":[{"name":"","type":"bytes32","internalType":"bytes32"}],"outputs":[{"name":"","type":"bool","internalType":"bool"}],"stateMutability":"view"},{"type":"function","name":"renounceOwnership","inputs":[],"outputs":[],"stateMutability":"nonpayable"},{"type":"function","name":"supportsInterface","inputs":[{"name":"interfaceId","type":"bytes4","internalType":"bytes4"}],"outputs":[{"name":"","type":"bool","internalType":"bool"}],"stateMutability":"view"},{"type":"function","name":"threshold","inputs":[],"outputs":[{"name":"","type":"uint96","internalType":"uint96"}],"stateMutability":"view"},{"type":"function","name":"totalWeight","inputs":[],"outputs":[{"name":"","type":"uint256","internalType":"uint256"}],"stateMutability":"view"},{"type":"function","name":"transferOwnership","inputs":[{"name":"newOwner","type":"address","internalType":"address"}],"outputs":[],"stateMutability":"nonpayable"},{"type":"function","name":"validatorWeights","inputs":[{"name":"","type":"address","internalType":"address"}],"outputs":[{"name":"","type":"uint256","internalType":"uint256"}],"stateMutability":"view"},{"type":"function","name":"verifyChallenge","inputs":[],"outputs":[],"stateMutability":"nonpayable"},{"type":"function","name":"withdrawEth","inputs":[{"name":"messageHash","type":"bytes32","internalType":"bytes32"},{"name":"signatures","type":"bytes[]","internalType":"bytes[]"},{"name":"receiver","type":"address","internalType":"address"},{"name":"amount","type":"uint256","internalType":"uint256"},{"name":"callback","type":"bytes","internalType":"bytes"}],"outputs":[],"stateMutability":"nonpayable"},{"type":"function","name":"withdrawValidators","inputs":[{"name":"","type":"uint256","internalType":"uint256"}],"outputs":[{"name":"","type":"address","internalType":"address"}],"stateMutability":"view"},{"type":"event","name":"AdminNFTMinted","inputs":[{"name":"to","type":"address","indexed":true,"internalType":"address"},{"name":"tokenId","type":"uint256","indexed":false,"internalType":"uint256"}],"anonymous":false},{"type":"event","name":"BridgeUpdated","inputs":[{"name":"challengeContract","type":"address","indexed":true,"internalType":"address"},{"name":"adminNftContract","type":"address","indexed":true,"internalType":"address"},{"name":"threshold","type":"uint256","indexed":false,"internalType":"uint256"}],"anonymous":false},{"type":"event","name":"CrossChainMessage","inputs":[{"name":"amount","type":"uint256","indexed":false,"internalType":"uint256"},{"name":"sender","type":"address","indexed":true,"internalType":"address"},{"name":"destinationChain","type":"string","indexed":false,"internalType":"string"},{"name":"destinationAddress","type":"address","indexed":false,"internalType":"address"}],"anonymous":false},{"type":"event","name":"EthDeposited","inputs":[{"name":"sender","type":"address","indexed":true,"internalType":"address"},{"name":"amount","type":"uint256","indexed":false,"internalType":"uint256"}],"anonymous":false},{"type":"event","name":"EthWithdrawn","inputs":[{"name":"recipient","type":"address","indexed":true,"internalType":"address"},{"name":"success","type":"bool","indexed":false,"internalType":"bool"},{"name":"amount","type":"uint256","indexed":false,"internalType":"uint256"}],"anonymous":false},{"type":"event","name":"OwnershipTransferred","inputs":[{"name":"previousOwner","type":"address","indexed":true,"internalType":"address"},{"name":"newOwner","type":"address","indexed":true,"internalType":"address"}],"anonymous":false}],"bytecode":{"object":"0x6080604052600180556040516142d63803806142d68339810160408190526100269161037e565b61002f336101bb565b6001826001600160601b031610156100985760405162461bcd60e51b815260206004820152602160248201527f496e697469616c207468726573686f6c64206d7573742062652061626f7665206044820152603160f81b60648201526084015b60405180910390fd5b5f8151116100f95760405162461bcd60e51b815260206004820152602860248201527f57697468647261772076616c696461746f7273206c6973742063616e6e6f7420604482015267626520656d70747960c01b606482015260840161008f565b600680546001600160a01b0319166001600160a01b0385161790556040513090610122906102cb565b6001600160a01b039091168152602001604051809103905ff08015801561014b573d5f5f3e3d5ffd5b506001600160a01b0316600160a01b6001600160601b0384160217600755805161017c9060059060208401906102d8565b5061018561020a565b335f9081526002602052604081206127109081905560048054919290916101ad908490610479565b9091555061049e9350505050565b5f80546001600160a01b038381166001600160a01b0319831681178455604051919092169283917f8be0079c531659141344cd1fd0a4f28419497f9722a3daafe3b4186f6b6457e09190a35050565b6001805490805f61021b8285610479565b909155505060075460405163731133e960e01b81523360048201526024810183905260016044820152608060648201525f60848201526001600160a01b039091169063731133e99060a4015f604051808303815f87803b15801561027d575f5ffd5b505af115801561028f573d5f5f3e3d5ffd5b50506040518381523392507fefab54423f3fd189377576600842339ffb2bd21701c0c7d3ef578af26cb93798915060200160405180910390a250565b612033806122a383390190565b828054828255905f5260205f2090810192821561032b579160200282015b8281111561032b57825182546001600160a01b0319166001600160a01b039091161782556020909201916001909101906102f6565b5061033792915061033b565b5090565b5b80821115610337575f815560010161033c565b80516001600160a01b0381168114610365575f5ffd5b919050565b634e487b7160e01b5f52604160045260245ffd5b5f5f5f60608486031215610390575f5ffd5b6103998461034f565b60208501519093506001600160601b03811681146103b5575f5ffd5b60408501519092506001600160401b038111156103d0575f5ffd5b8401601f810186136103e0575f5ffd5b80516001600160401b038111156103f9576103f961036a565b604051600582901b90603f8201601f191681016001600160401b03811182821017156104275761042761036a565b604052918252602081840181019290810189841115610444575f5ffd5b6020850194505b8385101561046a5761045c8561034f565b81526020948501940161044b565b50809450505050509250925092565b8082018082111561049857634e487b7160e01b5f52601160045260245ffd5b92915050565b611df8806104ab5f395ff3fe60806040526004361061013c575f3560e01c806374ab6244116100b3578063bc197c811161006d578063bc197c8114610372578063ca365c23146103aa578063cf1944ad146103bf578063f23a6e61146103d4578063f2fde38b146103f3578063ffe67bf414610412575f5ffd5b806374ab6244146102b65780637923d17b146102d557806388ba16ab146102f45780638da5cb5b146103225780638f51b7661461033e57806396c82e571461035d575f5ffd5b806342cde4e81161010457806342cde4e8146101f2578063438031c3146102305780634547d1711461026757806362266e421461028657806365d0720f1461028e578063715018a6146102a2575f5ffd5b806301992c8f1461014057806301ffc9a71461016f578063020b42961461019e57806303d342e2146101c957806316de4710146101de575b5f5ffd5b34801561014b575f5ffd5b5061015c683635c9adc5dea0000081565b6040519081526020015b60405180910390f35b34801561017a575f5ffd5b5061018e610189366004611738565b610431565b6040519015158152602001610166565b3480156101a9575f5ffd5b5061015c6101b836600461178a565b60026020525f908152604090205481565b6101dc6101d73660046117b9565b610467565b005b3480156101e9575f5ffd5b506101dc610539565b3480156101fd575f5ffd5b5060075461021890600160a01b90046001600160601b031681565b6040516001600160601b039091168152602001610166565b34801561023b575f5ffd5b5060065461024f906001600160a01b031681565b6040516001600160a01b039091168152602001610166565b348015610272575f5ffd5b5060075461024f906001600160a01b031681565b6101dc61077b565b348015610299575f5ffd5b5061015c603281565b3480156102ad575f5ffd5b506101dc6107d4565b3480156102c1575f5ffd5b506101dc6102d03660046118f7565b6107e5565b3480156102e0575f5ffd5b5061024f6102ef366004611989565b610b88565b3480156102ff575f5ffd5b5061018e61030e366004611989565b60086020525f908152604090205460ff1681565b34801561032d575f5ffd5b505f546001600160a01b031661024f565b348015610349575f5ffd5b5061024f610358366004611989565b610bb0565b348015610368575f5ffd5b5061015c60045481565b34801561037d575f5ffd5b5061039161038c3660046119a0565b610bbf565b6040516001600160e01b03199091168152602001610166565b3480156103b5575f5ffd5b5061015c61271081565b3480156103ca575f5ffd5b5061015c60015481565b3480156103df575f5ffd5b506103916103ee366004611a60565b610d03565b3480156103fe575f5ffd5b506101dc61040d36600461178a565b610e12565b34801561041d575f5ffd5b506101dc61042c366004611ad6565b610e8b565b5f6001600160e01b03198216630271189760e51b148061046157506301ffc9a760e01b6001600160e01b03198316145b92915050565b5f34116104bb5760405162461bcd60e51b815260206004820181905260248201527f416d6f756e74206d7573742062652067726561746572207468616e207a65726f60448201526064015b60405180910390fd5b336001600160a01b03167f64e5f29f9c4d49466fd300ea6338c5ad3a9eea347ed61e26be9b637b609bb9153484846040516104f893929190611b40565b60405180910390a260405134815233907f66ff7c8f71ccc7c36152a41920d0d3b46ef3034359f76aa1498ed4478c204b5c9060200160405180910390a25050565b60065460408051600481526024810182526020810180516001600160e01b0316630fc0411b60e11b17905290515f9283926001600160a01b03909116916105809190611ba6565b5f604051808303815f865af19150503d805f81146105b9576040519150601f19603f3d011682016040523d82523d5f602084013e6105be565b606091505b5091509150816105e05760405162461bcd60e51b81526004016104b290611bb1565b5f5f5f838060200190518101906105f79190611c01565b9250925092508261063f5760405162461bcd60e51b815260206004820152601260248201527114dd1859d9480c481b9bdd081cdbdb1d995960721b60448201526064016104b2565b816106815760405162461bcd60e51b815260206004820152601260248201527114dd1859d9480c881b9bdd081cdbdb1d995960721b60448201526064016104b2565b806106c35760405162461bcd60e51b815260206004820152601260248201527114dd1859d9480cc81b9bdd081cdbdb1d995960721b60448201526064016104b2565b6006546040513360248201526001600160a01b039091169060440160408051601f198184030181529181526020820180516001600160e01b03166334146f5560e11b179052516107139190611ba6565b5f604051808303815f865af19150503d805f811461074c576040519150601f19603f3d011682016040523d82523d5f602084013e610751565b606091505b505080955050846107745760405162461bcd60e51b81526004016104b290611bb1565b5050505050565b683635c9adc5dea0000034146107ca5760405162461bcd60e51b8152602060048201526014602482015273125b98dbdc9c9958dd081d985b1d59481cd95b9d60621b60448201526064016104b2565b6107d261111e565b565b6107dc6111df565b6107d25f611238565b335f908152600260205260409020546108105760405162461bcd60e51b81526004016104b290611c41565b5f831161085f5760405162461bcd60e51b815260206004820181905260248201527f416d6f756e74206d7573742062652067726561746572207468616e207a65726f60448201526064016104b2565b5f8781526008602052604090205460ff16156108bd5760405162461bcd60e51b815260206004820152601960248201527f4d65737361676520616c72656164792070726f6365737365640000000000000060448201526064016104b2565b5f80805b87811015610a46575f6109368a8a848181106108df576108df611c89565b90506020028101906108f19190611c9d565b8080601f0160208091040260200160405190810160405280939291908181526020018383808284375f9201919091525061093092508f91506112879050565b906112da565b9050826001600160a01b0316816001600160a01b03160361098b5760405162461bcd60e51b815260206004820152600f60248201526e2932b832b0ba32b21039b4b3b732b960891b60448201526064016104b2565b5f805b6005548110156109df57826001600160a01b0316600582815481106109b5576109b5611c89565b5f918252602090912001546001600160a01b0316036109d757600191506109df565b60010161098e565b5080610a2d5760405162461bcd60e51b815260206004820152601a60248201527f496e76616c69642077697468647261772076616c696461746f7200000000000060448201526064016104b2565b610a38600186611cdf565b9450909250506001016108c1565b50600754600160a01b90046001600160601b0316821015610abb5760405162461bcd60e51b815260206004820152602960248201527f496e73756666696369656e742077656967687420746f2070726f6365737320776044820152681a5d1a191c985dd85b60ba1b60648201526084016104b2565b5f898152600860205260409020805460ff1916600117905547851115610adf574794505b5f866001600160a01b0316868686604051610afb929190611cfe565b5f6040518083038185875af1925050503d805f8114610b35576040519150601f19603f3d011682016040523d82523d5f602084013e610b3a565b606091505b50506040805182151581526020810189905291925033917f036adeadb4d680c84bfbc581774449f432bd4061bed977099e3c595cbf6ffb2f910160405180910390a250505050505050505050565b60058181548110610b97575f80fd5b5f918252602090912001546001600160a01b0316905081565b60038181548110610b97575f80fd5b6007545f906001600160a01b03163314610c0c5760405162461bcd60e51b815260206004820152600e60248201526d13db9b1e4810591b5a5b8813919560921b60448201526064016104b2565b5f6001871115610c3b575f5b87811015610c3557610c2b603283611cdf565b9150600101610c18565b50610c3f565b5060325b6001600160a01b0389165f9081526002602052604081208054839290610c66908490611cdf565b925050819055508060045f828254610c7e9190611cdf565b90915550506001600160a01b0389165f90815260026020526040902054819003610ced57600380546001810182555f919091527fc2575a0e9e593c00f959f8c92f12db2869c3395a3b0502d05e2516446f71f85b0180546001600160a01b0319166001600160a01b038b161790555b5063bc197c8160e01b9998505050505050505050565b6007545f906001600160a01b03163314610d505760405162461bcd60e51b815260206004820152600e60248201526d13db9b1e4810591b5a5b8813919560921b60448201526064016104b2565b6001600160a01b0386165f908152600260205260408120549003610db957600380546001810182555f919091527fc2575a0e9e593c00f959f8c92f12db2869c3395a3b0502d05e2516446f71f85b0180546001600160a01b0319166001600160a01b0388161790555b6001600160a01b0386165f908152600260205260408120805460329290610de1908490611cdf565b92505081905550603260045f828254610dfa9190611cdf565b9091555063f23a6e6160e01b98975050505050505050565b610e1a6111df565b6001600160a01b038116610e7f5760405162461bcd60e51b815260206004820152602660248201527f4f776e61626c653a206e6577206f776e657220697320746865207a65726f206160448201526564647265737360d01b60648201526084016104b2565b610e8881611238565b50565b335f90815260026020526040902054610eb65760405162461bcd60e51b81526004016104b290611c41565b5f80808080805b8681101561100e575f610f6d898984818110610edb57610edb611c89565b9050602002810190610eed9190611c9d565b8080601f0160208091040260200160405190810160405280939291908181526020018383808284375f81840152601f19601f820116905080830192505050505050506109308d8d8080601f0160208091040260200160405190810160405280939291908181526020018383808284375f920191909152506112fc92505050565b9050856001600160a01b0316816001600160a01b031603610fc25760405162461bcd60e51b815260206004820152600f60248201526e2932b832b0ba32b21039b4b3b732b960891b60448201526064016104b2565b6001600160a01b0381165f9081526002602052604090205415611004576001600160a01b0381165f908152600260205260409020546110019088611cdf565b96505b9450600101610ebd565b50600260045461101e9190611d0d565b85101561107c5760405162461bcd60e51b815260206004820152602660248201527f496e73756666696369656e742077656967687420746f206368616e67652073656044820152657474696e677360d01b60648201526084016104b2565b888860405160200161108f929190611cfe565b6040516020818303038152906040528060200190518101906110b19190611d2c565b91945092509050600181116111085760405162461bcd60e51b815260206004820152601d60248201527f4e6577207468726573686f6c64206d7573742062652061626f7665203100000060448201526064016104b2565b611113838383611319565b505050505050505050565b6001805490805f61112f8285611cdf565b909155505060075460405163731133e960e01b81523360048201526024810183905260016044820152608060648201525f60848201526001600160a01b039091169063731133e99060a4015f604051808303815f87803b158015611191575f5ffd5b505af11580156111a3573d5f5f3e3d5ffd5b50506040518381523392507fefab54423f3fd189377576600842339ffb2bd21701c0c7d3ef578af26cb93798915060200160405180910390a250565b5f546001600160a01b031633146107d25760405162461bcd60e51b815260206004820181905260248201527f4f776e61626c653a2063616c6c6572206973206e6f7420746865206f776e657260448201526064016104b2565b5f80546001600160a01b038381166001600160a01b0319831681178455604051919092169283917f8be0079c531659141344cd1fd0a4f28419497f9722a3daafe3b4186f6b6457e09190a35050565b6040517f19457468657265756d205369676e6564204d6573736167653a0a3332000000006020820152603c81018290525f90605c015b604051602081830303815290604052805190602001209050919050565b5f5f5f6112e7858561138a565b915091506112f4816113cc565b509392505050565b5f6113078251611515565b826040516020016112bd929190611d6c565b600680546001600160a01b038581166001600160a01b031990921682179092556001600160601b038316600160a01b029184169182176007556040518381527f09a236a5660c35016f4bd362872bd6aeac5cb43bee52799fd638945c684e25ed9060200160405180910390a3505050565b5f5f82516041036113be576020830151604084015160608501515f1a6113b2878285856115a4565b945094505050506113c5565b505f905060025b9250929050565b5f8160048111156113df576113df611dae565b036113e75750565b60018160048111156113fb576113fb611dae565b036114485760405162461bcd60e51b815260206004820152601860248201527f45434453413a20696e76616c6964207369676e6174757265000000000000000060448201526064016104b2565b600281600481111561145c5761145c611dae565b036114a95760405162461bcd60e51b815260206004820152601f60248201527f45434453413a20696e76616c6964207369676e6174757265206c656e6774680060448201526064016104b2565b60038160048111156114bd576114bd611dae565b03610e885760405162461bcd60e51b815260206004820152602260248201527f45434453413a20696e76616c6964207369676e6174757265202773272076616c604482015261756560f01b60648201526084016104b2565b60605f61152183611661565b60010190505f816001600160401b0381111561153f5761153f6117a5565b6040519080825280601f01601f191660200182016040528015611569576020820181803683370190505b5090508181016020015b5f19016f181899199a1a9b1b9c1cb0b131b232b360811b600a86061a8153600a850494508461157357509392505050565b5f807f7fffffffffffffffffffffffffffffff5d576e7357a4501ddfe92f46681b20a08311156115d957505f90506003611658565b604080515f8082526020820180845289905260ff881692820192909252606081018690526080810185905260019060a0016020604051602081039080840390855afa15801561162a573d5f5f3e3d5ffd5b5050604051601f1901519150506001600160a01b038116611652575f60019250925050611658565b91505f90505b94509492505050565b5f8072184f03e93ff9f4daa797ed6e38ed64bf6a1f0160401b831061169f5772184f03e93ff9f4daa797ed6e38ed64bf6a1f0160401b830492506040015b6d04ee2d6d415b85acef810000000083106116cb576d04ee2d6d415b85acef8100000000830492506020015b662386f26fc1000083106116e957662386f26fc10000830492506010015b6305f5e1008310611701576305f5e100830492506008015b612710831061171557612710830492506004015b60648310611727576064830492506002015b600a83106104615760010192915050565b5f60208284031215611748575f5ffd5b81356001600160e01b03198116811461175f575f5ffd5b9392505050565b6001600160a01b0381168114610e88575f5ffd5b803561178581611766565b919050565b5f6020828403121561179a575f5ffd5b813561175f81611766565b634e487b7160e01b5f52604160045260245ffd5b5f5f604083850312156117ca575f5ffd5b82356001600160401b038111156117df575f5ffd5b8301601f810185136117ef575f5ffd5b80356001600160401b03811115611808576118086117a5565b604051601f8201601f19908116603f011681016001600160401b0381118282101715611836576118366117a5565b60405281815282820160200187101561184d575f5ffd5b816020840160208301375f602083830101528094505050506118716020840161177a565b90509250929050565b5f5f83601f84011261188a575f5ffd5b5081356001600160401b038111156118a0575f5ffd5b6020830191508360208260051b85010111156113c5575f5ffd5b5f5f83601f8401126118ca575f5ffd5b5081356001600160401b038111156118e0575f5ffd5b6020830191508360208285010111156113c5575f5ffd5b5f5f5f5f5f5f5f60a0888a03121561190d575f5ffd5b8735965060208801356001600160401b03811115611929575f5ffd5b6119358a828b0161187a565b909750955050604088013561194981611766565b93506060880135925060808801356001600160401b0381111561196a575f5ffd5b6119768a828b016118ba565b989b979a50959850939692959293505050565b5f60208284031215611999575f5ffd5b5035919050565b5f5f5f5f5f5f5f5f60a0898b0312156119b7575f5ffd5b88356119c281611766565b975060208901356119d281611766565b965060408901356001600160401b038111156119ec575f5ffd5b6119f88b828c0161187a565b90975095505060608901356001600160401b03811115611a16575f5ffd5b611a228b828c0161187a565b90955093505060808901356001600160401b03811115611a40575f5ffd5b611a4c8b828c016118ba565b999c989b5096995094979396929594505050565b5f5f5f5f5f5f60a08789031215611a75575f5ffd5b8635611a8081611766565b95506020870135611a9081611766565b9450604087013593506060870135925060808701356001600160401b03811115611ab8575f5ffd5b611ac489828a016118ba565b979a9699509497509295939492505050565b5f5f5f5f60408587031215611ae9575f5ffd5b84356001600160401b03811115611afe575f5ffd5b611b0a878288016118ba565b90955093505060208501356001600160401b03811115611b28575f5ffd5b611b348782880161187a565b95989497509550505050565b838152606060208201525f83518060608401528060208601608085015e5f8382016080908101919091526001600160a01b03949094166040840152601f01601f19169091019091019392505050565b5f81518060208401855e5f93019283525090919050565b5f61175f8284611b8f565b60208082526021908201527f4661696c656420746f2063616c6c206368616c6c656e676520636f6e747261636040820152601d60fa1b606082015260800190565b80518015158114611785575f5ffd5b5f5f5f60608486031215611c13575f5ffd5b611c1c84611bf2565b9250611c2a60208501611bf2565b9150611c3860408501611bf2565b90509250925092565b60208082526028908201527f43616c6c6572206973206e6f742061206272696467652073657474696e67207660408201526730b634b230ba37b960c11b606082015260800190565b634e487b7160e01b5f52603260045260245ffd5b5f5f8335601e19843603018112611cb2575f5ffd5b8301803591506001600160401b03821115611ccb575f5ffd5b6020019150368190038213156113c5575f5ffd5b8082018082111561046157634e487b7160e01b5f52601160045260245ffd5b818382375f9101908152919050565b5f82611d2757634e487b7160e01b5f52601260045260245ffd5b500490565b5f5f5f60608486031215611d3e575f5ffd5b8351611d4981611766565b6020850151909350611d5a81611766565b80925050604084015190509250925092565b7f19457468657265756d205369676e6564204d6573736167653a0a00000000000081525f611da6611da0601a840186611b8f565b84611b8f565b949350505050565b634e487b7160e01b5f52602160045260245ffdfea26469706673582212209b2dda3e82987a73d510fb250a5078da3946d8b3ce2484cf3197fc3e6908948e64736f6c634300081c0033608060405234801561000f575f5ffd5b5060405161203338038061203383398101604081905261002e916100d5565b60408051602081019091525f815261004581610074565b5061004f33610084565b600480546001600160a01b0319166001600160a01b0392909216919091179055610254565b6002610080828261019a565b5050565b600380546001600160a01b038381166001600160a01b0319831681179093556040519116919082907f8be0079c531659141344cd1fd0a4f28419497f9722a3daafe3b4186f6b6457e0905f90a35050565b5f602082840312156100e5575f5ffd5b81516001600160a01b03811681146100fb575f5ffd5b9392505050565b634e487b7160e01b5f52604160045260245ffd5b600181811c9082168061012a57607f821691505b60208210810361014857634e487b7160e01b5f52602260045260245ffd5b50919050565b601f82111561019557805f5260205f20601f840160051c810160208510156101735750805b601f840160051c820191505b81811015610192575f815560010161017f565b50505b505050565b81516001600160401b038111156101b3576101b3610102565b6101c7816101c18454610116565b8461014e565b6020601f8211600181146101f9575f83156101e25750848201515b5f19600385901b1c1916600184901b178455610192565b5f84815260208120601f198516915b828110156102285787850151825560209485019460019092019101610208565b508482101561024557868401515f19600387901b60f8161c191681555b50505050600190811b01905550565b611dd2806102615f395ff3fe608060405234801561000f575f5ffd5b5060043610610105575f3560e01c8063715018a61161009e578063cd5965831161006e578063cd59658314610233578063e985e9c514610246578063f242432a14610281578063f2fde38b14610294578063f5298aca146102a7575f5ffd5b8063715018a6146101e0578063731133e9146101e85780638da5cb5b146101fb578063a22cb46514610220575f5ffd5b80631f7fdffa116100d95780631f7fdffa146101875780632eb2c2d61461019a5780634e1273f4146101ad5780636b20c454146101cd575f5ffd5b8062fdd58e1461010957806301ffc9a71461012f5780630b26cf66146101525780630e89341c14610167575b5f5ffd5b61011c61011736600461132a565b6102ba565b6040519081526020015b60405180910390f35b61014261013d366004611367565b610351565b6040519015158152602001610126565b610165610160366004611389565b6103a0565b005b61017a6101753660046113a2565b61042f565b60405161012691906113e7565b61016561019536600461153b565b6104c1565b6101656101a83660046115d7565b6104fd565b6101c06101bb366004611683565b610549565b604051610126919061178a565b6101656101db36600461179c565b610668565b6101656106a2565b6101656101f636600461180e565b6106b5565b6003546001600160a01b03165b6040516001600160a01b039091168152602001610126565b61016561022e366004611852565b6106eb565b600454610208906001600160a01b031681565b61014261025436600461188b565b6001600160a01b039182165f90815260016020908152604080832093909416825291909152205460ff1690565b61016561028f3660046118bc565b6106fa565b6101656102a2366004611389565b61073f565b6101656102b536600461190f565b6107b8565b5f6001600160a01b0383166103295760405162461bcd60e51b815260206004820152602a60248201527f455243313135353a2061646472657373207a65726f206973206e6f742061207660448201526930b634b21037bbb732b960b11b60648201526084015b60405180910390fd5b505f818152602081815260408083206001600160a01b03861684529091529020545b92915050565b5f6001600160e01b03198216636cdb3d1360e11b148061038157506001600160e01b031982166303a24d0760e21b145b8061034b57506301ffc9a760e01b6001600160e01b031983161461034b565b6103a86107ed565b6001600160a01b03811661040d5760405162461bcd60e51b815260206004820152602660248201527f42726964676520636f6e747261637420616464726573732063616e6e6f74206260448201526565207a65726f60d01b6064820152608401610320565b600480546001600160a01b0319166001600160a01b0392909216919091179055565b60606002805461043e9061193f565b80601f016020809104026020016040519081016040528092919081815260200182805461046a9061193f565b80156104b55780601f1061048c576101008083540402835291602001916104b5565b820191905f5260205f20905b81548152906001019060200180831161049857829003601f168201915b50505050509050919050565b6004546001600160a01b031633146104eb5760405162461bcd60e51b815260040161032090611977565b6104f784848484610847565b50505050565b6001600160a01b03851633148061051957506105198533610254565b6105355760405162461bcd60e51b8152600401610320906119b8565b610542858585858561097f565b5050505050565b606081518351146105ae5760405162461bcd60e51b815260206004820152602960248201527f455243313135353a206163636f756e747320616e6420696473206c656e677468604482015268040dad2e6dac2e8c6d60bb1b6064820152608401610320565b5f83516001600160401b038111156105c8576105c86113f9565b6040519080825280602002602001820160405280156105f1578160200160208202803683370190505b5090505f5b84518110156106605761063b85828151811061061457610614611a06565b602002602001015185838151811061062e5761062e611a06565b60200260200101516102ba565b82828151811061064d5761064d611a06565b60209081029190910101526001016105f6565b509392505050565b6004546001600160a01b031633146106925760405162461bcd60e51b815260040161032090611977565b61069d838383610b0f565b505050565b6106aa6107ed565b6106b35f610c88565b565b6004546001600160a01b031633146106df5760405162461bcd60e51b815260040161032090611977565b6104f784848484610cd9565b6106f6338383610dae565b5050565b6001600160a01b03851633148061071657506107168533610254565b6107325760405162461bcd60e51b8152600401610320906119b8565b6105428585858585610e8d565b6107476107ed565b6001600160a01b0381166107ac5760405162461bcd60e51b815260206004820152602660248201527f4f776e61626c653a206e6577206f776e657220697320746865207a65726f206160448201526564647265737360d01b6064820152608401610320565b6107b581610c88565b50565b6004546001600160a01b031633146107e25760405162461bcd60e51b815260040161032090611977565b61069d838383610fb3565b6003546001600160a01b031633146106b35760405162461bcd60e51b815260206004820181905260248201527f4f776e61626c653a2063616c6c6572206973206e6f7420746865206f776e65726044820152606401610320565b6001600160a01b03841661086d5760405162461bcd60e51b815260040161032090611a1a565b815183511461088e5760405162461bcd60e51b815260040161032090611a5b565b335f5b8451811015610919578381815181106108ac576108ac611a06565b60200260200101515f5f8784815181106108c8576108c8611a06565b602002602001015181526020019081526020015f205f886001600160a01b03166001600160a01b031681526020019081526020015f205f82825461090c9190611aa3565b9091555050600101610891565b50846001600160a01b03165f6001600160a01b0316826001600160a01b03167f4a39dc06d4c0dbc64b70af90fd698a233a518aa5d07e595d983b8c0526c8f7fb8787604051610969929190611ac2565b60405180910390a4610542815f878787876110b2565b81518351146109a05760405162461bcd60e51b815260040161032090611a5b565b6001600160a01b0384166109c65760405162461bcd60e51b815260040161032090611aef565b335f5b8451811015610aa1575f8582815181106109e5576109e5611a06565b602002602001015190505f858381518110610a0257610a02611a06565b6020908102919091018101515f84815280835260408082206001600160a01b038e168352909352919091205490915081811015610a515760405162461bcd60e51b815260040161032090611b34565b5f838152602081815260408083206001600160a01b038e8116855292528083208585039055908b16825281208054849290610a8d908490611aa3565b9091555050600190930192506109c9915050565b50846001600160a01b0316866001600160a01b0316826001600160a01b03167f4a39dc06d4c0dbc64b70af90fd698a233a518aa5d07e595d983b8c0526c8f7fb8787604051610af1929190611ac2565b60405180910390a4610b078187878787876110b2565b505050505050565b6001600160a01b038316610b355760405162461bcd60e51b815260040161032090611b7e565b8051825114610b565760405162461bcd60e51b815260040161032090611a5b565b60408051602081019091525f9081905233905b8351811015610c1d575f848281518110610b8557610b85611a06565b602002602001015190505f848381518110610ba257610ba2611a06565b6020908102919091018101515f84815280835260408082206001600160a01b038c168352909352919091205490915081811015610bf15760405162461bcd60e51b815260040161032090611bc1565b5f928352602083815260408085206001600160a01b038b16865290915290922091039055600101610b69565b505f6001600160a01b0316846001600160a01b0316826001600160a01b03167f4a39dc06d4c0dbc64b70af90fd698a233a518aa5d07e595d983b8c0526c8f7fb8686604051610c6d929190611ac2565b60405180910390a460408051602081019091525f90526104f7565b600380546001600160a01b038381166001600160a01b0319831681179093556040519116919082907f8be0079c531659141344cd1fd0a4f28419497f9722a3daafe3b4186f6b6457e0905f90a35050565b6001600160a01b038416610cff5760405162461bcd60e51b815260040161032090611a1a565b335f610d0a8561120c565b90505f610d168561120c565b90505f868152602081815260408083206001600160a01b038b16845290915281208054879290610d47908490611aa3565b909155505060408051878152602081018790526001600160a01b03808a16925f92918716917fc3d58168c5ae7397731d063d5bbf3d657854427343f4c083240f7aacaa2d0f62910160405180910390a4610da5835f89898989611255565b50505050505050565b816001600160a01b0316836001600160a01b031603610e215760405162461bcd60e51b815260206004820152602960248201527f455243313135353a2073657474696e6720617070726f76616c20737461747573604482015268103337b91039b2b63360b91b6064820152608401610320565b6001600160a01b038381165f81815260016020908152604080832094871680845294825291829020805460ff191686151590811790915591519182527f17307eab39ab6107e8899845ad3d59bd9653f200f220920489ca2b5937696c31910160405180910390a3505050565b6001600160a01b038416610eb35760405162461bcd60e51b815260040161032090611aef565b335f610ebe8561120c565b90505f610eca8561120c565b90505f868152602081815260408083206001600160a01b038c16845290915290205485811015610f0c5760405162461bcd60e51b815260040161032090611b34565b5f878152602081815260408083206001600160a01b038d8116855292528083208985039055908a16825281208054889290610f48908490611aa3565b909155505060408051888152602081018890526001600160a01b03808b16928c821692918816917fc3d58168c5ae7397731d063d5bbf3d657854427343f4c083240f7aacaa2d0f62910160405180910390a4610fa8848a8a8a8a8a611255565b505050505050505050565b6001600160a01b038316610fd95760405162461bcd60e51b815260040161032090611b7e565b335f610fe48461120c565b90505f610ff08461120c565b60408051602080820183525f918290528882528181528282206001600160a01b038b168352905220549091508481101561103c5760405162461bcd60e51b815260040161032090611bc1565b5f868152602081815260408083206001600160a01b038b81168086529184528285208a8703905582518b81529384018a90529092908816917fc3d58168c5ae7397731d063d5bbf3d657854427343f4c083240f7aacaa2d0f62910160405180910390a460408051602081019091525f9052610da5565b6001600160a01b0384163b15610b075760405163bc197c8160e01b81526001600160a01b0385169063bc197c81906110f69089908990889088908890600401611c05565b6020604051808303815f875af1925050508015611130575060408051601f3d908101601f1916820190925261112d91810190611c62565b60015b6111dc5761113c611c7d565b806308c379a0036111755750611150611c96565b8061115b5750611177565b8060405162461bcd60e51b815260040161032091906113e7565b505b60405162461bcd60e51b815260206004820152603460248201527f455243313135353a207472616e7366657220746f206e6f6e2d455243313135356044820152732932b1b2b4bb32b91034b6b83632b6b2b73a32b960611b6064820152608401610320565b6001600160e01b0319811663bc197c8160e01b14610da55760405162461bcd60e51b815260040161032090611d10565b6040805160018082528183019092526060915f91906020808301908036833701905050905082815f8151811061124457611244611a06565b602090810291909101015292915050565b6001600160a01b0384163b15610b075760405163f23a6e6160e01b81526001600160a01b0385169063f23a6e61906112999089908990889088908890600401611d58565b6020604051808303815f875af19250505080156112d3575060408051601f3d908101601f191682019092526112d091810190611c62565b60015b6112df5761113c611c7d565b6001600160e01b0319811663f23a6e6160e01b14610da55760405162461bcd60e51b815260040161032090611d10565b80356001600160a01b0381168114611325575f5ffd5b919050565b5f5f6040838503121561133b575f5ffd5b6113448361130f565b946020939093013593505050565b6001600160e01b0319811681146107b5575f5ffd5b5f60208284031215611377575f5ffd5b813561138281611352565b9392505050565b5f60208284031215611399575f5ffd5b6113828261130f565b5f602082840312156113b2575f5ffd5b5035919050565b5f81518084528060208401602086015e5f602082860101526020601f19601f83011685010191505092915050565b602081525f61138260208301846113b9565b634e487b7160e01b5f52604160045260245ffd5b601f8201601f191681016001600160401b0381118282101715611432576114326113f9565b6040525050565b5f6001600160401b03821115611451576114516113f9565b5060051b60200190565b5f82601f83011261146a575f5ffd5b813561147581611439565b604051611482828261140d565b80915082815260208101915060208360051b8601019250858311156114a5575f5ffd5b602085015b838110156114c25780358352602092830192016114aa565b5095945050505050565b5f82601f8301126114db575f5ffd5b81356001600160401b038111156114f4576114f46113f9565b60405161150b601f8301601f19166020018261140d565b81815284602083860101111561151f575f5ffd5b816020850160208301375f918101602001919091529392505050565b5f5f5f5f6080858703121561154e575f5ffd5b6115578561130f565b935060208501356001600160401b03811115611571575f5ffd5b61157d8782880161145b565b93505060408501356001600160401b03811115611598575f5ffd5b6115a48782880161145b565b92505060608501356001600160401b038111156115bf575f5ffd5b6115cb878288016114cc565b91505092959194509250565b5f5f5f5f5f60a086880312156115eb575f5ffd5b6115f48661130f565b94506116026020870161130f565b935060408601356001600160401b0381111561161c575f5ffd5b6116288882890161145b565b93505060608601356001600160401b03811115611643575f5ffd5b61164f8882890161145b565b92505060808601356001600160401b0381111561166a575f5ffd5b611676888289016114cc565b9150509295509295909350565b5f5f60408385031215611694575f5ffd5b82356001600160401b038111156116a9575f5ffd5b8301601f810185136116b9575f5ffd5b80356116c481611439565b6040516116d1828261140d565b80915082815260208101915060208360051b8501019250878311156116f4575f5ffd5b6020840193505b8284101561171d5761170c8461130f565b8252602093840193909101906116fb565b945050505060208301356001600160401b0381111561173a575f5ffd5b6117468582860161145b565b9150509250929050565b5f8151808452602084019350602083015f5b82811015611780578151865260209586019590910190600101611762565b5093949350505050565b602081525f6113826020830184611750565b5f5f5f606084860312156117ae575f5ffd5b6117b78461130f565b925060208401356001600160401b038111156117d1575f5ffd5b6117dd8682870161145b565b92505060408401356001600160401b038111156117f8575f5ffd5b6118048682870161145b565b9150509250925092565b5f5f5f5f60808587031215611821575f5ffd5b61182a8561130f565b9350602085013592506040850135915060608501356001600160401b038111156115bf575f5ffd5b5f5f60408385031215611863575f5ffd5b61186c8361130f565b915060208301358015158114611880575f5ffd5b809150509250929050565b5f5f6040838503121561189c575f5ffd5b6118a58361130f565b91506118b36020840161130f565b90509250929050565b5f5f5f5f5f60a086880312156118d0575f5ffd5b6118d98661130f565b94506118e76020870161130f565b9350604086013592506060860135915060808601356001600160401b0381111561166a575f5ffd5b5f5f5f60608486031215611921575f5ffd5b61192a8461130f565b95602085013595506040909401359392505050565b600181811c9082168061195357607f821691505b60208210810361197157634e487b7160e01b5f52602260045260245ffd5b50919050565b60208082526021908201527f43616c6c6572206973206e6f74207468652062726964676520636f6e747261636040820152601d60fa1b606082015260800190565b6020808252602e908201527f455243313135353a2063616c6c6572206973206e6f7420746f6b656e206f776e60408201526d195c881bdc88185c1c1c9bdd995960921b606082015260800190565b634e487b7160e01b5f52603260045260245ffd5b60208082526021908201527f455243313135353a206d696e7420746f20746865207a65726f206164647265736040820152607360f81b606082015260800190565b60208082526028908201527f455243313135353a2069647320616e6420616d6f756e7473206c656e677468206040820152670dad2e6dac2e8c6d60c31b606082015260800190565b8082018082111561034b57634e487b7160e01b5f52601160045260245ffd5b604081525f611ad46040830185611750565b8281036020840152611ae68185611750565b95945050505050565b60208082526025908201527f455243313135353a207472616e7366657220746f20746865207a65726f206164604082015264647265737360d81b606082015260800190565b6020808252602a908201527f455243313135353a20696e73756666696369656e742062616c616e636520666f60408201526939103a3930b739b332b960b11b606082015260800190565b60208082526023908201527f455243313135353a206275726e2066726f6d20746865207a65726f206164647260408201526265737360e81b606082015260800190565b60208082526024908201527f455243313135353a206275726e20616d6f756e7420657863656564732062616c604082015263616e636560e01b606082015260800190565b6001600160a01b0386811682528516602082015260a0604082018190525f90611c3090830186611750565b8281036060840152611c428186611750565b90508281036080840152611c5681856113b9565b98975050505050505050565b5f60208284031215611c72575f5ffd5b815161138281611352565b5f60033d1115611c935760045f5f3e505f5160e01c5b90565b5f60443d1015611ca35790565b6040513d600319016004823e80513d60248201116001600160401b0382111715611ccc57505090565b80820180516001600160401b03811115611ce7575050505090565b3d8401600319018282016020011115611d01575050505090565b6106606020828501018561140d565b60208082526028908201527f455243313135353a204552433131353552656365697665722072656a656374656040820152676420746f6b656e7360c01b606082015260800190565b6001600160a01b03868116825285166020820152604081018490526060810183905260a0608082018190525f90611d91908301846113b9565b97965050505050505056fea2646970667358221220ce1f086032815f965246f4c591cd734df890fb66c46508dfd67edf50f136252564736f6c634300081c0033","linkReferences":{}},"methodIdentifiers":{"NFT_WEIGHT()":"65d0720f","OWNER_WEIGHT()":"ca365c23","VALIDATOR_PRICE()":"01992c8f","adminNftContract()":"4547d171","bridgeSettingValidators(uint256)":"8f51b766","challengeContract()":"438031c3","changeBridgeSettings(bytes,bytes[])":"ffe67bf4","currentNftId()":"cf1944ad","depositEth(string,address)":"03d342e2","mintAdminNFT()":"62266e42","onERC1155BatchReceived(address,address,uint256[],uint256[],bytes)":"bc197c81","onERC1155Received(address,address,uint256,uint256,bytes)":"f23a6e61","owner()":"8da5cb5b","processedMessages(bytes32)":"88ba16ab","renounceOwnership()":"715018a6","supportsInterface(bytes4)":"01ffc9a7","threshold()":"42cde4e8","totalWeight()":"96c82e57","transferOwnership(address)":"f2fde38b","validatorWeights(address)":"020b4296","verifyChallenge()":"16de4710","withdrawEth(bytes32,bytes[],address,uint256,bytes)":"74ab6244","withdrawValidators(uint256)":"7923d17b"},"id":19}