{"abi":[{"type":"constructor","inputs":[{"name":"wrappedToken","type":"address","internalType":"contract IERC20"}],"stateMutability":"nonpayable"},{"type":"function","name":"CLOCK_MODE","inputs":[],"outputs":[{"name":"","type":"string","internalType":"string"}],"stateMutability":"view"},{"type":"function","name":"DOMAIN_SEPARATOR","inputs":[],"outputs":[{"name":"","type":"bytes32","internalType":"bytes32"}],"stateMutability":"view"},{"type":"function","name":"allowance","inputs":[{"name":"owner","type":"address","internalType":"address"},{"name":"spender","type":"address","internalType":"address"}],"outputs":[{"name":"","type":"uint256","internalType":"uint256"}],"stateMutability":"view"},{"type":"function","name":"approve","inputs":[{"name":"spender","type":"address","internalType":"address"},{"name":"amount","type":"uint256","internalType":"uint256"}],"outputs":[{"name":"","type":"bool","internalType":"bool"}],"stateMutability":"nonpayable"},{"type":"function","name":"balanceOf","inputs":[{"name":"account","type":"address","internalType":"address"}],"outputs":[{"name":"","type":"uint256","internalType":"uint256"}],"stateMutability":"view"},{"type":"function","name":"checkpoints","inputs":[{"name":"account","type":"address","internalType":"address"},{"name":"pos","type":"uint32","internalType":"uint32"}],"outputs":[{"name":"","type":"tuple","internalType":"struct ERC20Votes.Checkpoint","components":[{"name":"fromBlock","type":"uint32","internalType":"uint32"},{"name":"votes","type":"uint224","internalType":"uint224"}]}],"stateMutability":"view"},{"type":"function","name":"clock","inputs":[],"outputs":[{"name":"","type":"uint48","internalType":"uint48"}],"stateMutability":"view"},{"type":"function","name":"decimals","inputs":[],"outputs":[{"name":"","type":"uint8","internalType":"uint8"}],"stateMutability":"pure"},{"type":"function","name":"decreaseAllowance","inputs":[{"name":"spender","type":"address","internalType":"address"},{"name":"subtractedValue","type":"uint256","internalType":"uint256"}],"outputs":[{"name":"","type":"bool","internalType":"bool"}],"stateMutability":"nonpayable"},{"type":"function","name":"delegate","inputs":[{"name":"delegatee","type":"address","internalType":"address"}],"outputs":[],"stateMutability":"nonpayable"},{"type":"function","name":"delegateBySig","inputs":[{"name":"delegatee","type":"address","internalType":"address"},{"name":"nonce","type":"uint256","internalType":"uint256"},{"name":"expiry","type":"uint256","internalType":"uint256"},{"name":"v","type":"uint8","internalType":"uint8"},{"name":"r","type":"bytes32","internalType":"bytes32"},{"name":"s","type":"bytes32","internalType":"bytes32"}],"outputs":[],"stateMutability":"nonpayable"},{"type":"function","name":"delegates","inputs":[{"name":"account","type":"address","internalType":"address"}],"outputs":[{"name":"","type":"address","internalType":"address"}],"stateMutability":"view"},{"type":"function","name":"depositFor","inputs":[{"name":"account","type":"address","internalType":"address"},{"name":"amount","type":"uint256","internalType":"uint256"}],"outputs":[{"name":"","type":"bool","internalType":"bool"}],"stateMutability":"nonpayable"},{"type":"function","name":"eip712Domain","inputs":[],"outputs":[{"name":"fields","type":"bytes1","internalType":"bytes1"},{"name":"name","type":"string","internalType":"string"},{"name":"version","type":"string","internalType":"string"},{"name":"chainId","type":"uint256","internalType":"uint256"},{"name":"verifyingContract","type":"address","internalType":"address"},{"name":"salt","type":"bytes32","internalType":"bytes32"},{"name":"extensions","type":"uint256[]","internalType":"uint256[]"}],"stateMutability":"view"},{"type":"function","name":"getPastTotalSupply","inputs":[{"name":"timepoint","type":"uint256","internalType":"uint256"}],"outputs":[{"name":"","type":"uint256","internalType":"uint256"}],"stateMutability":"view"},{"type":"function","name":"getPastVotes","inputs":[{"name":"account","type":"address","internalType":"address"},{"name":"timepoint","type":"uint256","internalType":"uint256"}],"outputs":[{"name":"","type":"uint256","internalType":"uint256"}],"stateMutability":"view"},{"type":"function","name":"getVotes","inputs":[{"name":"account","type":"address","internalType":"address"}],"outputs":[{"name":"","type":"uint256","internalType":"uint256"}],"stateMutability":"view"},{"type":"function","name":"increaseAllowance","inputs":[{"name":"spender","type":"address","internalType":"address"},{"name":"addedValue","type":"uint256","internalType":"uint256"}],"outputs":[{"name":"","type":"bool","internalType":"bool"}],"stateMutability":"nonpayable"},{"type":"function","name":"name","inputs":[],"outputs":[{"name":"","type":"string","internalType":"string"}],"stateMutability":"view"},{"type":"function","name":"nonces","inputs":[{"name":"owner","type":"address","internalType":"address"}],"outputs":[{"name":"","type":"uint256","internalType":"uint256"}],"stateMutability":"view"},{"type":"function","name":"numCheckpoints","inputs":[{"name":"account","type":"address","internalType":"address"}],"outputs":[{"name":"","type":"uint32","internalType":"uint32"}],"stateMutability":"view"},{"type":"function","name":"permit","inputs":[{"name":"owner","type":"address","internalType":"address"},{"name":"spender","type":"address","internalType":"address"},{"name":"value","type":"uint256","internalType":"uint256"},{"name":"deadline","type":"uint256","internalType":"uint256"},{"name":"v","type":"uint8","internalType":"uint8"},{"name":"r","type":"bytes32","internalType":"bytes32"},{"name":"s","type":"bytes32","internalType":"bytes32"}],"outputs":[],"stateMutability":"nonpayable"},{"type":"function","name":"symbol","inputs":[],"outputs":[{"name":"","type":"string","internalType":"string"}],"stateMutability":"view"},{"type":"function","name":"totalSupply","inputs":[],"outputs":[{"name":"","type":"uint256","internalType":"uint256"}],"stateMutability":"view"},{"type":"function","name":"transfer","inputs":[{"name":"to","type":"address","internalType":"address"},{"name":"amount","type":"uint256","internalType":"uint256"}],"outputs":[{"name":"","type":"bool","internalType":"bool"}],"stateMutability":"nonpayable"},{"type":"function","name":"transferFrom","inputs":[{"name":"from","type":"address","internalType":"address"},{"name":"to","type":"address","internalType":"address"},{"name":"amount","type":"uint256","internalType":"uint256"}],"outputs":[{"name":"","type":"bool","internalType":"bool"}],"stateMutability":"nonpayable"},{"type":"function","name":"underlying","inputs":[],"outputs":[{"name":"","type":"address","internalType":"contract IERC20"}],"stateMutability":"view"},{"type":"function","name":"withdrawTo","inputs":[{"name":"account","type":"address","internalType":"address"},{"name":"amount","type":"uint256","internalType":"uint256"}],"outputs":[{"name":"","type":"bool","internalType":"bool"}],"stateMutability":"nonpayable"},{"type":"event","name":"Approval","inputs":[{"name":"owner","type":"address","indexed":true,"internalType":"address"},{"name":"spender","type":"address","indexed":true,"internalType":"address"},{"name":"value","type":"uint256","indexed":false,"internalType":"uint256"}],"anonymous":false},{"type":"event","name":"DelegateChanged","inputs":[{"name":"delegator","type":"address","indexed":true,"internalType":"address"},{"name":"fromDelegate","type":"address","indexed":true,"internalType":"address"},{"name":"toDelegate","type":"address","indexed":true,"internalType":"address"}],"anonymous":false},{"type":"event","name":"DelegateVotesChanged","inputs":[{"name":"delegate","type":"address","indexed":true,"internalType":"address"},{"name":"previousBalance","type":"uint256","indexed":false,"internalType":"uint256"},{"name":"newBalance","type":"uint256","indexed":false,"internalType":"uint256"}],"anonymous":false},{"type":"event","name":"EIP712DomainChanged","inputs":[],"anonymous":false},{"type":"event","name":"Transfer","inputs":[{"name":"from","type":"address","indexed":true,"internalType":"address"},{"name":"to","type":"address","indexed":true,"internalType":"address"},{"name":"value","type":"uint256","indexed":false,"internalType":"uint256"}],"anonymous":false},{"type":"error","name":"InvalidShortString","inputs":[]},{"type":"error","name":"StringTooLong","inputs":[{"name":"str","type":"string","internalType":"string"}]}],"bytecode":{"object":"0x6101806040523480156200001257600080fd5b5060405162002c7a38038062002c7a833981016040819052620000359162000370565b806040518060400160405280600e81526020016d135e551bdad95b95dc985c1c195960921b81525080604051806040016040528060018152602001603160f81b8152506040518060400160405280600e81526020016d135e551bdad95b95dc985c1c195960921b815250604051806040016040528060038152602001624d544b60e81b8152508160039080519060200190620000d3929190620002ca565b508051620000e9906004906020840190620002ca565b505050620001076005836200023060201b62000d231790919060201c565b610120526200012481600662000230602090811b62000d2317901c565b61014052815160208084019190912060e052815190820120610100524660a052620001b260e05161010051604080517f8b73c3c69bb8fe3d512ecc4cf759cc79239f7b179b0ffacaa9a75d522b39400f60208201529081019290925260608201524660808201523060a082015260009060c00160405160208183030381529060405280519060200120905090565b60805250503060c08190526001600160a01b0383160390506200021c5760405162461bcd60e51b815260206004820152601e60248201527f4552433230577261707065723a2063616e6e6f742073656c662077726170000060448201526064015b60405180910390fd5b6001600160a01b0316610160525062000458565b60006020835110156200025057620002488362000284565b90506200027e565b826200026783620002c760201b62000d5a1760201c565b8151620002789260200190620002ca565b5060ff90505b92915050565b600080829050601f81511115620002b2578260405163305a27a960e01b8152600401620002139190620003a2565b8051620002bf82620003fa565b179392505050565b90565b828054620002d89062000422565b90600052602060002090601f016020900481019282620002fc576000855562000347565b82601f106200031757805160ff191683800117855562000347565b8280016001018555821562000347579182015b82811115620003475782518255916020019190600101906200032a565b506200035592915062000359565b5090565b5b808211156200035557600081556001016200035a565b6000602082840312156200038357600080fd5b81516001600160a01b03811681146200039b57600080fd5b9392505050565b600060208083528351808285015260005b81811015620003d157858101830151858201604001528201620003b3565b81811115620003e4576000604083870101525b50601f01601f1916929092016040019392505050565b805160208083015191908110156200041c576000198160200360031b1b821691505b50919050565b600181811c908216806200043757607f821691505b6020821081036200041c57634e487b7160e01b600052602260045260246000fd5b60805160a05160c05160e051610100516101205161014051610160516127ae620004cc600039600081816102f50152818161053e01526105f9015260006107fe015260006107d3015260006112370152600061120f0152600061116a01526000611194015260006111be01526127ae6000f3fe608060405234801561001057600080fd5b50600436106101c45760003560e01c80636fcfff45116100f95780639ab24eb011610097578063c3cda52011610071578063c3cda5201461040b578063d505accf1461041e578063dd62ed3e14610431578063f1127ed81461044457600080fd5b80639ab24eb0146103d2578063a457c2d7146103e5578063a9059cbb146103f857600080fd5b806384b0196e116100d357806384b0196e1461037d5780638e539e8c1461039857806391ddadf4146103ab57806395d89b41146103ca57600080fd5b80636fcfff451461031957806370a08231146103415780637ecebe001461036a57600080fd5b80633644e515116101665780634bf5d7e9116101405780634bf5d7e914610292578063587cde1e1461029a5780635c19a95c146102de5780636f307dc3146102f357600080fd5b80633644e51514610264578063395093511461026c5780633a46b1a81461027f57600080fd5b8063205c2878116101a2578063205c28781461021c57806323b872dd1461022f5780632f4f21e214610242578063313ce5671461025557600080fd5b806306fdde03146101c9578063095ea7b3146101e757806318160ddd1461020a575b600080fd5b6101d1610481565b6040516101de9190612394565b60405180910390f35b6101fa6101f53660046123c3565b610513565b60405190151581526020016101de565b6002545b6040519081526020016101de565b6101fa61022a3660046123c3565b61052d565b6101fa61023d3660046123ed565b61056d565b6101fa6102503660046123c3565b610591565b604051601281526020016101de565b61020e61062a565b6101fa61027a3660046123c3565b610639565b61020e61028d3660046123c3565b61065b565b6101d16106e0565b6102c66102a8366004612429565b6001600160a01b039081166000908152600960205260409020541690565b6040516001600160a01b0390911681526020016101de565b6102f16102ec366004612429565b610778565b005b7f00000000000000000000000000000000000000000000000000000000000000006102c6565b61032c610327366004612429565b610785565b60405163ffffffff90911681526020016101de565b61020e61034f366004612429565b6001600160a01b031660009081526020819052604090205490565b61020e610378366004612429565b6107a7565b6103856107c5565b6040516101de9796959493929190612444565b61020e6103a63660046124da565b61084e565b6103b36108b5565b60405165ffffffffffff90911681526020016101de565b6101d16108c0565b61020e6103e0366004612429565b6108cf565b6101fa6103f33660046123c3565b610951565b6101fa6104063660046123c3565b6109cc565b6102f1610419366004612504565b6109da565b6102f161042c36600461255c565b610b10565b61020e61043f3660046125c6565b610c74565b6104576104523660046125f9565b610c9f565b60408051825163ffffffff1681526020928301516001600160e01b031692810192909252016101de565b60606003805461049090612639565b80601f01602080910402602001604051908101604052809291908181526020018280546104bc90612639565b80156105095780601f106104de57610100808354040283529160200191610509565b820191906000526020600020905b8154815290600101906020018083116104ec57829003601f168201915b5050505050905090565b600033610521818585610d5d565b60019150505b92915050565b60006105393383610e81565b6105647f00000000000000000000000000000000000000000000000000000000000000008484610e8f565b50600192915050565b60003361057b858285610ef7565b610586858585610f71565b506001949350505050565b6000333081036105f45760405162461bcd60e51b815260206004820152602360248201527f4552433230577261707065723a20777261707065722063616e2774206465706f6044820152621cda5d60ea1b60648201526084015b60405180910390fd5b6106207f000000000000000000000000000000000000000000000000000000000000000082308661111b565b6105218484611153565b600061063461115d565b905090565b60003361052181858561064c8383610c74565b6106569190612683565b610d5d565b60006106656108b5565b65ffffffffffff1682106106b75760405162461bcd60e51b815260206004820152601960248201527804552433230566f7465733a20667574757265206c6f6f6b757603c1b60448201526064016105eb565b6001600160a01b0383166000908152600a602052604090206106d99083611288565b9392505050565b6060436106eb6108b5565b65ffffffffffff16146107405760405162461bcd60e51b815260206004820152601d60248201527f4552433230566f7465733a2062726f6b656e20636c6f636b206d6f646500000060448201526064016105eb565b5060408051808201909152601d81527f6d6f64653d626c6f636b6e756d6265722666726f6d3d64656661756c74000000602082015290565b6107823382611371565b50565b6001600160a01b0381166000908152600a6020526040812054610527906113ea565b6001600160a01b038116600090815260076020526040812054610527565b6000606080828080836107f97f00000000000000000000000000000000000000000000000000000000000000006005611453565b6108247f00000000000000000000000000000000000000000000000000000000000000006006611453565b60408051600080825260208201909252600f60f81b9b939a50919850469750309650945092509050565b60006108586108b5565b65ffffffffffff1682106108aa5760405162461bcd60e51b815260206004820152601960248201527804552433230566f7465733a20667574757265206c6f6f6b757603c1b60448201526064016105eb565b610527600b83611288565b6000610634436114f7565b60606004805461049090612639565b6001600160a01b0381166000908152600a6020526040812054801561093e576001600160a01b0383166000908152600a602052604090208054600019830190811061091c5761091c61269b565b60009182526020909120015464010000000090046001600160e01b0316610941565b60005b6001600160e01b03169392505050565b6000338161095f8286610c74565b9050838110156109bf5760405162461bcd60e51b815260206004820152602560248201527f45524332303a2064656372656173656420616c6c6f77616e63652062656c6f77604482015264207a65726f60d81b60648201526084016105eb565b6105868286868403610d5d565b600033610521818585610f71565b83421115610a2a5760405162461bcd60e51b815260206004820152601d60248201527f4552433230566f7465733a207369676e6174757265206578706972656400000060448201526064016105eb565b604080517fe48329057bfd03d55e49b547132e39cffd9c1820ad7b9d4c5307691425d15adf60208201526001600160a01b038816918101919091526060810186905260808101859052600090610aa490610a9c9060a0016040516020818303038152906040528051906020012061155e565b85858561158b565b9050610aaf816115b5565b8614610afd5760405162461bcd60e51b815260206004820152601960248201527f4552433230566f7465733a20696e76616c6964206e6f6e63650000000000000060448201526064016105eb565b610b078188611371565b50505050505050565b83421115610b605760405162461bcd60e51b815260206004820152601d60248201527f45524332305065726d69743a206578706972656420646561646c696e6500000060448201526064016105eb565b60007f6e71edae12b1b97f4d1f60370fef10105fa2faae0126114a169c64845d6126c9888888610b8f8c6115b5565b6040805160208101969096526001600160a01b0394851690860152929091166060840152608083015260a082015260c0810186905260e0016040516020818303038152906040528051906020012090506000610bea8261155e565b90506000610bfa8287878761158b565b9050896001600160a01b0316816001600160a01b031614610c5d5760405162461bcd60e51b815260206004820152601e60248201527f45524332305065726d69743a20696e76616c6964207369676e6174757265000060448201526064016105eb565b610c688a8a8a610d5d565b50505050505050505050565b6001600160a01b03918216600090815260016020908152604080832093909416825291909152205490565b60408051808201909152600080825260208201526001600160a01b0383166000908152600a60205260409020805463ffffffff8416908110610ce357610ce361269b565b60009182526020918290206040805180820190915291015463ffffffff8116825264010000000090046001600160e01b0316918101919091529392505050565b6000602083511015610d3f57610d38836115dd565b9050610527565b82828151610d5092602001906122ac565b5060ff9050610527565b90565b6001600160a01b038316610dbf5760405162461bcd60e51b8152602060048201526024808201527f45524332303a20617070726f76652066726f6d20746865207a65726f206164646044820152637265737360e01b60648201526084016105eb565b6001600160a01b038216610e205760405162461bcd60e51b815260206004820152602260248201527f45524332303a20617070726f766520746f20746865207a65726f206164647265604482015261737360f01b60648201526084016105eb565b6001600160a01b0383811660008181526001602090815260408083209487168084529482529182902085905590518481527f8c5be1e5ebec7d5bd14f71427d1e84f3dd0314c0f7b2291e5b200ac8c7c3b925910160405180910390a3505050565b610e8b828261161b565b5050565b6040516001600160a01b038316602482015260448101829052610ef290849063a9059cbb60e01b906064015b60408051601f198184030181529190526020810180516001600160e01b03166001600160e01b031990931692909217909152611633565b505050565b6000610f038484610c74565b90506000198114610f6b5781811015610f5e5760405162461bcd60e51b815260206004820152601d60248201527f45524332303a20696e73756666696369656e7420616c6c6f77616e636500000060448201526064016105eb565b610f6b8484848403610d5d565b50505050565b6001600160a01b038316610fd55760405162461bcd60e51b815260206004820152602560248201527f45524332303a207472616e736665722066726f6d20746865207a65726f206164604482015264647265737360d81b60648201526084016105eb565b6001600160a01b0382166110375760405162461bcd60e51b815260206004820152602360248201527f45524332303a207472616e7366657220746f20746865207a65726f206164647260448201526265737360e81b60648201526084016105eb565b6001600160a01b038316600090815260208190526040902054818110156110af5760405162461bcd60e51b815260206004820152602660248201527f45524332303a207472616e7366657220616d6f756e7420657863656564732062604482015265616c616e636560d01b60648201526084016105eb565b6001600160a01b03848116600081815260208181526040808320878703905593871680835291849020805487019055925185815290927fddf252ad1be2c89b69c2b068fc378daa952ba7f163c4a11628f55a4df523b3ef910160405180910390a3610f6b848484611708565b6040516001600160a01b0380851660248301528316604482015260648101829052610f6b9085906323b872dd60e01b90608401610ebb565b610e8b8282611713565b6000306001600160a01b037f0000000000000000000000000000000000000000000000000000000000000000161480156111b657507f000000000000000000000000000000000000000000000000000000000000000046145b156111e057507f000000000000000000000000000000000000000000000000000000000000000090565b610634604080517f8b73c3c69bb8fe3d512ecc4cf759cc79239f7b179b0ffacaa9a75d522b39400f60208201527f0000000000000000000000000000000000000000000000000000000000000000918101919091527f000000000000000000000000000000000000000000000000000000000000000060608201524660808201523060a082015260009060c00160405160208183030381529060405280519060200120905090565b8154600090818160058111156112e25760006112a38461179d565b6112ad90856126b1565b600088815260209020909150869082015463ffffffff1611156112d2578091506112e0565b6112dd816001612683565b92505b505b8082101561132f5760006112f68383611885565b600088815260209020909150869082015463ffffffff16111561131b57809150611329565b611326816001612683565b92505b506112e2565b801561135b576000868152602090208101600019015464010000000090046001600160e01b031661135e565b60005b6001600160e01b03169695505050505050565b6001600160a01b038281166000818152600960208181526040808420805485845282862054949093528787166001600160a01b03198416811790915590519190951694919391928592917f3134e8a2e6d97e929a7e54011ea5485d7d196dd5f0ba4d4ef95803e8e3fc257f9190a4610f6b8284836118a0565b600063ffffffff82111561144f5760405162461bcd60e51b815260206004820152602660248201527f53616665436173743a2076616c756520646f65736e27742066697420696e203360448201526532206269747360d01b60648201526084016105eb565b5090565b606060ff831461146657610d38836119dd565b81805461147290612639565b80601f016020809104026020016040519081016040528092919081815260200182805461149e90612639565b80156114eb5780601f106114c0576101008083540402835291602001916114eb565b820191906000526020600020905b8154815290600101906020018083116114ce57829003601f168201915b50505050509050610527565b600065ffffffffffff82111561144f5760405162461bcd60e51b815260206004820152602660248201527f53616665436173743a2076616c756520646f65736e27742066697420696e203460448201526538206269747360d01b60648201526084016105eb565b600061052761156b61115d565b8360405161190160f01b8152600281019290925260228201526042902090565b600080600061159c87878787611a1c565b915091506115a981611ae0565b5090505b949350505050565b6001600160a01b03811660009081526007602052604090208054600181018255905b50919050565b600080829050601f81511115611608578260405163305a27a960e01b81526004016105eb9190612394565b8051611613826126c8565b179392505050565b6116258282611c2a565b610f6b600b611d6383611d6f565b6000611688826040518060400160405280602081526020017f5361666545524332303a206c6f772d6c6576656c2063616c6c206661696c6564815250856001600160a01b0316611ee49092919063ffffffff16565b90508051600014806116a95750808060200190518101906116a991906126ec565b610ef25760405162461bcd60e51b815260206004820152602a60248201527f5361666545524332303a204552433230206f7065726174696f6e20646964206e6044820152691bdd081cdd58d8d9595960b21b60648201526084016105eb565b610ef2838383611ef3565b61171d8282611f25565b6002546001600160e01b03101561178f5760405162461bcd60e51b815260206004820152603060248201527f4552433230566f7465733a20746f74616c20737570706c79207269736b73206f60448201526f766572666c6f77696e6720766f74657360801b60648201526084016105eb565b610f6b600b611fec83611d6f565b6000816000036117af57506000919050565b600060016117bc84611ff8565b901c6001901b905060018184816117d5576117d561270e565b048201901c905060018184816117ed576117ed61270e565b048201901c905060018184816118055761180561270e565b048201901c9050600181848161181d5761181d61270e565b048201901c905060018184816118355761183561270e565b048201901c9050600181848161184d5761184d61270e565b048201901c905060018184816118655761186561270e565b048201901c90506106d98182858161187f5761187f61270e565b0461208c565b60006118946002848418612724565b6106d990848416612683565b816001600160a01b0316836001600160a01b0316141580156118c25750600081115b15610ef2576001600160a01b03831615611950576001600160a01b0383166000908152600a6020526040812081906118fd90611d6385611d6f565b91509150846001600160a01b03167fdec2bacdd2f05b59de34da9b523dff8be42e5e38e818c82fdb0bae774387a7248383604051611945929190918252602082015260400190565b60405180910390a250505b6001600160a01b03821615610ef2576001600160a01b0382166000908152600a60205260408120819061198690611fec85611d6f565b91509150836001600160a01b03167fdec2bacdd2f05b59de34da9b523dff8be42e5e38e818c82fdb0bae774387a72483836040516119ce929190918252602082015260400190565b60405180910390a25050505050565b606060006119ea836120a2565b604080516020808252818301909252919250600091906020820181803683375050509182525060208101929092525090565b6000807f7fffffffffffffffffffffffffffffff5d576e7357a4501ddfe92f46681b20a0831115611a535750600090506003611ad7565b6040805160008082526020820180845289905260ff881692820192909252606081018690526080810185905260019060a0016020604051602081039080840390855afa158015611aa7573d6000803e3d6000fd5b5050604051601f1901519150506001600160a01b038116611ad057600060019250925050611ad7565b9150600090505b94509492505050565b6000816004811115611af457611af4612746565b03611afc5750565b6001816004811115611b1057611b10612746565b03611b5d5760405162461bcd60e51b815260206004820152601860248201527f45434453413a20696e76616c6964207369676e6174757265000000000000000060448201526064016105eb565b6002816004811115611b7157611b71612746565b03611bbe5760405162461bcd60e51b815260206004820152601f60248201527f45434453413a20696e76616c6964207369676e6174757265206c656e6774680060448201526064016105eb565b6003816004811115611bd257611bd2612746565b036107825760405162461bcd60e51b815260206004820152602260248201527f45434453413a20696e76616c6964207369676e6174757265202773272076616c604482015261756560f01b60648201526084016105eb565b6001600160a01b038216611c8a5760405162461bcd60e51b815260206004820152602160248201527f45524332303a206275726e2066726f6d20746865207a65726f206164647265736044820152607360f81b60648201526084016105eb565b6001600160a01b03821660009081526020819052604090205481811015611cfe5760405162461bcd60e51b815260206004820152602260248201527f45524332303a206275726e20616d6f756e7420657863656564732062616c616e604482015261636560f01b60648201526084016105eb565b6001600160a01b0383166000818152602081815260408083208686039055600280548790039055518581529192917fddf252ad1be2c89b69c2b068fc378daa952ba7f163c4a11628f55a4df523b3ef910160405180910390a3610ef283600084611708565b60006106d982846126b1565b82546000908190818115611dbc5760008781526020902082016000190160408051808201909152905463ffffffff8116825264010000000090046001600160e01b03166020820152611dd1565b60408051808201909152600080825260208201525b905080602001516001600160e01b03169350611df184868863ffffffff16565b9250600082118015611e1b5750611e066108b5565b65ffffffffffff16816000015163ffffffff16145b15611e6057611e29836120ca565b60008881526020902083016000190180546001600160e01b03929092166401000000000263ffffffff909216919091179055611eda565b866040518060400160405280611e84611e776108b5565b65ffffffffffff166113ea565b63ffffffff168152602001611e98866120ca565b6001600160e01b0390811690915282546001810184556000938452602093849020835194909301519091166401000000000263ffffffff909316929092179101555b5050935093915050565b60606115ad8484600085612133565b6001600160a01b03838116600090815260096020526040808220548584168352912054610ef2929182169116836118a0565b6001600160a01b038216611f7b5760405162461bcd60e51b815260206004820152601f60248201527f45524332303a206d696e7420746f20746865207a65726f20616464726573730060448201526064016105eb565b8060026000828254611f8d9190612683565b90915550506001600160a01b038216600081815260208181526040808320805486019055518481527fddf252ad1be2c89b69c2b068fc378daa952ba7f163c4a11628f55a4df523b3ef910160405180910390a3610e8b60008383611708565b60006106d98284612683565b600080608083901c1561200d57608092831c92015b604083901c1561201f57604092831c92015b602083901c1561203157602092831c92015b601083901c1561204357601092831c92015b600883901c1561205557600892831c92015b600483901c1561206757600492831c92015b600283901c1561207957600292831c92015b600183901c156105275760010192915050565b600081831061209b57816106d9565b5090919050565b600060ff8216601f81111561052757604051632cd44ac360e21b815260040160405180910390fd5b60006001600160e01b0382111561144f5760405162461bcd60e51b815260206004820152602760248201527f53616665436173743a2076616c756520646f65736e27742066697420696e20326044820152663234206269747360c81b60648201526084016105eb565b6060824710156121945760405162461bcd60e51b815260206004820152602660248201527f416464726573733a20696e73756666696369656e742062616c616e636520666f6044820152651c8818d85b1b60d21b60648201526084016105eb565b600080866001600160a01b031685876040516121b0919061275c565b60006040518083038185875af1925050503d80600081146121ed576040519150601f19603f3d011682016040523d82523d6000602084013e6121f2565b606091505b50915091506122038783838761220e565b979650505050505050565b6060831561227d578251600003612276576001600160a01b0385163b6122765760405162461bcd60e51b815260206004820152601d60248201527f416464726573733a2063616c6c20746f206e6f6e2d636f6e747261637400000060448201526064016105eb565b50816115ad565b6115ad83838151156122925781518083602001fd5b8060405162461bcd60e51b81526004016105eb9190612394565b8280546122b890612639565b90600052602060002090601f0160209004810192826122da5760008555612320565b82601f106122f357805160ff1916838001178555612320565b82800160010185558215612320579182015b82811115612320578251825591602001919060010190612305565b5061144f9291505b8082111561144f5760008155600101612328565b60005b8381101561235757818101518382015260200161233f565b83811115610f6b5750506000910152565b6000815180845261238081602086016020860161233c565b601f01601f19169290920160200192915050565b6020815260006106d96020830184612368565b80356001600160a01b03811681146123be57600080fd5b919050565b600080604083850312156123d657600080fd5b6123df836123a7565b946020939093013593505050565b60008060006060848603121561240257600080fd5b61240b846123a7565b9250612419602085016123a7565b9150604084013590509250925092565b60006020828403121561243b57600080fd5b6106d9826123a7565b60ff60f81b881681526000602060e08184015261246460e084018a612368565b8381036040850152612476818a612368565b606085018990526001600160a01b038816608086015260a0850187905284810360c0860152855180825283870192509083019060005b818110156124c8578351835292840192918401916001016124ac565b50909c9b505050505050505050505050565b6000602082840312156124ec57600080fd5b5035919050565b803560ff811681146123be57600080fd5b60008060008060008060c0878903121561251d57600080fd5b612526876123a7565b95506020870135945060408701359350612542606088016124f3565b92506080870135915060a087013590509295509295509295565b600080600080600080600060e0888a03121561257757600080fd5b612580886123a7565b965061258e602089016123a7565b955060408801359450606088013593506125aa608089016124f3565b925060a0880135915060c0880135905092959891949750929550565b600080604083850312156125d957600080fd5b6125e2836123a7565b91506125f0602084016123a7565b90509250929050565b6000806040838503121561260c57600080fd5b612615836123a7565b9150602083013563ffffffff8116811461262e57600080fd5b809150509250929050565b600181811c9082168061264d57607f821691505b6020821081036115d757634e487b7160e01b600052602260045260246000fd5b634e487b7160e01b600052601160045260246000fd5b600082198211156126965761269661266d565b500190565b634e487b7160e01b600052603260045260246000fd5b6000828210156126c3576126c361266d565b500390565b805160208083015191908110156115d75760001960209190910360031b1b16919050565b6000602082840312156126fe57600080fd5b815180151581146106d957600080fd5b634e487b7160e01b600052601260045260246000fd5b60008261274157634e487b7160e01b600052601260045260246000fd5b500490565b634e487b7160e01b600052602160045260246000fd5b6000825161276e81846020870161233c565b919091019291505056fea2646970667358221220e55796254c4c5b67a32967ab1b4c8c9c5fccf24652f6bd0586ff42ff5608e5c664736f6c634300080d0033","linkReferences":{}},"methodIdentifiers":{"CLOCK_MODE()":"4bf5d7e9","DOMAIN_SEPARATOR()":"3644e515","allowance(address,address)":"dd62ed3e","approve(address,uint256)":"095ea7b3","balanceOf(address)":"70a08231","checkpoints(address,uint32)":"f1127ed8","clock()":"91ddadf4","decimals()":"313ce567","decreaseAllowance(address,uint256)":"a457c2d7","delegate(address)":"5c19a95c","delegateBySig(address,uint256,uint256,uint8,bytes32,bytes32)":"c3cda520","delegates(address)":"587cde1e","depositFor(address,uint256)":"2f4f21e2","eip712Domain()":"84b0196e","getPastTotalSupply(uint256)":"8e539e8c","getPastVotes(address,uint256)":"3a46b1a8","getVotes(address)":"9ab24eb0","increaseAllowance(address,uint256)":"39509351","name()":"06fdde03","nonces(address)":"7ecebe00","numCheckpoints(address)":"6fcfff45","permit(address,address,uint256,uint256,uint8,bytes32,bytes32)":"d505accf","symbol()":"95d89b41","totalSupply()":"18160ddd","transfer(address,uint256)":"a9059cbb","transferFrom(address,address,uint256)":"23b872dd","underlying()":"6f307dc3","withdrawTo(address,uint256)":"205c2878"},"id":131}