{"abi":[{"type":"function","name":"allowance","inputs":[{"name":"holder","type":"address","internalType":"address"},{"name":"spender","type":"address","internalType":"address"}],"outputs":[{"name":"","type":"uint256","internalType":"uint256"}],"stateMutability":"view"},{"type":"function","name":"approve","inputs":[{"name":"spender","type":"address","internalType":"address"},{"name":"value","type":"uint256","internalType":"uint256"}],"outputs":[{"name":"","type":"bool","internalType":"bool"}],"stateMutability":"nonpayable"},{"type":"function","name":"authorizeOperator","inputs":[{"name":"operator","type":"address","internalType":"address"}],"outputs":[],"stateMutability":"nonpayable"},{"type":"function","name":"balanceOf","inputs":[{"name":"tokenHolder","type":"address","internalType":"address"}],"outputs":[{"name":"","type":"uint256","internalType":"uint256"}],"stateMutability":"view"},{"type":"function","name":"burn","inputs":[{"name":"amount","type":"uint256","internalType":"uint256"},{"name":"data","type":"bytes","internalType":"bytes"}],"outputs":[],"stateMutability":"nonpayable"},{"type":"function","name":"decimals","inputs":[],"outputs":[{"name":"","type":"uint8","internalType":"uint8"}],"stateMutability":"pure"},{"type":"function","name":"defaultOperators","inputs":[],"outputs":[{"name":"","type":"address[]","internalType":"address[]"}],"stateMutability":"view"},{"type":"function","name":"granularity","inputs":[],"outputs":[{"name":"","type":"uint256","internalType":"uint256"}],"stateMutability":"view"},{"type":"function","name":"initialize","inputs":[{"name":"name","type":"string","internalType":"string"},{"name":"symbol","type":"string","internalType":"string"},{"name":"defaultOperators","type":"address[]","internalType":"address[]"},{"name":"initialSupply","type":"uint256","internalType":"uint256"},{"name":"owner","type":"address","internalType":"address"}],"outputs":[],"stateMutability":"nonpayable"},{"type":"function","name":"isOperatorFor","inputs":[{"name":"operator","type":"address","internalType":"address"},{"name":"tokenHolder","type":"address","internalType":"address"}],"outputs":[{"name":"","type":"bool","internalType":"bool"}],"stateMutability":"view"},{"type":"function","name":"name","inputs":[],"outputs":[{"name":"","type":"string","internalType":"string"}],"stateMutability":"view"},{"type":"function","name":"operatorBurn","inputs":[{"name":"account","type":"address","internalType":"address"},{"name":"amount","type":"uint256","internalType":"uint256"},{"name":"data","type":"bytes","internalType":"bytes"},{"name":"operatorData","type":"bytes","internalType":"bytes"}],"outputs":[],"stateMutability":"nonpayable"},{"type":"function","name":"operatorSend","inputs":[{"name":"sender","type":"address","internalType":"address"},{"name":"recipient","type":"address","internalType":"address"},{"name":"amount","type":"uint256","internalType":"uint256"},{"name":"data","type":"bytes","internalType":"bytes"},{"name":"operatorData","type":"bytes","internalType":"bytes"}],"outputs":[],"stateMutability":"nonpayable"},{"type":"function","name":"revokeOperator","inputs":[{"name":"operator","type":"address","internalType":"address"}],"outputs":[],"stateMutability":"nonpayable"},{"type":"function","name":"send","inputs":[{"name":"recipient","type":"address","internalType":"address"},{"name":"amount","type":"uint256","internalType":"uint256"},{"name":"data","type":"bytes","internalType":"bytes"}],"outputs":[],"stateMutability":"nonpayable"},{"type":"function","name":"symbol","inputs":[],"outputs":[{"name":"","type":"string","internalType":"string"}],"stateMutability":"view"},{"type":"function","name":"totalSupply","inputs":[],"outputs":[{"name":"","type":"uint256","internalType":"uint256"}],"stateMutability":"view"},{"type":"function","name":"transfer","inputs":[{"name":"recipient","type":"address","internalType":"address"},{"name":"amount","type":"uint256","internalType":"uint256"}],"outputs":[{"name":"","type":"bool","internalType":"bool"}],"stateMutability":"nonpayable"},{"type":"function","name":"transferFrom","inputs":[{"name":"holder","type":"address","internalType":"address"},{"name":"recipient","type":"address","internalType":"address"},{"name":"amount","type":"uint256","internalType":"uint256"}],"outputs":[{"name":"","type":"bool","internalType":"bool"}],"stateMutability":"nonpayable"},{"type":"event","name":"Approval","inputs":[{"name":"owner","type":"address","indexed":true,"internalType":"address"},{"name":"spender","type":"address","indexed":true,"internalType":"address"},{"name":"value","type":"uint256","indexed":false,"internalType":"uint256"}],"anonymous":false},{"type":"event","name":"AuthorizedOperator","inputs":[{"name":"operator","type":"address","indexed":true,"internalType":"address"},{"name":"tokenHolder","type":"address","indexed":true,"internalType":"address"}],"anonymous":false},{"type":"event","name":"Burned","inputs":[{"name":"operator","type":"address","indexed":true,"internalType":"address"},{"name":"from","type":"address","indexed":true,"internalType":"address"},{"name":"amount","type":"uint256","indexed":false,"internalType":"uint256"},{"name":"data","type":"bytes","indexed":false,"internalType":"bytes"},{"name":"operatorData","type":"bytes","indexed":false,"internalType":"bytes"}],"anonymous":false},{"type":"event","name":"Initialized","inputs":[{"name":"version","type":"uint8","indexed":false,"internalType":"uint8"}],"anonymous":false},{"type":"event","name":"Minted","inputs":[{"name":"operator","type":"address","indexed":true,"internalType":"address"},{"name":"to","type":"address","indexed":true,"internalType":"address"},{"name":"amount","type":"uint256","indexed":false,"internalType":"uint256"},{"name":"data","type":"bytes","indexed":false,"internalType":"bytes"},{"name":"operatorData","type":"bytes","indexed":false,"internalType":"bytes"}],"anonymous":false},{"type":"event","name":"RevokedOperator","inputs":[{"name":"operator","type":"address","indexed":true,"internalType":"address"},{"name":"tokenHolder","type":"address","indexed":true,"internalType":"address"}],"anonymous":false},{"type":"event","name":"Sent","inputs":[{"name":"operator","type":"address","indexed":true,"internalType":"address"},{"name":"from","type":"address","indexed":true,"internalType":"address"},{"name":"to","type":"address","indexed":true,"internalType":"address"},{"name":"amount","type":"uint256","indexed":false,"internalType":"uint256"},{"name":"data","type":"bytes","indexed":false,"internalType":"bytes"},{"name":"operatorData","type":"bytes","indexed":false,"internalType":"bytes"}],"anonymous":false},{"type":"event","name":"Transfer","inputs":[{"name":"from","type":"address","indexed":true,"internalType":"address"},{"name":"to","type":"address","indexed":true,"internalType":"address"},{"name":"value","type":"uint256","indexed":false,"internalType":"uint256"}],"anonymous":false}],"bytecode":{"object":"0x6080604052348015600e575f5ffd5b50611d698061001c5f395ff3fe608060405234801561000f575f5ffd5b506004361061011c575f3560e01c8063768f950a116100a9578063d95b63711161006e578063d95b637114610242578063dd62ed3e14610255578063fad8b32a1461028d578063fc673c4f146102a0578063fe9d9303146102b3575f5ffd5b8063768f950a146101ee578063959b8c3f1461020157806395d89b41146102145780639bd9bbc61461021c578063a9059cbb1461022f575f5ffd5b806323b872dd116100ef57806323b872dd14610188578063313ce5671461019b578063556f0dc7146101aa57806362ad1b83146101b157806370a08231146101c6575f5ffd5b806306e485381461012057806306fdde031461013e578063095ea7b31461015357806318160ddd14610176575b5f5ffd5b6101286102c6565b604051610135919061158b565b60405180910390f35b610146610326565b6040516101359190611604565b61016661016136600461163d565b6103ad565b6040519015158152602001610135565b6034545b604051908152602001610135565b610166610196366004611667565b6103c6565b60405160128152602001610135565b600161017a565b6101c46101bf36600461175a565b610408565b005b61017a6101d43660046117ea565b6001600160a01b03165f9081526033602052604090205490565b6101c46101fc366004611805565b61044d565b6101c461020f3660046117ea565b610562565b61014661067b565b6101c461022a366004611924565b61068a565b61016661023d36600461163d565b6106ac565b610166610250366004611978565b6106e0565b61017a610263366004611978565b6001600160a01b039182165f908152603b6020908152604080832093909416825291909152205490565b6101c461029b3660046117ea565b61077e565b6101c46102ae3660046119af565b610895565b6101c46102c1366004611a2d565b6108cd565b6060603780548060200260200160405190810160405280929190818152602001828054801561031c57602002820191905f5260205f20905b81546001600160a01b031681526001909101906020018083116102fe575b5050505050905090565b60606035805461033590611a70565b80601f016020809104026020016040519081016040528092919081815260200182805461036190611a70565b801561031c5780601f106103835761010080835404028352916020019161031c565b820191905f5260205f20905b81548152906001019060200180831161038f57509395945050505050565b5f336103ba8185856108eb565b60019150505b92915050565b5f336103d3858285610a11565b6103fd85858560405180602001604052805f81525060405180602001604052805f8152505f610a9b565b506001949350505050565b61041233866106e0565b6104375760405162461bcd60e51b815260040161042e90611aa8565b60405180910390fd5b61044685858585856001610a9b565b5050505050565b5f54610100900460ff161580801561046b57505f54600160ff909116105b806104845750303b15801561048457505f5460ff166001145b6104e75760405162461bcd60e51b815260206004820152602e60248201527f496e697469616c697a61626c653a20636f6e747261637420697320616c72656160448201526d191e481a5b9a5d1a585b1a5e995960921b606482015260840161042e565b5f805460ff191660011790558015610508575f805461ff0019166101001790555b6105158686868686610b97565b801561055a575f805461ff0019169055604051600181527f7f26b83ff96e1f2b6a682f133852f6798a09c465da95921460cefb38474024989060200160405180910390a15b505050505050565b6001600160a01b03811633036105c65760405162461bcd60e51b8152602060048201526024808201527f4552433737373a20617574686f72697a696e672073656c66206173206f70657260448201526330ba37b960e11b606482015260840161042e565b6001600160a01b0381165f9081526038602052604090205460ff161561061557335f908152603a602090815260408083206001600160a01b03851684529091529020805460ff19169055610643565b335f9081526039602090815260408083206001600160a01b03851684529091529020805460ff191660011790555b60405133906001600160a01b038316907ff4caeb2d6ca8932a215a353d0703c326ec2d81fc68170f320eb2ab49e9df61f9905f90a350565b60606036805461033590611a70565b6106a73384848460405180602001604052805f8152506001610a9b565b505050565b5f6106d733848460405180602001604052805f81525060405180602001604052805f8152505f610a9b565b50600192915050565b5f816001600160a01b0316836001600160a01b0316148061074857506001600160a01b0383165f9081526038602052604090205460ff16801561074857506001600160a01b038083165f908152603a602090815260408083209387168352929052205460ff16155b8061077757506001600160a01b038083165f9081526039602090815260408083209387168352929052205460ff165b9392505050565b336001600160a01b038216036107e05760405162461bcd60e51b815260206004820152602160248201527f4552433737373a207265766f6b696e672073656c66206173206f70657261746f6044820152603960f91b606482015260840161042e565b6001600160a01b0381165f9081526038602052604090205460ff161561083257335f908152603a602090815260408083206001600160a01b03851684529091529020805460ff1916600117905561085d565b335f9081526039602090815260408083206001600160a01b03851684529091529020805460ff191690555b60405133906001600160a01b038316907f50546e66e5f44d728365dc3908c63bc5cfeeab470722c1677e3073a6ac294aa1905f90a350565b61089f33856106e0565b6108bb5760405162461bcd60e51b815260040161042e90611aa8565b6108c784848484610bd5565b50505050565b6108e733838360405180602001604052805f815250610bd5565b5050565b6001600160a01b03831661094f5760405162461bcd60e51b815260206004820152602560248201527f4552433737373a20617070726f76652066726f6d20746865207a65726f206164604482015264647265737360d81b606482015260840161042e565b6001600160a01b0382166109b15760405162461bcd60e51b815260206004820152602360248201527f4552433737373a20617070726f766520746f20746865207a65726f206164647260448201526265737360e81b606482015260840161042e565b6001600160a01b038381165f818152603b602090815260408083209487168084529482529182902085905590518481527f8c5be1e5ebec7d5bd14f71427d1e84f3dd0314c0f7b2291e5b200ac8c7c3b925910160405180910390a3505050565b6001600160a01b038381165f908152603b60209081526040808320938616835292905220545f1981146108c75781811015610a8e5760405162461bcd60e51b815260206004820152601e60248201527f4552433737373a20696e73756666696369656e7420616c6c6f77616e63650000604482015260640161042e565b6108c784848484036108eb565b6001600160a01b038616610b005760405162461bcd60e51b815260206004820152602660248201527f4552433737373a207472616e736665722066726f6d20746865207a65726f206160448201526564647265737360d01b606482015260840161042e565b6001600160a01b038516610b625760405162461bcd60e51b8152602060048201526024808201527f4552433737373a207472616e7366657220746f20746865207a65726f206164646044820152637265737360e01b606482015260840161042e565b33610b71818888888888610d86565b610b7f818888888888610ea5565b610b8e81888888888888611009565b50505050505050565b5f54610100900460ff16610bbd5760405162461bcd60e51b815260040161042e90611af4565b610bc88585856111c6565b610446858585858561138a565b6001600160a01b038416610c365760405162461bcd60e51b815260206004820152602260248201527f4552433737373a206275726e2066726f6d20746865207a65726f206164647265604482015261737360f01b606482015260840161042e565b33610c4581865f878787610d86565b6001600160a01b0385165f9081526033602052604090205484811015610cb95760405162461bcd60e51b815260206004820152602360248201527f4552433737373a206275726e20616d6f756e7420657863656564732062616c616044820152626e636560e81b606482015260840161042e565b6001600160a01b0386165f908152603360205260408120868303905560348054879290610ce7908490611b53565b92505081905550856001600160a01b0316826001600160a01b03167fa78a9be3a7b862d26933ad85fb11d80ef66b8f972d7cbba06621d583943a4098878787604051610d3593929190611b66565b60405180910390a36040518581525f906001600160a01b038816907fddf252ad1be2c89b69c2b068fc378daa952ba7f163c4a11628f55a4df523b3ef906020015b60405180910390a3505050505050565b60405163555ddc6560e11b81526001600160a01b03861660048201527f29ddb589b1fb5fc7cf394961c1adf5f8c6454761adf795e67fe149f658abe89560248201525f90731820a4b7618bde71dce8cdc73aab6c95905fad249063aabbb8ca90604401602060405180830381865afa158015610e04573d5f5f3e3d5ffd5b505050506040513d601f19601f82011682018060405250810190610e289190611b9a565b90506001600160a01b03811615610b8e57604051633ad5cbc160e11b81526001600160a01b038216906375ab978290610e6f908a908a908a908a908a908a90600401611bb5565b5f604051808303815f87803b158015610e86575f5ffd5b505af1158015610e98573d5f5f3e3d5ffd5b5050505050505050505050565b6001600160a01b0385165f9081526033602052604090205483811015610f1d5760405162461bcd60e51b815260206004820152602760248201527f4552433737373a207472616e7366657220616d6f756e7420657863656564732060448201526662616c616e636560c81b606482015260840161042e565b6001600160a01b038087165f90815260336020526040808220878503905591871681529081208054869290610f53908490611c0e565b92505081905550846001600160a01b0316866001600160a01b0316886001600160a01b03167f06b541ddaa720db2b10a4d0cdac39b8d360425fc073085fac19bc82614677987878787604051610fab93929190611b66565b60405180910390a4846001600160a01b0316866001600160a01b03167fddf252ad1be2c89b69c2b068fc378daa952ba7f163c4a11628f55a4df523b3ef86604051610ff891815260200190565b60405180910390a350505050505050565b60405163555ddc6560e11b81526001600160a01b03861660048201527fb281fc8c12954d22544db45de3159a39272895b169a852b314f9cc762e44c53b60248201525f90731820a4b7618bde71dce8cdc73aab6c95905fad249063aabbb8ca90604401602060405180830381865afa158015611087573d5f5f3e3d5ffd5b505050506040513d601f19601f820116820180604052508101906110ab9190611b9a565b90506001600160a01b03811615611122576040516223de2960e01b81526001600160a01b038216906223de29906110f0908b908b908b908b908b908b90600401611bb5565b5f604051808303815f87803b158015611107575f5ffd5b505af1158015611119573d5f5f3e3d5ffd5b505050506111bc565b81156111bc576001600160a01b0386163b156111bc5760405162461bcd60e51b815260206004820152604d60248201527f4552433737373a20746f6b656e20726563697069656e7420636f6e747261637460448201527f20686173206e6f20696d706c656d656e74657220666f7220455243373737546f60648201526c1ad95b9cd49958da5c1a595b9d609a1b608482015260a40161042e565b5050505050505050565b5f54610100900460ff166111ec5760405162461bcd60e51b815260040161042e90611af4565b60356111f88482611c65565b5060366112058382611c65565b508051611219906037906020840190611514565b505f5b815181101561127557600160385f84848151811061123c5761123c611d1f565b6020908102919091018101516001600160a01b031682528101919091526040015f20805460ff191691151591909117905560010161121c565b506040516329965a1d60e01b815230600482018190527fac7fbab5f54a3ca8194167523c6753bfeb96a445279294b6125b68cce217705460248301526044820152731820a4b7618bde71dce8cdc73aab6c95905fad24906329965a1d906064015f604051808303815f87803b1580156112ec575f5ffd5b505af11580156112fe573d5f5f3e3d5ffd5b50506040516329965a1d60e01b815230600482018190527faea199e31a596269b42cdafd93407f14436db6e4cad65417994c2eb37381e05a60248301526044820152731820a4b7618bde71dce8cdc73aab6c95905fad2492506329965a1d91506064015f604051808303815f87803b158015611378575f5ffd5b505af1158015610b8e573d5f5f3e3d5ffd5b5f54610100900460ff166113b05760405162461bcd60e51b815260040161042e90611af4565b610446818360405180602001604052805f81525060405180602001604052805f8152506108c78484848460016001600160a01b0385166114325760405162461bcd60e51b815260206004820181905260248201527f4552433737373a206d696e7420746f20746865207a65726f2061646472657373604482015260640161042e565b5f3390508460345f8282546114479190611c0e565b90915550506001600160a01b0386165f9081526033602052604081208054879290611473908490611c0e565b909155506114889050815f8888888888611009565b856001600160a01b0316816001600160a01b03167f2fe5be0146f74c5bce36c0b80911af6c7d86ff27e89d5cfa61fc681327954e5d8787876040516114cf93929190611b66565b60405180910390a36040518581526001600160a01b038716905f907fddf252ad1be2c89b69c2b068fc378daa952ba7f163c4a11628f55a4df523b3ef90602001610d76565b828054828255905f5260205f20908101928215611567579160200282015b8281111561156757825182546001600160a01b0319166001600160a01b03909116178255602090920191600190910190611532565b50611573929150611577565b5090565b5b80821115611573575f8155600101611578565b602080825282518282018190525f918401906040840190835b818110156115cb5783516001600160a01b03168352602093840193909201916001016115a4565b509095945050505050565b5f81518084528060208401602086015e5f602082860101526020601f19601f83011685010191505092915050565b602081525f61077760208301846115d6565b6001600160a01b038116811461162a575f5ffd5b50565b803561163881611616565b919050565b5f5f6040838503121561164e575f5ffd5b823561165981611616565b946020939093013593505050565b5f5f5f60608486031215611679575f5ffd5b833561168481611616565b9250602084013561169481611616565b929592945050506040919091013590565b634e487b7160e01b5f52604160045260245ffd5b604051601f8201601f191681016001600160401b03811182821017156116e1576116e16116a5565b604052919050565b5f82601f8301126116f8575f5ffd5b8135602083015f5f6001600160401b03841115611717576117176116a5565b50601f8301601f191660200161172c816116b9565b915050828152858383011115611740575f5ffd5b828260208301375f92810160200192909252509392505050565b5f5f5f5f5f60a0868803121561176e575f5ffd5b853561177981611616565b9450602086013561178981611616565b93506040860135925060608601356001600160401b038111156117aa575f5ffd5b6117b6888289016116e9565b92505060808601356001600160401b038111156117d1575f5ffd5b6117dd888289016116e9565b9150509295509295909350565b5f602082840312156117fa575f5ffd5b813561077781611616565b5f5f5f5f5f60a08688031215611819575f5ffd5b85356001600160401b0381111561182e575f5ffd5b61183a888289016116e9565b95505060208601356001600160401b03811115611855575f5ffd5b611861888289016116e9565b94505060408601356001600160401b0381111561187c575f5ffd5b8601601f8101881361188c575f5ffd5b80356001600160401b038111156118a5576118a56116a5565b8060051b6118b5602082016116b9565b9182526020818401810192908101908b8411156118d0575f5ffd5b6020850194505b838510156118fe57843592506118ec83611616565b828252602094850194909101906118d7565b96505050506060870135925061191890506080870161162d565b90509295509295909350565b5f5f5f60608486031215611936575f5ffd5b833561194181611616565b92506020840135915060408401356001600160401b03811115611962575f5ffd5b61196e868287016116e9565b9150509250925092565b5f5f60408385031215611989575f5ffd5b823561199481611616565b915060208301356119a481611616565b809150509250929050565b5f5f5f5f608085870312156119c2575f5ffd5b84356119cd81611616565b93506020850135925060408501356001600160401b038111156119ee575f5ffd5b6119fa878288016116e9565b92505060608501356001600160401b03811115611a15575f5ffd5b611a21878288016116e9565b91505092959194509250565b5f5f60408385031215611a3e575f5ffd5b8235915060208301356001600160401b03811115611a5a575f5ffd5b611a66858286016116e9565b9150509250929050565b600181811c90821680611a8457607f821691505b602082108103611aa257634e487b7160e01b5f52602260045260245ffd5b50919050565b6020808252602c908201527f4552433737373a2063616c6c6572206973206e6f7420616e206f70657261746f60408201526b39103337b9103437b63232b960a11b606082015260800190565b6020808252602b908201527f496e697469616c697a61626c653a20636f6e7472616374206973206e6f74206960408201526a6e697469616c697a696e6760a81b606082015260800190565b634e487b7160e01b5f52601160045260245ffd5b818103818111156103c0576103c0611b3f565b838152606060208201525f611b7e60608301856115d6565b8281036040840152611b9081856115d6565b9695505050505050565b5f60208284031215611baa575f5ffd5b815161077781611616565b6001600160a01b0387811682528681166020830152851660408201526060810184905260c0608082018190525f90611bef908301856115d6565b82810360a0840152611c0181856115d6565b9998505050505050505050565b808201808211156103c0576103c0611b3f565b601f8211156106a757805f5260205f20601f840160051c81016020851015611c465750805b601f840160051c820191505b81811015610446575f8155600101611c52565b81516001600160401b03811115611c7e57611c7e6116a5565b611c9281611c8c8454611a70565b84611c21565b6020601f821160018114611cc4575f8315611cad5750848201515b5f19600385901b1c1916600184901b178455610446565b5f84815260208120601f198516915b82811015611cf35787850151825560209485019460019092019101611cd3565b5084821015611d1057868401515f19600387901b60f8161c191681555b50505050600190811b01905550565b634e487b7160e01b5f52603260045260245ffdfea2646970667358221220ec272e752f82144fe75d6270edb87d30d60d30a6c492633de6f12b8a305d67cd64736f6c634300081c0033","linkReferences":{}},"methodIdentifiers":{"allowance(address,address)":"dd62ed3e","approve(address,uint256)":"095ea7b3","authorizeOperator(address)":"959b8c3f","balanceOf(address)":"70a08231","burn(uint256,bytes)":"fe9d9303","decimals()":"313ce567","defaultOperators()":"06e48538","granularity()":"556f0dc7","initialize(string,string,address[],uint256,address)":"768f950a","isOperatorFor(address,address)":"d95b6371","name()":"06fdde03","operatorBurn(address,uint256,bytes,bytes)":"fc673c4f","operatorSend(address,address,uint256,bytes,bytes)":"62ad1b83","revokeOperator(address)":"fad8b32a","send(address,uint256,bytes)":"9bd9bbc6","symbol()":"95d89b41","totalSupply()":"18160ddd","transfer(address,uint256)":"a9059cbb","transferFrom(address,address,uint256)":"23b872dd"},"id":144}