{"abi":[{"type":"constructor","inputs":[{"name":"_token","type":"address","internalType":"contract IVotes"},{"name":"_timelock","type":"address","internalType":"contract TimelockController"}],"stateMutability":"nonpayable"},{"type":"receive","stateMutability":"payable"},{"type":"function","name":"BALLOT_TYPEHASH","inputs":[],"outputs":[{"name":"","type":"bytes32","internalType":"bytes32"}],"stateMutability":"view"},{"type":"function","name":"CLOCK_MODE","inputs":[],"outputs":[{"name":"","type":"string","internalType":"string"}],"stateMutability":"view"},{"type":"function","name":"COUNTING_MODE","inputs":[],"outputs":[{"name":"","type":"string","internalType":"string"}],"stateMutability":"pure"},{"type":"function","name":"EXTENDED_BALLOT_TYPEHASH","inputs":[],"outputs":[{"name":"","type":"bytes32","internalType":"bytes32"}],"stateMutability":"view"},{"type":"function","name":"cancel","inputs":[{"name":"targets","type":"address[]","internalType":"address[]"},{"name":"values","type":"uint256[]","internalType":"uint256[]"},{"name":"calldatas","type":"bytes[]","internalType":"bytes[]"},{"name":"descriptionHash","type":"bytes32","internalType":"bytes32"}],"outputs":[{"name":"","type":"uint256","internalType":"uint256"}],"stateMutability":"nonpayable"},{"type":"function","name":"castVote","inputs":[{"name":"proposalId","type":"uint256","internalType":"uint256"},{"name":"support","type":"uint8","internalType":"uint8"}],"outputs":[{"name":"","type":"uint256","internalType":"uint256"}],"stateMutability":"nonpayable"},{"type":"function","name":"castVoteBySig","inputs":[{"name":"proposalId","type":"uint256","internalType":"uint256"},{"name":"support","type":"uint8","internalType":"uint8"},{"name":"v","type":"uint8","internalType":"uint8"},{"name":"r","type":"bytes32","internalType":"bytes32"},{"name":"s","type":"bytes32","internalType":"bytes32"}],"outputs":[{"name":"","type":"uint256","internalType":"uint256"}],"stateMutability":"nonpayable"},{"type":"function","name":"castVoteWithReason","inputs":[{"name":"proposalId","type":"uint256","internalType":"uint256"},{"name":"support","type":"uint8","internalType":"uint8"},{"name":"reason","type":"string","internalType":"string"}],"outputs":[{"name":"","type":"uint256","internalType":"uint256"}],"stateMutability":"nonpayable"},{"type":"function","name":"castVoteWithReasonAndParams","inputs":[{"name":"proposalId","type":"uint256","internalType":"uint256"},{"name":"support","type":"uint8","internalType":"uint8"},{"name":"reason","type":"string","internalType":"string"},{"name":"params","type":"bytes","internalType":"bytes"}],"outputs":[{"name":"","type":"uint256","internalType":"uint256"}],"stateMutability":"nonpayable"},{"type":"function","name":"castVoteWithReasonAndParamsBySig","inputs":[{"name":"proposalId","type":"uint256","internalType":"uint256"},{"name":"support","type":"uint8","internalType":"uint8"},{"name":"reason","type":"string","internalType":"string"},{"name":"params","type":"bytes","internalType":"bytes"},{"name":"v","type":"uint8","internalType":"uint8"},{"name":"r","type":"bytes32","internalType":"bytes32"},{"name":"s","type":"bytes32","internalType":"bytes32"}],"outputs":[{"name":"","type":"uint256","internalType":"uint256"}],"stateMutability":"nonpayable"},{"type":"function","name":"clock","inputs":[],"outputs":[{"name":"","type":"uint48","internalType":"uint48"}],"stateMutability":"view"},{"type":"function","name":"eip712Domain","inputs":[],"outputs":[{"name":"fields","type":"bytes1","internalType":"bytes1"},{"name":"name","type":"string","internalType":"string"},{"name":"version","type":"string","internalType":"string"},{"name":"chainId","type":"uint256","internalType":"uint256"},{"name":"verifyingContract","type":"address","internalType":"address"},{"name":"salt","type":"bytes32","internalType":"bytes32"},{"name":"extensions","type":"uint256[]","internalType":"uint256[]"}],"stateMutability":"view"},{"type":"function","name":"execute","inputs":[{"name":"targets","type":"address[]","internalType":"address[]"},{"name":"values","type":"uint256[]","internalType":"uint256[]"},{"name":"calldatas","type":"bytes[]","internalType":"bytes[]"},{"name":"descriptionHash","type":"bytes32","internalType":"bytes32"}],"outputs":[{"name":"","type":"uint256","internalType":"uint256"}],"stateMutability":"payable"},{"type":"function","name":"getVotes","inputs":[{"name":"account","type":"address","internalType":"address"},{"name":"timepoint","type":"uint256","internalType":"uint256"}],"outputs":[{"name":"","type":"uint256","internalType":"uint256"}],"stateMutability":"view"},{"type":"function","name":"getVotesWithParams","inputs":[{"name":"account","type":"address","internalType":"address"},{"name":"timepoint","type":"uint256","internalType":"uint256"},{"name":"params","type":"bytes","internalType":"bytes"}],"outputs":[{"name":"","type":"uint256","internalType":"uint256"}],"stateMutability":"view"},{"type":"function","name":"hasVoted","inputs":[{"name":"proposalId","type":"uint256","internalType":"uint256"},{"name":"account","type":"address","internalType":"address"}],"outputs":[{"name":"","type":"bool","internalType":"bool"}],"stateMutability":"view"},{"type":"function","name":"hashProposal","inputs":[{"name":"targets","type":"address[]","internalType":"address[]"},{"name":"values","type":"uint256[]","internalType":"uint256[]"},{"name":"calldatas","type":"bytes[]","internalType":"bytes[]"},{"name":"descriptionHash","type":"bytes32","internalType":"bytes32"}],"outputs":[{"name":"","type":"uint256","internalType":"uint256"}],"stateMutability":"pure"},{"type":"function","name":"name","inputs":[],"outputs":[{"name":"","type":"string","internalType":"string"}],"stateMutability":"view"},{"type":"function","name":"onERC1155BatchReceived","inputs":[{"name":"","type":"address","internalType":"address"},{"name":"","type":"address","internalType":"address"},{"name":"","type":"uint256[]","internalType":"uint256[]"},{"name":"","type":"uint256[]","internalType":"uint256[]"},{"name":"","type":"bytes","internalType":"bytes"}],"outputs":[{"name":"","type":"bytes4","internalType":"bytes4"}],"stateMutability":"nonpayable"},{"type":"function","name":"onERC1155Received","inputs":[{"name":"","type":"address","internalType":"address"},{"name":"","type":"address","internalType":"address"},{"name":"","type":"uint256","internalType":"uint256"},{"name":"","type":"uint256","internalType":"uint256"},{"name":"","type":"bytes","internalType":"bytes"}],"outputs":[{"name":"","type":"bytes4","internalType":"bytes4"}],"stateMutability":"nonpayable"},{"type":"function","name":"onERC721Received","inputs":[{"name":"","type":"address","internalType":"address"},{"name":"","type":"address","internalType":"address"},{"name":"","type":"uint256","internalType":"uint256"},{"name":"","type":"bytes","internalType":"bytes"}],"outputs":[{"name":"","type":"bytes4","internalType":"bytes4"}],"stateMutability":"nonpayable"},{"type":"function","name":"proposalDeadline","inputs":[{"name":"proposalId","type":"uint256","internalType":"uint256"}],"outputs":[{"name":"","type":"uint256","internalType":"uint256"}],"stateMutability":"view"},{"type":"function","name":"proposalEta","inputs":[{"name":"proposalId","type":"uint256","internalType":"uint256"}],"outputs":[{"name":"","type":"uint256","internalType":"uint256"}],"stateMutability":"view"},{"type":"function","name":"proposalProposer","inputs":[{"name":"proposalId","type":"uint256","internalType":"uint256"}],"outputs":[{"name":"","type":"address","internalType":"address"}],"stateMutability":"view"},{"type":"function","name":"proposalSnapshot","inputs":[{"name":"proposalId","type":"uint256","internalType":"uint256"}],"outputs":[{"name":"","type":"uint256","internalType":"uint256"}],"stateMutability":"view"},{"type":"function","name":"proposalThreshold","inputs":[],"outputs":[{"name":"","type":"uint256","internalType":"uint256"}],"stateMutability":"view"},{"type":"function","name":"proposalVotes","inputs":[{"name":"proposalId","type":"uint256","internalType":"uint256"}],"outputs":[{"name":"againstVotes","type":"uint256","internalType":"uint256"},{"name":"forVotes","type":"uint256","internalType":"uint256"},{"name":"abstainVotes","type":"uint256","internalType":"uint256"}],"stateMutability":"view"},{"type":"function","name":"propose","inputs":[{"name":"targets","type":"address[]","internalType":"address[]"},{"name":"values","type":"uint256[]","internalType":"uint256[]"},{"name":"calldatas","type":"bytes[]","internalType":"bytes[]"},{"name":"description","type":"string","internalType":"string"}],"outputs":[{"name":"","type":"uint256","internalType":"uint256"}],"stateMutability":"nonpayable"},{"type":"function","name":"queue","inputs":[{"name":"targets","type":"address[]","internalType":"address[]"},{"name":"values","type":"uint256[]","internalType":"uint256[]"},{"name":"calldatas","type":"bytes[]","internalType":"bytes[]"},{"name":"descriptionHash","type":"bytes32","internalType":"bytes32"}],"outputs":[{"name":"","type":"uint256","internalType":"uint256"}],"stateMutability":"nonpayable"},{"type":"function","name":"quorum","inputs":[{"name":"blockNumber","type":"uint256","internalType":"uint256"}],"outputs":[{"name":"","type":"uint256","internalType":"uint256"}],"stateMutability":"view"},{"type":"function","name":"quorumDenominator","inputs":[],"outputs":[{"name":"","type":"uint256","internalType":"uint256"}],"stateMutability":"view"},{"type":"function","name":"quorumNumerator","inputs":[{"name":"timepoint","type":"uint256","internalType":"uint256"}],"outputs":[{"name":"","type":"uint256","internalType":"uint256"}],"stateMutability":"view"},{"type":"function","name":"quorumNumerator","inputs":[],"outputs":[{"name":"","type":"uint256","internalType":"uint256"}],"stateMutability":"view"},{"type":"function","name":"relay","inputs":[{"name":"target","type":"address","internalType":"address"},{"name":"value","type":"uint256","internalType":"uint256"},{"name":"data","type":"bytes","internalType":"bytes"}],"outputs":[],"stateMutability":"payable"},{"type":"function","name":"state","inputs":[{"name":"proposalId","type":"uint256","internalType":"uint256"}],"outputs":[{"name":"","type":"uint8","internalType":"enum IGovernor.ProposalState"}],"stateMutability":"view"},{"type":"function","name":"supportsInterface","inputs":[{"name":"interfaceId","type":"bytes4","internalType":"bytes4"}],"outputs":[{"name":"","type":"bool","internalType":"bool"}],"stateMutability":"view"},{"type":"function","name":"timelock","inputs":[],"outputs":[{"name":"","type":"address","internalType":"address"}],"stateMutability":"view"},{"type":"function","name":"token","inputs":[],"outputs":[{"name":"","type":"address","internalType":"contract IERC5805"}],"stateMutability":"view"},{"type":"function","name":"updateQuorumNumerator","inputs":[{"name":"newQuorumNumerator","type":"uint256","internalType":"uint256"}],"outputs":[],"stateMutability":"nonpayable"},{"type":"function","name":"updateTimelock","inputs":[{"name":"newTimelock","type":"address","internalType":"contract TimelockController"}],"outputs":[],"stateMutability":"nonpayable"},{"type":"function","name":"version","inputs":[],"outputs":[{"name":"","type":"string","internalType":"string"}],"stateMutability":"view"},{"type":"function","name":"votingDelay","inputs":[],"outputs":[{"name":"","type":"uint256","internalType":"uint256"}],"stateMutability":"pure"},{"type":"function","name":"votingPeriod","inputs":[],"outputs":[{"name":"","type":"uint256","internalType":"uint256"}],"stateMutability":"pure"},{"type":"event","name":"EIP712DomainChanged","inputs":[],"anonymous":false},{"type":"event","name":"ProposalCanceled","inputs":[{"name":"proposalId","type":"uint256","indexed":false,"internalType":"uint256"}],"anonymous":false},{"type":"event","name":"ProposalCreated","inputs":[{"name":"proposalId","type":"uint256","indexed":false,"internalType":"uint256"},{"name":"proposer","type":"address","indexed":false,"internalType":"address"},{"name":"targets","type":"address[]","indexed":false,"internalType":"address[]"},{"name":"values","type":"uint256[]","indexed":false,"internalType":"uint256[]"},{"name":"signatures","type":"string[]","indexed":false,"internalType":"string[]"},{"name":"calldatas","type":"bytes[]","indexed":false,"internalType":"bytes[]"},{"name":"voteStart","type":"uint256","indexed":false,"internalType":"uint256"},{"name":"voteEnd","type":"uint256","indexed":false,"internalType":"uint256"},{"name":"description","type":"string","indexed":false,"internalType":"string"}],"anonymous":false},{"type":"event","name":"ProposalExecuted","inputs":[{"name":"proposalId","type":"uint256","indexed":false,"internalType":"uint256"}],"anonymous":false},{"type":"event","name":"ProposalQueued","inputs":[{"name":"proposalId","type":"uint256","indexed":false,"internalType":"uint256"},{"name":"eta","type":"uint256","indexed":false,"internalType":"uint256"}],"anonymous":false},{"type":"event","name":"QuorumNumeratorUpdated","inputs":[{"name":"oldQuorumNumerator","type":"uint256","indexed":false,"internalType":"uint256"},{"name":"newQuorumNumerator","type":"uint256","indexed":false,"internalType":"uint256"}],"anonymous":false},{"type":"event","name":"TimelockChange","inputs":[{"name":"oldTimelock","type":"address","indexed":false,"internalType":"address"},{"name":"newTimelock","type":"address","indexed":false,"internalType":"address"}],"anonymous":false},{"type":"event","name":"VoteCast","inputs":[{"name":"voter","type":"address","indexed":true,"internalType":"address"},{"name":"proposalId","type":"uint256","indexed":false,"internalType":"uint256"},{"name":"support","type":"uint8","indexed":false,"internalType":"uint8"},{"name":"weight","type":"uint256","indexed":false,"internalType":"uint256"},{"name":"reason","type":"string","indexed":false,"internalType":"string"}],"anonymous":false},{"type":"event","name":"VoteCastWithParams","inputs":[{"name":"voter","type":"address","indexed":true,"internalType":"address"},{"name":"proposalId","type":"uint256","indexed":false,"internalType":"uint256"},{"name":"support","type":"uint8","indexed":false,"internalType":"uint8"},{"name":"weight","type":"uint256","indexed":false,"internalType":"uint256"},{"name":"reason","type":"string","indexed":false,"internalType":"string"},{"name":"params","type":"bytes","indexed":false,"internalType":"bytes"}],"anonymous":false},{"type":"error","name":"Empty","inputs":[]},{"type":"error","name":"InvalidShortString","inputs":[]},{"type":"error","name":"StringTooLong","inputs":[{"name":"str","type":"string","internalType":"string"}]}],"bytecode":{"object":"0x610180604052348015610010575f5ffd5b50604051614c93380380614c9383398101604081905261002f91610795565b600482826040518060400160405280600a81526020016926bca3b7bb32b93737b960b11b8152508061006561014a60201b60201c565b61006f825f610165565b6101205261007e816001610165565b61014052815160208084019190912060e052815190820120610100524660a05261010a60e05161010051604080517f8b73c3c69bb8fe3d512ecc4cf759cc79239f7b179b0ffacaa9a75d522b39400f60208201529081019290925260608201524660808201523060a08201525f9060c00160405160208183030381529060405280519060200120905090565b60805250503060c052600261011f8282610865565b5061012b905081610197565b506001600160a01b03166101605261014281610200565b5050506109bb565b6040805180820190915260018152603160f81b602082015290565b5f6020835110156101805761017983610371565b9050610191565b8161018b8482610865565b5060ff90505b92915050565b600654604080516001600160a01b03928316815291831660208301527f08f74ea46ef7894f65eabfb5e6e695de773a000b47c529ab559178069b226401910160405180910390a1600680546001600160a01b0319166001600160a01b0392909216919091179055565b60648111156102885760405162461bcd60e51b815260206004820152604360248201527f476f7665726e6f72566f74657351756f72756d4672616374696f6e3a2071756f60448201527f72756d4e756d657261746f72206f7665722071756f72756d44656e6f6d696e616064820152623a37b960e91b608482015260a4015b60405180910390fd5b5f6102916103ae565b905080158015906102a25750600954155b1561030557604080518082019091525f8152600990602081016102c4846103d9565b6001600160e01b0390811690915282546001810184555f938452602093849020835194909301519091166401000000000263ffffffff909316929092179101555b610332610320610313610445565b65ffffffffffff166104b5565b610329846103d9565b60099190610519565b505060408051828152602081018490527f0553476bf02ef2726e8ce5ced78d63e26e602e4a2257b1f559418e24b4633997910160405180910390a15050565b5f5f829050601f8151111561039b578260405163305a27a960e01b815260040161027f919061091f565b80516103a682610954565b179392505050565b6009545f90156103d0576103c26009610533565b6001600160e01b0316905090565b6008545b905090565b5f6001600160e01b038211156104415760405162461bcd60e51b815260206004820152602760248201527f53616665436173743a2076616c756520646f65736e27742066697420696e20326044820152663234206269747360c81b606482015260840161027f565b5090565b5f610160516001600160a01b03166391ddadf46040518163ffffffff1660e01b8152600401602060405180830381865afa9250505080156104a3575060408051601f3d908101601f191682019092526104a091810190610977565b60015b6104b0576103d443610579565b919050565b5f63ffffffff8211156104415760405162461bcd60e51b815260206004820152602660248201527f53616665436173743a2076616c756520646f65736e27742066697420696e203360448201526532206269747360d01b606482015260840161027f565b5f806105268585856105df565b915091505b935093915050565b80545f908015610570576105598361054c60018461099c565b5f91825260209091200190565b5464010000000090046001600160e01b0316610572565b5f5b9392505050565b5f65ffffffffffff8211156104415760405162461bcd60e51b815260206004820152602660248201527f53616665436173743a2076616c756520646f65736e27742066697420696e203460448201526538206269747360d01b606482015260840161027f565b82545f9081908015610725575f6105fb8761054c60018561099c565b60408051808201909152905463ffffffff8082168084526401000000009092046001600160e01b03166020840152919250908716101561067d5760405162461bcd60e51b815260206004820152601b60248201527f436865636b706f696e743a2064656372656173696e67206b6579730000000000604482015260640161027f565b805163ffffffff8088169116036106c6578461069e8861054c60018661099c565b80546001600160e01b03929092166401000000000263ffffffff909216919091179055610715565b6040805180820190915263ffffffff80881682526001600160e01b0380881660208085019182528b54600181018d555f8d81529190912094519151909216640100000000029216919091179101555b60200151925083915061052b9050565b50506040805180820190915263ffffffff80851682526001600160e01b0380851660208085019182528854600181018a555f8a81529182209551925190931664010000000002919093161792019190915590508161052b565b6001600160a01b0381168114610792575f5ffd5b50565b5f5f604083850312156107a6575f5ffd5b82516107b18161077e565b60208401519092506107c28161077e565b809150509250929050565b634e487b7160e01b5f52604160045260245ffd5b600181811c908216806107f557607f821691505b60208210810361081357634e487b7160e01b5f52602260045260245ffd5b50919050565b601f82111561086057805f5260205f20601f840160051c8101602085101561083e5750805b601f840160051c820191505b8181101561085d575f815560010161084a565b50505b505050565b81516001600160401b0381111561087e5761087e6107cd565b6108928161088c84546107e1565b84610819565b6020601f8211600181146108c4575f83156108ad5750848201515b5f19600385901b1c1916600184901b17845561085d565b5f84815260208120601f198516915b828110156108f357878501518255602094850194600190920191016108d3565b508482101561091057868401515f19600387901b60f8161c191681555b50505050600190811b01905550565b602081525f82518060208401528060208501604085015e5f604082850101526040601f19601f83011684010191505092915050565b80516020808301519190811015610813575f1960209190910360031b1b16919050565b5f60208284031215610987575f5ffd5b815165ffffffffffff81168114610572575f5ffd5b8181038181111561019157634e487b7160e01b5f52601160045260245ffd5b60805160a05160c05160e05161010051610120516101405161016051614261610a325f395f818161092101528181610fed015281816112ab015281816121f5015261233301525f61125901525f61122f01525f61252c01525f61250401525f61245f01525f61248901525f6124b301526142615ff3fe608060405260043610610257575f3560e01c806360c4247f1161013f578063bc197c81116100b3578063dd4e2ba511610078578063dd4e2ba51461082f578063deaaa7cc14610874578063eb9019d4146108a7578063f23a6e61146108c6578063f8ce560a146108f1578063fc0c546a14610910575f5ffd5b8063bc197c811461077e578063c01f9e37146107a9578063c28bc2fa146107e0578063c59057e4146107f3578063d33219b414610812575f5ffd5b806397c3d3341161010457806397c3d334146106e85780639a802a6d146106fb578063a7713a701461071a578063a890c9101461072e578063ab58fb8e1461074d578063b58131b01461076c575f5ffd5b806360c4247f146106395780637b3c71d3146106585780637d5e81e21461067757806384b0196e1461069657806391ddadf4146106bd575f5ffd5b80632fe3e261116101d6578063452115d61161019b578063452115d61461054c5780634bf5d7e91461056b578063544ffc9c1461057f57806354fd4d50146105d257806356781388146105fb5780635f398a141461061a575f5ffd5b80632fe3e261146104735780633932abb1146104a65780633bccf4fd146104b95780633e4f49e6146104d85780634385963214610504575f5ffd5b8063143489d01161021c578063143489d014610377578063150b7a02146103ca578063160cbed71461040d5780632656227d1461042c5780632d63f6931461043f575f5ffd5b806301ffc9a7146102c657806302a251a3146102fa578063034201811461031857806306f3f9e61461033757806306fdde0314610356575f5ffd5b366102c25730610265610943565b6001600160a01b0316146102c05760405162461bcd60e51b815260206004820152601f60248201527f476f7665726e6f723a206d7573742073656e6420746f206578656375746f720060448201526064015b60405180910390fd5b005b5f5ffd5b3480156102d1575f5ffd5b506102e56102e0366004613360565b61095b565b60405190151581526020015b60405180910390f35b348015610305575f5ffd5b5061b2fa5b6040519081526020016102f1565b348015610323575f5ffd5b5061030a61033236600461349e565b61096b565b348015610342575f5ffd5b506102c0610351366004613541565b610a61565b348015610361575f5ffd5b5061036a610aea565b6040516102f19190613586565b348015610382575f5ffd5b506103b2610391366004613541565b5f90815260036020526040902054600160401b90046001600160a01b031690565b6040516001600160a01b0390911681526020016102f1565b3480156103d5575f5ffd5b506103f46103e43660046135ac565b630a85bd0160e11b949350505050565b6040516001600160e01b031990911681526020016102f1565b348015610418575f5ffd5b5061030a610427366004613772565b610b7a565b61030a61043a366004613772565b610d6e565b34801561044a575f5ffd5b5061030a610459366004613541565b5f908152600360205260409020546001600160401b031690565b34801561047e575f5ffd5b5061030a7fb3b3f3b703cd84ce352197dcff232b1b5d3cfb2025ce47cf04742d0651f1af8881565b3480156104b1575f5ffd5b50600161030a565b3480156104c4575f5ffd5b5061030a6104d3366004613805565b610e5d565b3480156104e3575f5ffd5b506104f76104f2366004613541565b610ed1565b6040516102f19190613863565b34801561050f575f5ffd5b506102e561051e366004613889565b5f828152600a602090815260408083206001600160a01b038516845260030190915290205460ff1692915050565b348015610557575f5ffd5b5061030a610566366004613772565b610edb565b348015610576575f5ffd5b5061036a610fe9565b34801561058a575f5ffd5b506105b7610599366004613541565b5f908152600a60205260409020805460018201546002909201549092565b604080519384526020840192909252908201526060016102f1565b3480156105dd575f5ffd5b506040805180820190915260018152603160f81b602082015261036a565b348015610606575f5ffd5b5061030a6106153660046138b7565b6110a9565b348015610625575f5ffd5b5061030a6106343660046138e1565b6110d0565b348015610644575f5ffd5b5061030a610653366004613541565b611118565b348015610663575f5ffd5b5061030a610672366004613962565b6111c6565b348015610682575f5ffd5b5061030a6106913660046139b7565b61120c565b3480156106a1575f5ffd5b506106aa611222565b6040516102f19796959493929190613aad565b3480156106c8575f5ffd5b506106d16112a8565b60405165ffffffffffff90911681526020016102f1565b3480156106f3575f5ffd5b50606461030a565b348015610706575f5ffd5b5061030a610715366004613b0e565b611330565b348015610725575f5ffd5b5061030a611346565b348015610739575f5ffd5b506102c0610748366004613b62565b61136f565b348015610758575f5ffd5b5061030a610767366004613541565b6113f5565b348015610777575f5ffd5b505f61030a565b348015610789575f5ffd5b506103f4610798366004613b7d565b63bc197c8160e01b95945050505050565b3480156107b4575f5ffd5b5061030a6107c3366004613541565b5f908152600360205260409020600101546001600160401b031690565b6102c06107ee366004613c14565b61148b565b3480156107fe575f5ffd5b5061030a61080d366004613772565b611595565b34801561081d575f5ffd5b506006546001600160a01b03166103b2565b34801561083a575f5ffd5b506040805180820190915260208082527f737570706f72743d627261766f2671756f72756d3d666f722c6162737461696e9082015261036a565b34801561087f575f5ffd5b5061030a7f150214d74d59b7d1e90c73fc22ef3d991dd0a76b046543d4d80ab92d2a50328f81565b3480156108b2575f5ffd5b5061030a6108c1366004613c53565b6115ce565b3480156108d1575f5ffd5b506103f46108e0366004613c7d565b63f23a6e6160e01b95945050505050565b3480156108fc575f5ffd5b5061030a61090b366004613541565b6115ed565b34801561091b575f5ffd5b506103b27f000000000000000000000000000000000000000000000000000000000000000081565b5f6109566006546001600160a01b031690565b905090565b5f610965826115f7565b92915050565b5f5f610a0e610a067fb3b3f3b703cd84ce352197dcff232b1b5d3cfb2025ce47cf04742d0651f1af888c8c8c8c6040516109a6929190613cd4565b60405180910390208b805190602001206040516020016109eb959493929190948552602085019390935260ff9190911660408401526060830152608082015260a00190565b6040516020818303038152906040528051906020012061161b565b868686611647565b9050610a538a828b8b8b8080601f0160208091040260200160405190810160405280939291908181526020018383808284375f920191909152508d9250611663915050565b9a9950505050505050505050565b610a69610943565b6001600160a01b0316336001600160a01b031614610a995760405162461bcd60e51b81526004016102b790613ce3565b30610aa2610943565b6001600160a01b031614610ade575f8036604051610ac1929190613cd4565b604051809103902090505b80610ad760046117b5565b03610acc57505b610ae781611832565b50565b606060028054610af990613d1a565b80601f0160208091040260200160405190810160405280929190818152602001828054610b2590613d1a565b8015610b705780601f10610b4757610100808354040283529160200191610b70565b820191905f5260205f20905b815481529060010190602001808311610b5357829003601f168201915b5050505050905090565b5f5f610b8886868686611595565b90506004610b9582610ed1565b6007811115610ba657610ba661384f565b14610bc35760405162461bcd60e51b81526004016102b790613d52565b6006546040805163793d064960e11b815290515f926001600160a01b03169163f27a0c929160048083019260209291908290030181865afa158015610c0a573d5f5f3e3d5ffd5b505050506040513d601f19601f82011682018060405250810190610c2e9190613d93565b60065460405163b1c5f42760e01b81529192506001600160a01b03169063b1c5f42790610c67908a908a908a905f908b90600401613e3d565b602060405180830381865afa158015610c82573d5f5f3e3d5ffd5b505050506040513d601f19601f82011682018060405250810190610ca69190613d93565b5f838152600760205260408082209290925560065491516308f2a0bb60e41b81526001600160a01b0390921691638f2a0bb091610cf0918b918b918b91908b908990600401613e8a565b5f604051808303815f87803b158015610d07575f5ffd5b505af1158015610d19573d5f5f3e3d5ffd5b505050507f9a2e42fd6722813d69113e7d0079d3d940171428df7373df9c7f7617cfda2892828242610d4b9190613ef5565b604080519283526020830191909152015b60405180910390a15095945050505050565b5f5f610d7c86868686611595565b90505f610d8882610ed1565b90506004816007811115610d9e57610d9e61384f565b1480610dbb57506005816007811115610db957610db961384f565b145b610dd75760405162461bcd60e51b81526004016102b790613d52565b5f8281526003602052604090819020600201805460ff19166001179055517f712ae1383f79ac853f8d882153778e0260ef8f03b504e2866e0593e04d2b291f90610e249084815260200190565b60405180910390a1610e39828888888861199d565b610e468288888888611a36565b610e538288888888611a43565b5095945050505050565b604080517f150214d74d59b7d1e90c73fc22ef3d991dd0a76b046543d4d80ab92d2a50328f602082015290810186905260ff851660608201525f908190610eaa90610a06906080016109eb565b9050610ec687828860405180602001604052805f815250611a7b565b979650505050505050565b5f61096582611a9c565b5f5f610ee986868686611595565b90505f610ef582610ed1565b6007811115610f0657610f0661384f565b14610f535760405162461bcd60e51b815260206004820152601c60248201527f476f7665726e6f723a20746f6f206c61746520746f2063616e63656c0000000060448201526064016102b7565b5f81815260036020526040902054600160401b90046001600160a01b0316336001600160a01b031614610fd35760405162461bcd60e51b815260206004820152602260248201527f476f7665726e6f723a206f6e6c792070726f706f7365722063616e2063616e63604482015261195b60f21b60648201526084016102b7565b610fdf86868686611be0565b9695505050505050565b60607f00000000000000000000000000000000000000000000000000000000000000006001600160a01b0316634bf5d7e96040518163ffffffff1660e01b81526004015f60405180830381865afa92505050801561106857506040513d5f823e601f3d908101601f191682016040526110659190810190613f08565b60015b6110a4575060408051808201909152601d81527f6d6f64653d626c6f636b6e756d6265722666726f6d3d64656661756c74000000602082015290565b919050565b5f803390506110c884828560405180602001604052805f815250611a7b565b949350505050565b5f80339050610ec687828888888080601f0160208091040260200160405190810160405280939291908181526020018383808284375f920191909152508a9250611663915050565b6009545f9080820361112e575050600854919050565b5f600961113c600184613f7c565b8154811061114c5761114c613f8f565b5f9182526020918290206040805180820190915291015463ffffffff8116808352600160201b9091046001600160e01b031692820192909252915084106111a157602001516001600160e01b03169392505050565b6111b56111ad85611bed565b600990611c55565b6001600160e01b0316949350505050565b5f80339050610fdf86828787878080601f0160208091040260200160405190810160405280939291908181526020018383808284375f92019190915250611a7b92505050565b5f61121985858585611d02565b95945050505050565b5f606080828080836112547f0000000000000000000000000000000000000000000000000000000000000000836120be565b61127f7f000000000000000000000000000000000000000000000000000000000000000060016120be565b604080515f80825260208201909252600f60f81b9b939a50919850469750309650945092509050565b5f7f00000000000000000000000000000000000000000000000000000000000000006001600160a01b03166391ddadf46040518163ffffffff1660e01b8152600401602060405180830381865afa925050508015611323575060408051601f3d908101601f1916820190925261132091810190613fa3565b60015b6110a45761095643612167565b5f61133c8484846121cd565b90505b9392505050565b6009545f90156113685761135a6009612260565b6001600160e01b0316905090565b5060085490565b611377610943565b6001600160a01b0316336001600160a01b0316146113a75760405162461bcd60e51b81526004016102b790613ce3565b306113b0610943565b6001600160a01b0316146113ec575f80366040516113cf929190613cd4565b604051809103902090505b806113e560046117b5565b036113da57505b610ae78161228f565b6006545f8281526007602052604080822054905163d45c443560e01b81526004810191909152909182916001600160a01b039091169063d45c443590602401602060405180830381865afa15801561144f573d5f5f3e3d5ffd5b505050506040513d601f19601f820116820180604052508101906114739190613d93565b905080600114611483578061133f565b5f9392505050565b611493610943565b6001600160a01b0316336001600160a01b0316146114c35760405162461bcd60e51b81526004016102b790613ce3565b306114cc610943565b6001600160a01b031614611508575f80366040516114eb929190613cd4565b604051809103902090505b8061150160046117b5565b036114f657505b5f5f856001600160a01b0316858585604051611525929190613cd4565b5f6040518083038185875af1925050503d805f811461155f576040519150601f19603f3d011682016040523d82523d5f602084013e611564565b606091505b509150915061158c8282604051806060016040528060288152602001614204602891396122f8565b50505050505050565b5f848484846040516020016115ad9493929190613fc8565b60408051601f19818403018152919052805160209091012095945050505050565b5f61133f83836115e860408051602081019091525f815290565b6121cd565b5f61096582612311565b5f6001600160e01b03198216636e665ced60e01b14806109655750610965826123b8565b5f610965611627612453565b8360405161190160f01b8152600281019290925260228201526042902090565b5f5f5f6116568787878761257c565b91509150610e5381612639565b5f858152600360205260408120600161167b88610ed1565b600781111561168c5761168c61384f565b146116e55760405162461bcd60e51b815260206004820152602360248201527f476f7665726e6f723a20766f7465206e6f742063757272656e746c792061637460448201526269766560e81b60648201526084016102b7565b80545f906116fe9088906001600160401b0316866121cd565b905061170d8888888488612782565b83515f0361176157866001600160a01b03167fb8e138887d0aa13bab447e82de9d5c1777041ecd21ca36ba824ff1e6c07ddda4898884896040516117549493929190614012565b60405180910390a2610ec6565b866001600160a01b03167fe2babfbac5889a709b63bb7f598b324e08bc5a4fb9ec647fb3cbc9ec07eb871289888489896040516117a2959493929190614039565b60405180910390a2979650505050505050565b5f6117cf8254600f81810b600160801b909204900b131590565b156117ed57604051631ed9509560e11b815260040160405180910390fd5b508054600f0b5f818152600180840160205260408220805492905583546fffffffffffffffffffffffffffffffff191692016001600160801b03169190911790915590565b60648111156118b55760405162461bcd60e51b815260206004820152604360248201527f476f7665726e6f72566f74657351756f72756d4672616374696f6e3a2071756f60448201527f72756d4e756d657261746f72206f7665722071756f72756d44656e6f6d696e616064820152623a37b960e91b608482015260a4016102b7565b5f6118be611346565b905080158015906118cf5750600954155b1561193157604080518082019091525f8152600990602081016118f1846128f5565b6001600160e01b0390811690915282546001810184555f93845260209384902083519490930151909116600160201b0263ffffffff909316929092179101555b61195e61194c61193f6112a8565b65ffffffffffff16611bed565b611955846128f5565b6009919061295d565b505060408051828152602081018490527f0553476bf02ef2726e8ce5ced78d63e26e602e4a2257b1f559418e24b4633997910160405180910390a15050565b306119a6610943565b6001600160a01b031614611a2f575f5b8451811015611a2d57306001600160a01b03168582815181106119db576119db613f8f565b60200260200101516001600160a01b031603611a2557611a25838281518110611a0657611a06613f8f565b602002602001015180519060200120600461297790919063ffffffff16565b6001016119b6565b505b5050505050565b611a2f85858585856129b2565b30611a4c610943565b6001600160a01b031614611a2f57600454600f81810b600160801b909204900b1315611a2f575f600455611a2f565b5f61121985858585611a9760408051602081019091525f815290565b611663565b5f5f611aa783612a21565b90506004816007811115611abd57611abd61384f565b14611ac85792915050565b5f8381526007602052604090205480611ae2575092915050565b600654604051632ab0f52960e01b8152600481018390526001600160a01b0390911690632ab0f52990602401602060405180830381865afa158015611b29573d5f5f3e3d5ffd5b505050506040513d601f19601f82011682018060405250810190611b4d919061407e565b15611b5c575060079392505050565b600654604051632c258a9f60e11b8152600481018390526001600160a01b039091169063584b153e90602401602060405180830381865afa158015611ba3573d5f5f3e3d5ffd5b505050506040513d601f19601f82011682018060405250810190611bc7919061407e565b15611bd6575060059392505050565b5060029392505050565b5f61121985858585612b5b565b5f63ffffffff821115611c515760405162461bcd60e51b815260206004820152602660248201527f53616665436173743a2076616c756520646f65736e27742066697420696e203360448201526532206269747360d01b60648201526084016102b7565b5090565b81545f9081816005811115611caf575f611c6e84612c04565b611c789085613f7c565b5f8881526020902090915081015463ffffffff9081169087161015611c9f57809150611cad565b611caa816001613ef5565b92505b505b5f611cbc87878585612ce8565b90508015611cf657611ce087611cd3600184613f7c565b5f91825260209091200190565b54600160201b90046001600160e01b0316610ec6565b5f979650505050505050565b5f33611d0e8184612d43565b611d5a5760405162461bcd60e51b815260206004820152601d60248201527f476f7665726e6f723a2070726f706f736572207265737472696374656400000060448201526064016102b7565b5f611d636112a8565b65ffffffffffff1690505f611d7d836108c1600185613f7c565b1015611de55760405162461bcd60e51b815260206004820152603160248201527f476f7665726e6f723a2070726f706f73657220766f7465732062656c6f7720706044820152701c9bdc1bdcd85b081d1a1c995cda1bdb19607a1b60648201526084016102b7565b5f611df98888888880519060200120611595565b90508651885114611e1c5760405162461bcd60e51b81526004016102b79061409d565b8551885114611e3d5760405162461bcd60e51b81526004016102b79061409d565b5f885111611e8d5760405162461bcd60e51b815260206004820152601860248201527f476f7665726e6f723a20656d7074792070726f706f73616c000000000000000060448201526064016102b7565b5f818152600360205260409020546001600160401b031615611efb5760405162461bcd60e51b815260206004820152602160248201527f476f7665726e6f723a2070726f706f73616c20616c72656164792065786973746044820152607360f81b60648201526084016102b7565b5f611f07600184613ef5565b90505f611f1661b2fa83613ef5565b90506040518060e00160405280611f2c84612e2b565b6001600160401b031681526001600160a01b03871660208201525f6040820152606001611f5883612e2b565b6001600160401b0390811682525f60208084018290526040808501839052606094850183905288835260038252918290208551815492870151878501519186166001600160e01b031990941693909317600160401b6001600160a01b039094168402176001600160e01b0316600160e01b60e09290921c91909102178155938501516080860151908416921c0217600183015560a08301516002909201805460c09094015161ffff1990941692151561ff00191692909217610100931515939093029290921790558a517f7d84a6263ae0d98d3329bd7b46bb4e8d6f98cd35a7adb45c274c8b7fd5ebd5e091859188918e918e9181111561205b5761205b6133db565b60405190808252806020026020018201604052801561208e57816020015b60608152602001906001900390816120795790505b508d88888f6040516120a8999897969594939291906140de565b60405180910390a1509098975050505050505050565b606060ff83146120d8576120d183612e92565b9050610965565b8180546120e490613d1a565b80601f016020809104026020016040519081016040528092919081815260200182805461211090613d1a565b801561215b5780601f106121325761010080835404028352916020019161215b565b820191905f5260205f20905b81548152906001019060200180831161213e57829003601f168201915b50505050509050610965565b5f65ffffffffffff821115611c515760405162461bcd60e51b815260206004820152602660248201527f53616665436173743a2076616c756520646f65736e27742066697420696e203460448201526538206269747360d01b60648201526084016102b7565b604051630748d63560e31b81526001600160a01b038481166004830152602482018490525f917f000000000000000000000000000000000000000000000000000000000000000090911690633a46b1a890604401602060405180830381865afa15801561223c573d5f5f3e3d5ffd5b505050506040513d601f19601f8201168201806040525081019061133c9190613d93565b80545f9080156114835761227983611cd3600184613f7c565b54600160201b90046001600160e01b031661133f565b600654604080516001600160a01b03928316815291831660208301527f08f74ea46ef7894f65eabfb5e6e695de773a000b47c529ab559178069b226401910160405180910390a1600680546001600160a01b0319166001600160a01b0392909216919091179055565b6060831561230757508161133f565b61133f8383612ecf565b5f606461231d83611118565b604051632394e7a360e21b8152600481018590527f00000000000000000000000000000000000000000000000000000000000000006001600160a01b031690638e539e8c90602401602060405180830381865afa158015612380573d5f5f3e3d5ffd5b505050506040513d601f19601f820116820180604052508101906123a49190613d93565b6123ae91906141b9565b61096591906141e4565b5f63288ace0360e11b6318df743f60e31b63bf26d89760e01b6379dd796f60e01b6001600160e01b031986168214806123fd57506001600160e01b0319868116908216145b8061241457506001600160e01b0319868116908516145b8061242f57506001600160e01b03198616630271189760e51b145b80610fdf57506301ffc9a760e01b6001600160e01b03198716149695505050505050565b5f306001600160a01b037f0000000000000000000000000000000000000000000000000000000000000000161480156124ab57507f000000000000000000000000000000000000000000000000000000000000000046145b156124d557507f000000000000000000000000000000000000000000000000000000000000000090565b610956604080517f8b73c3c69bb8fe3d512ecc4cf759cc79239f7b179b0ffacaa9a75d522b39400f60208201527f0000000000000000000000000000000000000000000000000000000000000000918101919091527f000000000000000000000000000000000000000000000000000000000000000060608201524660808201523060a08201525f9060c00160405160208183030381529060405280519060200120905090565b5f807f7fffffffffffffffffffffffffffffff5d576e7357a4501ddfe92f46681b20a08311156125b157505f90506003612630565b604080515f8082526020820180845289905260ff881692820192909252606081018690526080810185905260019060a0016020604051602081039080840390855afa158015612602573d5f5f3e3d5ffd5b5050604051601f1901519150506001600160a01b03811661262a575f60019250925050612630565b91505f90505b94509492505050565b5f81600481111561264c5761264c61384f565b036126545750565b60018160048111156126685761266861384f565b036126b55760405162461bcd60e51b815260206004820152601860248201527f45434453413a20696e76616c6964207369676e6174757265000000000000000060448201526064016102b7565b60028160048111156126c9576126c961384f565b036127165760405162461bcd60e51b815260206004820152601f60248201527f45434453413a20696e76616c6964207369676e6174757265206c656e6774680060448201526064016102b7565b600381600481111561272a5761272a61384f565b03610ae75760405162461bcd60e51b815260206004820152602260248201527f45434453413a20696e76616c6964207369676e6174757265202773272076616c604482015261756560f01b60648201526084016102b7565b5f858152600a602090815260408083206001600160a01b0388168452600381019092529091205460ff16156128095760405162461bcd60e51b815260206004820152602760248201527f476f7665726e6f72566f74696e6753696d706c653a20766f746520616c726561604482015266191e4818d85cdd60ca1b60648201526084016102b7565b6001600160a01b0385165f9081526003820160205260409020805460ff1916600117905560ff84166128525782815f015f8282546128479190613ef5565b90915550611a2d9050565b5f1960ff8516016128705782816001015f8282546128479190613ef5565b60011960ff85160161288f5782816002015f8282546128479190613ef5565b60405162461bcd60e51b815260206004820152603560248201527f476f7665726e6f72566f74696e6753696d706c653a20696e76616c69642076616044820152746c756520666f7220656e756d20566f74655479706560581b60648201526084016102b7565b5f6001600160e01b03821115611c515760405162461bcd60e51b815260206004820152602760248201527f53616665436173743a2076616c756520646f65736e27742066697420696e20326044820152663234206269747360c81b60648201526084016102b7565b5f8061296a858585612ef9565b915091505b935093915050565b8154600160801b90819004600f0b5f818152600180860160205260409091209390935583546001600160801b03908116939091011602179055565b60065460405163e38335e560e01b81526001600160a01b039091169063e38335e59034906129ec908890889088905f908990600401613e3d565b5f604051808303818588803b158015612a03575f5ffd5b505af1158015612a15573d5f5f3e3d5ffd5b50505050505050505050565b5f818152600360205260408120600281015460ff1615612a445750600792915050565b6002810154610100900460ff1615612a5f5750600292915050565b5f838152600360205260408120546001600160401b031690819003612ac65760405162461bcd60e51b815260206004820152601d60248201527f476f7665726e6f723a20756e6b6e6f776e2070726f706f73616c20696400000060448201526064016102b7565b5f612acf6112a8565b65ffffffffffff169050808210612aea57505f949350505050565b5f858152600360205260409020600101546001600160401b0316818110612b175750600195945050505050565b612b2086613094565b8015612b3e57505f868152600a602052604090208054600190910154115b15612b4f5750600495945050505050565b50600395945050505050565b5f5f612b69868686866130de565b5f8181526007602052604090205490915015611219576006545f828152600760205260409081902054905163c4d252f560e01b81526001600160a01b039092169163c4d252f591612bc09160040190815260200190565b5f604051808303815f87803b158015612bd7575f5ffd5b505af1158015612be9573d5f5f3e3d5ffd5b5050505f828152600760205260408120555095945050505050565b5f815f03612c1357505f919050565b5f6001612c1f846131e7565b901c6001901b90506001818481612c3857612c386141d0565b048201901c90506001818481612c5057612c506141d0565b048201901c90506001818481612c6857612c686141d0565b048201901c90506001818481612c8057612c806141d0565b048201901c90506001818481612c9857612c986141d0565b048201901c90506001818481612cb057612cb06141d0565b048201901c90506001818481612cc857612cc86141d0565b048201901c905061133f81828581612ce257612ce26141d0565b0461327a565b5f5b81831015612d3b575f612cfd848461328f565b5f8781526020902090915063ffffffff86169082015463ffffffff161115612d2757809250612d35565b612d32816001613ef5565b93505b50612cea565b509392505050565b80515f906034811015612d5a576001915050610965565b82810160131901516001600160a01b031981166b046e0e4dee0dee6cae47a60f60a31b14612d8d57600192505050610965565b5f80612d9a602885613f7c565b90505b83811015612e0a575f5f612dd0888481518110612dbc57612dbc613f8f565b01602001516001600160f81b0319166132a9565b9150915081612de85760019650505050505050610965565b8060ff166004856001600160a01b0316901b1793505050806001019050612d9d565b50856001600160a01b0316816001600160a01b031614935050505092915050565b5f6001600160401b03821115611c515760405162461bcd60e51b815260206004820152602660248201527f53616665436173743a2076616c756520646f65736e27742066697420696e203660448201526534206269747360d01b60648201526084016102b7565b60605f612e9e83613339565b6040805160208082528183019092529192505f91906020820181803683375050509182525060208101929092525090565b815115612edf5781518083602001fd5b8060405162461bcd60e51b81526004016102b79190613586565b82545f908190801561303c575f612f1587611cd3600185613f7c565b60408051808201909152905463ffffffff808216808452600160201b9092046001600160e01b031660208401529192509087161015612f965760405162461bcd60e51b815260206004820152601b60248201527f436865636b706f696e743a2064656372656173696e67206b657973000000000060448201526064016102b7565b805163ffffffff808816911603612fde5784612fb788611cd3600186613f7c565b80546001600160e01b0392909216600160201b0263ffffffff90921691909117905561302c565b6040805180820190915263ffffffff80881682526001600160e01b0380881660208085019182528b54600181018d555f8d81529190912094519151909216600160201b029216919091179101555b60200151925083915061296f9050565b50506040805180820190915263ffffffff80851682526001600160e01b0380851660208085019182528854600181018a555f8a815291822095519251909316600160201b02919093161792019190915590508161296f565b5f818152600a60205260408120600281015460018201546130b59190613ef5565b5f848152600360205260409020546130d5906001600160401b03166115ed565b11159392505050565b5f5f6130ec86868686611595565b90505f6130f882610ed1565b9050600281600781111561310e5761310e61384f565b1415801561312e5750600681600781111561312b5761312b61384f565b14155b801561314c575060078160078111156131495761314961384f565b14155b6131985760405162461bcd60e51b815260206004820152601d60248201527f476f7665726e6f723a2070726f706f73616c206e6f742061637469766500000060448201526064016102b7565b5f8281526003602052604090819020600201805461ff001916610100179055517f789cf55be980739dad1d0699b93b58e806b51c9d96619bfa8fe0a28abaa7b30c90610d5c9084815260200190565b5f80608083901c156131fb57608092831c92015b604083901c1561320d57604092831c92015b602083901c1561321f57602092831c92015b601083901c1561323157601092831c92015b600883901c1561324357600892831c92015b600483901c1561325557600492831c92015b600283901c1561326757600292831c92015b600183901c156109655760010192915050565b5f818310613288578161133f565b5090919050565b5f61329d60028484186141e4565b61133f90848416613ef5565b5f8060f883901c602f811180156132c35750603a8160ff16105b156132d857600194602f199091019350915050565b8060ff1660401080156132ee575060478160ff16105b15613303576001946036199091019350915050565b8060ff166060108015613319575060678160ff16105b1561332e576001946056199091019350915050565b505f93849350915050565b5f60ff8216601f81111561096557604051632cd44ac360e21b815260040160405180910390fd5b5f60208284031215613370575f5ffd5b81356001600160e01b03198116811461133f575f5ffd5b803560ff811681146110a4575f5ffd5b5f5f83601f8401126133a7575f5ffd5b5081356001600160401b038111156133bd575f5ffd5b6020830191508360208285010111156133d4575f5ffd5b9250929050565b634e487b7160e01b5f52604160045260245ffd5b604051601f8201601f191681016001600160401b0381118282101715613417576134176133db565b604052919050565b5f6001600160401b03821115613437576134376133db565b50601f01601f191660200190565b5f6134576134528461341f565b6133ef565b905082815283838301111561346a575f5ffd5b828260208301375f602084830101529392505050565b5f82601f83011261348f575f5ffd5b61133f83833560208501613445565b5f5f5f5f5f5f5f5f60e0898b0312156134b5575f5ffd5b883597506134c560208a01613387565b965060408901356001600160401b038111156134df575f5ffd5b6134eb8b828c01613397565b90975095505060608901356001600160401b03811115613509575f5ffd5b6135158b828c01613480565b94505061352460808a01613387565b979a969950949793969295929450505060a08201359160c0013590565b5f60208284031215613551575f5ffd5b5035919050565b5f81518084528060208401602086015e5f602082860101526020601f19601f83011685010191505092915050565b602081525f61133f6020830184613558565b6001600160a01b0381168114610ae7575f5ffd5b5f5f5f5f608085870312156135bf575f5ffd5b84356135ca81613598565b935060208501356135da81613598565b92506040850135915060608501356001600160401b038111156135fb575f5ffd5b61360787828801613480565b91505092959194509250565b5f6001600160401b0382111561362b5761362b6133db565b5060051b60200190565b5f82601f830112613644575f5ffd5b813561365261345282613613565b8082825260208201915060208360051b860101925085831115613673575f5ffd5b602085015b83811015610e5357803561368b81613598565b835260209283019201613678565b5f82601f8301126136a8575f5ffd5b81356136b661345282613613565b8082825260208201915060208360051b8601019250858311156136d7575f5ffd5b602085015b83811015610e535780358352602092830192016136dc565b5f82601f830112613703575f5ffd5b813561371161345282613613565b8082825260208201915060208360051b860101925085831115613732575f5ffd5b602085015b83811015610e535780356001600160401b03811115613754575f5ffd5b613763886020838a0101613480565b84525060209283019201613737565b5f5f5f5f60808587031215613785575f5ffd5b84356001600160401b0381111561379a575f5ffd5b6137a687828801613635565b94505060208501356001600160401b038111156137c1575f5ffd5b6137cd87828801613699565b93505060408501356001600160401b038111156137e8575f5ffd5b6137f4878288016136f4565b949793965093946060013593505050565b5f5f5f5f5f60a08688031215613819575f5ffd5b8535945061382960208701613387565b935061383760408701613387565b94979396509394606081013594506080013592915050565b634e487b7160e01b5f52602160045260245ffd5b602081016008831061388357634e487b7160e01b5f52602160045260245ffd5b91905290565b5f5f6040838503121561389a575f5ffd5b8235915060208301356138ac81613598565b809150509250929050565b5f5f604083850312156138c8575f5ffd5b823591506138d860208401613387565b90509250929050565b5f5f5f5f5f608086880312156138f5575f5ffd5b8535945061390560208701613387565b935060408601356001600160401b0381111561391f575f5ffd5b61392b88828901613397565b90945092505060608601356001600160401b03811115613949575f5ffd5b61395588828901613480565b9150509295509295909350565b5f5f5f5f60608587031215613975575f5ffd5b8435935061398560208601613387565b925060408501356001600160401b0381111561399f575f5ffd5b6139ab87828801613397565b95989497509550505050565b5f5f5f5f608085870312156139ca575f5ffd5b84356001600160401b038111156139df575f5ffd5b6139eb87828801613635565b94505060208501356001600160401b03811115613a06575f5ffd5b613a1287828801613699565b93505060408501356001600160401b03811115613a2d575f5ffd5b613a39878288016136f4565b92505060608501356001600160401b03811115613a54575f5ffd5b8501601f81018713613a64575f5ffd5b61360787823560208401613445565b5f8151808452602084019350602083015f5b82811015613aa3578151865260209586019590910190600101613a85565b5093949350505050565b60ff60f81b8816815260e060208201525f613acb60e0830189613558565b8281036040840152613add8189613558565b606084018890526001600160a01b038716608085015260a0840186905283810360c08501529050610a538185613a73565b5f5f5f60608486031215613b20575f5ffd5b8335613b2b81613598565b92506020840135915060408401356001600160401b03811115613b4c575f5ffd5b613b5886828701613480565b9150509250925092565b5f60208284031215613b72575f5ffd5b813561133f81613598565b5f5f5f5f5f60a08688031215613b91575f5ffd5b8535613b9c81613598565b94506020860135613bac81613598565b935060408601356001600160401b03811115613bc6575f5ffd5b613bd288828901613699565b93505060608601356001600160401b03811115613bed575f5ffd5b613bf988828901613699565b92505060808601356001600160401b03811115613949575f5ffd5b5f5f5f5f60608587031215613c27575f5ffd5b8435613c3281613598565b93506020850135925060408501356001600160401b0381111561399f575f5ffd5b5f5f60408385031215613c64575f5ffd5b8235613c6f81613598565b946020939093013593505050565b5f5f5f5f5f60a08688031215613c91575f5ffd5b8535613c9c81613598565b94506020860135613cac81613598565b9350604086013592506060860135915060808601356001600160401b03811115613949575f5ffd5b818382375f9101908152919050565b60208082526018908201527f476f7665726e6f723a206f6e6c79476f7665726e616e63650000000000000000604082015260600190565b600181811c90821680613d2e57607f821691505b602082108103613d4c57634e487b7160e01b5f52602260045260245ffd5b50919050565b60208082526021908201527f476f7665726e6f723a2070726f706f73616c206e6f74207375636365737366756040820152601b60fa1b606082015260800190565b5f60208284031215613da3575f5ffd5b5051919050565b5f8151808452602084019350602083015f5b82811015613aa35781516001600160a01b0316865260209586019590910190600101613dbc565b5f82825180855260208501945060208160051b830101602085015f5b83811015613e3157601f19858403018852613e1b838351613558565b6020988901989093509190910190600101613dff565b50909695505050505050565b60a081525f613e4f60a0830188613daa565b8281036020840152613e618188613a73565b90508281036040840152613e758187613de3565b60608401959095525050608001529392505050565b60c081525f613e9c60c0830189613daa565b8281036020840152613eae8189613a73565b90508281036040840152613ec28188613de3565b60608401969096525050608081019290925260a0909101529392505050565b634e487b7160e01b5f52601160045260245ffd5b8082018082111561096557610965613ee1565b5f60208284031215613f18575f5ffd5b81516001600160401b03811115613f2d575f5ffd5b8201601f81018413613f3d575f5ffd5b8051613f4b6134528261341f565b818152856020838501011115613f5f575f5ffd5b8160208401602083015e5f91810160200191909152949350505050565b8181038181111561096557610965613ee1565b634e487b7160e01b5f52603260045260245ffd5b5f60208284031215613fb3575f5ffd5b815165ffffffffffff8116811461133f575f5ffd5b608081525f613fda6080830187613daa565b8281036020840152613fec8187613a73565b905082810360408401526140008186613de3565b91505082606083015295945050505050565b84815260ff84166020820152826040820152608060608201525f610fdf6080830184613558565b85815260ff8516602082015283604082015260a060608201525f61406060a0830185613558565b82810360808401526140728185613558565b98975050505050505050565b5f6020828403121561408e575f5ffd5b8151801515811461133f575f5ffd5b60208082526021908201527f476f7665726e6f723a20696e76616c69642070726f706f73616c206c656e67746040820152600d60fb1b606082015260800190565b8981526001600160a01b0389166020820152610120604082018190525f906141089083018a613daa565b828103606084015261411a818a613a73565b9050828103608084015280885180835260208301915060208160051b84010160208b015f5b8381101561417157601f1986840301855261415b838351613558565b602095860195909350919091019060010161413f565b505085810360a0870152614185818b613de3565b93505050508560c08401528460e08401528281036101008401526141a98185613558565b9c9b505050505050505050505050565b808202811582820484141761096557610965613ee1565b634e487b7160e01b5f52601260045260245ffd5b5f826141fe57634e487b7160e01b5f52601260045260245ffd5b50049056fe476f7665726e6f723a2072656c617920726576657274656420776974686f7574206d657373616765a2646970667358221220187e801bba2adb1d85d29396033642b5ed1a8f1e190d832fc19dd7982972450964736f6c634300081c0033","linkReferences":{}},"methodIdentifiers":{"BALLOT_TYPEHASH()":"deaaa7cc","CLOCK_MODE()":"4bf5d7e9","COUNTING_MODE()":"dd4e2ba5","EXTENDED_BALLOT_TYPEHASH()":"2fe3e261","cancel(address[],uint256[],bytes[],bytes32)":"452115d6","castVote(uint256,uint8)":"56781388","castVoteBySig(uint256,uint8,uint8,bytes32,bytes32)":"3bccf4fd","castVoteWithReason(uint256,uint8,string)":"7b3c71d3","castVoteWithReasonAndParams(uint256,uint8,string,bytes)":"5f398a14","castVoteWithReasonAndParamsBySig(uint256,uint8,string,bytes,uint8,bytes32,bytes32)":"03420181","clock()":"91ddadf4","eip712Domain()":"84b0196e","execute(address[],uint256[],bytes[],bytes32)":"2656227d","getVotes(address,uint256)":"eb9019d4","getVotesWithParams(address,uint256,bytes)":"9a802a6d","hasVoted(uint256,address)":"43859632","hashProposal(address[],uint256[],bytes[],bytes32)":"c59057e4","name()":"06fdde03","onERC1155BatchReceived(address,address,uint256[],uint256[],bytes)":"bc197c81","onERC1155Received(address,address,uint256,uint256,bytes)":"f23a6e61","onERC721Received(address,address,uint256,bytes)":"150b7a02","proposalDeadline(uint256)":"c01f9e37","proposalEta(uint256)":"ab58fb8e","proposalProposer(uint256)":"143489d0","proposalSnapshot(uint256)":"2d63f693","proposalThreshold()":"b58131b0","proposalVotes(uint256)":"544ffc9c","propose(address[],uint256[],bytes[],string)":"7d5e81e2","queue(address[],uint256[],bytes[],bytes32)":"160cbed7","quorum(uint256)":"f8ce560a","quorumDenominator()":"97c3d334","quorumNumerator()":"a7713a70","quorumNumerator(uint256)":"60c4247f","relay(address,uint256,bytes)":"c28bc2fa","state(uint256)":"3e4f49e6","supportsInterface(bytes4)":"01ffc9a7","timelock()":"d33219b4","token()":"fc0c546a","updateQuorumNumerator(uint256)":"06f3f9e6","updateTimelock(address)":"a890c910","version()":"54fd4d50","votingDelay()":"3932abb1","votingPeriod()":"02a251a3"},"id":173}