{"abi":[{"type":"function","name":"DEFAULT_ADMIN_ROLE","inputs":[],"outputs":[{"name":"","type":"bytes32","internalType":"bytes32"}],"stateMutability":"view"},{"type":"function","name":"MINTER_ROLE","inputs":[],"outputs":[{"name":"","type":"bytes32","internalType":"bytes32"}],"stateMutability":"view"},{"type":"function","name":"PAUSER_ROLE","inputs":[],"outputs":[{"name":"","type":"bytes32","internalType":"bytes32"}],"stateMutability":"view"},{"type":"function","name":"approve","inputs":[{"name":"to","type":"address","internalType":"address"},{"name":"tokenId","type":"uint256","internalType":"uint256"}],"outputs":[],"stateMutability":"nonpayable"},{"type":"function","name":"balanceOf","inputs":[{"name":"owner","type":"address","internalType":"address"}],"outputs":[{"name":"","type":"uint256","internalType":"uint256"}],"stateMutability":"view"},{"type":"function","name":"burn","inputs":[{"name":"tokenId","type":"uint256","internalType":"uint256"}],"outputs":[],"stateMutability":"nonpayable"},{"type":"function","name":"getApproved","inputs":[{"name":"tokenId","type":"uint256","internalType":"uint256"}],"outputs":[{"name":"","type":"address","internalType":"address"}],"stateMutability":"view"},{"type":"function","name":"getRoleAdmin","inputs":[{"name":"role","type":"bytes32","internalType":"bytes32"}],"outputs":[{"name":"","type":"bytes32","internalType":"bytes32"}],"stateMutability":"view"},{"type":"function","name":"getRoleMember","inputs":[{"name":"role","type":"bytes32","internalType":"bytes32"},{"name":"index","type":"uint256","internalType":"uint256"}],"outputs":[{"name":"","type":"address","internalType":"address"}],"stateMutability":"view"},{"type":"function","name":"getRoleMemberCount","inputs":[{"name":"role","type":"bytes32","internalType":"bytes32"}],"outputs":[{"name":"","type":"uint256","internalType":"uint256"}],"stateMutability":"view"},{"type":"function","name":"grantRole","inputs":[{"name":"role","type":"bytes32","internalType":"bytes32"},{"name":"account","type":"address","internalType":"address"}],"outputs":[],"stateMutability":"nonpayable"},{"type":"function","name":"hasRole","inputs":[{"name":"role","type":"bytes32","internalType":"bytes32"},{"name":"account","type":"address","internalType":"address"}],"outputs":[{"name":"","type":"bool","internalType":"bool"}],"stateMutability":"view"},{"type":"function","name":"initialize","inputs":[{"name":"name","type":"string","internalType":"string"},{"name":"symbol","type":"string","internalType":"string"},{"name":"baseTokenURI","type":"string","internalType":"string"}],"outputs":[],"stateMutability":"nonpayable"},{"type":"function","name":"isApprovedForAll","inputs":[{"name":"owner","type":"address","internalType":"address"},{"name":"operator","type":"address","internalType":"address"}],"outputs":[{"name":"","type":"bool","internalType":"bool"}],"stateMutability":"view"},{"type":"function","name":"mint","inputs":[{"name":"to","type":"address","internalType":"address"}],"outputs":[],"stateMutability":"nonpayable"},{"type":"function","name":"name","inputs":[],"outputs":[{"name":"","type":"string","internalType":"string"}],"stateMutability":"view"},{"type":"function","name":"ownerOf","inputs":[{"name":"tokenId","type":"uint256","internalType":"uint256"}],"outputs":[{"name":"","type":"address","internalType":"address"}],"stateMutability":"view"},{"type":"function","name":"pause","inputs":[],"outputs":[],"stateMutability":"nonpayable"},{"type":"function","name":"paused","inputs":[],"outputs":[{"name":"","type":"bool","internalType":"bool"}],"stateMutability":"view"},{"type":"function","name":"renounceRole","inputs":[{"name":"role","type":"bytes32","internalType":"bytes32"},{"name":"account","type":"address","internalType":"address"}],"outputs":[],"stateMutability":"nonpayable"},{"type":"function","name":"revokeRole","inputs":[{"name":"role","type":"bytes32","internalType":"bytes32"},{"name":"account","type":"address","internalType":"address"}],"outputs":[],"stateMutability":"nonpayable"},{"type":"function","name":"safeTransferFrom","inputs":[{"name":"from","type":"address","internalType":"address"},{"name":"to","type":"address","internalType":"address"},{"name":"tokenId","type":"uint256","internalType":"uint256"}],"outputs":[],"stateMutability":"nonpayable"},{"type":"function","name":"safeTransferFrom","inputs":[{"name":"from","type":"address","internalType":"address"},{"name":"to","type":"address","internalType":"address"},{"name":"tokenId","type":"uint256","internalType":"uint256"},{"name":"data","type":"bytes","internalType":"bytes"}],"outputs":[],"stateMutability":"nonpayable"},{"type":"function","name":"setApprovalForAll","inputs":[{"name":"operator","type":"address","internalType":"address"},{"name":"approved","type":"bool","internalType":"bool"}],"outputs":[],"stateMutability":"nonpayable"},{"type":"function","name":"supportsInterface","inputs":[{"name":"interfaceId","type":"bytes4","internalType":"bytes4"}],"outputs":[{"name":"","type":"bool","internalType":"bool"}],"stateMutability":"view"},{"type":"function","name":"symbol","inputs":[],"outputs":[{"name":"","type":"string","internalType":"string"}],"stateMutability":"view"},{"type":"function","name":"tokenByIndex","inputs":[{"name":"index","type":"uint256","internalType":"uint256"}],"outputs":[{"name":"","type":"uint256","internalType":"uint256"}],"stateMutability":"view"},{"type":"function","name":"tokenOfOwnerByIndex","inputs":[{"name":"owner","type":"address","internalType":"address"},{"name":"index","type":"uint256","internalType":"uint256"}],"outputs":[{"name":"","type":"uint256","internalType":"uint256"}],"stateMutability":"view"},{"type":"function","name":"tokenURI","inputs":[{"name":"tokenId","type":"uint256","internalType":"uint256"}],"outputs":[{"name":"","type":"string","internalType":"string"}],"stateMutability":"view"},{"type":"function","name":"totalSupply","inputs":[],"outputs":[{"name":"","type":"uint256","internalType":"uint256"}],"stateMutability":"view"},{"type":"function","name":"transferFrom","inputs":[{"name":"from","type":"address","internalType":"address"},{"name":"to","type":"address","internalType":"address"},{"name":"tokenId","type":"uint256","internalType":"uint256"}],"outputs":[],"stateMutability":"nonpayable"},{"type":"function","name":"unpause","inputs":[],"outputs":[],"stateMutability":"nonpayable"},{"type":"event","name":"Approval","inputs":[{"name":"owner","type":"address","indexed":true,"internalType":"address"},{"name":"approved","type":"address","indexed":true,"internalType":"address"},{"name":"tokenId","type":"uint256","indexed":true,"internalType":"uint256"}],"anonymous":false},{"type":"event","name":"ApprovalForAll","inputs":[{"name":"owner","type":"address","indexed":true,"internalType":"address"},{"name":"operator","type":"address","indexed":true,"internalType":"address"},{"name":"approved","type":"bool","indexed":false,"internalType":"bool"}],"anonymous":false},{"type":"event","name":"Initialized","inputs":[{"name":"version","type":"uint8","indexed":false,"internalType":"uint8"}],"anonymous":false},{"type":"event","name":"Paused","inputs":[{"name":"account","type":"address","indexed":false,"internalType":"address"}],"anonymous":false},{"type":"event","name":"RoleAdminChanged","inputs":[{"name":"role","type":"bytes32","indexed":true,"internalType":"bytes32"},{"name":"previousAdminRole","type":"bytes32","indexed":true,"internalType":"bytes32"},{"name":"newAdminRole","type":"bytes32","indexed":true,"internalType":"bytes32"}],"anonymous":false},{"type":"event","name":"RoleGranted","inputs":[{"name":"role","type":"bytes32","indexed":true,"internalType":"bytes32"},{"name":"account","type":"address","indexed":true,"internalType":"address"},{"name":"sender","type":"address","indexed":true,"internalType":"address"}],"anonymous":false},{"type":"event","name":"RoleRevoked","inputs":[{"name":"role","type":"bytes32","indexed":true,"internalType":"bytes32"},{"name":"account","type":"address","indexed":true,"internalType":"address"},{"name":"sender","type":"address","indexed":true,"internalType":"address"}],"anonymous":false},{"type":"event","name":"Transfer","inputs":[{"name":"from","type":"address","indexed":true,"internalType":"address"},{"name":"to","type":"address","indexed":true,"internalType":"address"},{"name":"tokenId","type":"uint256","indexed":true,"internalType":"uint256"}],"anonymous":false},{"type":"event","name":"Unpaused","inputs":[{"name":"account","type":"address","indexed":false,"internalType":"address"}],"anonymous":false}],"bytecode":{"object":"0x6080604052348015600e575f5ffd5b506129678061001c5f395ff3fe608060405234801561000f575f5ffd5b50600436106101e7575f3560e01c80636a62784211610109578063a6487c531161009e578063d53913931161006e578063d53913931461040a578063d547741f14610431578063e63ab1e914610444578063e985e9c514610458575f5ffd5b8063a6487c53146103be578063b88d4fde146103d1578063c87b56dd146103e4578063ca15c873146103f7575f5ffd5b806391d14854116100d957806391d148541461038957806395d89b411461039c578063a217fddf146103a4578063a22cb465146103ab575f5ffd5b80636a6278421461034857806370a082311461035b5780638456cb591461036e5780639010d07c14610376575f5ffd5b80632f745c591161017f57806342966c681161014f57806342966c68146103035780634f6ccce7146103165780635c975abb146103295780636352211e14610335575f5ffd5b80632f745c59146102c257806336568abe146102d55780633f4ba83a146102e857806342842e0e146102f0575f5ffd5b806318160ddd116101ba57806318160ddd1461026857806323b872dd1461027a578063248a9ca31461028d5780632f2ff15d146102af575f5ffd5b806301ffc9a7146101eb57806306fdde0314610213578063081812fc14610228578063095ea7b314610253575b5f5ffd5b6101fe6101f93660046121dc565b610493565b60405190151581526020015b60405180910390f35b61021b6104a3565b60405161020a9190612225565b61023b610236366004612237565b610533565b6040516001600160a01b03909116815260200161020a565b610266610261366004612269565b610558565b005b60fd545b60405190815260200161020a565b610266610288366004612291565b610671565b61026c61029b366004612237565b5f9081526065602052604090206001015490565b6102666102bd3660046122cb565b6106a3565b61026c6102d0366004612269565b6106c7565b6102666102e33660046122cb565b61075b565b6102666107d9565b6102666102fe366004612291565b61086e565b610266610311366004612237565b610888565b61026c610324366004612237565b6108b9565b61015f5460ff166101fe565b61023b610343366004612237565b610949565b6102666103563660046122f5565b6109a8565b61026c6103693660046122f5565b610a66565b610266610aea565b61023b61038436600461230e565b610b7b565b6101fe6103973660046122cb565b610b99565b61021b610bc3565b61026c5f81565b6102666103b936600461232e565b610bd2565b6102666103cc366004612410565b610bdd565b6102666103df36600461249e565b610cee565b61021b6103f2366004612237565b610d20565b61026c610405366004612237565b610d83565b61026c7f9f2df0fed2c77648de5860a4cc508cd0818c85b8b8a1ab4ceeef8d981c8956a681565b61026661043f3660046122cb565b610d99565b61026c5f5160206129125f395f51905f5281565b6101fe610466366004612515565b6001600160a01b039182165f90815260ce6020908152604080832093909416825291909152205460ff1690565b5f61049d82610dbd565b92915050565b606060c980546104b29061253d565b80601f01602080910402602001604051908101604052809291908181526020018280546104de9061253d565b80156105295780601f1061050057610100808354040283529160200191610529565b820191905f5260205f20905b81548152906001019060200180831161050c57829003601f168201915b5050505050905090565b5f61053d82610de1565b505f90815260cd60205260409020546001600160a01b031690565b5f61056282610949565b9050806001600160a01b0316836001600160a01b0316036105d45760405162461bcd60e51b815260206004820152602160248201527f4552433732313a20617070726f76616c20746f2063757272656e74206f776e656044820152603960f91b60648201526084015b60405180910390fd5b336001600160a01b03821614806105f057506105f08133610466565b6106625760405162461bcd60e51b815260206004820152603d60248201527f4552433732313a20617070726f76652063616c6c6572206973206e6f7420746f60448201527f6b656e206f776e6572206f7220617070726f76656420666f7220616c6c00000060648201526084016105cb565b61066c8383610e3f565b505050565b61067c335b82610eac565b6106985760405162461bcd60e51b81526004016105cb90612575565b61066c838383610f29565b5f828152606560205260409020600101546106bd81611098565b61066c83836110a2565b5f6106d183610a66565b82106107335760405162461bcd60e51b815260206004820152602b60248201527f455243373231456e756d657261626c653a206f776e657220696e646578206f7560448201526a74206f6620626f756e647360a81b60648201526084016105cb565b506001600160a01b03919091165f90815260fb60209081526040808320938352929052205490565b6001600160a01b03811633146107cb5760405162461bcd60e51b815260206004820152602f60248201527f416363657373436f6e74726f6c3a2063616e206f6e6c792072656e6f756e636560448201526e103937b632b9903337b91039b2b63360891b60648201526084016105cb565b6107d582826110c3565b5050565b6107f05f5160206129125f395f51905f5233610b99565b610864576040805162461bcd60e51b81526020600482015260248101919091527f4552433732315072657365744d696e7465725061757365724175746f49643a2060448201527f6d75737420686176652070617573657220726f6c6520746f20756e706175736560648201526084016105cb565b61086c6110e4565b565b61066c83838360405180602001604052805f815250610cee565b61089133610676565b6108ad5760405162461bcd60e51b81526004016105cb90612575565b6108b681611137565b50565b5f6108c360fd5490565b82106109265760405162461bcd60e51b815260206004820152602c60248201527f455243373231456e756d657261626c653a20676c6f62616c20696e646578206f60448201526b7574206f6620626f756e647360a01b60648201526084016105cb565b60fd8281548110610939576109396125c2565b905f5260205f2001549050919050565b5f81815260cb60205260408120546001600160a01b03168061049d5760405162461bcd60e51b8152602060048201526018602482015277115490cdcc8c4e881a5b9d985b1a59081d1bdad95b88125160421b60448201526064016105cb565b6109d27f9f2df0fed2c77648de5860a4cc508cd0818c85b8b8a1ab4ceeef8d981c8956a633610b99565b610a445760405162461bcd60e51b815260206004820152603d60248201527f4552433732315072657365744d696e7465725061757365724175746f49643a2060448201527f6d7573742068617665206d696e74657220726f6c6520746f206d696e7400000060648201526084016105cb565b610a5781610a526101c35490565b6111d6565b6108b66101c380546001019055565b5f6001600160a01b038216610acf5760405162461bcd60e51b815260206004820152602960248201527f4552433732313a2061646472657373207a65726f206973206e6f7420612076616044820152683634b21037bbb732b960b91b60648201526084016105cb565b506001600160a01b03165f90815260cc602052604090205490565b610b015f5160206129125f395f51905f5233610b99565b610b735760405162461bcd60e51b815260206004820152603e60248201527f4552433732315072657365744d696e7465725061757365724175746f49643a2060448201527f6d75737420686176652070617573657220726f6c6520746f207061757365000060648201526084016105cb565b61086c61136b565b5f828152609760205260408120610b9290836113a9565b9392505050565b5f9182526065602090815260408084206001600160a01b0393909316845291905290205460ff1690565b606060ca80546104b29061253d565b6107d53383836113b4565b5f54610100900460ff1615808015610bfb57505f54600160ff909116105b80610c145750303b158015610c1457505f5460ff166001145b610c775760405162461bcd60e51b815260206004820152602e60248201527f496e697469616c697a61626c653a20636f6e747261637420697320616c72656160448201526d191e481a5b9a5d1a585b1a5e995960921b60648201526084016105cb565b5f805460ff191660011790558015610c98575f805461ff0019166101001790555b610ca3848484611481565b8015610ce8575f805461ff0019169055604051600181527f7f26b83ff96e1f2b6a682f133852f6798a09c465da95921460cefb38474024989060200160405180910390a15b50505050565b610cf83383610eac565b610d145760405162461bcd60e51b81526004016105cb90612575565b610ce8848484846114c4565b6060610d2b82610de1565b5f610d346114f7565b90505f815111610d525760405180602001604052805f815250610b92565b80610d5c84611507565b604051602001610d6d9291906125ed565b6040516020818303038152906040529392505050565b5f81815260976020526040812061049d90611597565b5f82815260656020526040902060010154610db381611098565b61066c83836110c3565b5f6001600160e01b0319821663780e9d6360e01b148061049d575061049d826115a0565b5f81815260cb60205260409020546001600160a01b03166108b65760405162461bcd60e51b8152602060048201526018602482015277115490cdcc8c4e881a5b9d985b1a59081d1bdad95b88125160421b60448201526064016105cb565b5f81815260cd6020526040902080546001600160a01b0319166001600160a01b0384169081179091558190610e7382610949565b6001600160a01b03167f8c5be1e5ebec7d5bd14f71427d1e84f3dd0314c0f7b2291e5b200ac8c7c3b92560405160405180910390a45050565b5f5f610eb783610949565b9050806001600160a01b0316846001600160a01b03161480610efd57506001600160a01b038082165f90815260ce602090815260408083209388168352929052205460ff165b80610f215750836001600160a01b0316610f1684610533565b6001600160a01b0316145b949350505050565b826001600160a01b0316610f3c82610949565b6001600160a01b031614610f625760405162461bcd60e51b81526004016105cb90612601565b6001600160a01b038216610fc45760405162461bcd60e51b8152602060048201526024808201527f4552433732313a207472616e7366657220746f20746865207a65726f206164646044820152637265737360e01b60648201526084016105cb565b610fd183838360016115df565b826001600160a01b0316610fe482610949565b6001600160a01b03161461100a5760405162461bcd60e51b81526004016105cb90612601565b5f81815260cd6020908152604080832080546001600160a01b03199081169091556001600160a01b0387811680865260cc855283862080545f190190559087168086528386208054600101905586865260cb90945282852080549092168417909155905184937fddf252ad1be2c89b69c2b068fc378daa952ba7f163c4a11628f55a4df523b3ef91a4505050565b6108b681336115eb565b6110ac8282611644565b5f82815260976020526040902061066c90826116c9565b6110cd82826116dd565b5f82815260976020526040902061066c9082611743565b6110ec611757565b61015f805460ff191690557f5db9ee0a495bf2e6ff9c91a7834c1ba4fdd244a5e8aa4e537bd38aeae4b073aa335b6040516001600160a01b03909116815260200160405180910390a1565b5f61114182610949565b9050611150815f8460016115df565b61115982610949565b5f83815260cd6020908152604080832080546001600160a01b03199081169091556001600160a01b03851680855260cc845282852080545f1901905587855260cb909352818420805490911690555192935084927fddf252ad1be2c89b69c2b068fc378daa952ba7f163c4a11628f55a4df523b3ef908390a45050565b6001600160a01b03821661122c5760405162461bcd60e51b815260206004820181905260248201527f4552433732313a206d696e7420746f20746865207a65726f206164647265737360448201526064016105cb565b5f81815260cb60205260409020546001600160a01b0316156112905760405162461bcd60e51b815260206004820152601c60248201527f4552433732313a20746f6b656e20616c7265616479206d696e7465640000000060448201526064016105cb565b61129d5f838360016115df565b5f81815260cb60205260409020546001600160a01b0316156113015760405162461bcd60e51b815260206004820152601c60248201527f4552433732313a20746f6b656e20616c7265616479206d696e7465640000000060448201526064016105cb565b6001600160a01b0382165f81815260cc602090815260408083208054600101905584835260cb90915280822080546001600160a01b0319168417905551839291907fddf252ad1be2c89b69c2b068fc378daa952ba7f163c4a11628f55a4df523b3ef908290a45050565b6113736117a1565b61015f805460ff191660011790557f62e78cea01bee320cd4e420270b5ea74000d11b0c9f74754ebdbfc544b05a25861111a3390565b5f610b9283836117e8565b816001600160a01b0316836001600160a01b0316036114155760405162461bcd60e51b815260206004820152601960248201527f4552433732313a20617070726f766520746f2063616c6c65720000000000000060448201526064016105cb565b6001600160a01b038381165f81815260ce6020908152604080832094871680845294825291829020805460ff191686151590811790915591519182527f17307eab39ab6107e8899845ad3d59bd9653f200f220920489ca2b5937696c31910160405180910390a3505050565b5f54610100900460ff166114a75760405162461bcd60e51b81526004016105cb90612646565b6114b1838361180e565b6114b961184d565b61066c838383611880565b6114cf848484610f29565b6114db848484846118ff565b610ce85760405162461bcd60e51b81526004016105cb90612691565b60606101c480546104b29061253d565b60605f611513836119fc565b60010190505f8167ffffffffffffffff81111561153257611532612367565b6040519080825280601f01601f19166020018201604052801561155c576020820181803683370190505b5090508181016020015b5f19016f181899199a1a9b1b9c1cb0b131b232b360811b600a86061a8153600a850494508461156657509392505050565b5f61049d825490565b5f6001600160e01b031982166380ac58cd60e01b14806115d057506001600160e01b03198216635b5e139f60e01b145b8061049d575061049d82611ad3565b610ce884848484611af7565b6115f58282610b99565b6107d55761160281611b6b565b61160d836020611b7d565b60405160200161161e9291906126e3565b60408051601f198184030181529082905262461bcd60e51b82526105cb91600401612225565b61164e8282610b99565b6107d5575f8281526065602090815260408083206001600160a01b03851684529091529020805460ff191660011790556116853390565b6001600160a01b0316816001600160a01b0316837f2f8788117e7eff1d82e926ec794901d17c78024a50270940304540a733656f0d60405160405180910390a45050565b5f610b92836001600160a01b038416611d13565b6116e78282610b99565b156107d5575f8281526065602090815260408083206001600160a01b0385168085529252808320805460ff1916905551339285917ff6391f5c32d9c69d2a47ea670b442974b53935d1edc7fd64eb21e047a839171b9190a45050565b5f610b92836001600160a01b038416611d5f565b61015f5460ff1661086c5760405162461bcd60e51b815260206004820152601460248201527314185d5cd8589b194e881b9bdd081c185d5cd95960621b60448201526064016105cb565b61015f5460ff161561086c5760405162461bcd60e51b815260206004820152601060248201526f14185d5cd8589b194e881c185d5cd95960821b60448201526064016105cb565b5f825f0182815481106117fd576117fd6125c2565b905f5260205f200154905092915050565b5f54610100900460ff166118345760405162461bcd60e51b81526004016105cb90612646565b60c96118408382612785565b5060ca61066c8282612785565b5f54610100900460ff166118735760405162461bcd60e51b81526004016105cb90612646565b61015f805460ff19169055565b5f54610100900460ff166118a65760405162461bcd60e51b81526004016105cb90612646565b6101c46118b38282612785565b506118be5f33611e42565b6118e87f9f2df0fed2c77648de5860a4cc508cd0818c85b8b8a1ab4ceeef8d981c8956a633611e42565b61066c5f5160206129125f395f51905f5233611e42565b5f6001600160a01b0384163b156119f157604051630a85bd0160e11b81526001600160a01b0385169063150b7a0290611942903390899088908890600401612840565b6020604051808303815f875af192505050801561197c575060408051601f3d908101601f191682019092526119799181019061287c565b60015b6119d7573d8080156119a9576040519150601f19603f3d011682016040523d82523d5f602084013e6119ae565b606091505b5080515f036119cf5760405162461bcd60e51b81526004016105cb90612691565b805181602001fd5b6001600160e01b031916630a85bd0160e11b149050610f21565b506001949350505050565b5f8072184f03e93ff9f4daa797ed6e38ed64bf6a1f0160401b8310611a3a5772184f03e93ff9f4daa797ed6e38ed64bf6a1f0160401b830492506040015b6d04ee2d6d415b85acef81000000008310611a66576d04ee2d6d415b85acef8100000000830492506020015b662386f26fc100008310611a8457662386f26fc10000830492506010015b6305f5e1008310611a9c576305f5e100830492506008015b6127108310611ab057612710830492506004015b60648310611ac2576064830492506002015b600a831061049d5760010192915050565b5f6001600160e01b03198216635a05180f60e01b148061049d575061049d82611e4c565b611b0384848484611e80565b61015f5460ff1615610ce85760405162461bcd60e51b815260206004820152602b60248201527f4552433732315061757361626c653a20746f6b656e207472616e73666572207760448201526a1a1a5b19481c185d5cd95960aa1b60648201526084016105cb565b606061049d6001600160a01b03831660145b60605f611b8b8360026128ab565b611b969060026128c2565b67ffffffffffffffff811115611bae57611bae612367565b6040519080825280601f01601f191660200182016040528015611bd8576020820181803683370190505b509050600360fc1b815f81518110611bf257611bf26125c2565b60200101906001600160f81b03191690815f1a905350600f60fb1b81600181518110611c2057611c206125c2565b60200101906001600160f81b03191690815f1a9053505f611c428460026128ab565b611c4d9060016128c2565b90505b6001811115611cc4576f181899199a1a9b1b9c1cb0b131b232b360811b85600f1660108110611c8157611c816125c2565b1a60f81b828281518110611c9757611c976125c2565b60200101906001600160f81b03191690815f1a90535060049490941c93611cbd816128d5565b9050611c50565b508315610b925760405162461bcd60e51b815260206004820181905260248201527f537472696e67733a20686578206c656e67746820696e73756666696369656e7460448201526064016105cb565b5f818152600183016020526040812054611d5857508154600181810184555f84815260208082209093018490558454848252828601909352604090209190915561049d565b505f61049d565b5f8181526001830160205260408120548015611e39575f611d816001836128ea565b85549091505f90611d94906001906128ea565b9050818114611df3575f865f018281548110611db257611db26125c2565b905f5260205f200154905080875f018481548110611dd257611dd26125c2565b5f918252602080832090910192909255918252600188019052604090208390555b8554869080611e0457611e046128fd565b600190038181905f5260205f20015f90559055856001015f8681526020019081526020015f205f90556001935050505061049d565b5f91505061049d565b6107d582826110a2565b5f6001600160e01b03198216637965db0b60e01b148061049d57506301ffc9a760e01b6001600160e01b031983161461049d565b611e8c84848484611fbf565b6001811115611efb5760405162461bcd60e51b815260206004820152603560248201527f455243373231456e756d657261626c653a20636f6e7365637574697665207472604482015274185b9cd9995c9cc81b9bdd081cdd5c1c1bdc9d1959605a1b60648201526084016105cb565b816001600160a01b038516611f5657611f518160fd80545f83815260fe60205260408120829055600182018355919091527f9346ac6dd7de6b96975fec380d4d994c4c12e6a8897544f22915316cc6cca2800155565b611f79565b836001600160a01b0316856001600160a01b031614611f7957611f798582612045565b6001600160a01b038416611f9557611f90816120de565b611fb8565b846001600160a01b0316846001600160a01b031614611fb857611fb88482612185565b5050505050565b6001811115610ce8576001600160a01b03841615612004576001600160a01b0384165f90815260cc602052604081208054839290611ffe9084906128ea565b90915550505b6001600160a01b03831615610ce8576001600160a01b0383165f90815260cc60205260408120805483929061203a9084906128c2565b909155505050505050565b5f600161205184610a66565b61205b91906128ea565b5f83815260fc60205260409020549091508082146120ac576001600160a01b0384165f90815260fb60209081526040808320858452825280832054848452818420819055835260fc90915290208190555b505f91825260fc602090815260408084208490556001600160a01b03909416835260fb81528383209183525290812055565b60fd545f906120ef906001906128ea565b5f83815260fe602052604081205460fd8054939450909284908110612116576121166125c2565b905f5260205f20015490508060fd8381548110612135576121356125c2565b5f91825260208083209091019290925582815260fe909152604080822084905585825281205560fd80548061216c5761216c6128fd565b600190038181905f5260205f20015f9055905550505050565b5f61218f83610a66565b6001600160a01b039093165f90815260fb60209081526040808320868452825280832085905593825260fc9052919091209190915550565b6001600160e01b0319811681146108b6575f5ffd5b5f602082840312156121ec575f5ffd5b8135610b92816121c7565b5f81518084528060208401602086015e5f602082860101526020601f19601f83011685010191505092915050565b602081525f610b9260208301846121f7565b5f60208284031215612247575f5ffd5b5035919050565b80356001600160a01b0381168114612264575f5ffd5b919050565b5f5f6040838503121561227a575f5ffd5b6122838361224e565b946020939093013593505050565b5f5f5f606084860312156122a3575f5ffd5b6122ac8461224e565b92506122ba6020850161224e565b929592945050506040919091013590565b5f5f604083850312156122dc575f5ffd5b823591506122ec6020840161224e565b90509250929050565b5f60208284031215612305575f5ffd5b610b928261224e565b5f5f6040838503121561231f575f5ffd5b50508035926020909101359150565b5f5f6040838503121561233f575f5ffd5b6123488361224e565b91506020830135801515811461235c575f5ffd5b809150509250929050565b634e487b7160e01b5f52604160045260245ffd5b5f5f67ffffffffffffffff84111561239557612395612367565b50604051601f19601f85018116603f0116810181811067ffffffffffffffff821117156123c4576123c4612367565b6040528381529050808284018510156123db575f5ffd5b838360208301375f60208583010152509392505050565b5f82601f830112612401575f5ffd5b610b928383356020850161237b565b5f5f5f60608486031215612422575f5ffd5b833567ffffffffffffffff811115612438575f5ffd5b612444868287016123f2565b935050602084013567ffffffffffffffff811115612460575f5ffd5b61246c868287016123f2565b925050604084013567ffffffffffffffff811115612488575f5ffd5b612494868287016123f2565b9150509250925092565b5f5f5f5f608085870312156124b1575f5ffd5b6124ba8561224e565b93506124c86020860161224e565b925060408501359150606085013567ffffffffffffffff8111156124ea575f5ffd5b8501601f810187136124fa575f5ffd5b6125098782356020840161237b565b91505092959194509250565b5f5f60408385031215612526575f5ffd5b61252f8361224e565b91506122ec6020840161224e565b600181811c9082168061255157607f821691505b60208210810361256f57634e487b7160e01b5f52602260045260245ffd5b50919050565b6020808252602d908201527f4552433732313a2063616c6c6572206973206e6f7420746f6b656e206f776e6560408201526c1c881bdc88185c1c1c9bdd9959609a1b606082015260800190565b634e487b7160e01b5f52603260045260245ffd5b5f81518060208401855e5f93019283525090919050565b5f610f216125fb83866125d6565b846125d6565b60208082526025908201527f4552433732313a207472616e736665722066726f6d20696e636f72726563742060408201526437bbb732b960d91b606082015260800190565b6020808252602b908201527f496e697469616c697a61626c653a20636f6e7472616374206973206e6f74206960408201526a6e697469616c697a696e6760a81b606082015260800190565b60208082526032908201527f4552433732313a207472616e7366657220746f206e6f6e20455243373231526560408201527131b2b4bb32b91034b6b83632b6b2b73a32b960711b606082015260800190565b7f416363657373436f6e74726f6c3a206163636f756e742000000000000000000081525f61271460178301856125d6565b7001034b99036b4b9b9b4b733903937b6329607d1b815261273860118201856125d6565b95945050505050565b601f82111561066c57805f5260205f20601f840160051c810160208510156127665750805b601f840160051c820191505b81811015611fb8575f8155600101612772565b815167ffffffffffffffff81111561279f5761279f612367565b6127b3816127ad845461253d565b84612741565b6020601f8211600181146127e5575f83156127ce5750848201515b5f19600385901b1c1916600184901b178455611fb8565b5f84815260208120601f198516915b8281101561281457878501518255602094850194600190920191016127f4565b508482101561283157868401515f19600387901b60f8161c191681555b50505050600190811b01905550565b6001600160a01b03858116825284166020820152604081018390526080606082018190525f90612872908301846121f7565b9695505050505050565b5f6020828403121561288c575f5ffd5b8151610b92816121c7565b634e487b7160e01b5f52601160045260245ffd5b808202811582820484141761049d5761049d612897565b8082018082111561049d5761049d612897565b5f816128e3576128e3612897565b505f190190565b8181038181111561049d5761049d612897565b634e487b7160e01b5f52603160045260245ffdfe65d7a28e3265b37a6474929f336521b332c1681b933f6cb9f3376673440d862aa2646970667358221220fe4cbedf5fe93b91bc9fe7f9f01dfeb03c7942f64636b8fc4e395f30aa80c21864736f6c634300081c0033","linkReferences":{}},"methodIdentifiers":{"DEFAULT_ADMIN_ROLE()":"a217fddf","MINTER_ROLE()":"d5391393","PAUSER_ROLE()":"e63ab1e9","approve(address,uint256)":"095ea7b3","balanceOf(address)":"70a08231","burn(uint256)":"42966c68","getApproved(uint256)":"081812fc","getRoleAdmin(bytes32)":"248a9ca3","getRoleMember(bytes32,uint256)":"9010d07c","getRoleMemberCount(bytes32)":"ca15c873","grantRole(bytes32,address)":"2f2ff15d","hasRole(bytes32,address)":"91d14854","initialize(string,string,string)":"a6487c53","isApprovedForAll(address,address)":"e985e9c5","mint(address)":"6a627842","name()":"06fdde03","ownerOf(uint256)":"6352211e","pause()":"8456cb59","paused()":"5c975abb","renounceRole(bytes32,address)":"36568abe","revokeRole(bytes32,address)":"d547741f","safeTransferFrom(address,address,uint256)":"42842e0e","safeTransferFrom(address,address,uint256,bytes)":"b88d4fde","setApprovalForAll(address,bool)":"a22cb465","supportsInterface(bytes4)":"01ffc9a7","symbol()":"95d89b41","tokenByIndex(uint256)":"4f6ccce7","tokenOfOwnerByIndex(address,uint256)":"2f745c59","tokenURI(uint256)":"c87b56dd","totalSupply()":"18160ddd","transferFrom(address,address,uint256)":"23b872dd","unpause()":"3f4ba83a"},"id":138}