{"abi":[{"type":"constructor","inputs":[{"name":"__marketplace","type":"address","internalType":"address"}],"stateMutability":"nonpayable"},{"type":"function","name":"DEFAULT_ADMIN_ROLE","inputs":[],"outputs":[{"name":"","type":"bytes32","internalType":"bytes32"}],"stateMutability":"view"},{"type":"function","name":"MARKETPLACE_ROLE","inputs":[],"outputs":[{"name":"","type":"bytes32","internalType":"bytes32"}],"stateMutability":"view"},{"type":"function","name":"_tokenIdCounter","inputs":[],"outputs":[{"name":"","type":"uint256","internalType":"uint256"}],"stateMutability":"view"},{"type":"function","name":"approve","inputs":[{"name":"to","type":"address","internalType":"address"},{"name":"tokenId","type":"uint256","internalType":"uint256"}],"outputs":[],"stateMutability":"nonpayable"},{"type":"function","name":"balanceOf","inputs":[{"name":"owner","type":"address","internalType":"address"}],"outputs":[{"name":"","type":"uint256","internalType":"uint256"}],"stateMutability":"view"},{"type":"function","name":"getApproved","inputs":[{"name":"tokenId","type":"uint256","internalType":"uint256"}],"outputs":[{"name":"","type":"address","internalType":"address"}],"stateMutability":"view"},{"type":"function","name":"getMarketplace","inputs":[],"outputs":[{"name":"","type":"address","internalType":"address"}],"stateMutability":"nonpayable"},{"type":"function","name":"getRoleAdmin","inputs":[{"name":"role","type":"bytes32","internalType":"bytes32"}],"outputs":[{"name":"","type":"bytes32","internalType":"bytes32"}],"stateMutability":"view"},{"type":"function","name":"getTokenCounter","inputs":[],"outputs":[{"name":"","type":"uint256","internalType":"uint256"}],"stateMutability":"view"},{"type":"function","name":"grantRole","inputs":[{"name":"role","type":"bytes32","internalType":"bytes32"},{"name":"account","type":"address","internalType":"address"}],"outputs":[],"stateMutability":"nonpayable"},{"type":"function","name":"hasRole","inputs":[{"name":"role","type":"bytes32","internalType":"bytes32"},{"name":"account","type":"address","internalType":"address"}],"outputs":[{"name":"","type":"bool","internalType":"bool"}],"stateMutability":"view"},{"type":"function","name":"isApprovedForAll","inputs":[{"name":"owner","type":"address","internalType":"address"},{"name":"operator","type":"address","internalType":"address"}],"outputs":[{"name":"","type":"bool","internalType":"bool"}],"stateMutability":"view"},{"type":"function","name":"mint","inputs":[{"name":"to","type":"address","internalType":"address"}],"outputs":[],"stateMutability":"nonpayable"},{"type":"function","name":"name","inputs":[],"outputs":[{"name":"","type":"string","internalType":"string"}],"stateMutability":"view"},{"type":"function","name":"ownerOf","inputs":[{"name":"tokenId","type":"uint256","internalType":"uint256"}],"outputs":[{"name":"","type":"address","internalType":"address"}],"stateMutability":"view"},{"type":"function","name":"pause","inputs":[],"outputs":[],"stateMutability":"nonpayable"},{"type":"function","name":"paused","inputs":[],"outputs":[{"name":"","type":"bool","internalType":"bool"}],"stateMutability":"view"},{"type":"function","name":"renounceRole","inputs":[{"name":"role","type":"bytes32","internalType":"bytes32"},{"name":"account","type":"address","internalType":"address"}],"outputs":[],"stateMutability":"nonpayable"},{"type":"function","name":"requireApprovedOrOwner","inputs":[{"name":"account","type":"address","internalType":"address"},{"name":"tokenId","type":"uint256","internalType":"uint256"}],"outputs":[{"name":"","type":"bool","internalType":"bool"}],"stateMutability":"view"},{"type":"function","name":"revokeRole","inputs":[{"name":"role","type":"bytes32","internalType":"bytes32"},{"name":"account","type":"address","internalType":"address"}],"outputs":[],"stateMutability":"nonpayable"},{"type":"function","name":"safeTransferFrom","inputs":[{"name":"from","type":"address","internalType":"address"},{"name":"to","type":"address","internalType":"address"},{"name":"tokenId","type":"uint256","internalType":"uint256"}],"outputs":[],"stateMutability":"nonpayable"},{"type":"function","name":"safeTransferFrom","inputs":[{"name":"from","type":"address","internalType":"address"},{"name":"to","type":"address","internalType":"address"},{"name":"tokenId","type":"uint256","internalType":"uint256"},{"name":"data","type":"bytes","internalType":"bytes"}],"outputs":[],"stateMutability":"nonpayable"},{"type":"function","name":"setApprovalForAll","inputs":[{"name":"operator","type":"address","internalType":"address"},{"name":"approved","type":"bool","internalType":"bool"}],"outputs":[],"stateMutability":"nonpayable"},{"type":"function","name":"supportsInterface","inputs":[{"name":"interfaceId","type":"bytes4","internalType":"bytes4"}],"outputs":[{"name":"","type":"bool","internalType":"bool"}],"stateMutability":"view"},{"type":"function","name":"symbol","inputs":[],"outputs":[{"name":"","type":"string","internalType":"string"}],"stateMutability":"view"},{"type":"function","name":"tokenByIndex","inputs":[{"name":"index","type":"uint256","internalType":"uint256"}],"outputs":[{"name":"","type":"uint256","internalType":"uint256"}],"stateMutability":"view"},{"type":"function","name":"tokenOfOwnerByIndex","inputs":[{"name":"owner","type":"address","internalType":"address"},{"name":"index","type":"uint256","internalType":"uint256"}],"outputs":[{"name":"","type":"uint256","internalType":"uint256"}],"stateMutability":"view"},{"type":"function","name":"tokenURI","inputs":[{"name":"tokenId","type":"uint256","internalType":"uint256"}],"outputs":[{"name":"","type":"string","internalType":"string"}],"stateMutability":"view"},{"type":"function","name":"totalSupply","inputs":[],"outputs":[{"name":"","type":"uint256","internalType":"uint256"}],"stateMutability":"view"},{"type":"function","name":"transferFrom","inputs":[{"name":"from","type":"address","internalType":"address"},{"name":"to","type":"address","internalType":"address"},{"name":"tokenId","type":"uint256","internalType":"uint256"}],"outputs":[],"stateMutability":"nonpayable"},{"type":"function","name":"unpause","inputs":[],"outputs":[],"stateMutability":"nonpayable"},{"type":"function","name":"updateMarketplace","inputs":[{"name":"__newMarketplace","type":"address","internalType":"address"}],"outputs":[],"stateMutability":"nonpayable"},{"type":"event","name":"Approval","inputs":[{"name":"owner","type":"address","indexed":true,"internalType":"address"},{"name":"approved","type":"address","indexed":true,"internalType":"address"},{"name":"tokenId","type":"uint256","indexed":true,"internalType":"uint256"}],"anonymous":false},{"type":"event","name":"ApprovalForAll","inputs":[{"name":"owner","type":"address","indexed":true,"internalType":"address"},{"name":"operator","type":"address","indexed":true,"internalType":"address"},{"name":"approved","type":"bool","indexed":false,"internalType":"bool"}],"anonymous":false},{"type":"event","name":"Paused","inputs":[{"name":"account","type":"address","indexed":false,"internalType":"address"}],"anonymous":false},{"type":"event","name":"RoleAdminChanged","inputs":[{"name":"role","type":"bytes32","indexed":true,"internalType":"bytes32"},{"name":"previousAdminRole","type":"bytes32","indexed":true,"internalType":"bytes32"},{"name":"newAdminRole","type":"bytes32","indexed":true,"internalType":"bytes32"}],"anonymous":false},{"type":"event","name":"RoleGranted","inputs":[{"name":"role","type":"bytes32","indexed":true,"internalType":"bytes32"},{"name":"account","type":"address","indexed":true,"internalType":"address"},{"name":"sender","type":"address","indexed":true,"internalType":"address"}],"anonymous":false},{"type":"event","name":"RoleRevoked","inputs":[{"name":"role","type":"bytes32","indexed":true,"internalType":"bytes32"},{"name":"account","type":"address","indexed":true,"internalType":"address"},{"name":"sender","type":"address","indexed":true,"internalType":"address"}],"anonymous":false},{"type":"event","name":"Transfer","inputs":[{"name":"from","type":"address","indexed":true,"internalType":"address"},{"name":"to","type":"address","indexed":true,"internalType":"address"},{"name":"tokenId","type":"uint256","indexed":true,"internalType":"uint256"}],"anonymous":false},{"type":"event","name":"Unpaused","inputs":[{"name":"account","type":"address","indexed":false,"internalType":"address"}],"anonymous":false}],"bytecode":{"object":"0x60806040523480156200001157600080fd5b506040516200269538038062002695833981016040819052620000349162000258565b604080518082018252600a8152692627a1a5902a37b5b2b760b11b6020808301918252835180850190945260038452624c434b60e81b9084015281519192916200008191600091620001b2565b50805162000097906001906020840190620001b2565b5050600a805460ff19169055506001600c55620000b66000336200010d565b600e80546001600160a01b0319166001600160a01b03831690811790915562000101907f0ea61da3a8a09ad801432653699f8c1860b1ae9d2ea4a141fadfd63227717bc8906200010d565b506000600d55620002c6565b6000828152600b602090815260408083206001600160a01b038516845290915290205460ff16620001ae576000828152600b602090815260408083206001600160a01b03851684529091529020805460ff191660011790556200016d3390565b6001600160a01b0316816001600160a01b0316837f2f8788117e7eff1d82e926ec794901d17c78024a50270940304540a733656f0d60405160405180910390a45b5050565b828054620001c0906200028a565b90600052602060002090601f016020900481019282620001e457600085556200022f565b82601f10620001ff57805160ff19168380011785556200022f565b828001600101855582156200022f579182015b828111156200022f57825182559160200191906001019062000212565b506200023d92915062000241565b5090565b5b808211156200023d576000815560010162000242565b6000602082840312156200026b57600080fd5b81516001600160a01b03811681146200028357600080fd5b9392505050565b600181811c908216806200029f57607f821691505b602082108103620002c057634e487b7160e01b600052602260045260246000fd5b50919050565b6123bf80620002d66000396000f3fe608060405234801561001057600080fd5b50600436106101f05760003560e01c80636a6278421161010f578063a22cb465116100a2578063d547741f11610071578063d547741f14610412578063e985e9c514610425578063eb63631714610461578063f84e86761461047457600080fd5b8063a22cb465146103b2578063b88d4fde146103c5578063c3439f3f146103d8578063c87b56dd146103ff57600080fd5b806384c4bd4b116100de57806384c4bd4b1461038657806391d148541461038f57806395d89b41146103a2578063a217fddf146103aa57600080fd5b80636a627842146103505780636e02007d1461036357806370a082311461036b5780638456cb591461037e57600080fd5b80632f2ff15d1161018757806342842e0e1161015657806342842e0e1461030c5780634f6ccce71461031f5780635c975abb146103325780636352211e1461033d57600080fd5b80632f2ff15d146102cb5780632f745c59146102de57806336568abe146102f15780633f4ba83a1461030457600080fd5b80630d21bcd5116101c35780630d21bcd51461027257806318160ddd1461028357806323b872dd14610295578063248a9ca3146102a857600080fd5b806301ffc9a7146101f557806306fdde031461021d578063081812fc14610232578063095ea7b31461025d575b600080fd5b610208610203366004611e04565b610487565b60405190151581526020015b60405180910390f35b610225610498565b6040516102149190611e79565b610245610240366004611e8c565b61052a565b6040516001600160a01b039091168152602001610214565b61027061026b366004611ec1565b610551565b005b600e546001600160a01b0316610245565b6008545b604051908152602001610214565b6102706102a3366004611eeb565b61066b565b6102876102b6366004611e8c565b6000908152600b602052604090206001015490565b6102706102d9366004611f27565b61069c565b6102876102ec366004611ec1565b6106c1565b6102706102ff366004611f27565b610757565b6102706107d5565b61027061031a366004611eeb565b6107eb565b61028761032d366004611e8c565b610806565b600a5460ff16610208565b61024561034b366004611e8c565b610899565b61027061035e366004611f53565b6108f9565b600d54610287565b610287610379366004611f53565b61095c565b6102706109e2565b610287600d5481565b61020861039d366004611f27565b6109f5565b610225610a20565b610287600081565b6102706103c0366004611f6e565b610a2f565b6102706103d3366004611fc0565b610a3a565b6102877f0ea61da3a8a09ad801432653699f8c1860b1ae9d2ea4a141fadfd63227717bc881565b61022561040d366004611e8c565b610a72565b610270610420366004611f27565b610ae6565b61020861043336600461209c565b6001600160a01b03918216600090815260056020908152604080832093909416825291909152205460ff1690565b61027061046f366004611f53565b610b0b565b610208610482366004611ec1565b610b39565b600061049282610b9f565b92915050565b6060600080546104a7906120c6565b80601f01602080910402602001604051908101604052809291908181526020018280546104d3906120c6565b80156105205780601f106104f557610100808354040283529160200191610520565b820191906000526020600020905b81548152906001019060200180831161050357829003601f168201915b5050505050905090565b600061053582610bc4565b506000908152600460205260409020546001600160a01b031690565b600061055c82610899565b9050806001600160a01b0316836001600160a01b0316036105ce5760405162461bcd60e51b815260206004820152602160248201527f4552433732313a20617070726f76616c20746f2063757272656e74206f776e656044820152603960f91b60648201526084015b60405180910390fd5b336001600160a01b03821614806105ea57506105ea8133610433565b61065c5760405162461bcd60e51b815260206004820152603d60248201527f4552433732313a20617070726f76652063616c6c6572206973206e6f7420746f60448201527f6b656e206f776e6572206f7220617070726f76656420666f7220616c6c00000060648201526084016105c5565b6106668383610c23565b505050565b6106753382610c91565b6106915760405162461bcd60e51b81526004016105c590612100565b610666838383610d10565b6000828152600b60205260409020600101546106b781610e81565b6106668383610e8b565b60006106cc8361095c565b821061072e5760405162461bcd60e51b815260206004820152602b60248201527f455243373231456e756d657261626c653a206f776e657220696e646578206f7560448201526a74206f6620626f756e647360a81b60648201526084016105c5565b506001600160a01b03919091166000908152600660209081526040808320938352929052205490565b6001600160a01b03811633146107c75760405162461bcd60e51b815260206004820152602f60248201527f416363657373436f6e74726f6c3a2063616e206f6e6c792072656e6f756e636560448201526e103937b632b9903337b91039b2b63360891b60648201526084016105c5565b6107d18282610f11565b5050565b60006107e081610e81565b6107e8610f78565b50565b61066683838360405180602001604052806000815250610a3a565b600061081160085490565b82106108745760405162461bcd60e51b815260206004820152602c60248201527f455243373231456e756d657261626c653a20676c6f62616c20696e646578206f60448201526b7574206f6620626f756e647360a01b60648201526084016105c5565b600882815481106108875761088761214d565b90600052602060002001549050919050565b6000818152600260205260408120546001600160a01b0316806104925760405162461bcd60e51b8152602060048201526018602482015277115490cdcc8c4e881a5b9d985b1a59081d1bdad95b88125160421b60448201526064016105c5565b7f0ea61da3a8a09ad801432653699f8c1860b1ae9d2ea4a141fadfd63227717bc861092381610e81565b61092c82610fca565b6001600d600082825461093f9190612179565b9091555050600d5461095090611035565b6107d182600d54611091565b60006001600160a01b0382166109c65760405162461bcd60e51b815260206004820152602960248201527f4552433732313a2061646472657373207a65726f206973206e6f7420612076616044820152683634b21037bbb732b960b91b60648201526084016105c5565b506001600160a01b031660009081526003602052604090205490565b60006109ed81610e81565b6107e86110ab565b6000918252600b602090815260408084206001600160a01b0393909316845291905290205460ff1690565b6060600180546104a7906120c6565b6107d13383836110e8565b610a443383610c91565b610a605760405162461bcd60e51b81526004016105c590612100565b610a6c848484846111b6565b50505050565b6060610a7d82610bc4565b6000610a9460408051602081019091526000815290565b90506000815111610ab45760405180602001604052806000815250610adf565b80610abe846111e9565b604051602001610acf929190612191565b6040516020818303038152906040525b9392505050565b6000828152600b6020526040902060010154610b0181610e81565b6106668383610f11565b6000610b1681610e81565b50600e80546001600160a01b0319166001600160a01b0392909216919091179055565b6000610b458383610c91565b6104925760405162461bcd60e51b815260206004820152602560248201527f43616c6c6572206973206e6f7420746f6b656e206f776e6572206f72206170706044820152641c9bdd995960da1b60648201526084016105c5565b60006001600160e01b03198216637965db0b60e01b148061049257506104928261127c565b6000818152600260205260409020546001600160a01b03166107e85760405162461bcd60e51b8152602060048201526018602482015277115490cdcc8c4e881a5b9d985b1a59081d1bdad95b88125160421b60448201526064016105c5565b600081815260046020526040902080546001600160a01b0319166001600160a01b0384169081179091558190610c5882610899565b6001600160a01b03167f8c5be1e5ebec7d5bd14f71427d1e84f3dd0314c0f7b2291e5b200ac8c7c3b92560405160405180910390a45050565b600080610c9d83610899565b9050806001600160a01b0316846001600160a01b03161480610ce457506001600160a01b0380821660009081526005602090815260408083209388168352929052205460ff165b80610d085750836001600160a01b0316610cfd8461052a565b6001600160a01b0316145b949350505050565b826001600160a01b0316610d2382610899565b6001600160a01b031614610d495760405162461bcd60e51b81526004016105c5906121c0565b6001600160a01b038216610dab5760405162461bcd60e51b8152602060048201526024808201527f4552433732313a207472616e7366657220746f20746865207a65726f206164646044820152637265737360e01b60648201526084016105c5565b610db883838360016112a1565b826001600160a01b0316610dcb82610899565b6001600160a01b031614610df15760405162461bcd60e51b81526004016105c5906121c0565b600081815260046020908152604080832080546001600160a01b03199081169091556001600160a01b0387811680865260038552838620805460001901905590871680865283862080546001019055868652600290945282852080549092168417909155905184937fddf252ad1be2c89b69c2b068fc378daa952ba7f163c4a11628f55a4df523b3ef91a4505050565b6107e8813361149d565b610e9582826109f5565b6107d1576000828152600b602090815260408083206001600160a01b03851684529091529020805460ff19166001179055610ecd3390565b6001600160a01b0316816001600160a01b0316837f2f8788117e7eff1d82e926ec794901d17c78024a50270940304540a733656f0d60405160405180910390a45050565b610f1b82826109f5565b156107d1576000828152600b602090815260408083206001600160a01b0385168085529252808320805460ff1916905551339285917ff6391f5c32d9c69d2a47ea670b442974b53935d1edc7fd64eb21e047a839171b9190a45050565b610f806114f6565b600a805460ff191690557f5db9ee0a495bf2e6ff9c91a7834c1ba4fdd244a5e8aa4e537bd38aeae4b073aa335b6040516001600160a01b03909116815260200160405180910390a1565b600e546001600160a01b038281169116146107e857610fe88161095c565b156107e85760405162461bcd60e51b815260206004820152601c60248201527f4f6e6c79206f6e6520766f75636865722070657220616464726573730000000060448201526064016105c5565b6000818152600260205260409020546001600160a01b0316156107e85760405162461bcd60e51b8152602060048201526014602482015273151bdad95b88185b1c9958591e481b5a5b9d195960621b60448201526064016105c5565b6107d1828260405180602001604052806000815250611541565b6110b3611574565b600a805460ff191660011790557f62e78cea01bee320cd4e420270b5ea74000d11b0c9f74754ebdbfc544b05a258610fad3390565b816001600160a01b0316836001600160a01b0316036111495760405162461bcd60e51b815260206004820152601960248201527f4552433732313a20617070726f766520746f2063616c6c65720000000000000060448201526064016105c5565b6001600160a01b03838116600081815260056020908152604080832094871680845294825291829020805460ff191686151590811790915591519182527f17307eab39ab6107e8899845ad3d59bd9653f200f220920489ca2b5937696c31910160405180910390a3505050565b6111c1848484610d10565b6111cd848484846115ba565b610a6c5760405162461bcd60e51b81526004016105c590612205565b606060006111f6836116bb565b600101905060008167ffffffffffffffff81111561121657611216611faa565b6040519080825280601f01601f191660200182016040528015611240576020820181803683370190505b5090508181016020015b600019016f181899199a1a9b1b9c1cb0b131b232b360811b600a86061a8153600a850494508461124a57509392505050565b60006001600160e01b0319821663780e9d6360e01b1480610492575061049282611793565b6112ad848484846117e3565b6112b683610fca565b826001600160a01b0316846001600160a01b0316036113045760405162461bcd60e51b815260206004820152600a60248201526966726f6d203d3d20746f60b01b60448201526064016105c5565b6000828152600260205260409020546001600160a01b031615610a6c57600e546001600160a01b03908116908516036113a157600e54604051635390271560e01b815260048101849052600060248201526001600160a01b0390911690635390271590604401600060405180830381600087803b15801561138457600080fd5b505af1158015611398573d6000803e3d6000fd5b5050505061141c565b600e546001600160a01b0316637a4fad74836113bc81610899565b6040516001600160e01b031960e085901b16815260048101929092526001600160a01b03166024820152604401600060405180830381600087803b15801561140357600080fd5b505af1158015611417573d6000803e3d6000fd5b505050505b600e546001600160a01b0390811690841603610a6c57600e54604051635390271560e01b815260048101849052600160248201526001600160a01b0390911690635390271590604401600060405180830381600087803b15801561147f57600080fd5b505af1158015611493573d6000803e3d6000fd5b5050505050505050565b6114a782826109f5565b6107d1576114b481611917565b6114bf836020611929565b6040516020016114d0929190612257565b60408051601f198184030181529082905262461bcd60e51b82526105c591600401611e79565b600a5460ff1661153f5760405162461bcd60e51b815260206004820152601460248201527314185d5cd8589b194e881b9bdd081c185d5cd95960621b60448201526064016105c5565b565b61154b8383611ac5565b61155860008484846115ba565b6106665760405162461bcd60e51b81526004016105c590612205565b600a5460ff161561153f5760405162461bcd60e51b815260206004820152601060248201526f14185d5cd8589b194e881c185d5cd95960821b60448201526064016105c5565b60006001600160a01b0384163b156116b057604051630a85bd0160e11b81526001600160a01b0385169063150b7a02906115fe9033908990889088906004016122cc565b6020604051808303816000875af1925050508015611639575060408051601f3d908101601f1916820190925261163691810190612309565b60015b611696573d808015611667576040519150601f19603f3d011682016040523d82523d6000602084013e61166c565b606091505b50805160000361168e5760405162461bcd60e51b81526004016105c590612205565b805181602001fd5b6001600160e01b031916630a85bd0160e11b149050610d08565b506001949350505050565b60008072184f03e93ff9f4daa797ed6e38ed64bf6a1f0160401b83106116fa5772184f03e93ff9f4daa797ed6e38ed64bf6a1f0160401b830492506040015b6d04ee2d6d415b85acef81000000008310611726576d04ee2d6d415b85acef8100000000830492506020015b662386f26fc10000831061174457662386f26fc10000830492506010015b6305f5e100831061175c576305f5e100830492506008015b612710831061177057612710830492506004015b60648310611782576064830492506002015b600a83106104925760010192915050565b60006001600160e01b031982166380ac58cd60e01b14806117c457506001600160e01b03198216635b5e139f60e01b145b8061049257506301ffc9a760e01b6001600160e01b0319831614610492565b60018111156118525760405162461bcd60e51b815260206004820152603560248201527f455243373231456e756d657261626c653a20636f6e7365637574697665207472604482015274185b9cd9995c9cc81b9bdd081cdd5c1c1bdc9d1959605a1b60648201526084016105c5565b816001600160a01b0385166118ae576118a981600880546000838152600960205260408120829055600182018355919091527ff3f7a9fe364faab93b216da50a3214154f22a0a2b415b23a84c8169e8b636ee30155565b6118d1565b836001600160a01b0316856001600160a01b0316146118d1576118d18582611c5e565b6001600160a01b0384166118ed576118e881611cfb565b611910565b846001600160a01b0316846001600160a01b031614611910576119108482611daa565b5050505050565b60606104926001600160a01b03831660145b60606000611938836002612326565b611943906002612179565b67ffffffffffffffff81111561195b5761195b611faa565b6040519080825280601f01601f191660200182016040528015611985576020820181803683370190505b509050600360fc1b816000815181106119a0576119a061214d565b60200101906001600160f81b031916908160001a905350600f60fb1b816001815181106119cf576119cf61214d565b60200101906001600160f81b031916908160001a90535060006119f3846002612326565b6119fe906001612179565b90505b6001811115611a76576f181899199a1a9b1b9c1cb0b131b232b360811b85600f1660108110611a3257611a3261214d565b1a60f81b828281518110611a4857611a4861214d565b60200101906001600160f81b031916908160001a90535060049490941c93611a6f81612345565b9050611a01565b508315610adf5760405162461bcd60e51b815260206004820181905260248201527f537472696e67733a20686578206c656e67746820696e73756666696369656e7460448201526064016105c5565b6001600160a01b038216611b1b5760405162461bcd60e51b815260206004820181905260248201527f4552433732313a206d696e7420746f20746865207a65726f206164647265737360448201526064016105c5565b6000818152600260205260409020546001600160a01b031615611b805760405162461bcd60e51b815260206004820152601c60248201527f4552433732313a20746f6b656e20616c7265616479206d696e7465640000000060448201526064016105c5565b611b8e6000838360016112a1565b6000818152600260205260409020546001600160a01b031615611bf35760405162461bcd60e51b815260206004820152601c60248201527f4552433732313a20746f6b656e20616c7265616479206d696e7465640000000060448201526064016105c5565b6001600160a01b038216600081815260036020908152604080832080546001019055848352600290915280822080546001600160a01b0319168417905551839291907fddf252ad1be2c89b69c2b068fc378daa952ba7f163c4a11628f55a4df523b3ef908290a45050565b60006001611c6b8461095c565b611c75919061235c565b600083815260076020526040902054909150808214611cc8576001600160a01b03841660009081526006602090815260408083208584528252808320548484528184208190558352600790915290208190555b5060009182526007602090815260408084208490556001600160a01b039094168352600681528383209183525290812055565b600854600090611d0d9060019061235c565b60008381526009602052604081205460088054939450909284908110611d3557611d3561214d565b906000526020600020015490508060088381548110611d5657611d5661214d565b6000918252602080832090910192909255828152600990915260408082208490558582528120556008805480611d8e57611d8e612373565b6001900381819060005260206000200160009055905550505050565b6000611db58361095c565b6001600160a01b039093166000908152600660209081526040808320868452825280832085905593825260079052919091209190915550565b6001600160e01b0319811681146107e857600080fd5b600060208284031215611e1657600080fd5b8135610adf81611dee565b60005b83811015611e3c578181015183820152602001611e24565b83811115610a6c5750506000910152565b60008151808452611e65816020860160208601611e21565b601f01601f19169290920160200192915050565b602081526000610adf6020830184611e4d565b600060208284031215611e9e57600080fd5b5035919050565b80356001600160a01b0381168114611ebc57600080fd5b919050565b60008060408385031215611ed457600080fd5b611edd83611ea5565b946020939093013593505050565b600080600060608486031215611f0057600080fd5b611f0984611ea5565b9250611f1760208501611ea5565b9150604084013590509250925092565b60008060408385031215611f3a57600080fd5b82359150611f4a60208401611ea5565b90509250929050565b600060208284031215611f6557600080fd5b610adf82611ea5565b60008060408385031215611f8157600080fd5b611f8a83611ea5565b915060208301358015158114611f9f57600080fd5b809150509250929050565b634e487b7160e01b600052604160045260246000fd5b60008060008060808587031215611fd657600080fd5b611fdf85611ea5565b9350611fed60208601611ea5565b925060408501359150606085013567ffffffffffffffff8082111561201157600080fd5b818701915087601f83011261202557600080fd5b81358181111561203757612037611faa565b604051601f8201601f19908116603f0116810190838211818310171561205f5761205f611faa565b816040528281528a602084870101111561207857600080fd5b82602086016020830137600060208483010152809550505050505092959194509250565b600080604083850312156120af57600080fd5b6120b883611ea5565b9150611f4a60208401611ea5565b600181811c908216806120da57607f821691505b6020821081036120fa57634e487b7160e01b600052602260045260246000fd5b50919050565b6020808252602d908201527f4552433732313a2063616c6c6572206973206e6f7420746f6b656e206f776e6560408201526c1c881bdc88185c1c1c9bdd9959609a1b606082015260800190565b634e487b7160e01b600052603260045260246000fd5b634e487b7160e01b600052601160045260246000fd5b6000821982111561218c5761218c612163565b500190565b600083516121a3818460208801611e21565b8351908301906121b7818360208801611e21565b01949350505050565b60208082526025908201527f4552433732313a207472616e736665722066726f6d20696e636f72726563742060408201526437bbb732b960d91b606082015260800190565b60208082526032908201527f4552433732313a207472616e7366657220746f206e6f6e20455243373231526560408201527131b2b4bb32b91034b6b83632b6b2b73a32b960711b606082015260800190565b7f416363657373436f6e74726f6c3a206163636f756e742000000000000000000081526000835161228f816017850160208801611e21565b7001034b99036b4b9b9b4b733903937b6329607d1b60179184019182015283516122c0816028840160208801611e21565b01602801949350505050565b6001600160a01b03858116825284166020820152604081018390526080606082018190526000906122ff90830184611e4d565b9695505050505050565b60006020828403121561231b57600080fd5b8151610adf81611dee565b600081600019048311821515161561234057612340612163565b500290565b60008161235457612354612163565b506000190190565b60008282101561236e5761236e612163565b500390565b634e487b7160e01b600052603160045260246000fdfea2646970667358221220abb52144c966c0514dcb31ce480896ebc3e8ea474ced229732075f4ff46a058a64736f6c634300080d0033","linkReferences":{}},"methodIdentifiers":{"DEFAULT_ADMIN_ROLE()":"a217fddf","MARKETPLACE_ROLE()":"c3439f3f","_tokenIdCounter()":"84c4bd4b","approve(address,uint256)":"095ea7b3","balanceOf(address)":"70a08231","getApproved(uint256)":"081812fc","getMarketplace()":"0d21bcd5","getRoleAdmin(bytes32)":"248a9ca3","getTokenCounter()":"6e02007d","grantRole(bytes32,address)":"2f2ff15d","hasRole(bytes32,address)":"91d14854","isApprovedForAll(address,address)":"e985e9c5","mint(address)":"6a627842","name()":"06fdde03","ownerOf(uint256)":"6352211e","pause()":"8456cb59","paused()":"5c975abb","renounceRole(bytes32,address)":"36568abe","requireApprovedOrOwner(address,uint256)":"f84e8676","revokeRole(bytes32,address)":"d547741f","safeTransferFrom(address,address,uint256)":"42842e0e","safeTransferFrom(address,address,uint256,bytes)":"b88d4fde","setApprovalForAll(address,bool)":"a22cb465","supportsInterface(bytes4)":"01ffc9a7","symbol()":"95d89b41","tokenByIndex(uint256)":"4f6ccce7","tokenOfOwnerByIndex(address,uint256)":"2f745c59","tokenURI(uint256)":"c87b56dd","totalSupply()":"18160ddd","transferFrom(address,address,uint256)":"23b872dd","unpause()":"3f4ba83a","updateMarketplace(address)":"eb636317"},"id":44}