{"abi":[{"type":"function","name":"DEFAULT_ADMIN_ROLE","inputs":[],"outputs":[{"name":"","type":"bytes32","internalType":"bytes32"}],"stateMutability":"view"},{"type":"function","name":"MINTER_ROLE","inputs":[],"outputs":[{"name":"","type":"bytes32","internalType":"bytes32"}],"stateMutability":"view"},{"type":"function","name":"PAUSER_ROLE","inputs":[],"outputs":[{"name":"","type":"bytes32","internalType":"bytes32"}],"stateMutability":"view"},{"type":"function","name":"allowance","inputs":[{"name":"owner","type":"address","internalType":"address"},{"name":"spender","type":"address","internalType":"address"}],"outputs":[{"name":"","type":"uint256","internalType":"uint256"}],"stateMutability":"view"},{"type":"function","name":"approve","inputs":[{"name":"spender","type":"address","internalType":"address"},{"name":"amount","type":"uint256","internalType":"uint256"}],"outputs":[{"name":"","type":"bool","internalType":"bool"}],"stateMutability":"nonpayable"},{"type":"function","name":"balanceOf","inputs":[{"name":"account","type":"address","internalType":"address"}],"outputs":[{"name":"","type":"uint256","internalType":"uint256"}],"stateMutability":"view"},{"type":"function","name":"burn","inputs":[{"name":"amount","type":"uint256","internalType":"uint256"}],"outputs":[],"stateMutability":"nonpayable"},{"type":"function","name":"burnFrom","inputs":[{"name":"account","type":"address","internalType":"address"},{"name":"amount","type":"uint256","internalType":"uint256"}],"outputs":[],"stateMutability":"nonpayable"},{"type":"function","name":"decimals","inputs":[],"outputs":[{"name":"","type":"uint8","internalType":"uint8"}],"stateMutability":"view"},{"type":"function","name":"decreaseAllowance","inputs":[{"name":"spender","type":"address","internalType":"address"},{"name":"subtractedValue","type":"uint256","internalType":"uint256"}],"outputs":[{"name":"","type":"bool","internalType":"bool"}],"stateMutability":"nonpayable"},{"type":"function","name":"getRoleAdmin","inputs":[{"name":"role","type":"bytes32","internalType":"bytes32"}],"outputs":[{"name":"","type":"bytes32","internalType":"bytes32"}],"stateMutability":"view"},{"type":"function","name":"getRoleMember","inputs":[{"name":"role","type":"bytes32","internalType":"bytes32"},{"name":"index","type":"uint256","internalType":"uint256"}],"outputs":[{"name":"","type":"address","internalType":"address"}],"stateMutability":"view"},{"type":"function","name":"getRoleMemberCount","inputs":[{"name":"role","type":"bytes32","internalType":"bytes32"}],"outputs":[{"name":"","type":"uint256","internalType":"uint256"}],"stateMutability":"view"},{"type":"function","name":"grantRole","inputs":[{"name":"role","type":"bytes32","internalType":"bytes32"},{"name":"account","type":"address","internalType":"address"}],"outputs":[],"stateMutability":"nonpayable"},{"type":"function","name":"hasRole","inputs":[{"name":"role","type":"bytes32","internalType":"bytes32"},{"name":"account","type":"address","internalType":"address"}],"outputs":[{"name":"","type":"bool","internalType":"bool"}],"stateMutability":"view"},{"type":"function","name":"increaseAllowance","inputs":[{"name":"spender","type":"address","internalType":"address"},{"name":"addedValue","type":"uint256","internalType":"uint256"}],"outputs":[{"name":"","type":"bool","internalType":"bool"}],"stateMutability":"nonpayable"},{"type":"function","name":"initialize","inputs":[{"name":"name","type":"string","internalType":"string"},{"name":"symbol","type":"string","internalType":"string"}],"outputs":[],"stateMutability":"nonpayable"},{"type":"function","name":"mint","inputs":[{"name":"to","type":"address","internalType":"address"},{"name":"amount","type":"uint256","internalType":"uint256"}],"outputs":[],"stateMutability":"nonpayable"},{"type":"function","name":"name","inputs":[],"outputs":[{"name":"","type":"string","internalType":"string"}],"stateMutability":"view"},{"type":"function","name":"pause","inputs":[],"outputs":[],"stateMutability":"nonpayable"},{"type":"function","name":"paused","inputs":[],"outputs":[{"name":"","type":"bool","internalType":"bool"}],"stateMutability":"view"},{"type":"function","name":"renounceRole","inputs":[{"name":"role","type":"bytes32","internalType":"bytes32"},{"name":"account","type":"address","internalType":"address"}],"outputs":[],"stateMutability":"nonpayable"},{"type":"function","name":"revokeRole","inputs":[{"name":"role","type":"bytes32","internalType":"bytes32"},{"name":"account","type":"address","internalType":"address"}],"outputs":[],"stateMutability":"nonpayable"},{"type":"function","name":"supportsInterface","inputs":[{"name":"interfaceId","type":"bytes4","internalType":"bytes4"}],"outputs":[{"name":"","type":"bool","internalType":"bool"}],"stateMutability":"view"},{"type":"function","name":"symbol","inputs":[],"outputs":[{"name":"","type":"string","internalType":"string"}],"stateMutability":"view"},{"type":"function","name":"totalSupply","inputs":[],"outputs":[{"name":"","type":"uint256","internalType":"uint256"}],"stateMutability":"view"},{"type":"function","name":"transfer","inputs":[{"name":"to","type":"address","internalType":"address"},{"name":"amount","type":"uint256","internalType":"uint256"}],"outputs":[{"name":"","type":"bool","internalType":"bool"}],"stateMutability":"nonpayable"},{"type":"function","name":"transferFrom","inputs":[{"name":"from","type":"address","internalType":"address"},{"name":"to","type":"address","internalType":"address"},{"name":"amount","type":"uint256","internalType":"uint256"}],"outputs":[{"name":"","type":"bool","internalType":"bool"}],"stateMutability":"nonpayable"},{"type":"function","name":"unpause","inputs":[],"outputs":[],"stateMutability":"nonpayable"},{"type":"event","name":"Approval","inputs":[{"name":"owner","type":"address","indexed":true,"internalType":"address"},{"name":"spender","type":"address","indexed":true,"internalType":"address"},{"name":"value","type":"uint256","indexed":false,"internalType":"uint256"}],"anonymous":false},{"type":"event","name":"Initialized","inputs":[{"name":"version","type":"uint8","indexed":false,"internalType":"uint8"}],"anonymous":false},{"type":"event","name":"Paused","inputs":[{"name":"account","type":"address","indexed":false,"internalType":"address"}],"anonymous":false},{"type":"event","name":"RoleAdminChanged","inputs":[{"name":"role","type":"bytes32","indexed":true,"internalType":"bytes32"},{"name":"previousAdminRole","type":"bytes32","indexed":true,"internalType":"bytes32"},{"name":"newAdminRole","type":"bytes32","indexed":true,"internalType":"bytes32"}],"anonymous":false},{"type":"event","name":"RoleGranted","inputs":[{"name":"role","type":"bytes32","indexed":true,"internalType":"bytes32"},{"name":"account","type":"address","indexed":true,"internalType":"address"},{"name":"sender","type":"address","indexed":true,"internalType":"address"}],"anonymous":false},{"type":"event","name":"RoleRevoked","inputs":[{"name":"role","type":"bytes32","indexed":true,"internalType":"bytes32"},{"name":"account","type":"address","indexed":true,"internalType":"address"},{"name":"sender","type":"address","indexed":true,"internalType":"address"}],"anonymous":false},{"type":"event","name":"Transfer","inputs":[{"name":"from","type":"address","indexed":true,"internalType":"address"},{"name":"to","type":"address","indexed":true,"internalType":"address"},{"name":"value","type":"uint256","indexed":false,"internalType":"uint256"}],"anonymous":false},{"type":"event","name":"Unpaused","inputs":[{"name":"account","type":"address","indexed":false,"internalType":"address"}],"anonymous":false}],"bytecode":{"object":"0x608060405234801561001057600080fd5b50613890806100206000396000f3fe608060405234801561001057600080fd5b50600436106101cf5760003560e01c80635c975abb11610104578063a217fddf116100a2578063d539139311610071578063d539139314610554578063d547741f14610572578063dd62ed3e1461058e578063e63ab1e9146105be576101cf565b8063a217fddf146104a6578063a457c2d7146104c4578063a9059cbb146104f4578063ca15c87314610524576101cf565b80638456cb59116100de5780638456cb591461041e5780639010d07c1461042857806391d148541461045857806395d89b4114610488576101cf565b80635c975abb146103b457806370a08231146103d257806379cc679014610402576101cf565b8063313ce567116101715780633f4ba83a1161014b5780633f4ba83a1461035657806340c10f191461036057806342966c681461037c5780634cd88b7614610398576101cf565b8063313ce567146102ec57806336568abe1461030a5780633950935114610326576101cf565b806318160ddd116101ad57806318160ddd1461025257806323b872dd14610270578063248a9ca3146102a05780632f2ff15d146102d0576101cf565b806301ffc9a7146101d457806306fdde0314610204578063095ea7b314610222575b600080fd5b6101ee60048036038101906101e99190612424565b6105dc565b6040516101fb919061246c565b60405180910390f35b61020c610656565b6040516102199190612520565b60405180910390f35b61023c600480360381019061023791906125d6565b6106e8565b604051610249919061246c565b60405180910390f35b61025a61070b565b6040516102679190612625565b60405180910390f35b61028a60048036038101906102859190612640565b610715565b604051610297919061246c565b60405180910390f35b6102ba60048036038101906102b591906126c9565b610744565b6040516102c79190612705565b60405180910390f35b6102ea60048036038101906102e59190612720565b610764565b005b6102f4610785565b604051610301919061277c565b60405180910390f35b610324600480360381019061031f9190612720565b61078e565b005b610340600480360381019061033b91906125d6565b610811565b60405161034d919061246c565b60405180910390f35b61035e610848565b005b61037a600480360381019061037591906125d6565b6108c2565b005b61039660048036038101906103919190612797565b610940565b005b6103b260048036038101906103ad91906128f9565b610954565b005b6103bc610a96565b6040516103c9919061246c565b60405180910390f35b6103ec60048036038101906103e79190612971565b610aae565b6040516103f99190612625565b60405180910390f35b61041c600480360381019061041791906125d6565b610af7565b005b610426610b17565b005b610442600480360381019061043d919061299e565b610b91565b60405161044f91906129ed565b60405180910390f35b610472600480360381019061046d9190612720565b610bc0565b60405161047f919061246c565b60405180910390f35b610490610c2b565b60405161049d9190612520565b60405180910390f35b6104ae610cbd565b6040516104bb9190612705565b60405180910390f35b6104de60048036038101906104d991906125d6565b610cc4565b6040516104eb919061246c565b60405180910390f35b61050e600480360381019061050991906125d6565b610d3b565b60405161051b919061246c565b60405180910390f35b61053e600480360381019061053991906126c9565b610d5e565b60405161054b9190612625565b60405180910390f35b61055c610d82565b6040516105699190612705565b60405180910390f35b61058c60048036038101906105879190612720565b610da6565b005b6105a860048036038101906105a39190612a08565b610dc7565b6040516105b59190612625565b60405180910390f35b6105c6610e4e565b6040516105d39190612705565b60405180910390f35b60007f5a05180f000000000000000000000000000000000000000000000000000000007bffffffffffffffffffffffffffffffffffffffffffffffffffffffff1916827bffffffffffffffffffffffffffffffffffffffffffffffffffffffff1916148061064f575061064e82610e72565b5b9050919050565b606060cc805461066590612a77565b80601f016020809104026020016040519081016040528092919081815260200182805461069190612a77565b80156106de5780601f106106b3576101008083540402835291602001916106de565b820191906000526020600020905b8154815290600101906020018083116106c157829003601f168201915b5050505050905090565b6000806106f3610eec565b9050610700818585610ef4565b600191505092915050565b600060cb54905090565b600080610720610eec565b905061072d8582856110bd565b610738858585611149565b60019150509392505050565b600060656000838152602001908152602001600020600101549050919050565b61076d82610744565b610776816113c2565b61078083836113d6565b505050565b60006012905090565b610796610eec565b73ffffffffffffffffffffffffffffffffffffffff168173ffffffffffffffffffffffffffffffffffffffff1614610803576040517f08c379a00000000000000000000000000000000000000000000000000000000081526004016107fa90612b1a565b60405180910390fd5b61080d828261140a565b5050565b60008061081c610eec565b905061083d81858561082e8589610dc7565b6108389190612b69565b610ef4565b600191505092915050565b6108797f65d7a28e3265b37a6474929f336521b332c1681b933f6cb9f3376673440d862a610874610eec565b610bc0565b6108b8576040517f08c379a00000000000000000000000000000000000000000000000000000000081526004016108af90612c31565b60405180910390fd5b6108c061143e565b565b6108f37f9f2df0fed2c77648de5860a4cc508cd0818c85b8b8a1ab4ceeef8d981c8956a66108ee610eec565b610bc0565b610932576040517f08c379a000000000000000000000000000000000000000000000000000000000815260040161092990612cc3565b60405180910390fd5b61093c82826114a2565b5050565b61095161094b610eec565b826115f9565b50565b60008060019054906101000a900460ff161590508080156109855750600160008054906101000a900460ff1660ff16105b806109b25750610994306117c8565b1580156109b15750600160008054906101000a900460ff1660ff16145b5b6109f1576040517f08c379a00000000000000000000000000000000000000000000000000000000081526004016109e890612d55565b60405180910390fd5b60016000806101000a81548160ff021916908360ff1602179055508015610a2e576001600060016101000a81548160ff0219169083151502179055505b610a3883836117eb565b8015610a915760008060016101000a81548160ff0219169083151502179055507f7f26b83ff96e1f2b6a682f133852f6798a09c465da95921460cefb38474024986001604051610a889190612dba565b60405180910390a15b505050565b600061012d60009054906101000a900460ff16905090565b600060c960008373ffffffffffffffffffffffffffffffffffffffff1673ffffffffffffffffffffffffffffffffffffffff168152602001908152602001600020549050919050565b610b0982610b03610eec565b836110bd565b610b1382826115f9565b5050565b610b487f65d7a28e3265b37a6474929f336521b332c1681b933f6cb9f3376673440d862a610b43610eec565b610bc0565b610b87576040517f08c379a0000000000000000000000000000000000000000000000000000000008152600401610b7e90612e47565b60405180910390fd5b610b8f61185a565b565b6000610bb882609760008681526020019081526020016000206118be90919063ffffffff16565b905092915050565b60006065600084815260200190815260200160002060000160008373ffffffffffffffffffffffffffffffffffffffff1673ffffffffffffffffffffffffffffffffffffffff16815260200190815260200160002060009054906101000a900460ff16905092915050565b606060cd8054610c3a90612a77565b80601f0160208091040260200160405190810160405280929190818152602001828054610c6690612a77565b8015610cb35780601f10610c8857610100808354040283529160200191610cb3565b820191906000526020600020905b815481529060010190602001808311610c9657829003601f168201915b5050505050905090565b6000801b81565b600080610ccf610eec565b90506000610cdd8286610dc7565b905083811015610d22576040517f08c379a0000000000000000000000000000000000000000000000000000000008152600401610d1990612ed9565b60405180910390fd5b610d2f8286868403610ef4565b60019250505092915050565b600080610d46610eec565b9050610d53818585611149565b600191505092915050565b6000610d7b609760008481526020019081526020016000206118d8565b9050919050565b7f9f2df0fed2c77648de5860a4cc508cd0818c85b8b8a1ab4ceeef8d981c8956a681565b610daf82610744565b610db8816113c2565b610dc2838361140a565b505050565b600060ca60008473ffffffffffffffffffffffffffffffffffffffff1673ffffffffffffffffffffffffffffffffffffffff16815260200190815260200160002060008373ffffffffffffffffffffffffffffffffffffffff1673ffffffffffffffffffffffffffffffffffffffff16815260200190815260200160002054905092915050565b7f65d7a28e3265b37a6474929f336521b332c1681b933f6cb9f3376673440d862a81565b60007f7965db0b000000000000000000000000000000000000000000000000000000007bffffffffffffffffffffffffffffffffffffffffffffffffffffffff1916827bffffffffffffffffffffffffffffffffffffffffffffffffffffffff19161480610ee55750610ee4826118ed565b5b9050919050565b600033905090565b600073ffffffffffffffffffffffffffffffffffffffff168373ffffffffffffffffffffffffffffffffffffffff1603610f63576040517f08c379a0000000000000000000000000000000000000000000000000000000008152600401610f5a90612f6b565b60405180910390fd5b600073ffffffffffffffffffffffffffffffffffffffff168273ffffffffffffffffffffffffffffffffffffffff1603610fd2576040517f08c379a0000000000000000000000000000000000000000000000000000000008152600401610fc990612ffd565b60405180910390fd5b8060ca60008573ffffffffffffffffffffffffffffffffffffffff1673ffffffffffffffffffffffffffffffffffffffff16815260200190815260200160002060008473ffffffffffffffffffffffffffffffffffffffff1673ffffffffffffffffffffffffffffffffffffffff168152602001908152602001600020819055508173ffffffffffffffffffffffffffffffffffffffff168373ffffffffffffffffffffffffffffffffffffffff167f8c5be1e5ebec7d5bd14f71427d1e84f3dd0314c0f7b2291e5b200ac8c7c3b925836040516110b09190612625565b60405180910390a3505050565b60006110c98484610dc7565b90507fffffffffffffffffffffffffffffffffffffffffffffffffffffffffffffffff81146111435781811015611135576040517f08c379a000000000000000000000000000000000000000000000000000000000815260040161112c90613069565b60405180910390fd5b6111428484848403610ef4565b5b50505050565b600073ffffffffffffffffffffffffffffffffffffffff168373ffffffffffffffffffffffffffffffffffffffff16036111b8576040517f08c379a00000000000000000000000000000000000000000000000000000000081526004016111af906130fb565b60405180910390fd5b600073ffffffffffffffffffffffffffffffffffffffff168273ffffffffffffffffffffffffffffffffffffffff1603611227576040517f08c379a000000000000000000000000000000000000000000000000000000000815260040161121e9061318d565b60405180910390fd5b611232838383611957565b600060c960008573ffffffffffffffffffffffffffffffffffffffff1673ffffffffffffffffffffffffffffffffffffffff168152602001908152602001600020549050818110156112b9576040517f08c379a00000000000000000000000000000000000000000000000000000000081526004016112b09061321f565b60405180910390fd5b81810360c960008673ffffffffffffffffffffffffffffffffffffffff1673ffffffffffffffffffffffffffffffffffffffff168152602001908152602001600020819055508160c960008573ffffffffffffffffffffffffffffffffffffffff1673ffffffffffffffffffffffffffffffffffffffff168152602001908152602001600020600082825401925050819055508273ffffffffffffffffffffffffffffffffffffffff168473ffffffffffffffffffffffffffffffffffffffff167fddf252ad1be2c89b69c2b068fc378daa952ba7f163c4a11628f55a4df523b3ef846040516113a99190612625565b60405180910390a36113bc848484611967565b50505050565b6113d3816113ce610eec565b61196c565b50565b6113e082826119f1565b6114058160976000858152602001908152602001600020611ad290919063ffffffff16565b505050565b6114148282611b02565b6114398160976000858152602001908152602001600020611be490919063ffffffff16565b505050565b611446611c14565b600061012d60006101000a81548160ff0219169083151502179055507f5db9ee0a495bf2e6ff9c91a7834c1ba4fdd244a5e8aa4e537bd38aeae4b073aa61148b610eec565b60405161149891906129ed565b60405180910390a1565b600073ffffffffffffffffffffffffffffffffffffffff168273ffffffffffffffffffffffffffffffffffffffff1603611511576040517f08c379a00000000000000000000000000000000000000000000000000000000081526004016115089061328b565b60405180910390fd5b61151d60008383611957565b8060cb600082825461152f9190612b69565b925050819055508060c960008473ffffffffffffffffffffffffffffffffffffffff1673ffffffffffffffffffffffffffffffffffffffff168152602001908152602001600020600082825401925050819055508173ffffffffffffffffffffffffffffffffffffffff16600073ffffffffffffffffffffffffffffffffffffffff167fddf252ad1be2c89b69c2b068fc378daa952ba7f163c4a11628f55a4df523b3ef836040516115e19190612625565b60405180910390a36115f560008383611967565b5050565b600073ffffffffffffffffffffffffffffffffffffffff168273ffffffffffffffffffffffffffffffffffffffff1603611668576040517f08c379a000000000000000000000000000000000000000000000000000000000815260040161165f9061331d565b60405180910390fd5b61167482600083611957565b600060c960008473ffffffffffffffffffffffffffffffffffffffff1673ffffffffffffffffffffffffffffffffffffffff168152602001908152602001600020549050818110156116fb576040517f08c379a00000000000000000000000000000000000000000000000000000000081526004016116f2906133af565b60405180910390fd5b81810360c960008573ffffffffffffffffffffffffffffffffffffffff1673ffffffffffffffffffffffffffffffffffffffff168152602001908152602001600020819055508160cb60008282540392505081905550600073ffffffffffffffffffffffffffffffffffffffff168373ffffffffffffffffffffffffffffffffffffffff167fddf252ad1be2c89b69c2b068fc378daa952ba7f163c4a11628f55a4df523b3ef846040516117af9190612625565b60405180910390a36117c383600084611967565b505050565b6000808273ffffffffffffffffffffffffffffffffffffffff163b119050919050565b600060019054906101000a900460ff1661183a576040517f08c379a000000000000000000000000000000000000000000000000000000000815260040161183190613441565b60405180910390fd5b6118448282611c5d565b61184c611cde565b6118568282611d4b565b5050565b611862611e14565b600161012d60006101000a81548160ff0219169083151502179055507f62e78cea01bee320cd4e420270b5ea74000d11b0c9f74754ebdbfc544b05a2586118a7610eec565b6040516118b491906129ed565b60405180910390a1565b60006118cd8360000183611e5e565b60001c905092915050565b60006118e682600001611e89565b9050919050565b60007f01ffc9a7000000000000000000000000000000000000000000000000000000007bffffffffffffffffffffffffffffffffffffffffffffffffffffffff1916827bffffffffffffffffffffffffffffffffffffffffffffffffffffffff1916149050919050565b611962838383611e9a565b505050565b505050565b6119768282610bc0565b6119ed5761198381611ef2565b6119918360001c6020611f1f565b6040516020016119a2929190613535565b6040516020818303038152906040526040517f08c379a00000000000000000000000000000000000000000000000000000000081526004016119e49190612520565b60405180910390fd5b5050565b6119fb8282610bc0565b611ace5760016065600084815260200190815260200160002060000160008373ffffffffffffffffffffffffffffffffffffffff1673ffffffffffffffffffffffffffffffffffffffff16815260200190815260200160002060006101000a81548160ff021916908315150217905550611a73610eec565b73ffffffffffffffffffffffffffffffffffffffff168173ffffffffffffffffffffffffffffffffffffffff16837f2f8788117e7eff1d82e926ec794901d17c78024a50270940304540a733656f0d60405160405180910390a45b5050565b6000611afa836000018373ffffffffffffffffffffffffffffffffffffffff1660001b61215b565b905092915050565b611b0c8282610bc0565b15611be05760006065600084815260200190815260200160002060000160008373ffffffffffffffffffffffffffffffffffffffff1673ffffffffffffffffffffffffffffffffffffffff16815260200190815260200160002060006101000a81548160ff021916908315150217905550611b85610eec565b73ffffffffffffffffffffffffffffffffffffffff168173ffffffffffffffffffffffffffffffffffffffff16837ff6391f5c32d9c69d2a47ea670b442974b53935d1edc7fd64eb21e047a839171b60405160405180910390a45b5050565b6000611c0c836000018373ffffffffffffffffffffffffffffffffffffffff1660001b6121cb565b905092915050565b611c1c610a96565b611c5b576040517f08c379a0000000000000000000000000000000000000000000000000000000008152600401611c52906135bb565b60405180910390fd5b565b600060019054906101000a900460ff16611cac576040517f08c379a0000000000000000000000000000000000000000000000000000000008152600401611ca390613441565b60405180910390fd5b8160cc9080519060200190611cc2929190612315565b508060cd9080519060200190611cd9929190612315565b505050565b600060019054906101000a900460ff16611d2d576040517f08c379a0000000000000000000000000000000000000000000000000000000008152600401611d2490613441565b60405180910390fd5b600061012d60006101000a81548160ff021916908315150217905550565b600060019054906101000a900460ff16611d9a576040517f08c379a0000000000000000000000000000000000000000000000000000000008152600401611d9190613441565b60405180910390fd5b611dae6000801b611da9610eec565b6122df565b611ddf7f9f2df0fed2c77648de5860a4cc508cd0818c85b8b8a1ab4ceeef8d981c8956a6611dda610eec565b6122df565b611e107f65d7a28e3265b37a6474929f336521b332c1681b933f6cb9f3376673440d862a611e0b610eec565b6122df565b5050565b611e1c610a96565b15611e5c576040517f08c379a0000000000000000000000000000000000000000000000000000000008152600401611e5390613627565b60405180910390fd5b565b6000826000018281548110611e7657611e75613647565b5b9060005260206000200154905092915050565b600081600001805490509050919050565b611ea58383836122ed565b611ead610a96565b15611eed576040517f08c379a0000000000000000000000000000000000000000000000000000000008152600401611ee4906136e8565b60405180910390fd5b505050565b6060611f188273ffffffffffffffffffffffffffffffffffffffff16601460ff16611f1f565b9050919050565b606060006002836002611f329190613708565b611f3c9190612b69565b67ffffffffffffffff811115611f5557611f546127ce565b5b6040519080825280601f01601f191660200182016040528015611f875781602001600182028036833780820191505090505b5090507f300000000000000000000000000000000000000000000000000000000000000081600081518110611fbf57611fbe613647565b5b60200101907effffffffffffffffffffffffffffffffffffffffffffffffffffffffffffff1916908160001a9053507f78000000000000000000000000000000000000000000000000000000000000008160018151811061202357612022613647565b5b60200101907effffffffffffffffffffffffffffffffffffffffffffffffffffffffffffff1916908160001a905350600060018460026120639190613708565b61206d9190612b69565b90505b600181111561210d577f3031323334353637383961626364656600000000000000000000000000000000600f8616601081106120af576120ae613647565b5b1a60f81b8282815181106120c6576120c5613647565b5b60200101907effffffffffffffffffffffffffffffffffffffffffffffffffffffffffffff1916908160001a905350600485901c94508061210690613762565b9050612070565b5060008414612151576040517f08c379a0000000000000000000000000000000000000000000000000000000008152600401612148906137d7565b60405180910390fd5b8091505092915050565b600061216783836122f2565b6121c05782600001829080600181540180825580915050600190039060005260206000200160009091909190915055826000018054905083600101600084815260200190815260200160002081905550600190506121c5565b600090505b92915050565b600080836001016000848152602001908152602001600020549050600081146122d35760006001826121fd91906137f7565b905060006001866000018054905061221591906137f7565b905081811461228457600086600001828154811061223657612235613647565b5b906000526020600020015490508087600001848154811061225a57612259613647565b5b90600052602060002001819055508387600101600083815260200190815260200160002081905550505b856000018054806122985761229761382b565b5b6001900381819060005260206000200160009055905585600101600086815260200190815260200160002060009055600193505050506122d9565b60009150505b92915050565b6122e982826113d6565b5050565b505050565b600080836001016000848152602001908152602001600020541415905092915050565b82805461232190612a77565b90600052602060002090601f016020900481019282612343576000855561238a565b82601f1061235c57805160ff191683800117855561238a565b8280016001018555821561238a579182015b8281111561238957825182559160200191906001019061236e565b5b509050612397919061239b565b5090565b5b808211156123b457600081600090555060010161239c565b5090565b6000604051905090565b600080fd5b600080fd5b60007fffffffff0000000000000000000000000000000000000000000000000000000082169050919050565b612401816123cc565b811461240c57600080fd5b50565b60008135905061241e816123f8565b92915050565b60006020828403121561243a576124396123c2565b5b60006124488482850161240f565b91505092915050565b60008115159050919050565b61246681612451565b82525050565b6000602082019050612481600083018461245d565b92915050565b600081519050919050565b600082825260208201905092915050565b60005b838110156124c15780820151818401526020810190506124a6565b838111156124d0576000848401525b50505050565b6000601f19601f8301169050919050565b60006124f282612487565b6124fc8185612492565b935061250c8185602086016124a3565b612515816124d6565b840191505092915050565b6000602082019050818103600083015261253a81846124e7565b905092915050565b600073ffffffffffffffffffffffffffffffffffffffff82169050919050565b600061256d82612542565b9050919050565b61257d81612562565b811461258857600080fd5b50565b60008135905061259a81612574565b92915050565b6000819050919050565b6125b3816125a0565b81146125be57600080fd5b50565b6000813590506125d0816125aa565b92915050565b600080604083850312156125ed576125ec6123c2565b5b60006125fb8582860161258b565b925050602061260c858286016125c1565b9150509250929050565b61261f816125a0565b82525050565b600060208201905061263a6000830184612616565b92915050565b600080600060608486031215612659576126586123c2565b5b60006126678682870161258b565b93505060206126788682870161258b565b9250506040612689868287016125c1565b9150509250925092565b6000819050919050565b6126a681612693565b81146126b157600080fd5b50565b6000813590506126c38161269d565b92915050565b6000602082840312156126df576126de6123c2565b5b60006126ed848285016126b4565b91505092915050565b6126ff81612693565b82525050565b600060208201905061271a60008301846126f6565b92915050565b60008060408385031215612737576127366123c2565b5b6000612745858286016126b4565b92505060206127568582860161258b565b9150509250929050565b600060ff82169050919050565b61277681612760565b82525050565b6000602082019050612791600083018461276d565b92915050565b6000602082840312156127ad576127ac6123c2565b5b60006127bb848285016125c1565b91505092915050565b600080fd5b600080fd5b7f4e487b7100000000000000000000000000000000000000000000000000000000600052604160045260246000fd5b612806826124d6565b810181811067ffffffffffffffff82111715612825576128246127ce565b5b80604052505050565b60006128386123b8565b905061284482826127fd565b919050565b600067ffffffffffffffff821115612864576128636127ce565b5b61286d826124d6565b9050602081019050919050565b82818337600083830152505050565b600061289c61289784612849565b61282e565b9050828152602081018484840111156128b8576128b76127c9565b5b6128c384828561287a565b509392505050565b600082601f8301126128e0576128df6127c4565b5b81356128f0848260208601612889565b91505092915050565b600080604083850312156129105761290f6123c2565b5b600083013567ffffffffffffffff81111561292e5761292d6123c7565b5b61293a858286016128cb565b925050602083013567ffffffffffffffff81111561295b5761295a6123c7565b5b612967858286016128cb565b9150509250929050565b600060208284031215612987576129866123c2565b5b60006129958482850161258b565b91505092915050565b600080604083850312156129b5576129b46123c2565b5b60006129c3858286016126b4565b92505060206129d4858286016125c1565b9150509250929050565b6129e781612562565b82525050565b6000602082019050612a0260008301846129de565b92915050565b60008060408385031215612a1f57612a1e6123c2565b5b6000612a2d8582860161258b565b9250506020612a3e8582860161258b565b9150509250929050565b7f4e487b7100000000000000000000000000000000000000000000000000000000600052602260045260246000fd5b60006002820490506001821680612a8f57607f821691505b602082108103612aa257612aa1612a48565b5b50919050565b7f416363657373436f6e74726f6c3a2063616e206f6e6c792072656e6f756e636560008201527f20726f6c657320666f722073656c660000000000000000000000000000000000602082015250565b6000612b04602f83612492565b9150612b0f82612aa8565b604082019050919050565b60006020820190508181036000830152612b3381612af7565b9050919050565b7f4e487b7100000000000000000000000000000000000000000000000000000000600052601160045260246000fd5b6000612b74826125a0565b9150612b7f836125a0565b9250827fffffffffffffffffffffffffffffffffffffffffffffffffffffffffffffffff03821115612bb457612bb3612b3a565b5b828201905092915050565b7f45524332305072657365744d696e7465725061757365723a206d75737420686160008201527f76652070617573657220726f6c6520746f20756e706175736500000000000000602082015250565b6000612c1b603983612492565b9150612c2682612bbf565b604082019050919050565b60006020820190508181036000830152612c4a81612c0e565b9050919050565b7f45524332305072657365744d696e7465725061757365723a206d75737420686160008201527f7665206d696e74657220726f6c6520746f206d696e7400000000000000000000602082015250565b6000612cad603683612492565b9150612cb882612c51565b604082019050919050565b60006020820190508181036000830152612cdc81612ca0565b9050919050565b7f496e697469616c697a61626c653a20636f6e747261637420697320616c72656160008201527f647920696e697469616c697a6564000000000000000000000000000000000000602082015250565b6000612d3f602e83612492565b9150612d4a82612ce3565b604082019050919050565b60006020820190508181036000830152612d6e81612d32565b9050919050565b6000819050919050565b6000819050919050565b6000612da4612d9f612d9a84612d75565b612d7f565b612760565b9050919050565b612db481612d89565b82525050565b6000602082019050612dcf6000830184612dab565b92915050565b7f45524332305072657365744d696e7465725061757365723a206d75737420686160008201527f76652070617573657220726f6c6520746f207061757365000000000000000000602082015250565b6000612e31603783612492565b9150612e3c82612dd5565b604082019050919050565b60006020820190508181036000830152612e6081612e24565b9050919050565b7f45524332303a2064656372656173656420616c6c6f77616e63652062656c6f7760008201527f207a65726f000000000000000000000000000000000000000000000000000000602082015250565b6000612ec3602583612492565b9150612ece82612e67565b604082019050919050565b60006020820190508181036000830152612ef281612eb6565b9050919050565b7f45524332303a20617070726f76652066726f6d20746865207a65726f2061646460008201527f7265737300000000000000000000000000000000000000000000000000000000602082015250565b6000612f55602483612492565b9150612f6082612ef9565b604082019050919050565b60006020820190508181036000830152612f8481612f48565b9050919050565b7f45524332303a20617070726f766520746f20746865207a65726f20616464726560008201527f7373000000000000000000000000000000000000000000000000000000000000602082015250565b6000612fe7602283612492565b9150612ff282612f8b565b604082019050919050565b6000602082019050818103600083015261301681612fda565b9050919050565b7f45524332303a20696e73756666696369656e7420616c6c6f77616e6365000000600082015250565b6000613053601d83612492565b915061305e8261301d565b602082019050919050565b6000602082019050818103600083015261308281613046565b9050919050565b7f45524332303a207472616e736665722066726f6d20746865207a65726f20616460008201527f6472657373000000000000000000000000000000000000000000000000000000602082015250565b60006130e5602583612492565b91506130f082613089565b604082019050919050565b60006020820190508181036000830152613114816130d8565b9050919050565b7f45524332303a207472616e7366657220746f20746865207a65726f206164647260008201527f6573730000000000000000000000000000000000000000000000000000000000602082015250565b6000613177602383612492565b91506131828261311b565b604082019050919050565b600060208201905081810360008301526131a68161316a565b9050919050565b7f45524332303a207472616e7366657220616d6f756e742065786365656473206260008201527f616c616e63650000000000000000000000000000000000000000000000000000602082015250565b6000613209602683612492565b9150613214826131ad565b604082019050919050565b60006020820190508181036000830152613238816131fc565b9050919050565b7f45524332303a206d696e7420746f20746865207a65726f206164647265737300600082015250565b6000613275601f83612492565b91506132808261323f565b602082019050919050565b600060208201905081810360008301526132a481613268565b9050919050565b7f45524332303a206275726e2066726f6d20746865207a65726f2061646472657360008201527f7300000000000000000000000000000000000000000000000000000000000000602082015250565b6000613307602183612492565b9150613312826132ab565b604082019050919050565b60006020820190508181036000830152613336816132fa565b9050919050565b7f45524332303a206275726e20616d6f756e7420657863656564732062616c616e60008201527f6365000000000000000000000000000000000000000000000000000000000000602082015250565b6000613399602283612492565b91506133a48261333d565b604082019050919050565b600060208201905081810360008301526133c88161338c565b9050919050565b7f496e697469616c697a61626c653a20636f6e7472616374206973206e6f74206960008201527f6e697469616c697a696e67000000000000000000000000000000000000000000602082015250565b600061342b602b83612492565b9150613436826133cf565b604082019050919050565b6000602082019050818103600083015261345a8161341e565b9050919050565b600081905092915050565b7f416363657373436f6e74726f6c3a206163636f756e7420000000000000000000600082015250565b60006134a2601783613461565b91506134ad8261346c565b601782019050919050565b60006134c382612487565b6134cd8185613461565b93506134dd8185602086016124a3565b80840191505092915050565b7f206973206d697373696e6720726f6c6520000000000000000000000000000000600082015250565b600061351f601183613461565b915061352a826134e9565b601182019050919050565b600061354082613495565b915061354c82856134b8565b915061355782613512565b915061356382846134b8565b91508190509392505050565b7f5061757361626c653a206e6f7420706175736564000000000000000000000000600082015250565b60006135a5601483612492565b91506135b08261356f565b602082019050919050565b600060208201905081810360008301526135d481613598565b9050919050565b7f5061757361626c653a2070617573656400000000000000000000000000000000600082015250565b6000613611601083612492565b915061361c826135db565b602082019050919050565b6000602082019050818103600083015261364081613604565b9050919050565b7f4e487b7100000000000000000000000000000000000000000000000000000000600052603260045260246000fd5b7f45524332305061757361626c653a20746f6b656e207472616e7366657220776860008201527f696c652070617573656400000000000000000000000000000000000000000000602082015250565b60006136d2602a83612492565b91506136dd82613676565b604082019050919050565b60006020820190508181036000830152613701816136c5565b9050919050565b6000613713826125a0565b915061371e836125a0565b9250817fffffffffffffffffffffffffffffffffffffffffffffffffffffffffffffffff048311821515161561375757613756612b3a565b5b828202905092915050565b600061376d826125a0565b9150600082036137805761377f612b3a565b5b600182039050919050565b7f537472696e67733a20686578206c656e67746820696e73756666696369656e74600082015250565b60006137c1602083612492565b91506137cc8261378b565b602082019050919050565b600060208201905081810360008301526137f0816137b4565b9050919050565b6000613802826125a0565b915061380d836125a0565b9250828210156138205761381f612b3a565b5b828203905092915050565b7f4e487b7100000000000000000000000000000000000000000000000000000000600052603160045260246000fdfea26469706673582212204f9cbf023a3f968b037859b356d45d2f23118ce126ce83cc5b35fd4d593e3ed364736f6c634300080d0033","linkReferences":{}},"methodIdentifiers":{"DEFAULT_ADMIN_ROLE()":"a217fddf","MINTER_ROLE()":"d5391393","PAUSER_ROLE()":"e63ab1e9","allowance(address,address)":"dd62ed3e","approve(address,uint256)":"095ea7b3","balanceOf(address)":"70a08231","burn(uint256)":"42966c68","burnFrom(address,uint256)":"79cc6790","decimals()":"313ce567","decreaseAllowance(address,uint256)":"a457c2d7","getRoleAdmin(bytes32)":"248a9ca3","getRoleMember(bytes32,uint256)":"9010d07c","getRoleMemberCount(bytes32)":"ca15c873","grantRole(bytes32,address)":"2f2ff15d","hasRole(bytes32,address)":"91d14854","increaseAllowance(address,uint256)":"39509351","initialize(string,string)":"4cd88b76","mint(address,uint256)":"40c10f19","name()":"06fdde03","pause()":"8456cb59","paused()":"5c975abb","renounceRole(bytes32,address)":"36568abe","revokeRole(bytes32,address)":"d547741f","supportsInterface(bytes4)":"01ffc9a7","symbol()":"95d89b41","totalSupply()":"18160ddd","transfer(address,uint256)":"a9059cbb","transferFrom(address,address,uint256)":"23b872dd","unpause()":"3f4ba83a"},"id":125}