{"abi":[{"type":"constructor","inputs":[],"stateMutability":"nonpayable"},{"type":"function","name":"CLOCK_MODE","inputs":[],"outputs":[{"name":"","type":"string","internalType":"string"}],"stateMutability":"pure"},{"type":"function","name":"DOMAIN_SEPARATOR","inputs":[],"outputs":[{"name":"","type":"bytes32","internalType":"bytes32"}],"stateMutability":"view"},{"type":"function","name":"allowance","inputs":[{"name":"owner","type":"address","internalType":"address"},{"name":"spender","type":"address","internalType":"address"}],"outputs":[{"name":"","type":"uint256","internalType":"uint256"}],"stateMutability":"view"},{"type":"function","name":"approve","inputs":[{"name":"spender","type":"address","internalType":"address"},{"name":"amount","type":"uint256","internalType":"uint256"}],"outputs":[{"name":"","type":"bool","internalType":"bool"}],"stateMutability":"nonpayable"},{"type":"function","name":"balanceOf","inputs":[{"name":"account","type":"address","internalType":"address"}],"outputs":[{"name":"","type":"uint256","internalType":"uint256"}],"stateMutability":"view"},{"type":"function","name":"checkpoints","inputs":[{"name":"account","type":"address","internalType":"address"},{"name":"pos","type":"uint32","internalType":"uint32"}],"outputs":[{"name":"","type":"tuple","internalType":"struct ERC20Votes.Checkpoint","components":[{"name":"fromBlock","type":"uint32","internalType":"uint32"},{"name":"votes","type":"uint224","internalType":"uint224"}]}],"stateMutability":"view"},{"type":"function","name":"clock","inputs":[],"outputs":[{"name":"","type":"uint48","internalType":"uint48"}],"stateMutability":"view"},{"type":"function","name":"decimals","inputs":[],"outputs":[{"name":"","type":"uint8","internalType":"uint8"}],"stateMutability":"view"},{"type":"function","name":"decreaseAllowance","inputs":[{"name":"spender","type":"address","internalType":"address"},{"name":"subtractedValue","type":"uint256","internalType":"uint256"}],"outputs":[{"name":"","type":"bool","internalType":"bool"}],"stateMutability":"nonpayable"},{"type":"function","name":"delegate","inputs":[{"name":"delegatee","type":"address","internalType":"address"}],"outputs":[],"stateMutability":"nonpayable"},{"type":"function","name":"delegateBySig","inputs":[{"name":"delegatee","type":"address","internalType":"address"},{"name":"nonce","type":"uint256","internalType":"uint256"},{"name":"expiry","type":"uint256","internalType":"uint256"},{"name":"v","type":"uint8","internalType":"uint8"},{"name":"r","type":"bytes32","internalType":"bytes32"},{"name":"s","type":"bytes32","internalType":"bytes32"}],"outputs":[],"stateMutability":"nonpayable"},{"type":"function","name":"delegates","inputs":[{"name":"account","type":"address","internalType":"address"}],"outputs":[{"name":"","type":"address","internalType":"address"}],"stateMutability":"view"},{"type":"function","name":"eip712Domain","inputs":[],"outputs":[{"name":"fields","type":"bytes1","internalType":"bytes1"},{"name":"name","type":"string","internalType":"string"},{"name":"version","type":"string","internalType":"string"},{"name":"chainId","type":"uint256","internalType":"uint256"},{"name":"verifyingContract","type":"address","internalType":"address"},{"name":"salt","type":"bytes32","internalType":"bytes32"},{"name":"extensions","type":"uint256[]","internalType":"uint256[]"}],"stateMutability":"view"},{"type":"function","name":"getPastTotalSupply","inputs":[{"name":"timepoint","type":"uint256","internalType":"uint256"}],"outputs":[{"name":"","type":"uint256","internalType":"uint256"}],"stateMutability":"view"},{"type":"function","name":"getPastVotes","inputs":[{"name":"account","type":"address","internalType":"address"},{"name":"timepoint","type":"uint256","internalType":"uint256"}],"outputs":[{"name":"","type":"uint256","internalType":"uint256"}],"stateMutability":"view"},{"type":"function","name":"getVotes","inputs":[{"name":"account","type":"address","internalType":"address"}],"outputs":[{"name":"","type":"uint256","internalType":"uint256"}],"stateMutability":"view"},{"type":"function","name":"increaseAllowance","inputs":[{"name":"spender","type":"address","internalType":"address"},{"name":"addedValue","type":"uint256","internalType":"uint256"}],"outputs":[{"name":"","type":"bool","internalType":"bool"}],"stateMutability":"nonpayable"},{"type":"function","name":"name","inputs":[],"outputs":[{"name":"","type":"string","internalType":"string"}],"stateMutability":"view"},{"type":"function","name":"nonces","inputs":[{"name":"owner","type":"address","internalType":"address"}],"outputs":[{"name":"","type":"uint256","internalType":"uint256"}],"stateMutability":"view"},{"type":"function","name":"numCheckpoints","inputs":[{"name":"account","type":"address","internalType":"address"}],"outputs":[{"name":"","type":"uint32","internalType":"uint32"}],"stateMutability":"view"},{"type":"function","name":"permit","inputs":[{"name":"owner","type":"address","internalType":"address"},{"name":"spender","type":"address","internalType":"address"},{"name":"value","type":"uint256","internalType":"uint256"},{"name":"deadline","type":"uint256","internalType":"uint256"},{"name":"v","type":"uint8","internalType":"uint8"},{"name":"r","type":"bytes32","internalType":"bytes32"},{"name":"s","type":"bytes32","internalType":"bytes32"}],"outputs":[],"stateMutability":"nonpayable"},{"type":"function","name":"symbol","inputs":[],"outputs":[{"name":"","type":"string","internalType":"string"}],"stateMutability":"view"},{"type":"function","name":"totalSupply","inputs":[],"outputs":[{"name":"","type":"uint256","internalType":"uint256"}],"stateMutability":"view"},{"type":"function","name":"transfer","inputs":[{"name":"to","type":"address","internalType":"address"},{"name":"amount","type":"uint256","internalType":"uint256"}],"outputs":[{"name":"","type":"bool","internalType":"bool"}],"stateMutability":"nonpayable"},{"type":"function","name":"transferFrom","inputs":[{"name":"from","type":"address","internalType":"address"},{"name":"to","type":"address","internalType":"address"},{"name":"amount","type":"uint256","internalType":"uint256"}],"outputs":[{"name":"","type":"bool","internalType":"bool"}],"stateMutability":"nonpayable"},{"type":"event","name":"Approval","inputs":[{"name":"owner","type":"address","indexed":true,"internalType":"address"},{"name":"spender","type":"address","indexed":true,"internalType":"address"},{"name":"value","type":"uint256","indexed":false,"internalType":"uint256"}],"anonymous":false},{"type":"event","name":"DelegateChanged","inputs":[{"name":"delegator","type":"address","indexed":true,"internalType":"address"},{"name":"fromDelegate","type":"address","indexed":true,"internalType":"address"},{"name":"toDelegate","type":"address","indexed":true,"internalType":"address"}],"anonymous":false},{"type":"event","name":"DelegateVotesChanged","inputs":[{"name":"delegate","type":"address","indexed":true,"internalType":"address"},{"name":"previousBalance","type":"uint256","indexed":false,"internalType":"uint256"},{"name":"newBalance","type":"uint256","indexed":false,"internalType":"uint256"}],"anonymous":false},{"type":"event","name":"EIP712DomainChanged","inputs":[],"anonymous":false},{"type":"event","name":"Transfer","inputs":[{"name":"from","type":"address","indexed":true,"internalType":"address"},{"name":"to","type":"address","indexed":true,"internalType":"address"},{"name":"value","type":"uint256","indexed":false,"internalType":"uint256"}],"anonymous":false},{"type":"error","name":"InvalidShortString","inputs":[]},{"type":"error","name":"StringTooLong","inputs":[{"name":"str","type":"string","internalType":"string"}]}],"bytecode":{"object":"0x6101606040523480156200001257600080fd5b506040518060400160405280601581526020017f4d79546f6b656e54696d657374616d704261736564000000000000000000000081525080604051806040016040528060018152602001603160f81b8152506040518060400160405280601581526020017f4d79546f6b656e54696d657374616d7042617365640000000000000000000000815250604051806040016040528060038152602001624d544b60e81b8152508160039080519060200190620000ce92919062000260565b508051620000e490600490602084019062000260565b50505062000102600583620001bd60201b62000b1a1790919060201c565b610120526200011f816006620001bd602090811b62000b1a17901c565b61014052815160208084019190912060e052815190820120610100524660a052620001ad60e05161010051604080517f8b73c3c69bb8fe3d512ecc4cf759cc79239f7b179b0ffacaa9a75d522b39400f60208201529081019290925260608201524660808201523060a082015260009060c00160405160208183030381529060405280519060200120905090565b60805250503060c05250620003bc565b6000602083511015620001dd57620001d58362000211565b90506200020b565b82620001f4836200025d60201b62000b511760201c565b815162000205926020019062000260565b5060ff90505b92915050565b600080829050601f8151111562000248578260405163305a27a960e01b81526004016200023f919062000306565b60405180910390fd5b805162000255826200035e565b179392505050565b90565b8280546200026e9062000386565b90600052602060002090601f016020900481019282620002925760008555620002dd565b82601f10620002ad57805160ff1916838001178555620002dd565b82800160010185558215620002dd579182015b82811115620002dd578251825591602001919060010190620002c0565b50620002eb929150620002ef565b5090565b5b80821115620002eb5760008155600101620002f0565b600060208083528351808285015260005b81811015620003355785810183015185820160400152820162000317565b8181111562000348576000604083870101525b50601f01601f1916929092016040019392505050565b8051602080830151919081101562000380576000198160200360031b1b821691505b50919050565b600181811c908216806200039b57607f821691505b6020821081036200038057634e487b7160e01b600052602260045260246000fd5b60805160a05160c05160e051610100516101205161014051611f36620004176000396000610607015260006105dc01526000610f7601526000610f4e01526000610ea901526000610ed301526000610efd0152611f366000f3fe608060405234801561001057600080fd5b50600436106101735760003560e01c806370a08231116100de5780639ab24eb011610097578063c3cda52011610071578063c3cda52014610387578063d505accf1461039a578063dd62ed3e146103ad578063f1127ed8146103c057600080fd5b80639ab24eb01461034e578063a457c2d714610361578063a9059cbb1461037457600080fd5b806370a08231146102c65780637ecebe00146102ef57806384b0196e146103025780638e539e8c1461031d57806391ddadf41461033057806395d89b411461034657600080fd5b8063395093511161013057806339509351146101f55780633a46b1a8146102085780634bf5d7e91461021b578063587cde1e146102455780635c19a95c146102895780636fcfff451461029e57600080fd5b806306fdde0314610178578063095ea7b31461019657806318160ddd146101b957806323b872dd146101cb578063313ce567146101de5780633644e515146101ed575b600080fd5b6101806103fd565b60405161018d9190611b5a565b60405180910390f35b6101a96101a4366004611b89565b61048f565b604051901515815260200161018d565b6002545b60405190815260200161018d565b6101a96101d9366004611bb3565b6104a9565b6040516012815260200161018d565b6101bd6104cd565b6101a9610203366004611b89565b6104dc565b6101bd610216366004611b89565b6104fe565b60408051808201909152600e81526d06d6f64653d74696d657374616d760941b6020820152610180565b610271610253366004611bef565b6001600160a01b039081166000908152600960205260409020541690565b6040516001600160a01b03909116815260200161018d565b61029c610297366004611bef565b610581565b005b6102b16102ac366004611bef565b61058e565b60405163ffffffff909116815260200161018d565b6101bd6102d4366004611bef565b6001600160a01b031660009081526020819052604090205490565b6101bd6102fd366004611bef565b6105b0565b61030a6105ce565b60405161018d9796959493929190611c0a565b6101bd61032b366004611ca0565b610657565b60405165ffffffffffff4216815260200161018d565b6101806106b7565b6101bd61035c366004611bef565b6106c6565b6101a961036f366004611b89565b610748565b6101a9610382366004611b89565b6107c3565b61029c610395366004611cca565b6107d1565b61029c6103a8366004611d22565b610907565b6101bd6103bb366004611d8c565b610a6b565b6103d36103ce366004611dbf565b610a96565b60408051825163ffffffff1681526020928301516001600160e01b0316928101929092520161018d565b60606003805461040c90611dff565b80601f016020809104026020016040519081016040528092919081815260200182805461043890611dff565b80156104855780601f1061045a57610100808354040283529160200191610485565b820191906000526020600020905b81548152906001019060200180831161046857829003601f168201915b5050505050905090565b60003361049d818585610b54565b60019150505b92915050565b6000336104b7858285610c78565b6104c2858585610cf2565b506001949350505050565b60006104d7610e9c565b905090565b60003361049d8185856104ef8383610a6b565b6104f99190611e49565b610b54565b60004265ffffffffffff1682106105585760405162461bcd60e51b815260206004820152601960248201527804552433230566f7465733a20667574757265206c6f6f6b757603c1b60448201526064015b60405180910390fd5b6001600160a01b0383166000908152600a6020526040902061057a9083610fc7565b9392505050565b61058b33826110b0565b50565b6001600160a01b0381166000908152600a60205260408120546104a390611129565b6001600160a01b0381166000908152600760205260408120546104a3565b6000606080828080836106027f00000000000000000000000000000000000000000000000000000000000000006005611192565b61062d7f00000000000000000000000000000000000000000000000000000000000000006006611192565b60408051600080825260208201909252600f60f81b9b939a50919850469750309650945092509050565b60004265ffffffffffff1682106106ac5760405162461bcd60e51b815260206004820152601960248201527804552433230566f7465733a20667574757265206c6f6f6b757603c1b604482015260640161054f565b6104a3600b83610fc7565b60606004805461040c90611dff565b6001600160a01b0381166000908152600a60205260408120548015610735576001600160a01b0383166000908152600a602052604090208054600019830190811061071357610713611e61565b60009182526020909120015464010000000090046001600160e01b0316610738565b60005b6001600160e01b03169392505050565b600033816107568286610a6b565b9050838110156107b65760405162461bcd60e51b815260206004820152602560248201527f45524332303a2064656372656173656420616c6c6f77616e63652062656c6f77604482015264207a65726f60d81b606482015260840161054f565b6104c28286868403610b54565b60003361049d818585610cf2565b834211156108215760405162461bcd60e51b815260206004820152601d60248201527f4552433230566f7465733a207369676e61747572652065787069726564000000604482015260640161054f565b604080517fe48329057bfd03d55e49b547132e39cffd9c1820ad7b9d4c5307691425d15adf60208201526001600160a01b03881691810191909152606081018690526080810185905260009061089b906108939060a00160405160208183030381529060405280519060200120611236565b858585611263565b90506108a68161128b565b86146108f45760405162461bcd60e51b815260206004820152601960248201527f4552433230566f7465733a20696e76616c6964206e6f6e636500000000000000604482015260640161054f565b6108fe81886110b0565b50505050505050565b834211156109575760405162461bcd60e51b815260206004820152601d60248201527f45524332305065726d69743a206578706972656420646561646c696e65000000604482015260640161054f565b60007f6e71edae12b1b97f4d1f60370fef10105fa2faae0126114a169c64845d6126c98888886109868c61128b565b6040805160208101969096526001600160a01b0394851690860152929091166060840152608083015260a082015260c0810186905260e00160405160208183030381529060405280519060200120905060006109e182611236565b905060006109f182878787611263565b9050896001600160a01b0316816001600160a01b031614610a545760405162461bcd60e51b815260206004820152601e60248201527f45524332305065726d69743a20696e76616c6964207369676e61747572650000604482015260640161054f565b610a5f8a8a8a610b54565b50505050505050505050565b6001600160a01b03918216600090815260016020908152604080832093909416825291909152205490565b60408051808201909152600080825260208201526001600160a01b0383166000908152600a60205260409020805463ffffffff8416908110610ada57610ada611e61565b60009182526020918290206040805180820190915291015463ffffffff8116825264010000000090046001600160e01b0316918101919091529392505050565b6000602083511015610b3657610b2f836112b3565b90506104a3565b82828151610b479260200190611a7d565b5060ff90506104a3565b90565b6001600160a01b038316610bb65760405162461bcd60e51b8152602060048201526024808201527f45524332303a20617070726f76652066726f6d20746865207a65726f206164646044820152637265737360e01b606482015260840161054f565b6001600160a01b038216610c175760405162461bcd60e51b815260206004820152602260248201527f45524332303a20617070726f766520746f20746865207a65726f206164647265604482015261737360f01b606482015260840161054f565b6001600160a01b0383811660008181526001602090815260408083209487168084529482529182902085905590518481527f8c5be1e5ebec7d5bd14f71427d1e84f3dd0314c0f7b2291e5b200ac8c7c3b925910160405180910390a3505050565b6000610c848484610a6b565b90506000198114610cec5781811015610cdf5760405162461bcd60e51b815260206004820152601d60248201527f45524332303a20696e73756666696369656e7420616c6c6f77616e6365000000604482015260640161054f565b610cec8484848403610b54565b50505050565b6001600160a01b038316610d565760405162461bcd60e51b815260206004820152602560248201527f45524332303a207472616e736665722066726f6d20746865207a65726f206164604482015264647265737360d81b606482015260840161054f565b6001600160a01b038216610db85760405162461bcd60e51b815260206004820152602360248201527f45524332303a207472616e7366657220746f20746865207a65726f206164647260448201526265737360e81b606482015260840161054f565b6001600160a01b03831660009081526020819052604090205481811015610e305760405162461bcd60e51b815260206004820152602660248201527f45524332303a207472616e7366657220616d6f756e7420657863656564732062604482015265616c616e636560d01b606482015260840161054f565b6001600160a01b03848116600081815260208181526040808320878703905593871680835291849020805487019055925185815290927fddf252ad1be2c89b69c2b068fc378daa952ba7f163c4a11628f55a4df523b3ef910160405180910390a3610cec8484846112f6565b6000306001600160a01b037f000000000000000000000000000000000000000000000000000000000000000016148015610ef557507f000000000000000000000000000000000000000000000000000000000000000046145b15610f1f57507f000000000000000000000000000000000000000000000000000000000000000090565b6104d7604080517f8b73c3c69bb8fe3d512ecc4cf759cc79239f7b179b0ffacaa9a75d522b39400f60208201527f0000000000000000000000000000000000000000000000000000000000000000918101919091527f000000000000000000000000000000000000000000000000000000000000000060608201524660808201523060a082015260009060c00160405160208183030381529060405280519060200120905090565b815460009081816005811115611021576000610fe284611301565b610fec9085611e77565b600088815260209020909150869082015463ffffffff1611156110115780915061101f565b61101c816001611e49565b92505b505b8082101561106e57600061103583836113e9565b600088815260209020909150869082015463ffffffff16111561105a57809150611068565b611065816001611e49565b92505b50611021565b801561109a576000868152602090208101600019015464010000000090046001600160e01b031661109d565b60005b6001600160e01b03169695505050505050565b6001600160a01b038281166000818152600960208181526040808420805485845282862054949093528787166001600160a01b03198416811790915590519190951694919391928592917f3134e8a2e6d97e929a7e54011ea5485d7d196dd5f0ba4d4ef95803e8e3fc257f9190a4610cec828483611404565b600063ffffffff82111561118e5760405162461bcd60e51b815260206004820152602660248201527f53616665436173743a2076616c756520646f65736e27742066697420696e203360448201526532206269747360d01b606482015260840161054f565b5090565b606060ff83146111a557610b2f83611541565b8180546111b190611dff565b80601f01602080910402602001604051908101604052809291908181526020018280546111dd90611dff565b801561122a5780601f106111ff5761010080835404028352916020019161122a565b820191906000526020600020905b81548152906001019060200180831161120d57829003601f168201915b505050505090506104a3565b60006104a3611243610e9c565b8360405161190160f01b8152600281019290925260228201526042902090565b600080600061127487878787611580565b9150915061128181611644565b5095945050505050565b6001600160a01b03811660009081526007602052604090208054600181018255905b50919050565b600080829050601f815111156112de578260405163305a27a960e01b815260040161054f9190611b5a565b80516112e982611e8e565b179392505050565b505050565b6112f183838361178e565b60008160000361131357506000919050565b60006001611320846117c0565b901c6001901b9050600181848161133957611339611eb2565b048201901c9050600181848161135157611351611eb2565b048201901c9050600181848161136957611369611eb2565b048201901c9050600181848161138157611381611eb2565b048201901c9050600181848161139957611399611eb2565b048201901c905060018184816113b1576113b1611eb2565b048201901c905060018184816113c9576113c9611eb2565b048201901c905061057a818285816113e3576113e3611eb2565b04611854565b60006113f86002848418611ec8565b61057a90848416611e49565b816001600160a01b0316836001600160a01b0316141580156114265750600081115b156112f1576001600160a01b038316156114b4576001600160a01b0383166000908152600a6020526040812081906114619061186a85611876565b91509150846001600160a01b03167fdec2bacdd2f05b59de34da9b523dff8be42e5e38e818c82fdb0bae774387a72483836040516114a9929190918252602082015260400190565b60405180910390a250505b6001600160a01b038216156112f1576001600160a01b0382166000908152600a6020526040812081906114ea906119e085611876565b91509150836001600160a01b03167fdec2bacdd2f05b59de34da9b523dff8be42e5e38e818c82fdb0bae774387a7248383604051611532929190918252602082015260400190565b60405180910390a25050505050565b6060600061154e836119ec565b604080516020808252818301909252919250600091906020820181803683375050509182525060208101929092525090565b6000807f7fffffffffffffffffffffffffffffff5d576e7357a4501ddfe92f46681b20a08311156115b7575060009050600361163b565b6040805160008082526020820180845289905260ff881692820192909252606081018690526080810185905260019060a0016020604051602081039080840390855afa15801561160b573d6000803e3d6000fd5b5050604051601f1901519150506001600160a01b0381166116345760006001925092505061163b565b9150600090505b94509492505050565b600081600481111561165857611658611eea565b036116605750565b600181600481111561167457611674611eea565b036116c15760405162461bcd60e51b815260206004820152601860248201527f45434453413a20696e76616c6964207369676e61747572650000000000000000604482015260640161054f565b60028160048111156116d5576116d5611eea565b036117225760405162461bcd60e51b815260206004820152601f60248201527f45434453413a20696e76616c6964207369676e6174757265206c656e67746800604482015260640161054f565b600381600481111561173657611736611eea565b0361058b5760405162461bcd60e51b815260206004820152602260248201527f45434453413a20696e76616c6964207369676e6174757265202773272076616c604482015261756560f01b606482015260840161054f565b6001600160a01b038381166000908152600960205260408082205485841683529120546112f192918216911683611404565b600080608083901c156117d557608092831c92015b604083901c156117e757604092831c92015b602083901c156117f957602092831c92015b601083901c1561180b57601092831c92015b600883901c1561181d57600892831c92015b600483901c1561182f57600492831c92015b600283901c1561184157600292831c92015b600183901c156104a35760010192915050565b6000818310611863578161057a565b5090919050565b600061057a8284611e77565b825460009081908181156118c35760008781526020902082016000190160408051808201909152905463ffffffff8116825264010000000090046001600160e01b031660208201526118d8565b60408051808201909152600080825260208201525b905080602001516001600160e01b031693506118f884868863ffffffff16565b92506000821180156119185750805163ffffffff1665ffffffffffff4216145b1561195d5761192683611a14565b60008881526020902083016000190180546001600160e01b03929092166401000000000263ffffffff9092169190911790556119d6565b8660405180604001604052806119806119734290565b65ffffffffffff16611129565b63ffffffff16815260200161199486611a14565b6001600160e01b0390811690915282546001810184556000938452602093849020835194909301519091166401000000000263ffffffff909316929092179101555b5050935093915050565b600061057a8284611e49565b600060ff8216601f8111156104a357604051632cd44ac360e21b815260040160405180910390fd5b60006001600160e01b0382111561118e5760405162461bcd60e51b815260206004820152602760248201527f53616665436173743a2076616c756520646f65736e27742066697420696e20326044820152663234206269747360c81b606482015260840161054f565b828054611a8990611dff565b90600052602060002090601f016020900481019282611aab5760008555611af1565b82601f10611ac457805160ff1916838001178555611af1565b82800160010185558215611af1579182015b82811115611af1578251825591602001919060010190611ad6565b5061118e9291505b8082111561118e5760008155600101611af9565b6000815180845260005b81811015611b3357602081850181015186830182015201611b17565b81811115611b45576000602083870101525b50601f01601f19169290920160200192915050565b60208152600061057a6020830184611b0d565b80356001600160a01b0381168114611b8457600080fd5b919050565b60008060408385031215611b9c57600080fd5b611ba583611b6d565b946020939093013593505050565b600080600060608486031215611bc857600080fd5b611bd184611b6d565b9250611bdf60208501611b6d565b9150604084013590509250925092565b600060208284031215611c0157600080fd5b61057a82611b6d565b60ff60f81b881681526000602060e081840152611c2a60e084018a611b0d565b8381036040850152611c3c818a611b0d565b606085018990526001600160a01b038816608086015260a0850187905284810360c0860152855180825283870192509083019060005b81811015611c8e57835183529284019291840191600101611c72565b50909c9b505050505050505050505050565b600060208284031215611cb257600080fd5b5035919050565b803560ff81168114611b8457600080fd5b60008060008060008060c08789031215611ce357600080fd5b611cec87611b6d565b95506020870135945060408701359350611d0860608801611cb9565b92506080870135915060a087013590509295509295509295565b600080600080600080600060e0888a031215611d3d57600080fd5b611d4688611b6d565b9650611d5460208901611b6d565b95506040880135945060608801359350611d7060808901611cb9565b925060a0880135915060c0880135905092959891949750929550565b60008060408385031215611d9f57600080fd5b611da883611b6d565b9150611db660208401611b6d565b90509250929050565b60008060408385031215611dd257600080fd5b611ddb83611b6d565b9150602083013563ffffffff81168114611df457600080fd5b809150509250929050565b600181811c90821680611e1357607f821691505b6020821081036112ad57634e487b7160e01b600052602260045260246000fd5b634e487b7160e01b600052601160045260246000fd5b60008219821115611e5c57611e5c611e33565b500190565b634e487b7160e01b600052603260045260246000fd5b600082821015611e8957611e89611e33565b500390565b805160208083015191908110156112ad5760001960209190910360031b1b16919050565b634e487b7160e01b600052601260045260246000fd5b600082611ee557634e487b7160e01b600052601260045260246000fd5b500490565b634e487b7160e01b600052602160045260246000fdfea2646970667358221220330c1419b837152741a8353d554022003657e4eae063a0900e848d6aa36c079a64736f6c634300080d0033","linkReferences":{}},"methodIdentifiers":{"CLOCK_MODE()":"4bf5d7e9","DOMAIN_SEPARATOR()":"3644e515","allowance(address,address)":"dd62ed3e","approve(address,uint256)":"095ea7b3","balanceOf(address)":"70a08231","checkpoints(address,uint32)":"f1127ed8","clock()":"91ddadf4","decimals()":"313ce567","decreaseAllowance(address,uint256)":"a457c2d7","delegate(address)":"5c19a95c","delegateBySig(address,uint256,uint256,uint8,bytes32,bytes32)":"c3cda520","delegates(address)":"587cde1e","eip712Domain()":"84b0196e","getPastTotalSupply(uint256)":"8e539e8c","getPastVotes(address,uint256)":"3a46b1a8","getVotes(address)":"9ab24eb0","increaseAllowance(address,uint256)":"39509351","name()":"06fdde03","nonces(address)":"7ecebe00","numCheckpoints(address)":"6fcfff45","permit(address,address,uint256,uint256,uint8,bytes32,bytes32)":"d505accf","symbol()":"95d89b41","totalSupply()":"18160ddd","transfer(address,uint256)":"a9059cbb","transferFrom(address,address,uint256)":"23b872dd"},"id":130}