{"abi":[{"type":"function","name":"DEFAULT_ADMIN_ROLE","inputs":[],"outputs":[{"name":"","type":"bytes32","internalType":"bytes32"}],"stateMutability":"view"},{"type":"function","name":"MINTER_ROLE","inputs":[],"outputs":[{"name":"","type":"bytes32","internalType":"bytes32"}],"stateMutability":"view"},{"type":"function","name":"PAUSER_ROLE","inputs":[],"outputs":[{"name":"","type":"bytes32","internalType":"bytes32"}],"stateMutability":"view"},{"type":"function","name":"balanceOf","inputs":[{"name":"account","type":"address","internalType":"address"},{"name":"id","type":"uint256","internalType":"uint256"}],"outputs":[{"name":"","type":"uint256","internalType":"uint256"}],"stateMutability":"view"},{"type":"function","name":"balanceOfBatch","inputs":[{"name":"accounts","type":"address[]","internalType":"address[]"},{"name":"ids","type":"uint256[]","internalType":"uint256[]"}],"outputs":[{"name":"","type":"uint256[]","internalType":"uint256[]"}],"stateMutability":"view"},{"type":"function","name":"burn","inputs":[{"name":"account","type":"address","internalType":"address"},{"name":"id","type":"uint256","internalType":"uint256"},{"name":"value","type":"uint256","internalType":"uint256"}],"outputs":[],"stateMutability":"nonpayable"},{"type":"function","name":"burnBatch","inputs":[{"name":"account","type":"address","internalType":"address"},{"name":"ids","type":"uint256[]","internalType":"uint256[]"},{"name":"values","type":"uint256[]","internalType":"uint256[]"}],"outputs":[],"stateMutability":"nonpayable"},{"type":"function","name":"getRoleAdmin","inputs":[{"name":"role","type":"bytes32","internalType":"bytes32"}],"outputs":[{"name":"","type":"bytes32","internalType":"bytes32"}],"stateMutability":"view"},{"type":"function","name":"getRoleMember","inputs":[{"name":"role","type":"bytes32","internalType":"bytes32"},{"name":"index","type":"uint256","internalType":"uint256"}],"outputs":[{"name":"","type":"address","internalType":"address"}],"stateMutability":"view"},{"type":"function","name":"getRoleMemberCount","inputs":[{"name":"role","type":"bytes32","internalType":"bytes32"}],"outputs":[{"name":"","type":"uint256","internalType":"uint256"}],"stateMutability":"view"},{"type":"function","name":"grantRole","inputs":[{"name":"role","type":"bytes32","internalType":"bytes32"},{"name":"account","type":"address","internalType":"address"}],"outputs":[],"stateMutability":"nonpayable"},{"type":"function","name":"hasRole","inputs":[{"name":"role","type":"bytes32","internalType":"bytes32"},{"name":"account","type":"address","internalType":"address"}],"outputs":[{"name":"","type":"bool","internalType":"bool"}],"stateMutability":"view"},{"type":"function","name":"initialize","inputs":[{"name":"uri","type":"string","internalType":"string"}],"outputs":[],"stateMutability":"nonpayable"},{"type":"function","name":"isApprovedForAll","inputs":[{"name":"account","type":"address","internalType":"address"},{"name":"operator","type":"address","internalType":"address"}],"outputs":[{"name":"","type":"bool","internalType":"bool"}],"stateMutability":"view"},{"type":"function","name":"mint","inputs":[{"name":"to","type":"address","internalType":"address"},{"name":"id","type":"uint256","internalType":"uint256"},{"name":"amount","type":"uint256","internalType":"uint256"},{"name":"data","type":"bytes","internalType":"bytes"}],"outputs":[],"stateMutability":"nonpayable"},{"type":"function","name":"mintBatch","inputs":[{"name":"to","type":"address","internalType":"address"},{"name":"ids","type":"uint256[]","internalType":"uint256[]"},{"name":"amounts","type":"uint256[]","internalType":"uint256[]"},{"name":"data","type":"bytes","internalType":"bytes"}],"outputs":[],"stateMutability":"nonpayable"},{"type":"function","name":"pause","inputs":[],"outputs":[],"stateMutability":"nonpayable"},{"type":"function","name":"paused","inputs":[],"outputs":[{"name":"","type":"bool","internalType":"bool"}],"stateMutability":"view"},{"type":"function","name":"renounceRole","inputs":[{"name":"role","type":"bytes32","internalType":"bytes32"},{"name":"account","type":"address","internalType":"address"}],"outputs":[],"stateMutability":"nonpayable"},{"type":"function","name":"revokeRole","inputs":[{"name":"role","type":"bytes32","internalType":"bytes32"},{"name":"account","type":"address","internalType":"address"}],"outputs":[],"stateMutability":"nonpayable"},{"type":"function","name":"safeBatchTransferFrom","inputs":[{"name":"from","type":"address","internalType":"address"},{"name":"to","type":"address","internalType":"address"},{"name":"ids","type":"uint256[]","internalType":"uint256[]"},{"name":"amounts","type":"uint256[]","internalType":"uint256[]"},{"name":"data","type":"bytes","internalType":"bytes"}],"outputs":[],"stateMutability":"nonpayable"},{"type":"function","name":"safeTransferFrom","inputs":[{"name":"from","type":"address","internalType":"address"},{"name":"to","type":"address","internalType":"address"},{"name":"id","type":"uint256","internalType":"uint256"},{"name":"amount","type":"uint256","internalType":"uint256"},{"name":"data","type":"bytes","internalType":"bytes"}],"outputs":[],"stateMutability":"nonpayable"},{"type":"function","name":"setApprovalForAll","inputs":[{"name":"operator","type":"address","internalType":"address"},{"name":"approved","type":"bool","internalType":"bool"}],"outputs":[],"stateMutability":"nonpayable"},{"type":"function","name":"supportsInterface","inputs":[{"name":"interfaceId","type":"bytes4","internalType":"bytes4"}],"outputs":[{"name":"","type":"bool","internalType":"bool"}],"stateMutability":"view"},{"type":"function","name":"unpause","inputs":[],"outputs":[],"stateMutability":"nonpayable"},{"type":"function","name":"uri","inputs":[{"name":"","type":"uint256","internalType":"uint256"}],"outputs":[{"name":"","type":"string","internalType":"string"}],"stateMutability":"view"},{"type":"event","name":"ApprovalForAll","inputs":[{"name":"account","type":"address","indexed":true,"internalType":"address"},{"name":"operator","type":"address","indexed":true,"internalType":"address"},{"name":"approved","type":"bool","indexed":false,"internalType":"bool"}],"anonymous":false},{"type":"event","name":"Initialized","inputs":[{"name":"version","type":"uint8","indexed":false,"internalType":"uint8"}],"anonymous":false},{"type":"event","name":"Paused","inputs":[{"name":"account","type":"address","indexed":false,"internalType":"address"}],"anonymous":false},{"type":"event","name":"RoleAdminChanged","inputs":[{"name":"role","type":"bytes32","indexed":true,"internalType":"bytes32"},{"name":"previousAdminRole","type":"bytes32","indexed":true,"internalType":"bytes32"},{"name":"newAdminRole","type":"bytes32","indexed":true,"internalType":"bytes32"}],"anonymous":false},{"type":"event","name":"RoleGranted","inputs":[{"name":"role","type":"bytes32","indexed":true,"internalType":"bytes32"},{"name":"account","type":"address","indexed":true,"internalType":"address"},{"name":"sender","type":"address","indexed":true,"internalType":"address"}],"anonymous":false},{"type":"event","name":"RoleRevoked","inputs":[{"name":"role","type":"bytes32","indexed":true,"internalType":"bytes32"},{"name":"account","type":"address","indexed":true,"internalType":"address"},{"name":"sender","type":"address","indexed":true,"internalType":"address"}],"anonymous":false},{"type":"event","name":"TransferBatch","inputs":[{"name":"operator","type":"address","indexed":true,"internalType":"address"},{"name":"from","type":"address","indexed":true,"internalType":"address"},{"name":"to","type":"address","indexed":true,"internalType":"address"},{"name":"ids","type":"uint256[]","indexed":false,"internalType":"uint256[]"},{"name":"values","type":"uint256[]","indexed":false,"internalType":"uint256[]"}],"anonymous":false},{"type":"event","name":"TransferSingle","inputs":[{"name":"operator","type":"address","indexed":true,"internalType":"address"},{"name":"from","type":"address","indexed":true,"internalType":"address"},{"name":"to","type":"address","indexed":true,"internalType":"address"},{"name":"id","type":"uint256","indexed":false,"internalType":"uint256"},{"name":"value","type":"uint256","indexed":false,"internalType":"uint256"}],"anonymous":false},{"type":"event","name":"URI","inputs":[{"name":"value","type":"string","indexed":false,"internalType":"string"},{"name":"id","type":"uint256","indexed":true,"internalType":"uint256"}],"anonymous":false},{"type":"event","name":"Unpaused","inputs":[{"name":"account","type":"address","indexed":false,"internalType":"address"}],"anonymous":false}],"bytecode":{"object":"0x608060405234801561001057600080fd5b5061528f806100206000396000f3fe608060405234801561001057600080fd5b506004361061018d5760003560e01c80638456cb59116100de578063d539139311610097578063e985e9c511610071578063e985e9c51461047e578063f242432a146104ae578063f5298aca146104ca578063f62d1888146104e65761018d565b8063d539139314610426578063d547741f14610444578063e63ab1e9146104605761018d565b80638456cb59146103525780639010d07c1461035c57806391d148541461038c578063a217fddf146103bc578063a22cb465146103da578063ca15c873146103f65761018d565b80632f2ff15d1161014b5780634e1273f4116101255780634e1273f4146102cc5780635c975abb146102fc5780636b20c4541461031a578063731133e9146103365761018d565b80632f2ff15d1461028a57806336568abe146102a65780633f4ba83a146102c25761018d565b8062fdd58e1461019257806301ffc9a7146101c25780630e89341c146101f25780631f7fdffa14610222578063248a9ca31461023e5780632eb2c2d61461026e575b600080fd5b6101ac60048036038101906101a79190613396565b610502565b6040516101b991906133e5565b60405180910390f35b6101dc60048036038101906101d79190613458565b6105cb565b6040516101e991906134a0565b60405180910390f35b61020c600480360381019061020791906134bb565b6105dd565b6040516102199190613581565b60405180910390f35b61023c600480360381019061023791906137a0565b610671565b005b61025860048036038101906102539190613891565b6106f3565b60405161026591906138cd565b60405180910390f35b610288600480360381019061028391906138e8565b610713565b005b6102a4600480360381019061029f91906139b7565b6107b4565b005b6102c060048036038101906102bb91906139b7565b6107d5565b005b6102ca610858565b005b6102e660048036038101906102e19190613aba565b6108d2565b6040516102f39190613bf0565b60405180910390f35b6103046109eb565b60405161031191906134a0565b60405180910390f35b610334600480360381019061032f9190613c12565b610a03565b005b610350600480360381019061034b9190613c9d565b610aa0565b005b61035a610b22565b005b61037660048036038101906103719190613d20565b610b9c565b6040516103839190613d6f565b60405180910390f35b6103a660048036038101906103a191906139b7565b610bcb565b6040516103b391906134a0565b60405180910390f35b6103c4610c36565b6040516103d191906138cd565b60405180910390f35b6103f460048036038101906103ef9190613db6565b610c3d565b005b610410600480360381019061040b9190613891565b610c53565b60405161041d91906133e5565b60405180910390f35b61042e610c77565b60405161043b91906138cd565b60405180910390f35b61045e600480360381019061045991906139b7565b610c9b565b005b610468610cbc565b60405161047591906138cd565b60405180910390f35b61049860048036038101906104939190613df6565b610ce0565b6040516104a591906134a0565b60405180910390f35b6104c860048036038101906104c39190613e36565b610d74565b005b6104e460048036038101906104df9190613ecd565b610e15565b005b61050060048036038101906104fb9190613fc1565b610eb2565b005b60008073ffffffffffffffffffffffffffffffffffffffff168373ffffffffffffffffffffffffffffffffffffffff1603610572576040517f08c379a00000000000000000000000000000000000000000000000000000000081526004016105699061407c565b60405180910390fd5b60c9600083815260200190815260200160002060008473ffffffffffffffffffffffffffffffffffffffff1673ffffffffffffffffffffffffffffffffffffffff16815260200190815260200160002054905092915050565b60006105d682610ff2565b9050919050565b606060cb80546105ec906140cb565b80601f0160208091040260200160405190810160405280929190818152602001828054610618906140cb565b80156106655780601f1061063a57610100808354040283529160200191610665565b820191906000526020600020905b81548152906001019060200180831161064857829003601f168201915b50505050509050919050565b6106a27f9f2df0fed2c77648de5860a4cc508cd0818c85b8b8a1ab4ceeef8d981c8956a661069d6110d4565b610bcb565b6106e1576040517f08c379a00000000000000000000000000000000000000000000000000000000081526004016106d89061416e565b60405180910390fd5b6106ed848484846110dc565b50505050565b600060656000838152602001908152602001600020600101549050919050565b61071b6110d4565b73ffffffffffffffffffffffffffffffffffffffff168573ffffffffffffffffffffffffffffffffffffffff16148061076157506107608561075b6110d4565b610ce0565b5b6107a0576040517f08c379a000000000000000000000000000000000000000000000000000000000815260040161079790614200565b60405180910390fd5b6107ad8585858585611309565b5050505050565b6107bd826106f3565b6107c68161162d565b6107d08383611641565b505050565b6107dd6110d4565b73ffffffffffffffffffffffffffffffffffffffff168173ffffffffffffffffffffffffffffffffffffffff161461084a576040517f08c379a000000000000000000000000000000000000000000000000000000000815260040161084190614292565b60405180910390fd5b6108548282611675565b5050565b6108897f65d7a28e3265b37a6474929f336521b332c1681b933f6cb9f3376673440d862a6108846110d4565b610bcb565b6108c8576040517f08c379a00000000000000000000000000000000000000000000000000000000081526004016108bf90614324565b60405180910390fd5b6108d06116a9565b565b60608151835114610918576040517f08c379a000000000000000000000000000000000000000000000000000000000815260040161090f906143b6565b60405180910390fd5b6000835167ffffffffffffffff811115610935576109346135a8565b5b6040519080825280602002602001820160405280156109635781602001602082028036833780820191505090505b50905060005b84518110156109e0576109b0858281518110610988576109876143d6565b5b60200260200101518583815181106109a3576109a26143d6565b5b6020026020010151610502565b8282815181106109c3576109c26143d6565b5b602002602001018181525050806109d990614434565b9050610969565b508091505092915050565b600061012d60009054906101000a900460ff16905090565b610a0b6110d4565b73ffffffffffffffffffffffffffffffffffffffff168373ffffffffffffffffffffffffffffffffffffffff161480610a515750610a5083610a4b6110d4565b610ce0565b5b610a90576040517f08c379a0000000000000000000000000000000000000000000000000000000008152600401610a8790614200565b60405180910390fd5b610a9b83838361170d565b505050565b610ad17f9f2df0fed2c77648de5860a4cc508cd0818c85b8b8a1ab4ceeef8d981c8956a6610acc6110d4565b610bcb565b610b10576040517f08c379a0000000000000000000000000000000000000000000000000000000008152600401610b079061416e565b60405180910390fd5b610b1c848484846119dd565b50505050565b610b537f65d7a28e3265b37a6474929f336521b332c1681b933f6cb9f3376673440d862a610b4e6110d4565b610bcb565b610b92576040517f08c379a0000000000000000000000000000000000000000000000000000000008152600401610b89906144ee565b60405180910390fd5b610b9a611b8e565b565b6000610bc38260976000868152602001908152602001600020611bf290919063ffffffff16565b905092915050565b60006065600084815260200190815260200160002060000160008373ffffffffffffffffffffffffffffffffffffffff1673ffffffffffffffffffffffffffffffffffffffff16815260200190815260200160002060009054906101000a900460ff16905092915050565b6000801b81565b610c4f610c486110d4565b8383611c0c565b5050565b6000610c7060976000848152602001908152602001600020611d78565b9050919050565b7f9f2df0fed2c77648de5860a4cc508cd0818c85b8b8a1ab4ceeef8d981c8956a681565b610ca4826106f3565b610cad8161162d565b610cb78383611675565b505050565b7f65d7a28e3265b37a6474929f336521b332c1681b933f6cb9f3376673440d862a81565b600060ca60008473ffffffffffffffffffffffffffffffffffffffff1673ffffffffffffffffffffffffffffffffffffffff16815260200190815260200160002060008373ffffffffffffffffffffffffffffffffffffffff1673ffffffffffffffffffffffffffffffffffffffff16815260200190815260200160002060009054906101000a900460ff16905092915050565b610d7c6110d4565b73ffffffffffffffffffffffffffffffffffffffff168573ffffffffffffffffffffffffffffffffffffffff161480610dc25750610dc185610dbc6110d4565b610ce0565b5b610e01576040517f08c379a0000000000000000000000000000000000000000000000000000000008152600401610df890614200565b60405180910390fd5b610e0e8585858585611d8d565b5050505050565b610e1d6110d4565b73ffffffffffffffffffffffffffffffffffffffff168373ffffffffffffffffffffffffffffffffffffffff161480610e635750610e6283610e5d6110d4565b610ce0565b5b610ea2576040517f08c379a0000000000000000000000000000000000000000000000000000000008152600401610e9990614200565b60405180910390fd5b610ead83838361202b565b505050565b60008060019054906101000a900460ff16159050808015610ee35750600160008054906101000a900460ff1660ff16105b80610f105750610ef230612273565b158015610f0f5750600160008054906101000a900460ff1660ff16145b5b610f4f576040517f08c379a0000000000000000000000000000000000000000000000000000000008152600401610f4690614580565b60405180910390fd5b60016000806101000a81548160ff021916908360ff1602179055508015610f8c576001600060016101000a81548160ff0219169083151502179055505b610f9582612296565b8015610fee5760008060016101000a81548160ff0219169083151502179055507f7f26b83ff96e1f2b6a682f133852f6798a09c465da95921460cefb38474024986001604051610fe591906145f2565b60405180910390a15b5050565b60007fd9b67a26000000000000000000000000000000000000000000000000000000007bffffffffffffffffffffffffffffffffffffffffffffffffffffffff1916827bffffffffffffffffffffffffffffffffffffffffffffffffffffffff191614806110bd57507f0e89341c000000000000000000000000000000000000000000000000000000007bffffffffffffffffffffffffffffffffffffffffffffffffffffffff1916827bffffffffffffffffffffffffffffffffffffffffffffffffffffffff1916145b806110cd57506110cc82612302565b5b9050919050565b600033905090565b600073ffffffffffffffffffffffffffffffffffffffff168473ffffffffffffffffffffffffffffffffffffffff160361114b576040517f08c379a00000000000000000000000000000000000000000000000000000000081526004016111429061467f565b60405180910390fd5b815183511461118f576040517f08c379a000000000000000000000000000000000000000000000000000000000815260040161118690614711565b60405180910390fd5b60006111996110d4565b90506111aa8160008787878761237c565b60005b8451811015611264578381815181106111c9576111c86143d6565b5b602002602001015160c960008784815181106111e8576111e76143d6565b5b6020026020010151815260200190815260200160002060008873ffffffffffffffffffffffffffffffffffffffff1673ffffffffffffffffffffffffffffffffffffffff168152602001908152602001600020600082825461124a9190614731565b92505081905550808061125c90614434565b9150506111ad565b508473ffffffffffffffffffffffffffffffffffffffff16600073ffffffffffffffffffffffffffffffffffffffff168273ffffffffffffffffffffffffffffffffffffffff167f4a39dc06d4c0dbc64b70af90fd698a233a518aa5d07e595d983b8c0526c8f7fb87876040516112dc929190614787565b60405180910390a46112f381600087878787612392565b6113028160008787878761239a565b5050505050565b815183511461134d576040517f08c379a000000000000000000000000000000000000000000000000000000000815260040161134490614711565b60405180910390fd5b600073ffffffffffffffffffffffffffffffffffffffff168473ffffffffffffffffffffffffffffffffffffffff16036113bc576040517f08c379a00000000000000000000000000000000000000000000000000000000081526004016113b390614830565b60405180910390fd5b60006113c66110d4565b90506113d681878787878761237c565b60005b845181101561158a5760008582815181106113f7576113f66143d6565b5b602002602001015190506000858381518110611416576114156143d6565b5b60200260200101519050600060c9600084815260200190815260200160002060008b73ffffffffffffffffffffffffffffffffffffffff1673ffffffffffffffffffffffffffffffffffffffff168152602001908152602001600020549050818110156114b8576040517f08c379a00000000000000000000000000000000000000000000000000000000081526004016114af906148c2565b60405180910390fd5b81810360c9600085815260200190815260200160002060008c73ffffffffffffffffffffffffffffffffffffffff1673ffffffffffffffffffffffffffffffffffffffff168152602001908152602001600020819055508160c9600085815260200190815260200160002060008b73ffffffffffffffffffffffffffffffffffffffff1673ffffffffffffffffffffffffffffffffffffffff168152602001908152602001600020600082825461156f9190614731565b925050819055505050508061158390614434565b90506113d9565b508473ffffffffffffffffffffffffffffffffffffffff168673ffffffffffffffffffffffffffffffffffffffff168273ffffffffffffffffffffffffffffffffffffffff167f4a39dc06d4c0dbc64b70af90fd698a233a518aa5d07e595d983b8c0526c8f7fb8787604051611601929190614787565b60405180910390a4611617818787878787612392565b61162581878787878761239a565b505050505050565b61163e816116396110d4565b612571565b50565b61164b82826125f6565b61167081609760008581526020019081526020016000206126d790919063ffffffff16565b505050565b61167f8282612707565b6116a481609760008581526020019081526020016000206127e990919063ffffffff16565b505050565b6116b1612819565b600061012d60006101000a81548160ff0219169083151502179055507f5db9ee0a495bf2e6ff9c91a7834c1ba4fdd244a5e8aa4e537bd38aeae4b073aa6116f66110d4565b6040516117039190613d6f565b60405180910390a1565b600073ffffffffffffffffffffffffffffffffffffffff168373ffffffffffffffffffffffffffffffffffffffff160361177c576040517f08c379a000000000000000000000000000000000000000000000000000000000815260040161177390614954565b60405180910390fd5b80518251146117c0576040517f08c379a00000000000000000000000000000000000000000000000000000000081526004016117b790614711565b60405180910390fd5b60006117ca6110d4565b90506117ea8185600086866040518060200160405280600081525061237c565b60005b835181101561193957600084828151811061180b5761180a6143d6565b5b60200260200101519050600084838151811061182a576118296143d6565b5b60200260200101519050600060c9600084815260200190815260200160002060008973ffffffffffffffffffffffffffffffffffffffff1673ffffffffffffffffffffffffffffffffffffffff168152602001908152602001600020549050818110156118cc576040517f08c379a00000000000000000000000000000000000000000000000000000000081526004016118c3906149e6565b60405180910390fd5b81810360c9600085815260200190815260200160002060008a73ffffffffffffffffffffffffffffffffffffffff1673ffffffffffffffffffffffffffffffffffffffff16815260200190815260200160002081905550505050808061193190614434565b9150506117ed565b50600073ffffffffffffffffffffffffffffffffffffffff168473ffffffffffffffffffffffffffffffffffffffff168273ffffffffffffffffffffffffffffffffffffffff167f4a39dc06d4c0dbc64b70af90fd698a233a518aa5d07e595d983b8c0526c8f7fb86866040516119b1929190614787565b60405180910390a46119d781856000868660405180602001604052806000815250612392565b50505050565b600073ffffffffffffffffffffffffffffffffffffffff168473ffffffffffffffffffffffffffffffffffffffff1603611a4c576040517f08c379a0000000000000000000000000000000000000000000000000000000008152600401611a439061467f565b60405180910390fd5b6000611a566110d4565b90506000611a6385612862565b90506000611a7085612862565b9050611a818360008985858961237c565b8460c9600088815260200190815260200160002060008973ffffffffffffffffffffffffffffffffffffffff1673ffffffffffffffffffffffffffffffffffffffff1681526020019081526020016000206000828254611ae19190614731565b925050819055508673ffffffffffffffffffffffffffffffffffffffff16600073ffffffffffffffffffffffffffffffffffffffff168473ffffffffffffffffffffffffffffffffffffffff167fc3d58168c5ae7397731d063d5bbf3d657854427343f4c083240f7aacaa2d0f628989604051611b5f929190614a06565b60405180910390a4611b7683600089858589612392565b611b85836000898989896128dc565b50505050505050565b611b96612ab3565b600161012d60006101000a81548160ff0219169083151502179055507f62e78cea01bee320cd4e420270b5ea74000d11b0c9f74754ebdbfc544b05a258611bdb6110d4565b604051611be89190613d6f565b60405180910390a1565b6000611c018360000183612afd565b60001c905092915050565b8173ffffffffffffffffffffffffffffffffffffffff168373ffffffffffffffffffffffffffffffffffffffff1603611c7a576040517f08c379a0000000000000000000000000000000000000000000000000000000008152600401611c7190614aa1565b60405180910390fd5b8060ca60008573ffffffffffffffffffffffffffffffffffffffff1673ffffffffffffffffffffffffffffffffffffffff16815260200190815260200160002060008473ffffffffffffffffffffffffffffffffffffffff1673ffffffffffffffffffffffffffffffffffffffff16815260200190815260200160002060006101000a81548160ff0219169083151502179055508173ffffffffffffffffffffffffffffffffffffffff168373ffffffffffffffffffffffffffffffffffffffff167f17307eab39ab6107e8899845ad3d59bd9653f200f220920489ca2b5937696c3183604051611d6b91906134a0565b60405180910390a3505050565b6000611d8682600001612b28565b9050919050565b600073ffffffffffffffffffffffffffffffffffffffff168473ffffffffffffffffffffffffffffffffffffffff1603611dfc576040517f08c379a0000000000000000000000000000000000000000000000000000000008152600401611df390614830565b60405180910390fd5b6000611e066110d4565b90506000611e1385612862565b90506000611e2085612862565b9050611e3083898985858961237c565b600060c9600088815260200190815260200160002060008a73ffffffffffffffffffffffffffffffffffffffff1673ffffffffffffffffffffffffffffffffffffffff16815260200190815260200160002054905085811015611ec8576040517f08c379a0000000000000000000000000000000000000000000000000000000008152600401611ebf906148c2565b60405180910390fd5b85810360c9600089815260200190815260200160002060008b73ffffffffffffffffffffffffffffffffffffffff1673ffffffffffffffffffffffffffffffffffffffff168152602001908152602001600020819055508560c9600089815260200190815260200160002060008a73ffffffffffffffffffffffffffffffffffffffff1673ffffffffffffffffffffffffffffffffffffffff1681526020019081526020016000206000828254611f7f9190614731565b925050819055508773ffffffffffffffffffffffffffffffffffffffff168973ffffffffffffffffffffffffffffffffffffffff168573ffffffffffffffffffffffffffffffffffffffff167fc3d58168c5ae7397731d063d5bbf3d657854427343f4c083240f7aacaa2d0f628a8a604051611ffc929190614a06565b60405180910390a4612012848a8a86868a612392565b612020848a8a8a8a8a6128dc565b505050505050505050565b600073ffffffffffffffffffffffffffffffffffffffff168373ffffffffffffffffffffffffffffffffffffffff160361209a576040517f08c379a000000000000000000000000000000000000000000000000000000000815260040161209190614954565b60405180910390fd5b60006120a46110d4565b905060006120b184612862565b905060006120be84612862565b90506120de8387600085856040518060200160405280600081525061237c565b600060c9600087815260200190815260200160002060008873ffffffffffffffffffffffffffffffffffffffff1673ffffffffffffffffffffffffffffffffffffffff16815260200190815260200160002054905084811015612176576040517f08c379a000000000000000000000000000000000000000000000000000000000815260040161216d906149e6565b60405180910390fd5b84810360c9600088815260200190815260200160002060008973ffffffffffffffffffffffffffffffffffffffff1673ffffffffffffffffffffffffffffffffffffffff16815260200190815260200160002081905550600073ffffffffffffffffffffffffffffffffffffffff168773ffffffffffffffffffffffffffffffffffffffff168573ffffffffffffffffffffffffffffffffffffffff167fc3d58168c5ae7397731d063d5bbf3d657854427343f4c083240f7aacaa2d0f628989604051612244929190614a06565b60405180910390a461226a84886000868660405180602001604052806000815250612392565b50505050505050565b6000808273ffffffffffffffffffffffffffffffffffffffff163b119050919050565b600060019054906101000a900460ff166122e5576040517f08c379a00000000000000000000000000000000000000000000000000000000081526004016122dc90614b33565b60405180910390fd5b6122ee81612b39565b6122f6612b94565b6122ff81612c01565b50565b60007f5a05180f000000000000000000000000000000000000000000000000000000007bffffffffffffffffffffffffffffffffffffffffffffffffffffffff1916827bffffffffffffffffffffffffffffffffffffffffffffffffffffffff19161480612375575061237482612cc9565b5b9050919050565b61238a868686868686612d43565b505050505050565b505050505050565b6123b98473ffffffffffffffffffffffffffffffffffffffff16612273565b15612569578373ffffffffffffffffffffffffffffffffffffffff1663bc197c8187878686866040518663ffffffff1660e01b81526004016123ff959493929190614ba8565b6020604051808303816000875af192505050801561243b57506040513d601f19601f820116820180604052508101906124389190614c25565b60015b6124e057612447614c5f565b806308c379a0036124a3575061245b614c81565b8061246657506124a5565b806040517f08c379a000000000000000000000000000000000000000000000000000000000815260040161249a9190613581565b60405180910390fd5b505b6040517f08c379a00000000000000000000000000000000000000000000000000000000081526004016124d790614d83565b60405180910390fd5b63bc197c8160e01b7bffffffffffffffffffffffffffffffffffffffffffffffffffffffff1916817bffffffffffffffffffffffffffffffffffffffffffffffffffffffff191614612567576040517f08c379a000000000000000000000000000000000000000000000000000000000815260040161255e90614e15565b60405180910390fd5b505b505050505050565b61257b8282610bcb565b6125f25761258881612da1565b6125968360001c6020612dce565b6040516020016125a7929190614f09565b6040516020818303038152906040526040517f08c379a00000000000000000000000000000000000000000000000000000000081526004016125e99190613581565b60405180910390fd5b5050565b6126008282610bcb565b6126d35760016065600084815260200190815260200160002060000160008373ffffffffffffffffffffffffffffffffffffffff1673ffffffffffffffffffffffffffffffffffffffff16815260200190815260200160002060006101000a81548160ff0219169083151502179055506126786110d4565b73ffffffffffffffffffffffffffffffffffffffff168173ffffffffffffffffffffffffffffffffffffffff16837f2f8788117e7eff1d82e926ec794901d17c78024a50270940304540a733656f0d60405160405180910390a45b5050565b60006126ff836000018373ffffffffffffffffffffffffffffffffffffffff1660001b61300a565b905092915050565b6127118282610bcb565b156127e55760006065600084815260200190815260200160002060000160008373ffffffffffffffffffffffffffffffffffffffff1673ffffffffffffffffffffffffffffffffffffffff16815260200190815260200160002060006101000a81548160ff02191690831515021790555061278a6110d4565b73ffffffffffffffffffffffffffffffffffffffff168173ffffffffffffffffffffffffffffffffffffffff16837ff6391f5c32d9c69d2a47ea670b442974b53935d1edc7fd64eb21e047a839171b60405160405180910390a45b5050565b6000612811836000018373ffffffffffffffffffffffffffffffffffffffff1660001b61307a565b905092915050565b6128216109eb565b612860576040517f08c379a000000000000000000000000000000000000000000000000000000000815260040161285790614f8f565b60405180910390fd5b565b60606000600167ffffffffffffffff811115612881576128806135a8565b5b6040519080825280602002602001820160405280156128af5781602001602082028036833780820191505090505b50905082816000815181106128c7576128c66143d6565b5b60200260200101818152505080915050919050565b6128fb8473ffffffffffffffffffffffffffffffffffffffff16612273565b15612aab578373ffffffffffffffffffffffffffffffffffffffff1663f23a6e6187878686866040518663ffffffff1660e01b8152600401612941959493929190614faf565b6020604051808303816000875af192505050801561297d57506040513d601f19601f8201168201806040525081019061297a9190614c25565b60015b612a2257612989614c5f565b806308c379a0036129e5575061299d614c81565b806129a857506129e7565b806040517f08c379a00000000000000000000000000000000000000000000000000000000081526004016129dc9190613581565b60405180910390fd5b505b6040517f08c379a0000000000000000000000000000000000000000000000000000000008152600401612a1990614d83565b60405180910390fd5b63f23a6e6160e01b7bffffffffffffffffffffffffffffffffffffffffffffffffffffffff1916817bffffffffffffffffffffffffffffffffffffffffffffffffffffffff191614612aa9576040517f08c379a0000000000000000000000000000000000000000000000000000000008152600401612aa090614e15565b60405180910390fd5b505b505050505050565b612abb6109eb565b15612afb576040517f08c379a0000000000000000000000000000000000000000000000000000000008152600401612af290615055565b60405180910390fd5b565b6000826000018281548110612b1557612b146143d6565b5b9060005260206000200154905092915050565b600081600001805490509050919050565b600060019054906101000a900460ff16612b88576040517f08c379a0000000000000000000000000000000000000000000000000000000008152600401612b7f90614b33565b60405180910390fd5b612b918161318e565b50565b600060019054906101000a900460ff16612be3576040517f08c379a0000000000000000000000000000000000000000000000000000000008152600401612bda90614b33565b60405180910390fd5b600061012d60006101000a81548160ff021916908315150217905550565b600060019054906101000a900460ff16612c50576040517f08c379a0000000000000000000000000000000000000000000000000000000008152600401612c4790614b33565b60405180910390fd5b612c646000801b612c5f6110d4565b6131a8565b612c957f9f2df0fed2c77648de5860a4cc508cd0818c85b8b8a1ab4ceeef8d981c8956a6612c906110d4565b6131a8565b612cc67f65d7a28e3265b37a6474929f336521b332c1681b933f6cb9f3376673440d862a612cc16110d4565b6131a8565b50565b60007f7965db0b000000000000000000000000000000000000000000000000000000007bffffffffffffffffffffffffffffffffffffffffffffffffffffffff1916827bffffffffffffffffffffffffffffffffffffffffffffffffffffffff19161480612d3c5750612d3b826131b6565b5b9050919050565b612d51868686868686613220565b612d596109eb565b15612d99576040517f08c379a0000000000000000000000000000000000000000000000000000000008152600401612d90906150e7565b60405180910390fd5b505050505050565b6060612dc78273ffffffffffffffffffffffffffffffffffffffff16601460ff16612dce565b9050919050565b606060006002836002612de19190615107565b612deb9190614731565b67ffffffffffffffff811115612e0457612e036135a8565b5b6040519080825280601f01601f191660200182016040528015612e365781602001600182028036833780820191505090505b5090507f300000000000000000000000000000000000000000000000000000000000000081600081518110612e6e57612e6d6143d6565b5b60200101907effffffffffffffffffffffffffffffffffffffffffffffffffffffffffffff1916908160001a9053507f780000000000000000000000000000000000000000000000000000000000000081600181518110612ed257612ed16143d6565b5b60200101907effffffffffffffffffffffffffffffffffffffffffffffffffffffffffffff1916908160001a90535060006001846002612f129190615107565b612f1c9190614731565b90505b6001811115612fbc577f3031323334353637383961626364656600000000000000000000000000000000600f861660108110612f5e57612f5d6143d6565b5b1a60f81b828281518110612f7557612f746143d6565b5b60200101907effffffffffffffffffffffffffffffffffffffffffffffffffffffffffffff1916908160001a905350600485901c945080612fb590615161565b9050612f1f565b5060008414613000576040517f08c379a0000000000000000000000000000000000000000000000000000000008152600401612ff7906151d6565b60405180910390fd5b8091505092915050565b60006130168383613228565b61306f578260000182908060018154018082558091505060019003906000526020600020016000909190919091505582600001805490508360010160008481526020019081526020016000208190555060019050613074565b600090505b92915050565b600080836001016000848152602001908152602001600020549050600081146131825760006001826130ac91906151f6565b90506000600186600001805490506130c491906151f6565b90508181146131335760008660000182815481106130e5576130e46143d6565b5b9060005260206000200154905080876000018481548110613109576131086143d6565b5b90600052602060002001819055508387600101600083815260200190815260200160002081905550505b856000018054806131475761314661522a565b5b600190038181906000526020600020016000905590558560010160008681526020019081526020016000206000905560019350505050613188565b60009150505b92915050565b8060cb90805190602001906131a492919061324b565b5050565b6131b28282611641565b5050565b60007f01ffc9a7000000000000000000000000000000000000000000000000000000007bffffffffffffffffffffffffffffffffffffffffffffffffffffffff1916827bffffffffffffffffffffffffffffffffffffffffffffffffffffffff1916149050919050565b505050505050565b600080836001016000848152602001908152602001600020541415905092915050565b828054613257906140cb565b90600052602060002090601f01602090048101928261327957600085556132c0565b82601f1061329257805160ff19168380011785556132c0565b828001600101855582156132c0579182015b828111156132bf5782518255916020019190600101906132a4565b5b5090506132cd91906132d1565b5090565b5b808211156132ea5760008160009055506001016132d2565b5090565b6000604051905090565b600080fd5b600080fd5b600073ffffffffffffffffffffffffffffffffffffffff82169050919050565b600061332d82613302565b9050919050565b61333d81613322565b811461334857600080fd5b50565b60008135905061335a81613334565b92915050565b6000819050919050565b61337381613360565b811461337e57600080fd5b50565b6000813590506133908161336a565b92915050565b600080604083850312156133ad576133ac6132f8565b5b60006133bb8582860161334b565b92505060206133cc85828601613381565b9150509250929050565b6133df81613360565b82525050565b60006020820190506133fa60008301846133d6565b92915050565b60007fffffffff0000000000000000000000000000000000000000000000000000000082169050919050565b61343581613400565b811461344057600080fd5b50565b6000813590506134528161342c565b92915050565b60006020828403121561346e5761346d6132f8565b5b600061347c84828501613443565b91505092915050565b60008115159050919050565b61349a81613485565b82525050565b60006020820190506134b56000830184613491565b92915050565b6000602082840312156134d1576134d06132f8565b5b60006134df84828501613381565b91505092915050565b600081519050919050565b600082825260208201905092915050565b60005b83811015613522578082015181840152602081019050613507565b83811115613531576000848401525b50505050565b6000601f19601f8301169050919050565b6000613553826134e8565b61355d81856134f3565b935061356d818560208601613504565b61357681613537565b840191505092915050565b6000602082019050818103600083015261359b8184613548565b905092915050565b600080fd5b7f4e487b7100000000000000000000000000000000000000000000000000000000600052604160045260246000fd5b6135e082613537565b810181811067ffffffffffffffff821117156135ff576135fe6135a8565b5b80604052505050565b60006136126132ee565b905061361e82826135d7565b919050565b600067ffffffffffffffff82111561363e5761363d6135a8565b5b602082029050602081019050919050565b600080fd5b600061366761366284613623565b613608565b9050808382526020820190506020840283018581111561368a5761368961364f565b5b835b818110156136b3578061369f8882613381565b84526020840193505060208101905061368c565b5050509392505050565b600082601f8301126136d2576136d16135a3565b5b81356136e2848260208601613654565b91505092915050565b600080fd5b600067ffffffffffffffff82111561370b5761370a6135a8565b5b61371482613537565b9050602081019050919050565b82818337600083830152505050565b600061374361373e846136f0565b613608565b90508281526020810184848401111561375f5761375e6136eb565b5b61376a848285613721565b509392505050565b600082601f830112613787576137866135a3565b5b8135613797848260208601613730565b91505092915050565b600080600080608085870312156137ba576137b96132f8565b5b60006137c88782880161334b565b945050602085013567ffffffffffffffff8111156137e9576137e86132fd565b5b6137f5878288016136bd565b935050604085013567ffffffffffffffff811115613816576138156132fd565b5b613822878288016136bd565b925050606085013567ffffffffffffffff811115613843576138426132fd565b5b61384f87828801613772565b91505092959194509250565b6000819050919050565b61386e8161385b565b811461387957600080fd5b50565b60008135905061388b81613865565b92915050565b6000602082840312156138a7576138a66132f8565b5b60006138b58482850161387c565b91505092915050565b6138c78161385b565b82525050565b60006020820190506138e260008301846138be565b92915050565b600080600080600060a08688031215613904576139036132f8565b5b60006139128882890161334b565b95505060206139238882890161334b565b945050604086013567ffffffffffffffff811115613944576139436132fd565b5b613950888289016136bd565b935050606086013567ffffffffffffffff811115613971576139706132fd565b5b61397d888289016136bd565b925050608086013567ffffffffffffffff81111561399e5761399d6132fd565b5b6139aa88828901613772565b9150509295509295909350565b600080604083850312156139ce576139cd6132f8565b5b60006139dc8582860161387c565b92505060206139ed8582860161334b565b9150509250929050565b600067ffffffffffffffff821115613a1257613a116135a8565b5b602082029050602081019050919050565b6000613a36613a31846139f7565b613608565b90508083825260208201905060208402830185811115613a5957613a5861364f565b5b835b81811015613a825780613a6e888261334b565b845260208401935050602081019050613a5b565b5050509392505050565b600082601f830112613aa157613aa06135a3565b5b8135613ab1848260208601613a23565b91505092915050565b60008060408385031215613ad157613ad06132f8565b5b600083013567ffffffffffffffff811115613aef57613aee6132fd565b5b613afb85828601613a8c565b925050602083013567ffffffffffffffff811115613b1c57613b1b6132fd565b5b613b28858286016136bd565b9150509250929050565b600081519050919050565b600082825260208201905092915050565b6000819050602082019050919050565b613b6781613360565b82525050565b6000613b798383613b5e565b60208301905092915050565b6000602082019050919050565b6000613b9d82613b32565b613ba78185613b3d565b9350613bb283613b4e565b8060005b83811015613be3578151613bca8882613b6d565b9750613bd583613b85565b925050600181019050613bb6565b5085935050505092915050565b60006020820190508181036000830152613c0a8184613b92565b905092915050565b600080600060608486031215613c2b57613c2a6132f8565b5b6000613c398682870161334b565b935050602084013567ffffffffffffffff811115613c5a57613c596132fd565b5b613c66868287016136bd565b925050604084013567ffffffffffffffff811115613c8757613c866132fd565b5b613c93868287016136bd565b9150509250925092565b60008060008060808587031215613cb757613cb66132f8565b5b6000613cc58782880161334b565b9450506020613cd687828801613381565b9350506040613ce787828801613381565b925050606085013567ffffffffffffffff811115613d0857613d076132fd565b5b613d1487828801613772565b91505092959194509250565b60008060408385031215613d3757613d366132f8565b5b6000613d458582860161387c565b9250506020613d5685828601613381565b9150509250929050565b613d6981613322565b82525050565b6000602082019050613d846000830184613d60565b92915050565b613d9381613485565b8114613d9e57600080fd5b50565b600081359050613db081613d8a565b92915050565b60008060408385031215613dcd57613dcc6132f8565b5b6000613ddb8582860161334b565b9250506020613dec85828601613da1565b9150509250929050565b60008060408385031215613e0d57613e0c6132f8565b5b6000613e1b8582860161334b565b9250506020613e2c8582860161334b565b9150509250929050565b600080600080600060a08688031215613e5257613e516132f8565b5b6000613e608882890161334b565b9550506020613e718882890161334b565b9450506040613e8288828901613381565b9350506060613e9388828901613381565b925050608086013567ffffffffffffffff811115613eb457613eb36132fd565b5b613ec088828901613772565b9150509295509295909350565b600080600060608486031215613ee657613ee56132f8565b5b6000613ef48682870161334b565b9350506020613f0586828701613381565b9250506040613f1686828701613381565b9150509250925092565b600067ffffffffffffffff821115613f3b57613f3a6135a8565b5b613f4482613537565b9050602081019050919050565b6000613f64613f5f84613f20565b613608565b905082815260208101848484011115613f8057613f7f6136eb565b5b613f8b848285613721565b509392505050565b600082601f830112613fa857613fa76135a3565b5b8135613fb8848260208601613f51565b91505092915050565b600060208284031215613fd757613fd66132f8565b5b600082013567ffffffffffffffff811115613ff557613ff46132fd565b5b61400184828501613f93565b91505092915050565b7f455243313135353a2061646472657373207a65726f206973206e6f742061207660008201527f616c6964206f776e657200000000000000000000000000000000000000000000602082015250565b6000614066602a836134f3565b91506140718261400a565b604082019050919050565b6000602082019050818103600083015261409581614059565b9050919050565b7f4e487b7100000000000000000000000000000000000000000000000000000000600052602260045260246000fd5b600060028204905060018216806140e357607f821691505b6020821081036140f6576140f561409c565b5b50919050565b7f455243313135355072657365744d696e7465725061757365723a206d7573742060008201527f68617665206d696e74657220726f6c6520746f206d696e740000000000000000602082015250565b60006141586038836134f3565b9150614163826140fc565b604082019050919050565b600060208201905081810360008301526141878161414b565b9050919050565b7f455243313135353a2063616c6c6572206973206e6f7420746f6b656e206f776e60008201527f6572206f7220617070726f766564000000000000000000000000000000000000602082015250565b60006141ea602e836134f3565b91506141f58261418e565b604082019050919050565b60006020820190508181036000830152614219816141dd565b9050919050565b7f416363657373436f6e74726f6c3a2063616e206f6e6c792072656e6f756e636560008201527f20726f6c657320666f722073656c660000000000000000000000000000000000602082015250565b600061427c602f836134f3565b915061428782614220565b604082019050919050565b600060208201905081810360008301526142ab8161426f565b9050919050565b7f455243313135355072657365744d696e7465725061757365723a206d7573742060008201527f686176652070617573657220726f6c6520746f20756e70617573650000000000602082015250565b600061430e603b836134f3565b9150614319826142b2565b604082019050919050565b6000602082019050818103600083015261433d81614301565b9050919050565b7f455243313135353a206163636f756e747320616e6420696473206c656e67746860008201527f206d69736d617463680000000000000000000000000000000000000000000000602082015250565b60006143a06029836134f3565b91506143ab82614344565b604082019050919050565b600060208201905081810360008301526143cf81614393565b9050919050565b7f4e487b7100000000000000000000000000000000000000000000000000000000600052603260045260246000fd5b7f4e487b7100000000000000000000000000000000000000000000000000000000600052601160045260246000fd5b600061443f82613360565b91507fffffffffffffffffffffffffffffffffffffffffffffffffffffffffffffffff820361447157614470614405565b5b600182019050919050565b7f455243313135355072657365744d696e7465725061757365723a206d7573742060008201527f686176652070617573657220726f6c6520746f20706175736500000000000000602082015250565b60006144d86039836134f3565b91506144e38261447c565b604082019050919050565b60006020820190508181036000830152614507816144cb565b9050919050565b7f496e697469616c697a61626c653a20636f6e747261637420697320616c72656160008201527f647920696e697469616c697a6564000000000000000000000000000000000000602082015250565b600061456a602e836134f3565b91506145758261450e565b604082019050919050565b600060208201905081810360008301526145998161455d565b9050919050565b6000819050919050565b600060ff82169050919050565b6000819050919050565b60006145dc6145d76145d2846145a0565b6145b7565b6145aa565b9050919050565b6145ec816145c1565b82525050565b600060208201905061460760008301846145e3565b92915050565b7f455243313135353a206d696e7420746f20746865207a65726f2061646472657360008201527f7300000000000000000000000000000000000000000000000000000000000000602082015250565b60006146696021836134f3565b91506146748261460d565b604082019050919050565b600060208201905081810360008301526146988161465c565b9050919050565b7f455243313135353a2069647320616e6420616d6f756e7473206c656e6774682060008201527f6d69736d61746368000000000000000000000000000000000000000000000000602082015250565b60006146fb6028836134f3565b91506147068261469f565b604082019050919050565b6000602082019050818103600083015261472a816146ee565b9050919050565b600061473c82613360565b915061474783613360565b9250827fffffffffffffffffffffffffffffffffffffffffffffffffffffffffffffffff0382111561477c5761477b614405565b5b828201905092915050565b600060408201905081810360008301526147a18185613b92565b905081810360208301526147b58184613b92565b90509392505050565b7f455243313135353a207472616e7366657220746f20746865207a65726f20616460008201527f6472657373000000000000000000000000000000000000000000000000000000602082015250565b600061481a6025836134f3565b9150614825826147be565b604082019050919050565b600060208201905081810360008301526148498161480d565b9050919050565b7f455243313135353a20696e73756666696369656e742062616c616e636520666f60008201527f72207472616e7366657200000000000000000000000000000000000000000000602082015250565b60006148ac602a836134f3565b91506148b782614850565b604082019050919050565b600060208201905081810360008301526148db8161489f565b9050919050565b7f455243313135353a206275726e2066726f6d20746865207a65726f206164647260008201527f6573730000000000000000000000000000000000000000000000000000000000602082015250565b600061493e6023836134f3565b9150614949826148e2565b604082019050919050565b6000602082019050818103600083015261496d81614931565b9050919050565b7f455243313135353a206275726e20616d6f756e7420657863656564732062616c60008201527f616e636500000000000000000000000000000000000000000000000000000000602082015250565b60006149d06024836134f3565b91506149db82614974565b604082019050919050565b600060208201905081810360008301526149ff816149c3565b9050919050565b6000604082019050614a1b60008301856133d6565b614a2860208301846133d6565b9392505050565b7f455243313135353a2073657474696e6720617070726f76616c2073746174757360008201527f20666f722073656c660000000000000000000000000000000000000000000000602082015250565b6000614a8b6029836134f3565b9150614a9682614a2f565b604082019050919050565b60006020820190508181036000830152614aba81614a7e565b9050919050565b7f496e697469616c697a61626c653a20636f6e7472616374206973206e6f74206960008201527f6e697469616c697a696e67000000000000000000000000000000000000000000602082015250565b6000614b1d602b836134f3565b9150614b2882614ac1565b604082019050919050565b60006020820190508181036000830152614b4c81614b10565b9050919050565b600081519050919050565b600082825260208201905092915050565b6000614b7a82614b53565b614b848185614b5e565b9350614b94818560208601613504565b614b9d81613537565b840191505092915050565b600060a082019050614bbd6000830188613d60565b614bca6020830187613d60565b8181036040830152614bdc8186613b92565b90508181036060830152614bf08185613b92565b90508181036080830152614c048184614b6f565b90509695505050505050565b600081519050614c1f8161342c565b92915050565b600060208284031215614c3b57614c3a6132f8565b5b6000614c4984828501614c10565b91505092915050565b60008160e01c9050919050565b600060033d1115614c7e5760046000803e614c7b600051614c52565b90505b90565b600060443d10614d0e57614c936132ee565b60043d036004823e80513d602482011167ffffffffffffffff82111715614cbb575050614d0e565b808201805167ffffffffffffffff811115614cd95750505050614d0e565b80602083010160043d038501811115614cf6575050505050614d0e565b614d05826020018501866135d7565b82955050505050505b90565b7f455243313135353a207472616e7366657220746f206e6f6e2d4552433131353560008201527f526563656976657220696d706c656d656e746572000000000000000000000000602082015250565b6000614d6d6034836134f3565b9150614d7882614d11565b604082019050919050565b60006020820190508181036000830152614d9c81614d60565b9050919050565b7f455243313135353a204552433131353552656365697665722072656a6563746560008201527f6420746f6b656e73000000000000000000000000000000000000000000000000602082015250565b6000614dff6028836134f3565b9150614e0a82614da3565b604082019050919050565b60006020820190508181036000830152614e2e81614df2565b9050919050565b600081905092915050565b7f416363657373436f6e74726f6c3a206163636f756e7420000000000000000000600082015250565b6000614e76601783614e35565b9150614e8182614e40565b601782019050919050565b6000614e97826134e8565b614ea18185614e35565b9350614eb1818560208601613504565b80840191505092915050565b7f206973206d697373696e6720726f6c6520000000000000000000000000000000600082015250565b6000614ef3601183614e35565b9150614efe82614ebd565b601182019050919050565b6000614f1482614e69565b9150614f208285614e8c565b9150614f2b82614ee6565b9150614f378284614e8c565b91508190509392505050565b7f5061757361626c653a206e6f7420706175736564000000000000000000000000600082015250565b6000614f796014836134f3565b9150614f8482614f43565b602082019050919050565b60006020820190508181036000830152614fa881614f6c565b9050919050565b600060a082019050614fc46000830188613d60565b614fd16020830187613d60565b614fde60408301866133d6565b614feb60608301856133d6565b8181036080830152614ffd8184614b6f565b90509695505050505050565b7f5061757361626c653a2070617573656400000000000000000000000000000000600082015250565b600061503f6010836134f3565b915061504a82615009565b602082019050919050565b6000602082019050818103600083015261506e81615032565b9050919050565b7f455243313135355061757361626c653a20746f6b656e207472616e736665722060008201527f7768696c65207061757365640000000000000000000000000000000000000000602082015250565b60006150d1602c836134f3565b91506150dc82615075565b604082019050919050565b60006020820190508181036000830152615100816150c4565b9050919050565b600061511282613360565b915061511d83613360565b9250817fffffffffffffffffffffffffffffffffffffffffffffffffffffffffffffffff048311821515161561515657615155614405565b5b828202905092915050565b600061516c82613360565b91506000820361517f5761517e614405565b5b600182039050919050565b7f537472696e67733a20686578206c656e67746820696e73756666696369656e74600082015250565b60006151c06020836134f3565b91506151cb8261518a565b602082019050919050565b600060208201905081810360008301526151ef816151b3565b9050919050565b600061520182613360565b915061520c83613360565b92508282101561521f5761521e614405565b5b828203905092915050565b7f4e487b7100000000000000000000000000000000000000000000000000000000600052603160045260246000fdfea26469706673582212201b3a2505b1f7bb9a2c75f910b1e972822d30a88a1e63548126143cbde01e799b64736f6c634300080d0033","linkReferences":{}},"methodIdentifiers":{"DEFAULT_ADMIN_ROLE()":"a217fddf","MINTER_ROLE()":"d5391393","PAUSER_ROLE()":"e63ab1e9","balanceOf(address,uint256)":"00fdd58e","balanceOfBatch(address[],uint256[])":"4e1273f4","burn(address,uint256,uint256)":"f5298aca","burnBatch(address,uint256[],uint256[])":"6b20c454","getRoleAdmin(bytes32)":"248a9ca3","getRoleMember(bytes32,uint256)":"9010d07c","getRoleMemberCount(bytes32)":"ca15c873","grantRole(bytes32,address)":"2f2ff15d","hasRole(bytes32,address)":"91d14854","initialize(string)":"f62d1888","isApprovedForAll(address,address)":"e985e9c5","mint(address,uint256,uint256,bytes)":"731133e9","mintBatch(address,uint256[],uint256[],bytes)":"1f7fdffa","pause()":"8456cb59","paused()":"5c975abb","renounceRole(bytes32,address)":"36568abe","revokeRole(bytes32,address)":"d547741f","safeBatchTransferFrom(address,address,uint256[],uint256[],bytes)":"2eb2c2d6","safeTransferFrom(address,address,uint256,uint256,bytes)":"f242432a","setApprovalForAll(address,bool)":"a22cb465","supportsInterface(bytes4)":"01ffc9a7","unpause()":"3f4ba83a","uri(uint256)":"0e89341c"},"id":107}