{"abi":[{"type":"function","name":"allowance","inputs":[{"name":"holder","type":"address","internalType":"address"},{"name":"spender","type":"address","internalType":"address"}],"outputs":[{"name":"","type":"uint256","internalType":"uint256"}],"stateMutability":"view"},{"type":"function","name":"approve","inputs":[{"name":"spender","type":"address","internalType":"address"},{"name":"value","type":"uint256","internalType":"uint256"}],"outputs":[{"name":"","type":"bool","internalType":"bool"}],"stateMutability":"nonpayable"},{"type":"function","name":"authorizeOperator","inputs":[{"name":"operator","type":"address","internalType":"address"}],"outputs":[],"stateMutability":"nonpayable"},{"type":"function","name":"balanceOf","inputs":[{"name":"tokenHolder","type":"address","internalType":"address"}],"outputs":[{"name":"","type":"uint256","internalType":"uint256"}],"stateMutability":"view"},{"type":"function","name":"burn","inputs":[{"name":"amount","type":"uint256","internalType":"uint256"},{"name":"data","type":"bytes","internalType":"bytes"}],"outputs":[],"stateMutability":"nonpayable"},{"type":"function","name":"decimals","inputs":[],"outputs":[{"name":"","type":"uint8","internalType":"uint8"}],"stateMutability":"pure"},{"type":"function","name":"defaultOperators","inputs":[],"outputs":[{"name":"","type":"address[]","internalType":"address[]"}],"stateMutability":"view"},{"type":"function","name":"granularity","inputs":[],"outputs":[{"name":"","type":"uint256","internalType":"uint256"}],"stateMutability":"view"},{"type":"function","name":"initialize","inputs":[{"name":"name","type":"string","internalType":"string"},{"name":"symbol","type":"string","internalType":"string"},{"name":"defaultOperators","type":"address[]","internalType":"address[]"},{"name":"initialSupply","type":"uint256","internalType":"uint256"},{"name":"owner","type":"address","internalType":"address"}],"outputs":[],"stateMutability":"nonpayable"},{"type":"function","name":"isOperatorFor","inputs":[{"name":"operator","type":"address","internalType":"address"},{"name":"tokenHolder","type":"address","internalType":"address"}],"outputs":[{"name":"","type":"bool","internalType":"bool"}],"stateMutability":"view"},{"type":"function","name":"name","inputs":[],"outputs":[{"name":"","type":"string","internalType":"string"}],"stateMutability":"view"},{"type":"function","name":"operatorBurn","inputs":[{"name":"account","type":"address","internalType":"address"},{"name":"amount","type":"uint256","internalType":"uint256"},{"name":"data","type":"bytes","internalType":"bytes"},{"name":"operatorData","type":"bytes","internalType":"bytes"}],"outputs":[],"stateMutability":"nonpayable"},{"type":"function","name":"operatorSend","inputs":[{"name":"sender","type":"address","internalType":"address"},{"name":"recipient","type":"address","internalType":"address"},{"name":"amount","type":"uint256","internalType":"uint256"},{"name":"data","type":"bytes","internalType":"bytes"},{"name":"operatorData","type":"bytes","internalType":"bytes"}],"outputs":[],"stateMutability":"nonpayable"},{"type":"function","name":"revokeOperator","inputs":[{"name":"operator","type":"address","internalType":"address"}],"outputs":[],"stateMutability":"nonpayable"},{"type":"function","name":"send","inputs":[{"name":"recipient","type":"address","internalType":"address"},{"name":"amount","type":"uint256","internalType":"uint256"},{"name":"data","type":"bytes","internalType":"bytes"}],"outputs":[],"stateMutability":"nonpayable"},{"type":"function","name":"symbol","inputs":[],"outputs":[{"name":"","type":"string","internalType":"string"}],"stateMutability":"view"},{"type":"function","name":"totalSupply","inputs":[],"outputs":[{"name":"","type":"uint256","internalType":"uint256"}],"stateMutability":"view"},{"type":"function","name":"transfer","inputs":[{"name":"recipient","type":"address","internalType":"address"},{"name":"amount","type":"uint256","internalType":"uint256"}],"outputs":[{"name":"","type":"bool","internalType":"bool"}],"stateMutability":"nonpayable"},{"type":"function","name":"transferFrom","inputs":[{"name":"holder","type":"address","internalType":"address"},{"name":"recipient","type":"address","internalType":"address"},{"name":"amount","type":"uint256","internalType":"uint256"}],"outputs":[{"name":"","type":"bool","internalType":"bool"}],"stateMutability":"nonpayable"},{"type":"event","name":"Approval","inputs":[{"name":"owner","type":"address","indexed":true,"internalType":"address"},{"name":"spender","type":"address","indexed":true,"internalType":"address"},{"name":"value","type":"uint256","indexed":false,"internalType":"uint256"}],"anonymous":false},{"type":"event","name":"AuthorizedOperator","inputs":[{"name":"operator","type":"address","indexed":true,"internalType":"address"},{"name":"tokenHolder","type":"address","indexed":true,"internalType":"address"}],"anonymous":false},{"type":"event","name":"Burned","inputs":[{"name":"operator","type":"address","indexed":true,"internalType":"address"},{"name":"from","type":"address","indexed":true,"internalType":"address"},{"name":"amount","type":"uint256","indexed":false,"internalType":"uint256"},{"name":"data","type":"bytes","indexed":false,"internalType":"bytes"},{"name":"operatorData","type":"bytes","indexed":false,"internalType":"bytes"}],"anonymous":false},{"type":"event","name":"Initialized","inputs":[{"name":"version","type":"uint8","indexed":false,"internalType":"uint8"}],"anonymous":false},{"type":"event","name":"Minted","inputs":[{"name":"operator","type":"address","indexed":true,"internalType":"address"},{"name":"to","type":"address","indexed":true,"internalType":"address"},{"name":"amount","type":"uint256","indexed":false,"internalType":"uint256"},{"name":"data","type":"bytes","indexed":false,"internalType":"bytes"},{"name":"operatorData","type":"bytes","indexed":false,"internalType":"bytes"}],"anonymous":false},{"type":"event","name":"RevokedOperator","inputs":[{"name":"operator","type":"address","indexed":true,"internalType":"address"},{"name":"tokenHolder","type":"address","indexed":true,"internalType":"address"}],"anonymous":false},{"type":"event","name":"Sent","inputs":[{"name":"operator","type":"address","indexed":true,"internalType":"address"},{"name":"from","type":"address","indexed":true,"internalType":"address"},{"name":"to","type":"address","indexed":true,"internalType":"address"},{"name":"amount","type":"uint256","indexed":false,"internalType":"uint256"},{"name":"data","type":"bytes","indexed":false,"internalType":"bytes"},{"name":"operatorData","type":"bytes","indexed":false,"internalType":"bytes"}],"anonymous":false},{"type":"event","name":"Transfer","inputs":[{"name":"from","type":"address","indexed":true,"internalType":"address"},{"name":"to","type":"address","indexed":true,"internalType":"address"},{"name":"value","type":"uint256","indexed":false,"internalType":"uint256"}],"anonymous":false}],"bytecode":{"object":"0x608060405234801561001057600080fd5b50613772806100206000396000f3fe608060405234801561001057600080fd5b50600436106101215760003560e01c8063768f950a116100ad578063d95b637111610071578063d95b63711461030a578063dd62ed3e1461033a578063fad8b32a1461036a578063fc673c4f14610386578063fe9d9303146103a257610121565b8063768f950a14610268578063959b8c3f1461028457806395d89b41146102a05780639bd9bbc6146102be578063a9059cbb146102da57610121565b806323b872dd116100f457806323b872dd146101b0578063313ce567146101e0578063556f0dc7146101fe57806362ad1b831461021c57806370a082311461023857610121565b806306e485381461012657806306fdde0314610144578063095ea7b31461016257806318160ddd14610192575b600080fd5b61012e6103be565b60405161013b919061229d565b60405180910390f35b61014c61044c565b6040516101599190612358565b60405180910390f35b61017c600480360381019061017791906123f0565b6104de565b604051610189919061244b565b60405180910390f35b61019a610501565b6040516101a79190612475565b60405180910390f35b6101ca60048036038101906101c59190612490565b61050b565b6040516101d7919061244b565b60405180910390f35b6101e861055c565b6040516101f591906124ff565b60405180910390f35b610206610565565b6040516102139190612475565b60405180910390f35b6102366004803603810190610231919061264f565b61056e565b005b610252600480360381019061024d9190612702565b6105d4565b60405161025f9190612475565b60405180910390f35b610282600480360381019061027d9190612898565b61061d565b005b61029e60048036038101906102999190612702565b610765565b005b6102a86109c5565b6040516102b59190612358565b60405180910390f35b6102d860048036038101906102d39190612967565b610a57565b005b6102f460048036038101906102ef91906123f0565b610a81565b604051610301919061244b565b60405180910390f35b610324600480360381019061031f91906129d6565b610ac1565b604051610331919061244b565b60405180910390f35b610354600480360381019061034f91906129d6565b610c72565b6040516103619190612475565b60405180910390f35b610384600480360381019061037f9190612702565b610cf9565b005b6103a0600480360381019061039b9190612a16565b610f59565b005b6103bc60048036038101906103b79190612ab5565b610fbb565b005b6060603780548060200260200160405190810160405280929190818152602001828054801561044257602002820191906000526020600020905b8160009054906101000a900473ffffffffffffffffffffffffffffffffffffffff1673ffffffffffffffffffffffffffffffffffffffff16815260200190600101908083116103f8575b5050505050905090565b60606035805461045b90612b40565b80601f016020809104026020016040519081016040528092919081815260200182805461048790612b40565b80156104d45780601f106104a9576101008083540402835291602001916104d4565b820191906000526020600020905b8154815290600101906020018083116104b757829003601f168201915b5050505050905090565b6000806104e9610fe1565b90506104f6818585610fe9565b600191505092915050565b6000603454905090565b600080610516610fe1565b90506105238582856111b2565b6105508585856040518060200160405280600081525060405180602001604052806000815250600061123e565b60019150509392505050565b60006012905090565b60006001905090565b61057f610579610fe1565b86610ac1565b6105be576040517f08c379a00000000000000000000000000000000000000000000000000000000081526004016105b590612be3565b60405180910390fd5b6105cd8585858585600161123e565b5050505050565b6000603360008373ffffffffffffffffffffffffffffffffffffffff1673ffffffffffffffffffffffffffffffffffffffff168152602001908152602001600020549050919050565b60008060019054906101000a900460ff1615905080801561064e5750600160008054906101000a900460ff1660ff16105b8061067b575061065d3061135c565b15801561067a5750600160008054906101000a900460ff1660ff16145b5b6106ba576040517f08c379a00000000000000000000000000000000000000000000000000000000081526004016106b190612c75565b60405180910390fd5b60016000806101000a81548160ff021916908360ff16021790555080156106f7576001600060016101000a81548160ff0219169083151502179055505b610704868686868661137f565b801561075d5760008060016101000a81548160ff0219169083151502179055507f7f26b83ff96e1f2b6a682f133852f6798a09c465da95921460cefb384740249860016040516107549190612cda565b60405180910390a15b505050505050565b8073ffffffffffffffffffffffffffffffffffffffff16610784610fe1565b73ffffffffffffffffffffffffffffffffffffffff16036107da576040517f08c379a00000000000000000000000000000000000000000000000000000000081526004016107d190612d67565b60405180910390fd5b603860008273ffffffffffffffffffffffffffffffffffffffff1673ffffffffffffffffffffffffffffffffffffffff16815260200190815260200160002060009054906101000a900460ff16156108c457603a6000610838610fe1565b73ffffffffffffffffffffffffffffffffffffffff1673ffffffffffffffffffffffffffffffffffffffff16815260200190815260200160002060008273ffffffffffffffffffffffffffffffffffffffff1673ffffffffffffffffffffffffffffffffffffffff16815260200190815260200160002060006101000a81549060ff0219169055610961565b6001603960006108d2610fe1565b73ffffffffffffffffffffffffffffffffffffffff1673ffffffffffffffffffffffffffffffffffffffff16815260200190815260200160002060008373ffffffffffffffffffffffffffffffffffffffff1673ffffffffffffffffffffffffffffffffffffffff16815260200190815260200160002060006101000a81548160ff0219169083151502179055505b610969610fe1565b73ffffffffffffffffffffffffffffffffffffffff168173ffffffffffffffffffffffffffffffffffffffff167ff4caeb2d6ca8932a215a353d0703c326ec2d81fc68170f320eb2ab49e9df61f960405160405180910390a350565b6060603680546109d490612b40565b80601f0160208091040260200160405190810160405280929190818152602001828054610a0090612b40565b8015610a4d5780601f10610a2257610100808354040283529160200191610a4d565b820191906000526020600020905b815481529060010190602001808311610a3057829003601f168201915b5050505050905090565b610a7c610a62610fe1565b84848460405180602001604052806000815250600161123e565b505050565b6000610ab7610a8e610fe1565b84846040518060200160405280600081525060405180602001604052806000815250600061123e565b6001905092915050565b60008173ffffffffffffffffffffffffffffffffffffffff168373ffffffffffffffffffffffffffffffffffffffff161480610bd95750603860008473ffffffffffffffffffffffffffffffffffffffff1673ffffffffffffffffffffffffffffffffffffffff16815260200190815260200160002060009054906101000a900460ff168015610bd85750603a60008373ffffffffffffffffffffffffffffffffffffffff1673ffffffffffffffffffffffffffffffffffffffff16815260200190815260200160002060008473ffffffffffffffffffffffffffffffffffffffff1673ffffffffffffffffffffffffffffffffffffffff16815260200190815260200160002060009054906101000a900460ff16155b5b80610c6a5750603960008373ffffffffffffffffffffffffffffffffffffffff1673ffffffffffffffffffffffffffffffffffffffff16815260200190815260200160002060008473ffffffffffffffffffffffffffffffffffffffff1673ffffffffffffffffffffffffffffffffffffffff16815260200190815260200160002060009054906101000a900460ff165b905092915050565b6000603b60008473ffffffffffffffffffffffffffffffffffffffff1673ffffffffffffffffffffffffffffffffffffffff16815260200190815260200160002060008373ffffffffffffffffffffffffffffffffffffffff1673ffffffffffffffffffffffffffffffffffffffff16815260200190815260200160002054905092915050565b610d01610fe1565b73ffffffffffffffffffffffffffffffffffffffff168173ffffffffffffffffffffffffffffffffffffffff1603610d6e576040517f08c379a0000000000000000000000000000000000000000000000000000000008152600401610d6590612df9565b60405180910390fd5b603860008273ffffffffffffffffffffffffffffffffffffffff1673ffffffffffffffffffffffffffffffffffffffff16815260200190815260200160002060009054906101000a900460ff1615610e61576001603a6000610dce610fe1565b73ffffffffffffffffffffffffffffffffffffffff1673ffffffffffffffffffffffffffffffffffffffff16815260200190815260200160002060008373ffffffffffffffffffffffffffffffffffffffff1673ffffffffffffffffffffffffffffffffffffffff16815260200190815260200160002060006101000a81548160ff021916908315150217905550610ef5565b60396000610e6d610fe1565b73ffffffffffffffffffffffffffffffffffffffff1673ffffffffffffffffffffffffffffffffffffffff16815260200190815260200160002060008273ffffffffffffffffffffffffffffffffffffffff1673ffffffffffffffffffffffffffffffffffffffff16815260200190815260200160002060006101000a81549060ff02191690555b610efd610fe1565b73ffffffffffffffffffffffffffffffffffffffff168173ffffffffffffffffffffffffffffffffffffffff167f50546e66e5f44d728365dc3908c63bc5cfeeab470722c1677e3073a6ac294aa160405160405180910390a350565b610f6a610f64610fe1565b85610ac1565b610fa9576040517f08c379a0000000000000000000000000000000000000000000000000000000008152600401610fa090612be3565b60405180910390fd5b610fb5848484846113ed565b50505050565b610fdd610fc6610fe1565b8383604051806020016040528060008152506113ed565b5050565b600033905090565b600073ffffffffffffffffffffffffffffffffffffffff168373ffffffffffffffffffffffffffffffffffffffff1603611058576040517f08c379a000000000000000000000000000000000000000000000000000000000815260040161104f90612e8b565b60405180910390fd5b600073ffffffffffffffffffffffffffffffffffffffff168273ffffffffffffffffffffffffffffffffffffffff16036110c7576040517f08c379a00000000000000000000000000000000000000000000000000000000081526004016110be90612f1d565b60405180910390fd5b80603b60008573ffffffffffffffffffffffffffffffffffffffff1673ffffffffffffffffffffffffffffffffffffffff16815260200190815260200160002060008473ffffffffffffffffffffffffffffffffffffffff1673ffffffffffffffffffffffffffffffffffffffff168152602001908152602001600020819055508173ffffffffffffffffffffffffffffffffffffffff168373ffffffffffffffffffffffffffffffffffffffff167f8c5be1e5ebec7d5bd14f71427d1e84f3dd0314c0f7b2291e5b200ac8c7c3b925836040516111a59190612475565b60405180910390a3505050565b60006111be8484610c72565b90507fffffffffffffffffffffffffffffffffffffffffffffffffffffffffffffffff8114611238578181101561122a576040517f08c379a000000000000000000000000000000000000000000000000000000000815260040161122190612f89565b60405180910390fd5b6112378484848403610fe9565b5b50505050565b600073ffffffffffffffffffffffffffffffffffffffff168673ffffffffffffffffffffffffffffffffffffffff16036112ad576040517f08c379a00000000000000000000000000000000000000000000000000000000081526004016112a49061301b565b60405180910390fd5b600073ffffffffffffffffffffffffffffffffffffffff168573ffffffffffffffffffffffffffffffffffffffff160361131c576040517f08c379a0000000000000000000000000000000000000000000000000000000008152600401611313906130ad565b60405180910390fd5b6000611326610fe1565b9050611336818888888888611641565b6113448188888888886117a8565b611353818888888888886119c5565b50505050505050565b6000808273ffffffffffffffffffffffffffffffffffffffff163b119050919050565b600060019054906101000a900460ff166113ce576040517f08c379a00000000000000000000000000000000000000000000000000000000081526004016113c59061313f565b60405180910390fd5b6113d9858585611b97565b6113e68585858585611e08565b5050505050565b600073ffffffffffffffffffffffffffffffffffffffff168473ffffffffffffffffffffffffffffffffffffffff160361145c576040517f08c379a0000000000000000000000000000000000000000000000000000000008152600401611453906131d1565b60405180910390fd5b6000611466610fe1565b905061147781866000878787611641565b6114848186600087611e88565b6000603360008773ffffffffffffffffffffffffffffffffffffffff1673ffffffffffffffffffffffffffffffffffffffff1681526020019081526020016000205490508481101561150b576040517f08c379a000000000000000000000000000000000000000000000000000000000815260040161150290613263565b60405180910390fd5b848103603360008873ffffffffffffffffffffffffffffffffffffffff1673ffffffffffffffffffffffffffffffffffffffff16815260200190815260200160002081905550846034600082825461156391906132b2565b925050819055508573ffffffffffffffffffffffffffffffffffffffff168273ffffffffffffffffffffffffffffffffffffffff167fa78a9be3a7b862d26933ad85fb11d80ef66b8f972d7cbba06621d583943a40988787876040516115cb9392919061333b565b60405180910390a3600073ffffffffffffffffffffffffffffffffffffffff168673ffffffffffffffffffffffffffffffffffffffff167fddf252ad1be2c89b69c2b068fc378daa952ba7f163c4a11628f55a4df523b3ef876040516116319190612475565b60405180910390a3505050505050565b6000731820a4b7618bde71dce8cdc73aab6c95905fad2473ffffffffffffffffffffffffffffffffffffffff1663aabbb8ca877f29ddb589b1fb5fc7cf394961c1adf5f8c6454761adf795e67fe149f658abe8956040518363ffffffff1660e01b81526004016116b29291906133a8565b602060405180830381865afa1580156116cf573d6000803e3d6000fd5b505050506040513d601f19601f820116820180604052508101906116f391906133e6565b9050600073ffffffffffffffffffffffffffffffffffffffff168173ffffffffffffffffffffffffffffffffffffffff161461179f578073ffffffffffffffffffffffffffffffffffffffff166375ab97828888888888886040518763ffffffff1660e01b815260040161176c96959493929190613413565b600060405180830381600087803b15801561178657600080fd5b505af115801561179a573d6000803e3d6000fd5b505050505b50505050505050565b6117b486868686611e88565b6000603360008773ffffffffffffffffffffffffffffffffffffffff1673ffffffffffffffffffffffffffffffffffffffff1681526020019081526020016000205490508381101561183b576040517f08c379a0000000000000000000000000000000000000000000000000000000008152600401611832906134f4565b60405180910390fd5b838103603360008873ffffffffffffffffffffffffffffffffffffffff1673ffffffffffffffffffffffffffffffffffffffff1681526020019081526020016000208190555083603360008773ffffffffffffffffffffffffffffffffffffffff1673ffffffffffffffffffffffffffffffffffffffff16815260200190815260200160002060008282546118d09190613514565b925050819055508473ffffffffffffffffffffffffffffffffffffffff168673ffffffffffffffffffffffffffffffffffffffff168873ffffffffffffffffffffffffffffffffffffffff167f06b541ddaa720db2b10a4d0cdac39b8d360425fc073085fac19bc8261467798787878760405161194f9392919061333b565b60405180910390a48473ffffffffffffffffffffffffffffffffffffffff168673ffffffffffffffffffffffffffffffffffffffff167fddf252ad1be2c89b69c2b068fc378daa952ba7f163c4a11628f55a4df523b3ef866040516119b49190612475565b60405180910390a350505050505050565b6000731820a4b7618bde71dce8cdc73aab6c95905fad2473ffffffffffffffffffffffffffffffffffffffff1663aabbb8ca877fb281fc8c12954d22544db45de3159a39272895b169a852b314f9cc762e44c53b6040518363ffffffff1660e01b8152600401611a369291906133a8565b602060405180830381865afa158015611a53573d6000803e3d6000fd5b505050506040513d601f19601f82011682018060405250810190611a7791906133e6565b9050600073ffffffffffffffffffffffffffffffffffffffff168173ffffffffffffffffffffffffffffffffffffffff1614611b26578073ffffffffffffffffffffffffffffffffffffffff166223de298989898989896040518763ffffffff1660e01b8152600401611aef96959493929190613413565b600060405180830381600087803b158015611b0957600080fd5b505af1158015611b1d573d6000803e3d6000fd5b50505050611b8d565b8115611b8c57611b4b8673ffffffffffffffffffffffffffffffffffffffff1661135c565b15611b8b576040517f08c379a0000000000000000000000000000000000000000000000000000000008152600401611b8290613602565b60405180910390fd5b5b5b5050505050505050565b600060019054906101000a900460ff16611be6576040517f08c379a0000000000000000000000000000000000000000000000000000000008152600401611bdd9061313f565b60405180910390fd5b8260359080519060200190611bfc929190612080565b508160369080519060200190611c13929190612080565b508060379080519060200190611c2a929190612106565b5060005b8151811015611cbc57600160386000848481518110611c5057611c4f613622565b5b602002602001015173ffffffffffffffffffffffffffffffffffffffff1673ffffffffffffffffffffffffffffffffffffffff16815260200190815260200160002060006101000a81548160ff0219169083151502179055508080611cb490613651565b915050611c2e565b50731820a4b7618bde71dce8cdc73aab6c95905fad2473ffffffffffffffffffffffffffffffffffffffff166329965a1d307fac7fbab5f54a3ca8194167523c6753bfeb96a445279294b6125b68cce2177054306040518463ffffffff1660e01b8152600401611d2e93929190613699565b600060405180830381600087803b158015611d4857600080fd5b505af1158015611d5c573d6000803e3d6000fd5b50505050731820a4b7618bde71dce8cdc73aab6c95905fad2473ffffffffffffffffffffffffffffffffffffffff166329965a1d307faea199e31a596269b42cdafd93407f14436db6e4cad65417994c2eb37381e05a306040518463ffffffff1660e01b8152600401611dd193929190613699565b600060405180830381600087803b158015611deb57600080fd5b505af1158015611dff573d6000803e3d6000fd5b50505050505050565b600060019054906101000a900460ff16611e57576040517f08c379a0000000000000000000000000000000000000000000000000000000008152600401611e4e9061313f565b60405180910390fd5b611e8181836040518060200160405280600081525060405180602001604052806000815250611e8e565b5050505050565b50505050565b611e9c848484846001611ea2565b50505050565b600073ffffffffffffffffffffffffffffffffffffffff168573ffffffffffffffffffffffffffffffffffffffff1603611f11576040517f08c379a0000000000000000000000000000000000000000000000000000000008152600401611f089061371c565b60405180910390fd5b6000611f1b610fe1565b9050611f2a8160008888611e88565b8460346000828254611f3c9190613514565b9250508190555084603360008873ffffffffffffffffffffffffffffffffffffffff1673ffffffffffffffffffffffffffffffffffffffff1681526020019081526020016000206000828254611f929190613514565b92505081905550611fa981600088888888886119c5565b8573ffffffffffffffffffffffffffffffffffffffff168173ffffffffffffffffffffffffffffffffffffffff167f2fe5be0146f74c5bce36c0b80911af6c7d86ff27e89d5cfa61fc681327954e5d87878760405161200a9392919061333b565b60405180910390a38573ffffffffffffffffffffffffffffffffffffffff16600073ffffffffffffffffffffffffffffffffffffffff167fddf252ad1be2c89b69c2b068fc378daa952ba7f163c4a11628f55a4df523b3ef876040516120709190612475565b60405180910390a3505050505050565b82805461208c90612b40565b90600052602060002090601f0160209004810192826120ae57600085556120f5565b82601f106120c757805160ff19168380011785556120f5565b828001600101855582156120f5579182015b828111156120f45782518255916020019190600101906120d9565b5b5090506121029190612190565b5090565b82805482825590600052602060002090810192821561217f579160200282015b8281111561217e5782518260006101000a81548173ffffffffffffffffffffffffffffffffffffffff021916908373ffffffffffffffffffffffffffffffffffffffff16021790555091602001919060010190612126565b5b50905061218c9190612190565b5090565b5b808211156121a9576000816000905550600101612191565b5090565b600081519050919050565b600082825260208201905092915050565b6000819050602082019050919050565b600073ffffffffffffffffffffffffffffffffffffffff82169050919050565b6000612204826121d9565b9050919050565b612214816121f9565b82525050565b6000612226838361220b565b60208301905092915050565b6000602082019050919050565b600061224a826121ad565b61225481856121b8565b935061225f836121c9565b8060005b83811015612290578151612277888261221a565b975061228283612232565b925050600181019050612263565b5085935050505092915050565b600060208201905081810360008301526122b7818461223f565b905092915050565b600081519050919050565b600082825260208201905092915050565b60005b838110156122f95780820151818401526020810190506122de565b83811115612308576000848401525b50505050565b6000601f19601f8301169050919050565b600061232a826122bf565b61233481856122ca565b93506123448185602086016122db565b61234d8161230e565b840191505092915050565b60006020820190508181036000830152612372818461231f565b905092915050565b6000604051905090565b600080fd5b600080fd5b612397816121f9565b81146123a257600080fd5b50565b6000813590506123b48161238e565b92915050565b6000819050919050565b6123cd816123ba565b81146123d857600080fd5b50565b6000813590506123ea816123c4565b92915050565b6000806040838503121561240757612406612384565b5b6000612415858286016123a5565b9250506020612426858286016123db565b9150509250929050565b60008115159050919050565b61244581612430565b82525050565b6000602082019050612460600083018461243c565b92915050565b61246f816123ba565b82525050565b600060208201905061248a6000830184612466565b92915050565b6000806000606084860312156124a9576124a8612384565b5b60006124b7868287016123a5565b93505060206124c8868287016123a5565b92505060406124d9868287016123db565b9150509250925092565b600060ff82169050919050565b6124f9816124e3565b82525050565b600060208201905061251460008301846124f0565b92915050565b600080fd5b600080fd5b7f4e487b7100000000000000000000000000000000000000000000000000000000600052604160045260246000fd5b61255c8261230e565b810181811067ffffffffffffffff8211171561257b5761257a612524565b5b80604052505050565b600061258e61237a565b905061259a8282612553565b919050565b600067ffffffffffffffff8211156125ba576125b9612524565b5b6125c38261230e565b9050602081019050919050565b82818337600083830152505050565b60006125f26125ed8461259f565b612584565b90508281526020810184848401111561260e5761260d61251f565b5b6126198482856125d0565b509392505050565b600082601f8301126126365761263561251a565b5b81356126468482602086016125df565b91505092915050565b600080600080600060a0868803121561266b5761266a612384565b5b6000612679888289016123a5565b955050602061268a888289016123a5565b945050604061269b888289016123db565b935050606086013567ffffffffffffffff8111156126bc576126bb612389565b5b6126c888828901612621565b925050608086013567ffffffffffffffff8111156126e9576126e8612389565b5b6126f588828901612621565b9150509295509295909350565b60006020828403121561271857612717612384565b5b6000612726848285016123a5565b91505092915050565b600067ffffffffffffffff82111561274a57612749612524565b5b6127538261230e565b9050602081019050919050565b600061277361276e8461272f565b612584565b90508281526020810184848401111561278f5761278e61251f565b5b61279a8482856125d0565b509392505050565b600082601f8301126127b7576127b661251a565b5b81356127c7848260208601612760565b91505092915050565b600067ffffffffffffffff8211156127eb576127ea612524565b5b602082029050602081019050919050565b600080fd5b600061281461280f846127d0565b612584565b90508083825260208201905060208402830185811115612837576128366127fc565b5b835b81811015612860578061284c88826123a5565b845260208401935050602081019050612839565b5050509392505050565b600082601f83011261287f5761287e61251a565b5b813561288f848260208601612801565b91505092915050565b600080600080600060a086880312156128b4576128b3612384565b5b600086013567ffffffffffffffff8111156128d2576128d1612389565b5b6128de888289016127a2565b955050602086013567ffffffffffffffff8111156128ff576128fe612389565b5b61290b888289016127a2565b945050604086013567ffffffffffffffff81111561292c5761292b612389565b5b6129388882890161286a565b9350506060612949888289016123db565b925050608061295a888289016123a5565b9150509295509295909350565b6000806000606084860312156129805761297f612384565b5b600061298e868287016123a5565b935050602061299f868287016123db565b925050604084013567ffffffffffffffff8111156129c0576129bf612389565b5b6129cc86828701612621565b9150509250925092565b600080604083850312156129ed576129ec612384565b5b60006129fb858286016123a5565b9250506020612a0c858286016123a5565b9150509250929050565b60008060008060808587031215612a3057612a2f612384565b5b6000612a3e878288016123a5565b9450506020612a4f878288016123db565b935050604085013567ffffffffffffffff811115612a7057612a6f612389565b5b612a7c87828801612621565b925050606085013567ffffffffffffffff811115612a9d57612a9c612389565b5b612aa987828801612621565b91505092959194509250565b60008060408385031215612acc57612acb612384565b5b6000612ada858286016123db565b925050602083013567ffffffffffffffff811115612afb57612afa612389565b5b612b0785828601612621565b9150509250929050565b7f4e487b7100000000000000000000000000000000000000000000000000000000600052602260045260246000fd5b60006002820490506001821680612b5857607f821691505b602082108103612b6b57612b6a612b11565b5b50919050565b7f4552433737373a2063616c6c6572206973206e6f7420616e206f70657261746f60008201527f7220666f7220686f6c6465720000000000000000000000000000000000000000602082015250565b6000612bcd602c836122ca565b9150612bd882612b71565b604082019050919050565b60006020820190508181036000830152612bfc81612bc0565b9050919050565b7f496e697469616c697a61626c653a20636f6e747261637420697320616c72656160008201527f647920696e697469616c697a6564000000000000000000000000000000000000602082015250565b6000612c5f602e836122ca565b9150612c6a82612c03565b604082019050919050565b60006020820190508181036000830152612c8e81612c52565b9050919050565b6000819050919050565b6000819050919050565b6000612cc4612cbf612cba84612c95565b612c9f565b6124e3565b9050919050565b612cd481612ca9565b82525050565b6000602082019050612cef6000830184612ccb565b92915050565b7f4552433737373a20617574686f72697a696e672073656c66206173206f70657260008201527f61746f7200000000000000000000000000000000000000000000000000000000602082015250565b6000612d516024836122ca565b9150612d5c82612cf5565b604082019050919050565b60006020820190508181036000830152612d8081612d44565b9050919050565b7f4552433737373a207265766f6b696e672073656c66206173206f70657261746f60008201527f7200000000000000000000000000000000000000000000000000000000000000602082015250565b6000612de36021836122ca565b9150612dee82612d87565b604082019050919050565b60006020820190508181036000830152612e1281612dd6565b9050919050565b7f4552433737373a20617070726f76652066726f6d20746865207a65726f20616460008201527f6472657373000000000000000000000000000000000000000000000000000000602082015250565b6000612e756025836122ca565b9150612e8082612e19565b604082019050919050565b60006020820190508181036000830152612ea481612e68565b9050919050565b7f4552433737373a20617070726f766520746f20746865207a65726f206164647260008201527f6573730000000000000000000000000000000000000000000000000000000000602082015250565b6000612f076023836122ca565b9150612f1282612eab565b604082019050919050565b60006020820190508181036000830152612f3681612efa565b9050919050565b7f4552433737373a20696e73756666696369656e7420616c6c6f77616e63650000600082015250565b6000612f73601e836122ca565b9150612f7e82612f3d565b602082019050919050565b60006020820190508181036000830152612fa281612f66565b9050919050565b7f4552433737373a207472616e736665722066726f6d20746865207a65726f206160008201527f6464726573730000000000000000000000000000000000000000000000000000602082015250565b60006130056026836122ca565b915061301082612fa9565b604082019050919050565b6000602082019050818103600083015261303481612ff8565b9050919050565b7f4552433737373a207472616e7366657220746f20746865207a65726f2061646460008201527f7265737300000000000000000000000000000000000000000000000000000000602082015250565b60006130976024836122ca565b91506130a28261303b565b604082019050919050565b600060208201905081810360008301526130c68161308a565b9050919050565b7f496e697469616c697a61626c653a20636f6e7472616374206973206e6f74206960008201527f6e697469616c697a696e67000000000000000000000000000000000000000000602082015250565b6000613129602b836122ca565b9150613134826130cd565b604082019050919050565b600060208201905081810360008301526131588161311c565b9050919050565b7f4552433737373a206275726e2066726f6d20746865207a65726f20616464726560008201527f7373000000000000000000000000000000000000000000000000000000000000602082015250565b60006131bb6022836122ca565b91506131c68261315f565b604082019050919050565b600060208201905081810360008301526131ea816131ae565b9050919050565b7f4552433737373a206275726e20616d6f756e7420657863656564732062616c6160008201527f6e63650000000000000000000000000000000000000000000000000000000000602082015250565b600061324d6023836122ca565b9150613258826131f1565b604082019050919050565b6000602082019050818103600083015261327c81613240565b9050919050565b7f4e487b7100000000000000000000000000000000000000000000000000000000600052601160045260246000fd5b60006132bd826123ba565b91506132c8836123ba565b9250828210156132db576132da613283565b5b828203905092915050565b600081519050919050565b600082825260208201905092915050565b600061330d826132e6565b61331781856132f1565b93506133278185602086016122db565b6133308161230e565b840191505092915050565b60006060820190506133506000830186612466565b81810360208301526133628185613302565b905081810360408301526133768184613302565b9050949350505050565b613389816121f9565b82525050565b6000819050919050565b6133a28161338f565b82525050565b60006040820190506133bd6000830185613380565b6133ca6020830184613399565b9392505050565b6000815190506133e08161238e565b92915050565b6000602082840312156133fc576133fb612384565b5b600061340a848285016133d1565b91505092915050565b600060c0820190506134286000830189613380565b6134356020830188613380565b6134426040830187613380565b61344f6060830186612466565b81810360808301526134618185613302565b905081810360a08301526134758184613302565b9050979650505050505050565b7f4552433737373a207472616e7366657220616d6f756e7420657863656564732060008201527f62616c616e636500000000000000000000000000000000000000000000000000602082015250565b60006134de6027836122ca565b91506134e982613482565b604082019050919050565b6000602082019050818103600083015261350d816134d1565b9050919050565b600061351f826123ba565b915061352a836123ba565b9250827fffffffffffffffffffffffffffffffffffffffffffffffffffffffffffffffff0382111561355f5761355e613283565b5b828201905092915050565b7f4552433737373a20746f6b656e20726563697069656e7420636f6e747261637460008201527f20686173206e6f20696d706c656d656e74657220666f7220455243373737546f60208201527f6b656e73526563697069656e7400000000000000000000000000000000000000604082015250565b60006135ec604d836122ca565b91506135f78261356a565b606082019050919050565b6000602082019050818103600083015261361b816135df565b9050919050565b7f4e487b7100000000000000000000000000000000000000000000000000000000600052603260045260246000fd5b600061365c826123ba565b91507fffffffffffffffffffffffffffffffffffffffffffffffffffffffffffffffff820361368e5761368d613283565b5b600182019050919050565b60006060820190506136ae6000830186613380565b6136bb6020830185613399565b6136c86040830184613380565b949350505050565b7f4552433737373a206d696e7420746f20746865207a65726f2061646472657373600082015250565b60006137066020836122ca565b9150613711826136d0565b602082019050919050565b60006020820190508181036000830152613735816136f9565b905091905056fea2646970667358221220dc6d02608400b7ca71abcc4e8b66674ead77a9025960a7bbd7509d255588335464736f6c634300080d0033","linkReferences":{}},"methodIdentifiers":{"allowance(address,address)":"dd62ed3e","approve(address,uint256)":"095ea7b3","authorizeOperator(address)":"959b8c3f","balanceOf(address)":"70a08231","burn(uint256,bytes)":"fe9d9303","decimals()":"313ce567","defaultOperators()":"06e48538","granularity()":"556f0dc7","initialize(string,string,address[],uint256,address)":"768f950a","isOperatorFor(address,address)":"d95b6371","name()":"06fdde03","operatorBurn(address,uint256,bytes,bytes)":"fc673c4f","operatorSend(address,address,uint256,bytes,bytes)":"62ad1b83","revokeOperator(address)":"fad8b32a","send(address,uint256,bytes)":"9bd9bbc6","symbol()":"95d89b41","totalSupply()":"18160ddd","transfer(address,uint256)":"a9059cbb","transferFrom(address,address,uint256)":"23b872dd"},"id":147}