{"abi":[{"type":"constructor","inputs":[],"stateMutability":"nonpayable"},{"type":"function","name":"destruct","inputs":[],"outputs":[],"stateMutability":"nonpayable"}],"bytecode":{"object":"0x6080604052348015600f57600080fd5b5060848061001e6000396000f3fe6080604052348015600f57600080fd5b506004361060285760003560e01c80632b68b9c614602d575b600080fd5b60336035565b005b3073ffffffffffffffffffffffffffffffffffffffff16fffea2646970667358221220fb8a7ea08614dbf8a1abb680f2353ea0d49f536655464dec1e8d937341bbcb9764736f6c634300080d0033","linkReferences":{}},"methodIdentifiers":{"destruct()":"2b68b9c6"},"storageLayout":{"storage":[],"types":{}},"id":0}