{"abi":[{"type":"function","name":"encode","inputs":[{"name":"input","type":"bytes","internalType":"bytes"}],"outputs":[{"name":"","type":"string","internalType":"string"}],"stateMutability":"pure"}],"bytecode":{"object":"0x6080604052348015600e575f5ffd5b506103a88061001c5f395ff3fe608060405234801561000f575f5ffd5b5060043610610029575f3560e01c806312496a1b1461002d575b5f5ffd5b61004061003b3660046101e7565b610056565b60405161004d919061029a565b60405180910390f35b60408051602081019091525f19815260609061007183610078565b9392505050565b606081515f0361009557505060408051602081019091525f815290565b5f6040518060600160405280604081526020016103336040913990505f6003845160026100c291906102e3565b6100cc91906102fc565b6100d790600461031b565b67ffffffffffffffff8111156100ef576100ef6101d3565b6040519080825280601f01601f191660200182016040528015610119576020820181803683370190505b509050600182016020820185865187016020810180515f82525b8284101561018e576003840193508351603f8160121c168701518653600186019550603f81600c1c168701518653600186019550603f8160061c168701518653600186019550603f8116870151865350600185019450610133565b90525050855160039006600181146101ad57600281146101c0576101c8565b603d6001830353603d60028303536101c8565b603d60018303535b509195945050505050565b634e487b7160e01b5f52604160045260245ffd5b5f602082840312156101f7575f5ffd5b813567ffffffffffffffff81111561020d575f5ffd5b8201601f8101841361021d575f5ffd5b803567ffffffffffffffff811115610237576102376101d3565b604051601f8201601f19908116603f0116810167ffffffffffffffff81118282101715610266576102666101d3565b60405281815282820160200186101561027d575f5ffd5b816020840160208301375f91810160200191909152949350505050565b602081525f82518060208401528060208501604085015e5f604082850101526040601f19601f83011684010191505092915050565b634e487b7160e01b5f52601160045260245ffd5b808201808211156102f6576102f66102cf565b92915050565b5f8261031657634e487b7160e01b5f52601260045260245ffd5b500490565b80820281158282048414176102f6576102f66102cf56fe4142434445464748494a4b4c4d4e4f505152535455565758595a6162636465666768696a6b6c6d6e6f707172737475767778797a303132333435363738392b2fa2646970667358221220ebee631de9bf2c4eb2b695691cf362efb0c491295aa6a7fb07650b9ea093550e64736f6c634300081c0033","linkReferences":{}},"methodIdentifiers":{"encode(bytes)":"12496a1b"},"id":102}