{"abi":[{"type":"function","name":"initialize","inputs":[],"outputs":[],"stateMutability":"nonpayable"},{"type":"function","name":"setValue","inputs":[{"name":"_number","type":"uint256","internalType":"uint256"}],"outputs":[],"stateMutability":"nonpayable"},{"type":"event","name":"Initialized","inputs":[{"name":"version","type":"uint8","indexed":false,"internalType":"uint8"}],"anonymous":false}],"bytecode":{"object":"0x608060405234801561001057600080fd5b506101af806100206000396000f3fe608060405234801561001057600080fd5b50600436106100365760003560e01c8063552410771461003b5780638129fc1c14610050575b600080fd5b61004e610049366004610160565b600155565b005b61004e600054610100900460ff16158080156100735750600054600160ff909116105b8061008d5750303b15801561008d575060005460ff166001145b6100f45760405162461bcd60e51b815260206004820152602e60248201527f496e697469616c697a61626c653a20636f6e747261637420697320616c72656160448201526d191e481a5b9a5d1a585b1a5e995960921b606482015260840160405180910390fd5b6000805460ff191660011790558015610117576000805461ff0019166101001790555b801561015d576000805461ff0019169055604051600181527f7f26b83ff96e1f2b6a682f133852f6798a09c465da95921460cefb38474024989060200160405180910390a15b50565b60006020828403121561017257600080fd5b503591905056fea26469706673582212203a6e89d2f2aed1ae760c924754c0df6356f9defc74b9275c096958770a314b2564736f6c634300080d0033","linkReferences":{}},"methodIdentifiers":{"initialize()":"8129fc1c","setValue(uint256)":"55241077"},"id":116}