{"abi":[{"type":"constructor","inputs":[{"name":"player","type":"address","internalType":"address"}],"stateMutability":"nonpayable"},{"type":"function","name":"ADMIN","inputs":[],"outputs":[{"name":"","type":"address","internalType":"address"}],"stateMutability":"view"},{"type":"function","name":"NORMAL_ID","inputs":[],"outputs":[{"name":"","type":"uint256","internalType":"uint256"}],"stateMutability":"view"},{"type":"function","name":"NORMAL_POWER","inputs":[],"outputs":[{"name":"","type":"uint256","internalType":"uint256"}],"stateMutability":"view"},{"type":"function","name":"PLAYER","inputs":[],"outputs":[{"name":"","type":"address","internalType":"address"}],"stateMutability":"view"},{"type":"function","name":"SUPER_ID","inputs":[],"outputs":[{"name":"","type":"uint256","internalType":"uint256"}],"stateMutability":"view"},{"type":"function","name":"SUPER_POWER","inputs":[],"outputs":[{"name":"","type":"uint256","internalType":"uint256"}],"stateMutability":"view"},{"type":"function","name":"isSolved","inputs":[],"outputs":[{"name":"","type":"bool","internalType":"bool"}],"stateMutability":"nonpayable"},{"type":"function","name":"votingToken","inputs":[],"outputs":[{"name":"","type":"address","internalType":"contract VotingERC721"}],"stateMutability":"view"}],"bytecode":{"object":"0x60c060405234801561001057600080fd5b5060405161290538038061290583398101604081905261002f916101f8565b6001600160a01b0381166080523360a05260405161004c906101eb565b604051809103906000f080158015610068573d6000803e3d6000fd5b50600080546001600160a01b0319166001600160a01b03929092169182178155604051630ab714fb60e11b8152306004820152602481019190915269021e19e0c9bab2400000604482015263156e29f6906064016020604051808303816000875af11580156100db573d6000803e3d6000fd5b505050506040513d601f19601f820116820180604052508101906100ff9190610228565b50600054604051630ab714fb60e11b81526001600160a01b038381166004830152607b6024830152670de0b6b3a764000060448301529091169063156e29f6906064016020604051808303816000875af1158015610161573d6000803e3d6000fd5b505050506040513d601f19601f820116820180604052508101906101859190610228565b506000546040516317066a5760e21b81526001600160a01b03838116600483015290911690635c19a95c90602401600060405180830381600087803b1580156101cd57600080fd5b505af11580156101e1573d6000803e3d6000fd5b5050505050610241565b6122758061069083390190565b60006020828403121561020a57600080fd5b81516001600160a01b038116811461022157600080fd5b9392505050565b60006020828403121561023a57600080fd5b5051919050565b60805160a05161041d610273600039600081816101030152818161018301526102ae015260006092015261041d6000f3fe608060405234801561001057600080fd5b50600436106100885760003560e01c80632a0acc6a1161005b5780632a0acc6a146100fe57806364d98f6e146101255780636780eb4d1461013d578063b03401231461014e57600080fd5b80630236ca741461008d5780630d64d7d9146100d15780631931ccd6146100e757806321ffc516146100f6575b600080fd5b6100b47f000000000000000000000000000000000000000000000000000000000000000081565b6040516001600160a01b0390911681526020015b60405180910390f35b6100d9600081565b6040519081526020016100c8565b6100d9670de0b6b3a764000081565b6100d9607b81565b6100b47f000000000000000000000000000000000000000000000000000000000000000081565b61012d610161565b60405190151581526020016100c8565b6100d969021e19e0c9bab240000081565b6000546100b4906001600160a01b031681565b600080546040516331a9108f60e11b8152600481018390526001600160a01b037f00000000000000000000000000000000000000000000000000000000000000008116921690636352211e90602401602060405180830381865afa1580156101cd573d6000803e3d6000fd5b505050506040513d601f19601f820116820180604052508101906101f1919061037c565b6001600160a01b0316036102055750600090565b60008054604080513060248083019190915282518083039091018152604490910182526020810180516001600160e01b03166317066a5760e21b17905290516001600160a01b039092169161025a91906103ac565b6000604051808303816000865af19150503d8060008114610297576040519150601f19603f3d011682016040523d82523d6000602084013e61029c565b606091505b505060008054604080513060248201527f00000000000000000000000000000000000000000000000000000000000000006001600160a01b039081166044830152606480830186905283518084039091018152608490920183526020820180516001600160e01b03166323b872dd60e01b17905291519495509293911691610323916103ac565b6000604051808303816000865af19150503d8060008114610360576040519150601f19603f3d011682016040523d82523d6000602084013e610365565b606091505b5050905081158015610375575080155b9250505090565b60006020828403121561038e57600080fd5b81516001600160a01b03811681146103a557600080fd5b9392505050565b6000825160005b818110156103cd57602081860181015185830152016103b3565b818111156103dc576000828501525b50919091019291505056fea264697066735822122084155210e14ec4351a1299f559f8bcebb4a089247de3e077bd411e90cfb0ef3e64736f6c634300080d003360806040523480156200001157600080fd5b50604080518082018252600c81526b566f74696e6745524337323160a01b6020808301918252835180850190945260048452635345524360e01b9084015281519192916200006291600091620000f1565b50805162000078906001906020840190620000f1565b505050620000956200008f6200009b60201b60201c565b6200009f565b620001d3565b3390565b600680546001600160a01b038381166001600160a01b0319831681179093556040519116919082907f8be0079c531659141344cd1fd0a4f28419497f9722a3daafe3b4186f6b6457e090600090a35050565b828054620000ff9062000197565b90600052602060002090601f0160209004810192826200012357600085556200016e565b82601f106200013e57805160ff19168380011785556200016e565b828001600101855582156200016e579182015b828111156200016e57825182559160200191906001019062000151565b506200017c92915062000180565b5090565b5b808211156200017c576000815560010162000181565b600181811c90821680620001ac57607f821691505b602082108103620001cd57634e487b7160e01b600052602260045260246000fd5b50919050565b61209280620001e36000396000f3fe608060405234801561001057600080fd5b50600436106101e55760003560e01c806370a082311161010f578063b4b5ea57116100a2578063e7a324dc11610071578063e7a324dc1461048e578063e9580e91146104b5578063e985e9c5146104de578063f2fde38b1461051a57600080fd5b8063b4b5ea5714610442578063b88d4fde14610455578063c3cda52014610468578063c87b56dd1461047b57600080fd5b80637ecebe00116100de5780637ecebe00146103f65780638da5cb5b1461041657806395d89b4114610427578063a22cb4651461042f57600080fd5b806370a08231146103a8578063715018a6146103bb57806372c4a927146103c3578063782d6fe1146103e357600080fd5b806320606b7011610187578063587cde1e11610156578063587cde1e1461034f5780635c19a95c146103625780636352211e146103755780636fcfff451461038857600080fd5b806320606b70146102ef57806323b872dd1461031657806342842e0e1461032957806342966c681461033c57600080fd5b8063095ea7b3116101c3578063095ea7b3146102525780630cdfebfa14610267578063156e29f6146102ae57806315e3009e146102cf57600080fd5b806301ffc9a7146101ea57806306fdde0314610212578063081812fc14610227575b600080fd5b6101fd6101f8366004611b03565b61052d565b60405190151581526020015b60405180910390f35b61021a61057f565b6040516102099190611b78565b61023a610235366004611b8b565b610611565b6040516001600160a01b039091168152602001610209565b610265610260366004611bc0565b610638565b005b610299610275366004611bc0565b60086020908152600092835260408084209091529082529020805460019091015482565b60408051928352602083019190915201610209565b6102c16102bc366004611bea565b610752565b604051908152602001610209565b6102c16102dd366004611c1d565b600c6020526000908152604090205481565b6102c17f8cad95687ba82c2ce50e74f7b754645e5117c3a5bec8151c0726d5857980a86681565b610265610324366004611c38565b61077e565b610265610337366004611c38565b6107af565b61026561034a366004611b8b565b6107ca565b61023a61035d366004611c1d565b6107de565b610265610370366004611c1d565b61080e565b61023a610383366004611b8b565b610829565b6102c1610396366004611c1d565b60096020526000908152604090205481565b6102c16103b6366004611c1d565b610889565b61026561090f565b6102c16103d1366004611b8b565b600b6020526000908152604090205481565b6102c16103f1366004611bc0565b610923565b6102c1610404366004611c1d565b600a6020526000908152604090205481565b6006546001600160a01b031661023a565b61021a610b09565b61026561043d366004611c74565b610b18565b6102c1610450366004611c1d565b610b27565b610265610463366004611cc6565b610b89565b610265610476366004611da2565b610bc1565b61021a610489366004611b8b565b610dd9565b6102c17fe48329057bfd03d55e49b547132e39cffd9c1820ad7b9d4c5307691425d15adf81565b6102c16104c3366004611c1d565b6001600160a01b03166000908152600c602052604090205490565b6101fd6104ec366004611e02565b6001600160a01b03918216600090815260056020908152604080832093909416825291909152205460ff1690565b610265610528366004611c1d565b610e4c565b60006001600160e01b031982166380ac58cd60e01b148061055e57506001600160e01b03198216635b5e139f60e01b145b8061057957506301ffc9a760e01b6001600160e01b03198316145b92915050565b60606000805461058e90611e35565b80601f01602080910402602001604051908101604052809291908181526020018280546105ba90611e35565b80156106075780601f106105dc57610100808354040283529160200191610607565b820191906000526020600020905b8154815290600101906020018083116105ea57829003601f168201915b5050505050905090565b600061061c82610ec2565b506000908152600460205260409020546001600160a01b031690565b600061064382610829565b9050806001600160a01b0316836001600160a01b0316036106b55760405162461bcd60e51b815260206004820152602160248201527f4552433732313a20617070726f76616c20746f2063757272656e74206f776e656044820152603960f91b60648201526084015b60405180910390fd5b336001600160a01b03821614806106d157506106d181336104ec565b6107435760405162461bcd60e51b815260206004820152603d60248201527f4552433732313a20617070726f76652063616c6c6572206973206e6f7420746f60448201527f6b656e206f776e6572206f7220617070726f76656420666f7220616c6c00000060648201526084016106ac565b61074d8383610f21565b505050565b600061075c610f8f565b6000838152600b602052604090208290556107778484610fe9565b9392505050565b6107883382611182565b6107a45760405162461bcd60e51b81526004016106ac90611e6f565b61074d838383611201565b61074d83838360405180602001604052806000815250610b89565b6107d2610f8f565b6107db81611372565b50565b6001600160a01b0380821660009081526007602052604081205490911680156108075780610777565b5090919050565b6001600160a01b03811661081f5750335b6107db3382611415565b6000818152600260205260408120546001600160a01b0316806105795760405162461bcd60e51b8152602060048201526018602482015277115490cdcc8c4e881a5b9d985b1a59081d1bdad95b88125160421b60448201526064016106ac565b60006001600160a01b0382166108f35760405162461bcd60e51b815260206004820152602960248201527f4552433732313a2061646472657373207a65726f206973206e6f7420612076616044820152683634b21037bbb732b960b91b60648201526084016106ac565b506001600160a01b031660009081526003602052604090205490565b610917610f8f565b6109216000611466565b565b60004382106109455760405163327b4e9760e11b815260040160405180910390fd5b6001600160a01b03831660009081526009602052604081205490819003610970576000915050610579565b6001600160a01b03841660009081526008602052604081208491610995600185611ed2565b815260200190815260200160002060000154116109ea576001600160a01b0384166000908152600860205260408120906109d0600184611ed2565b815260200190815260200160002060010154915050610579565b6001600160a01b0384166000908152600860209081526040808320838052909152902054831015610a1f576000915050610579565b600080610a2d600184611ed2565b90505b81811115610ad95760006002610a468484611ed2565b610a509190611ee9565b610a5a9083611ed2565b6001600160a01b0388166000908152600860209081526040808320848452825291829020825180840190935280548084526001909101549183019190915291925090879003610ab3576020015194506105799350505050565b8051871115610ac457819350610ad2565b610acf600183611ed2565b92505b5050610a30565b506001600160a01b0385166000908152600860209081526040808320938352929052206001015491505092915050565b60606001805461058e90611e35565b610b233383836114b8565b5050565b6001600160a01b03811660009081526009602052604081205480610b4c576000610777565b6001600160a01b038316600090815260086020526040812090610b70600184611ed2565b8152602001908152602001600020600101549392505050565b610b933383611182565b610baf5760405162461bcd60e51b81526004016106ac90611e6f565b610bbb84848484611586565b50505050565b60007f8cad95687ba82c2ce50e74f7b754645e5117c3a5bec8151c0726d5857980a866610bec61057f565b80519060200120610bfa4690565b60408051602080820195909552808201939093526060830191909152306080808401919091528151808403909101815260a0830182528051908401207fe48329057bfd03d55e49b547132e39cffd9c1820ad7b9d4c5307691425d15adf60c08401526001600160a01b038b1660e084015261010083018a90526101208084018a90528251808503909101815261014084019092528151919093012061190160f01b610160830152610162820183905261018282018190529192506000906101a20160408051601f198184030181528282528051602091820120600080855291840180845281905260ff8a169284019290925260608301889052608083018790529092509060019060a0016020604051602081039080840390855afa158015610d26573d6000803e3d6000fd5b5050604051601f1901519150506001600160a01b038116610d5a57604051638baa579f60e01b815260040160405180910390fd5b6001600160a01b0381166000908152600a60205260408120805491610d7e83611f0b565b919050558914610da157604051633ab3447f60e11b815260040160405180910390fd5b87421115610dc257604051630819bdcd60e01b815260040160405180910390fd5b610dcc818b611415565b505050505b505050505050565b6060610de482610ec2565b6000610dfb60408051602081019091526000815290565b90506000815111610e1b5760405180602001604052806000815250610777565b80610e25846115b9565b604051602001610e36929190611f24565b6040516020818303038152906040529392505050565b610e54610f8f565b6001600160a01b038116610eb95760405162461bcd60e51b815260206004820152602660248201527f4f776e61626c653a206e6577206f776e657220697320746865207a65726f206160448201526564647265737360d01b60648201526084016106ac565b6107db81611466565b6000818152600260205260409020546001600160a01b03166107db5760405162461bcd60e51b8152602060048201526018602482015277115490cdcc8c4e881a5b9d985b1a59081d1bdad95b88125160421b60448201526064016106ac565b600081815260046020526040902080546001600160a01b0319166001600160a01b0384169081179091558190610f5682610829565b6001600160a01b03167f8c5be1e5ebec7d5bd14f71427d1e84f3dd0314c0f7b2291e5b200ac8c7c3b92560405160405180910390a45050565b6006546001600160a01b031633146109215760405162461bcd60e51b815260206004820181905260248201527f4f776e61626c653a2063616c6c6572206973206e6f7420746865206f776e657260448201526064016106ac565b6001600160a01b03821661103f5760405162461bcd60e51b815260206004820181905260248201527f4552433732313a206d696e7420746f20746865207a65726f206164647265737360448201526064016106ac565b6000818152600260205260409020546001600160a01b0316156110a45760405162461bcd60e51b815260206004820152601c60248201527f4552433732313a20746f6b656e20616c7265616479206d696e7465640000000060448201526064016106ac565b6110b260008383600161164c565b6000818152600260205260409020546001600160a01b0316156111175760405162461bcd60e51b815260206004820152601c60248201527f4552433732313a20746f6b656e20616c7265616479206d696e7465640000000060448201526064016106ac565b6001600160a01b038216600081815260036020908152604080832080546001019055848352600290915280822080546001600160a01b0319168417905551839291907fddf252ad1be2c89b69c2b068fc378daa952ba7f163c4a11628f55a4df523b3ef908290a45050565b60008061118e83610829565b9050806001600160a01b0316846001600160a01b031614806111d557506001600160a01b0380821660009081526005602090815260408083209388168352929052205460ff165b806111f95750836001600160a01b03166111ee84610611565b6001600160a01b0316145b949350505050565b826001600160a01b031661121482610829565b6001600160a01b03161461123a5760405162461bcd60e51b81526004016106ac90611f53565b6001600160a01b03821661129c5760405162461bcd60e51b8152602060048201526024808201527f4552433732313a207472616e7366657220746f20746865207a65726f206164646044820152637265737360e01b60648201526084016106ac565b6112a9838383600161164c565b826001600160a01b03166112bc82610829565b6001600160a01b0316146112e25760405162461bcd60e51b81526004016106ac90611f53565b600081815260046020908152604080832080546001600160a01b03199081169091556001600160a01b0387811680865260038552838620805460001901905590871680865283862080546001019055868652600290945282852080549092168417909155905184937fddf252ad1be2c89b69c2b068fc378daa952ba7f163c4a11628f55a4df523b3ef91a4505050565b600061137d82610829565b905061138d81600084600161164c565b61139682610829565b600083815260046020908152604080832080546001600160a01b03199081169091556001600160a01b0385168085526003845282852080546000190190558785526002909352818420805490911690555192935084927fddf252ad1be2c89b69c2b068fc378daa952ba7f163c4a11628f55a4df523b3ef908390a45050565b6000611420836107de565b6001600160a01b03848116600090815260076020908152604080832080546001600160a01b03191694881694909417909355600c90522054909150610bbb8284836116e8565b600680546001600160a01b038381166001600160a01b0319831681179093556040519116919082907f8be0079c531659141344cd1fd0a4f28419497f9722a3daafe3b4186f6b6457e090600090a35050565b816001600160a01b0316836001600160a01b0316036115195760405162461bcd60e51b815260206004820152601960248201527f4552433732313a20617070726f766520746f2063616c6c65720000000000000060448201526064016106ac565b6001600160a01b03838116600081815260056020908152604080832094871680845294825291829020805460ff191686151590811790915591519182527f17307eab39ab6107e8899845ad3d59bd9653f200f220920489ca2b5937696c31910160405180910390a3505050565b611591848484611201565b61159d84848484611823565b610bbb5760405162461bcd60e51b81526004016106ac90611f98565b606060006115c683611924565b600101905060008167ffffffffffffffff8111156115e6576115e6611cb0565b6040519080825280601f01601f191660200182016040528015611610576020820181803683370190505b5090508181016020015b600019016f181899199a1a9b1b9c1cb0b131b232b360811b600a86061a8153600a850494508461161a57509392505050565b6000828152600b60205260409020546001600160a01b03851615611698576001600160a01b0385166000908152600c602052604081208054839290611692908490611ed2565b90915550505b6001600160a01b0384166000908152600c6020526040812080548392906116c0908490611fea565b909155506116e190506116d2866107de565b6116db866107de565b836116e8565b5050505050565b816001600160a01b0316836001600160a01b03161415801561170a5750600081115b1561074d576001600160a01b0383161561179b576001600160a01b038316600090815260096020526040812054908161174457600061177b565b6001600160a01b038516600090815260086020526040812090611768600185611ed2565b8152602001908152602001600020600101545b905060006117898483611ed2565b9050611797868484846119fc565b5050505b6001600160a01b0382161561074d576001600160a01b03821660009081526009602052604081205490816117d0576000611807565b6001600160a01b0384166000908152600860205260408120906117f4600185611ed2565b8152602001908152602001600020600101545b905060006118158483611fea565b9050610dd1858484846119fc565b60006001600160a01b0384163b1561191957604051630a85bd0160e11b81526001600160a01b0385169063150b7a0290611867903390899088908890600401612002565b6020604051808303816000875af19250505080156118a2575060408051601f3d908101601f1916820190925261189f9181019061203f565b60015b6118ff573d8080156118d0576040519150601f19603f3d011682016040523d82523d6000602084013e6118d5565b606091505b5080516000036118f75760405162461bcd60e51b81526004016106ac90611f98565b805181602001fd5b6001600160e01b031916630a85bd0160e11b1490506111f9565b506001949350505050565b60008072184f03e93ff9f4daa797ed6e38ed64bf6a1f0160401b83106119635772184f03e93ff9f4daa797ed6e38ed64bf6a1f0160401b830492506040015b6d04ee2d6d415b85acef8100000000831061198f576d04ee2d6d415b85acef8100000000830492506020015b662386f26fc1000083106119ad57662386f26fc10000830492506010015b6305f5e10083106119c5576305f5e100830492506008015b61271083106119d957612710830492506004015b606483106119eb576064830492506002015b600a83106105795760010192915050565b438315801590611a4057506001600160a01b03851660009081526008602052604081208291611a2c600188611ed2565b815260200190815260200160002060000154145b15611a83576001600160a01b03851660009081526008602052604081208391611a6a600188611ed2565b81526020810191909152604001600020600101556116e1565b60408051808201825282815260208082018581526001600160a01b038916600090815260088352848120898252909252929020905181559051600191820155611acd908590611fea565b6001600160a01b0386166000908152600960205260409020555050505050565b6001600160e01b0319811681146107db57600080fd5b600060208284031215611b1557600080fd5b813561077781611aed565b60005b83811015611b3b578181015183820152602001611b23565b83811115610bbb5750506000910152565b60008151808452611b64816020860160208601611b20565b601f01601f19169290920160200192915050565b6020815260006107776020830184611b4c565b600060208284031215611b9d57600080fd5b5035919050565b80356001600160a01b0381168114611bbb57600080fd5b919050565b60008060408385031215611bd357600080fd5b611bdc83611ba4565b946020939093013593505050565b600080600060608486031215611bff57600080fd5b611c0884611ba4565b95602085013595506040909401359392505050565b600060208284031215611c2f57600080fd5b61077782611ba4565b600080600060608486031215611c4d57600080fd5b611c5684611ba4565b9250611c6460208501611ba4565b9150604084013590509250925092565b60008060408385031215611c8757600080fd5b611c9083611ba4565b915060208301358015158114611ca557600080fd5b809150509250929050565b634e487b7160e01b600052604160045260246000fd5b60008060008060808587031215611cdc57600080fd5b611ce585611ba4565b9350611cf360208601611ba4565b925060408501359150606085013567ffffffffffffffff80821115611d1757600080fd5b818701915087601f830112611d2b57600080fd5b813581811115611d3d57611d3d611cb0565b604051601f8201601f19908116603f01168101908382118183101715611d6557611d65611cb0565b816040528281528a6020848701011115611d7e57600080fd5b82602086016020830137600060208483010152809550505050505092959194509250565b60008060008060008060c08789031215611dbb57600080fd5b611dc487611ba4565b95506020870135945060408701359350606087013560ff81168114611de857600080fd5b9598949750929560808101359460a0909101359350915050565b60008060408385031215611e1557600080fd5b611e1e83611ba4565b9150611e2c60208401611ba4565b90509250929050565b600181811c90821680611e4957607f821691505b602082108103611e6957634e487b7160e01b600052602260045260246000fd5b50919050565b6020808252602d908201527f4552433732313a2063616c6c6572206973206e6f7420746f6b656e206f776e6560408201526c1c881bdc88185c1c1c9bdd9959609a1b606082015260800190565b634e487b7160e01b600052601160045260246000fd5b600082821015611ee457611ee4611ebc565b500390565b600082611f0657634e487b7160e01b600052601260045260246000fd5b500490565b600060018201611f1d57611f1d611ebc565b5060010190565b60008351611f36818460208801611b20565b835190830190611f4a818360208801611b20565b01949350505050565b60208082526025908201527f4552433732313a207472616e736665722066726f6d20696e636f72726563742060408201526437bbb732b960d91b606082015260800190565b60208082526032908201527f4552433732313a207472616e7366657220746f206e6f6e20455243373231526560408201527131b2b4bb32b91034b6b83632b6b2b73a32b960711b606082015260800190565b60008219821115611ffd57611ffd611ebc565b500190565b6001600160a01b038581168252841660208201526040810183905260806060820181905260009061203590830184611b4c565b9695505050505050565b60006020828403121561205157600080fd5b815161077781611aed56fea264697066735822122018bb5760e68d11fbee7132daedfdad7c444a3fcfd0d1ce3ab109d781497f41cf64736f6c634300080d0033","linkReferences":{}},"methodIdentifiers":{"ADMIN()":"2a0acc6a","NORMAL_ID()":"21ffc516","NORMAL_POWER()":"1931ccd6","PLAYER()":"0236ca74","SUPER_ID()":"0d64d7d9","SUPER_POWER()":"6780eb4d","isSolved()":"64d98f6e","votingToken()":"b0340123"},"id":26}