{"abi":[{"type":"function","name":"deposit","inputs":[{"name":"payee","type":"address","internalType":"address"}],"outputs":[],"stateMutability":"payable"},{"type":"function","name":"depositsOf","inputs":[{"name":"payee","type":"address","internalType":"address"}],"outputs":[{"name":"","type":"uint256","internalType":"uint256"}],"stateMutability":"view"},{"type":"function","name":"initialize","inputs":[],"outputs":[],"stateMutability":"nonpayable"},{"type":"function","name":"owner","inputs":[],"outputs":[{"name":"","type":"address","internalType":"address"}],"stateMutability":"view"},{"type":"function","name":"renounceOwnership","inputs":[],"outputs":[],"stateMutability":"nonpayable"},{"type":"function","name":"transferOwnership","inputs":[{"name":"newOwner","type":"address","internalType":"address"}],"outputs":[],"stateMutability":"nonpayable"},{"type":"function","name":"withdraw","inputs":[{"name":"payee","type":"address","internalType":"address payable"}],"outputs":[],"stateMutability":"nonpayable"},{"type":"event","name":"Deposited","inputs":[{"name":"payee","type":"address","indexed":true,"internalType":"address"},{"name":"weiAmount","type":"uint256","indexed":false,"internalType":"uint256"}],"anonymous":false},{"type":"event","name":"Initialized","inputs":[{"name":"version","type":"uint8","indexed":false,"internalType":"uint8"}],"anonymous":false},{"type":"event","name":"OwnershipTransferred","inputs":[{"name":"previousOwner","type":"address","indexed":true,"internalType":"address"},{"name":"newOwner","type":"address","indexed":true,"internalType":"address"}],"anonymous":false},{"type":"event","name":"Withdrawn","inputs":[{"name":"payee","type":"address","indexed":true,"internalType":"address"},{"name":"weiAmount","type":"uint256","indexed":false,"internalType":"uint256"}],"anonymous":false}],"bytecode":{"object":"0x6080604052348015600e575f5ffd5b506106d48061001c5f395ff3fe60806040526004361061006e575f3560e01c80638da5cb5b1161004c5780638da5cb5b146100bb578063e3a9db1a146100e7578063f2fde38b14610129578063f340fa0114610148575f5ffd5b806351cff8d914610072578063715018a6146100935780638129fc1c146100a7575b5f5ffd5b34801561007d575f5ffd5b5061009161008c36600461060c565b61015b565b005b34801561009e575f5ffd5b506100916101d1565b3480156100b2575f5ffd5b506100916101e4565b3480156100c6575f5ffd5b506033546040516001600160a01b0390911681526020015b60405180910390f35b3480156100f2575f5ffd5b5061011b61010136600461060c565b6001600160a01b03165f9081526065602052604090205490565b6040519081526020016100de565b348015610134575f5ffd5b5061009161014336600461060c565b6102f4565b61009161015636600461060c565b61036a565b6101636103db565b6001600160a01b0381165f81815260656020526040812080549190559061018a9082610435565b816001600160a01b03167f7084f5476618d8e60b11ef0d7d3f06914655adb8793e28ff7f018d4c76d505d5826040516101c591815260200190565b60405180910390a25050565b6101d96103db565b6101e25f61054f565b565b5f54610100900460ff161580801561020257505f54600160ff909116105b8061021b5750303b15801561021b57505f5460ff166001145b6102835760405162461bcd60e51b815260206004820152602e60248201527f496e697469616c697a61626c653a20636f6e747261637420697320616c72656160448201526d191e481a5b9a5d1a585b1a5e995960921b60648201526084015b60405180910390fd5b5f805460ff1916600117905580156102a4575f805461ff0019166101001790555b6102ac6105a0565b80156102f1575f805461ff0019169055604051600181527f7f26b83ff96e1f2b6a682f133852f6798a09c465da95921460cefb38474024989060200160405180910390a15b50565b6102fc6103db565b6001600160a01b0381166103615760405162461bcd60e51b815260206004820152602660248201527f4f776e61626c653a206e6577206f776e657220697320746865207a65726f206160448201526564647265737360d01b606482015260840161027a565b6102f18161054f565b6103726103db565b6001600160a01b0381165f9081526065602052604081208054349283929161039b90849061062e565b90915550506040518181526001600160a01b038316907f2da466a7b24304f47e87fa2e1e5a81b9831ce54fec19055ce277ca2f39ba42c4906020016101c5565b6033546001600160a01b031633146101e25760405162461bcd60e51b815260206004820181905260248201527f4f776e61626c653a2063616c6c6572206973206e6f7420746865206f776e6572604482015260640161027a565b804710156104855760405162461bcd60e51b815260206004820152601d60248201527f416464726573733a20696e73756666696369656e742062616c616e6365000000604482015260640161027a565b5f826001600160a01b0316826040515f6040518083038185875af1925050503d805f81146104ce576040519150601f19603f3d011682016040523d82523d5f602084013e6104d3565b606091505b505090508061054a5760405162461bcd60e51b815260206004820152603a60248201527f416464726573733a20756e61626c6520746f2073656e642076616c75652c207260448201527f6563697069656e74206d61792068617665207265766572746564000000000000606482015260840161027a565b505050565b603380546001600160a01b038381166001600160a01b0319831681179093556040519116919082907f8be0079c531659141344cd1fd0a4f28419497f9722a3daafe3b4186f6b6457e0905f90a35050565b5f54610100900460ff166105c65760405162461bcd60e51b815260040161027a90610653565b6101e25f54610100900460ff166105ef5760405162461bcd60e51b815260040161027a90610653565b6101e23361054f565b6001600160a01b03811681146102f1575f5ffd5b5f6020828403121561061c575f5ffd5b8135610627816105f8565b9392505050565b8082018082111561064d57634e487b7160e01b5f52601160045260245ffd5b92915050565b6020808252602b908201527f496e697469616c697a61626c653a20636f6e7472616374206973206e6f74206960408201526a6e697469616c697a696e6760a81b60608201526080019056fea2646970667358221220a9f8892c7110a2460243c64e4a554d442176e4960d12737dd0fed0686006fe5564736f6c634300081c0033","linkReferences":{}},"methodIdentifiers":{"deposit(address)":"f340fa01","depositsOf(address)":"e3a9db1a","initialize()":"8129fc1c","owner()":"8da5cb5b","renounceOwnership()":"715018a6","transferOwnership(address)":"f2fde38b","withdraw(address)":"51cff8d9"},"id":163}