{"abi":[{"type":"constructor","inputs":[{"name":"_bridgeContract","type":"address","internalType":"address"}],"stateMutability":"nonpayable"},{"type":"function","name":"balanceOf","inputs":[{"name":"account","type":"address","internalType":"address"},{"name":"id","type":"uint256","internalType":"uint256"}],"outputs":[{"name":"","type":"uint256","internalType":"uint256"}],"stateMutability":"view"},{"type":"function","name":"balanceOfBatch","inputs":[{"name":"accounts","type":"address[]","internalType":"address[]"},{"name":"ids","type":"uint256[]","internalType":"uint256[]"}],"outputs":[{"name":"","type":"uint256[]","internalType":"uint256[]"}],"stateMutability":"view"},{"type":"function","name":"bridgeContract","inputs":[],"outputs":[{"name":"","type":"address","internalType":"address"}],"stateMutability":"view"},{"type":"function","name":"burn","inputs":[{"name":"from","type":"address","internalType":"address"},{"name":"id","type":"uint256","internalType":"uint256"},{"name":"amount","type":"uint256","internalType":"uint256"}],"outputs":[],"stateMutability":"nonpayable"},{"type":"function","name":"burnBatch","inputs":[{"name":"from","type":"address","internalType":"address"},{"name":"ids","type":"uint256[]","internalType":"uint256[]"},{"name":"amounts","type":"uint256[]","internalType":"uint256[]"}],"outputs":[],"stateMutability":"nonpayable"},{"type":"function","name":"isApprovedForAll","inputs":[{"name":"account","type":"address","internalType":"address"},{"name":"operator","type":"address","internalType":"address"}],"outputs":[{"name":"","type":"bool","internalType":"bool"}],"stateMutability":"view"},{"type":"function","name":"mint","inputs":[{"name":"to","type":"address","internalType":"address"},{"name":"id","type":"uint256","internalType":"uint256"},{"name":"amount","type":"uint256","internalType":"uint256"},{"name":"data","type":"bytes","internalType":"bytes"}],"outputs":[],"stateMutability":"nonpayable"},{"type":"function","name":"mintBatch","inputs":[{"name":"to","type":"address","internalType":"address"},{"name":"ids","type":"uint256[]","internalType":"uint256[]"},{"name":"amounts","type":"uint256[]","internalType":"uint256[]"},{"name":"data","type":"bytes","internalType":"bytes"}],"outputs":[],"stateMutability":"nonpayable"},{"type":"function","name":"owner","inputs":[],"outputs":[{"name":"","type":"address","internalType":"address"}],"stateMutability":"view"},{"type":"function","name":"renounceOwnership","inputs":[],"outputs":[],"stateMutability":"nonpayable"},{"type":"function","name":"safeBatchTransferFrom","inputs":[{"name":"from","type":"address","internalType":"address"},{"name":"to","type":"address","internalType":"address"},{"name":"ids","type":"uint256[]","internalType":"uint256[]"},{"name":"amounts","type":"uint256[]","internalType":"uint256[]"},{"name":"data","type":"bytes","internalType":"bytes"}],"outputs":[],"stateMutability":"nonpayable"},{"type":"function","name":"safeTransferFrom","inputs":[{"name":"from","type":"address","internalType":"address"},{"name":"to","type":"address","internalType":"address"},{"name":"id","type":"uint256","internalType":"uint256"},{"name":"amount","type":"uint256","internalType":"uint256"},{"name":"data","type":"bytes","internalType":"bytes"}],"outputs":[],"stateMutability":"nonpayable"},{"type":"function","name":"setApprovalForAll","inputs":[{"name":"operator","type":"address","internalType":"address"},{"name":"approved","type":"bool","internalType":"bool"}],"outputs":[],"stateMutability":"nonpayable"},{"type":"function","name":"setBridgeContract","inputs":[{"name":"_bridgeContract","type":"address","internalType":"address"}],"outputs":[],"stateMutability":"nonpayable"},{"type":"function","name":"supportsInterface","inputs":[{"name":"interfaceId","type":"bytes4","internalType":"bytes4"}],"outputs":[{"name":"","type":"bool","internalType":"bool"}],"stateMutability":"view"},{"type":"function","name":"transferOwnership","inputs":[{"name":"newOwner","type":"address","internalType":"address"}],"outputs":[],"stateMutability":"nonpayable"},{"type":"function","name":"uri","inputs":[{"name":"","type":"uint256","internalType":"uint256"}],"outputs":[{"name":"","type":"string","internalType":"string"}],"stateMutability":"view"},{"type":"event","name":"ApprovalForAll","inputs":[{"name":"account","type":"address","indexed":true,"internalType":"address"},{"name":"operator","type":"address","indexed":true,"internalType":"address"},{"name":"approved","type":"bool","indexed":false,"internalType":"bool"}],"anonymous":false},{"type":"event","name":"OwnershipTransferred","inputs":[{"name":"previousOwner","type":"address","indexed":true,"internalType":"address"},{"name":"newOwner","type":"address","indexed":true,"internalType":"address"}],"anonymous":false},{"type":"event","name":"TransferBatch","inputs":[{"name":"operator","type":"address","indexed":true,"internalType":"address"},{"name":"from","type":"address","indexed":true,"internalType":"address"},{"name":"to","type":"address","indexed":true,"internalType":"address"},{"name":"ids","type":"uint256[]","indexed":false,"internalType":"uint256[]"},{"name":"values","type":"uint256[]","indexed":false,"internalType":"uint256[]"}],"anonymous":false},{"type":"event","name":"TransferSingle","inputs":[{"name":"operator","type":"address","indexed":true,"internalType":"address"},{"name":"from","type":"address","indexed":true,"internalType":"address"},{"name":"to","type":"address","indexed":true,"internalType":"address"},{"name":"id","type":"uint256","indexed":false,"internalType":"uint256"},{"name":"value","type":"uint256","indexed":false,"internalType":"uint256"}],"anonymous":false},{"type":"event","name":"URI","inputs":[{"name":"value","type":"string","indexed":false,"internalType":"string"},{"name":"id","type":"uint256","indexed":true,"internalType":"uint256"}],"anonymous":false}],"bytecode":{"object":"0x608060405234801561000f575f5ffd5b5060405161203338038061203383398101604081905261002e916100d5565b60408051602081019091525f815261004581610074565b5061004f33610084565b600480546001600160a01b0319166001600160a01b0392909216919091179055610254565b6002610080828261019a565b5050565b600380546001600160a01b038381166001600160a01b0319831681179093556040519116919082907f8be0079c531659141344cd1fd0a4f28419497f9722a3daafe3b4186f6b6457e0905f90a35050565b5f602082840312156100e5575f5ffd5b81516001600160a01b03811681146100fb575f5ffd5b9392505050565b634e487b7160e01b5f52604160045260245ffd5b600181811c9082168061012a57607f821691505b60208210810361014857634e487b7160e01b5f52602260045260245ffd5b50919050565b601f82111561019557805f5260205f20601f840160051c810160208510156101735750805b601f840160051c820191505b81811015610192575f815560010161017f565b50505b505050565b81516001600160401b038111156101b3576101b3610102565b6101c7816101c18454610116565b8461014e565b6020601f8211600181146101f9575f83156101e25750848201515b5f19600385901b1c1916600184901b178455610192565b5f84815260208120601f198516915b828110156102285787850151825560209485019460019092019101610208565b508482101561024557868401515f19600387901b60f8161c191681555b50505050600190811b01905550565b611dd2806102615f395ff3fe608060405234801561000f575f5ffd5b5060043610610105575f3560e01c8063715018a61161009e578063cd5965831161006e578063cd59658314610233578063e985e9c514610246578063f242432a14610281578063f2fde38b14610294578063f5298aca146102a7575f5ffd5b8063715018a6146101e0578063731133e9146101e85780638da5cb5b146101fb578063a22cb46514610220575f5ffd5b80631f7fdffa116100d95780631f7fdffa146101875780632eb2c2d61461019a5780634e1273f4146101ad5780636b20c454146101cd575f5ffd5b8062fdd58e1461010957806301ffc9a71461012f5780630b26cf66146101525780630e89341c14610167575b5f5ffd5b61011c61011736600461132a565b6102ba565b6040519081526020015b60405180910390f35b61014261013d366004611367565b610351565b6040519015158152602001610126565b610165610160366004611389565b6103a0565b005b61017a6101753660046113a2565b61042f565b60405161012691906113e7565b61016561019536600461153b565b6104c1565b6101656101a83660046115d7565b6104fd565b6101c06101bb366004611683565b610549565b604051610126919061178a565b6101656101db36600461179c565b610668565b6101656106a2565b6101656101f636600461180e565b6106b5565b6003546001600160a01b03165b6040516001600160a01b039091168152602001610126565b61016561022e366004611852565b6106eb565b600454610208906001600160a01b031681565b61014261025436600461188b565b6001600160a01b039182165f90815260016020908152604080832093909416825291909152205460ff1690565b61016561028f3660046118bc565b6106fa565b6101656102a2366004611389565b61073f565b6101656102b536600461190f565b6107b8565b5f6001600160a01b0383166103295760405162461bcd60e51b815260206004820152602a60248201527f455243313135353a2061646472657373207a65726f206973206e6f742061207660448201526930b634b21037bbb732b960b11b60648201526084015b60405180910390fd5b505f818152602081815260408083206001600160a01b03861684529091529020545b92915050565b5f6001600160e01b03198216636cdb3d1360e11b148061038157506001600160e01b031982166303a24d0760e21b145b8061034b57506301ffc9a760e01b6001600160e01b031983161461034b565b6103a86107ed565b6001600160a01b03811661040d5760405162461bcd60e51b815260206004820152602660248201527f42726964676520636f6e747261637420616464726573732063616e6e6f74206260448201526565207a65726f60d01b6064820152608401610320565b600480546001600160a01b0319166001600160a01b0392909216919091179055565b60606002805461043e9061193f565b80601f016020809104026020016040519081016040528092919081815260200182805461046a9061193f565b80156104b55780601f1061048c576101008083540402835291602001916104b5565b820191905f5260205f20905b81548152906001019060200180831161049857829003601f168201915b50505050509050919050565b6004546001600160a01b031633146104eb5760405162461bcd60e51b815260040161032090611977565b6104f784848484610847565b50505050565b6001600160a01b03851633148061051957506105198533610254565b6105355760405162461bcd60e51b8152600401610320906119b8565b610542858585858561097f565b5050505050565b606081518351146105ae5760405162461bcd60e51b815260206004820152602960248201527f455243313135353a206163636f756e747320616e6420696473206c656e677468604482015268040dad2e6dac2e8c6d60bb1b6064820152608401610320565b5f83516001600160401b038111156105c8576105c86113f9565b6040519080825280602002602001820160405280156105f1578160200160208202803683370190505b5090505f5b84518110156106605761063b85828151811061061457610614611a06565b602002602001015185838151811061062e5761062e611a06565b60200260200101516102ba565b82828151811061064d5761064d611a06565b60209081029190910101526001016105f6565b509392505050565b6004546001600160a01b031633146106925760405162461bcd60e51b815260040161032090611977565b61069d838383610b0f565b505050565b6106aa6107ed565b6106b35f610c88565b565b6004546001600160a01b031633146106df5760405162461bcd60e51b815260040161032090611977565b6104f784848484610cd9565b6106f6338383610dae565b5050565b6001600160a01b03851633148061071657506107168533610254565b6107325760405162461bcd60e51b8152600401610320906119b8565b6105428585858585610e8d565b6107476107ed565b6001600160a01b0381166107ac5760405162461bcd60e51b815260206004820152602660248201527f4f776e61626c653a206e6577206f776e657220697320746865207a65726f206160448201526564647265737360d01b6064820152608401610320565b6107b581610c88565b50565b6004546001600160a01b031633146107e25760405162461bcd60e51b815260040161032090611977565b61069d838383610fb3565b6003546001600160a01b031633146106b35760405162461bcd60e51b815260206004820181905260248201527f4f776e61626c653a2063616c6c6572206973206e6f7420746865206f776e65726044820152606401610320565b6001600160a01b03841661086d5760405162461bcd60e51b815260040161032090611a1a565b815183511461088e5760405162461bcd60e51b815260040161032090611a5b565b335f5b8451811015610919578381815181106108ac576108ac611a06565b60200260200101515f5f8784815181106108c8576108c8611a06565b602002602001015181526020019081526020015f205f886001600160a01b03166001600160a01b031681526020019081526020015f205f82825461090c9190611aa3565b9091555050600101610891565b50846001600160a01b03165f6001600160a01b0316826001600160a01b03167f4a39dc06d4c0dbc64b70af90fd698a233a518aa5d07e595d983b8c0526c8f7fb8787604051610969929190611ac2565b60405180910390a4610542815f878787876110b2565b81518351146109a05760405162461bcd60e51b815260040161032090611a5b565b6001600160a01b0384166109c65760405162461bcd60e51b815260040161032090611aef565b335f5b8451811015610aa1575f8582815181106109e5576109e5611a06565b602002602001015190505f858381518110610a0257610a02611a06565b6020908102919091018101515f84815280835260408082206001600160a01b038e168352909352919091205490915081811015610a515760405162461bcd60e51b815260040161032090611b34565b5f838152602081815260408083206001600160a01b038e8116855292528083208585039055908b16825281208054849290610a8d908490611aa3565b9091555050600190930192506109c9915050565b50846001600160a01b0316866001600160a01b0316826001600160a01b03167f4a39dc06d4c0dbc64b70af90fd698a233a518aa5d07e595d983b8c0526c8f7fb8787604051610af1929190611ac2565b60405180910390a4610b078187878787876110b2565b505050505050565b6001600160a01b038316610b355760405162461bcd60e51b815260040161032090611b7e565b8051825114610b565760405162461bcd60e51b815260040161032090611a5b565b60408051602081019091525f9081905233905b8351811015610c1d575f848281518110610b8557610b85611a06565b602002602001015190505f848381518110610ba257610ba2611a06565b6020908102919091018101515f84815280835260408082206001600160a01b038c168352909352919091205490915081811015610bf15760405162461bcd60e51b815260040161032090611bc1565b5f928352602083815260408085206001600160a01b038b16865290915290922091039055600101610b69565b505f6001600160a01b0316846001600160a01b0316826001600160a01b03167f4a39dc06d4c0dbc64b70af90fd698a233a518aa5d07e595d983b8c0526c8f7fb8686604051610c6d929190611ac2565b60405180910390a460408051602081019091525f90526104f7565b600380546001600160a01b038381166001600160a01b0319831681179093556040519116919082907f8be0079c531659141344cd1fd0a4f28419497f9722a3daafe3b4186f6b6457e0905f90a35050565b6001600160a01b038416610cff5760405162461bcd60e51b815260040161032090611a1a565b335f610d0a8561120c565b90505f610d168561120c565b90505f868152602081815260408083206001600160a01b038b16845290915281208054879290610d47908490611aa3565b909155505060408051878152602081018790526001600160a01b03808a16925f92918716917fc3d58168c5ae7397731d063d5bbf3d657854427343f4c083240f7aacaa2d0f62910160405180910390a4610da5835f89898989611255565b50505050505050565b816001600160a01b0316836001600160a01b031603610e215760405162461bcd60e51b815260206004820152602960248201527f455243313135353a2073657474696e6720617070726f76616c20737461747573604482015268103337b91039b2b63360b91b6064820152608401610320565b6001600160a01b038381165f81815260016020908152604080832094871680845294825291829020805460ff191686151590811790915591519182527f17307eab39ab6107e8899845ad3d59bd9653f200f220920489ca2b5937696c31910160405180910390a3505050565b6001600160a01b038416610eb35760405162461bcd60e51b815260040161032090611aef565b335f610ebe8561120c565b90505f610eca8561120c565b90505f868152602081815260408083206001600160a01b038c16845290915290205485811015610f0c5760405162461bcd60e51b815260040161032090611b34565b5f878152602081815260408083206001600160a01b038d8116855292528083208985039055908a16825281208054889290610f48908490611aa3565b909155505060408051888152602081018890526001600160a01b03808b16928c821692918816917fc3d58168c5ae7397731d063d5bbf3d657854427343f4c083240f7aacaa2d0f62910160405180910390a4610fa8848a8a8a8a8a611255565b505050505050505050565b6001600160a01b038316610fd95760405162461bcd60e51b815260040161032090611b7e565b335f610fe48461120c565b90505f610ff08461120c565b60408051602080820183525f918290528882528181528282206001600160a01b038b168352905220549091508481101561103c5760405162461bcd60e51b815260040161032090611bc1565b5f868152602081815260408083206001600160a01b038b81168086529184528285208a8703905582518b81529384018a90529092908816917fc3d58168c5ae7397731d063d5bbf3d657854427343f4c083240f7aacaa2d0f62910160405180910390a460408051602081019091525f9052610da5565b6001600160a01b0384163b15610b075760405163bc197c8160e01b81526001600160a01b0385169063bc197c81906110f69089908990889088908890600401611c05565b6020604051808303815f875af1925050508015611130575060408051601f3d908101601f1916820190925261112d91810190611c62565b60015b6111dc5761113c611c7d565b806308c379a0036111755750611150611c96565b8061115b5750611177565b8060405162461bcd60e51b815260040161032091906113e7565b505b60405162461bcd60e51b815260206004820152603460248201527f455243313135353a207472616e7366657220746f206e6f6e2d455243313135356044820152732932b1b2b4bb32b91034b6b83632b6b2b73a32b960611b6064820152608401610320565b6001600160e01b0319811663bc197c8160e01b14610da55760405162461bcd60e51b815260040161032090611d10565b6040805160018082528183019092526060915f91906020808301908036833701905050905082815f8151811061124457611244611a06565b602090810291909101015292915050565b6001600160a01b0384163b15610b075760405163f23a6e6160e01b81526001600160a01b0385169063f23a6e61906112999089908990889088908890600401611d58565b6020604051808303815f875af19250505080156112d3575060408051601f3d908101601f191682019092526112d091810190611c62565b60015b6112df5761113c611c7d565b6001600160e01b0319811663f23a6e6160e01b14610da55760405162461bcd60e51b815260040161032090611d10565b80356001600160a01b0381168114611325575f5ffd5b919050565b5f5f6040838503121561133b575f5ffd5b6113448361130f565b946020939093013593505050565b6001600160e01b0319811681146107b5575f5ffd5b5f60208284031215611377575f5ffd5b813561138281611352565b9392505050565b5f60208284031215611399575f5ffd5b6113828261130f565b5f602082840312156113b2575f5ffd5b5035919050565b5f81518084528060208401602086015e5f602082860101526020601f19601f83011685010191505092915050565b602081525f61138260208301846113b9565b634e487b7160e01b5f52604160045260245ffd5b601f8201601f191681016001600160401b0381118282101715611432576114326113f9565b6040525050565b5f6001600160401b03821115611451576114516113f9565b5060051b60200190565b5f82601f83011261146a575f5ffd5b813561147581611439565b604051611482828261140d565b80915082815260208101915060208360051b8601019250858311156114a5575f5ffd5b602085015b838110156114c25780358352602092830192016114aa565b5095945050505050565b5f82601f8301126114db575f5ffd5b81356001600160401b038111156114f4576114f46113f9565b60405161150b601f8301601f19166020018261140d565b81815284602083860101111561151f575f5ffd5b816020850160208301375f918101602001919091529392505050565b5f5f5f5f6080858703121561154e575f5ffd5b6115578561130f565b935060208501356001600160401b03811115611571575f5ffd5b61157d8782880161145b565b93505060408501356001600160401b03811115611598575f5ffd5b6115a48782880161145b565b92505060608501356001600160401b038111156115bf575f5ffd5b6115cb878288016114cc565b91505092959194509250565b5f5f5f5f5f60a086880312156115eb575f5ffd5b6115f48661130f565b94506116026020870161130f565b935060408601356001600160401b0381111561161c575f5ffd5b6116288882890161145b565b93505060608601356001600160401b03811115611643575f5ffd5b61164f8882890161145b565b92505060808601356001600160401b0381111561166a575f5ffd5b611676888289016114cc565b9150509295509295909350565b5f5f60408385031215611694575f5ffd5b82356001600160401b038111156116a9575f5ffd5b8301601f810185136116b9575f5ffd5b80356116c481611439565b6040516116d1828261140d565b80915082815260208101915060208360051b8501019250878311156116f4575f5ffd5b6020840193505b8284101561171d5761170c8461130f565b8252602093840193909101906116fb565b945050505060208301356001600160401b0381111561173a575f5ffd5b6117468582860161145b565b9150509250929050565b5f8151808452602084019350602083015f5b82811015611780578151865260209586019590910190600101611762565b5093949350505050565b602081525f6113826020830184611750565b5f5f5f606084860312156117ae575f5ffd5b6117b78461130f565b925060208401356001600160401b038111156117d1575f5ffd5b6117dd8682870161145b565b92505060408401356001600160401b038111156117f8575f5ffd5b6118048682870161145b565b9150509250925092565b5f5f5f5f60808587031215611821575f5ffd5b61182a8561130f565b9350602085013592506040850135915060608501356001600160401b038111156115bf575f5ffd5b5f5f60408385031215611863575f5ffd5b61186c8361130f565b915060208301358015158114611880575f5ffd5b809150509250929050565b5f5f6040838503121561189c575f5ffd5b6118a58361130f565b91506118b36020840161130f565b90509250929050565b5f5f5f5f5f60a086880312156118d0575f5ffd5b6118d98661130f565b94506118e76020870161130f565b9350604086013592506060860135915060808601356001600160401b0381111561166a575f5ffd5b5f5f5f60608486031215611921575f5ffd5b61192a8461130f565b95602085013595506040909401359392505050565b600181811c9082168061195357607f821691505b60208210810361197157634e487b7160e01b5f52602260045260245ffd5b50919050565b60208082526021908201527f43616c6c6572206973206e6f74207468652062726964676520636f6e747261636040820152601d60fa1b606082015260800190565b6020808252602e908201527f455243313135353a2063616c6c6572206973206e6f7420746f6b656e206f776e60408201526d195c881bdc88185c1c1c9bdd995960921b606082015260800190565b634e487b7160e01b5f52603260045260245ffd5b60208082526021908201527f455243313135353a206d696e7420746f20746865207a65726f206164647265736040820152607360f81b606082015260800190565b60208082526028908201527f455243313135353a2069647320616e6420616d6f756e7473206c656e677468206040820152670dad2e6dac2e8c6d60c31b606082015260800190565b8082018082111561034b57634e487b7160e01b5f52601160045260245ffd5b604081525f611ad46040830185611750565b8281036020840152611ae68185611750565b95945050505050565b60208082526025908201527f455243313135353a207472616e7366657220746f20746865207a65726f206164604082015264647265737360d81b606082015260800190565b6020808252602a908201527f455243313135353a20696e73756666696369656e742062616c616e636520666f60408201526939103a3930b739b332b960b11b606082015260800190565b60208082526023908201527f455243313135353a206275726e2066726f6d20746865207a65726f206164647260408201526265737360e81b606082015260800190565b60208082526024908201527f455243313135353a206275726e20616d6f756e7420657863656564732062616c604082015263616e636560e01b606082015260800190565b6001600160a01b0386811682528516602082015260a0604082018190525f90611c3090830186611750565b8281036060840152611c428186611750565b90508281036080840152611c5681856113b9565b98975050505050505050565b5f60208284031215611c72575f5ffd5b815161138281611352565b5f60033d1115611c935760045f5f3e505f5160e01c5b90565b5f60443d1015611ca35790565b6040513d600319016004823e80513d60248201116001600160401b0382111715611ccc57505090565b80820180516001600160401b03811115611ce7575050505090565b3d8401600319018282016020011115611d01575050505090565b6106606020828501018561140d565b60208082526028908201527f455243313135353a204552433131353552656365697665722072656a656374656040820152676420746f6b656e7360c01b606082015260800190565b6001600160a01b03868116825285166020820152604081018490526060810183905260a0608082018190525f90611d91908301846113b9565b97965050505050505056fea2646970667358221220ce1f086032815f965246f4c591cd734df890fb66c46508dfd67edf50f136252564736f6c634300081c0033","linkReferences":{}},"methodIdentifiers":{"balanceOf(address,uint256)":"00fdd58e","balanceOfBatch(address[],uint256[])":"4e1273f4","bridgeContract()":"cd596583","burn(address,uint256,uint256)":"f5298aca","burnBatch(address,uint256[],uint256[])":"6b20c454","isApprovedForAll(address,address)":"e985e9c5","mint(address,uint256,uint256,bytes)":"731133e9","mintBatch(address,uint256[],uint256[],bytes)":"1f7fdffa","owner()":"8da5cb5b","renounceOwnership()":"715018a6","safeBatchTransferFrom(address,address,uint256[],uint256[],bytes)":"2eb2c2d6","safeTransferFrom(address,address,uint256,uint256,bytes)":"f242432a","setApprovalForAll(address,bool)":"a22cb465","setBridgeContract(address)":"0b26cf66","supportsInterface(bytes4)":"01ffc9a7","transferOwnership(address)":"f2fde38b","uri(uint256)":"0e89341c"},"id":18}