{"abi":[{"type":"function","name":"bridge","inputs":[],"outputs":[{"name":"","type":"address","internalType":"address"}],"stateMutability":"view"}],"bytecode":{"object":"0x60a0604052336080523480156012575f5ffd5b5060805160a260275f395f602e015260a25ff3fe6080604052348015600e575f5ffd5b50600436106026575f3560e01c8063e78cea9214602a575b5f5ffd5b60507f000000000000000000000000000000000000000000000000000000000000000081565b6040516001600160a01b03909116815260200160405180910390f3fea2646970667358221220f98f06712d2f2cca1bb4b62b07706d0c748c344ef0756e9bd88c4b79303ae85164736f6c634300081c0033","linkReferences":{}},"methodIdentifiers":{"bridge()":"e78cea92"},"id":135}