{"abi":[{"type":"function","name":"relayAs","inputs":[{"name":"target","type":"address","internalType":"address"},{"name":"data","type":"bytes","internalType":"bytes"},{"name":"sender","type":"address","internalType":"address"}],"outputs":[],"stateMutability":"nonpayable"},{"type":"error","name":"InvalidCrossChainSender","inputs":[{"name":"sender","type":"address","internalType":"address"},{"name":"expected","type":"address","internalType":"address"}]},{"type":"error","name":"NotCrossChainCall","inputs":[]}],"bytecode":{"object":"0x6080604052348015600e575f5ffd5b506101cd8061001c5f395ff3fe608060405234801561000f575f5ffd5b5060043610610029575f3560e01c8063fb417a5b1461002d575b5f5ffd5b61004061003b3660046100c2565b610042565b005b604051639a7c4b7160e01b81526001600160a01b03851690639a7c4b7190610074905f90859088908890600401610151565b5f604051808303815f87803b15801561008b575f5ffd5b505af115801561009d573d5f5f3e3d5ffd5b5050505050505050565b80356001600160a01b03811681146100bd575f5ffd5b919050565b5f5f5f5f606085870312156100d5575f5ffd5b6100de856100a7565b9350602085013567ffffffffffffffff8111156100f9575f5ffd5b8501601f81018713610109575f5ffd5b803567ffffffffffffffff81111561011f575f5ffd5b876020828401011115610130575f5ffd5b60209190910193509150610146604086016100a7565b905092959194509250565b8481526001600160a01b03841660208201526060604082018190528101829052818360808301375f818301608090810191909152601f909201601f19160101939250505056fea26469706673582212207a668de284b58d4796b452537a6b872ddd7563b6118589f3a642cccf7683087564736f6c634300081c0033","linkReferences":{}},"methodIdentifiers":{"relayAs(address,bytes,address)":"fb417a5b"},"id":135}