{"abi":[{"type":"function","name":"activeOutbox","inputs":[],"outputs":[{"name":"","type":"address","internalType":"address"}],"stateMutability":"view"},{"type":"function","name":"currentSender","inputs":[],"outputs":[{"name":"","type":"address","internalType":"address"}],"stateMutability":"view"},{"type":"function","name":"inbox","inputs":[],"outputs":[{"name":"","type":"address","internalType":"address"}],"stateMutability":"view"},{"type":"function","name":"outbox","inputs":[],"outputs":[{"name":"","type":"address","internalType":"address"}],"stateMutability":"view"},{"type":"function","name":"relayAs","inputs":[{"name":"target","type":"address","internalType":"address"},{"name":"data","type":"bytes","internalType":"bytes"},{"name":"sender","type":"address","internalType":"address"}],"outputs":[],"stateMutability":"nonpayable"},{"type":"error","name":"InvalidCrossChainSender","inputs":[{"name":"sender","type":"address","internalType":"address"},{"name":"expected","type":"address","internalType":"address"}]},{"type":"error","name":"NotCrossChainCall","inputs":[]}],"bytecode":{"object":"0x60c060405260405161001090610079565b604051809103905ff080158015610029573d5f5f3e3d5ffd5b506001600160a01b031660805260405161004290610085565b604051809103905ff08015801561005b573d5f5f3e3d5ffd5b506001600160a01b031660a052348015610073575f5ffd5b50610092565b60c98061047783390190565b61019c8061054083390190565b60805160a0516103c06100b75f395f81816083015260ac01525f60d301526103c05ff3fe608060405234801561000f575f5ffd5b5060043610610055575f3560e01c806370348f3e14610059578063ab5d894314610081578063ce11e6ab146100a7578063fb0e722b146100ce578063fb417a5b146100f5575b5f5ffd5b5f546001600160a01b03165b6040516001600160a01b03909116815260200160405180910390f35b7f0000000000000000000000000000000000000000000000000000000000000000610065565b6100657f000000000000000000000000000000000000000000000000000000000000000081565b6100657f000000000000000000000000000000000000000000000000000000000000000081565b6101086101033660046102b7565b61010a565b005b5f80546001600160a01b038381166001600160a01b03198316178355604051918116929182918816906101409088908890610346565b5f604051808303815f865af19150503d805f8114610179576040519150601f19603f3d011682016040523d82523d5f602084013e61017e565b606091505b50915091506101c48783836040518060400160405280601781526020017f6c6f772d6c6576656c2063616c6c2072657665727465640000000000000000008152506101ed565b50505f80546001600160a01b0319166001600160a01b0393909316929092179091555050505050565b606083156102605782515f03610259576001600160a01b0385163b6102595760405162461bcd60e51b815260206004820152601d60248201527f416464726573733a2063616c6c20746f206e6f6e2d636f6e747261637400000060448201526064015b60405180910390fd5b508161026a565b61026a8383610272565b949350505050565b8151156102825781518083602001fd5b8060405162461bcd60e51b81526004016102509190610355565b80356001600160a01b03811681146102b2575f5ffd5b919050565b5f5f5f5f606085870312156102ca575f5ffd5b6102d38561029c565b9350602085013567ffffffffffffffff8111156102ee575f5ffd5b8501601f810187136102fe575f5ffd5b803567ffffffffffffffff811115610314575f5ffd5b876020828401011115610325575f5ffd5b6020919091019350915061033b6040860161029c565b905092959194509250565b818382375f9101908152919050565b602081525f82518060208401528060208501604085015e5f604082850101526040601f19601f8301168401019150509291505056fea2646970667358221220eabef6c6adbb5dca994f96429069b142511483f6aea3dafc0759c06f244dbc7464736f6c634300081c003360a0604052336080523480156012575f5ffd5b5060805160a260275f395f602e015260a25ff3fe6080604052348015600e575f5ffd5b50600436106026575f3560e01c8063e78cea9214602a575b5f5ffd5b60507f000000000000000000000000000000000000000000000000000000000000000081565b6040516001600160a01b03909116815260200160405180910390f3fea2646970667358221220f98f06712d2f2cca1bb4b62b07706d0c748c344ef0756e9bd88c4b79303ae85164736f6c634300081c003360a0604052336080523480156012575f5ffd5b5060805161016c6100305f395f8181606101526086015261016c5ff3fe608060405234801561000f575f5ffd5b5060043610610034575f3560e01c806380648b0214610038578063e78cea921461005c575b5f5ffd5b610040610083565b6040516001600160a01b03909116815260200160405180910390f35b6100407f000000000000000000000000000000000000000000000000000000000000000081565b5f7f00000000000000000000000000000000000000000000000000000000000000006001600160a01b03166370348f3e6040518163ffffffff1660e01b8152600401602060405180830381865afa1580156100e0573d5f5f3e3d5ffd5b505050506040513d601f19601f820116820180604052508101906101049190610109565b905090565b5f60208284031215610119575f5ffd5b81516001600160a01b038116811461012f575f5ffd5b939250505056fea2646970667358221220f424bb26a64cc343a96ff7b4e00a8a895e1d47dcc16492625be515b811b0ecfd64736f6c634300081c0033","linkReferences":{}},"methodIdentifiers":{"activeOutbox()":"ab5d8943","currentSender()":"70348f3e","inbox()":"fb0e722b","outbox()":"ce11e6ab","relayAs(address,bytes,address)":"fb417a5b"},"id":135}