{"abi":[{"type":"constructor","inputs":[],"stateMutability":"nonpayable"},{"type":"function","name":"DELEGATION_TYPEHASH","inputs":[],"outputs":[{"name":"","type":"bytes32","internalType":"bytes32"}],"stateMutability":"view"},{"type":"function","name":"DOMAIN_TYPEHASH","inputs":[],"outputs":[{"name":"","type":"bytes32","internalType":"bytes32"}],"stateMutability":"view"},{"type":"function","name":"approve","inputs":[{"name":"to","type":"address","internalType":"address"},{"name":"tokenId","type":"uint256","internalType":"uint256"}],"outputs":[],"stateMutability":"nonpayable"},{"type":"function","name":"balanceOf","inputs":[{"name":"owner","type":"address","internalType":"address"}],"outputs":[{"name":"","type":"uint256","internalType":"uint256"}],"stateMutability":"view"},{"type":"function","name":"burn","inputs":[{"name":"tokenId","type":"uint256","internalType":"uint256"}],"outputs":[],"stateMutability":"nonpayable"},{"type":"function","name":"checkpoints","inputs":[{"name":"","type":"address","internalType":"address"},{"name":"","type":"uint256","internalType":"uint256"}],"outputs":[{"name":"fromBlock","type":"uint256","internalType":"uint256"},{"name":"votes","type":"uint256","internalType":"uint256"}],"stateMutability":"view"},{"type":"function","name":"delegate","inputs":[{"name":"delegatee","type":"address","internalType":"address"}],"outputs":[],"stateMutability":"nonpayable"},{"type":"function","name":"delegateBySig","inputs":[{"name":"delegatee","type":"address","internalType":"address"},{"name":"nonce","type":"uint256","internalType":"uint256"},{"name":"expiry","type":"uint256","internalType":"uint256"},{"name":"v","type":"uint8","internalType":"uint8"},{"name":"r","type":"bytes32","internalType":"bytes32"},{"name":"s","type":"bytes32","internalType":"bytes32"}],"outputs":[],"stateMutability":"nonpayable"},{"type":"function","name":"delegates","inputs":[{"name":"delegator","type":"address","internalType":"address"}],"outputs":[{"name":"","type":"address","internalType":"address"}],"stateMutability":"view"},{"type":"function","name":"getApproved","inputs":[{"name":"tokenId","type":"uint256","internalType":"uint256"}],"outputs":[{"name":"","type":"address","internalType":"address"}],"stateMutability":"view"},{"type":"function","name":"getCurrentVotes","inputs":[{"name":"account","type":"address","internalType":"address"}],"outputs":[{"name":"","type":"uint256","internalType":"uint256"}],"stateMutability":"view"},{"type":"function","name":"getPriorVotes","inputs":[{"name":"account","type":"address","internalType":"address"},{"name":"blockNumber","type":"uint256","internalType":"uint256"}],"outputs":[{"name":"","type":"uint256","internalType":"uint256"}],"stateMutability":"view"},{"type":"function","name":"isApprovedForAll","inputs":[{"name":"owner","type":"address","internalType":"address"},{"name":"operator","type":"address","internalType":"address"}],"outputs":[{"name":"","type":"bool","internalType":"bool"}],"stateMutability":"view"},{"type":"function","name":"mint","inputs":[{"name":"user","type":"address","internalType":"address"},{"name":"tokenId","type":"uint256","internalType":"uint256"},{"name":"votingAmount","type":"uint256","internalType":"uint256"}],"outputs":[{"name":"","type":"uint256","internalType":"uint256"}],"stateMutability":"nonpayable"},{"type":"function","name":"name","inputs":[],"outputs":[{"name":"","type":"string","internalType":"string"}],"stateMutability":"view"},{"type":"function","name":"nonces","inputs":[{"name":"","type":"address","internalType":"address"}],"outputs":[{"name":"","type":"uint256","internalType":"uint256"}],"stateMutability":"view"},{"type":"function","name":"numCheckpoints","inputs":[{"name":"","type":"address","internalType":"address"}],"outputs":[{"name":"","type":"uint256","internalType":"uint256"}],"stateMutability":"view"},{"type":"function","name":"owner","inputs":[],"outputs":[{"name":"","type":"address","internalType":"address"}],"stateMutability":"view"},{"type":"function","name":"ownerOf","inputs":[{"name":"tokenId","type":"uint256","internalType":"uint256"}],"outputs":[{"name":"","type":"address","internalType":"address"}],"stateMutability":"view"},{"type":"function","name":"renounceOwnership","inputs":[],"outputs":[],"stateMutability":"nonpayable"},{"type":"function","name":"safeTransferFrom","inputs":[{"name":"from","type":"address","internalType":"address"},{"name":"to","type":"address","internalType":"address"},{"name":"tokenId","type":"uint256","internalType":"uint256"}],"outputs":[],"stateMutability":"nonpayable"},{"type":"function","name":"safeTransferFrom","inputs":[{"name":"from","type":"address","internalType":"address"},{"name":"to","type":"address","internalType":"address"},{"name":"tokenId","type":"uint256","internalType":"uint256"},{"name":"data","type":"bytes","internalType":"bytes"}],"outputs":[],"stateMutability":"nonpayable"},{"type":"function","name":"setApprovalForAll","inputs":[{"name":"operator","type":"address","internalType":"address"},{"name":"approved","type":"bool","internalType":"bool"}],"outputs":[],"stateMutability":"nonpayable"},{"type":"function","name":"supportsInterface","inputs":[{"name":"interfaceId","type":"bytes4","internalType":"bytes4"}],"outputs":[{"name":"","type":"bool","internalType":"bool"}],"stateMutability":"view"},{"type":"function","name":"symbol","inputs":[],"outputs":[{"name":"","type":"string","internalType":"string"}],"stateMutability":"view"},{"type":"function","name":"tokenURI","inputs":[{"name":"tokenId","type":"uint256","internalType":"uint256"}],"outputs":[{"name":"","type":"string","internalType":"string"}],"stateMutability":"view"},{"type":"function","name":"transferFrom","inputs":[{"name":"from","type":"address","internalType":"address"},{"name":"to","type":"address","internalType":"address"},{"name":"tokenId","type":"uint256","internalType":"uint256"}],"outputs":[],"stateMutability":"nonpayable"},{"type":"function","name":"transferOwnership","inputs":[{"name":"newOwner","type":"address","internalType":"address"}],"outputs":[],"stateMutability":"nonpayable"},{"type":"function","name":"votesToDelegate","inputs":[{"name":"delegator","type":"address","internalType":"address"}],"outputs":[{"name":"","type":"uint256","internalType":"uint256"}],"stateMutability":"view"},{"type":"function","name":"votingBalances","inputs":[{"name":"","type":"address","internalType":"address"}],"outputs":[{"name":"","type":"uint256","internalType":"uint256"}],"stateMutability":"view"},{"type":"function","name":"votingPower","inputs":[{"name":"","type":"uint256","internalType":"uint256"}],"outputs":[{"name":"","type":"uint256","internalType":"uint256"}],"stateMutability":"view"},{"type":"event","name":"Approval","inputs":[{"name":"owner","type":"address","indexed":true,"internalType":"address"},{"name":"approved","type":"address","indexed":true,"internalType":"address"},{"name":"tokenId","type":"uint256","indexed":true,"internalType":"uint256"}],"anonymous":false},{"type":"event","name":"ApprovalForAll","inputs":[{"name":"owner","type":"address","indexed":true,"internalType":"address"},{"name":"operator","type":"address","indexed":true,"internalType":"address"},{"name":"approved","type":"bool","indexed":false,"internalType":"bool"}],"anonymous":false},{"type":"event","name":"OwnershipTransferred","inputs":[{"name":"previousOwner","type":"address","indexed":true,"internalType":"address"},{"name":"newOwner","type":"address","indexed":true,"internalType":"address"}],"anonymous":false},{"type":"event","name":"Transfer","inputs":[{"name":"from","type":"address","indexed":true,"internalType":"address"},{"name":"to","type":"address","indexed":true,"internalType":"address"},{"name":"tokenId","type":"uint256","indexed":true,"internalType":"uint256"}],"anonymous":false},{"type":"error","name":"AmountOverflows","inputs":[]},{"type":"error","name":"AmountUnderflows","inputs":[]},{"type":"error","name":"InvalidNonce","inputs":[]},{"type":"error","name":"InvalidSignature","inputs":[]},{"type":"error","name":"NotOwner","inputs":[]},{"type":"error","name":"NotYetDetermined","inputs":[]},{"type":"error","name":"SignatureExpired","inputs":[]}],"bytecode":{"object":"0x608060405234801561000f575f5ffd5b506040518060400160405280600c81526020016b566f74696e6745524337323160a01b815250604051806040016040528060048152602001635345524360e01b815250815f90816100609190610178565b50600161006d8282610178565b50505061008661008161008b60201b60201c565b61008f565b610232565b3390565b600680546001600160a01b038381166001600160a01b0319831681179093556040519116919082907f8be0079c531659141344cd1fd0a4f28419497f9722a3daafe3b4186f6b6457e0905f90a35050565b634e487b7160e01b5f52604160045260245ffd5b600181811c9082168061010857607f821691505b60208210810361012657634e487b7160e01b5f52602260045260245ffd5b50919050565b601f82111561017357805f5260205f20601f840160051c810160208510156101515750805b601f840160051c820191505b81811015610170575f815560010161015d565b50505b505050565b81516001600160401b03811115610191576101916100e0565b6101a58161019f84546100f4565b8461012c565b6020601f8211600181146101d7575f83156101c05750848201515b5f19600385901b1c1916600184901b178455610170565b5f84815260208120601f198516915b8281101561020657878501518255602094850194600190920191016101e6565b508482101561022357868401515f19600387901b60f8161c191681555b50505050600190811b01905550565b611fca8061023f5f395ff3fe608060405234801561000f575f5ffd5b50600436106101dc575f3560e01c806370a0823111610109578063b4b5ea571161009e578063e7a324dc1161006e578063e7a324dc1461047f578063e9580e91146104a6578063e985e9c5146104ce578063f2fde38b14610509575f5ffd5b8063b4b5ea5714610433578063b88d4fde14610446578063c3cda52014610459578063c87b56dd1461046c575f5ffd5b80637ecebe00116100d95780637ecebe00146103e85780638da5cb5b1461040757806395d89b4114610418578063a22cb46514610420575f5ffd5b806370a082311461039b578063715018a6146103ae57806372c4a927146103b6578063782d6fe1146103d5575f5ffd5b806320606b701161017f578063587cde1e1161014f578063587cde1e146103435780635c19a95c146103565780636352211e146103695780636fcfff451461037c575f5ffd5b806320606b70146102e357806323b872dd1461030a57806342842e0e1461031d57806342966c6814610330575f5ffd5b8063095ea7b3116101ba578063095ea7b3146102485780630cdfebfa1461025d578063156e29f6146102a357806315e3009e146102c4575f5ffd5b806301ffc9a7146101e057806306fdde0314610208578063081812fc1461021d575b5f5ffd5b6101f36101ee366004611a97565b61051c565b60405190151581526020015b60405180910390f35b61021061056d565b6040516101ff9190611ae0565b61023061022b366004611af2565b6105fc565b6040516001600160a01b0390911681526020016101ff565b61025b610256366004611b24565b610621565b005b61028e61026b366004611b24565b600860209081525f92835260408084209091529082529020805460019091015482565b604080519283526020830191909152016101ff565b6102b66102b1366004611b4c565b61073a565b6040519081526020016101ff565b6102b66102d2366004611b7c565b600c6020525f908152604090205481565b6102b67f8cad95687ba82c2ce50e74f7b754645e5117c3a5bec8151c0726d5857980a86681565b61025b610318366004611b95565b610764565b61025b61032b366004611b95565b610795565b61025b61033e366004611af2565b6107af565b610230610351366004611b7c565b6107c3565b61025b610364366004611b7c565b6107f2565b610230610377366004611af2565b61080d565b6102b661038a366004611b7c565b60096020525f908152604090205481565b6102b66103a9366004611b7c565b61086c565b61025b6108f0565b6102b66103c4366004611af2565b600b6020525f908152604090205481565b6102b66103e3366004611b24565b610903565b6102b66103f6366004611b7c565b600a6020525f908152604090205481565b6006546001600160a01b0316610230565b610210610adb565b61025b61042e366004611bcf565b610aea565b6102b6610441366004611b7c565b610af9565b61025b610454366004611c1c565b610b57565b61025b610467366004611cf9565b610b8f565b61021061047a366004611af2565b610da1565b6102b67fe48329057bfd03d55e49b547132e39cffd9c1820ad7b9d4c5307691425d15adf81565b6102b66104b4366004611b7c565b6001600160a01b03165f908152600c602052604090205490565b6101f36104dc366004611d54565b6001600160a01b039182165f90815260056020908152604080832093909416825291909152205460ff1690565b61025b610517366004611b7c565b610e10565b5f6001600160e01b031982166380ac58cd60e01b148061054c57506001600160e01b03198216635b5e139f60e01b145b8061056757506301ffc9a760e01b6001600160e01b03198316145b92915050565b60605f805461057b90611d85565b80601f01602080910402602001604051908101604052809291908181526020018280546105a790611d85565b80156105f25780601f106105c9576101008083540402835291602001916105f2565b820191905f5260205f20905b8154815290600101906020018083116105d557829003601f168201915b5050505050905090565b5f61060682610e86565b505f908152600460205260409020546001600160a01b031690565b5f61062b8261080d565b9050806001600160a01b0316836001600160a01b03160361069d5760405162461bcd60e51b815260206004820152602160248201527f4552433732313a20617070726f76616c20746f2063757272656e74206f776e656044820152603960f91b60648201526084015b60405180910390fd5b336001600160a01b03821614806106b957506106b981336104dc565b61072b5760405162461bcd60e51b815260206004820152603d60248201527f4552433732313a20617070726f76652063616c6c6572206973206e6f7420746f60448201527f6b656e206f776e6572206f7220617070726f76656420666f7220616c6c0000006064820152608401610694565b6107358383610ee4565b505050565b5f610743610f51565b5f838152600b6020526040902082905561075d8484610fab565b9392505050565b61076e3382611140565b61078a5760405162461bcd60e51b815260040161069490611dbd565b6107358383836111bd565b61073583838360405180602001604052805f815250610b57565b6107b7610f51565b6107c08161132c565b50565b6001600160a01b038082165f9081526007602052604081205490911680156107eb578061075d565b5090919050565b6001600160a01b0381166108035750335b6107c033826113cb565b5f818152600260205260408120546001600160a01b0316806105675760405162461bcd60e51b8152602060048201526018602482015277115490cdcc8c4e881a5b9d985b1a59081d1bdad95b88125160421b6044820152606401610694565b5f6001600160a01b0382166108d55760405162461bcd60e51b815260206004820152602960248201527f4552433732313a2061646472657373207a65726f206973206e6f7420612076616044820152683634b21037bbb732b960b91b6064820152608401610694565b506001600160a01b03165f9081526003602052604090205490565b6108f8610f51565b6109015f61141a565b565b5f4382106109245760405163327b4e9760e11b815260040160405180910390fd5b6001600160a01b0383165f908152600960205260408120549081900361094d575f915050610567565b6001600160a01b0384165f9081526008602052604081208491610971600185611e1e565b81526020019081526020015f205f0154116109c2576001600160a01b0384165f908152600860205260408120906109a9600184611e1e565b81526020019081526020015f2060010154915050610567565b6001600160a01b0384165f9081526008602090815260408083208380529091529020548310156109f5575f915050610567565b5f80610a02600184611e1e565b90505b81811115610aac575f6002610a1a8484611e1e565b610a249190611e31565b610a2e9083611e1e565b6001600160a01b0388165f908152600860209081526040808320848452825291829020825180840190935280548084526001909101549183019190915291925090879003610a86576020015194506105679350505050565b8051871115610a9757819350610aa5565b610aa2600183611e1e565b92505b5050610a05565b506001600160a01b0385165f908152600860209081526040808320938352929052206001015491505092915050565b60606001805461057b90611d85565b610af533838361146b565b5050565b6001600160a01b0381165f9081526009602052604081205480610b1c575f61075d565b6001600160a01b0383165f90815260086020526040812090610b3f600184611e1e565b81526020019081526020015f20600101549392505050565b610b613383611140565b610b7d5760405162461bcd60e51b815260040161069490611dbd565b610b8984848484611538565b50505050565b5f7f8cad95687ba82c2ce50e74f7b754645e5117c3a5bec8151c0726d5857980a866610bb961056d565b80519060200120610bc74690565b60408051602080820195909552808201939093526060830191909152306080808401919091528151808403909101815260a0830182528051908401207fe48329057bfd03d55e49b547132e39cffd9c1820ad7b9d4c5307691425d15adf60c08401526001600160a01b038b1660e084015261010083018a90526101208084018a90528251808503909101815261014084019092528151919093012061190160f01b610160830152610162820183905261018282018190529192505f906101a20160408051601f1981840301815282825280516020918201205f80855291840180845281905260ff8a169284019290925260608301889052608083018790529092509060019060a0016020604051602081039080840390855afa158015610cef573d5f5f3e3d5ffd5b5050604051601f1901519150506001600160a01b038116610d2357604051638baa579f60e01b815260040160405180910390fd5b6001600160a01b0381165f908152600a60205260408120805491610d4683611e50565b919050558914610d6957604051633ab3447f60e11b815260040160405180910390fd5b87421115610d8a57604051630819bdcd60e01b815260040160405180910390fd5b610d94818b6113cb565b505050505b505050505050565b6060610dac82610e86565b5f610dc160408051602081019091525f815290565b90505f815111610ddf5760405180602001604052805f81525061075d565b80610de98461156b565b604051602001610dfa929190611e7f565b6040516020818303038152906040529392505050565b610e18610f51565b6001600160a01b038116610e7d5760405162461bcd60e51b815260206004820152602660248201527f4f776e61626c653a206e6577206f776e657220697320746865207a65726f206160448201526564647265737360d01b6064820152608401610694565b6107c08161141a565b5f818152600260205260409020546001600160a01b03166107c05760405162461bcd60e51b8152602060048201526018602482015277115490cdcc8c4e881a5b9d985b1a59081d1bdad95b88125160421b6044820152606401610694565b5f81815260046020526040902080546001600160a01b0319166001600160a01b0384169081179091558190610f188261080d565b6001600160a01b03167f8c5be1e5ebec7d5bd14f71427d1e84f3dd0314c0f7b2291e5b200ac8c7c3b92560405160405180910390a45050565b6006546001600160a01b031633146109015760405162461bcd60e51b815260206004820181905260248201527f4f776e61626c653a2063616c6c6572206973206e6f7420746865206f776e65726044820152606401610694565b6001600160a01b0382166110015760405162461bcd60e51b815260206004820181905260248201527f4552433732313a206d696e7420746f20746865207a65726f20616464726573736044820152606401610694565b5f818152600260205260409020546001600160a01b0316156110655760405162461bcd60e51b815260206004820152601c60248201527f4552433732313a20746f6b656e20616c7265616479206d696e746564000000006044820152606401610694565b6110725f838360016115fb565b5f818152600260205260409020546001600160a01b0316156110d65760405162461bcd60e51b815260206004820152601c60248201527f4552433732313a20746f6b656e20616c7265616479206d696e746564000000006044820152606401610694565b6001600160a01b0382165f81815260036020908152604080832080546001019055848352600290915280822080546001600160a01b0319168417905551839291907fddf252ad1be2c89b69c2b068fc378daa952ba7f163c4a11628f55a4df523b3ef908290a45050565b5f5f61114b8361080d565b9050806001600160a01b0316846001600160a01b0316148061119157506001600160a01b038082165f9081526005602090815260408083209388168352929052205460ff165b806111b55750836001600160a01b03166111aa846105fc565b6001600160a01b0316145b949350505050565b826001600160a01b03166111d08261080d565b6001600160a01b0316146111f65760405162461bcd60e51b815260040161069490611e93565b6001600160a01b0382166112585760405162461bcd60e51b8152602060048201526024808201527f4552433732313a207472616e7366657220746f20746865207a65726f206164646044820152637265737360e01b6064820152608401610694565b61126583838360016115fb565b826001600160a01b03166112788261080d565b6001600160a01b03161461129e5760405162461bcd60e51b815260040161069490611e93565b5f81815260046020908152604080832080546001600160a01b03199081169091556001600160a01b038781168086526003855283862080545f1901905590871680865283862080546001019055868652600290945282852080549092168417909155905184937fddf252ad1be2c89b69c2b068fc378daa952ba7f163c4a11628f55a4df523b3ef91a4505050565b5f6113368261080d565b9050611345815f8460016115fb565b61134e8261080d565b5f83815260046020908152604080832080546001600160a01b03199081169091556001600160a01b0385168085526003845282852080545f190190558785526002909352818420805490911690555192935084927fddf252ad1be2c89b69c2b068fc378daa952ba7f163c4a11628f55a4df523b3ef908390a45050565b5f6113d5836107c3565b6001600160a01b038481165f90815260076020908152604080832080546001600160a01b03191694881694909417909355600c90522054909150610b89828483611694565b600680546001600160a01b038381166001600160a01b0319831681179093556040519116919082907f8be0079c531659141344cd1fd0a4f28419497f9722a3daafe3b4186f6b6457e0905f90a35050565b816001600160a01b0316836001600160a01b0316036114cc5760405162461bcd60e51b815260206004820152601960248201527f4552433732313a20617070726f766520746f2063616c6c6572000000000000006044820152606401610694565b6001600160a01b038381165f81815260056020908152604080832094871680845294825291829020805460ff191686151590811790915591519182527f17307eab39ab6107e8899845ad3d59bd9653f200f220920489ca2b5937696c31910160405180910390a3505050565b6115438484846111bd565b61154f848484846117c4565b610b895760405162461bcd60e51b815260040161069490611ed8565b60605f611577836118c1565b60010190505f8167ffffffffffffffff81111561159657611596611c08565b6040519080825280601f01601f1916602001820160405280156115c0576020820181803683370190505b5090508181016020015b5f19016f181899199a1a9b1b9c1cb0b131b232b360811b600a86061a8153600a85049450846115ca57509392505050565b5f828152600b60205260409020546001600160a01b03851615611645576001600160a01b0385165f908152600c60205260408120805483929061163f908490611e1e565b90915550505b6001600160a01b0384165f908152600c60205260408120805483929061166c908490611f2a565b9091555061168d905061167e866107c3565b611687866107c3565b83611694565b5050505050565b816001600160a01b0316836001600160a01b0316141580156116b557505f81115b15610735576001600160a01b03831615611741576001600160a01b0383165f9081526009602052604081205490816116ed575f611722565b6001600160a01b0385165f90815260086020526040812090611710600185611e1e565b81526020019081526020015f20600101545b90505f61172f8483611e1e565b905061173d86848484611998565b5050505b6001600160a01b03821615610735576001600160a01b0382165f908152600960205260408120549081611774575f6117a9565b6001600160a01b0384165f90815260086020526040812090611797600185611e1e565b81526020019081526020015f20600101545b90505f6117b68483611f2a565b9050610d9985848484611998565b5f6001600160a01b0384163b156118b657604051630a85bd0160e11b81526001600160a01b0385169063150b7a0290611807903390899088908890600401611f3d565b6020604051808303815f875af1925050508015611841575060408051601f3d908101601f1916820190925261183e91810190611f79565b60015b61189c573d80801561186e576040519150601f19603f3d011682016040523d82523d5f602084013e611873565b606091505b5080515f036118945760405162461bcd60e51b815260040161069490611ed8565b805181602001fd5b6001600160e01b031916630a85bd0160e11b1490506111b5565b506001949350505050565b5f8072184f03e93ff9f4daa797ed6e38ed64bf6a1f0160401b83106118ff5772184f03e93ff9f4daa797ed6e38ed64bf6a1f0160401b830492506040015b6d04ee2d6d415b85acef8100000000831061192b576d04ee2d6d415b85acef8100000000830492506020015b662386f26fc10000831061194957662386f26fc10000830492506010015b6305f5e1008310611961576305f5e100830492506008015b612710831061197557612710830492506004015b60648310611987576064830492506002015b600a83106105675760010192915050565b4383158015906119d957506001600160a01b0385165f90815260086020526040812082916119c7600188611e1e565b81526020019081526020015f205f0154145b15611a1a576001600160a01b0385165f9081526008602052604081208391611a02600188611e1e565b815260208101919091526040015f206001015561168d565b60408051808201825282815260208082018581526001600160a01b0389165f90815260088352848120898252909252929020905181559051600191820155611a63908590611f2a565b6001600160a01b0386165f908152600960205260409020555050505050565b6001600160e01b0319811681146107c0575f5ffd5b5f60208284031215611aa7575f5ffd5b813561075d81611a82565b5f81518084528060208401602086015e5f602082860101526020601f19601f83011685010191505092915050565b602081525f61075d6020830184611ab2565b5f60208284031215611b02575f5ffd5b5035919050565b80356001600160a01b0381168114611b1f575f5ffd5b919050565b5f5f60408385031215611b35575f5ffd5b611b3e83611b09565b946020939093013593505050565b5f5f5f60608486031215611b5e575f5ffd5b611b6784611b09565b95602085013595506040909401359392505050565b5f60208284031215611b8c575f5ffd5b61075d82611b09565b5f5f5f60608486031215611ba7575f5ffd5b611bb084611b09565b9250611bbe60208501611b09565b929592945050506040919091013590565b5f5f60408385031215611be0575f5ffd5b611be983611b09565b915060208301358015158114611bfd575f5ffd5b809150509250929050565b634e487b7160e01b5f52604160045260245ffd5b5f5f5f5f60808587031215611c2f575f5ffd5b611c3885611b09565b9350611c4660208601611b09565b925060408501359150606085013567ffffffffffffffff811115611c68575f5ffd5b8501601f81018713611c78575f5ffd5b803567ffffffffffffffff811115611c9257611c92611c08565b604051601f8201601f19908116603f0116810167ffffffffffffffff81118282101715611cc157611cc1611c08565b604052818152828201602001891015611cd8575f5ffd5b816020840160208301375f6020838301015280935050505092959194509250565b5f5f5f5f5f5f60c08789031215611d0e575f5ffd5b611d1787611b09565b95506020870135945060408701359350606087013560ff81168114611d3a575f5ffd5b9598949750929560808101359460a0909101359350915050565b5f5f60408385031215611d65575f5ffd5b611d6e83611b09565b9150611d7c60208401611b09565b90509250929050565b600181811c90821680611d9957607f821691505b602082108103611db757634e487b7160e01b5f52602260045260245ffd5b50919050565b6020808252602d908201527f4552433732313a2063616c6c6572206973206e6f7420746f6b656e206f776e6560408201526c1c881bdc88185c1c1c9bdd9959609a1b606082015260800190565b634e487b7160e01b5f52601160045260245ffd5b8181038181111561056757610567611e0a565b5f82611e4b57634e487b7160e01b5f52601260045260245ffd5b500490565b5f60018201611e6157611e61611e0a565b5060010190565b5f81518060208401855e5f93019283525090919050565b5f6111b5611e8d8386611e68565b84611e68565b60208082526025908201527f4552433732313a207472616e736665722066726f6d20696e636f72726563742060408201526437bbb732b960d91b606082015260800190565b60208082526032908201527f4552433732313a207472616e7366657220746f206e6f6e20455243373231526560408201527131b2b4bb32b91034b6b83632b6b2b73a32b960711b606082015260800190565b8082018082111561056757610567611e0a565b6001600160a01b03858116825284166020820152604081018390526080606082018190525f90611f6f90830184611ab2565b9695505050505050565b5f60208284031215611f89575f5ffd5b815161075d81611a8256fea2646970667358221220690eb88ab530ed69b4bf5043fa2b0d3dc4fb70628a4bc4785eedf2c4fb88667364736f6c634300081c0033","linkReferences":{}},"methodIdentifiers":{"DELEGATION_TYPEHASH()":"e7a324dc","DOMAIN_TYPEHASH()":"20606b70","approve(address,uint256)":"095ea7b3","balanceOf(address)":"70a08231","burn(uint256)":"42966c68","checkpoints(address,uint256)":"0cdfebfa","delegate(address)":"5c19a95c","delegateBySig(address,uint256,uint256,uint8,bytes32,bytes32)":"c3cda520","delegates(address)":"587cde1e","getApproved(uint256)":"081812fc","getCurrentVotes(address)":"b4b5ea57","getPriorVotes(address,uint256)":"782d6fe1","isApprovedForAll(address,address)":"e985e9c5","mint(address,uint256,uint256)":"156e29f6","name()":"06fdde03","nonces(address)":"7ecebe00","numCheckpoints(address)":"6fcfff45","owner()":"8da5cb5b","ownerOf(uint256)":"6352211e","renounceOwnership()":"715018a6","safeTransferFrom(address,address,uint256)":"42842e0e","safeTransferFrom(address,address,uint256,bytes)":"b88d4fde","setApprovalForAll(address,bool)":"a22cb465","supportsInterface(bytes4)":"01ffc9a7","symbol()":"95d89b41","tokenURI(uint256)":"c87b56dd","transferFrom(address,address,uint256)":"23b872dd","transferOwnership(address)":"f2fde38b","votesToDelegate(address)":"e9580e91","votingBalances(address)":"15e3009e","votingPower(uint256)":"72c4a927"},"id":24}