{"abi":[{"type":"constructor","inputs":[{"name":"trustedForwarder","type":"address","internalType":"address"}],"stateMutability":"nonpayable"},{"type":"function","name":"isTrustedForwarder","inputs":[{"name":"forwarder","type":"address","internalType":"address"}],"outputs":[{"name":"","type":"bool","internalType":"bool"}],"stateMutability":"view"},{"type":"function","name":"msgData","inputs":[{"name":"integerValue","type":"uint256","internalType":"uint256"},{"name":"stringValue","type":"string","internalType":"string"}],"outputs":[],"stateMutability":"nonpayable"},{"type":"function","name":"msgDataShort","inputs":[],"outputs":[],"stateMutability":"nonpayable"},{"type":"function","name":"msgSender","inputs":[],"outputs":[],"stateMutability":"nonpayable"},{"type":"function","name":"multicall","inputs":[{"name":"data","type":"bytes[]","internalType":"bytes[]"}],"outputs":[{"name":"results","type":"bytes[]","internalType":"bytes[]"}],"stateMutability":"nonpayable"},{"type":"event","name":"Data","inputs":[{"name":"data","type":"bytes","indexed":false,"internalType":"bytes"},{"name":"integerValue","type":"uint256","indexed":false,"internalType":"uint256"},{"name":"stringValue","type":"string","indexed":false,"internalType":"string"}],"anonymous":false},{"type":"event","name":"DataShort","inputs":[{"name":"data","type":"bytes","indexed":false,"internalType":"bytes"}],"anonymous":false},{"type":"event","name":"Sender","inputs":[{"name":"sender","type":"address","indexed":false,"internalType":"address"}],"anonymous":false}],"bytecode":{"object":"0x60a060405234801561000f575f5ffd5b50604051610ad7380380610ad783398101604081905261002e916100ec565b6001600160a01b0381166080527fd6558c3ed910d959271054471fd1c326679d9fece99c5091b00ed89627cf2bfc610064610085565b6040516001600160a01b03909116815260200160405180910390a15061019d565b5f61008e610093565b905090565b5f368160146080519091506001600160a01b0316331480156100b55750808210155b156100e4575f366100c68385610119565b6100d192829061013e565b6100da91610165565b60601c9250505090565b339250505090565b5f602082840312156100fc575f5ffd5b81516001600160a01b0381168114610112575f5ffd5b9392505050565b8181038181111561013857634e487b7160e01b5f52601160045260245ffd5b92915050565b5f5f8585111561014c575f5ffd5b83861115610158575f5ffd5b5050820193919092039150565b80356001600160601b03198116906014841015610196576001600160601b0319601485900360031b81901b82161691505b5092915050565b6080516109226101b55f395f61010f01526109225ff3fe608060405234801561000f575f5ffd5b5060043610610055575f3560e01c8063376bf26214610059578063572b6c051461006e578063ac9650d814610096578063d737d0c7146100b6578063ff5f6b59146100be575b5f5ffd5b61006c610067366004610535565b6100c6565b005b61008161007c3660046105f2565b61010d565b60405190151581526020015b60405180910390f35b6100a96100a4366004610618565b61013f565b60405161008d91906106b7565b61006c61029a565b61006c6102e1565b7faf235354a0a47c91ee171961326335cb2d1a8e55b8a89859b0e61eb049e50ea06100ef610318565b84846040516101019493929190610742565b60405180910390a15050565b7f00000000000000000000000000000000000000000000000000000000000000006001600160a01b0390811691161490565b60605f61014a61032a565b6001600160a01b0316336001600160a01b0316146101b3575f3661016f601482610778565b61017a928290610797565b8080601f0160208091040260200160405190810160405280939291908181526020018383808284375f920191909152506101c292505050565b604080515f8152602081019091525b90508267ffffffffffffffff8111156101dd576101dd610521565b60405190808252806020026020018201604052801561021057816020015b60608152602001906001900390816101fb5790505b5091505f5b838110156102915761026c30868684818110610233576102336107be565b905060200281019061024591906107d2565b8560405160200161025893929190610833565b604051602081830303815290604052610338565b83828151811061027e5761027e6107be565b6020908102919091010152600101610215565b50505b92915050565b7fd6558c3ed910d959271054471fd1c326679d9fece99c5091b00ed89627cf2bfc6102c361032a565b6040516001600160a01b0390911681526020015b60405180910390a1565b7f6d7cec71eba467294d92341ddc4e8634eb4d742a90e16f408f06e4b70bc4cd6661030a610318565b6040516102d7929190610848565b365f610322610364565b915091509091565b5f6103336103ae565b905090565b606061035d83836040518060600160405280602781526020016108c6602791396103fe565b9392505050565b365f8160146103723361010d565b801561037e5750808210155b156103a7575f80366103908486610778565b9261039d93929190610797565b9350935050509091565b5f3661039d565b5f3660146103bb3361010d565b80156103c75750808210155b156103f6575f366103d88385610778565b6103e3928290610797565b6103ec9161085b565b60601c9250505090565b339250505090565b60605f5f856001600160a01b03168560405161041a91906108a8565b5f60405180830381855af49150503d805f8114610452576040519150601f19603f3d011682016040523d82523d5f602084013e610457565b606091505b509150915061046886838387610472565b9695505050505050565b606083156104e55782515f036104de576001600160a01b0385163b6104de5760405162461bcd60e51b815260206004820152601d60248201527f416464726573733a2063616c6c20746f206e6f6e2d636f6e747261637400000060448201526064015b60405180910390fd5b50816104ef565b6104ef83836104f7565b949350505050565b8151156105075781518083602001fd5b8060405162461bcd60e51b81526004016104d591906108b3565b634e487b7160e01b5f52604160045260245ffd5b5f5f60408385031215610546575f5ffd5b82359150602083013567ffffffffffffffff811115610563575f5ffd5b8301601f81018513610573575f5ffd5b803567ffffffffffffffff81111561058d5761058d610521565b604051601f8201601f19908116603f0116810167ffffffffffffffff811182821017156105bc576105bc610521565b6040528181528282016020018710156105d3575f5ffd5b816020840160208301375f602083830101528093505050509250929050565b5f60208284031215610602575f5ffd5b81356001600160a01b038116811461035d575f5ffd5b5f5f60208385031215610629575f5ffd5b823567ffffffffffffffff81111561063f575f5ffd5b8301601f8101851361064f575f5ffd5b803567ffffffffffffffff811115610665575f5ffd5b8560208260051b8401011115610679575f5ffd5b6020919091019590945092505050565b5f81518084528060208401602086015e5f602082860101526020601f19601f83011685010191505092915050565b5f602082016020835280845180835260408501915060408160051b8601019250602086015f5b8281101561070e57603f198786030184526106f9858351610689565b945060209384019391909101906001016106dd565b50929695505050505050565b81835281816020850137505f828201602090810191909152601f909101601f19169091010190565b606081525f61075560608301868861071a565b846020840152828103604084015261076d8185610689565b979650505050505050565b8181038181111561029457634e487b7160e01b5f52601160045260245ffd5b5f5f858511156107a5575f5ffd5b838611156107b1575f5ffd5b5050820193919092039150565b634e487b7160e01b5f52603260045260245ffd5b5f5f8335601e198436030181126107e7575f5ffd5b83018035915067ffffffffffffffff821115610801575f5ffd5b602001915036819003821315610815575f5ffd5b9250929050565b5f81518060208401855e5f93019283525090919050565b828482375f8382015f8152610468818561081c565b602081525f6104ef60208301848661071a565b80356bffffffffffffffffffffffff1981169060148410156108a1576bffffffffffffffffffffffff196bffffffffffffffffffffffff198560140360031b1b82161691505b5092915050565b5f61035d828461081c565b602081525f61035d602083018461068956fe416464726573733a206c6f772d6c6576656c2064656c65676174652063616c6c206661696c6564a264697066735822122085ac474591b7a8ce9202c1dba76d5c9a9f336f506965948d032b8f411577192564736f6c634300081c0033","linkReferences":{}},"methodIdentifiers":{"isTrustedForwarder(address)":"572b6c05","msgData(uint256,string)":"376bf262","msgDataShort()":"ff5f6b59","msgSender()":"d737d0c7","multicall(bytes[])":"ac9650d8"},"id":115}