{"abi":[{"type":"function","name":"allowance","inputs":[{"name":"owner","type":"address","internalType":"address"},{"name":"spender","type":"address","internalType":"address"}],"outputs":[{"name":"","type":"uint256","internalType":"uint256"}],"stateMutability":"view"},{"type":"function","name":"approve","inputs":[{"name":"spender","type":"address","internalType":"address"},{"name":"amount","type":"uint256","internalType":"uint256"}],"outputs":[{"name":"","type":"bool","internalType":"bool"}],"stateMutability":"nonpayable"},{"type":"function","name":"balanceOf","inputs":[{"name":"account","type":"address","internalType":"address"}],"outputs":[{"name":"","type":"uint256","internalType":"uint256"}],"stateMutability":"view"},{"type":"function","name":"decimals","inputs":[],"outputs":[{"name":"","type":"uint8","internalType":"uint8"}],"stateMutability":"view"},{"type":"function","name":"decreaseAllowance","inputs":[{"name":"spender","type":"address","internalType":"address"},{"name":"subtractedValue","type":"uint256","internalType":"uint256"}],"outputs":[{"name":"","type":"bool","internalType":"bool"}],"stateMutability":"nonpayable"},{"type":"function","name":"functionCall","inputs":[{"name":"target","type":"address","internalType":"address"},{"name":"data","type":"bytes","internalType":"bytes"}],"outputs":[{"name":"","type":"bytes","internalType":"bytes"}],"stateMutability":"nonpayable"},{"type":"function","name":"increaseAllowance","inputs":[{"name":"spender","type":"address","internalType":"address"},{"name":"addedValue","type":"uint256","internalType":"uint256"}],"outputs":[{"name":"","type":"bool","internalType":"bool"}],"stateMutability":"nonpayable"},{"type":"function","name":"name","inputs":[],"outputs":[{"name":"","type":"string","internalType":"string"}],"stateMutability":"view"},{"type":"function","name":"scheduleReenter","inputs":[{"name":"when","type":"uint8","internalType":"enum ERC20Reentrant.Type"},{"name":"target","type":"address","internalType":"address"},{"name":"data","type":"bytes","internalType":"bytes"}],"outputs":[],"stateMutability":"nonpayable"},{"type":"function","name":"symbol","inputs":[],"outputs":[{"name":"","type":"string","internalType":"string"}],"stateMutability":"view"},{"type":"function","name":"totalSupply","inputs":[],"outputs":[{"name":"","type":"uint256","internalType":"uint256"}],"stateMutability":"view"},{"type":"function","name":"transfer","inputs":[{"name":"to","type":"address","internalType":"address"},{"name":"amount","type":"uint256","internalType":"uint256"}],"outputs":[{"name":"","type":"bool","internalType":"bool"}],"stateMutability":"nonpayable"},{"type":"function","name":"transferFrom","inputs":[{"name":"from","type":"address","internalType":"address"},{"name":"to","type":"address","internalType":"address"},{"name":"amount","type":"uint256","internalType":"uint256"}],"outputs":[{"name":"","type":"bool","internalType":"bool"}],"stateMutability":"nonpayable"},{"type":"event","name":"Approval","inputs":[{"name":"owner","type":"address","indexed":true,"internalType":"address"},{"name":"spender","type":"address","indexed":true,"internalType":"address"},{"name":"value","type":"uint256","indexed":false,"internalType":"uint256"}],"anonymous":false},{"type":"event","name":"Transfer","inputs":[{"name":"from","type":"address","indexed":true,"internalType":"address"},{"name":"to","type":"address","indexed":true,"internalType":"address"},{"name":"value","type":"uint256","indexed":false,"internalType":"uint256"}],"anonymous":false}],"bytecode":{"object":"0x60806040523480156200001157600080fd5b5060405180604001604052806004815260200163151154d560e21b815250604051806040016040528060038152602001621514d560ea1b81525081600390805190602001906200006392919062000082565b5080516200007990600490602084019062000082565b50505062000164565b828054620000909062000128565b90600052602060002090601f016020900481019282620000b45760008555620000ff565b82601f10620000cf57805160ff1916838001178555620000ff565b82800160010185558215620000ff579182015b82811115620000ff578251825591602001919060010190620000e2565b506200010d92915062000111565b5090565b5b808211156200010d576000815560010162000112565b600181811c908216806200013d57607f821691505b6020821081036200015e57634e487b7160e01b600052602260045260246000fd5b50919050565b610e1680620001746000396000f3fe608060405234801561001057600080fd5b50600436106100cf5760003560e01c806370a082311161008c578063a457c2d711610066578063a457c2d7146101a0578063a9059cbb146101b3578063cd594b63146101c6578063dd62ed3e146101db57600080fd5b806370a082311461015c57806395d89b4114610185578063a0b5ffb01461018d57600080fd5b806306fdde03146100d4578063095ea7b3146100f257806318160ddd1461011557806323b872dd14610127578063313ce5671461013a5780633950935114610149575b600080fd5b6100dc6101ee565b6040516100e99190610aff565b60405180910390f35b610105610100366004610b2e565b610280565b60405190151581526020016100e9565b6002545b6040519081526020016100e9565b610105610135366004610b58565b610298565b604051601281526020016100e9565b610105610157366004610b2e565b6102bc565b61011961016a366004610b94565b6001600160a01b031660009081526020819052604090205490565b6100dc6102de565b6100dc61019b366004610bc5565b6102ed565b6101056101ae366004610b2e565b610300565b6101056101c1366004610b2e565b610380565b6101d96101d4366004610c87565b61038e565b005b6101196101e9366004610d1b565b6103e5565b6060600380546101fd90610d4e565b80601f016020809104026020016040519081016040528092919081815260200182805461022990610d4e565b80156102765780601f1061024b57610100808354040283529160200191610276565b820191906000526020600020905b81548152906001019060200180831161025957829003601f168201915b5050505050905090565b60003361028e818585610410565b5060019392505050565b6000336102a6858285610534565b6102b18585856105ae565b506001949350505050565b60003361028e8185856102cf83836103e5565b6102d99190610d88565b610410565b6060600480546101fd90610d4e565b60606102f98383610763565b9392505050565b6000338161030e82866103e5565b9050838110156103735760405162461bcd60e51b815260206004820152602560248201527f45524332303a2064656372656173656420616c6c6f77616e63652062656c6f77604482015264207a65726f60d81b60648201526084015b60405180910390fd5b6102b18286868403610410565b60003361028e8185856105ae565b6005805485919060ff191660018360028111156103ad576103ad610dae565b021790555060058054610100600160a81b0319166101006001600160a01b038616021790556103de60068383610a0e565b5050505050565b6001600160a01b03918216600090815260016020908152604080832093909416825291909152205490565b6001600160a01b0383166104725760405162461bcd60e51b8152602060048201526024808201527f45524332303a20617070726f76652066726f6d20746865207a65726f206164646044820152637265737360e01b606482015260840161036a565b6001600160a01b0382166104d35760405162461bcd60e51b815260206004820152602260248201527f45524332303a20617070726f766520746f20746865207a65726f206164647265604482015261737360f01b606482015260840161036a565b6001600160a01b0383811660008181526001602090815260408083209487168084529482529182902085905590518481527f8c5be1e5ebec7d5bd14f71427d1e84f3dd0314c0f7b2291e5b200ac8c7c3b925910160405180910390a3505050565b600061054084846103e5565b905060001981146105a8578181101561059b5760405162461bcd60e51b815260206004820152601d60248201527f45524332303a20696e73756666696369656e7420616c6c6f77616e6365000000604482015260640161036a565b6105a88484848403610410565b50505050565b6001600160a01b0383166106125760405162461bcd60e51b815260206004820152602560248201527f45524332303a207472616e736665722066726f6d20746865207a65726f206164604482015264647265737360d81b606482015260840161036a565b6001600160a01b0382166106745760405162461bcd60e51b815260206004820152602360248201527f45524332303a207472616e7366657220746f20746865207a65726f206164647260448201526265737360e81b606482015260840161036a565b61067f8383836107a7565b6001600160a01b038316600090815260208190526040902054818110156106f75760405162461bcd60e51b815260206004820152602660248201527f45524332303a207472616e7366657220616d6f756e7420657863656564732062604482015265616c616e636560d01b606482015260840161036a565b6001600160a01b03848116600081815260208181526040808320878703905593871680835291849020805487019055925185815290927fddf252ad1be2c89b69c2b068fc378daa952ba7f163c4a11628f55a4df523b3ef910160405180910390a36105a884848461087a565b60606102f9838360006040518060400160405280601e81526020017f416464726573733a206c6f772d6c6576656c2063616c6c206661696c65640000815250610893565b600160055460ff1660028111156107c0576107c0610dae565b03610875576005805460ff191690819055600680546105a89261010090046001600160a01b031691906107f290610d4e565b80601f016020809104026020016040519081016040528092919081815260200182805461081e90610d4e565b801561086b5780601f106108405761010080835404028352916020019161086b565b820191906000526020600020905b81548152906001019060200180831161084e57829003601f168201915b50505050506102ed565b505050565b600260055460ff1660028111156107c0576107c0610dae565b6060824710156108f45760405162461bcd60e51b815260206004820152602660248201527f416464726573733a20696e73756666696369656e742062616c616e636520666f6044820152651c8818d85b1b60d21b606482015260840161036a565b600080866001600160a01b031685876040516109109190610dc4565b60006040518083038185875af1925050503d806000811461094d576040519150601f19603f3d011682016040523d82523d6000602084013e610952565b606091505b509150915061096387838387610970565b925050505b949350505050565b606083156109df5782516000036109d8576001600160a01b0385163b6109d85760405162461bcd60e51b815260206004820152601d60248201527f416464726573733a2063616c6c20746f206e6f6e2d636f6e7472616374000000604482015260640161036a565b5081610968565b61096883838151156109f45781518083602001fd5b8060405162461bcd60e51b815260040161036a9190610aff565b828054610a1a90610d4e565b90600052602060002090601f016020900481019282610a3c5760008555610a82565b82601f10610a555782800160ff19823516178555610a82565b82800160010185558215610a82579182015b82811115610a82578235825591602001919060010190610a67565b50610a8e929150610a92565b5090565b5b80821115610a8e5760008155600101610a93565b60005b83811015610ac2578181015183820152602001610aaa565b838111156105a85750506000910152565b60008151808452610aeb816020860160208601610aa7565b601f01601f19169290920160200192915050565b6020815260006102f96020830184610ad3565b80356001600160a01b0381168114610b2957600080fd5b919050565b60008060408385031215610b4157600080fd5b610b4a83610b12565b946020939093013593505050565b600080600060608486031215610b6d57600080fd5b610b7684610b12565b9250610b8460208501610b12565b9150604084013590509250925092565b600060208284031215610ba657600080fd5b6102f982610b12565b634e487b7160e01b600052604160045260246000fd5b60008060408385031215610bd857600080fd5b610be183610b12565b9150602083013567ffffffffffffffff80821115610bfe57600080fd5b818501915085601f830112610c1257600080fd5b813581811115610c2457610c24610baf565b604051601f8201601f19908116603f01168101908382118183101715610c4c57610c4c610baf565b81604052828152886020848701011115610c6557600080fd5b8260208601602083013760006020848301015280955050505050509250929050565b60008060008060608587031215610c9d57600080fd5b843560038110610cac57600080fd5b9350610cba60208601610b12565b9250604085013567ffffffffffffffff80821115610cd757600080fd5b818701915087601f830112610ceb57600080fd5b813581811115610cfa57600080fd5b886020828501011115610d0c57600080fd5b95989497505060200194505050565b60008060408385031215610d2e57600080fd5b610d3783610b12565b9150610d4560208401610b12565b90509250929050565b600181811c90821680610d6257607f821691505b602082108103610d8257634e487b7160e01b600052602260045260246000fd5b50919050565b60008219821115610da957634e487b7160e01b600052601160045260246000fd5b500190565b634e487b7160e01b600052602160045260246000fd5b60008251610dd6818460208701610aa7565b919091019291505056fea26469706673582212208c161805bca48db27e3db478cfd609d5dee613f5984b65e2ac58b2a268c6017b64736f6c634300080d0033","linkReferences":{}},"methodIdentifiers":{"allowance(address,address)":"dd62ed3e","approve(address,uint256)":"095ea7b3","balanceOf(address)":"70a08231","decimals()":"313ce567","decreaseAllowance(address,uint256)":"a457c2d7","functionCall(address,bytes)":"a0b5ffb0","increaseAllowance(address,uint256)":"39509351","name()":"06fdde03","scheduleReenter(uint8,address,bytes)":"cd594b63","symbol()":"95d89b41","totalSupply()":"18160ddd","transfer(address,uint256)":"a9059cbb","transferFrom(address,address,uint256)":"23b872dd"},"id":104}