{"abi":[{"type":"function","name":"CROSSCHAIN_ALIAS","inputs":[],"outputs":[{"name":"","type":"bytes32","internalType":"bytes32"}],"stateMutability":"view"},{"type":"function","name":"DEFAULT_ADMIN_ROLE","inputs":[],"outputs":[{"name":"","type":"bytes32","internalType":"bytes32"}],"stateMutability":"view"},{"type":"function","name":"getRoleAdmin","inputs":[{"name":"role","type":"bytes32","internalType":"bytes32"}],"outputs":[{"name":"","type":"bytes32","internalType":"bytes32"}],"stateMutability":"view"},{"type":"function","name":"grantRole","inputs":[{"name":"role","type":"bytes32","internalType":"bytes32"},{"name":"account","type":"address","internalType":"address"}],"outputs":[],"stateMutability":"nonpayable"},{"type":"function","name":"hasRole","inputs":[{"name":"role","type":"bytes32","internalType":"bytes32"},{"name":"account","type":"address","internalType":"address"}],"outputs":[{"name":"","type":"bool","internalType":"bool"}],"stateMutability":"view"},{"type":"function","name":"renounceRole","inputs":[{"name":"role","type":"bytes32","internalType":"bytes32"},{"name":"account","type":"address","internalType":"address"}],"outputs":[],"stateMutability":"nonpayable"},{"type":"function","name":"revokeRole","inputs":[{"name":"role","type":"bytes32","internalType":"bytes32"},{"name":"account","type":"address","internalType":"address"}],"outputs":[],"stateMutability":"nonpayable"},{"type":"function","name":"supportsInterface","inputs":[{"name":"interfaceId","type":"bytes4","internalType":"bytes4"}],"outputs":[{"name":"","type":"bool","internalType":"bool"}],"stateMutability":"view"},{"type":"event","name":"RoleAdminChanged","inputs":[{"name":"role","type":"bytes32","indexed":true,"internalType":"bytes32"},{"name":"previousAdminRole","type":"bytes32","indexed":true,"internalType":"bytes32"},{"name":"newAdminRole","type":"bytes32","indexed":true,"internalType":"bytes32"}],"anonymous":false},{"type":"event","name":"RoleGranted","inputs":[{"name":"role","type":"bytes32","indexed":true,"internalType":"bytes32"},{"name":"account","type":"address","indexed":true,"internalType":"address"},{"name":"sender","type":"address","indexed":true,"internalType":"address"}],"anonymous":false},{"type":"event","name":"RoleRevoked","inputs":[{"name":"role","type":"bytes32","indexed":true,"internalType":"bytes32"},{"name":"account","type":"address","indexed":true,"internalType":"address"},{"name":"sender","type":"address","indexed":true,"internalType":"address"}],"anonymous":false},{"type":"error","name":"NotCrossChainCall","inputs":[]}],"bytecode":{"object":"0x6080604052348015600e575f5ffd5b5061090d8061001c5f395ff3fe608060405234801561000f575f5ffd5b5060043610610085575f3560e01c806391d148541161005857806391d1485414610109578063a217fddf1461011c578063d547741f14610123578063f9d0429514610136575f5ffd5b806301ffc9a714610089578063248a9ca3146100b15780632f2ff15d146100e157806336568abe146100f6575b5f5ffd5b61009c6100973660046106f8565b61015d565b60405190151581526020015b60405180910390f35b6100d36100bf36600461071f565b5f9081526020819052604090206001015490565b6040519081526020016100a8565b6100f46100ef36600461074a565b610193565b005b6100f461010436600461074a565b6101bc565b61009c61011736600461074a565b61023f565b6100d35f81565b6100f461013136600461074a565b610267565b6100d37fe870e9cffded00b0b933338bc23ae12648d8d2d4829802ab37a0908f14773b4d81565b5f6001600160e01b03198216637965db0b60e01b148061018d57506301ffc9a760e01b6001600160e01b03198316145b92915050565b5f828152602081905260409020600101546101ad8161028b565b6101b783836102d7565b505050565b6001600160a01b03811633146102315760405162461bcd60e51b815260206004820152602f60248201527f416363657373436f6e74726f6c3a2063616e206f6e6c792072656e6f756e636560448201526e103937b632b9903337b91039b2b63360891b60648201526084015b60405180910390fd5b61023b828261035a565b5050565b5f918252602082815260408084206001600160a01b0393909316845291905290205460ff1690565b5f828152602081905260409020600101546102818161028b565b6101b7838361035a565b6102936103be565b156102ce576102cb7fe870e9cffded00b0b933338bc23ae12648d8d2d4829802ab37a0908f14773b4d82186102c66103ce565b6103fe565b50565b6102cb81610457565b6102e1828261023f565b61023b575f828152602081815260408083206001600160a01b03851684529091529020805460ff191660011790556103163390565b6001600160a01b0316816001600160a01b0316837f2f8788117e7eff1d82e926ec794901d17c78024a50270940304540a733656f0d60405160405180910390a45050565b610364828261023f565b1561023b575f828152602081815260408083206001600160a01b0385168085529252808320805460ff1916905551339285917ff6391f5c32d9c69d2a47ea670b442974b53935d1edc7fd64eb21e047a839171b9190a45050565b5f6103c96064610461565b905090565b5f6103d76103be565b6103f45760405163253a6fc960e11b815260040160405180910390fd5b6103c960646104c2565b610408828261023f565b61023b5761041581610549565b61042083602061055b565b60405160200161043192919061078f565b60408051601f198184030181529082905262461bcd60e51b8252610228916004016107ed565b6102cb81336103fe565b5f816001600160a01b031663175a260b6040518163ffffffff1660e01b8152600401602060405180830381865afa15801561049e573d5f5f3e3d5ffd5b505050506040513d601f19601f8201168201806040525081019061018d9190610822565b5f6104cc82610461565b6104e95760405163253a6fc960e11b815260040160405180910390fd5b816001600160a01b031663d74523b36040518163ffffffff1660e01b8152600401602060405180830381865afa158015610525573d5f5f3e3d5ffd5b505050506040513d601f19601f8201168201806040525081019061018d9190610841565b606061018d6001600160a01b03831660145b60605f610569836002610870565b610574906002610887565b67ffffffffffffffff81111561058c5761058c61089a565b6040519080825280601f01601f1916602001820160405280156105b6576020820181803683370190505b509050600360fc1b815f815181106105d0576105d06108ae565b60200101906001600160f81b03191690815f1a905350600f60fb1b816001815181106105fe576105fe6108ae565b60200101906001600160f81b03191690815f1a9053505f610620846002610870565b61062b906001610887565b90505b60018111156106a2576f181899199a1a9b1b9c1cb0b131b232b360811b85600f166010811061065f5761065f6108ae565b1a60f81b828281518110610675576106756108ae565b60200101906001600160f81b03191690815f1a90535060049490941c9361069b816108c2565b905061062e565b5083156106f15760405162461bcd60e51b815260206004820181905260248201527f537472696e67733a20686578206c656e67746820696e73756666696369656e746044820152606401610228565b9392505050565b5f60208284031215610708575f5ffd5b81356001600160e01b0319811681146106f1575f5ffd5b5f6020828403121561072f575f5ffd5b5035919050565b6001600160a01b03811681146102cb575f5ffd5b5f5f6040838503121561075b575f5ffd5b82359150602083013561076d81610736565b809150509250929050565b5f81518060208401855e5f93019283525090919050565b7f416363657373436f6e74726f6c3a206163636f756e742000000000000000000081525f6107c06017830185610778565b7001034b99036b4b9b9b4b733903937b6329607d1b81526107e46011820185610778565b95945050505050565b602081525f82518060208401528060208501604085015e5f604082850101526040601f19601f83011684010191505092915050565b5f60208284031215610832575f5ffd5b815180151581146106f1575f5ffd5b5f60208284031215610851575f5ffd5b81516106f181610736565b634e487b7160e01b5f52601160045260245ffd5b808202811582820484141761018d5761018d61085c565b8082018082111561018d5761018d61085c565b634e487b7160e01b5f52604160045260245ffd5b634e487b7160e01b5f52603260045260245ffd5b5f816108d0576108d061085c565b505f19019056fea2646970667358221220a748f71881d3ad4295d1f2ebda29bd29a9a25a5e174252cc53f36d852ba13a3f64736f6c634300081c0033","linkReferences":{}},"methodIdentifiers":{"CROSSCHAIN_ALIAS()":"f9d04295","DEFAULT_ADMIN_ROLE()":"a217fddf","getRoleAdmin(bytes32)":"248a9ca3","grantRole(bytes32,address)":"2f2ff15d","hasRole(bytes32,address)":"91d14854","renounceRole(bytes32,address)":"36568abe","revokeRole(bytes32,address)":"d547741f","supportsInterface(bytes4)":"01ffc9a7"},"id":100}