{"abi":[{"type":"constructor","inputs":[{"name":"beneficiaryAddress","type":"address","internalType":"address"},{"name":"startTimestamp","type":"uint64","internalType":"uint64"},{"name":"durationSeconds","type":"uint64","internalType":"uint64"}],"stateMutability":"payable"},{"type":"receive","stateMutability":"payable"},{"type":"function","name":"beneficiary","inputs":[],"outputs":[{"name":"","type":"address","internalType":"address"}],"stateMutability":"view"},{"type":"function","name":"duration","inputs":[],"outputs":[{"name":"","type":"uint256","internalType":"uint256"}],"stateMutability":"view"},{"type":"function","name":"releasable","inputs":[{"name":"token","type":"address","internalType":"address"}],"outputs":[{"name":"","type":"uint256","internalType":"uint256"}],"stateMutability":"view"},{"type":"function","name":"releasable","inputs":[],"outputs":[{"name":"","type":"uint256","internalType":"uint256"}],"stateMutability":"view"},{"type":"function","name":"release","inputs":[{"name":"token","type":"address","internalType":"address"}],"outputs":[],"stateMutability":"nonpayable"},{"type":"function","name":"release","inputs":[],"outputs":[],"stateMutability":"nonpayable"},{"type":"function","name":"released","inputs":[],"outputs":[{"name":"","type":"uint256","internalType":"uint256"}],"stateMutability":"view"},{"type":"function","name":"released","inputs":[{"name":"token","type":"address","internalType":"address"}],"outputs":[{"name":"","type":"uint256","internalType":"uint256"}],"stateMutability":"view"},{"type":"function","name":"start","inputs":[],"outputs":[{"name":"","type":"uint256","internalType":"uint256"}],"stateMutability":"view"},{"type":"function","name":"vestedAmount","inputs":[{"name":"timestamp","type":"uint64","internalType":"uint64"}],"outputs":[{"name":"","type":"uint256","internalType":"uint256"}],"stateMutability":"view"},{"type":"function","name":"vestedAmount","inputs":[{"name":"token","type":"address","internalType":"address"},{"name":"timestamp","type":"uint64","internalType":"uint64"}],"outputs":[{"name":"","type":"uint256","internalType":"uint256"}],"stateMutability":"view"},{"type":"event","name":"ERC20Released","inputs":[{"name":"token","type":"address","indexed":true,"internalType":"address"},{"name":"amount","type":"uint256","indexed":false,"internalType":"uint256"}],"anonymous":false},{"type":"event","name":"EtherReleased","inputs":[{"name":"amount","type":"uint256","indexed":false,"internalType":"uint256"}],"anonymous":false}],"bytecode":{"object":"0x60e0604052604051610c4e380380610c4e833981016040819052610022916100cf565b6001600160a01b03831661008f5760405162461bcd60e51b815260206004820152602a60248201527f56657374696e6757616c6c65743a2062656e6566696369617279206973207a65604482015269726f206164647265737360b01b606482015260840160405180910390fd5b6001600160a01b039092166080526001600160401b0390811660a0521660c05261011c565b80516001600160401b03811681146100ca575f5ffd5b919050565b5f5f5f606084860312156100e1575f5ffd5b83516001600160a01b03811681146100f7575f5ffd5b9250610105602085016100b4565b9150610113604085016100b4565b90509250925092565b60805160a05160c051610aed6101615f395f818160e8015281816104b0015261050501525f61044f01525f8181610150015281816102dc01526103f00152610aed5ff3fe60806040526004361061009d575f3560e01c806386d1a69f1161006257806386d1a69f1461019957806396132521146101ad5780639852595c146101c0578063a3f8eace146101f4578063be9a655514610213578063fbccedae14610227575f5ffd5b80630a17b06b146100a85780630fb5a6b4146100da578063191655871461011657806338af3eed14610137578063810ec23b1461017a575f5ffd5b366100a457005b5f5ffd5b3480156100b3575f5ffd5b506100c76100c236600461094d565b61023b565b6040519081526020015b60405180910390f35b3480156100e5575f5ffd5b507f000000000000000000000000000000000000000000000000000000000000000067ffffffffffffffff166100c7565b348015610121575f5ffd5b5061013561013036600461097c565b61025d565b005b348015610142575f5ffd5b506040516001600160a01b037f00000000000000000000000000000000000000000000000000000000000000001681526020016100d1565b348015610185575f5ffd5b506100c7610194366004610995565b610305565b3480156101a4575f5ffd5b50610135610398565b3480156101b8575f5ffd5b505f546100c7565b3480156101cb575f5ffd5b506100c76101da36600461097c565b6001600160a01b03165f9081526001602052604090205490565b3480156101ff575f5ffd5b506100c761020e36600461097c565b610418565b34801561021e575f5ffd5b506100c7610444565b348015610232575f5ffd5b506100c7610472565b5f6102576102475f5490565b61025190476109da565b8361048d565b92915050565b5f61026782610418565b6001600160a01b0383165f908152600160205260408120805492935083929091906102939084906109da565b90915550506040518181526001600160a01b038316907fc0e523490dd523c33b1878c9eb14ff46991e3f5b2cd33710918618f2a39cba1b9060200160405180910390a2610301827f000000000000000000000000000000000000000000000000000000000000000083610565565b5050565b6001600160a01b0382165f90815260016020526040812054610391906040516370a0823160e01b81523060048201526001600160a01b038616906370a0823190602401602060405180830381865afa158015610363573d5f5f3e3d5ffd5b505050506040513d601f19601f8201168201806040525081019061038791906109ed565b61025191906109da565b9392505050565b5f6103a1610472565b9050805f5f8282546103b391906109da565b90915550506040518181527fda9d4e5f101b8b9b1c5b76d0c5a9f7923571acfc02376aa076b75a8c080c956b9060200160405180910390a16104157f0000000000000000000000000000000000000000000000000000000000000000826105bc565b50565b6001600160a01b0381165f9081526001602052604081205461043a8342610305565b6102579190610a04565b67ffffffffffffffff7f00000000000000000000000000000000000000000000000000000000000000001690565b5f805461047e4261023b565b6104889190610a04565b905090565b5f610496610444565b8267ffffffffffffffff1610156104ae57505f610257565b7f000000000000000000000000000000000000000000000000000000000000000067ffffffffffffffff166104e1610444565b6104eb91906109da565b8267ffffffffffffffff161115610503575081610257565b7f000000000000000000000000000000000000000000000000000000000000000067ffffffffffffffff16610536610444565b61054a9067ffffffffffffffff8516610a04565b6105549085610a17565b61055e9190610a2e565b9050610257565b604080516001600160a01b038416602482015260448082018490528251808303909101815260649091019091526020810180516001600160e01b031663a9059cbb60e01b1790526105b79084906106d6565b505050565b804710156106115760405162461bcd60e51b815260206004820152601d60248201527f416464726573733a20696e73756666696369656e742062616c616e636500000060448201526064015b60405180910390fd5b5f826001600160a01b0316826040515f6040518083038185875af1925050503d805f811461065a576040519150601f19603f3d011682016040523d82523d5f602084013e61065f565b606091505b50509050806105b75760405162461bcd60e51b815260206004820152603a60248201527f416464726573733a20756e61626c6520746f2073656e642076616c75652c207260448201527f6563697069656e74206d617920686176652072657665727465640000000000006064820152608401610608565b5f61072a826040518060400160405280602081526020017f5361666545524332303a206c6f772d6c6576656c2063616c6c206661696c6564815250856001600160a01b03166107a79092919063ffffffff16565b8051909150156105b757808060200190518101906107489190610a4d565b6105b75760405162461bcd60e51b815260206004820152602a60248201527f5361666545524332303a204552433230206f7065726174696f6e20646964206e6044820152691bdd081cdd58d8d9595960b21b6064820152608401610608565b60606107b584845f856107bd565b949350505050565b60608247101561081e5760405162461bcd60e51b815260206004820152602660248201527f416464726573733a20696e73756666696369656e742062616c616e636520666f6044820152651c8818d85b1b60d21b6064820152608401610608565b5f5f866001600160a01b031685876040516108399190610a6c565b5f6040518083038185875af1925050503d805f8114610873576040519150601f19603f3d011682016040523d82523d5f602084013e610878565b606091505b509150915061088987838387610894565b979650505050505050565b606083156109025782515f036108fb576001600160a01b0385163b6108fb5760405162461bcd60e51b815260206004820152601d60248201527f416464726573733a2063616c6c20746f206e6f6e2d636f6e74726163740000006044820152606401610608565b50816107b5565b6107b583838151156109175781518083602001fd5b8060405162461bcd60e51b81526004016106089190610a82565b803567ffffffffffffffff81168114610948575f5ffd5b919050565b5f6020828403121561095d575f5ffd5b61039182610931565b80356001600160a01b0381168114610948575f5ffd5b5f6020828403121561098c575f5ffd5b61039182610966565b5f5f604083850312156109a6575f5ffd5b6109af83610966565b91506109bd60208401610931565b90509250929050565b634e487b7160e01b5f52601160045260245ffd5b80820180821115610257576102576109c6565b5f602082840312156109fd575f5ffd5b5051919050565b81810381811115610257576102576109c6565b8082028115828204841417610257576102576109c6565b5f82610a4857634e487b7160e01b5f52601260045260245ffd5b500490565b5f60208284031215610a5d575f5ffd5b81518015158114610391575f5ffd5b5f82518060208501845e5f920191825250919050565b602081525f82518060208401528060208501604085015e5f604082850101526040601f19601f8301168401019150509291505056fea26469706673582212204587e7fcfa4c3c0aa5c6c2d0757a5d78992a0f32bff4d1db03ec378fbfa0dc9e64736f6c634300081c0033","linkReferences":{}},"methodIdentifiers":{"beneficiary()":"38af3eed","duration()":"0fb5a6b4","releasable()":"fbccedae","releasable(address)":"a3f8eace","release()":"86d1a69f","release(address)":"19165587","released()":"96132521","released(address)":"9852595c","start()":"be9a6555","vestedAmount(address,uint64)":"810ec23b","vestedAmount(uint64)":"0a17b06b"},"id":209}