{"abi":[{"type":"function","name":"getDeadline","inputs":[],"outputs":[{"name":"","type":"uint64","internalType":"uint64"}],"stateMutability":"view"},{"type":"function","name":"isExpired","inputs":[],"outputs":[{"name":"","type":"bool","internalType":"bool"}],"stateMutability":"view"},{"type":"function","name":"isPending","inputs":[],"outputs":[{"name":"","type":"bool","internalType":"bool"}],"stateMutability":"view"},{"type":"function","name":"isStarted","inputs":[],"outputs":[{"name":"","type":"bool","internalType":"bool"}],"stateMutability":"view"},{"type":"function","name":"isUnset","inputs":[],"outputs":[{"name":"","type":"bool","internalType":"bool"}],"stateMutability":"view"},{"type":"function","name":"reset","inputs":[],"outputs":[],"stateMutability":"nonpayable"},{"type":"function","name":"setDeadline","inputs":[{"name":"timestamp","type":"uint64","internalType":"uint64"}],"outputs":[],"stateMutability":"nonpayable"}],"bytecode":{"object":"0x6080604052348015600e575f5ffd5b506102338061001c5f395ff3fe608060405234801561000f575f5ffd5b506004361061007a575f3560e01c80635f8d96de116100585780635f8d96de146100da5780639c30ad7e14610100578063aebc048314610122578063d826f88f14610153575f5ffd5b80632260fe3a1461007e5780632f13b60c146100b0578063544736e6146100b8575b5f5ffd5b60408051602081019091525f5467ffffffffffffffff1690819052155b60405190151581526020015b60405180910390f35b61009b610160565b60408051602081019091525f5467ffffffffffffffff1690819052151561009b565b60408051602080820183525f5467ffffffffffffffff16918290529151908152016100a7565b60408051602081019091525f5467ffffffffffffffff1690819052421061009b565b6101516101303660046101cf565b5f805467ffffffffffffffff831667ffffffffffffffff1990911617905550565b005b610151610184565b905090565b60408051602081019091525f805467ffffffffffffffff1682529061015b9061019b565b6101995f805467ffffffffffffffff19169055565b565b5f6101b0825167ffffffffffffffff16151590565b80156101c9575042825f015167ffffffffffffffff1611155b92915050565b5f602082840312156101df575f5ffd5b813567ffffffffffffffff811681146101f6575f5ffd5b939250505056fea2646970667358221220020bdc7ec28e727ea09663335517e32c178180e6e0c0ac0dbb26c439c86f9fb764736f6c634300081c0033","linkReferences":{}},"methodIdentifiers":{"getDeadline()":"5f8d96de","isExpired()":"2f13b60c","isPending()":"9c30ad7e","isStarted()":"544736e6","isUnset()":"2260fe3a","reset()":"d826f88f","setDeadline(uint64)":"aebc0483"},"id":132}