{"abi":[{"type":"function","name":"beneficiary","inputs":[],"outputs":[{"name":"","type":"address","internalType":"address payable"}],"stateMutability":"view"},{"type":"function","name":"beneficiaryWithdraw","inputs":[],"outputs":[],"stateMutability":"nonpayable"},{"type":"function","name":"close","inputs":[],"outputs":[],"stateMutability":"nonpayable"},{"type":"function","name":"deposit","inputs":[{"name":"refundee","type":"address","internalType":"address"}],"outputs":[],"stateMutability":"payable"},{"type":"function","name":"depositsOf","inputs":[{"name":"payee","type":"address","internalType":"address"}],"outputs":[{"name":"","type":"uint256","internalType":"uint256"}],"stateMutability":"view"},{"type":"function","name":"enableRefunds","inputs":[],"outputs":[],"stateMutability":"nonpayable"},{"type":"function","name":"initialize","inputs":[],"outputs":[],"stateMutability":"nonpayable"},{"type":"function","name":"owner","inputs":[],"outputs":[{"name":"","type":"address","internalType":"address"}],"stateMutability":"view"},{"type":"function","name":"renounceOwnership","inputs":[],"outputs":[],"stateMutability":"nonpayable"},{"type":"function","name":"state","inputs":[],"outputs":[{"name":"","type":"uint8","internalType":"enum RefundEscrowUpgradeable.State"}],"stateMutability":"view"},{"type":"function","name":"transferOwnership","inputs":[{"name":"newOwner","type":"address","internalType":"address"}],"outputs":[],"stateMutability":"nonpayable"},{"type":"function","name":"withdraw","inputs":[{"name":"payee","type":"address","internalType":"address payable"}],"outputs":[],"stateMutability":"nonpayable"},{"type":"function","name":"withdrawalAllowed","inputs":[{"name":"","type":"address","internalType":"address"}],"outputs":[{"name":"","type":"bool","internalType":"bool"}],"stateMutability":"view"},{"type":"event","name":"Deposited","inputs":[{"name":"payee","type":"address","indexed":true,"internalType":"address"},{"name":"weiAmount","type":"uint256","indexed":false,"internalType":"uint256"}],"anonymous":false},{"type":"event","name":"Initialized","inputs":[{"name":"version","type":"uint8","indexed":false,"internalType":"uint8"}],"anonymous":false},{"type":"event","name":"OwnershipTransferred","inputs":[{"name":"previousOwner","type":"address","indexed":true,"internalType":"address"},{"name":"newOwner","type":"address","indexed":true,"internalType":"address"}],"anonymous":false},{"type":"event","name":"RefundsClosed","inputs":[],"anonymous":false},{"type":"event","name":"RefundsEnabled","inputs":[],"anonymous":false},{"type":"event","name":"Withdrawn","inputs":[{"name":"payee","type":"address","indexed":true,"internalType":"address"},{"name":"weiAmount","type":"uint256","indexed":false,"internalType":"uint256"}],"anonymous":false}],"bytecode":{"object":"0x608060405234801561001057600080fd5b50611711806100206000396000f3fe6080604052600436106100c25760003560e01c80638c52dc411161007f578063c19d93fb11610059578063c19d93fb146101f6578063e3a9db1a14610221578063f2fde38b1461025e578063f340fa0114610287576100c2565b80638c52dc411461019d5780638da5cb5b146101b45780639af6549a146101df576100c2565b806338af3eed146100c757806343d726d6146100f257806351cff8d914610109578063685ca19414610132578063715018a61461016f5780638129fc1c14610186575b600080fd5b3480156100d357600080fd5b506100dc6102a3565b6040516100e99190610d8e565b60405180910390f35b3480156100fe57600080fd5b506101076102cd565b005b34801561011557600080fd5b50610130600480360381019061012b9190610dda565b61039c565b005b34801561013e57600080fd5b5061015960048036038101906101549190610e45565b6103f0565b6040516101669190610e8d565b60405180910390f35b34801561017b57600080fd5b50610184610428565b005b34801561019257600080fd5b5061019b61043c565b005b3480156101a957600080fd5b506101b261057a565b005b3480156101c057600080fd5b506101c9610649565b6040516101d69190610eb7565b60405180910390f35b3480156101eb57600080fd5b506101f4610673565b005b34801561020257600080fd5b5061020b610712565b6040516102189190610f49565b60405180910390f35b34801561022d57600080fd5b5061024860048036038101906102439190610e45565b610729565b6040516102559190610f7d565b60405180910390f35b34801561026a57600080fd5b5061028560048036038101906102809190610e45565b610772565b005b6102a1600480360381019061029c9190610e45565b6107f5565b005b600060c960019054906101000a900473ffffffffffffffffffffffffffffffffffffffff16905090565b6102d561086f565b600060028111156102e9576102e8610ed2565b5b6102f1610712565b600281111561030357610302610ed2565b5b14610343576040517f08c379a000000000000000000000000000000000000000000000000000000000815260040161033a9061101b565b60405180910390fd5b600260c960006101000a81548160ff0219169083600281111561036957610368610ed2565b5b02179055507f088672c3a6e342f7cd94a65ba63b79df24a8973927b4d05d803c44bbf787d12f60405160405180910390a1565b6103a5816103f0565b6103e4576040517f08c379a00000000000000000000000000000000000000000000000000000000081526004016103db906110ad565b60405180910390fd5b6103ed816108ed565b50565b60006001600281111561040657610405610ed2565b5b61040e610712565b60028111156104205761041f610ed2565b5b149050919050565b61043061086f565b61043a60006109f9565b565b60008060019054906101000a900460ff1615905080801561046d5750600160008054906101000a900460ff1660ff16105b8061049a575061047c30610abf565b1580156104995750600160008054906101000a900460ff1660ff16145b5b6104d9576040517f08c379a00000000000000000000000000000000000000000000000000000000081526004016104d09061113f565b60405180910390fd5b60016000806101000a81548160ff021916908360ff1602179055508015610516576001600060016101000a81548160ff0219169083151502179055505b61051e610ae2565b80156105775760008060016101000a81548160ff0219169083151502179055507f7f26b83ff96e1f2b6a682f133852f6798a09c465da95921460cefb3847402498600160405161056e91906111b1565b60405180910390a15b50565b61058261086f565b6000600281111561059657610595610ed2565b5b61059e610712565b60028111156105b0576105af610ed2565b5b146105f0576040517f08c379a00000000000000000000000000000000000000000000000000000000081526004016105e79061123e565b60405180910390fd5b600160c960006101000a81548160ff0219169083600281111561061657610615610ed2565b5b02179055507f599d8e5a83cffb867d051598c4d70e805d59802d8081c1c7d6dffc5b6aca2b8960405160405180910390a1565b6000603360009054906101000a900473ffffffffffffffffffffffffffffffffffffffff16905090565b60028081111561068657610685610ed2565b5b61068e610712565b60028111156106a05761069f610ed2565b5b146106e0576040517f08c379a00000000000000000000000000000000000000000000000000000000081526004016106d7906112d0565b60405180910390fd5b610710476106ec6102a3565b73ffffffffffffffffffffffffffffffffffffffff16610b3b90919063ffffffff16565b565b600060c960009054906101000a900460ff16905090565b6000606560008373ffffffffffffffffffffffffffffffffffffffff1673ffffffffffffffffffffffffffffffffffffffff168152602001908152602001600020549050919050565b61077a61086f565b600073ffffffffffffffffffffffffffffffffffffffff168173ffffffffffffffffffffffffffffffffffffffff16036107e9576040517f08c379a00000000000000000000000000000000000000000000000000000000081526004016107e090611362565b60405180910390fd5b6107f2816109f9565b50565b6000600281111561080957610808610ed2565b5b610811610712565b600281111561082357610822610ed2565b5b14610863576040517f08c379a000000000000000000000000000000000000000000000000000000000815260040161085a906113f4565b60405180910390fd5b61086c81610c2f565b50565b610877610ce4565b73ffffffffffffffffffffffffffffffffffffffff16610895610649565b73ffffffffffffffffffffffffffffffffffffffff16146108eb576040517f08c379a00000000000000000000000000000000000000000000000000000000081526004016108e290611460565b60405180910390fd5b565b6108f561086f565b6000606560008373ffffffffffffffffffffffffffffffffffffffff1673ffffffffffffffffffffffffffffffffffffffff1681526020019081526020016000205490506000606560008473ffffffffffffffffffffffffffffffffffffffff1673ffffffffffffffffffffffffffffffffffffffff168152602001908152602001600020819055506109a7818373ffffffffffffffffffffffffffffffffffffffff16610b3b90919063ffffffff16565b8173ffffffffffffffffffffffffffffffffffffffff167f7084f5476618d8e60b11ef0d7d3f06914655adb8793e28ff7f018d4c76d505d5826040516109ed9190610f7d565b60405180910390a25050565b6000603360009054906101000a900473ffffffffffffffffffffffffffffffffffffffff16905081603360006101000a81548173ffffffffffffffffffffffffffffffffffffffff021916908373ffffffffffffffffffffffffffffffffffffffff1602179055508173ffffffffffffffffffffffffffffffffffffffff168173ffffffffffffffffffffffffffffffffffffffff167f8be0079c531659141344cd1fd0a4f28419497f9722a3daafe3b4186f6b6457e060405160405180910390a35050565b6000808273ffffffffffffffffffffffffffffffffffffffff163b119050919050565b600060019054906101000a900460ff16610b31576040517f08c379a0000000000000000000000000000000000000000000000000000000008152600401610b28906114f2565b60405180910390fd5b610b39610cec565b565b80471015610b7e576040517f08c379a0000000000000000000000000000000000000000000000000000000008152600401610b759061155e565b60405180910390fd5b60008273ffffffffffffffffffffffffffffffffffffffff1682604051610ba4906115af565b60006040518083038185875af1925050503d8060008114610be1576040519150601f19603f3d011682016040523d82523d6000602084013e610be6565b606091505b5050905080610c2a576040517f08c379a0000000000000000000000000000000000000000000000000000000008152600401610c2190611636565b60405180910390fd5b505050565b610c3761086f565b600034905080606560008473ffffffffffffffffffffffffffffffffffffffff1673ffffffffffffffffffffffffffffffffffffffff1681526020019081526020016000206000828254610c8b9190611685565b925050819055508173ffffffffffffffffffffffffffffffffffffffff167f2da466a7b24304f47e87fa2e1e5a81b9831ce54fec19055ce277ca2f39ba42c482604051610cd89190610f7d565b60405180910390a25050565b600033905090565b600060019054906101000a900460ff16610d3b576040517f08c379a0000000000000000000000000000000000000000000000000000000008152600401610d32906114f2565b60405180910390fd5b610d4b610d46610ce4565b6109f9565b565b600073ffffffffffffffffffffffffffffffffffffffff82169050919050565b6000610d7882610d4d565b9050919050565b610d8881610d6d565b82525050565b6000602082019050610da36000830184610d7f565b92915050565b600080fd5b610db781610d6d565b8114610dc257600080fd5b50565b600081359050610dd481610dae565b92915050565b600060208284031215610df057610def610da9565b5b6000610dfe84828501610dc5565b91505092915050565b6000610e1282610d4d565b9050919050565b610e2281610e07565b8114610e2d57600080fd5b50565b600081359050610e3f81610e19565b92915050565b600060208284031215610e5b57610e5a610da9565b5b6000610e6984828501610e30565b91505092915050565b60008115159050919050565b610e8781610e72565b82525050565b6000602082019050610ea26000830184610e7e565b92915050565b610eb181610e07565b82525050565b6000602082019050610ecc6000830184610ea8565b92915050565b7f4e487b7100000000000000000000000000000000000000000000000000000000600052602160045260246000fd5b60038110610f1257610f11610ed2565b5b50565b6000819050610f2382610f01565b919050565b6000610f3382610f15565b9050919050565b610f4381610f28565b82525050565b6000602082019050610f5e6000830184610f3a565b92915050565b6000819050919050565b610f7781610f64565b82525050565b6000602082019050610f926000830184610f6e565b92915050565b600082825260208201905092915050565b7f526566756e64457363726f773a2063616e206f6e6c7920636c6f73652077686960008201527f6c65206163746976650000000000000000000000000000000000000000000000602082015250565b6000611005602983610f98565b915061101082610fa9565b604082019050919050565b6000602082019050818103600083015261103481610ff8565b9050919050565b7f436f6e646974696f6e616c457363726f773a207061796565206973206e6f742060008201527f616c6c6f77656420746f20776974686472617700000000000000000000000000602082015250565b6000611097603383610f98565b91506110a28261103b565b604082019050919050565b600060208201905081810360008301526110c68161108a565b9050919050565b7f496e697469616c697a61626c653a20636f6e747261637420697320616c72656160008201527f647920696e697469616c697a6564000000000000000000000000000000000000602082015250565b6000611129602e83610f98565b9150611134826110cd565b604082019050919050565b600060208201905081810360008301526111588161111c565b9050919050565b6000819050919050565b600060ff82169050919050565b6000819050919050565b600061119b6111966111918461115f565b611176565b611169565b9050919050565b6111ab81611180565b82525050565b60006020820190506111c660008301846111a2565b92915050565b7f526566756e64457363726f773a2063616e206f6e6c7920656e61626c6520726560008201527f66756e6473207768696c65206163746976650000000000000000000000000000602082015250565b6000611228603283610f98565b9150611233826111cc565b604082019050919050565b600060208201905081810360008301526112578161121b565b9050919050565b7f526566756e64457363726f773a2062656e65666963696172792063616e206f6e60008201527f6c79207769746864726177207768696c6520636c6f7365640000000000000000602082015250565b60006112ba603883610f98565b91506112c58261125e565b604082019050919050565b600060208201905081810360008301526112e9816112ad565b9050919050565b7f4f776e61626c653a206e6577206f776e657220697320746865207a65726f206160008201527f6464726573730000000000000000000000000000000000000000000000000000602082015250565b600061134c602683610f98565b9150611357826112f0565b604082019050919050565b6000602082019050818103600083015261137b8161133f565b9050919050565b7f526566756e64457363726f773a2063616e206f6e6c79206465706f736974207760008201527f68696c6520616374697665000000000000000000000000000000000000000000602082015250565b60006113de602b83610f98565b91506113e982611382565b604082019050919050565b6000602082019050818103600083015261140d816113d1565b9050919050565b7f4f776e61626c653a2063616c6c6572206973206e6f7420746865206f776e6572600082015250565b600061144a602083610f98565b915061145582611414565b602082019050919050565b600060208201905081810360008301526114798161143d565b9050919050565b7f496e697469616c697a61626c653a20636f6e7472616374206973206e6f74206960008201527f6e697469616c697a696e67000000000000000000000000000000000000000000602082015250565b60006114dc602b83610f98565b91506114e782611480565b604082019050919050565b6000602082019050818103600083015261150b816114cf565b9050919050565b7f416464726573733a20696e73756666696369656e742062616c616e6365000000600082015250565b6000611548601d83610f98565b915061155382611512565b602082019050919050565b600060208201905081810360008301526115778161153b565b9050919050565b600081905092915050565b50565b600061159960008361157e565b91506115a482611589565b600082019050919050565b60006115ba8261158c565b9150819050919050565b7f416464726573733a20756e61626c6520746f2073656e642076616c75652c207260008201527f6563697069656e74206d61792068617665207265766572746564000000000000602082015250565b6000611620603a83610f98565b915061162b826115c4565b604082019050919050565b6000602082019050818103600083015261164f81611613565b9050919050565b7f4e487b7100000000000000000000000000000000000000000000000000000000600052601160045260246000fd5b600061169082610f64565b915061169b83610f64565b9250827fffffffffffffffffffffffffffffffffffffffffffffffffffffffffffffffff038211156116d0576116cf611656565b5b82820190509291505056fea2646970667358221220b6df35c0456e098c4fdd52b7285bdd81cee0bb0f86e98765695266119306aba064736f6c634300080d0033","linkReferences":{}},"methodIdentifiers":{"beneficiary()":"38af3eed","beneficiaryWithdraw()":"9af6549a","close()":"43d726d6","deposit(address)":"f340fa01","depositsOf(address)":"e3a9db1a","enableRefunds()":"8c52dc41","initialize()":"8129fc1c","owner()":"8da5cb5b","renounceOwnership()":"715018a6","state()":"c19d93fb","transferOwnership(address)":"f2fde38b","withdraw(address)":"51cff8d9","withdrawalAllowed(address)":"685ca194"},"id":167}