{"abi":[{"type":"constructor","inputs":[{"name":"name","type":"string","internalType":"string"},{"name":"symbol","type":"string","internalType":"string"},{"name":"delegates","type":"address[]","internalType":"address[]"},{"name":"receivers","type":"address[]","internalType":"address[]"},{"name":"amounts","type":"uint96[]","internalType":"uint96[]"}],"stateMutability":"nonpayable"},{"type":"function","name":"CLOCK_MODE","inputs":[],"outputs":[{"name":"","type":"string","internalType":"string"}],"stateMutability":"view"},{"type":"function","name":"DOMAIN_SEPARATOR","inputs":[],"outputs":[{"name":"","type":"bytes32","internalType":"bytes32"}],"stateMutability":"view"},{"type":"function","name":"approve","inputs":[{"name":"to","type":"address","internalType":"address"},{"name":"tokenId","type":"uint256","internalType":"uint256"}],"outputs":[],"stateMutability":"nonpayable"},{"type":"function","name":"balanceOf","inputs":[{"name":"owner","type":"address","internalType":"address"}],"outputs":[{"name":"","type":"uint256","internalType":"uint256"}],"stateMutability":"view"},{"type":"function","name":"clock","inputs":[],"outputs":[{"name":"","type":"uint48","internalType":"uint48"}],"stateMutability":"view"},{"type":"function","name":"delegate","inputs":[{"name":"delegatee","type":"address","internalType":"address"}],"outputs":[],"stateMutability":"nonpayable"},{"type":"function","name":"delegateBySig","inputs":[{"name":"delegatee","type":"address","internalType":"address"},{"name":"nonce","type":"uint256","internalType":"uint256"},{"name":"expiry","type":"uint256","internalType":"uint256"},{"name":"v","type":"uint8","internalType":"uint8"},{"name":"r","type":"bytes32","internalType":"bytes32"},{"name":"s","type":"bytes32","internalType":"bytes32"}],"outputs":[],"stateMutability":"nonpayable"},{"type":"function","name":"delegates","inputs":[{"name":"account","type":"address","internalType":"address"}],"outputs":[{"name":"","type":"address","internalType":"address"}],"stateMutability":"view"},{"type":"function","name":"eip712Domain","inputs":[],"outputs":[{"name":"fields","type":"bytes1","internalType":"bytes1"},{"name":"name","type":"string","internalType":"string"},{"name":"version","type":"string","internalType":"string"},{"name":"chainId","type":"uint256","internalType":"uint256"},{"name":"verifyingContract","type":"address","internalType":"address"},{"name":"salt","type":"bytes32","internalType":"bytes32"},{"name":"extensions","type":"uint256[]","internalType":"uint256[]"}],"stateMutability":"view"},{"type":"function","name":"getApproved","inputs":[{"name":"tokenId","type":"uint256","internalType":"uint256"}],"outputs":[{"name":"","type":"address","internalType":"address"}],"stateMutability":"view"},{"type":"function","name":"getPastTotalSupply","inputs":[{"name":"timepoint","type":"uint256","internalType":"uint256"}],"outputs":[{"name":"","type":"uint256","internalType":"uint256"}],"stateMutability":"view"},{"type":"function","name":"getPastVotes","inputs":[{"name":"account","type":"address","internalType":"address"},{"name":"timepoint","type":"uint256","internalType":"uint256"}],"outputs":[{"name":"","type":"uint256","internalType":"uint256"}],"stateMutability":"view"},{"type":"function","name":"getVotes","inputs":[{"name":"account","type":"address","internalType":"address"}],"outputs":[{"name":"","type":"uint256","internalType":"uint256"}],"stateMutability":"view"},{"type":"function","name":"isApprovedForAll","inputs":[{"name":"owner","type":"address","internalType":"address"},{"name":"operator","type":"address","internalType":"address"}],"outputs":[{"name":"","type":"bool","internalType":"bool"}],"stateMutability":"view"},{"type":"function","name":"name","inputs":[],"outputs":[{"name":"","type":"string","internalType":"string"}],"stateMutability":"view"},{"type":"function","name":"nonces","inputs":[{"name":"owner","type":"address","internalType":"address"}],"outputs":[{"name":"","type":"uint256","internalType":"uint256"}],"stateMutability":"view"},{"type":"function","name":"ownerOf","inputs":[{"name":"tokenId","type":"uint256","internalType":"uint256"}],"outputs":[{"name":"","type":"address","internalType":"address"}],"stateMutability":"view"},{"type":"function","name":"paused","inputs":[],"outputs":[{"name":"","type":"bool","internalType":"bool"}],"stateMutability":"view"},{"type":"function","name":"safeTransferFrom","inputs":[{"name":"from","type":"address","internalType":"address"},{"name":"to","type":"address","internalType":"address"},{"name":"tokenId","type":"uint256","internalType":"uint256"}],"outputs":[],"stateMutability":"nonpayable"},{"type":"function","name":"safeTransferFrom","inputs":[{"name":"from","type":"address","internalType":"address"},{"name":"to","type":"address","internalType":"address"},{"name":"tokenId","type":"uint256","internalType":"uint256"},{"name":"data","type":"bytes","internalType":"bytes"}],"outputs":[],"stateMutability":"nonpayable"},{"type":"function","name":"setApprovalForAll","inputs":[{"name":"operator","type":"address","internalType":"address"},{"name":"approved","type":"bool","internalType":"bool"}],"outputs":[],"stateMutability":"nonpayable"},{"type":"function","name":"supportsInterface","inputs":[{"name":"interfaceId","type":"bytes4","internalType":"bytes4"}],"outputs":[{"name":"","type":"bool","internalType":"bool"}],"stateMutability":"view"},{"type":"function","name":"symbol","inputs":[],"outputs":[{"name":"","type":"string","internalType":"string"}],"stateMutability":"view"},{"type":"function","name":"tokenURI","inputs":[{"name":"tokenId","type":"uint256","internalType":"uint256"}],"outputs":[{"name":"","type":"string","internalType":"string"}],"stateMutability":"view"},{"type":"function","name":"transferFrom","inputs":[{"name":"from","type":"address","internalType":"address"},{"name":"to","type":"address","internalType":"address"},{"name":"tokenId","type":"uint256","internalType":"uint256"}],"outputs":[],"stateMutability":"nonpayable"},{"type":"event","name":"Approval","inputs":[{"name":"owner","type":"address","indexed":true,"internalType":"address"},{"name":"approved","type":"address","indexed":true,"internalType":"address"},{"name":"tokenId","type":"uint256","indexed":true,"internalType":"uint256"}],"anonymous":false},{"type":"event","name":"ApprovalForAll","inputs":[{"name":"owner","type":"address","indexed":true,"internalType":"address"},{"name":"operator","type":"address","indexed":true,"internalType":"address"},{"name":"approved","type":"bool","indexed":false,"internalType":"bool"}],"anonymous":false},{"type":"event","name":"ConsecutiveTransfer","inputs":[{"name":"fromTokenId","type":"uint256","indexed":true,"internalType":"uint256"},{"name":"toTokenId","type":"uint256","indexed":false,"internalType":"uint256"},{"name":"fromAddress","type":"address","indexed":true,"internalType":"address"},{"name":"toAddress","type":"address","indexed":true,"internalType":"address"}],"anonymous":false},{"type":"event","name":"DelegateChanged","inputs":[{"name":"delegator","type":"address","indexed":true,"internalType":"address"},{"name":"fromDelegate","type":"address","indexed":true,"internalType":"address"},{"name":"toDelegate","type":"address","indexed":true,"internalType":"address"}],"anonymous":false},{"type":"event","name":"DelegateVotesChanged","inputs":[{"name":"delegate","type":"address","indexed":true,"internalType":"address"},{"name":"previousBalance","type":"uint256","indexed":false,"internalType":"uint256"},{"name":"newBalance","type":"uint256","indexed":false,"internalType":"uint256"}],"anonymous":false},{"type":"event","name":"EIP712DomainChanged","inputs":[],"anonymous":false},{"type":"event","name":"Paused","inputs":[{"name":"account","type":"address","indexed":false,"internalType":"address"}],"anonymous":false},{"type":"event","name":"Transfer","inputs":[{"name":"from","type":"address","indexed":true,"internalType":"address"},{"name":"to","type":"address","indexed":true,"internalType":"address"},{"name":"tokenId","type":"uint256","indexed":true,"internalType":"uint256"}],"anonymous":false},{"type":"event","name":"Unpaused","inputs":[{"name":"account","type":"address","indexed":false,"internalType":"address"}],"anonymous":false},{"type":"error","name":"InvalidShortString","inputs":[]},{"type":"error","name":"StringTooLong","inputs":[{"name":"str","type":"string","internalType":"string"}]}],"bytecode":{"object":"0x610160604052348015610010575f5ffd5b50604051613ca0380380613ca083398101604081905261002f916110d0565b6040805180820190915260018152603160f81b6020820152859081865f6100568382611239565b5060016100638282611239565b50506008805460ff191690555061007b8260096101d6565b6101205261008a81600a6101d6565b61014052815160208084019190912060e052815190820120610100524660a05261011660e05161010051604080517f8b73c3c69bb8fe3d512ecc4cf759cc79239f7b179b0ffacaa9a75d522b39400f60208201529081019290925260608201524660808201523060a08201525f9060c00160405160208183030381529060405280519060200120905090565b60805250503060c0525f5b83518110156101745761016c84828151811061013f5761013f6112f3565b6020026020010151858381518110610159576101596112f3565b602002602001015161020860201b60201c565b600101610121565b505f5b82518110156101cb576101c2838281518110610195576101956112f3565b60200260200101518383815181106101af576101af6112f3565b602002602001015161027e60201b60201c565b50600101610177565b505050505050611415565b5f6020835110156101f1576101ea836104a4565b9050610202565b816101fc8482611239565b5060ff90505b92915050565b6001600160a01b038281165f818152600b602052604080822080548686166001600160a01b0319821681179092559151919094169392849290917f3134e8a2e6d97e929a7e54011ea5485d7d196dd5f0ba4d4ef95803e8e3fc257f9190a46102798183610274866104e1565b6104eb565b505050565b5f80610288610640565b90506001600160601b0383161561049d57303b156103135760405162461bcd60e51b815260206004820152603a60248201527f455243373231436f6e73656375746976653a206261746368206d696e74696e6760448201527f207265737472696374656420746f20636f6e7374727563746f7200000000000060648201526084015b60405180910390fd5b6001600160a01b03841661037d5760405162461bcd60e51b815260206004820152602b60248201527f455243373231436f6e73656375746976653a206d696e7420746f20746865207a60448201526a65726f206164647265737360a81b606482015260840161030a565b6113886001600160601b03841611156103e35760405162461bcd60e51b815260206004820152602260248201527f455243373231436f6e73656375746976653a20626174636820746f6f206c6172604482015261676560f01b606482015260840161030a565b6103fb5f856001600160601b0380851690871661066f565b5f6001610408858461131b565b610412919061133a565b905061042060068287610681565b506104369050856001600160601b03861661069b565b6040516001600160601b0382811682526001600160a01b038716915f918516907fdeaa91b6123d068f5821d0fb0678463d1a8a6079fe8af5de3ce5e896dcf9133d9060200160405180910390a461049b5f866001600160601b038086169088166106cb565b505b9392505050565b5f5f829050601f815111156104ce578260405163305a27a960e01b815260040161030a9190611359565b80516104d98261138e565b179392505050565b5f610202826106d7565b816001600160a01b0316836001600160a01b03161415801561050c57505f81115b15610279576001600160a01b038316156105a9576001600160a01b0383165f908152600c6020908152604082208291610557919061075b901b610b7a1761055286610766565b6107d2565b6001600160e01b031691506001600160e01b03169150846001600160a01b03165f516020613c805f395f51905f52838360405161059e929190918252602082015260400190565b60405180910390a250505b6001600160a01b03821615610279576001600160a01b0382165f908152600c60209081526040822082916105ea919061080a901b610b851761055286610766565b6001600160e01b031691506001600160e01b03169150836001600160a01b03165f516020613c805f395f51905f528383604051610631929190918252602082015260400190565b60405180910390a25050505050565b5f808061064d6006610815565b50915091508161065d575f610668565b61066881600161131b565b9250505090565b61067b848484846108a2565b50505050565b5f8061068e858585610909565b915091505b935093915050565b6001600160a01b0382165f90815260036020526040812080548392906106c29084906113b1565b90915550505050565b61067b84848484610ad7565b5f6001600160a01b0382166107405760405162461bcd60e51b815260206004820152602960248201527f4552433732313a2061646472657373207a65726f206973206e6f7420612076616044820152683634b21037bbb732b960b91b606482015260840161030a565b506001600160a01b03165f9081526003602052604090205490565b5f61049d82846113c4565b5f6001600160e01b038211156107ce5760405162461bcd60e51b815260206004820152602760248201527f53616665436173743a2076616c756520646f65736e27742066697420696e20326044820152663234206269747360c81b606482015260840161030a565b5090565b5f8061068e6107ef6107e2610aee565b65ffffffffffff16610afd565b6108026107fb88610b61565b868860201c565b879190610b99565b5f61049d82846113e3565b80545f9081908190808203610833575f5f5f9350935093505061089b565b5f61085086610843600185611402565b5f91825260209091200190565b6040805180820190915290546001600160601b0381168083526c010000000000000000000000009091046001600160a01b03166020909201829052600196509450925061089b915050565b9193909250565b60085460ff161561067b5760405162461bcd60e51b815260206004820152602b60248201527f4552433732315061757361626c653a20746f6b656e207472616e73666572207760448201526a1a1a5b19481c185d5cd95960aa1b606482015260840161030a565b82545f9081908015610a73575f61092587610843600185611402565b6040805180820190915290546001600160601b038082168084526c010000000000000000000000009092046001600160a01b0316602084015291925090871610156109b25760405162461bcd60e51b815260206004820152601b60248201527f436865636b706f696e743a2064656372656173696e67206b6579730000000000604482015260640161030a565b80516001600160601b03808816911603610a0957846109d688610843600186611402565b80546001600160a01b03929092166c01000000000000000000000000026001600160601b03909216919091179055610a63565b604080518082019091526001600160601b0380881682526001600160a01b0380881660208085019182528b54600181018d555f8d815291909120945191519092166c01000000000000000000000000029216919091179101555b6020015192508391506106939050565b5050604080518082019091526001600160601b0380851682526001600160a01b0380851660208085019182528854600181018a555f8a8152918220955192519093166c01000000000000000000000000029190931617920191909155905081610693565b610ae2848483610ba6565b61067b84848484610c29565b5f610af843610d0e565b905090565b5f63ffffffff8211156107ce5760405162461bcd60e51b815260206004820152602660248201527f53616665436173743a2076616c756520646f65736e27742066697420696e203360448201526532206269747360d01b606482015260840161030a565b80545f908015610b9157610b7a83610843600184611402565b5464010000000090046001600160e01b031661049d565b5f9392505050565b5f8061068e858585610d74565b6001600160a01b038316610bcf57610bcc600d610b8561080a60201b1761055284610766565b50505b6001600160a01b038216610bf857610bf5600d610b7a61075b60201b1761055284610766565b50505b6001600160a01b038381165f908152600b6020526040808220548584168352912054610279929182169116836104eb565b6001600160a01b038316158015610c4f5750610c43610640565b6001600160601b031682105b8015610c735750600882901c5f90815260076020526040902054600160ff84161b16155b15610cfb5780600114610cdc5760405162461bcd60e51b815260206004820152602b60248201527f455243373231436f6e73656375746976653a206261746368206275726e206e6f60448201526a1d081cdd5c1c1bdc9d195960aa1b606482015260840161030a565b600882901c5f9081526007602052604090208054600160ff85161b1790555b61067b848484846001600160e01b038516565b5f65ffffffffffff8211156107ce5760405162461bcd60e51b815260206004820152602660248201527f53616665436173743a2076616c756520646f65736e27742066697420696e203460448201526538206269747360d01b606482015260840161030a565b82545f9081908015610eb9575f610d9087610843600185611402565b60408051808201909152905463ffffffff8082168084526401000000009092046001600160e01b031660208401529192509087161015610e125760405162461bcd60e51b815260206004820152601b60248201527f436865636b706f696e743a2064656372656173696e67206b6579730000000000604482015260640161030a565b805163ffffffff808816911603610e5b5784610e3388610843600186611402565b80546001600160e01b03929092166401000000000263ffffffff909216919091179055610a63565b6040805180820190915263ffffffff80881682526001600160e01b0380881660208085019182528b54600181018d555f8d81529190912094519151909216640100000000029216919091179101556020015192508391506106939050565b50506040805180820190915263ffffffff80851682526001600160e01b0380851660208085019182528854600181018a555f8a815291822095519251909316640100000000029190931617920191909155905081610693565b634e487b7160e01b5f52604160045260245ffd5b604051601f8201601f191681016001600160401b0381118282101715610f4e57610f4e610f12565b604052919050565b5f82601f830112610f65575f5ffd5b81516001600160401b03811115610f7e57610f7e610f12565b610f91601f8201601f1916602001610f26565b818152846020838601011115610fa5575f5ffd5b8160208501602083015e5f918101602001919091529392505050565b5f6001600160401b03821115610fd957610fd9610f12565b5060051b60200190565b5f82601f830112610ff2575f5ffd5b815161100561100082610fc1565b610f26565b8082825260208201915060208360051b860101925085831115611026575f5ffd5b602085015b838110156110575780516001600160a01b0381168114611049575f5ffd5b83526020928301920161102b565b5095945050505050565b5f82601f830112611070575f5ffd5b815161107e61100082610fc1565b8082825260208201915060208360051b86010192508583111561109f575f5ffd5b602085015b838110156110575780516001600160601b03811681146110c2575f5ffd5b8352602092830192016110a4565b5f5f5f5f5f60a086880312156110e4575f5ffd5b85516001600160401b038111156110f9575f5ffd5b61110588828901610f56565b602088015190965090506001600160401b03811115611122575f5ffd5b61112e88828901610f56565b604088015190955090506001600160401b0381111561114b575f5ffd5b61115788828901610fe3565b606088015190945090506001600160401b03811115611174575f5ffd5b61118088828901610fe3565b608088015190935090506001600160401b0381111561119d575f5ffd5b6111a988828901611061565b9150509295509295909350565b600181811c908216806111ca57607f821691505b6020821081036111e857634e487b7160e01b5f52602260045260245ffd5b50919050565b601f82111561027957805f5260205f20601f840160051c810160208510156112135750805b601f840160051c820191505b81811015611232575f815560010161121f565b5050505050565b81516001600160401b0381111561125257611252610f12565b6112668161126084546111b6565b846111ee565b6020601f821160018114611298575f83156112815750848201515b5f19600385901b1c1916600184901b178455611232565b5f84815260208120601f198516915b828110156112c757878501518255602094850194600190920191016112a7565b50848210156112e457868401515f19600387901b60f8161c191681555b50505050600190811b01905550565b634e487b7160e01b5f52603260045260245ffd5b634e487b7160e01b5f52601160045260245ffd5b6001600160601b03818116838216019081111561020257610202611307565b6001600160601b03828116828216039081111561020257610202611307565b602081525f82518060208401528060208501604085015e5f604082850101526040601f19601f83011684010191505092915050565b805160208083015191908110156111e8575f1960209190910360031b1b16919050565b8082018082111561020257610202611307565b6001600160e01b03828116828216039081111561020257610202611307565b6001600160e01b03818116838216019081111561020257610202611307565b8181038181111561020257610202611307565b60805160a05160c05160e05161010051610120516101405161281a6114665f395f61089a01525f61086f01525f610f1d01525f610ef501525f610e5001525f610e7a01525f610ea4015261281a5ff3fe608060405234801561000f575f5ffd5b506004361061016d575f3560e01c80636352211e116100d957806395d89b4111610093578063b88d4fde1161006e578063b88d4fde14610342578063c3cda52014610355578063c87b56dd14610368578063e985e9c51461037b575f5ffd5b806395d89b41146103145780639ab24eb01461031c578063a22cb4651461032f575f5ffd5b80636352211e1461028e57806370a08231146102a15780637ecebe00146102b457806384b0196e146102c75780638e539e8c146102e257806391ddadf4146102f5575f5ffd5b80633a46b1a81161012a5780633a46b1a81461021757806342842e0e1461022a5780634bf5d7e91461023d578063587cde1e146102455780635c19a95c146102705780635c975abb14610283575f5ffd5b806301ffc9a71461017157806306fdde0314610199578063081812fc146101ae578063095ea7b3146101d957806323b872dd146101ee5780633644e51514610201575b5f5ffd5b61018461017f36600461221a565b6103b6565b60405190151581526020015b60405180910390f35b6101a1610407565b6040516101909190612263565b6101c16101bc366004612275565b610496565b6040516001600160a01b039091168152602001610190565b6101ec6101e73660046122a7565b6104bb565b005b6101ec6101fc3660046122cf565b6105d4565b610209610605565b604051908152602001610190565b6102096102253660046122a7565b610613565b6101ec6102383660046122cf565b6106a2565b6101a16106bc565b6101c1610253366004612309565b6001600160a01b039081165f908152600b60205260409020541690565b6101ec61027e366004612309565b610754565b60085460ff16610184565b6101c161029c366004612275565b610763565b6102096102af366004612309565b6107c1565b6102096102c2366004612309565b610845565b6102cf610862565b6040516101909796959493929190612322565b6102096102f0366004612275565b6108e9565b6102fd610962565b60405165ffffffffffff9091168152602001610190565b6101a161096c565b61020961032a366004612309565b61097b565b6101ec61033d3660046123b8565b61099b565b6101ec610350366004612405565b6109a6565b6101ec6103633660046124e2565b6109de565b6101a1610376366004612275565b610b0a565b61018461038936600461253d565b6001600160a01b039182165f90815260056020908152604080832093909416825291909152205460ff1690565b5f6001600160e01b031982166380ac58cd60e01b14806103e657506001600160e01b03198216635b5e139f60e01b145b8061040157506301ffc9a760e01b6001600160e01b03198316145b92915050565b60605f80546104159061256e565b80601f01602080910402602001604051908101604052809291908181526020018280546104419061256e565b801561048c5780601f106104635761010080835404028352916020019161048c565b820191905f5260205f20905b81548152906001019060200180831161046f57829003601f168201915b5050505050905090565b5f6104a082610b90565b505f908152600460205260409020546001600160a01b031690565b5f6104c582610763565b9050806001600160a01b0316836001600160a01b0316036105375760405162461bcd60e51b815260206004820152602160248201527f4552433732313a20617070726f76616c20746f2063757272656e74206f776e656044820152603960f91b60648201526084015b60405180910390fd5b336001600160a01b038216148061055357506105538133610389565b6105c55760405162461bcd60e51b815260206004820152603d60248201527f4552433732313a20617070726f76652063616c6c6572206973206e6f7420746f60448201527f6b656e206f776e6572206f7220617070726f76656420666f7220616c6c000000606482015260840161052e565b6105cf8383610be3565b505050565b6105de3382610c50565b6105fa5760405162461bcd60e51b815260040161052e906125a0565b6105cf838383610ccd565b5f61060e610e44565b905090565b5f61061c610962565b65ffffffffffff1682106106695760405162461bcd60e51b81526020600482015260146024820152730566f7465733a20667574757265206c6f6f6b75760641b604482015260640161052e565b61069261067583610f6d565b6001600160a01b0385165f908152600c6020526040902090610fd5565b6001600160e01b03169392505050565b6105cf83838360405180602001604052805f8152506109a6565b6060436106c7610962565b65ffffffffffff161461071c5760405162461bcd60e51b815260206004820152601860248201527f566f7465733a2062726f6b656e20636c6f636b206d6f64650000000000000000604482015260640161052e565b5060408051808201909152601d81527f6d6f64653d626c6f636b6e756d6265722666726f6d3d64656661756c74000000602082015290565b3361075f8183611084565b5050565b5f5f61076e836110f5565b90506001600160a01b0381166104015760405162461bcd60e51b8152602060048201526018602482015277115490cdcc8c4e881a5b9d985b1a59081d1bdad95b88125160421b604482015260640161052e565b5f6001600160a01b03821661082a5760405162461bcd60e51b815260206004820152602960248201527f4552433732313a2061646472657373207a65726f206973206e6f7420612076616044820152683634b21037bbb732b960b91b606482015260840161052e565b506001600160a01b03165f9081526003602052604090205490565b6001600160a01b0381165f908152600e6020526040812054610401565b5f606080828080836108957f000000000000000000000000000000000000000000000000000000000000000060096110ff565b6108c07f0000000000000000000000000000000000000000000000000000000000000000600a6110ff565b604080515f80825260208201909252600f60f81b9b939a50919850469750309650945092509050565b5f6108f2610962565b65ffffffffffff16821061093f5760405162461bcd60e51b81526020600482015260146024820152730566f7465733a20667574757265206c6f6f6b75760641b604482015260640161052e565b61095361094b83610f6d565b600d90610fd5565b6001600160e01b031692915050565b5f61060e436111a8565b6060600180546104159061256e565b6001600160a01b0381165f908152600c602052604081206109539061120e565b61075f338383611246565b6109b03383610c50565b6109cc5760405162461bcd60e51b815260040161052e906125a0565b6109d884848484611313565b50505050565b83421115610a2e5760405162461bcd60e51b815260206004820152601860248201527f566f7465733a207369676e617475726520657870697265640000000000000000604482015260640161052e565b604080517fe48329057bfd03d55e49b547132e39cffd9c1820ad7b9d4c5307691425d15adf60208201526001600160a01b0388169181019190915260608101869052608081018590525f90610aa790610a9f9060a00160405160208183030381529060405280519060200120611346565b858585611372565b9050610ab281611398565b8614610af75760405162461bcd60e51b8152602060048201526014602482015273566f7465733a20696e76616c6964206e6f6e636560601b604482015260640161052e565b610b018188611084565b50505050505050565b6060610b1582610b90565b5f610b2a60408051602081019091525f815290565b90505f815111610b485760405180602001604052805f815250610b73565b80610b52846113bf565b604051602001610b63929190612604565b6040516020818303038152906040525b9392505050565b5f610b73828461262c565b5f610b73828461264b565b610b998161144f565b610be05760405162461bcd60e51b8152602060048201526018602482015277115490cdcc8c4e881a5b9d985b1a59081d1bdad95b88125160421b604482015260640161052e565b50565b5f81815260046020526040902080546001600160a01b0319166001600160a01b0384169081179091558190610c1782610763565b6001600160a01b03167f8c5be1e5ebec7d5bd14f71427d1e84f3dd0314c0f7b2291e5b200ac8c7c3b92560405160405180910390a45050565b5f5f610c5b83610763565b9050806001600160a01b0316846001600160a01b03161480610ca157506001600160a01b038082165f9081526005602090815260408083209388168352929052205460ff165b80610cc55750836001600160a01b0316610cba84610496565b6001600160a01b0316145b949350505050565b826001600160a01b0316610ce082610763565b6001600160a01b031614610d065760405162461bcd60e51b815260040161052e9061266a565b6001600160a01b038216610d685760405162461bcd60e51b8152602060048201526024808201527f4552433732313a207472616e7366657220746f20746865207a65726f206164646044820152637265737360e01b606482015260840161052e565b610d75838383600161146b565b826001600160a01b0316610d8882610763565b6001600160a01b031614610dae5760405162461bcd60e51b815260040161052e9061266a565b5f81815260046020908152604080832080546001600160a01b03199081169091556001600160a01b038781168086526003855283862080545f1901905590871680865283862080546001019055868652600290945282852080549092168417909155905184937fddf252ad1be2c89b69c2b068fc378daa952ba7f163c4a11628f55a4df523b3ef91a46105cf8383836001611477565b5f306001600160a01b037f000000000000000000000000000000000000000000000000000000000000000016148015610e9c57507f000000000000000000000000000000000000000000000000000000000000000046145b15610ec657507f000000000000000000000000000000000000000000000000000000000000000090565b61060e604080517f8b73c3c69bb8fe3d512ecc4cf759cc79239f7b179b0ffacaa9a75d522b39400f60208201527f0000000000000000000000000000000000000000000000000000000000000000918101919091527f000000000000000000000000000000000000000000000000000000000000000060608201524660808201523060a08201525f9060c00160405160208183030381529060405280519060200120905090565b5f63ffffffff821115610fd15760405162461bcd60e51b815260206004820152602660248201527f53616665436173743a2076616c756520646f65736e27742066697420696e203360448201526532206269747360d01b606482015260840161052e565b5090565b81545f908181600581111561102f575f610fee84611483565b610ff890856126af565b5f8881526020902090915081015463ffffffff908116908716101561101f5780915061102d565b61102a8160016126c2565b92505b505b5f61103c87878585611567565b9050801561107757611060876110536001846126af565b5f91825260209091200190565b5464010000000090046001600160e01b0316611079565b5f5b979650505050505050565b6001600160a01b038281165f818152600b602052604080822080548686166001600160a01b0319821681179092559151919094169392849290917f3134e8a2e6d97e929a7e54011ea5485d7d196dd5f0ba4d4ef95803e8e3fc257f9190a46105cf81836110f0866115c2565b6115cc565b5f61040182611735565b606060ff8314611119576111128361179a565b9050610401565b8180546111259061256e565b80601f01602080910402602001604051908101604052809291908181526020018280546111519061256e565b801561119c5780601f106111735761010080835404028352916020019161119c565b820191905f5260205f20905b81548152906001019060200180831161117f57829003601f168201915b50505050509050610401565b5f65ffffffffffff821115610fd15760405162461bcd60e51b815260206004820152602660248201527f53616665436173743a2076616c756520646f65736e27742066697420696e203460448201526538206269747360d01b606482015260840161052e565b80545f90801561123e57611227836110536001846126af565b5464010000000090046001600160e01b0316610b73565b5f9392505050565b816001600160a01b0316836001600160a01b0316036112a75760405162461bcd60e51b815260206004820152601960248201527f4552433732313a20617070726f766520746f2063616c6c657200000000000000604482015260640161052e565b6001600160a01b038381165f81815260056020908152604080832094871680845294825291829020805460ff191686151590811790915591519182527f17307eab39ab6107e8899845ad3d59bd9653f200f220920489ca2b5937696c31910160405180910390a3505050565b61131e848484610ccd565b61132a848484846117d7565b6109d85760405162461bcd60e51b815260040161052e906126d5565b5f610401611352610e44565b8360405161190160f01b8152600281019290925260228201526042902090565b5f5f5f611381878787876118d1565b9150915061138e8161198e565b5095945050505050565b6001600160a01b0381165f908152600e602052604090208054600181018255905b50919050565b60605f6113cb83611ad7565b60010190505f8167ffffffffffffffff8111156113ea576113ea6123f1565b6040519080825280601f01601f191660200182016040528015611414576020820181803683370190505b5090508181016020015b5f19016f181899199a1a9b1b9c1cb0b131b232b360811b600a86061a8153600a850494508461141e57509392505050565b5f8061145a836110f5565b6001600160a01b0316141592915050565b6109d884848484611bae565b6109d884848484611c15565b5f815f0361149257505f919050565b5f600161149e84611c2c565b901c6001901b905060018184816114b7576114b7612727565b048201901c905060018184816114cf576114cf612727565b048201901c905060018184816114e7576114e7612727565b048201901c905060018184816114ff576114ff612727565b048201901c9050600181848161151757611517612727565b048201901c9050600181848161152f5761152f612727565b048201901c9050600181848161154757611547612727565b048201901c9050610b738182858161156157611561612727565b04611cbf565b5f5b818310156115ba575f61157c8484611cd4565b5f8781526020902090915063ffffffff86169082015463ffffffff1611156115a6578092506115b4565b6115b18160016126c2565b93505b50611569565b509392505050565b5f610401826107c1565b816001600160a01b0316836001600160a01b0316141580156115ed57505f81115b156105cf576001600160a01b03831615611694576001600160a01b0383165f908152600c60205260408120819061162f90610b7a61162a86611cee565b611d56565b6001600160e01b031691506001600160e01b03169150846001600160a01b03167fdec2bacdd2f05b59de34da9b523dff8be42e5e38e818c82fdb0bae774387a7248383604051611689929190918252602082015260400190565b60405180910390a250505b6001600160a01b038216156105cf576001600160a01b0382165f908152600c6020526040812081906116cc90610b8561162a86611cee565b6001600160e01b031691506001600160e01b03169150836001600160a01b03167fdec2bacdd2f05b59de34da9b523dff8be42e5e38e818c82fdb0bae774387a7248383604051611726929190918252602082015260400190565b60405180910390a25050505050565b5f818152600260205260408120546001600160a01b03168015158061176057506001600160601b0383115b1561176b5792915050565b600883901c5f90815260076020526040902054600160ff85161b1661123e57611795600684611d9e565b610b73565b60605f6117a683611de3565b6040805160208082528183019092529192505f91906020820181803683375050509182525060208101929092525090565b5f6001600160a01b0384163b156118c957604051630a85bd0160e11b81526001600160a01b0385169063150b7a029061181a90339089908890889060040161273b565b6020604051808303815f875af1925050508015611854575060408051601f3d908101601f1916820190925261185191810190612777565b60015b6118af573d808015611881576040519150601f19603f3d011682016040523d82523d5f602084013e611886565b606091505b5080515f036118a75760405162461bcd60e51b815260040161052e906126d5565b805181602001fd5b6001600160e01b031916630a85bd0160e11b149050610cc5565b506001610cc5565b5f807f7fffffffffffffffffffffffffffffff5d576e7357a4501ddfe92f46681b20a083111561190657505f90506003611985565b604080515f8082526020820180845289905260ff881692820192909252606081018690526080810185905260019060a0016020604051602081039080840390855afa158015611957573d5f5f3e3d5ffd5b5050604051601f1901519150506001600160a01b03811661197f575f60019250925050611985565b91505f90505b94509492505050565b5f8160048111156119a1576119a1612792565b036119a95750565b60018160048111156119bd576119bd612792565b03611a0a5760405162461bcd60e51b815260206004820152601860248201527f45434453413a20696e76616c6964207369676e61747572650000000000000000604482015260640161052e565b6002816004811115611a1e57611a1e612792565b03611a6b5760405162461bcd60e51b815260206004820152601f60248201527f45434453413a20696e76616c6964207369676e6174757265206c656e67746800604482015260640161052e565b6003816004811115611a7f57611a7f612792565b03610be05760405162461bcd60e51b815260206004820152602260248201527f45434453413a20696e76616c6964207369676e6174757265202773272076616c604482015261756560f01b606482015260840161052e565b5f8072184f03e93ff9f4daa797ed6e38ed64bf6a1f0160401b8310611b155772184f03e93ff9f4daa797ed6e38ed64bf6a1f0160401b830492506040015b6d04ee2d6d415b85acef81000000008310611b41576d04ee2d6d415b85acef8100000000830492506020015b662386f26fc100008310611b5f57662386f26fc10000830492506010015b6305f5e1008310611b77576305f5e100830492506008015b6127108310611b8b57612710830492506004015b60648310611b9d576064830492506002015b600a83106104015760010192915050565b60085460ff16156109d85760405162461bcd60e51b815260206004820152602b60248201527f4552433732315061757361626c653a20746f6b656e207472616e73666572207760448201526a1a1a5b19481c185d5cd95960aa1b606482015260840161052e565b611c20848483611e0a565b6109d884848484611e7f565b5f80608083901c15611c4057608092831c92015b604083901c15611c5257604092831c92015b602083901c15611c6457602092831c92015b601083901c15611c7657601092831c92015b600883901c15611c8857600892831c92015b600483901c15611c9a57600492831c92015b600283901c15611cac57600292831c92015b600183901c156104015760010192915050565b5f818310611ccd5781610b73565b5090919050565b5f611ce260028484186127a6565b610b73908484166126c2565b5f6001600160e01b03821115610fd15760405162461bcd60e51b815260206004820152602760248201527f53616665436173743a2076616c756520646f65736e27742066697420696e20326044820152663234206269747360c81b606482015260840161052e565b5f5f611d91611d73611d66610962565b65ffffffffffff16610f6d565b611d89611d7f8861120e565b868863ffffffff16565b879190611f5a565b915091505b935093915050565b81545f9081611daf85858385611f67565b9050818114611dd8575f85815260209020810154600160601b90046001600160a01b0316611dda565b5f5b95945050505050565b5f60ff8216601f81111561040157604051632cd44ac360e21b815260040160405180910390fd5b6001600160a01b038316611e2c57611e29600d610b8561162a84611cee565b50505b6001600160a01b038216611e4e57611e4b600d610b7a61162a84611cee565b50505b6001600160a01b038381165f908152600b60205260408082205485841683529120546105cf929182169116836115cc565b6001600160a01b038316158015611ea55750611e99611fc0565b6001600160601b031682105b8015611ec95750600882901c5f90815260076020526040902054600160ff84161b16155b15611f555780600114611f325760405162461bcd60e51b815260206004820152602b60248201527f455243373231436f6e73656375746976653a206261746368206275726e206e6f60448201526a1d081cdd5c1c1bdc9d195960aa1b606482015260840161052e565b600882901c5f9081526007602052604090208054600160ff85161b1790556109d8565b6109d8565b5f80611d91858585611fef565b5f5b818310156115ba575f611f7c8484611cd4565b5f878152602090209091506001600160601b038616908201546001600160601b03161015611fb657611faf8160016126c2565b9350611fba565b8092505b50611f69565b5f5f5f611fcd600661218e565b509150915081611fdd575f611fe8565b611fe88160016127c5565b9250505090565b82545f9081908015612135575f61200b876110536001856126af565b60408051808201909152905463ffffffff8082168084526401000000009092046001600160e01b03166020840152919250908716101561208d5760405162461bcd60e51b815260206004820152601b60248201527f436865636b706f696e743a2064656372656173696e67206b6579730000000000604482015260640161052e565b805163ffffffff8088169116036120d657846120ae886110536001866126af565b80546001600160e01b03929092166401000000000263ffffffff909216919091179055612125565b6040805180820190915263ffffffff80881682526001600160e01b0380881660208085019182528b54600181018d555f8d81529190912094519151909216640100000000029216919091179101555b602001519250839150611d969050565b50506040805180820190915263ffffffff80851682526001600160e01b0380851660208085019182528854600181018a555f8a815291822095519251909316640100000000029190931617920191909155905081611d96565b80545f90819081908082036121ac575f5f5f935093509350506121fe565b5f6121bc866110536001856126af565b6040805180820190915290546001600160601b038116808352600160601b9091046001600160a01b0316602090920182905260019650945092506121fe915050565b9193909250565b6001600160e01b031981168114610be0575f5ffd5b5f6020828403121561222a575f5ffd5b8135610b7381612205565b5f81518084528060208401602086015e5f602082860101526020601f19601f83011685010191505092915050565b602081525f610b736020830184612235565b5f60208284031215612285575f5ffd5b5035919050565b80356001600160a01b03811681146122a2575f5ffd5b919050565b5f5f604083850312156122b8575f5ffd5b6122c18361228c565b946020939093013593505050565b5f5f5f606084860312156122e1575f5ffd5b6122ea8461228c565b92506122f86020850161228c565b929592945050506040919091013590565b5f60208284031215612319575f5ffd5b610b738261228c565b60ff60f81b8816815260e060208201525f61234060e0830189612235565b82810360408401526123528189612235565b606084018890526001600160a01b038716608085015260a0840186905283810360c0850152845180825260208087019350909101905f5b818110156123a7578351835260209384019390920191600101612389565b50909b9a5050505050505050505050565b5f5f604083850312156123c9575f5ffd5b6123d28361228c565b9150602083013580151581146123e6575f5ffd5b809150509250929050565b634e487b7160e01b5f52604160045260245ffd5b5f5f5f5f60808587031215612418575f5ffd5b6124218561228c565b935061242f6020860161228c565b925060408501359150606085013567ffffffffffffffff811115612451575f5ffd5b8501601f81018713612461575f5ffd5b803567ffffffffffffffff81111561247b5761247b6123f1565b604051601f8201601f19908116603f0116810167ffffffffffffffff811182821017156124aa576124aa6123f1565b6040528181528282016020018910156124c1575f5ffd5b816020840160208301375f6020838301015280935050505092959194509250565b5f5f5f5f5f5f60c087890312156124f7575f5ffd5b6125008761228c565b95506020870135945060408701359350606087013560ff81168114612523575f5ffd5b9598949750929560808101359460a0909101359350915050565b5f5f6040838503121561254e575f5ffd5b6125578361228c565b91506125656020840161228c565b90509250929050565b600181811c9082168061258257607f821691505b6020821081036113b957634e487b7160e01b5f52602260045260245ffd5b6020808252602d908201527f4552433732313a2063616c6c6572206973206e6f7420746f6b656e206f776e6560408201526c1c881bdc88185c1c1c9bdd9959609a1b606082015260800190565b5f81518060208401855e5f93019283525090919050565b5f610cc561261283866125ed565b846125ed565b634e487b7160e01b5f52601160045260245ffd5b6001600160e01b03828116828216039081111561040157610401612618565b6001600160e01b03818116838216019081111561040157610401612618565b60208082526025908201527f4552433732313a207472616e736665722066726f6d20696e636f72726563742060408201526437bbb732b960d91b606082015260800190565b8181038181111561040157610401612618565b8082018082111561040157610401612618565b60208082526032908201527f4552433732313a207472616e7366657220746f206e6f6e20455243373231526560408201527131b2b4bb32b91034b6b83632b6b2b73a32b960711b606082015260800190565b634e487b7160e01b5f52601260045260245ffd5b6001600160a01b03858116825284166020820152604081018390526080606082018190525f9061276d90830184612235565b9695505050505050565b5f60208284031215612787575f5ffd5b8151610b7381612205565b634e487b7160e01b5f52602160045260245ffd5b5f826127c057634e487b7160e01b5f52601260045260245ffd5b500490565b6001600160601b0381811683821601908111156104015761040161261856fea26469706673582212202f8293647163bda81c925d5ef2fa31900ceb178f31d89600f216a7318a750d2864736f6c634300081c0033dec2bacdd2f05b59de34da9b523dff8be42e5e38e818c82fdb0bae774387a724","linkReferences":{}},"methodIdentifiers":{"CLOCK_MODE()":"4bf5d7e9","DOMAIN_SEPARATOR()":"3644e515","approve(address,uint256)":"095ea7b3","balanceOf(address)":"70a08231","clock()":"91ddadf4","delegate(address)":"5c19a95c","delegateBySig(address,uint256,uint256,uint8,bytes32,bytes32)":"c3cda520","delegates(address)":"587cde1e","eip712Domain()":"84b0196e","getApproved(uint256)":"081812fc","getPastTotalSupply(uint256)":"8e539e8c","getPastVotes(address,uint256)":"3a46b1a8","getVotes(address)":"9ab24eb0","isApprovedForAll(address,address)":"e985e9c5","name()":"06fdde03","nonces(address)":"7ecebe00","ownerOf(uint256)":"6352211e","paused()":"5c975abb","safeTransferFrom(address,address,uint256)":"42842e0e","safeTransferFrom(address,address,uint256,bytes)":"b88d4fde","setApprovalForAll(address,bool)":"a22cb465","supportsInterface(bytes4)":"01ffc9a7","symbol()":"95d89b41","tokenURI(uint256)":"c87b56dd","transferFrom(address,address,uint256)":"23b872dd"},"id":167}