{"abi":[{"type":"constructor","inputs":[{"name":"_token","type":"address","internalType":"contract IVotes"},{"name":"_timelock","type":"address","internalType":"contract TimelockController"}],"stateMutability":"nonpayable"},{"type":"receive","stateMutability":"payable"},{"type":"function","name":"BALLOT_TYPEHASH","inputs":[],"outputs":[{"name":"","type":"bytes32","internalType":"bytes32"}],"stateMutability":"view"},{"type":"function","name":"CLOCK_MODE","inputs":[],"outputs":[{"name":"","type":"string","internalType":"string"}],"stateMutability":"view"},{"type":"function","name":"COUNTING_MODE","inputs":[],"outputs":[{"name":"","type":"string","internalType":"string"}],"stateMutability":"pure"},{"type":"function","name":"EXTENDED_BALLOT_TYPEHASH","inputs":[],"outputs":[{"name":"","type":"bytes32","internalType":"bytes32"}],"stateMutability":"view"},{"type":"function","name":"cancel","inputs":[{"name":"proposalId","type":"uint256","internalType":"uint256"}],"outputs":[],"stateMutability":"nonpayable"},{"type":"function","name":"cancel","inputs":[{"name":"targets","type":"address[]","internalType":"address[]"},{"name":"values","type":"uint256[]","internalType":"uint256[]"},{"name":"calldatas","type":"bytes[]","internalType":"bytes[]"},{"name":"descriptionHash","type":"bytes32","internalType":"bytes32"}],"outputs":[{"name":"","type":"uint256","internalType":"uint256"}],"stateMutability":"nonpayable"},{"type":"function","name":"castVote","inputs":[{"name":"proposalId","type":"uint256","internalType":"uint256"},{"name":"support","type":"uint8","internalType":"uint8"}],"outputs":[{"name":"","type":"uint256","internalType":"uint256"}],"stateMutability":"nonpayable"},{"type":"function","name":"castVoteBySig","inputs":[{"name":"proposalId","type":"uint256","internalType":"uint256"},{"name":"support","type":"uint8","internalType":"uint8"},{"name":"v","type":"uint8","internalType":"uint8"},{"name":"r","type":"bytes32","internalType":"bytes32"},{"name":"s","type":"bytes32","internalType":"bytes32"}],"outputs":[{"name":"","type":"uint256","internalType":"uint256"}],"stateMutability":"nonpayable"},{"type":"function","name":"castVoteWithReason","inputs":[{"name":"proposalId","type":"uint256","internalType":"uint256"},{"name":"support","type":"uint8","internalType":"uint8"},{"name":"reason","type":"string","internalType":"string"}],"outputs":[{"name":"","type":"uint256","internalType":"uint256"}],"stateMutability":"nonpayable"},{"type":"function","name":"castVoteWithReasonAndParams","inputs":[{"name":"proposalId","type":"uint256","internalType":"uint256"},{"name":"support","type":"uint8","internalType":"uint8"},{"name":"reason","type":"string","internalType":"string"},{"name":"params","type":"bytes","internalType":"bytes"}],"outputs":[{"name":"","type":"uint256","internalType":"uint256"}],"stateMutability":"nonpayable"},{"type":"function","name":"castVoteWithReasonAndParamsBySig","inputs":[{"name":"proposalId","type":"uint256","internalType":"uint256"},{"name":"support","type":"uint8","internalType":"uint8"},{"name":"reason","type":"string","internalType":"string"},{"name":"params","type":"bytes","internalType":"bytes"},{"name":"v","type":"uint8","internalType":"uint8"},{"name":"r","type":"bytes32","internalType":"bytes32"},{"name":"s","type":"bytes32","internalType":"bytes32"}],"outputs":[{"name":"","type":"uint256","internalType":"uint256"}],"stateMutability":"nonpayable"},{"type":"function","name":"clock","inputs":[],"outputs":[{"name":"","type":"uint48","internalType":"uint48"}],"stateMutability":"view"},{"type":"function","name":"eip712Domain","inputs":[],"outputs":[{"name":"fields","type":"bytes1","internalType":"bytes1"},{"name":"name","type":"string","internalType":"string"},{"name":"version","type":"string","internalType":"string"},{"name":"chainId","type":"uint256","internalType":"uint256"},{"name":"verifyingContract","type":"address","internalType":"address"},{"name":"salt","type":"bytes32","internalType":"bytes32"},{"name":"extensions","type":"uint256[]","internalType":"uint256[]"}],"stateMutability":"view"},{"type":"function","name":"execute","inputs":[{"name":"targets","type":"address[]","internalType":"address[]"},{"name":"values","type":"uint256[]","internalType":"uint256[]"},{"name":"calldatas","type":"bytes[]","internalType":"bytes[]"},{"name":"descriptionHash","type":"bytes32","internalType":"bytes32"}],"outputs":[{"name":"","type":"uint256","internalType":"uint256"}],"stateMutability":"payable"},{"type":"function","name":"execute","inputs":[{"name":"proposalId","type":"uint256","internalType":"uint256"}],"outputs":[],"stateMutability":"payable"},{"type":"function","name":"getActions","inputs":[{"name":"proposalId","type":"uint256","internalType":"uint256"}],"outputs":[{"name":"targets","type":"address[]","internalType":"address[]"},{"name":"values","type":"uint256[]","internalType":"uint256[]"},{"name":"signatures","type":"string[]","internalType":"string[]"},{"name":"calldatas","type":"bytes[]","internalType":"bytes[]"}],"stateMutability":"view"},{"type":"function","name":"getReceipt","inputs":[{"name":"proposalId","type":"uint256","internalType":"uint256"},{"name":"voter","type":"address","internalType":"address"}],"outputs":[{"name":"","type":"tuple","internalType":"struct IGovernorCompatibilityBravo.Receipt","components":[{"name":"hasVoted","type":"bool","internalType":"bool"},{"name":"support","type":"uint8","internalType":"uint8"},{"name":"votes","type":"uint96","internalType":"uint96"}]}],"stateMutability":"view"},{"type":"function","name":"getVotes","inputs":[{"name":"account","type":"address","internalType":"address"},{"name":"timepoint","type":"uint256","internalType":"uint256"}],"outputs":[{"name":"","type":"uint256","internalType":"uint256"}],"stateMutability":"view"},{"type":"function","name":"getVotesWithParams","inputs":[{"name":"account","type":"address","internalType":"address"},{"name":"timepoint","type":"uint256","internalType":"uint256"},{"name":"params","type":"bytes","internalType":"bytes"}],"outputs":[{"name":"","type":"uint256","internalType":"uint256"}],"stateMutability":"view"},{"type":"function","name":"hasVoted","inputs":[{"name":"proposalId","type":"uint256","internalType":"uint256"},{"name":"account","type":"address","internalType":"address"}],"outputs":[{"name":"","type":"bool","internalType":"bool"}],"stateMutability":"view"},{"type":"function","name":"hashProposal","inputs":[{"name":"targets","type":"address[]","internalType":"address[]"},{"name":"values","type":"uint256[]","internalType":"uint256[]"},{"name":"calldatas","type":"bytes[]","internalType":"bytes[]"},{"name":"descriptionHash","type":"bytes32","internalType":"bytes32"}],"outputs":[{"name":"","type":"uint256","internalType":"uint256"}],"stateMutability":"pure"},{"type":"function","name":"name","inputs":[],"outputs":[{"name":"","type":"string","internalType":"string"}],"stateMutability":"view"},{"type":"function","name":"onERC1155BatchReceived","inputs":[{"name":"","type":"address","internalType":"address"},{"name":"","type":"address","internalType":"address"},{"name":"","type":"uint256[]","internalType":"uint256[]"},{"name":"","type":"uint256[]","internalType":"uint256[]"},{"name":"","type":"bytes","internalType":"bytes"}],"outputs":[{"name":"","type":"bytes4","internalType":"bytes4"}],"stateMutability":"nonpayable"},{"type":"function","name":"onERC1155Received","inputs":[{"name":"","type":"address","internalType":"address"},{"name":"","type":"address","internalType":"address"},{"name":"","type":"uint256","internalType":"uint256"},{"name":"","type":"uint256","internalType":"uint256"},{"name":"","type":"bytes","internalType":"bytes"}],"outputs":[{"name":"","type":"bytes4","internalType":"bytes4"}],"stateMutability":"nonpayable"},{"type":"function","name":"onERC721Received","inputs":[{"name":"","type":"address","internalType":"address"},{"name":"","type":"address","internalType":"address"},{"name":"","type":"uint256","internalType":"uint256"},{"name":"","type":"bytes","internalType":"bytes"}],"outputs":[{"name":"","type":"bytes4","internalType":"bytes4"}],"stateMutability":"nonpayable"},{"type":"function","name":"proposalDeadline","inputs":[{"name":"proposalId","type":"uint256","internalType":"uint256"}],"outputs":[{"name":"","type":"uint256","internalType":"uint256"}],"stateMutability":"view"},{"type":"function","name":"proposalEta","inputs":[{"name":"proposalId","type":"uint256","internalType":"uint256"}],"outputs":[{"name":"","type":"uint256","internalType":"uint256"}],"stateMutability":"view"},{"type":"function","name":"proposalProposer","inputs":[{"name":"proposalId","type":"uint256","internalType":"uint256"}],"outputs":[{"name":"","type":"address","internalType":"address"}],"stateMutability":"view"},{"type":"function","name":"proposalSnapshot","inputs":[{"name":"proposalId","type":"uint256","internalType":"uint256"}],"outputs":[{"name":"","type":"uint256","internalType":"uint256"}],"stateMutability":"view"},{"type":"function","name":"proposalThreshold","inputs":[],"outputs":[{"name":"","type":"uint256","internalType":"uint256"}],"stateMutability":"pure"},{"type":"function","name":"proposals","inputs":[{"name":"proposalId","type":"uint256","internalType":"uint256"}],"outputs":[{"name":"id","type":"uint256","internalType":"uint256"},{"name":"proposer","type":"address","internalType":"address"},{"name":"eta","type":"uint256","internalType":"uint256"},{"name":"startBlock","type":"uint256","internalType":"uint256"},{"name":"endBlock","type":"uint256","internalType":"uint256"},{"name":"forVotes","type":"uint256","internalType":"uint256"},{"name":"againstVotes","type":"uint256","internalType":"uint256"},{"name":"abstainVotes","type":"uint256","internalType":"uint256"},{"name":"canceled","type":"bool","internalType":"bool"},{"name":"executed","type":"bool","internalType":"bool"}],"stateMutability":"view"},{"type":"function","name":"propose","inputs":[{"name":"targets","type":"address[]","internalType":"address[]"},{"name":"values","type":"uint256[]","internalType":"uint256[]"},{"name":"calldatas","type":"bytes[]","internalType":"bytes[]"},{"name":"description","type":"string","internalType":"string"}],"outputs":[{"name":"","type":"uint256","internalType":"uint256"}],"stateMutability":"nonpayable"},{"type":"function","name":"propose","inputs":[{"name":"targets","type":"address[]","internalType":"address[]"},{"name":"values","type":"uint256[]","internalType":"uint256[]"},{"name":"signatures","type":"string[]","internalType":"string[]"},{"name":"calldatas","type":"bytes[]","internalType":"bytes[]"},{"name":"description","type":"string","internalType":"string"}],"outputs":[{"name":"","type":"uint256","internalType":"uint256"}],"stateMutability":"nonpayable"},{"type":"function","name":"queue","inputs":[{"name":"targets","type":"address[]","internalType":"address[]"},{"name":"values","type":"uint256[]","internalType":"uint256[]"},{"name":"calldatas","type":"bytes[]","internalType":"bytes[]"},{"name":"descriptionHash","type":"bytes32","internalType":"bytes32"}],"outputs":[{"name":"","type":"uint256","internalType":"uint256"}],"stateMutability":"nonpayable"},{"type":"function","name":"queue","inputs":[{"name":"proposalId","type":"uint256","internalType":"uint256"}],"outputs":[],"stateMutability":"nonpayable"},{"type":"function","name":"quorum","inputs":[{"name":"timepoint","type":"uint256","internalType":"uint256"}],"outputs":[{"name":"","type":"uint256","internalType":"uint256"}],"stateMutability":"view"},{"type":"function","name":"quorumDenominator","inputs":[],"outputs":[{"name":"","type":"uint256","internalType":"uint256"}],"stateMutability":"view"},{"type":"function","name":"quorumNumerator","inputs":[{"name":"timepoint","type":"uint256","internalType":"uint256"}],"outputs":[{"name":"","type":"uint256","internalType":"uint256"}],"stateMutability":"view"},{"type":"function","name":"quorumNumerator","inputs":[],"outputs":[{"name":"","type":"uint256","internalType":"uint256"}],"stateMutability":"view"},{"type":"function","name":"quorumVotes","inputs":[],"outputs":[{"name":"","type":"uint256","internalType":"uint256"}],"stateMutability":"view"},{"type":"function","name":"relay","inputs":[{"name":"target","type":"address","internalType":"address"},{"name":"value","type":"uint256","internalType":"uint256"},{"name":"data","type":"bytes","internalType":"bytes"}],"outputs":[],"stateMutability":"payable"},{"type":"function","name":"state","inputs":[{"name":"proposalId","type":"uint256","internalType":"uint256"}],"outputs":[{"name":"","type":"uint8","internalType":"enum IGovernor.ProposalState"}],"stateMutability":"view"},{"type":"function","name":"supportsInterface","inputs":[{"name":"interfaceId","type":"bytes4","internalType":"bytes4"}],"outputs":[{"name":"","type":"bool","internalType":"bool"}],"stateMutability":"view"},{"type":"function","name":"timelock","inputs":[],"outputs":[{"name":"","type":"address","internalType":"address"}],"stateMutability":"view"},{"type":"function","name":"token","inputs":[],"outputs":[{"name":"","type":"address","internalType":"contract IERC5805"}],"stateMutability":"view"},{"type":"function","name":"updateQuorumNumerator","inputs":[{"name":"newQuorumNumerator","type":"uint256","internalType":"uint256"}],"outputs":[],"stateMutability":"nonpayable"},{"type":"function","name":"updateTimelock","inputs":[{"name":"newTimelock","type":"address","internalType":"contract TimelockController"}],"outputs":[],"stateMutability":"nonpayable"},{"type":"function","name":"version","inputs":[],"outputs":[{"name":"","type":"string","internalType":"string"}],"stateMutability":"view"},{"type":"function","name":"votingDelay","inputs":[],"outputs":[{"name":"","type":"uint256","internalType":"uint256"}],"stateMutability":"pure"},{"type":"function","name":"votingPeriod","inputs":[],"outputs":[{"name":"","type":"uint256","internalType":"uint256"}],"stateMutability":"pure"},{"type":"event","name":"EIP712DomainChanged","inputs":[],"anonymous":false},{"type":"event","name":"ProposalCanceled","inputs":[{"name":"proposalId","type":"uint256","indexed":false,"internalType":"uint256"}],"anonymous":false},{"type":"event","name":"ProposalCreated","inputs":[{"name":"proposalId","type":"uint256","indexed":false,"internalType":"uint256"},{"name":"proposer","type":"address","indexed":false,"internalType":"address"},{"name":"targets","type":"address[]","indexed":false,"internalType":"address[]"},{"name":"values","type":"uint256[]","indexed":false,"internalType":"uint256[]"},{"name":"signatures","type":"string[]","indexed":false,"internalType":"string[]"},{"name":"calldatas","type":"bytes[]","indexed":false,"internalType":"bytes[]"},{"name":"voteStart","type":"uint256","indexed":false,"internalType":"uint256"},{"name":"voteEnd","type":"uint256","indexed":false,"internalType":"uint256"},{"name":"description","type":"string","indexed":false,"internalType":"string"}],"anonymous":false},{"type":"event","name":"ProposalExecuted","inputs":[{"name":"proposalId","type":"uint256","indexed":false,"internalType":"uint256"}],"anonymous":false},{"type":"event","name":"ProposalQueued","inputs":[{"name":"proposalId","type":"uint256","indexed":false,"internalType":"uint256"},{"name":"eta","type":"uint256","indexed":false,"internalType":"uint256"}],"anonymous":false},{"type":"event","name":"QuorumNumeratorUpdated","inputs":[{"name":"oldQuorumNumerator","type":"uint256","indexed":false,"internalType":"uint256"},{"name":"newQuorumNumerator","type":"uint256","indexed":false,"internalType":"uint256"}],"anonymous":false},{"type":"event","name":"TimelockChange","inputs":[{"name":"oldTimelock","type":"address","indexed":false,"internalType":"address"},{"name":"newTimelock","type":"address","indexed":false,"internalType":"address"}],"anonymous":false},{"type":"event","name":"VoteCast","inputs":[{"name":"voter","type":"address","indexed":true,"internalType":"address"},{"name":"proposalId","type":"uint256","indexed":false,"internalType":"uint256"},{"name":"support","type":"uint8","indexed":false,"internalType":"uint8"},{"name":"weight","type":"uint256","indexed":false,"internalType":"uint256"},{"name":"reason","type":"string","indexed":false,"internalType":"string"}],"anonymous":false},{"type":"event","name":"VoteCastWithParams","inputs":[{"name":"voter","type":"address","indexed":true,"internalType":"address"},{"name":"proposalId","type":"uint256","indexed":false,"internalType":"uint256"},{"name":"support","type":"uint8","indexed":false,"internalType":"uint8"},{"name":"weight","type":"uint256","indexed":false,"internalType":"uint256"},{"name":"reason","type":"string","indexed":false,"internalType":"string"},{"name":"params","type":"bytes","indexed":false,"internalType":"bytes"}],"anonymous":false},{"type":"error","name":"Empty","inputs":[]},{"type":"error","name":"InvalidShortString","inputs":[]},{"type":"error","name":"StringTooLong","inputs":[{"name":"str","type":"string","internalType":"string"}]}],"bytecode":{"object":"0x6101806040523480156200001257600080fd5b5060405162005e6838038062005e68833981016040819052620000359162000922565b806004836040518060400160405280600a81526020016926bca3b7bb32b93737b960b11b815250806200006d6200018060201b60201c565b620000886000836200019b60201b62001c9f1790919060201c565b61012052620000a58160016200019b602090811b62001c9f17901c565b61014052815160208084019190912060e052815190820120610100524660a0526200013360e05161010051604080517f8b73c3c69bb8fe3d512ecc4cf759cc79239f7b179b0ffacaa9a75d522b39400f60208201529081019290925260608201524660808201523060a082015260009060c00160405160208183030381529060405280519060200120905090565b60805250503060c0528051620001519060029060208401906200086d565b50506001600160a01b0316610160526200016b81620001ef565b506200017781620003a8565b50505062000a67565b6040805180820190915260018152603160f81b602082015290565b6000602083511015620001bb57620001b38362000411565b9050620001e9565b82620001d2836200045460201b62001cd61760201c565b8151620001e392602001906200086d565b5060ff90505b92915050565b6064811115620002785760405162461bcd60e51b815260206004820152604360248201527f476f7665726e6f72566f74657351756f72756d4672616374696f6e3a2071756f60448201527f72756d4e756d657261746f72206f7665722071756f72756d44656e6f6d696e616064820152623a37b960e91b608482015260a4015b60405180910390fd5b60006200028462000457565b90508015801590620002965750600854155b15620003115760086000016040518060400160405280600063ffffffff168152602001620002cf846200049160201b62001cd91760201c565b6001600160e01b0390811690915282546001810184556000938452602093849020835194909301519091166401000000000263ffffffff909316929092179101555b620003696200033c6200032362000500565b65ffffffffffff166200058260201b62001d461760201c565b62000352846200049160201b62001cd91760201c565b6008620005e960201b62001dab179092919060201c565b505060408051828152602081018490527f0553476bf02ef2726e8ce5ced78d63e26e602e4a2257b1f559418e24b4633997910160405180910390a15050565b600954604080516001600160a01b03928316815291831660208301527f08f74ea46ef7894f65eabfb5e6e695de773a000b47c529ab559178069b226401910160405180910390a1600980546001600160a01b0319166001600160a01b0392909216919091179055565b600080829050601f815111156200043f578260405163305a27a960e01b81526004016200026f919062000961565b80516200044c82620009b9565b179392505050565b90565b6008546000901562000488576200047a60086200060660201b62001dc61760201c565b6001600160e01b0316905090565b6007545b905090565b60006001600160e01b03821115620004fc5760405162461bcd60e51b815260206004820152602760248201527f53616665436173743a2076616c756520646f65736e27742066697420696e20326044820152663234206269747360c81b60648201526084016200026f565b5090565b6000610160516001600160a01b03166391ddadf46040518163ffffffff1660e01b8152600401602060405180830381865afa92505050801562000562575060408051601f3d908101601f191682019092526200055f91810190620009e1565b60015b6200057d576200048c436200065460201b62001e041760201c565b919050565b600063ffffffff821115620004fc5760405162461bcd60e51b815260206004820152602660248201527f53616665436173743a2076616c756520646f65736e27742066697420696e203360448201526532206269747360d01b60648201526084016200026f565b600080620005f9858585620006bd565b915091505b935093915050565b805460009080156200064a5762000632836200062460018462000a0b565b600091825260209091200190565b5464010000000090046001600160e01b03166200064d565b60005b9392505050565b600065ffffffffffff821115620004fc5760405162461bcd60e51b815260206004820152602660248201527f53616665436173743a2076616c756520646f65736e27742066697420696e203460448201526538206269747360d01b60648201526084016200026f565b82546000908190801562000812576000620006df876200062460018562000a0b565b60408051808201909152905463ffffffff8082168084526401000000009092046001600160e01b031660208401529192509087161015620007635760405162461bcd60e51b815260206004820152601b60248201527f436865636b706f696e743a2064656372656173696e67206b657973000000000060448201526064016200026f565b805163ffffffff808816911603620007b1578462000788886200062460018662000a0b565b80546001600160e01b03929092166401000000000263ffffffff90921691909117905562000801565b6040805180820190915263ffffffff80881682526001600160e01b0380881660208085019182528b54600181018d5560008d81529190912094519151909216640100000000029216919091179101555b602001519250839150620005fe9050565b50506040805180820190915263ffffffff80851682526001600160e01b0380851660208085019182528854600181018a5560008a815291822095519251909316640100000000029190931617920191909155905081620005fe565b8280546200087b9062000a31565b90600052602060002090601f0160209004810192826200089f5760008555620008ea565b82601f10620008ba57805160ff1916838001178555620008ea565b82800160010185558215620008ea579182015b82811115620008ea578251825591602001919060010190620008cd565b50620004fc9291505b80821115620004fc5760008155600101620008f3565b6001600160a01b03811681146200091f57600080fd5b50565b600080604083850312156200093657600080fd5b8251620009438162000909565b6020840151909250620009568162000909565b809150509250929050565b600060208083528351808285015260005b81811015620009905785810183015185820160400152820162000972565b81811115620009a3576000604083870101525b50601f01601f1916929092016040019392505050565b80516020808301519190811015620009db576000198160200360031b1b821691505b50919050565b600060208284031215620009f457600080fd5b815165ffffffffffff811681146200064d57600080fd5b60008282101562000a2c57634e487b7160e01b600052601160045260246000fd5b500390565b600181811c9082168062000a4657607f821691505b602082108103620009db57634e487b7160e01b600052602260045260246000fd5b60805160a05160c05160e0516101005161012051610140516101605161537f62000ae960003960008181610b5801528181611509015281816117d701528181611bf5015261299e015260006117830152600061175901526000612fcf01526000612fa701526000612f0201526000612f2c01526000612f56015261537f6000f3fe6080604052600436106102cd5760003560e01c80637b3c71d311610175578063c28bc2fa116100dc578063deaaa7cc11610095578063f23a6e611161006f578063f23a6e6114610afa578063f8ce560a14610b26578063fc0c546a14610b46578063fe0d94c114610b7a57600080fd5b8063deaaa7cc146109dc578063e23a9a5214610a10578063eb9019d414610ada57600080fd5b8063c28bc2fa14610905578063c59057e414610918578063d33219b414610938578063da95691a14610956578063dd4e2ba514610976578063ddf0b009146109bc57600080fd5b8063a7713a701161012e578063a7713a7014610837578063a890c9101461084c578063ab58fb8e1461086c578063b58131b01461088c578063bc197c81146108a0578063c01f9e37146108cc57600080fd5b80637b3c71d31461076f5780637d5e81e21461078f57806384b0196e146107af57806391ddadf4146107d757806397c3d334146108035780639a802a6d1461081757600080fd5b80632fe3e2611161023457806343859632116101ed57806354fd4d50116101c757806354fd4d50146106e5578063567813881461070f5780635f398a141461072f57806360c4247f1461074f57600080fd5b80634385963214610666578063452115d6146106b05780634bf5d7e9146106d057600080fd5b80632fe3e26114610580578063328dd982146105b45780633932abb1146105e45780633bccf4fd146105f95780633e4f49e61461061957806340e58ee51461064657600080fd5b8063143489d011610286578063143489d014610469578063150b7a02146104be578063160cbed71461050257806324bc1a64146105225780632656227d146105375780632d63f6931461054a57600080fd5b8063013cf08b1461033d57806301ffc9a7146103b857806302a251a3146103e8578063034201811461040757806306f3f9e61461042757806306fdde031461044757600080fd5b3661033857306102db610b8d565b6001600160a01b0316146103365760405162461bcd60e51b815260206004820152601f60248201527f476f7665726e6f723a206d7573742073656e6420746f206578656375746f720060448201526064015b60405180910390fd5b005b600080fd5b34801561034957600080fd5b5061035d6103583660046142c2565b610ba6565b604080519a8b526001600160a01b0390991660208b0152978901969096526060880194909452608087019290925260a086015260c085015260e084015215156101008301521515610120820152610140015b60405180910390f35b3480156103c457600080fd5b506103d86103d33660046142db565b610c73565b60405190151581526020016103af565b3480156103f457600080fd5b5061c4e05b6040519081526020016103af565b34801561041357600080fd5b506103f9610422366004614421565b610c84565b34801561043357600080fd5b506103366104423660046142c2565b610d7c565b34801561045357600080fd5b5061045c610e06565b6040516103af9190614523565b34801561047557600080fd5b506104a66104843660046142c2565b600090815260036020526040902054600160401b90046001600160a01b031690565b6040516001600160a01b0390911681526020016103af565b3480156104ca57600080fd5b506104e96104d936600461454b565b630a85bd0160e11b949350505050565b6040516001600160e01b031990911681526020016103af565b34801561050e57600080fd5b506103f961051d366004614722565b610e98565b34801561052e57600080fd5b506103f9611099565b6103f9610545366004614722565b6110bf565b34801561055657600080fd5b506103f96105653660046142c2565b6000908152600360205260409020546001600160401b031690565b34801561058c57600080fd5b506103f97fb3b3f3b703cd84ce352197dcff232b1b5d3cfb2025ce47cf04742d0651f1af8881565b3480156105c057600080fd5b506105d46105cf3660046142c2565b6111b1565b6040516103af949392919061487d565b3480156105f057600080fd5b50611c206103f9565b34801561060557600080fd5b506103f96106143660046148ca565b611442565b34801561062557600080fd5b506106396106343660046142c2565b6114b8565b6040516103af919061492e565b34801561065257600080fd5b506103366106613660046142c2565b6114c3565b34801561067257600080fd5b506103d8610681366004614956565b60008281526006602090815260408083206001600160a01b038516845260080190915290205460ff1692915050565b3480156106bc57600080fd5b506103f96106cb366004614722565b6114ee565b3480156106dc57600080fd5b5061045c611505565b3480156106f157600080fd5b506040805180820190915260018152603160f81b602082015261045c565b34801561071b57600080fd5b506103f961072a366004614986565b6115c7565b34801561073b57600080fd5b506103f961074a3660046149b2565b6115f0565b34801561075b57600080fd5b506103f961076a3660046142c2565b61163a565b34801561077b57600080fd5b506103f961078a366004614a35565b6116eb565b34801561079b57600080fd5b506103f96107aa366004614a8e565b61173d565b3480156107bb57600080fd5b506107c461174b565b6040516103af9796959493929190614b2e565b3480156107e357600080fd5b506107ec6117d3565b60405165ffffffffffff90911681526020016103af565b34801561080f57600080fd5b5060646103f9565b34801561082357600080fd5b506103f9610832366004614b90565b61185c565b34801561084357600080fd5b506103f9611873565b34801561085857600080fd5b50610336610867366004614be8565b61189d565b34801561087857600080fd5b506103f96108873660046142c2565b611924565b34801561089857600080fd5b5060006103f9565b3480156108ac57600080fd5b506104e96108bb366004614c05565b63bc197c8160e01b95945050505050565b3480156108d857600080fd5b506103f96108e73660046142c2565b6000908152600360205260409020600101546001600160401b031690565b610336610913366004614c98565b6119be565b34801561092457600080fd5b506103f9610933366004614722565b611acd565b34801561094457600080fd5b506009546001600160a01b03166104a6565b34801561096257600080fd5b506103f9610971366004614cdb565b611b07565b34801561098257600080fd5b5060408051808201909152601a81527f737570706f72743d627261766f2671756f72756d3d627261766f000000000000602082015261045c565b3480156109c857600080fd5b506103366109d73660046142c2565b611b8e565b3480156109e857600080fd5b506103f97f150214d74d59b7d1e90c73fc22ef3d991dd0a76b046543d4d80ab92d2a50328f81565b348015610a1c57600080fd5b50610aaa610a2b366004614956565b60408051606081018252600080825260208201819052918101919091525060009182526006602090815260408084206001600160a01b0393909316845260089092018152918190208151606081018352905460ff8082161515835261010082041693820193909352620100009092046001600160601b03169082015290565b6040805182511515815260208084015160ff1690820152918101516001600160601b0316908201526060016103af565b348015610ae657600080fd5b506103f9610af5366004614d7c565b611bb1565b348015610b0657600080fd5b506104e9610b15366004614da8565b63f23a6e6160e01b95945050505050565b348015610b3257600080fd5b506103f9610b413660046142c2565b611bd2565b348015610b5257600080fd5b506104a67f000000000000000000000000000000000000000000000000000000000000000081565b610336610b883660046142c2565b611c7c565b6000610ba16009546001600160a01b031690565b905090565b8060008080808080808080610bba8a611924565b60008c8152600360205260409020549098506001600160401b031660008c8152600360205260409020600101549097506001600160401b031660008c81526006602081905260408220805460058201549282015460078301546001600160a01b039092169e50949a509198509296509450610c348d6114b8565b90506002816007811115610c4a57610c4a614918565b1493506007816007811115610c6157610c61614918565b14925050509193959799509193959799565b6000610c7e82611e6b565b92915050565b600080610d28610d207fb3b3f3b703cd84ce352197dcff232b1b5d3cfb2025ce47cf04742d0651f1af888c8c8c8c604051610cc0929190614e10565b60405180910390208b80519060200120604051602001610d05959493929190948552602085019390935260ff9190911660408401526060830152608082015260a00190565b60405160208183030381529060405280519060200120611e90565b868686611ebd565b9050610d6e8a828b8b8b8080601f0160208091040260200160405190810160405280939291908181526020018383808284376000920191909152508d9250611edb915050565b9a9950505050505050505050565b610d84610b8d565b6001600160a01b0316336001600160a01b031614610db45760405162461bcd60e51b815260040161032d90614e20565b30610dbd610b8d565b6001600160a01b031614610dfa5760008036604051610ddd929190614e10565b604051809103902090505b80610df36004612030565b03610de857505b610e03816120af565b50565b606060028054610e1590614e57565b80601f0160208091040260200160405190810160405280929190818152602001828054610e4190614e57565b8015610e8e5780601f10610e6357610100808354040283529160200191610e8e565b820191906000526020600020905b815481529060010190602001808311610e7157829003601f168201915b5050505050905090565b600080610ea786868686611acd565b90506004610eb4826114b8565b6007811115610ec557610ec5614918565b14610ee25760405162461bcd60e51b815260040161032d90614e91565b6009546040805163793d064960e11b815290516000926001600160a01b03169163f27a0c929160048083019260209291908290030181865afa158015610f2c573d6000803e3d6000fd5b505050506040513d601f19601f82011682018060405250810190610f509190614ed2565b60095460405163b1c5f42760e01b81529192506001600160a01b03169063b1c5f42790610f8a908a908a908a906000908b90600401614eeb565b602060405180830381865afa158015610fa7573d6000803e3d6000fd5b505050506040513d601f19601f82011682018060405250810190610fcb9190614ed2565b6000838152600a60205260408082209290925560095491516308f2a0bb60e41b81526001600160a01b0390921691638f2a0bb091611016918b918b918b91908b908990600401614f39565b600060405180830381600087803b15801561103057600080fd5b505af1158015611044573d6000803e3d6000fd5b505050507f9a2e42fd6722813d69113e7d0079d3d940171428df7373df9c7f7617cfda28928282426110769190614fa7565b604080519283526020830191909152015b60405180910390a15095945050505050565b6000610ba160016110a86117d3565b6110b29190614fbf565b65ffffffffffff16611bd2565b6000806110ce86868686611acd565b905060006110db826114b8565b905060048160078111156110f1576110f1614918565b148061110e5750600581600781111561110c5761110c614918565b145b61112a5760405162461bcd60e51b815260040161032d90614e91565b60008281526003602052604090819020600201805460ff19166001179055517f712ae1383f79ac853f8d882153778e0260ef8f03b504e2866e0593e04d2b291f906111789084815260200190565b60405180910390a161118d828888888861221d565b61119a82888888886122bd565b6111a782888888886122ca565b5095945050505050565b6060806060806000600660008781526020019081526020016000209050806001018160020182600301836004018380548060200260200160405190810160405280929190818152602001828054801561123357602002820191906000526020600020905b81546001600160a01b03168152600190910190602001808311611215575b505050505093508280548060200260200160405190810160405280929190818152602001828054801561128557602002820191906000526020600020905b815481526020019060010190808311611271575b5050505050925081805480602002602001604051908101604052809291908181526020016000905b828210156113595783829060005260206000200180546112cc90614e57565b80601f01602080910402602001604051908101604052809291908181526020018280546112f890614e57565b80156113455780601f1061131a57610100808354040283529160200191611345565b820191906000526020600020905b81548152906001019060200180831161132857829003601f168201915b5050505050815260200190600101906112ad565b50505050915080805480602002602001604051908101604052809291908181526020016000905b8282101561142c57838290600052602060002001805461139f90614e57565b80601f01602080910402602001604051908101604052809291908181526020018280546113cb90614e57565b80156114185780601f106113ed57610100808354040283529160200191611418565b820191906000526020600020905b8154815290600101906020018083116113fb57829003601f168201915b505050505081526020019060010190611380565b5050505090509450945094509450509193509193565b604080517f150214d74d59b7d1e90c73fc22ef3d991dd0a76b046543d4d80ab92d2a50328f602082015290810186905260ff85166060820152600090819061149090610d2090608001610d05565b90506114ad87828860405180602001604052806000815250612303565b979650505050505050565b6000610c7e82612326565b6000806000806114d285612470565b93509350935093506114e6848484846114ee565b505050505050565b60006114fc85858585612700565b95945050505050565b60607f00000000000000000000000000000000000000000000000000000000000000006001600160a01b0316634bf5d7e96040518163ffffffff1660e01b8152600401600060405180830381865afa92505050801561158657506040513d6000823e601f3d908101601f191682016040526115839190810190614fe6565b60015b6115c2575060408051808201909152601d81527f6d6f64653d626c6f636b6e756d6265722666726f6d3d64656661756c74000000602082015290565b919050565b6000803390506115e884828560405180602001604052806000815250612303565b949350505050565b6000803390506114ad87828888888080601f0160208091040260200160405190810160405280939291908181526020018383808284376000920191909152508a9250611edb915050565b600854600090808203611651575050600754919050565b60006008611660600184615053565b815481106116705761167061506a565b60009182526020918290206040805180820190915291015463ffffffff8116808352600160201b9091046001600160e01b031692820192909252915084106116c657602001516001600160e01b03169392505050565b6116da6116d285611d46565b6008906127c4565b6001600160e01b0316949350505050565b60008033905061173386828787878080601f01602080910402602001604051908101604052809392919081815260200183838082843760009201919091525061230392505050565b9695505050505050565b60006114fc85858585612869565b60006060808280808361177e7f0000000000000000000000000000000000000000000000000000000000000000836128d1565b6117a97f000000000000000000000000000000000000000000000000000000000000000060016128d1565b60408051600080825260208201909252600f60f81b9b939a50919850469750309650945092509050565b60007f00000000000000000000000000000000000000000000000000000000000000006001600160a01b03166391ddadf46040518163ffffffff1660e01b8152600401602060405180830381865afa92505050801561184f575060408051601f3d908101601f1916820190925261184c91810190615080565b60015b6115c257610ba143611e04565b6000611869848484612975565b90505b9392505050565b60085460009015611896576118886008611dc6565b6001600160e01b0316905090565b5060075490565b6118a5610b8d565b6001600160a01b0316336001600160a01b0316146118d55760405162461bcd60e51b815260040161032d90614e20565b306118de610b8d565b6001600160a01b03161461191b57600080366040516118fe929190614e10565b604051809103902090505b806119146004612030565b0361190957505b610e0381612a0b565b6009546000828152600a602052604080822054905163d45c443560e01b81526004810191909152909182916001600160a01b039091169063d45c443590602401602060405180830381865afa158015611981573d6000803e3d6000fd5b505050506040513d601f19601f820116820180604052508101906119a59190614ed2565b9050806001146119b5578061186c565b60009392505050565b6119c6610b8d565b6001600160a01b0316336001600160a01b0316146119f65760405162461bcd60e51b815260040161032d90614e20565b306119ff610b8d565b6001600160a01b031614611a3c5760008036604051611a1f929190614e10565b604051809103902090505b80611a356004612030565b03611a2a57505b600080856001600160a01b0316858585604051611a5a929190614e10565b60006040518083038185875af1925050503d8060008114611a97576040519150601f19603f3d011682016040523d82523d6000602084013e611a9c565b606091505b5091509150611ac4828260405180606001604052806028815260200161532260289139612a74565b50505050505050565b600084848484604051602001611ae694939291906150a8565b60408051601f19818403018152919052805160209091012095945050505050565b60008251845114611b6b5760405162461bcd60e51b815260206004820152602860248201527f476f7665726e6f72427261766f3a20696e76616c6964207369676e61747572656044820152670e640d8cadccee8d60c31b606482015260840161032d565b611b79338787878787612a8d565b6117338686611b888787612b4a565b8561173d565b600080600080611b9d85612470565b93509350935093506114e684848484610e98565b600061186c8383611bcd60408051602081019091526000815290565b612975565b60006064611bdf8361163a565b604051632394e7a360e21b8152600481018590527f00000000000000000000000000000000000000000000000000000000000000006001600160a01b031690638e539e8c90602401602060405180830381865afa158015611c44573d6000803e3d6000fd5b505050506040513d601f19601f82011682018060405250810190611c689190614ed2565b611c7291906150f3565b610c7e9190615128565b600080600080611c8b85612470565b93509350935093506114e6848484846110bf565b6000602083511015611cbb57611cb483612c7c565b9050610c7e565b82828151611ccc9260200190614078565b5060ff9050610c7e565b90565b60006001600160e01b03821115611d425760405162461bcd60e51b815260206004820152602760248201527f53616665436173743a2076616c756520646f65736e27742066697420696e20326044820152663234206269747360c81b606482015260840161032d565b5090565b600063ffffffff821115611d425760405162461bcd60e51b815260206004820152602660248201527f53616665436173743a2076616c756520646f65736e27742066697420696e203360448201526532206269747360d01b606482015260840161032d565b600080611db9858585612cba565b915091505b935093915050565b805460009080156119b557611dee83611de0600184615053565b600091825260209091200190565b54600160201b90046001600160e01b031661186c565b600065ffffffffffff821115611d425760405162461bcd60e51b815260206004820152602660248201527f53616665436173743a2076616c756520646f65736e27742066697420696e203460448201526538206269747360d01b606482015260840161032d565b60006001600160e01b03198216636e665ced60e01b1480610c7e5750610c7e82612e59565b6000610c7e611e9d612ef5565b8360405161190160f01b8152600281019290925260228201526042902090565b6000806000611ece87878787613020565b915091506111a7816130e4565b60008581526003602052604081206001611ef4886114b8565b6007811115611f0557611f05614918565b14611f5e5760405162461bcd60e51b815260206004820152602360248201527f476f7665726e6f723a20766f7465206e6f742063757272656e746c792061637460448201526269766560e81b606482015260840161032d565b8054600090611f789088906001600160401b031686612975565b9050611f87888888848861322e565b8351600003611fdc57866001600160a01b03167fb8e138887d0aa13bab447e82de9d5c1777041ecd21ca36ba824ff1e6c07ddda489888489604051611fcf949392919061514a565b60405180910390a26114ad565b866001600160a01b03167fe2babfbac5889a709b63bb7f598b324e08bc5a4fb9ec647fb3cbc9ec07eb8712898884898960405161201d959493929190615172565b60405180910390a2979650505050505050565b600061204b8254600f81810b600160801b909204900b131590565b1561206957604051631ed9509560e11b815260040160405180910390fd5b508054600f0b6000818152600180840160205260408220805492905583546fffffffffffffffffffffffffffffffff191692016001600160801b03169190911790915590565b60648111156121325760405162461bcd60e51b815260206004820152604360248201527f476f7665726e6f72566f74657351756f72756d4672616374696f6e3a2071756f60448201527f72756d4e756d657261746f72206f7665722071756f72756d44656e6f6d696e616064820152623a37b960e91b608482015260a40161032d565b600061213c611873565b9050801580159061214d5750600854155b156121b15760408051808201909152600081526008906020810161217084611cd9565b6001600160e01b039081169091528254600181018455600093845260209384902083519490930151909116600160201b0263ffffffff909316929092179101555b6121de6121cc6121bf6117d3565b65ffffffffffff16611d46565b6121d584611cd9565b60089190611dab565b505060408051828152602081018490527f0553476bf02ef2726e8ce5ced78d63e26e602e4a2257b1f559418e24b4633997910160405180910390a15050565b30612226610b8d565b6001600160a01b0316146122b65760005b84518110156114e657306001600160a01b031685828151811061225c5761225c61506a565b60200260200101516001600160a01b0316036122a6576122a68382815181106122875761228761506a565b60200260200101518051906020012060046133cb90919063ffffffff16565b6122af816151b8565b9050612237565b5050505050565b6122b68585858585613407565b306122d3610b8d565b6001600160a01b0316146122b657600454600f81810b600160801b909204900b13156122b65760006004556122b6565b60006114fc8585858561232160408051602081019091526000815290565b611edb565b6000806123328361347b565b9050600481600781111561234857612348614918565b146123535792915050565b6000838152600a60205260409020548061236e575092915050565b600954604051632ab0f52960e01b8152600481018390526001600160a01b0390911690632ab0f52990602401602060405180830381865afa1580156123b7573d6000803e3d6000fd5b505050506040513d601f19601f820116820180604052508101906123db91906151d1565b156123ea575060079392505050565b600954604051632c258a9f60e11b8152600481018390526001600160a01b039091169063584b153e90602401602060405180830381865afa158015612433573d6000803e3d6000fd5b505050506040513d601f19601f8201168201806040525081019061245791906151d1565b15612466575060059392505050565b5060029392505050565b6060806060600080600660008781526020019081526020016000209050806001018160020161264183600301805480602002602001604051908101604052809291908181526020016000905b828210156125685783829060005260206000200180546124db90614e57565b80601f016020809104026020016040519081016040528092919081815260200182805461250790614e57565b80156125545780601f1061252957610100808354040283529160200191612554565b820191906000526020600020905b81548152906001019060200180831161253757829003601f168201915b5050505050815260200190600101906124bc565b50505060048601805460408051602080840282018101909252828152935060009084015b828210156126385783829060005260206000200180546125ab90614e57565b80601f01602080910402602001604051908101604052809291908181526020018280546125d790614e57565b80156126245780601f106125f957610100808354040283529160200191612624565b820191906000526020600020905b81548152906001019060200180831161260757829003601f168201915b50505050508152602001906001019061258c565b50505050612b4a565b600984015483546040805160208084028201810190925282815291869183018282801561269757602002820191906000526020600020905b81546001600160a01b03168152600190910190602001808311612679575b50505050509350828054806020026020016040519081016040528092919081815260200182805480156126e957602002820191906000526020600020905b8154815260200190600101908083116126d5575b505050505092509450945094509450509193509193565b60008061270f86868686611acd565b6000818152600660205260409020549091506001600160a01b03163381148061275c5750600061275a8260016127436117d3565b61274d9190614fbf565b65ffffffffffff16611bb1565b105b6127b85760405162461bcd60e51b815260206004820152602760248201527f476f7665726e6f72427261766f3a2070726f706f7365722061626f76652074686044820152661c995cda1bdb1960ca1b606482015260840161032d565b6114ad878787876135c0565b8154600090818160058111156128215760006127df846135ce565b6127e99085615053565b60008881526020902090915081015463ffffffff90811690871610156128115780915061281f565b61281c816001614fa7565b92505b505b600061282f878785856136b6565b9050801561285c5761284687611de0600184615053565b54600160201b90046001600160e01b03166114ad565b6000979650505050505050565b60006128c533868686516001600160401b0381111561288a5761288a61435e565b6040519080825280602002602001820160405280156128bd57816020015b60608152602001906001900390816128a85790505b508787612a8d565b6114fc8585858561370c565b606060ff83146128e457611cb483613ad3565b8180546128f090614e57565b80601f016020809104026020016040519081016040528092919081815260200182805461291c90614e57565b80156129695780601f1061293e57610100808354040283529160200191612969565b820191906000526020600020905b81548152906001019060200180831161294c57829003601f168201915b50505050509050610c7e565b604051630748d63560e31b81526001600160a01b038481166004830152602482018490526000917f000000000000000000000000000000000000000000000000000000000000000090911690633a46b1a890604401602060405180830381865afa1580156129e7573d6000803e3d6000fd5b505050506040513d601f19601f820116820180604052508101906118699190614ed2565b600954604080516001600160a01b03928316815291831660208301527f08f74ea46ef7894f65eabfb5e6e695de773a000b47c529ab559178069b226401910160405180910390a1600980546001600160a01b0319166001600160a01b0392909216919091179055565b60608315612a8357508161186c565b61186c8383613b12565b805160208201206000612aab8787612aa58888612b4a565b85611acd565b6000818152600660205260409020600981015491925090612b3f5780546001600160a01b0319166001600160a01b038a161781558751612af490600183019060208b01906140f8565b508651612b0a90600283019060208a019061414d565b508551612b209060038301906020890190614187565b508451612b3690600483019060208801906141e0565b50600981018390555b505050505050505050565b6060600082516001600160401b03811115612b6757612b6761435e565b604051908082528060200260200182016040528015612b9a57816020015b6060815260200190600190039081612b855790505b50905060005b8151811015612c7457848181518110612bbb57612bbb61506a565b602002602001015151600014612c2b57848181518110612bdd57612bdd61506a565b602002602001015180519060200120848281518110612bfe57612bfe61506a565b6020026020010151604051602001612c179291906151f3565b604051602081830303815290604052612c46565b838181518110612c3d57612c3d61506a565b60200260200101515b828281518110612c5857612c5861506a565b602002602001018190525080612c6d906151b8565b9050612ba0565b509392505050565b600080829050601f81511115612ca7578260405163305a27a960e01b815260040161032d9190614523565b8051612cb282615224565b179392505050565b825460009081908015612e00576000612cd887611de0600185615053565b60408051808201909152905463ffffffff808216808452600160201b9092046001600160e01b031660208401529192509087161015612d595760405162461bcd60e51b815260206004820152601b60248201527f436865636b706f696e743a2064656372656173696e67206b6579730000000000604482015260640161032d565b805163ffffffff808816911603612da15784612d7a88611de0600186615053565b80546001600160e01b0392909216600160201b0263ffffffff909216919091179055612df0565b6040805180820190915263ffffffff80881682526001600160e01b0380881660208085019182528b54600181018d5560008d81529190912094519151909216600160201b029216919091179101555b602001519250839150611dbe9050565b50506040805180820190915263ffffffff80851682526001600160e01b0380851660208085019182528854600181018a5560008a815291822095519251909316600160201b029190931617920191909155905081611dbe565b600063288ace0360e11b6318df743f60e31b63bf26d89760e01b6379dd796f60e01b6001600160e01b03198616821480612e9f57506001600160e01b0319868116908216145b80612eb657506001600160e01b0319868116908516145b80612ed157506001600160e01b03198616630271189760e51b145b8061173357506301ffc9a760e01b6001600160e01b03198716149695505050505050565b6000306001600160a01b037f000000000000000000000000000000000000000000000000000000000000000016148015612f4e57507f000000000000000000000000000000000000000000000000000000000000000046145b15612f7857507f000000000000000000000000000000000000000000000000000000000000000090565b610ba1604080517f8b73c3c69bb8fe3d512ecc4cf759cc79239f7b179b0ffacaa9a75d522b39400f60208201527f0000000000000000000000000000000000000000000000000000000000000000918101919091527f000000000000000000000000000000000000000000000000000000000000000060608201524660808201523060a082015260009060c00160405160208183030381529060405280519060200120905090565b6000807f7fffffffffffffffffffffffffffffff5d576e7357a4501ddfe92f46681b20a083111561305757506000905060036130db565b6040805160008082526020820180845289905260ff881692820192909252606081018690526080810185905260019060a0016020604051602081039080840390855afa1580156130ab573d6000803e3d6000fd5b5050604051601f1901519150506001600160a01b0381166130d4576000600192509250506130db565b9150600090505b94509492505050565b60008160048111156130f8576130f8614918565b036131005750565b600181600481111561311457613114614918565b036131615760405162461bcd60e51b815260206004820152601860248201527f45434453413a20696e76616c6964207369676e61747572650000000000000000604482015260640161032d565b600281600481111561317557613175614918565b036131c25760405162461bcd60e51b815260206004820152601f60248201527f45434453413a20696e76616c6964207369676e6174757265206c656e67746800604482015260640161032d565b60038160048111156131d6576131d6614918565b03610e035760405162461bcd60e51b815260206004820152602260248201527f45434453413a20696e76616c6964207369676e6174757265202773272076616c604482015261756560f01b606482015260840161032d565b60008581526006602090815260408083206001600160a01b038816845260088101909252909120805460ff16156132bd5760405162461bcd60e51b815260206004820152602d60248201527f476f7665726e6f72436f6d7061746962696c697479427261766f3a20766f746560448201526c08185b1c9958591e4818d85cdd609a1b606482015260840161032d565b805460ff86166101000261ffff199091161760011781556132dd84613b3c565b81546001600160601b039190911662010000026dffffffffffffffffffffffff00001990911617815560ff851661332d57838260060160008282546133229190614fa7565b90915550611ac49050565b60001960ff86160161334d57838260050160008282546133229190614fa7565b60011960ff86160161336d57838260070160008282546133229190614fa7565b60405162461bcd60e51b815260206004820152602d60248201527f476f7665726e6f72436f6d7061746962696c697479427261766f3a20696e766160448201526c6c696420766f7465207479706560981b606482015260840161032d565b8154600160801b90819004600f0b6000818152600180860160205260409091209390935583546001600160801b03908116939091011602179055565b60095460405163e38335e560e01b81526001600160a01b039091169063e38335e5903490613442908890889088906000908990600401614eeb565b6000604051808303818588803b15801561345b57600080fd5b505af115801561346f573d6000803e3d6000fd5b50505050505050505050565b6000818152600360205260408120600281015460ff161561349f5750600792915050565b6002810154610100900460ff16156134ba5750600292915050565b6000838152600360205260408120546001600160401b0316908190036135225760405162461bcd60e51b815260206004820152601d60248201527f476f7665726e6f723a20756e6b6e6f776e2070726f706f73616c206964000000604482015260640161032d565b600061352c6117d3565b65ffffffffffff16905080821061354857506000949350505050565b6000858152600360205260409020600101546001600160401b03168181106135765750600195945050505050565b61357f86613ba4565b80156135a35750600086815260066020819052604090912090810154600590910154115b156135b45750600495945050505050565b50600395945050505050565b60006114fc85858585613be2565b6000816000036135e057506000919050565b600060016135ed84613c94565b901c6001901b9050600181848161360657613606615112565b048201901c9050600181848161361e5761361e615112565b048201901c9050600181848161363657613636615112565b048201901c9050600181848161364e5761364e615112565b048201901c9050600181848161366657613666615112565b048201901c9050600181848161367e5761367e615112565b048201901c9050600181848161369657613696615112565b048201901c905061186c818285816136b0576136b0615112565b04613d28565b60005b81831015612c745760006136cd8484613d3e565b60008781526020902090915063ffffffff86169082015463ffffffff1611156136f857809250613706565b613703816001614fa7565b93505b506136b9565b6000336137198184613d59565b6137655760405162461bcd60e51b815260206004820152601d60248201527f476f7665726e6f723a2070726f706f7365722072657374726963746564000000604482015260640161032d565b600061376f6117d3565b65ffffffffffff169050600061378a83610af5600185615053565b10156137f25760405162461bcd60e51b815260206004820152603160248201527f476f7665726e6f723a2070726f706f73657220766f7465732062656c6f7720706044820152701c9bdc1bdcd85b081d1a1c995cda1bdb19607a1b606482015260840161032d565b60006138078888888880519060200120611acd565b9050865188511461382a5760405162461bcd60e51b815260040161032d90615248565b855188511461384b5760405162461bcd60e51b815260040161032d90615248565b600088511161389c5760405162461bcd60e51b815260206004820152601860248201527f476f7665726e6f723a20656d7074792070726f706f73616c0000000000000000604482015260640161032d565b6000818152600360205260409020546001600160401b03161561390b5760405162461bcd60e51b815260206004820152602160248201527f476f7665726e6f723a2070726f706f73616c20616c72656164792065786973746044820152607360f81b606482015260840161032d565b6000613919611c2084614fa7565b9050600061392961c4e083614fa7565b90506040518060e0016040528061393f84613e4a565b6001600160401b031681526001600160a01b03871660208201526000604082015260600161396c83613e4a565b6001600160401b039081168252600060208084018290526040808501839052606094850183905288835260038252918290208551815492870151878501519186166001600160e01b031990941693909317600160401b6001600160a01b039094168402176001600160e01b0316600160e01b60e09290921c91909102178155938501516080860151908416921c0217600183015560a08301516002909201805460c09094015161ffff1990941692151561ff00191692909217610100931515939093029290921790558a517f7d84a6263ae0d98d3329bd7b46bb4e8d6f98cd35a7adb45c274c8b7fd5ebd5e091859188918e918e91811115613a7057613a7061435e565b604051908082528060200260200182016040528015613aa357816020015b6060815260200190600190039081613a8e5790505b508d88888f604051613abd99989796959493929190615289565b60405180910390a1509098975050505050505050565b60606000613ae083613eb2565b604080516020808252818301909252919250600091906020820181803683375050509182525060208101929092525090565b815115613b225781518083602001fd5b8060405162461bcd60e51b815260040161032d9190614523565b60006001600160601b03821115611d425760405162461bcd60e51b815260206004820152602660248201527f53616665436173743a2076616c756520646f65736e27742066697420696e203960448201526536206269747360d01b606482015260840161032d565b60008181526006602052604081206005810154613bd9610b41856000908152600360205260409020546001600160401b031690565b11159392505050565b600080613bf186868686613eda565b6000818152600a6020526040902054909150156114fc576009546000828152600a60205260409081902054905163c4d252f560e01b81526001600160a01b039092169163c4d252f591613c4a9160040190815260200190565b600060405180830381600087803b158015613c6457600080fd5b505af1158015613c78573d6000803e3d6000fd5b5050506000828152600a60205260408120555095945050505050565b600080608083901c15613ca957608092831c92015b604083901c15613cbb57604092831c92015b602083901c15613ccd57602092831c92015b601083901c15613cdf57601092831c92015b600883901c15613cf157600892831c92015b600483901c15613d0357600492831c92015b600283901c15613d1557600292831c92015b600183901c15610c7e5760010192915050565b6000818310613d37578161186c565b5090919050565b6000613d4d6002848418615128565b61186c90848416614fa7565b80516000906034811015613d71576001915050610c7e565b82810160131901516001600160a01b031981166b046e0e4dee0dee6cae47a60f60a31b14613da457600192505050610c7e565b600080613db2602885615053565b90505b83811015613e2957600080613de9888481518110613dd557613dd561506a565b01602001516001600160f81b031916613fe6565b9150915081613e015760019650505050505050610c7e565b8060ff166004856001600160a01b0316901b179350505080613e22906151b8565b9050613db5565b50856001600160a01b0316816001600160a01b031614935050505092915050565b60006001600160401b03821115611d425760405162461bcd60e51b815260206004820152602660248201527f53616665436173743a2076616c756520646f65736e27742066697420696e203660448201526534206269747360d01b606482015260840161032d565b600060ff8216601f811115610c7e57604051632cd44ac360e21b815260040160405180910390fd5b600080613ee986868686611acd565b90506000613ef6826114b8565b90506002816007811115613f0c57613f0c614918565b14158015613f2c57506006816007811115613f2957613f29614918565b14155b8015613f4a57506007816007811115613f4757613f47614918565b14155b613f965760405162461bcd60e51b815260206004820152601d60248201527f476f7665726e6f723a2070726f706f73616c206e6f7420616374697665000000604482015260640161032d565b60008281526003602052604090819020600201805461ff001916610100179055517f789cf55be980739dad1d0699b93b58e806b51c9d96619bfa8fe0a28abaa7b30c906110879084815260200190565b60008060f883901c602f811180156140015750603a8160ff16105b1561401657600194602f199091019350915050565b8060ff16604010801561402c575060478160ff16105b15614041576001946036199091019350915050565b8060ff166060108015614057575060678160ff16105b1561406c576001946056199091019350915050565b50600093849350915050565b82805461408490614e57565b90600052602060002090601f0160209004810192826140a657600085556140ec565b82601f106140bf57805160ff19168380011785556140ec565b828001600101855582156140ec579182015b828111156140ec5782518255916020019190600101906140d1565b50611d42929150614239565b8280548282559060005260206000209081019282156140ec579160200282015b828111156140ec57825182546001600160a01b0319166001600160a01b03909116178255602090920191600190910190614118565b8280548282559060005260206000209081019282156140ec57916020028201828111156140ec5782518255916020019190600101906140d1565b8280548282559060005260206000209081019282156141d4579160200282015b828111156141d457825180516141c4918491602090910190614078565b50916020019190600101906141a7565b50611d4292915061424e565b82805482825590600052602060002090810192821561422d579160200282015b8281111561422d578251805161421d918491602090910190614078565b5091602001919060010190614200565b50611d4292915061426b565b5b80821115611d42576000815560010161423a565b80821115611d425760006142628282614288565b5060010161424e565b80821115611d4257600061427f8282614288565b5060010161426b565b50805461429490614e57565b6000825580601f106142a4575050565b601f016020900490600052602060002090810190610e039190614239565b6000602082840312156142d457600080fd5b5035919050565b6000602082840312156142ed57600080fd5b81356001600160e01b03198116811461186c57600080fd5b803560ff811681146115c257600080fd5b60008083601f84011261432857600080fd5b5081356001600160401b0381111561433f57600080fd5b60208301915083602082850101111561435757600080fd5b9250929050565b634e487b7160e01b600052604160045260246000fd5b604051601f8201601f191681016001600160401b038111828210171561439c5761439c61435e565b604052919050565b60006001600160401b038211156143bd576143bd61435e565b50601f01601f191660200190565b600082601f8301126143dc57600080fd5b81356143ef6143ea826143a4565b614374565b81815284602083860101111561440457600080fd5b816020850160208301376000918101602001919091529392505050565b60008060008060008060008060e0898b03121561443d57600080fd5b8835975061444d60208a01614305565b965060408901356001600160401b038082111561446957600080fd5b6144758c838d01614316565b909850965060608b013591508082111561448e57600080fd5b5061449b8b828c016143cb565b9450506144aa60808a01614305565b925060a0890135915060c089013590509295985092959890939650565b60005b838110156144e25781810151838201526020016144ca565b838111156144f1576000848401525b50505050565b6000815180845261450f8160208601602086016144c7565b601f01601f19169290920160200192915050565b60208152600061186c60208301846144f7565b6001600160a01b0381168114610e0357600080fd5b6000806000806080858703121561456157600080fd5b843561456c81614536565b9350602085013561457c81614536565b92506040850135915060608501356001600160401b0381111561459e57600080fd5b6145aa878288016143cb565b91505092959194509250565b60006001600160401b038211156145cf576145cf61435e565b5060051b60200190565b600082601f8301126145ea57600080fd5b813560206145fa6143ea836145b6565b82815260059290921b8401810191818101908684111561461957600080fd5b8286015b8481101561463d57803561463081614536565b835291830191830161461d565b509695505050505050565b600082601f83011261465957600080fd5b813560206146696143ea836145b6565b82815260059290921b8401810191818101908684111561468857600080fd5b8286015b8481101561463d578035835291830191830161468c565b600082601f8301126146b457600080fd5b813560206146c46143ea836145b6565b82815260059290921b840181019181810190868411156146e357600080fd5b8286015b8481101561463d5780356001600160401b038111156147065760008081fd5b6147148986838b01016143cb565b8452509183019183016146e7565b6000806000806080858703121561473857600080fd5b84356001600160401b038082111561474f57600080fd5b61475b888389016145d9565b9550602087013591508082111561477157600080fd5b61477d88838901614648565b9450604087013591508082111561479357600080fd5b506147a0878288016146a3565b949793965093946060013593505050565b600081518084526020808501945080840160005b838110156147ea5781516001600160a01b0316875295820195908201906001016147c5565b509495945050505050565b600081518084526020808501945080840160005b838110156147ea57815187529582019590820190600101614809565b600082825180855260208086019550808260051b84010181860160005b8481101561487057601f1986840301895261485e8383516144f7565b98840198925090830190600101614842565b5090979650505050505050565b60808152600061489060808301876147b1565b82810360208401526148a281876147f5565b905082810360408401526148b68186614825565b905082810360608401526114ad8185614825565b600080600080600060a086880312156148e257600080fd5b853594506148f260208701614305565b935061490060408701614305565b94979396509394606081013594506080013592915050565b634e487b7160e01b600052602160045260246000fd5b602081016008831061495057634e487b7160e01b600052602160045260246000fd5b91905290565b6000806040838503121561496957600080fd5b82359150602083013561497b81614536565b809150509250929050565b6000806040838503121561499957600080fd5b823591506149a960208401614305565b90509250929050565b6000806000806000608086880312156149ca57600080fd5b853594506149da60208701614305565b935060408601356001600160401b03808211156149f657600080fd5b614a0289838a01614316565b90955093506060880135915080821115614a1b57600080fd5b50614a28888289016143cb565b9150509295509295909350565b60008060008060608587031215614a4b57600080fd5b84359350614a5b60208601614305565b925060408501356001600160401b03811115614a7657600080fd5b614a8287828801614316565b95989497509550505050565b60008060008060808587031215614aa457600080fd5b84356001600160401b0380821115614abb57600080fd5b614ac7888389016145d9565b95506020870135915080821115614add57600080fd5b614ae988838901614648565b94506040870135915080821115614aff57600080fd5b614b0b888389016146a3565b93506060870135915080821115614b2157600080fd5b506145aa878288016143cb565b60ff60f81b8816815260e060208201526000614b4d60e08301896144f7565b8281036040840152614b5f81896144f7565b606084018890526001600160a01b038716608085015260a0840186905283810360c08501529050610d6e81856147f5565b600080600060608486031215614ba557600080fd5b8335614bb081614536565b92506020840135915060408401356001600160401b03811115614bd257600080fd5b614bde868287016143cb565b9150509250925092565b600060208284031215614bfa57600080fd5b813561186c81614536565b600080600080600060a08688031215614c1d57600080fd5b8535614c2881614536565b94506020860135614c3881614536565b935060408601356001600160401b0380821115614c5457600080fd5b614c6089838a01614648565b94506060880135915080821115614c7657600080fd5b614c8289838a01614648565b93506080880135915080821115614a1b57600080fd5b60008060008060608587031215614cae57600080fd5b8435614cb981614536565b93506020850135925060408501356001600160401b03811115614a7657600080fd5b600080600080600060a08688031215614cf357600080fd5b85356001600160401b0380821115614d0a57600080fd5b614d1689838a016145d9565b96506020880135915080821115614d2c57600080fd5b614d3889838a01614648565b95506040880135915080821115614d4e57600080fd5b614d5a89838a016146a3565b94506060880135915080821115614d7057600080fd5b614c8289838a016146a3565b60008060408385031215614d8f57600080fd5b8235614d9a81614536565b946020939093013593505050565b600080600080600060a08688031215614dc057600080fd5b8535614dcb81614536565b94506020860135614ddb81614536565b9350604086013592506060860135915060808601356001600160401b03811115614e0457600080fd5b614a28888289016143cb565b8183823760009101908152919050565b60208082526018908201527f476f7665726e6f723a206f6e6c79476f7665726e616e63650000000000000000604082015260600190565b600181811c90821680614e6b57607f821691505b602082108103614e8b57634e487b7160e01b600052602260045260246000fd5b50919050565b60208082526021908201527f476f7665726e6f723a2070726f706f73616c206e6f74207375636365737366756040820152601b60fa1b606082015260800190565b600060208284031215614ee457600080fd5b5051919050565b60a081526000614efe60a08301886147b1565b8281036020840152614f1081886147f5565b90508281036040840152614f248187614825565b60608401959095525050608001529392505050565b60c081526000614f4c60c08301896147b1565b8281036020840152614f5e81896147f5565b90508281036040840152614f728188614825565b60608401969096525050608081019290925260a0909101529392505050565b634e487b7160e01b600052601160045260246000fd5b60008219821115614fba57614fba614f91565b500190565b600065ffffffffffff83811690831681811015614fde57614fde614f91565b039392505050565b600060208284031215614ff857600080fd5b81516001600160401b0381111561500e57600080fd5b8201601f8101841361501f57600080fd5b805161502d6143ea826143a4565b81815285602083850101111561504257600080fd5b6114fc8260208301602086016144c7565b60008282101561506557615065614f91565b500390565b634e487b7160e01b600052603260045260246000fd5b60006020828403121561509257600080fd5b815165ffffffffffff8116811461186c57600080fd5b6080815260006150bb60808301876147b1565b82810360208401526150cd81876147f5565b905082810360408401526150e18186614825565b91505082606083015295945050505050565b600081600019048311821515161561510d5761510d614f91565b500290565b634e487b7160e01b600052601260045260246000fd5b60008261514557634e487b7160e01b600052601260045260246000fd5b500490565b84815260ff8416602082015282604082015260806060820152600061173360808301846144f7565b85815260ff8516602082015283604082015260a06060820152600061519a60a08301856144f7565b82810360808401526151ac81856144f7565b98975050505050505050565b6000600182016151ca576151ca614f91565b5060010190565b6000602082840312156151e357600080fd5b8151801515811461186c57600080fd5b6001600160e01b03198316815281516000906152168160048501602087016144c7565b919091016004019392505050565b80516020808301519190811015614e8b5760001960209190910360031b1b16919050565b60208082526021908201527f476f7665726e6f723a20696e76616c69642070726f706f73616c206c656e67746040820152600d60fb1b606082015260800190565b8981526001600160a01b0389166020820152610120604082018190526000906152b48382018b6147b1565b905082810360608401526152c8818a6147f5565b905082810360808401526152dc8189614825565b905082810360a08401526152f08188614825565b90508560c08401528460e084015282810361010084015261531181856144f7565b9c9b50505050505050505050505056fe476f7665726e6f723a2072656c617920726576657274656420776974686f7574206d657373616765a264697066735822122009a0230523fe6d9561fafa06aaf105b2022738d862eb6348f0a0003f04d50e5064736f6c634300080d0033","linkReferences":{}},"methodIdentifiers":{"BALLOT_TYPEHASH()":"deaaa7cc","CLOCK_MODE()":"4bf5d7e9","COUNTING_MODE()":"dd4e2ba5","EXTENDED_BALLOT_TYPEHASH()":"2fe3e261","cancel(address[],uint256[],bytes[],bytes32)":"452115d6","cancel(uint256)":"40e58ee5","castVote(uint256,uint8)":"56781388","castVoteBySig(uint256,uint8,uint8,bytes32,bytes32)":"3bccf4fd","castVoteWithReason(uint256,uint8,string)":"7b3c71d3","castVoteWithReasonAndParams(uint256,uint8,string,bytes)":"5f398a14","castVoteWithReasonAndParamsBySig(uint256,uint8,string,bytes,uint8,bytes32,bytes32)":"03420181","clock()":"91ddadf4","eip712Domain()":"84b0196e","execute(address[],uint256[],bytes[],bytes32)":"2656227d","execute(uint256)":"fe0d94c1","getActions(uint256)":"328dd982","getReceipt(uint256,address)":"e23a9a52","getVotes(address,uint256)":"eb9019d4","getVotesWithParams(address,uint256,bytes)":"9a802a6d","hasVoted(uint256,address)":"43859632","hashProposal(address[],uint256[],bytes[],bytes32)":"c59057e4","name()":"06fdde03","onERC1155BatchReceived(address,address,uint256[],uint256[],bytes)":"bc197c81","onERC1155Received(address,address,uint256,uint256,bytes)":"f23a6e61","onERC721Received(address,address,uint256,bytes)":"150b7a02","proposalDeadline(uint256)":"c01f9e37","proposalEta(uint256)":"ab58fb8e","proposalProposer(uint256)":"143489d0","proposalSnapshot(uint256)":"2d63f693","proposalThreshold()":"b58131b0","proposals(uint256)":"013cf08b","propose(address[],uint256[],bytes[],string)":"7d5e81e2","propose(address[],uint256[],string[],bytes[],string)":"da95691a","queue(address[],uint256[],bytes[],bytes32)":"160cbed7","queue(uint256)":"ddf0b009","quorum(uint256)":"f8ce560a","quorumDenominator()":"97c3d334","quorumNumerator()":"a7713a70","quorumNumerator(uint256)":"60c4247f","quorumVotes()":"24bc1a64","relay(address,uint256,bytes)":"c28bc2fa","state(uint256)":"3e4f49e6","supportsInterface(bytes4)":"01ffc9a7","timelock()":"d33219b4","token()":"fc0c546a","updateQuorumNumerator(uint256)":"06f3f9e6","updateTimelock(address)":"a890c910","version()":"54fd4d50","votingDelay()":"3932abb1","votingPeriod()":"02a251a3"},"id":128}