{"abi":[{"type":"function","name":"checkReturnValues","inputs":[{"name":"multicallToken","type":"address","internalType":"contract ERC20MulticallMock"},{"name":"recipients","type":"address[]","internalType":"address[]"},{"name":"amounts","type":"uint256[]","internalType":"uint256[]"}],"outputs":[],"stateMutability":"nonpayable"}],"bytecode":{"object":"0x6080604052348015600e575f5ffd5b5061056c8061001c5f395ff3fe608060405234801561000f575f5ffd5b5060043610610029575f3560e01c8063b568d0161461002d575b5f5ffd5b61004061003b36600461026e565b610042565b005b5f8367ffffffffffffffff81111561005c5761005c6102f0565b60405190808252806020026020018201604052801561008f57816020015b606081526020019060019003908161007a5790505b5090505f5b8481101561014a578585828181106100ae576100ae610304565b90506020020160208101906100c39190610318565b8484838181106100d5576100d5610304565b6040516001600160a01b039094166024850152602002919091013560448301525060640160408051601f198184030181529190526020810180516001600160e01b031663a9059cbb60e01b179052825183908390811061013757610137610304565b6020908102919091010152600101610094565b50604051631592ca1b60e31b81525f906001600160a01b0388169063ac9650d89061017990859060040161033a565b5f604051808303815f875af1158015610194573d5f5f3e3d5ffd5b505050506040513d5f823e601f3d908101601f191682016040526101bb91908101906103ef565b90505f5b8151811015610205578181815181106101da576101da610304565b60200260200101518060200190518101906101f59190610517565b6101fd575f5ffd5b6001016101bf565b5050505050505050565b6001600160a01b0381168114610223575f5ffd5b50565b5f5f83601f840112610236575f5ffd5b50813567ffffffffffffffff81111561024d575f5ffd5b6020830191508360208260051b8501011115610267575f5ffd5b9250929050565b5f5f5f5f5f60608688031215610282575f5ffd5b853561028d8161020f565b9450602086013567ffffffffffffffff8111156102a8575f5ffd5b6102b488828901610226565b909550935050604086013567ffffffffffffffff8111156102d3575f5ffd5b6102df88828901610226565b969995985093965092949392505050565b634e487b7160e01b5f52604160045260245ffd5b634e487b7160e01b5f52603260045260245ffd5b5f60208284031215610328575f5ffd5b81356103338161020f565b9392505050565b5f602082016020835280845180835260408501915060408160051b8601019250602086015f5b828110156103b257603f19878603018452815180518087528060208301602089015e5f602082890101526020601f19601f83011688010196505050602082019150602084019350600181019050610360565b50929695505050505050565b604051601f8201601f1916810167ffffffffffffffff811182821017156103e7576103e76102f0565b604052919050565b5f602082840312156103ff575f5ffd5b815167ffffffffffffffff811115610415575f5ffd5b8201601f81018413610425575f5ffd5b805167ffffffffffffffff81111561043f5761043f6102f0565b8060051b61044f602082016103be565b9182526020818401810192908101908784111561046a575f5ffd5b6020850192505b8383101561050c57825167ffffffffffffffff81111561048f575f5ffd5b8501603f8101891361049f575f5ffd5b602081015167ffffffffffffffff8111156104bc576104bc6102f0565b6104cf601f8201601f19166020016103be565b8181526040838301018b10156104e3575f5ffd5b8160408401602083015e5f60208383010152808552505050602082019150602083019250610471565b979650505050505050565b5f60208284031215610527575f5ffd5b81518015158114610333575f5ffdfea2646970667358221220357e77a7d538130f114a3e9fcf7aad0b57e238e483cf6f5607f9df9b7572d8a764736f6c634300081c0033","linkReferences":{}},"methodIdentifiers":{"checkReturnValues(address,address[],uint256[])":"b568d016"},"id":120}