{"abi":[{"type":"function","name":"allowance","inputs":[{"name":"owner","type":"address","internalType":"address"},{"name":"spender","type":"address","internalType":"address"}],"outputs":[{"name":"","type":"uint256","internalType":"uint256"}],"stateMutability":"view"},{"type":"function","name":"approve","inputs":[{"name":"spender","type":"address","internalType":"address"},{"name":"amount","type":"uint256","internalType":"uint256"}],"outputs":[{"name":"","type":"bool","internalType":"bool"}],"stateMutability":"nonpayable"},{"type":"function","name":"balanceOf","inputs":[{"name":"account","type":"address","internalType":"address"}],"outputs":[{"name":"","type":"uint256","internalType":"uint256"}],"stateMutability":"view"},{"type":"function","name":"burn","inputs":[{"name":"amount","type":"uint256","internalType":"uint256"}],"outputs":[],"stateMutability":"nonpayable"},{"type":"function","name":"burnFrom","inputs":[{"name":"account","type":"address","internalType":"address"},{"name":"amount","type":"uint256","internalType":"uint256"}],"outputs":[],"stateMutability":"nonpayable"},{"type":"function","name":"decimals","inputs":[],"outputs":[{"name":"","type":"uint8","internalType":"uint8"}],"stateMutability":"view"},{"type":"function","name":"decreaseAllowance","inputs":[{"name":"spender","type":"address","internalType":"address"},{"name":"subtractedValue","type":"uint256","internalType":"uint256"}],"outputs":[{"name":"","type":"bool","internalType":"bool"}],"stateMutability":"nonpayable"},{"type":"function","name":"increaseAllowance","inputs":[{"name":"spender","type":"address","internalType":"address"},{"name":"addedValue","type":"uint256","internalType":"uint256"}],"outputs":[{"name":"","type":"bool","internalType":"bool"}],"stateMutability":"nonpayable"},{"type":"function","name":"initialize","inputs":[{"name":"name","type":"string","internalType":"string"},{"name":"symbol","type":"string","internalType":"string"},{"name":"initialSupply","type":"uint256","internalType":"uint256"},{"name":"owner","type":"address","internalType":"address"}],"outputs":[],"stateMutability":"nonpayable"},{"type":"function","name":"name","inputs":[],"outputs":[{"name":"","type":"string","internalType":"string"}],"stateMutability":"view"},{"type":"function","name":"symbol","inputs":[],"outputs":[{"name":"","type":"string","internalType":"string"}],"stateMutability":"view"},{"type":"function","name":"totalSupply","inputs":[],"outputs":[{"name":"","type":"uint256","internalType":"uint256"}],"stateMutability":"view"},{"type":"function","name":"transfer","inputs":[{"name":"to","type":"address","internalType":"address"},{"name":"amount","type":"uint256","internalType":"uint256"}],"outputs":[{"name":"","type":"bool","internalType":"bool"}],"stateMutability":"nonpayable"},{"type":"function","name":"transferFrom","inputs":[{"name":"from","type":"address","internalType":"address"},{"name":"to","type":"address","internalType":"address"},{"name":"amount","type":"uint256","internalType":"uint256"}],"outputs":[{"name":"","type":"bool","internalType":"bool"}],"stateMutability":"nonpayable"},{"type":"event","name":"Approval","inputs":[{"name":"owner","type":"address","indexed":true,"internalType":"address"},{"name":"spender","type":"address","indexed":true,"internalType":"address"},{"name":"value","type":"uint256","indexed":false,"internalType":"uint256"}],"anonymous":false},{"type":"event","name":"Initialized","inputs":[{"name":"version","type":"uint8","indexed":false,"internalType":"uint8"}],"anonymous":false},{"type":"event","name":"Transfer","inputs":[{"name":"from","type":"address","indexed":true,"internalType":"address"},{"name":"to","type":"address","indexed":true,"internalType":"address"},{"name":"value","type":"uint256","indexed":false,"internalType":"uint256"}],"anonymous":false}],"bytecode":{"object":"0x608060405234801561001057600080fd5b50611ec8806100206000396000f3fe608060405234801561001057600080fd5b50600436106100ea5760003560e01c806370a082311161008c578063a457c2d711610066578063a457c2d71461025f578063a9059cbb1461028f578063bd3a13f6146102bf578063dd62ed3e146102db576100ea565b806370a08231146101f557806379cc67901461022557806395d89b4114610241576100ea565b806323b872dd116100c857806323b872dd1461015b578063313ce5671461018b57806339509351146101a957806342966c68146101d9576100ea565b806306fdde03146100ef578063095ea7b31461010d57806318160ddd1461013d575b600080fd5b6100f761030b565b604051610104919061125f565b60405180910390f35b61012760048036038101906101229190611329565b61039d565b6040516101349190611384565b60405180910390f35b6101456103c0565b60405161015291906113ae565b60405180910390f35b610175600480360381019061017091906113c9565b6103ca565b6040516101829190611384565b60405180910390f35b6101936103f9565b6040516101a09190611438565b60405180910390f35b6101c360048036038101906101be9190611329565b610402565b6040516101d09190611384565b60405180910390f35b6101f360048036038101906101ee9190611453565b610439565b005b61020f600480360381019061020a9190611480565b61044d565b60405161021c91906113ae565b60405180910390f35b61023f600480360381019061023a9190611329565b610496565b005b6102496104b6565b604051610256919061125f565b60405180910390f35b61027960048036038101906102749190611329565b610548565b6040516102869190611384565b60405180910390f35b6102a960048036038101906102a49190611329565b6105bf565b6040516102b69190611384565b60405180910390f35b6102d960048036038101906102d491906115e2565b6105e2565b005b6102f560048036038101906102f09190611681565b610728565b60405161030291906113ae565b60405180910390f35b60606036805461031a906116f0565b80601f0160208091040260200160405190810160405280929190818152602001828054610346906116f0565b80156103935780601f1061036857610100808354040283529160200191610393565b820191906000526020600020905b81548152906001019060200180831161037657829003601f168201915b5050505050905090565b6000806103a86107af565b90506103b58185856107b7565b600191505092915050565b6000603554905090565b6000806103d56107af565b90506103e2858285610980565b6103ed858585610a0c565b60019150509392505050565b60006012905090565b60008061040d6107af565b905061042e81858561041f8589610728565b6104299190611750565b6107b7565b600191505092915050565b61044a6104446107af565b82610c85565b50565b6000603360008373ffffffffffffffffffffffffffffffffffffffff1673ffffffffffffffffffffffffffffffffffffffff168152602001908152602001600020549050919050565b6104a8826104a26107af565b83610980565b6104b28282610c85565b5050565b6060603780546104c5906116f0565b80601f01602080910402602001604051908101604052809291908181526020018280546104f1906116f0565b801561053e5780601f106105135761010080835404028352916020019161053e565b820191906000526020600020905b81548152906001019060200180831161052157829003601f168201915b5050505050905090565b6000806105536107af565b905060006105618286610728565b9050838110156105a6576040517f08c379a000000000000000000000000000000000000000000000000000000000815260040161059d90611818565b60405180910390fd5b6105b382868684036107b7565b60019250505092915050565b6000806105ca6107af565b90506105d7818585610a0c565b600191505092915050565b60008060019054906101000a900460ff161590508080156106135750600160008054906101000a900460ff1660ff16105b80610640575061062230610e54565b15801561063f5750600160008054906101000a900460ff1660ff16145b5b61067f576040517f08c379a0000000000000000000000000000000000000000000000000000000008152600401610676906118aa565b60405180910390fd5b60016000806101000a81548160ff021916908360ff16021790555080156106bc576001600060016101000a81548160ff0219169083151502179055505b6106c885858585610e77565b80156107215760008060016101000a81548160ff0219169083151502179055507f7f26b83ff96e1f2b6a682f133852f6798a09c465da95921460cefb38474024986001604051610718919061190f565b60405180910390a15b5050505050565b6000603460008473ffffffffffffffffffffffffffffffffffffffff1673ffffffffffffffffffffffffffffffffffffffff16815260200190815260200160002060008373ffffffffffffffffffffffffffffffffffffffff1673ffffffffffffffffffffffffffffffffffffffff16815260200190815260200160002054905092915050565b600033905090565b600073ffffffffffffffffffffffffffffffffffffffff168373ffffffffffffffffffffffffffffffffffffffff1603610826576040517f08c379a000000000000000000000000000000000000000000000000000000000815260040161081d9061199c565b60405180910390fd5b600073ffffffffffffffffffffffffffffffffffffffff168273ffffffffffffffffffffffffffffffffffffffff1603610895576040517f08c379a000000000000000000000000000000000000000000000000000000000815260040161088c90611a2e565b60405180910390fd5b80603460008573ffffffffffffffffffffffffffffffffffffffff1673ffffffffffffffffffffffffffffffffffffffff16815260200190815260200160002060008473ffffffffffffffffffffffffffffffffffffffff1673ffffffffffffffffffffffffffffffffffffffff168152602001908152602001600020819055508173ffffffffffffffffffffffffffffffffffffffff168373ffffffffffffffffffffffffffffffffffffffff167f8c5be1e5ebec7d5bd14f71427d1e84f3dd0314c0f7b2291e5b200ac8c7c3b9258360405161097391906113ae565b60405180910390a3505050565b600061098c8484610728565b90507fffffffffffffffffffffffffffffffffffffffffffffffffffffffffffffffff8114610a0657818110156109f8576040517f08c379a00000000000000000000000000000000000000000000000000000000081526004016109ef90611a9a565b60405180910390fd5b610a0584848484036107b7565b5b50505050565b600073ffffffffffffffffffffffffffffffffffffffff168373ffffffffffffffffffffffffffffffffffffffff1603610a7b576040517f08c379a0000000000000000000000000000000000000000000000000000000008152600401610a7290611b2c565b60405180910390fd5b600073ffffffffffffffffffffffffffffffffffffffff168273ffffffffffffffffffffffffffffffffffffffff1603610aea576040517f08c379a0000000000000000000000000000000000000000000000000000000008152600401610ae190611bbe565b60405180910390fd5b610af5838383610ee2565b6000603360008573ffffffffffffffffffffffffffffffffffffffff1673ffffffffffffffffffffffffffffffffffffffff16815260200190815260200160002054905081811015610b7c576040517f08c379a0000000000000000000000000000000000000000000000000000000008152600401610b7390611c50565b60405180910390fd5b818103603360008673ffffffffffffffffffffffffffffffffffffffff1673ffffffffffffffffffffffffffffffffffffffff1681526020019081526020016000208190555081603360008573ffffffffffffffffffffffffffffffffffffffff1673ffffffffffffffffffffffffffffffffffffffff168152602001908152602001600020600082825401925050819055508273ffffffffffffffffffffffffffffffffffffffff168473ffffffffffffffffffffffffffffffffffffffff167fddf252ad1be2c89b69c2b068fc378daa952ba7f163c4a11628f55a4df523b3ef84604051610c6c91906113ae565b60405180910390a3610c7f848484610ee7565b50505050565b600073ffffffffffffffffffffffffffffffffffffffff168273ffffffffffffffffffffffffffffffffffffffff1603610cf4576040517f08c379a0000000000000000000000000000000000000000000000000000000008152600401610ceb90611ce2565b60405180910390fd5b610d0082600083610ee2565b6000603360008473ffffffffffffffffffffffffffffffffffffffff1673ffffffffffffffffffffffffffffffffffffffff16815260200190815260200160002054905081811015610d87576040517f08c379a0000000000000000000000000000000000000000000000000000000008152600401610d7e90611d74565b60405180910390fd5b818103603360008573ffffffffffffffffffffffffffffffffffffffff1673ffffffffffffffffffffffffffffffffffffffff1681526020019081526020016000208190555081603560008282540392505081905550600073ffffffffffffffffffffffffffffffffffffffff168373ffffffffffffffffffffffffffffffffffffffff167fddf252ad1be2c89b69c2b068fc378daa952ba7f163c4a11628f55a4df523b3ef84604051610e3b91906113ae565b60405180910390a3610e4f83600084610ee7565b505050565b6000808273ffffffffffffffffffffffffffffffffffffffff163b119050919050565b600060019054906101000a900460ff16610ec6576040517f08c379a0000000000000000000000000000000000000000000000000000000008152600401610ebd90611e06565b60405180910390fd5b610ed08484610eec565b610edc84848484610f6d565b50505050565b505050565b505050565b600060019054906101000a900460ff16610f3b576040517f08c379a0000000000000000000000000000000000000000000000000000000008152600401610f3290611e06565b60405180910390fd5b8160369080519060200190610f51929190611123565b508060379080519060200190610f68929190611123565b505050565b600060019054906101000a900460ff16610fbc576040517f08c379a0000000000000000000000000000000000000000000000000000000008152600401610fb390611e06565b60405180910390fd5b610fc68183610fcc565b50505050565b600073ffffffffffffffffffffffffffffffffffffffff168273ffffffffffffffffffffffffffffffffffffffff160361103b576040517f08c379a000000000000000000000000000000000000000000000000000000000815260040161103290611e72565b60405180910390fd5b61104760008383610ee2565b80603560008282546110599190611750565b9250508190555080603360008473ffffffffffffffffffffffffffffffffffffffff1673ffffffffffffffffffffffffffffffffffffffff168152602001908152602001600020600082825401925050819055508173ffffffffffffffffffffffffffffffffffffffff16600073ffffffffffffffffffffffffffffffffffffffff167fddf252ad1be2c89b69c2b068fc378daa952ba7f163c4a11628f55a4df523b3ef8360405161110b91906113ae565b60405180910390a361111f60008383610ee7565b5050565b82805461112f906116f0565b90600052602060002090601f0160209004810192826111515760008555611198565b82601f1061116a57805160ff1916838001178555611198565b82800160010185558215611198579182015b8281111561119757825182559160200191906001019061117c565b5b5090506111a591906111a9565b5090565b5b808211156111c25760008160009055506001016111aa565b5090565b600081519050919050565b600082825260208201905092915050565b60005b838110156112005780820151818401526020810190506111e5565b8381111561120f576000848401525b50505050565b6000601f19601f8301169050919050565b6000611231826111c6565b61123b81856111d1565b935061124b8185602086016111e2565b61125481611215565b840191505092915050565b600060208201905081810360008301526112798184611226565b905092915050565b6000604051905090565b600080fd5b600080fd5b600073ffffffffffffffffffffffffffffffffffffffff82169050919050565b60006112c082611295565b9050919050565b6112d0816112b5565b81146112db57600080fd5b50565b6000813590506112ed816112c7565b92915050565b6000819050919050565b611306816112f3565b811461131157600080fd5b50565b600081359050611323816112fd565b92915050565b600080604083850312156113405761133f61128b565b5b600061134e858286016112de565b925050602061135f85828601611314565b9150509250929050565b60008115159050919050565b61137e81611369565b82525050565b60006020820190506113996000830184611375565b92915050565b6113a8816112f3565b82525050565b60006020820190506113c3600083018461139f565b92915050565b6000806000606084860312156113e2576113e161128b565b5b60006113f0868287016112de565b9350506020611401868287016112de565b925050604061141286828701611314565b9150509250925092565b600060ff82169050919050565b6114328161141c565b82525050565b600060208201905061144d6000830184611429565b92915050565b6000602082840312156114695761146861128b565b5b600061147784828501611314565b91505092915050565b6000602082840312156114965761149561128b565b5b60006114a4848285016112de565b91505092915050565b600080fd5b600080fd5b7f4e487b7100000000000000000000000000000000000000000000000000000000600052604160045260246000fd5b6114ef82611215565b810181811067ffffffffffffffff8211171561150e5761150d6114b7565b5b80604052505050565b6000611521611281565b905061152d82826114e6565b919050565b600067ffffffffffffffff82111561154d5761154c6114b7565b5b61155682611215565b9050602081019050919050565b82818337600083830152505050565b600061158561158084611532565b611517565b9050828152602081018484840111156115a1576115a06114b2565b5b6115ac848285611563565b509392505050565b600082601f8301126115c9576115c86114ad565b5b81356115d9848260208601611572565b91505092915050565b600080600080608085870312156115fc576115fb61128b565b5b600085013567ffffffffffffffff81111561161a57611619611290565b5b611626878288016115b4565b945050602085013567ffffffffffffffff81111561164757611646611290565b5b611653878288016115b4565b935050604061166487828801611314565b9250506060611675878288016112de565b91505092959194509250565b600080604083850312156116985761169761128b565b5b60006116a6858286016112de565b92505060206116b7858286016112de565b9150509250929050565b7f4e487b7100000000000000000000000000000000000000000000000000000000600052602260045260246000fd5b6000600282049050600182168061170857607f821691505b60208210810361171b5761171a6116c1565b5b50919050565b7f4e487b7100000000000000000000000000000000000000000000000000000000600052601160045260246000fd5b600061175b826112f3565b9150611766836112f3565b9250827fffffffffffffffffffffffffffffffffffffffffffffffffffffffffffffffff0382111561179b5761179a611721565b5b828201905092915050565b7f45524332303a2064656372656173656420616c6c6f77616e63652062656c6f7760008201527f207a65726f000000000000000000000000000000000000000000000000000000602082015250565b60006118026025836111d1565b915061180d826117a6565b604082019050919050565b60006020820190508181036000830152611831816117f5565b9050919050565b7f496e697469616c697a61626c653a20636f6e747261637420697320616c72656160008201527f647920696e697469616c697a6564000000000000000000000000000000000000602082015250565b6000611894602e836111d1565b915061189f82611838565b604082019050919050565b600060208201905081810360008301526118c381611887565b9050919050565b6000819050919050565b6000819050919050565b60006118f96118f46118ef846118ca565b6118d4565b61141c565b9050919050565b611909816118de565b82525050565b60006020820190506119246000830184611900565b92915050565b7f45524332303a20617070726f76652066726f6d20746865207a65726f2061646460008201527f7265737300000000000000000000000000000000000000000000000000000000602082015250565b60006119866024836111d1565b91506119918261192a565b604082019050919050565b600060208201905081810360008301526119b581611979565b9050919050565b7f45524332303a20617070726f766520746f20746865207a65726f20616464726560008201527f7373000000000000000000000000000000000000000000000000000000000000602082015250565b6000611a186022836111d1565b9150611a23826119bc565b604082019050919050565b60006020820190508181036000830152611a4781611a0b565b9050919050565b7f45524332303a20696e73756666696369656e7420616c6c6f77616e6365000000600082015250565b6000611a84601d836111d1565b9150611a8f82611a4e565b602082019050919050565b60006020820190508181036000830152611ab381611a77565b9050919050565b7f45524332303a207472616e736665722066726f6d20746865207a65726f20616460008201527f6472657373000000000000000000000000000000000000000000000000000000602082015250565b6000611b166025836111d1565b9150611b2182611aba565b604082019050919050565b60006020820190508181036000830152611b4581611b09565b9050919050565b7f45524332303a207472616e7366657220746f20746865207a65726f206164647260008201527f6573730000000000000000000000000000000000000000000000000000000000602082015250565b6000611ba86023836111d1565b9150611bb382611b4c565b604082019050919050565b60006020820190508181036000830152611bd781611b9b565b9050919050565b7f45524332303a207472616e7366657220616d6f756e742065786365656473206260008201527f616c616e63650000000000000000000000000000000000000000000000000000602082015250565b6000611c3a6026836111d1565b9150611c4582611bde565b604082019050919050565b60006020820190508181036000830152611c6981611c2d565b9050919050565b7f45524332303a206275726e2066726f6d20746865207a65726f2061646472657360008201527f7300000000000000000000000000000000000000000000000000000000000000602082015250565b6000611ccc6021836111d1565b9150611cd782611c70565b604082019050919050565b60006020820190508181036000830152611cfb81611cbf565b9050919050565b7f45524332303a206275726e20616d6f756e7420657863656564732062616c616e60008201527f6365000000000000000000000000000000000000000000000000000000000000602082015250565b6000611d5e6022836111d1565b9150611d6982611d02565b604082019050919050565b60006020820190508181036000830152611d8d81611d51565b9050919050565b7f496e697469616c697a61626c653a20636f6e7472616374206973206e6f74206960008201527f6e697469616c697a696e67000000000000000000000000000000000000000000602082015250565b6000611df0602b836111d1565b9150611dfb82611d94565b604082019050919050565b60006020820190508181036000830152611e1f81611de3565b9050919050565b7f45524332303a206d696e7420746f20746865207a65726f206164647265737300600082015250565b6000611e5c601f836111d1565b9150611e6782611e26565b602082019050919050565b60006020820190508181036000830152611e8b81611e4f565b905091905056fea26469706673582212200775b01cb37271b4518b416f325d596bdfaf0991e55a93e072ab4e65f0f3b31164736f6c634300080d0033","linkReferences":{}},"methodIdentifiers":{"allowance(address,address)":"dd62ed3e","approve(address,uint256)":"095ea7b3","balanceOf(address)":"70a08231","burn(uint256)":"42966c68","burnFrom(address,uint256)":"79cc6790","decimals()":"313ce567","decreaseAllowance(address,uint256)":"a457c2d7","increaseAllowance(address,uint256)":"39509351","initialize(string,string,uint256,address)":"bd3a13f6","name()":"06fdde03","symbol()":"95d89b41","totalSupply()":"18160ddd","transfer(address,uint256)":"a9059cbb","transferFrom(address,address,uint256)":"23b872dd"},"id":124}