{"abi":[{"type":"constructor","inputs":[{"name":"trustedForwarder","type":"address","internalType":"address"}],"stateMutability":"nonpayable"},{"type":"function","name":"isTrustedForwarder","inputs":[{"name":"forwarder","type":"address","internalType":"address"}],"outputs":[{"name":"","type":"bool","internalType":"bool"}],"stateMutability":"view"},{"type":"function","name":"msgData","inputs":[{"name":"integerValue","type":"uint256","internalType":"uint256"},{"name":"stringValue","type":"string","internalType":"string"}],"outputs":[],"stateMutability":"nonpayable"},{"type":"function","name":"msgDataShort","inputs":[],"outputs":[],"stateMutability":"nonpayable"},{"type":"function","name":"msgSender","inputs":[],"outputs":[],"stateMutability":"nonpayable"},{"type":"function","name":"multicall","inputs":[{"name":"data","type":"bytes[]","internalType":"bytes[]"}],"outputs":[{"name":"results","type":"bytes[]","internalType":"bytes[]"}],"stateMutability":"nonpayable"},{"type":"event","name":"Data","inputs":[{"name":"data","type":"bytes","indexed":false,"internalType":"bytes"},{"name":"integerValue","type":"uint256","indexed":false,"internalType":"uint256"},{"name":"stringValue","type":"string","indexed":false,"internalType":"string"}],"anonymous":false},{"type":"event","name":"DataShort","inputs":[{"name":"data","type":"bytes","indexed":false,"internalType":"bytes"}],"anonymous":false},{"type":"event","name":"Sender","inputs":[{"name":"sender","type":"address","indexed":false,"internalType":"address"}],"anonymous":false}],"bytecode":{"object":"0x60a06040523480156200001157600080fd5b5060405162000bbd38038062000bbd833981016040819052620000349162000149565b6001600160a01b0381166080527fd6558c3ed910d959271054471fd1c326679d9fece99c5091b00ed89627cf2bfc6200006c6200008e565b6040516001600160a01b03909116815260200160405180910390a150620001fe565b6000620000a5620000aa60201b6200032a1760201c565b905090565b60003681620000b862000129565b6080519091506001600160a01b031633148015620000d65750808210155b156200010d57600036620000eb83856200017b565b620000f8928290620001a1565b6200010391620001cd565b60601c9250505090565b620001226200014060201b6200037c1760201c565b9250505090565b6000620000a56200014460201b620003801760201c565b3390565b601490565b6000602082840312156200015c57600080fd5b81516001600160a01b03811681146200017457600080fd5b9392505050565b6000828210156200019c57634e487b7160e01b600052601160045260246000fd5b500390565b60008085851115620001b257600080fd5b83861115620001c057600080fd5b5050820193919092039150565b6001600160601b03198135818116916014851015620001f65780818660140360031b1b83161692505b505092915050565b6080516109a36200021a600039600061011201526109a36000f3fe608060405234801561001057600080fd5b50600436106100575760003560e01c8063376bf2621461005c578063572b6c0514610071578063ac9650d814610099578063d737d0c7146100b9578063ff5f6b59146100c1575b600080fd5b61006f61006a36600461055e565b6100c9565b005b61008461007f366004610619565b610110565b60405190151581526020015b60405180910390f35b6100ac6100a7366004610642565b610142565b6040516100909190610713565b61006f6102ac565b61006f6102f3565b7faf235354a0a47c91ee171961326335cb2d1a8e55b8a89859b0e61eb049e50ea06100f2610385565b8484604051610104949392919061079e565b60405180910390a15050565b7f00000000000000000000000000000000000000000000000000000000000000006001600160a01b0390811691161490565b6060600061014e610398565b6001600160a01b0316336001600160a01b0316146101b9576000366101746014826107eb565b61017f928290610802565b8080601f0160208091040260200160405190810160405280939291908181526020018383808284376000920191909152506101c992505050565b6040805160008152602081019091525b90508267ffffffffffffffff8111156101e4576101e4610548565b60405190808252806020026020018201604052801561021757816020015b60608152602001906001900390816102025790505b50915060005b838110156102a4576102743086868481811061023b5761023b61082c565b905060200281019061024d9190610842565b8560405160200161026093929190610890565b6040516020818303038152906040526103a7565b8382815181106102865761028661082c565b6020026020010181905250808061029c906108b7565b91505061021d565b505092915050565b7fd6558c3ed910d959271054471fd1c326679d9fece99c5091b00ed89627cf2bfc6102d5610398565b6040516001600160a01b0390911681526020015b60405180910390a1565b7f6d7cec71eba467294d92341ddc4e8634eb4d742a90e16f408f06e4b70bc4cd6661031c610385565b6040516102e99291906108d0565b600036601461033833610110565b80156103445750808210155b156103745760003661035683856107eb565b610361928290610802565b61036a916108e4565b60601c9250505090565b339250505090565b3390565b601490565b3660006103906103d3565b915091509091565b60006103a261032a565b905090565b60606103cc838360405180606001604052806027815260200161094760279139610420565b9392505050565b3660008160146103e233610110565b80156103ee5750808210155b15610418576000803661040184866107eb565b9261040e93929190610802565b9350935050509091565b60003661040e565b6060600080856001600160a01b03168560405161043d9190610917565b600060405180830381855af49150503d8060008114610478576040519150601f19603f3d011682016040523d82523d6000602084013e61047d565b606091505b509150915061048e86838387610498565b9695505050505050565b6060831561050c578251600003610505576001600160a01b0385163b6105055760405162461bcd60e51b815260206004820152601d60248201527f416464726573733a2063616c6c20746f206e6f6e2d636f6e747261637400000060448201526064015b60405180910390fd5b5081610516565b610516838361051e565b949350505050565b81511561052e5781518083602001fd5b8060405162461bcd60e51b81526004016104fc9190610933565b634e487b7160e01b600052604160045260246000fd5b6000806040838503121561057157600080fd5b82359150602083013567ffffffffffffffff8082111561059057600080fd5b818501915085601f8301126105a457600080fd5b8135818111156105b6576105b6610548565b604051601f8201601f19908116603f011681019083821181831017156105de576105de610548565b816040528281528860208487010111156105f757600080fd5b8260208601602083013760006020848301015280955050505050509250929050565b60006020828403121561062b57600080fd5b81356001600160a01b03811681146103cc57600080fd5b6000806020838503121561065557600080fd5b823567ffffffffffffffff8082111561066d57600080fd5b818501915085601f83011261068157600080fd5b81358181111561069057600080fd5b8660208260051b85010111156106a557600080fd5b60209290920196919550909350505050565b60005b838110156106d25781810151838201526020016106ba565b838111156106e1576000848401525b50505050565b600081518084526106ff8160208601602086016106b7565b601f01601f19169290920160200192915050565b6000602080830181845280855180835260408601915060408160051b870101925083870160005b8281101561076857603f198886030184526107568583516106e7565b9450928501929085019060010161073a565b5092979650505050505050565b81835281816020850137506000828201602090810191909152601f909101601f19169091010190565b6060815260006107b2606083018688610775565b84602084015282810360408401526107ca81856106e7565b979650505050505050565b634e487b7160e01b600052601160045260246000fd5b6000828210156107fd576107fd6107d5565b500390565b6000808585111561081257600080fd5b8386111561081f57600080fd5b5050820193919092039150565b634e487b7160e01b600052603260045260246000fd5b6000808335601e1984360301811261085957600080fd5b83018035915067ffffffffffffffff82111561087457600080fd5b60200191503681900382131561088957600080fd5b9250929050565b8284823760008382016000815283516108ad8183602088016106b7565b0195945050505050565b6000600182016108c9576108c96107d5565b5060010190565b602081526000610516602083018486610775565b6bffffffffffffffffffffffff1981358181169160148510156102a45760149490940360031b84901b1690921692915050565b600082516109298184602087016106b7565b9190910192915050565b6020815260006103cc60208301846106e756fe416464726573733a206c6f772d6c6576656c2064656c65676174652063616c6c206661696c6564a2646970667358221220d50f4373c94a74676d6fc23eb2889ebbe6e71fe98fc0381d16cc7e77cabd11b864736f6c634300080d0033","linkReferences":{}},"methodIdentifiers":{"isTrustedForwarder(address)":"572b6c05","msgData(uint256,string)":"376bf262","msgDataShort()":"ff5f6b59","msgSender()":"d737d0c7","multicall(bytes[])":"ac9650d8"},"id":105}