{"abi":[{"type":"function","name":"initialize","inputs":[{"name":"value","type":"uint256","internalType":"uint256"}],"outputs":[],"stateMutability":"payable"},{"type":"function","name":"migrate","inputs":[{"name":"value","type":"uint256","internalType":"uint256"},{"name":"anotherValue","type":"uint256","internalType":"uint256"}],"outputs":[],"stateMutability":"payable"},{"type":"function","name":"migrate","inputs":[],"outputs":[],"stateMutability":"payable"},{"type":"function","name":"x","inputs":[],"outputs":[{"name":"","type":"uint256","internalType":"uint256"}],"stateMutability":"view"},{"type":"function","name":"y","inputs":[],"outputs":[{"name":"","type":"uint256","internalType":"uint256"}],"stateMutability":"view"},{"type":"event","name":"Initialized","inputs":[{"name":"version","type":"uint8","indexed":false,"internalType":"uint8"}],"anonymous":false}],"bytecode":{"object":"0x6080604052348015600e575f5ffd5b506102828061001c5f395ff3fe608060405260043610610049575f3560e01c80630c55699c1461004d5780633e54bacb146100745780638fd3ab8014610089578063a56dfe4a14610091578063fe4b84df146100a6575b5f5ffd5b348015610058575f5ffd5b5061006260015481565b60405190815260200160405180910390f35b610087610082366004610215565b6100b9565b005b6100876100df565b34801561009c575f5ffd5b5061006260035481565b6100876100b4366004610235565b610108565b60025460ff16156100c8575f5ffd5b60019182556003556002805460ff19169091179055565b60045460ff16156100ee575f5ffd5b60018054600380548355556004805460ff19169091179055565b5f54610100900460ff161580801561012657505f54600160ff909116105b8061013f5750303b15801561013f57505f5460ff166001145b6101a65760405162461bcd60e51b815260206004820152602e60248201527f496e697469616c697a61626c653a20636f6e747261637420697320616c72656160448201526d191e481a5b9a5d1a585b1a5e995960921b606482015260840160405180910390fd5b5f805460ff1916600117905580156101c7575f805461ff0019166101001790555b60018290558015610211575f805461ff0019169055604051600181527f7f26b83ff96e1f2b6a682f133852f6798a09c465da95921460cefb38474024989060200160405180910390a15b5050565b5f5f60408385031215610226575f5ffd5b50508035926020909101359150565b5f60208284031215610245575f5ffd5b503591905056fea2646970667358221220001b8a23d3159102f7a62e4ce3a0df7e5015054590e99ce2e4ba0faa9691ad2364736f6c634300081c0033","linkReferences":{}},"methodIdentifiers":{"initialize(uint256)":"fe4b84df","migrate()":"8fd3ab80","migrate(uint256,uint256)":"3e54bacb","x()":"0c55699c","y()":"a56dfe4a"},"id":128}