{"abi":[{"type":"function","name":"current","inputs":[],"outputs":[{"name":"","type":"uint256","internalType":"uint256"}],"stateMutability":"view"},{"type":"function","name":"increment","inputs":[],"outputs":[],"stateMutability":"nonpayable"},{"type":"function","name":"proxiableUUID","inputs":[],"outputs":[{"name":"","type":"bytes32","internalType":"bytes32"}],"stateMutability":"view"},{"type":"function","name":"upgradeTo","inputs":[{"name":"newImplementation","type":"address","internalType":"address"}],"outputs":[],"stateMutability":"nonpayable"},{"type":"function","name":"upgradeToAndCall","inputs":[{"name":"newImplementation","type":"address","internalType":"address"},{"name":"data","type":"bytes","internalType":"bytes"}],"outputs":[],"stateMutability":"payable"},{"type":"event","name":"AdminChanged","inputs":[{"name":"previousAdmin","type":"address","indexed":false,"internalType":"address"},{"name":"newAdmin","type":"address","indexed":false,"internalType":"address"}],"anonymous":false},{"type":"event","name":"BeaconUpgraded","inputs":[{"name":"beacon","type":"address","indexed":true,"internalType":"address"}],"anonymous":false},{"type":"event","name":"Upgraded","inputs":[{"name":"implementation","type":"address","indexed":true,"internalType":"address"}],"anonymous":false}],"bytecode":{"object":"0x60a06040523060805234801561001457600080fd5b506080516109bc61004b6000396000818160df01528181610128015281816101be015281816101fe015261028801526109bc6000f3fe60806040526004361061004a5760003560e01c80633659cfe61461004f5780634f1ef2861461007157806352d1902d146100845780639fa6a6e3146100ab578063d09de08a146100c0575b600080fd5b34801561005b57600080fd5b5061006f61006a366004610720565b6100d5565b005b61006f61007f366004610751565b6101b4565b34801561009057600080fd5b5061009961027b565b60405190815260200160405180910390f35b3480156100b757600080fd5b50600054610099565b3480156100cc57600080fd5b5061006f61032e565b6001600160a01b037f00000000000000000000000000000000000000000000000000000000000000001630036101265760405162461bcd60e51b815260040161011d90610813565b60405180910390fd5b7f00000000000000000000000000000000000000000000000000000000000000006001600160a01b031661016f600080516020610940833981519152546001600160a01b031690565b6001600160a01b0316146101955760405162461bcd60e51b815260040161011d9061085f565b604080516000808252602082019092526101b19183919061033e565b50565b6001600160a01b037f00000000000000000000000000000000000000000000000000000000000000001630036101fc5760405162461bcd60e51b815260040161011d90610813565b7f00000000000000000000000000000000000000000000000000000000000000006001600160a01b0316610245600080516020610940833981519152546001600160a01b031690565b6001600160a01b03161461026b5760405162461bcd60e51b815260040161011d9061085f565b6102778282600161033e565b5050565b6000306001600160a01b037f0000000000000000000000000000000000000000000000000000000000000000161461031b5760405162461bcd60e51b815260206004820152603860248201527f555550535570677261646561626c653a206d757374206e6f742062652063616c60448201527f6c6564207468726f7567682064656c656761746563616c6c0000000000000000606482015260840161011d565b5060008051602061094083398151915290565b61033c600080546001019055565b565b7f4910fdfa16fed3260ed0e7147f7cc6da11a60208b5b9406d12a635614ffd91435460ff161561037657610371836104ae565b505050565b826001600160a01b03166352d1902d6040518163ffffffff1660e01b8152600401602060405180830381865afa9250505080156103d0575060408051601f3d908101601f191682019092526103cd918101906108ab565b60015b6104335760405162461bcd60e51b815260206004820152602e60248201527f45524331393637557067726164653a206e657720696d706c656d656e7461746960448201526d6f6e206973206e6f74205555505360901b606482015260840161011d565b60008051602061094083398151915281146104a25760405162461bcd60e51b815260206004820152602960248201527f45524331393637557067726164653a20756e737570706f727465642070726f786044820152681a58589b195555525160ba1b606482015260840161011d565b5061037183838361054a565b6001600160a01b0381163b61051b5760405162461bcd60e51b815260206004820152602d60248201527f455243313936373a206e657720696d706c656d656e746174696f6e206973206e60448201526c1bdd08184818dbdb9d1c9858dd609a1b606482015260840161011d565b60008051602061094083398151915280546001600160a01b0319166001600160a01b0392909216919091179055565b61055383610575565b6000825111806105605750805b156103715761056f83836105b5565b50505050565b61057e816104ae565b6040516001600160a01b038216907fbc7cd75a20ee27fd9adebab32041f755214dbc6bffa90cc0225b39da2e5c2d3b90600090a250565b60606105da8383604051806060016040528060278152602001610960602791396105e1565b9392505050565b6060600080856001600160a01b0316856040516105fe91906108f0565b600060405180830381855af49150503d8060008114610639576040519150601f19603f3d011682016040523d82523d6000602084013e61063e565b606091505b509150915061064f86838387610659565b9695505050505050565b606083156106c85782516000036106c1576001600160a01b0385163b6106c15760405162461bcd60e51b815260206004820152601d60248201527f416464726573733a2063616c6c20746f206e6f6e2d636f6e7472616374000000604482015260640161011d565b50816106d2565b6106d283836106da565b949350505050565b8151156106ea5781518083602001fd5b8060405162461bcd60e51b815260040161011d919061090c565b80356001600160a01b038116811461071b57600080fd5b919050565b60006020828403121561073257600080fd5b6105da82610704565b634e487b7160e01b600052604160045260246000fd5b6000806040838503121561076457600080fd5b61076d83610704565b9150602083013567ffffffffffffffff8082111561078a57600080fd5b818501915085601f83011261079e57600080fd5b8135818111156107b0576107b061073b565b604051601f8201601f19908116603f011681019083821181831017156107d8576107d861073b565b816040528281528860208487010111156107f157600080fd5b8260208601602083013760006020848301015280955050505050509250929050565b6020808252602c908201527f46756e6374696f6e206d7573742062652063616c6c6564207468726f7567682060408201526b19195b1959d85d1958d85b1b60a21b606082015260800190565b6020808252602c908201527f46756e6374696f6e206d7573742062652063616c6c6564207468726f7567682060408201526b6163746976652070726f787960a01b606082015260800190565b6000602082840312156108bd57600080fd5b5051919050565b60005b838110156108df5781810151838201526020016108c7565b8381111561056f5750506000910152565b600082516109028184602087016108c4565b9190910192915050565b602081526000825180602084015261092b8160408501602087016108c4565b601f01601f1916919091016040019291505056fe360894a13ba1a3210667c828492db98dca3e2076cc3735a920a3ca505d382bbc416464726573733a206c6f772d6c6576656c2064656c65676174652063616c6c206661696c6564a26469706673582212202e69a2c999a19e559dd613dc1d51f5ed9cc71d99c30f7a72ceb9ecae99cc5f5564736f6c634300080d0033","linkReferences":{}},"methodIdentifiers":{"current()":"9fa6a6e3","increment()":"d09de08a","proxiableUUID()":"52d1902d","upgradeTo(address)":"3659cfe6","upgradeToAndCall(address,bytes)":"4f1ef286"},"id":143}