{"abi":[{"type":"constructor","inputs":[{"name":"bridge","type":"address","internalType":"address"}],"stateMutability":"nonpayable"},{"type":"function","name":"crossChainOwnerRestricted","inputs":[],"outputs":[],"stateMutability":"nonpayable"},{"type":"function","name":"crossChainRestricted","inputs":[],"outputs":[],"stateMutability":"nonpayable"},{"type":"function","name":"owner","inputs":[],"outputs":[{"name":"","type":"address","internalType":"address"}],"stateMutability":"view"},{"type":"error","name":"InvalidCrossChainSender","inputs":[{"name":"actual","type":"address","internalType":"address"},{"name":"expected","type":"address","internalType":"address"}]},{"type":"error","name":"NotCrossChainCall","inputs":[]}],"bytecode":{"object":"0x60c06040523360805234801561001457600080fd5b5060405161037838038061037883398101604081905261003391610044565b6001600160a01b031660a052610074565b60006020828403121561005657600080fd5b81516001600160a01b038116811461006d57600080fd5b9392505050565b60805160a0516102cd6100ab6000396000818160a50152818161017101526101b50152600081816055015260e801526102cd6000f3fe608060405234801561001057600080fd5b50600436106100415760003560e01c80634b074af5146100465780638da5cb5b14610050578063f97f518914610093575b600080fd5b61004e61009b565b005b6100777f000000000000000000000000000000000000000000000000000000000000000081565b6040516001600160a01b03909116815260200160405180910390f35b61004e6100e6565b6001600160a01b037f00000000000000000000000000000000000000000000000000000000000000001633146100e45760405163253a6fc960e11b815260040160405180910390fd5b565b7f00000000000000000000000000000000000000000000000000000000000000006000610111610165565b9050806001600160a01b0316826001600160a01b03161461015c5760405163ef25d32b60e01b81526001600160a01b0380831660048301528316602482015260440160405180910390fd5b5050565b905090565b60006001600160a01b037f00000000000000000000000000000000000000000000000000000000000000001633146101b05760405163253a6fc960e11b815260040160405180910390fd5b6101607f000000000000000000000000000000000000000000000000000000000000000060006001600160a01b03821633146101ff5760405163253a6fc960e11b815260040160405180910390fd5b816001600160a01b031663d67bdd256040518163ffffffff1660e01b8152600401602060405180830381865afa15801561023d573d6000803e3d6000fd5b505050506040513d601f19601f820116820180604052508101906102619190610267565b92915050565b60006020828403121561027957600080fd5b81516001600160a01b038116811461029057600080fd5b939250505056fea2646970667358221220d7769cbd63d4003f1db05711afde573874f99b7e2189ba929a4d3376e7501b1664736f6c634300080d0033","linkReferences":{}},"methodIdentifiers":{"crossChainOwnerRestricted()":"f97f5189","crossChainRestricted()":"4b074af5","owner()":"8da5cb5b"},"id":126}