{"abi":[{"type":"constructor","inputs":[{"name":"bridge","type":"address","internalType":"address"}],"stateMutability":"nonpayable"},{"type":"function","name":"crossChainOwnerRestricted","inputs":[],"outputs":[],"stateMutability":"nonpayable"},{"type":"function","name":"crossChainRestricted","inputs":[],"outputs":[],"stateMutability":"nonpayable"},{"type":"function","name":"owner","inputs":[],"outputs":[{"name":"","type":"address","internalType":"address"}],"stateMutability":"view"},{"type":"function","name":"processMessageFromRoot","inputs":[{"name":"","type":"uint256","internalType":"uint256"},{"name":"rootMessageSender","type":"address","internalType":"address"},{"name":"data","type":"bytes","internalType":"bytes"}],"outputs":[],"stateMutability":"nonpayable"},{"type":"error","name":"InvalidCrossChainSender","inputs":[{"name":"actual","type":"address","internalType":"address"},{"name":"expected","type":"address","internalType":"address"}]},{"type":"error","name":"NotCrossChainCall","inputs":[]}],"bytecode":{"object":"0x60c060405233608052600180546001600160a01b03191661dead17905534801561002857600080fd5b5060405161061d38038061061d8339810160408190526100479161005d565b60016000556001600160a01b031660a05261008d565b60006020828403121561006f57600080fd5b81516001600160a01b038116811461008657600080fd5b9392505050565b60805160a0516105656100b86000396000610248015260008181606001526101c401526105656000f3fe608060405234801561001057600080fd5b506004361061004c5760003560e01c80634b074af5146100515780638da5cb5b1461005b5780639a7c4b711461009e578063f97f5189146100b1575b600080fd5b6100596100b9565b005b6100827f000000000000000000000000000000000000000000000000000000000000000081565b6040516001600160a01b03909116815260200160405180910390f35b6100596100ac36600461041f565b6100e0565b6100596101c2565b6100c161023d565b6100de5760405163253a6fc960e11b815260040160405180910390fd5b565b6100e861026c565b6100f061023d565b61010d5760405163253a6fc960e11b815260040160405180910390fd5b600180546001600160a01b0319166001600160a01b038516179055604080516020601f840181900481028201810190925282815261019d9130919085908590819084018382808284376000920191909152505060408051808201909152601c81527f63726f73732d636861696e20657865637574696f6e206661696c656400000000602082015291506102c59050565b50600180546001600160a01b03191661dead1790556101bc6001600055565b50505050565b7f000000000000000000000000000000000000000000000000000000000000000060006101ed61033d565b9050806001600160a01b0316826001600160a01b0316146102395760405163ef25d32b60e01b81526001600160a01b038083166004830152831660248201526044015b60405180910390fd5b5050565b336001600160a01b037f0000000000000000000000000000000000000000000000000000000000000000161490565b6002600054036102be5760405162461bcd60e51b815260206004820152601f60248201527f5265656e7472616e637947756172643a207265656e7472616e742063616c6c006044820152606401610230565b6002600055565b6060600080856001600160a01b0316856040516102e291906104e0565b600060405180830381855af49150503d806000811461031d576040519150601f19603f3d011682016040523d82523d6000602084013e610322565b606091505b509150915061033386838387610374565b9695505050505050565b600061034761023d565b6103645760405163253a6fc960e11b815260040160405180910390fd5b506001546001600160a01b031690565b606083156103e35782516000036103dc576001600160a01b0385163b6103dc5760405162461bcd60e51b815260206004820152601d60248201527f416464726573733a2063616c6c20746f206e6f6e2d636f6e74726163740000006044820152606401610230565b50816103ed565b6103ed83836103f5565b949350505050565b8151156104055781518083602001fd5b8060405162461bcd60e51b815260040161023091906104fc565b6000806000806060858703121561043557600080fd5b8435935060208501356001600160a01b038116811461045357600080fd5b9250604085013567ffffffffffffffff8082111561047057600080fd5b818701915087601f83011261048457600080fd5b81358181111561049357600080fd5b8860208285010111156104a557600080fd5b95989497505060200194505050565b60005b838110156104cf5781810151838201526020016104b7565b838111156101bc5750506000910152565b600082516104f28184602087016104b4565b9190910192915050565b602081526000825180602084015261051b8160408501602087016104b4565b601f01601f1916919091016040019291505056fea264697066735822122065051ffa36165d4f8ca02a854780c049d8275452f4c4535f4de824e68078391564736f6c634300080d0033","linkReferences":{}},"methodIdentifiers":{"crossChainOwnerRestricted()":"f97f5189","crossChainRestricted()":"4b074af5","owner()":"8da5cb5b","processMessageFromRoot(uint256,address,bytes)":"9a7c4b71"},"id":126}