{"abi":[{"type":"function","name":"get","inputs":[],"outputs":[{"name":"","type":"bool","internalType":"bool"}],"stateMutability":"pure"},{"type":"function","name":"initialize","inputs":[{"name":"_value","type":"uint256","internalType":"uint256"},{"name":"_text","type":"string","internalType":"string"},{"name":"_values","type":"uint256[]","internalType":"uint256[]"}],"outputs":[],"stateMutability":"nonpayable"},{"type":"function","name":"initializeNonPayable","inputs":[],"outputs":[],"stateMutability":"nonpayable"},{"type":"function","name":"initializeNonPayableWithValue","inputs":[{"name":"_value","type":"uint256","internalType":"uint256"}],"outputs":[],"stateMutability":"nonpayable"},{"type":"function","name":"initializePayable","inputs":[],"outputs":[],"stateMutability":"payable"},{"type":"function","name":"initializePayableWithValue","inputs":[{"name":"_value","type":"uint256","internalType":"uint256"}],"outputs":[],"stateMutability":"payable"},{"type":"function","name":"reverts","inputs":[],"outputs":[],"stateMutability":"pure"},{"type":"function","name":"text","inputs":[],"outputs":[{"name":"","type":"string","internalType":"string"}],"stateMutability":"view"},{"type":"function","name":"value","inputs":[],"outputs":[{"name":"","type":"uint256","internalType":"uint256"}],"stateMutability":"view"},{"type":"function","name":"values","inputs":[{"name":"","type":"uint256","internalType":"uint256"}],"outputs":[{"name":"","type":"uint256","internalType":"uint256"}],"stateMutability":"view"},{"type":"function","name":"version","inputs":[],"outputs":[{"name":"","type":"string","internalType":"string"}],"stateMutability":"pure"}],"bytecode":{"object":"0x6080604052348015600e575f5ffd5b506106988061001c5f395ff3fe60806040526004361061009a575f3560e01c80635e383d21116100625780635e383d211461013f5780636d4ce63c1461015e578063763e2831146101795780639fba1f9a14610197578063d31f8b6b146101a0578063e79f5bee146101bf575f5ffd5b80631f1bd6921461009e578063227367d5146100c85780633bccbbc9146100df5780633fa4f245146100f357806354fd4d5014610115575b5f5ffd5b3480156100a9575f5ffd5b506100b26101cd565b6040516100bf919061034b565b60405180910390f35b3480156100d3575f5ffd5b506100dd600a5f55565b005b3480156100ea575f5ffd5b506100dd610259565b3480156100fe575f5ffd5b506101075f5481565b6040519081526020016100bf565b348015610120575f5ffd5b50604080518082019091526002815261563160f01b60208201526100b2565b34801561014a575f5ffd5b50610107610159366004610380565b6102a5565b348015610169575f5ffd5b50604051600181526020016100bf565b348015610184575f5ffd5b506100dd610193366004610380565b5f55565b6100dd60645f55565b3480156101ab575f5ffd5b506100dd6101ba36600461045c565b6102c4565b6100dd610193366004610380565b600180546101da90610523565b80601f016020809104026020016040519081016040528092919081815260200182805461020690610523565b80156102515780601f1061022857610100808354040283529160200191610251565b820191905f5260205f20905b81548152906001019060200180831161023457829003601f168201915b505050505081565b60405162461bcd60e51b815260206004820152601c60248201527f44756d6d79496d706c656d656e746174696f6e20726576657274656400000000604482015260640160405180910390fd5b600281815481106102b4575f80fd5b5f91825260209091200154905081565b5f83905560016102d483826105a7565b5080516102e89060029060208401906102ee565b50505050565b828054828255905f5260205f20908101928215610327579160200282015b8281111561032757825182559160200191906001019061030c565b50610333929150610337565b5090565b5b80821115610333575f8155600101610338565b602081525f82518060208401528060208501604085015e5f604082850101526040601f19601f83011684010191505092915050565b5f60208284031215610390575f5ffd5b5035919050565b634e487b7160e01b5f52604160045260245ffd5b604051601f8201601f1916810167ffffffffffffffff811182821017156103d4576103d4610397565b604052919050565b5f82601f8301126103eb575f5ffd5b813567ffffffffffffffff81111561040557610405610397565b8060051b610415602082016103ab565b91825260208185018101929081019086841115610430575f5ffd5b6020860192505b83831015610452578235825260209283019290910190610437565b9695505050505050565b5f5f5f6060848603121561046e575f5ffd5b83359250602084013567ffffffffffffffff81111561048b575f5ffd5b8401601f8101861361049b575f5ffd5b803567ffffffffffffffff8111156104b5576104b5610397565b6104c8601f8201601f19166020016103ab565b8181528760208385010111156104dc575f5ffd5b816020840160208301375f60208383010152809450505050604084013567ffffffffffffffff81111561050d575f5ffd5b610519868287016103dc565b9150509250925092565b600181811c9082168061053757607f821691505b60208210810361055557634e487b7160e01b5f52602260045260245ffd5b50919050565b601f8211156105a257805f5260205f20601f840160051c810160208510156105805750805b601f840160051c820191505b8181101561059f575f815560010161058c565b50505b505050565b815167ffffffffffffffff8111156105c1576105c1610397565b6105d5816105cf8454610523565b8461055b565b6020601f821160018114610607575f83156105f05750848201515b5f19600385901b1c1916600184901b17845561059f565b5f84815260208120601f198516915b828110156106365787850151825560209485019460019092019101610616565b508482101561065357868401515f19600387901b60f8161c191681555b50505050600190811b0190555056fea264697066735822122058235febccd10649cff44ccbb6f0d6c005fc7c73394b9262480c095c1ae8d06664736f6c634300081c0033","linkReferences":{}},"methodIdentifiers":{"get()":"6d4ce63c","initialize(uint256,string,uint256[])":"d31f8b6b","initializeNonPayable()":"227367d5","initializeNonPayableWithValue(uint256)":"763e2831","initializePayable()":"9fba1f9a","initializePayableWithValue(uint256)":"e79f5bee","reverts()":"3bccbbc9","text()":"1f1bd692","value()":"3fa4f245","values(uint256)":"5e383d21","version()":"54fd4d50"},"id":106}