{"abi":[{"type":"constructor","inputs":[{"name":"_token","type":"address","internalType":"contract IVotes"},{"name":"_timelock","type":"address","internalType":"contract TimelockController"}],"stateMutability":"nonpayable"},{"type":"receive","stateMutability":"payable"},{"type":"function","name":"BALLOT_TYPEHASH","inputs":[],"outputs":[{"name":"","type":"bytes32","internalType":"bytes32"}],"stateMutability":"view"},{"type":"function","name":"CLOCK_MODE","inputs":[],"outputs":[{"name":"","type":"string","internalType":"string"}],"stateMutability":"view"},{"type":"function","name":"COUNTING_MODE","inputs":[],"outputs":[{"name":"","type":"string","internalType":"string"}],"stateMutability":"pure"},{"type":"function","name":"EXTENDED_BALLOT_TYPEHASH","inputs":[],"outputs":[{"name":"","type":"bytes32","internalType":"bytes32"}],"stateMutability":"view"},{"type":"function","name":"cancel","inputs":[{"name":"proposalId","type":"uint256","internalType":"uint256"}],"outputs":[],"stateMutability":"nonpayable"},{"type":"function","name":"cancel","inputs":[{"name":"targets","type":"address[]","internalType":"address[]"},{"name":"values","type":"uint256[]","internalType":"uint256[]"},{"name":"calldatas","type":"bytes[]","internalType":"bytes[]"},{"name":"descriptionHash","type":"bytes32","internalType":"bytes32"}],"outputs":[{"name":"","type":"uint256","internalType":"uint256"}],"stateMutability":"nonpayable"},{"type":"function","name":"castVote","inputs":[{"name":"proposalId","type":"uint256","internalType":"uint256"},{"name":"support","type":"uint8","internalType":"uint8"}],"outputs":[{"name":"","type":"uint256","internalType":"uint256"}],"stateMutability":"nonpayable"},{"type":"function","name":"castVoteBySig","inputs":[{"name":"proposalId","type":"uint256","internalType":"uint256"},{"name":"support","type":"uint8","internalType":"uint8"},{"name":"v","type":"uint8","internalType":"uint8"},{"name":"r","type":"bytes32","internalType":"bytes32"},{"name":"s","type":"bytes32","internalType":"bytes32"}],"outputs":[{"name":"","type":"uint256","internalType":"uint256"}],"stateMutability":"nonpayable"},{"type":"function","name":"castVoteWithReason","inputs":[{"name":"proposalId","type":"uint256","internalType":"uint256"},{"name":"support","type":"uint8","internalType":"uint8"},{"name":"reason","type":"string","internalType":"string"}],"outputs":[{"name":"","type":"uint256","internalType":"uint256"}],"stateMutability":"nonpayable"},{"type":"function","name":"castVoteWithReasonAndParams","inputs":[{"name":"proposalId","type":"uint256","internalType":"uint256"},{"name":"support","type":"uint8","internalType":"uint8"},{"name":"reason","type":"string","internalType":"string"},{"name":"params","type":"bytes","internalType":"bytes"}],"outputs":[{"name":"","type":"uint256","internalType":"uint256"}],"stateMutability":"nonpayable"},{"type":"function","name":"castVoteWithReasonAndParamsBySig","inputs":[{"name":"proposalId","type":"uint256","internalType":"uint256"},{"name":"support","type":"uint8","internalType":"uint8"},{"name":"reason","type":"string","internalType":"string"},{"name":"params","type":"bytes","internalType":"bytes"},{"name":"v","type":"uint8","internalType":"uint8"},{"name":"r","type":"bytes32","internalType":"bytes32"},{"name":"s","type":"bytes32","internalType":"bytes32"}],"outputs":[{"name":"","type":"uint256","internalType":"uint256"}],"stateMutability":"nonpayable"},{"type":"function","name":"clock","inputs":[],"outputs":[{"name":"","type":"uint48","internalType":"uint48"}],"stateMutability":"view"},{"type":"function","name":"eip712Domain","inputs":[],"outputs":[{"name":"fields","type":"bytes1","internalType":"bytes1"},{"name":"name","type":"string","internalType":"string"},{"name":"version","type":"string","internalType":"string"},{"name":"chainId","type":"uint256","internalType":"uint256"},{"name":"verifyingContract","type":"address","internalType":"address"},{"name":"salt","type":"bytes32","internalType":"bytes32"},{"name":"extensions","type":"uint256[]","internalType":"uint256[]"}],"stateMutability":"view"},{"type":"function","name":"execute","inputs":[{"name":"targets","type":"address[]","internalType":"address[]"},{"name":"values","type":"uint256[]","internalType":"uint256[]"},{"name":"calldatas","type":"bytes[]","internalType":"bytes[]"},{"name":"descriptionHash","type":"bytes32","internalType":"bytes32"}],"outputs":[{"name":"","type":"uint256","internalType":"uint256"}],"stateMutability":"payable"},{"type":"function","name":"execute","inputs":[{"name":"proposalId","type":"uint256","internalType":"uint256"}],"outputs":[],"stateMutability":"payable"},{"type":"function","name":"getActions","inputs":[{"name":"proposalId","type":"uint256","internalType":"uint256"}],"outputs":[{"name":"targets","type":"address[]","internalType":"address[]"},{"name":"values","type":"uint256[]","internalType":"uint256[]"},{"name":"signatures","type":"string[]","internalType":"string[]"},{"name":"calldatas","type":"bytes[]","internalType":"bytes[]"}],"stateMutability":"view"},{"type":"function","name":"getReceipt","inputs":[{"name":"proposalId","type":"uint256","internalType":"uint256"},{"name":"voter","type":"address","internalType":"address"}],"outputs":[{"name":"","type":"tuple","internalType":"struct IGovernorCompatibilityBravo.Receipt","components":[{"name":"hasVoted","type":"bool","internalType":"bool"},{"name":"support","type":"uint8","internalType":"uint8"},{"name":"votes","type":"uint96","internalType":"uint96"}]}],"stateMutability":"view"},{"type":"function","name":"getVotes","inputs":[{"name":"account","type":"address","internalType":"address"},{"name":"timepoint","type":"uint256","internalType":"uint256"}],"outputs":[{"name":"","type":"uint256","internalType":"uint256"}],"stateMutability":"view"},{"type":"function","name":"getVotesWithParams","inputs":[{"name":"account","type":"address","internalType":"address"},{"name":"timepoint","type":"uint256","internalType":"uint256"},{"name":"params","type":"bytes","internalType":"bytes"}],"outputs":[{"name":"","type":"uint256","internalType":"uint256"}],"stateMutability":"view"},{"type":"function","name":"hasVoted","inputs":[{"name":"proposalId","type":"uint256","internalType":"uint256"},{"name":"account","type":"address","internalType":"address"}],"outputs":[{"name":"","type":"bool","internalType":"bool"}],"stateMutability":"view"},{"type":"function","name":"hashProposal","inputs":[{"name":"targets","type":"address[]","internalType":"address[]"},{"name":"values","type":"uint256[]","internalType":"uint256[]"},{"name":"calldatas","type":"bytes[]","internalType":"bytes[]"},{"name":"descriptionHash","type":"bytes32","internalType":"bytes32"}],"outputs":[{"name":"","type":"uint256","internalType":"uint256"}],"stateMutability":"pure"},{"type":"function","name":"name","inputs":[],"outputs":[{"name":"","type":"string","internalType":"string"}],"stateMutability":"view"},{"type":"function","name":"onERC1155BatchReceived","inputs":[{"name":"","type":"address","internalType":"address"},{"name":"","type":"address","internalType":"address"},{"name":"","type":"uint256[]","internalType":"uint256[]"},{"name":"","type":"uint256[]","internalType":"uint256[]"},{"name":"","type":"bytes","internalType":"bytes"}],"outputs":[{"name":"","type":"bytes4","internalType":"bytes4"}],"stateMutability":"nonpayable"},{"type":"function","name":"onERC1155Received","inputs":[{"name":"","type":"address","internalType":"address"},{"name":"","type":"address","internalType":"address"},{"name":"","type":"uint256","internalType":"uint256"},{"name":"","type":"uint256","internalType":"uint256"},{"name":"","type":"bytes","internalType":"bytes"}],"outputs":[{"name":"","type":"bytes4","internalType":"bytes4"}],"stateMutability":"nonpayable"},{"type":"function","name":"onERC721Received","inputs":[{"name":"","type":"address","internalType":"address"},{"name":"","type":"address","internalType":"address"},{"name":"","type":"uint256","internalType":"uint256"},{"name":"","type":"bytes","internalType":"bytes"}],"outputs":[{"name":"","type":"bytes4","internalType":"bytes4"}],"stateMutability":"nonpayable"},{"type":"function","name":"proposalDeadline","inputs":[{"name":"proposalId","type":"uint256","internalType":"uint256"}],"outputs":[{"name":"","type":"uint256","internalType":"uint256"}],"stateMutability":"view"},{"type":"function","name":"proposalEta","inputs":[{"name":"proposalId","type":"uint256","internalType":"uint256"}],"outputs":[{"name":"","type":"uint256","internalType":"uint256"}],"stateMutability":"view"},{"type":"function","name":"proposalProposer","inputs":[{"name":"proposalId","type":"uint256","internalType":"uint256"}],"outputs":[{"name":"","type":"address","internalType":"address"}],"stateMutability":"view"},{"type":"function","name":"proposalSnapshot","inputs":[{"name":"proposalId","type":"uint256","internalType":"uint256"}],"outputs":[{"name":"","type":"uint256","internalType":"uint256"}],"stateMutability":"view"},{"type":"function","name":"proposalThreshold","inputs":[],"outputs":[{"name":"","type":"uint256","internalType":"uint256"}],"stateMutability":"pure"},{"type":"function","name":"proposals","inputs":[{"name":"proposalId","type":"uint256","internalType":"uint256"}],"outputs":[{"name":"id","type":"uint256","internalType":"uint256"},{"name":"proposer","type":"address","internalType":"address"},{"name":"eta","type":"uint256","internalType":"uint256"},{"name":"startBlock","type":"uint256","internalType":"uint256"},{"name":"endBlock","type":"uint256","internalType":"uint256"},{"name":"forVotes","type":"uint256","internalType":"uint256"},{"name":"againstVotes","type":"uint256","internalType":"uint256"},{"name":"abstainVotes","type":"uint256","internalType":"uint256"},{"name":"canceled","type":"bool","internalType":"bool"},{"name":"executed","type":"bool","internalType":"bool"}],"stateMutability":"view"},{"type":"function","name":"propose","inputs":[{"name":"targets","type":"address[]","internalType":"address[]"},{"name":"values","type":"uint256[]","internalType":"uint256[]"},{"name":"calldatas","type":"bytes[]","internalType":"bytes[]"},{"name":"description","type":"string","internalType":"string"}],"outputs":[{"name":"","type":"uint256","internalType":"uint256"}],"stateMutability":"nonpayable"},{"type":"function","name":"propose","inputs":[{"name":"targets","type":"address[]","internalType":"address[]"},{"name":"values","type":"uint256[]","internalType":"uint256[]"},{"name":"signatures","type":"string[]","internalType":"string[]"},{"name":"calldatas","type":"bytes[]","internalType":"bytes[]"},{"name":"description","type":"string","internalType":"string"}],"outputs":[{"name":"","type":"uint256","internalType":"uint256"}],"stateMutability":"nonpayable"},{"type":"function","name":"queue","inputs":[{"name":"targets","type":"address[]","internalType":"address[]"},{"name":"values","type":"uint256[]","internalType":"uint256[]"},{"name":"calldatas","type":"bytes[]","internalType":"bytes[]"},{"name":"descriptionHash","type":"bytes32","internalType":"bytes32"}],"outputs":[{"name":"","type":"uint256","internalType":"uint256"}],"stateMutability":"nonpayable"},{"type":"function","name":"queue","inputs":[{"name":"proposalId","type":"uint256","internalType":"uint256"}],"outputs":[],"stateMutability":"nonpayable"},{"type":"function","name":"quorum","inputs":[{"name":"blockNumber","type":"uint256","internalType":"uint256"}],"outputs":[{"name":"","type":"uint256","internalType":"uint256"}],"stateMutability":"view"},{"type":"function","name":"quorumDenominator","inputs":[],"outputs":[{"name":"","type":"uint256","internalType":"uint256"}],"stateMutability":"view"},{"type":"function","name":"quorumNumerator","inputs":[{"name":"timepoint","type":"uint256","internalType":"uint256"}],"outputs":[{"name":"","type":"uint256","internalType":"uint256"}],"stateMutability":"view"},{"type":"function","name":"quorumNumerator","inputs":[],"outputs":[{"name":"","type":"uint256","internalType":"uint256"}],"stateMutability":"view"},{"type":"function","name":"quorumVotes","inputs":[],"outputs":[{"name":"","type":"uint256","internalType":"uint256"}],"stateMutability":"view"},{"type":"function","name":"relay","inputs":[{"name":"target","type":"address","internalType":"address"},{"name":"value","type":"uint256","internalType":"uint256"},{"name":"data","type":"bytes","internalType":"bytes"}],"outputs":[],"stateMutability":"payable"},{"type":"function","name":"state","inputs":[{"name":"proposalId","type":"uint256","internalType":"uint256"}],"outputs":[{"name":"","type":"uint8","internalType":"enum IGovernor.ProposalState"}],"stateMutability":"view"},{"type":"function","name":"supportsInterface","inputs":[{"name":"interfaceId","type":"bytes4","internalType":"bytes4"}],"outputs":[{"name":"","type":"bool","internalType":"bool"}],"stateMutability":"view"},{"type":"function","name":"timelock","inputs":[],"outputs":[{"name":"","type":"address","internalType":"address"}],"stateMutability":"view"},{"type":"function","name":"token","inputs":[],"outputs":[{"name":"","type":"address","internalType":"contract IERC5805"}],"stateMutability":"view"},{"type":"function","name":"updateQuorumNumerator","inputs":[{"name":"newQuorumNumerator","type":"uint256","internalType":"uint256"}],"outputs":[],"stateMutability":"nonpayable"},{"type":"function","name":"updateTimelock","inputs":[{"name":"newTimelock","type":"address","internalType":"contract TimelockController"}],"outputs":[],"stateMutability":"nonpayable"},{"type":"function","name":"version","inputs":[],"outputs":[{"name":"","type":"string","internalType":"string"}],"stateMutability":"view"},{"type":"function","name":"votingDelay","inputs":[],"outputs":[{"name":"","type":"uint256","internalType":"uint256"}],"stateMutability":"pure"},{"type":"function","name":"votingPeriod","inputs":[],"outputs":[{"name":"","type":"uint256","internalType":"uint256"}],"stateMutability":"pure"},{"type":"event","name":"EIP712DomainChanged","inputs":[],"anonymous":false},{"type":"event","name":"ProposalCanceled","inputs":[{"name":"proposalId","type":"uint256","indexed":false,"internalType":"uint256"}],"anonymous":false},{"type":"event","name":"ProposalCreated","inputs":[{"name":"proposalId","type":"uint256","indexed":false,"internalType":"uint256"},{"name":"proposer","type":"address","indexed":false,"internalType":"address"},{"name":"targets","type":"address[]","indexed":false,"internalType":"address[]"},{"name":"values","type":"uint256[]","indexed":false,"internalType":"uint256[]"},{"name":"signatures","type":"string[]","indexed":false,"internalType":"string[]"},{"name":"calldatas","type":"bytes[]","indexed":false,"internalType":"bytes[]"},{"name":"voteStart","type":"uint256","indexed":false,"internalType":"uint256"},{"name":"voteEnd","type":"uint256","indexed":false,"internalType":"uint256"},{"name":"description","type":"string","indexed":false,"internalType":"string"}],"anonymous":false},{"type":"event","name":"ProposalExecuted","inputs":[{"name":"proposalId","type":"uint256","indexed":false,"internalType":"uint256"}],"anonymous":false},{"type":"event","name":"ProposalQueued","inputs":[{"name":"proposalId","type":"uint256","indexed":false,"internalType":"uint256"},{"name":"eta","type":"uint256","indexed":false,"internalType":"uint256"}],"anonymous":false},{"type":"event","name":"QuorumNumeratorUpdated","inputs":[{"name":"oldQuorumNumerator","type":"uint256","indexed":false,"internalType":"uint256"},{"name":"newQuorumNumerator","type":"uint256","indexed":false,"internalType":"uint256"}],"anonymous":false},{"type":"event","name":"TimelockChange","inputs":[{"name":"oldTimelock","type":"address","indexed":false,"internalType":"address"},{"name":"newTimelock","type":"address","indexed":false,"internalType":"address"}],"anonymous":false},{"type":"event","name":"VoteCast","inputs":[{"name":"voter","type":"address","indexed":true,"internalType":"address"},{"name":"proposalId","type":"uint256","indexed":false,"internalType":"uint256"},{"name":"support","type":"uint8","indexed":false,"internalType":"uint8"},{"name":"weight","type":"uint256","indexed":false,"internalType":"uint256"},{"name":"reason","type":"string","indexed":false,"internalType":"string"}],"anonymous":false},{"type":"event","name":"VoteCastWithParams","inputs":[{"name":"voter","type":"address","indexed":true,"internalType":"address"},{"name":"proposalId","type":"uint256","indexed":false,"internalType":"uint256"},{"name":"support","type":"uint8","indexed":false,"internalType":"uint8"},{"name":"weight","type":"uint256","indexed":false,"internalType":"uint256"},{"name":"reason","type":"string","indexed":false,"internalType":"string"},{"name":"params","type":"bytes","indexed":false,"internalType":"bytes"}],"anonymous":false},{"type":"error","name":"Empty","inputs":[]},{"type":"error","name":"InvalidShortString","inputs":[]},{"type":"error","name":"StringTooLong","inputs":[{"name":"str","type":"string","internalType":"string"}]}],"bytecode":{"object":"0x6101806040523480156200001257600080fd5b5060405162005e8438038062005e84833981016040819052620000359162000923565b600482826040518060400160405280600a81526020016926bca3b7bb32b93737b960b11b815250806200006d6200018160201b60201c565b620000886000836200019c60201b62001c041790919060201c565b61012052620000a58160016200019c602090811b62001c0417901c565b61014052815160208084019190912060e052815190820120610100524660a0526200013360e05161010051604080517f8b73c3c69bb8fe3d512ecc4cf759cc79239f7b179b0ffacaa9a75d522b39400f60208201529081019290925260608201524660808201523060a082015260009060c00160405160208183030381529060405280519060200120905090565b60805250503060c0528051620001519060029060208401906200086e565b506200015f905081620001f0565b506001600160a01b031661016052620001788162000259565b50505062000a68565b6040805180820190915260018152603160f81b602082015290565b6000602083511015620001bc57620001b48362000412565b9050620001ea565b82620001d3836200045560201b62001c3b1760201c565b8151620001e492602001906200086e565b5060ff90505b92915050565b600654604080516001600160a01b03928316815291831660208301527f08f74ea46ef7894f65eabfb5e6e695de773a000b47c529ab559178069b226401910160405180910390a1600680546001600160a01b0319166001600160a01b0392909216919091179055565b6064811115620002e25760405162461bcd60e51b815260206004820152604360248201527f476f7665726e6f72566f74657351756f72756d4672616374696f6e3a2071756f60448201527f72756d4e756d657261746f72206f7665722071756f72756d44656e6f6d696e616064820152623a37b960e91b608482015260a4015b60405180910390fd5b6000620002ee62000458565b90508015801590620003005750600a54155b156200037b57600a6000016040518060400160405280600063ffffffff16815260200162000339846200049260201b62001c3e1760201c565b6001600160e01b0390811690915282546001810184556000938452602093849020835194909301519091166401000000000263ffffffff909316929092179101555b620003d3620003a66200038d62000501565b65ffffffffffff166200058360201b62001cab1760201c565b620003bc846200049260201b62001c3e1760201c565b600a620005ea60201b62001d10179092919060201c565b505060408051828152602081018490527f0553476bf02ef2726e8ce5ced78d63e26e602e4a2257b1f559418e24b4633997910160405180910390a15050565b600080829050601f8151111562000440578260405163305a27a960e01b8152600401620002d9919062000962565b80516200044d82620009ba565b179392505050565b90565b600a546000901562000489576200047b600a6200060760201b62001d2b1760201c565b6001600160e01b0316905090565b6009545b905090565b60006001600160e01b03821115620004fd5760405162461bcd60e51b815260206004820152602760248201527f53616665436173743a2076616c756520646f65736e27742066697420696e20326044820152663234206269747360c81b6064820152608401620002d9565b5090565b6000610160516001600160a01b03166391ddadf46040518163ffffffff1660e01b8152600401602060405180830381865afa92505050801562000563575060408051601f3d908101601f191682019092526200056091810190620009e2565b60015b6200057e576200048d436200065560201b62001d691760201c565b919050565b600063ffffffff821115620004fd5760405162461bcd60e51b815260206004820152602660248201527f53616665436173743a2076616c756520646f65736e27742066697420696e203360448201526532206269747360d01b6064820152608401620002d9565b600080620005fa858585620006be565b915091505b935093915050565b805460009080156200064b5762000633836200062560018462000a0c565b600091825260209091200190565b5464010000000090046001600160e01b03166200064e565b60005b9392505050565b600065ffffffffffff821115620004fd5760405162461bcd60e51b815260206004820152602660248201527f53616665436173743a2076616c756520646f65736e27742066697420696e203460448201526538206269747360d01b6064820152608401620002d9565b82546000908190801562000813576000620006e0876200062560018562000a0c565b60408051808201909152905463ffffffff8082168084526401000000009092046001600160e01b031660208401529192509087161015620007645760405162461bcd60e51b815260206004820152601b60248201527f436865636b706f696e743a2064656372656173696e67206b65797300000000006044820152606401620002d9565b805163ffffffff808816911603620007b2578462000789886200062560018662000a0c565b80546001600160e01b03929092166401000000000263ffffffff90921691909117905562000802565b6040805180820190915263ffffffff80881682526001600160e01b0380881660208085019182528b54600181018d5560008d81529190912094519151909216640100000000029216919091179101555b602001519250839150620005ff9050565b50506040805180820190915263ffffffff80851682526001600160e01b0380851660208085019182528854600181018a5560008a815291822095519251909316640100000000029190931617920191909155905081620005ff565b8280546200087c9062000a32565b90600052602060002090601f016020900481019282620008a05760008555620008eb565b82601f10620008bb57805160ff1916838001178555620008eb565b82800160010185558215620008eb579182015b82811115620008eb578251825591602001919060010190620008ce565b50620004fd9291505b80821115620004fd5760008155600101620008f4565b6001600160a01b03811681146200092057600080fd5b50565b600080604083850312156200093757600080fd5b825162000944816200090a565b602084015190925062000957816200090a565b809150509250929050565b600060208083528351808285015260005b81811015620009915785810183015185820160400152820162000973565b81811115620009a4576000604083870101525b50601f01601f1916929092016040019392505050565b80516020808301519190811015620009dc576000198160200360031b1b821691505b50919050565b600060208284031215620009f557600080fd5b815165ffffffffffff811681146200064e57600080fd5b60008282101562000a2d57634e487b7160e01b600052601160045260246000fd5b500390565b600181811c9082168062000a4757607f821691505b602082108103620009dc57634e487b7160e01b600052602260045260246000fd5b60805160a05160c05160e0516101005161012051610140516101605161539a62000aea60003960008181610b5d0152818161150d015281816117db0152818161290b0152612c0c015260006117870152600061175d01526000612fe601526000612fbe01526000612f1901526000612f4301526000612f6d015261539a6000f3fe6080604052600436106102cd5760003560e01c80637b3c71d311610175578063c28bc2fa116100dc578063deaaa7cc11610095578063f23a6e611161006f578063f23a6e6114610aff578063f8ce560a14610b2b578063fc0c546a14610b4b578063fe0d94c114610b7f57600080fd5b8063deaaa7cc146109e2578063e23a9a5214610a16578063eb9019d414610adf57600080fd5b8063c28bc2fa1461090b578063c59057e41461091e578063d33219b41461093e578063da95691a1461095c578063dd4e2ba51461097c578063ddf0b009146109c257600080fd5b8063a7713a701161012e578063a7713a7014610835578063a890c9101461084a578063ab58fb8e1461086a578063b58131b01461088a578063bc197c81146108a6578063c01f9e37146108d257600080fd5b80637b3c71d31461076d5780637d5e81e21461078d57806384b0196e146107ad57806391ddadf4146107d557806397c3d334146108015780639a802a6d1461081557600080fd5b80632fe3e2611161023457806343859632116101ed57806354fd4d50116101c757806354fd4d50146106e3578063567813881461070d5780635f398a141461072d57806360c4247f1461074d57600080fd5b80634385963214610665578063452115d6146106ae5780634bf5d7e9146106ce57600080fd5b80632fe3e26114610580578063328dd982146105b45780633932abb1146105e45780633bccf4fd146105f85780633e4f49e61461061857806340e58ee51461064557600080fd5b8063143489d011610286578063143489d014610469578063150b7a02146104be578063160cbed71461050257806324bc1a64146105225780632656227d146105375780632d63f6931461054a57600080fd5b8063013cf08b1461033d57806301ffc9a7146103b857806302a251a3146103e8578063034201811461040757806306f3f9e61461042757806306fdde031461044757600080fd5b3661033857306102db610b92565b6001600160a01b0316146103365760405162461bcd60e51b815260206004820152601f60248201527f476f7665726e6f723a206d7573742073656e6420746f206578656375746f720060448201526064015b60405180910390fd5b005b600080fd5b34801561034957600080fd5b5061035d6103583660046142dd565b610bab565b604080519a8b526001600160a01b0390991660208b0152978901969096526060880194909452608087019290925260a086015260c085015260e084015215156101008301521515610120820152610140015b60405180910390f35b3480156103c457600080fd5b506103d86103d33660046142f6565b610c77565b60405190151581526020016103af565b3480156103f457600080fd5b5061b2fa5b6040519081526020016103af565b34801561041357600080fd5b506103f961042236600461443c565b610c88565b34801561043357600080fd5b506103366104423660046142dd565b610d80565b34801561045357600080fd5b5061045c610e0a565b6040516103af919061453e565b34801561047557600080fd5b506104a66104843660046142dd565b600090815260036020526040902054600160401b90046001600160a01b031690565b6040516001600160a01b0390911681526020016103af565b3480156104ca57600080fd5b506104e96104d9366004614566565b630a85bd0160e11b949350505050565b6040516001600160e01b031990911681526020016103af565b34801561050e57600080fd5b506103f961051d36600461473d565b610e9c565b34801561052e57600080fd5b506103f961109d565b6103f961054536600461473d565b6110c3565b34801561055657600080fd5b506103f96105653660046142dd565b6000908152600360205260409020546001600160401b031690565b34801561058c57600080fd5b506103f97fb3b3f3b703cd84ce352197dcff232b1b5d3cfb2025ce47cf04742d0651f1af8881565b3480156105c057600080fd5b506105d46105cf3660046142dd565b6111b5565b6040516103af9493929190614898565b3480156105f057600080fd5b5060016103f9565b34801561060457600080fd5b506103f96106133660046148e5565b611446565b34801561062457600080fd5b506106386106333660046142dd565b6114bc565b6040516103af9190614949565b34801561065157600080fd5b506103366106603660046142dd565b6114c7565b34801561067157600080fd5b506103d8610680366004614971565b60008281526008602081815260408084206001600160a01b0386168552909201905290205460ff1692915050565b3480156106ba57600080fd5b506103f96106c936600461473d565b6114f2565b3480156106da57600080fd5b5061045c611509565b3480156106ef57600080fd5b506040805180820190915260018152603160f81b602082015261045c565b34801561071957600080fd5b506103f96107283660046149a1565b6115cb565b34801561073957600080fd5b506103f96107483660046149cd565b6115f4565b34801561075957600080fd5b506103f96107683660046142dd565b61163e565b34801561077957600080fd5b506103f9610788366004614a50565b6116ef565b34801561079957600080fd5b506103f96107a8366004614aa9565b611741565b3480156107b957600080fd5b506107c261174f565b6040516103af9796959493929190614b49565b3480156107e157600080fd5b506107ea6117d7565b60405165ffffffffffff90911681526020016103af565b34801561080d57600080fd5b5060646103f9565b34801561082157600080fd5b506103f9610830366004614bab565b611860565b34801561084157600080fd5b506103f9611877565b34801561085657600080fd5b50610336610865366004614c03565b6118a1565b34801561087657600080fd5b506103f96108853660046142dd565b611928565b34801561089657600080fd5b50683635c9adc5dea000006103f9565b3480156108b257600080fd5b506104e96108c1366004614c20565b63bc197c8160e01b95945050505050565b3480156108de57600080fd5b506103f96108ed3660046142dd565b6000908152600360205260409020600101546001600160401b031690565b610336610919366004614cb3565b6119c2565b34801561092a57600080fd5b506103f961093936600461473d565b611ad1565b34801561094a57600080fd5b506006546001600160a01b03166104a6565b34801561096857600080fd5b506103f9610977366004614cf6565b611b0b565b34801561098857600080fd5b5060408051808201909152601a81527f737570706f72743d627261766f2671756f72756d3d627261766f000000000000602082015261045c565b3480156109ce57600080fd5b506103366109dd3660046142dd565b611b92565b3480156109ee57600080fd5b506103f97f150214d74d59b7d1e90c73fc22ef3d991dd0a76b046543d4d80ab92d2a50328f81565b348015610a2257600080fd5b50610aaf610a31366004614971565b60408051606081018252600080825260208201819052918101919091525060009182526008602081815260408085206001600160a01b03949094168552929091018152918190208151606081018352905460ff8082161515835261010082041693820193909352620100009092046001600160601b03169082015290565b6040805182511515815260208084015160ff1690820152918101516001600160601b0316908201526060016103af565b348015610aeb57600080fd5b506103f9610afa366004614d97565b611bb5565b348015610b0b57600080fd5b506104e9610b1a366004614dc3565b63f23a6e6160e01b95945050505050565b348015610b3757600080fd5b506103f9610b463660046142dd565b611bd6565b348015610b5757600080fd5b506104a67f000000000000000000000000000000000000000000000000000000000000000081565b610336610b8d3660046142dd565b611be1565b6000610ba66006546001600160a01b031690565b905090565b8060008080808080808080610bbf8a611928565b60008c8152600360205260409020549098506001600160401b031660008c8152600360205260409020600101549097506001600160401b031660008c815260086020526040812080546005820154600683015460078401546001600160a01b039093169e50949a509850929650919450610c388d6114bc565b90506002816007811115610c4e57610c4e614933565b1493506007816007811115610c6557610c65614933565b14925050509193959799509193959799565b6000610c8282611dd0565b92915050565b600080610d2c610d247fb3b3f3b703cd84ce352197dcff232b1b5d3cfb2025ce47cf04742d0651f1af888c8c8c8c604051610cc4929190614e2b565b60405180910390208b80519060200120604051602001610d09959493929190948552602085019390935260ff9190911660408401526060830152608082015260a00190565b60405160208183030381529060405280519060200120611df5565b868686611e22565b9050610d728a828b8b8b8080601f0160208091040260200160405190810160405280939291908181526020018383808284376000920191909152508d9250611e40915050565b9a9950505050505050505050565b610d88610b92565b6001600160a01b0316336001600160a01b031614610db85760405162461bcd60e51b815260040161032d90614e3b565b30610dc1610b92565b6001600160a01b031614610dfe5760008036604051610de1929190614e2b565b604051809103902090505b80610df76004611f95565b03610dec57505b610e0781612014565b50565b606060028054610e1990614e72565b80601f0160208091040260200160405190810160405280929190818152602001828054610e4590614e72565b8015610e925780601f10610e6757610100808354040283529160200191610e92565b820191906000526020600020905b815481529060010190602001808311610e7557829003601f168201915b5050505050905090565b600080610eab86868686611ad1565b90506004610eb8826114bc565b6007811115610ec957610ec9614933565b14610ee65760405162461bcd60e51b815260040161032d90614eac565b6006546040805163793d064960e11b815290516000926001600160a01b03169163f27a0c929160048083019260209291908290030181865afa158015610f30573d6000803e3d6000fd5b505050506040513d601f19601f82011682018060405250810190610f549190614eed565b60065460405163b1c5f42760e01b81529192506001600160a01b03169063b1c5f42790610f8e908a908a908a906000908b90600401614f06565b602060405180830381865afa158015610fab573d6000803e3d6000fd5b505050506040513d601f19601f82011682018060405250810190610fcf9190614eed565b6000838152600760205260408082209290925560065491516308f2a0bb60e41b81526001600160a01b0390921691638f2a0bb09161101a918b918b918b91908b908990600401614f54565b600060405180830381600087803b15801561103457600080fd5b505af1158015611048573d6000803e3d6000fd5b505050507f9a2e42fd6722813d69113e7d0079d3d940171428df7373df9c7f7617cfda289282824261107a9190614fc2565b604080519283526020830191909152015b60405180910390a15095945050505050565b6000610ba660016110ac6117d7565b6110b69190614fda565b65ffffffffffff16611bd6565b6000806110d286868686611ad1565b905060006110df826114bc565b905060048160078111156110f5576110f5614933565b14806111125750600581600781111561111057611110614933565b145b61112e5760405162461bcd60e51b815260040161032d90614eac565b60008281526003602052604090819020600201805460ff19166001179055517f712ae1383f79ac853f8d882153778e0260ef8f03b504e2866e0593e04d2b291f9061117c9084815260200190565b60405180910390a16111918288888888612182565b61119e8288888888612222565b6111ab828888888861222f565b5095945050505050565b6060806060806000600860008781526020019081526020016000209050806001018160020182600301836004018380548060200260200160405190810160405280929190818152602001828054801561123757602002820191906000526020600020905b81546001600160a01b03168152600190910190602001808311611219575b505050505093508280548060200260200160405190810160405280929190818152602001828054801561128957602002820191906000526020600020905b815481526020019060010190808311611275575b5050505050925081805480602002602001604051908101604052809291908181526020016000905b8282101561135d5783829060005260206000200180546112d090614e72565b80601f01602080910402602001604051908101604052809291908181526020018280546112fc90614e72565b80156113495780601f1061131e57610100808354040283529160200191611349565b820191906000526020600020905b81548152906001019060200180831161132c57829003601f168201915b5050505050815260200190600101906112b1565b50505050915080805480602002602001604051908101604052809291908181526020016000905b828210156114305783829060005260206000200180546113a390614e72565b80601f01602080910402602001604051908101604052809291908181526020018280546113cf90614e72565b801561141c5780601f106113f15761010080835404028352916020019161141c565b820191906000526020600020905b8154815290600101906020018083116113ff57829003601f168201915b505050505081526020019060010190611384565b5050505090509450945094509450509193509193565b604080517f150214d74d59b7d1e90c73fc22ef3d991dd0a76b046543d4d80ab92d2a50328f602082015290810186905260ff85166060820152600090819061149490610d2490608001610d09565b90506114b187828860405180602001604052806000815250612268565b979650505050505050565b6000610c828261228b565b6000806000806114d6856123d5565b93509350935093506114ea848484846114f2565b505050505050565b600061150085858585612665565b95945050505050565b60607f00000000000000000000000000000000000000000000000000000000000000006001600160a01b0316634bf5d7e96040518163ffffffff1660e01b8152600401600060405180830381865afa92505050801561158a57506040513d6000823e601f3d908101601f191682016040526115879190810190615001565b60015b6115c6575060408051808201909152601d81527f6d6f64653d626c6f636b6e756d6265722666726f6d3d64656661756c74000000602082015290565b919050565b6000803390506115ec84828560405180602001604052806000815250612268565b949350505050565b6000803390506114b187828888888080601f0160208091040260200160405190810160405280939291908181526020018383808284376000920191909152508a9250611e40915050565b600a54600090808203611655575050600954919050565b6000600a61166460018461506e565b8154811061167457611674615085565b60009182526020918290206040805180820190915291015463ffffffff8116808352600160201b9091046001600160e01b031692820192909252915084106116ca57602001516001600160e01b03169392505050565b6116de6116d685611cab565b600a90612731565b6001600160e01b0316949350505050565b60008033905061173786828787878080601f01602080910402602001604051908101604052809392919081815260200183838082843760009201919091525061226892505050565b9695505050505050565b6000611500858585856127d6565b6000606080828080836117827f00000000000000000000000000000000000000000000000000000000000000008361283e565b6117ad7f0000000000000000000000000000000000000000000000000000000000000000600161283e565b60408051600080825260208201909252600f60f81b9b939a50919850469750309650945092509050565b60007f00000000000000000000000000000000000000000000000000000000000000006001600160a01b03166391ddadf46040518163ffffffff1660e01b8152600401602060405180830381865afa925050508015611853575060408051601f3d908101601f191682019092526118509181019061509b565b60015b6115c657610ba643611d69565b600061186d8484846128e2565b90505b9392505050565b600a546000901561189a5761188c600a611d2b565b6001600160e01b0316905090565b5060095490565b6118a9610b92565b6001600160a01b0316336001600160a01b0316146118d95760405162461bcd60e51b815260040161032d90614e3b565b306118e2610b92565b6001600160a01b03161461191f5760008036604051611902929190614e2b565b604051809103902090505b806119186004611f95565b0361190d57505b610e0781612978565b60065460008281526007602052604080822054905163d45c443560e01b81526004810191909152909182916001600160a01b039091169063d45c443590602401602060405180830381865afa158015611985573d6000803e3d6000fd5b505050506040513d601f19601f820116820180604052508101906119a99190614eed565b9050806001146119b95780611870565b60009392505050565b6119ca610b92565b6001600160a01b0316336001600160a01b0316146119fa5760405162461bcd60e51b815260040161032d90614e3b565b30611a03610b92565b6001600160a01b031614611a405760008036604051611a23929190614e2b565b604051809103902090505b80611a396004611f95565b03611a2e57505b600080856001600160a01b0316858585604051611a5e929190614e2b565b60006040518083038185875af1925050503d8060008114611a9b576040519150601f19603f3d011682016040523d82523d6000602084013e611aa0565b606091505b5091509150611ac8828260405180606001604052806028815260200161533d602891396129e1565b50505050505050565b600084848484604051602001611aea94939291906150c3565b60408051601f19818403018152919052805160209091012095945050505050565b60008251845114611b6f5760405162461bcd60e51b815260206004820152602860248201527f476f7665726e6f72427261766f3a20696e76616c6964207369676e61747572656044820152670e640d8cadccee8d60c31b606482015260840161032d565b611b7d3387878787876129fa565b6117378686611b8c8787612ab7565b85611741565b600080600080611ba1856123d5565b93509350935093506114ea84848484610e9c565b60006118708383611bd160408051602081019091526000815290565b6128e2565b6000610c8282612be9565b600080600080611bf0856123d5565b93509350935093506114ea848484846110c3565b6000602083511015611c2057611c1983612c93565b9050610c82565b82828151611c319260200190614093565b5060ff9050610c82565b90565b60006001600160e01b03821115611ca75760405162461bcd60e51b815260206004820152602760248201527f53616665436173743a2076616c756520646f65736e27742066697420696e20326044820152663234206269747360c81b606482015260840161032d565b5090565b600063ffffffff821115611ca75760405162461bcd60e51b815260206004820152602660248201527f53616665436173743a2076616c756520646f65736e27742066697420696e203360448201526532206269747360d01b606482015260840161032d565b600080611d1e858585612cd1565b915091505b935093915050565b805460009080156119b957611d5383611d4560018461506e565b600091825260209091200190565b54600160201b90046001600160e01b0316611870565b600065ffffffffffff821115611ca75760405162461bcd60e51b815260206004820152602660248201527f53616665436173743a2076616c756520646f65736e27742066697420696e203460448201526538206269747360d01b606482015260840161032d565b60006001600160e01b03198216636e665ced60e01b1480610c825750610c8282612e70565b6000610c82611e02612f0c565b8360405161190160f01b8152600281019290925260228201526042902090565b6000806000611e3387878787613037565b915091506111ab816130fb565b60008581526003602052604081206001611e59886114bc565b6007811115611e6a57611e6a614933565b14611ec35760405162461bcd60e51b815260206004820152602360248201527f476f7665726e6f723a20766f7465206e6f742063757272656e746c792061637460448201526269766560e81b606482015260840161032d565b8054600090611edd9088906001600160401b0316866128e2565b9050611eec8888888488613245565b8351600003611f4157866001600160a01b03167fb8e138887d0aa13bab447e82de9d5c1777041ecd21ca36ba824ff1e6c07ddda489888489604051611f34949392919061510e565b60405180910390a26114b1565b866001600160a01b03167fe2babfbac5889a709b63bb7f598b324e08bc5a4fb9ec647fb3cbc9ec07eb87128988848989604051611f82959493929190615136565b60405180910390a2979650505050505050565b6000611fb08254600f81810b600160801b909204900b131590565b15611fce57604051631ed9509560e11b815260040160405180910390fd5b508054600f0b6000818152600180840160205260408220805492905583546fffffffffffffffffffffffffffffffff191692016001600160801b03169190911790915590565b60648111156120975760405162461bcd60e51b815260206004820152604360248201527f476f7665726e6f72566f74657351756f72756d4672616374696f6e3a2071756f60448201527f72756d4e756d657261746f72206f7665722071756f72756d44656e6f6d696e616064820152623a37b960e91b608482015260a40161032d565b60006120a1611877565b905080158015906120b25750600a54155b15612116576040805180820190915260008152600a90602081016120d584611c3e565b6001600160e01b039081169091528254600181018455600093845260209384902083519490930151909116600160201b0263ffffffff909316929092179101555b6121436121316121246117d7565b65ffffffffffff16611cab565b61213a84611c3e565b600a9190611d10565b505060408051828152602081018490527f0553476bf02ef2726e8ce5ced78d63e26e602e4a2257b1f559418e24b4633997910160405180910390a15050565b3061218b610b92565b6001600160a01b03161461221b5760005b84518110156114ea57306001600160a01b03168582815181106121c1576121c1615085565b60200260200101516001600160a01b03160361220b5761220b8382815181106121ec576121ec615085565b60200260200101518051906020012060046133e190919063ffffffff16565b6122148161517c565b905061219c565b5050505050565b61221b858585858561341d565b30612238610b92565b6001600160a01b03161461221b57600454600f81810b600160801b909204900b131561221b57600060045561221b565b60006115008585858561228660408051602081019091526000815290565b611e40565b60008061229783613491565b905060048160078111156122ad576122ad614933565b146122b85792915050565b600083815260076020526040902054806122d3575092915050565b600654604051632ab0f52960e01b8152600481018390526001600160a01b0390911690632ab0f52990602401602060405180830381865afa15801561231c573d6000803e3d6000fd5b505050506040513d601f19601f820116820180604052508101906123409190615195565b1561234f575060079392505050565b600654604051632c258a9f60e11b8152600481018390526001600160a01b039091169063584b153e90602401602060405180830381865afa158015612398573d6000803e3d6000fd5b505050506040513d601f19601f820116820180604052508101906123bc9190615195565b156123cb575060059392505050565b5060029392505050565b606080606060008060086000878152602001908152602001600020905080600101816002016125a683600301805480602002602001604051908101604052809291908181526020016000905b828210156124cd57838290600052602060002001805461244090614e72565b80601f016020809104026020016040519081016040528092919081815260200182805461246c90614e72565b80156124b95780601f1061248e576101008083540402835291602001916124b9565b820191906000526020600020905b81548152906001019060200180831161249c57829003601f168201915b505050505081526020019060010190612421565b50505060048601805460408051602080840282018101909252828152935060009084015b8282101561259d57838290600052602060002001805461251090614e72565b80601f016020809104026020016040519081016040528092919081815260200182805461253c90614e72565b80156125895780601f1061255e57610100808354040283529160200191612589565b820191906000526020600020905b81548152906001019060200180831161256c57829003601f168201915b5050505050815260200190600101906124f1565b50505050612ab7565b60098401548354604080516020808402820181019092528281529186918301828280156125fc57602002820191906000526020600020905b81546001600160a01b031681526001909101906020018083116125de575b505050505093508280548060200260200160405190810160405280929190818152602001828054801561264e57602002820191906000526020600020905b81548152602001906001019080831161263a575b505050505092509450945094509450509193509193565b60008061267486868686611ad1565b6000818152600860205260409020549091506001600160a01b0316338114806126c95750683635c9adc5dea000006126c78260016126b06117d7565b6126ba9190614fda565b65ffffffffffff16611bb5565b105b6127255760405162461bcd60e51b815260206004820152602760248201527f476f7665726e6f72427261766f3a2070726f706f7365722061626f76652074686044820152661c995cda1bdb1960ca1b606482015260840161032d565b6114b1878787876135d4565b81546000908181600581111561278e57600061274c846135e2565b612756908561506e565b60008881526020902090915081015463ffffffff908116908716101561277e5780915061278c565b612789816001614fc2565b92505b505b600061279c878785856136ca565b905080156127c9576127b387611d4560018461506e565b54600160201b90046001600160e01b03166114b1565b6000979650505050505050565b600061283233868686516001600160401b038111156127f7576127f7614379565b60405190808252806020026020018201604052801561282a57816020015b60608152602001906001900390816128155790505b5087876129fa565b61150085858585613720565b606060ff831461285157611c1983613aee565b81805461285d90614e72565b80601f016020809104026020016040519081016040528092919081815260200182805461288990614e72565b80156128d65780601f106128ab576101008083540402835291602001916128d6565b820191906000526020600020905b8154815290600101906020018083116128b957829003601f168201915b50505050509050610c82565b604051630748d63560e31b81526001600160a01b038481166004830152602482018490526000917f000000000000000000000000000000000000000000000000000000000000000090911690633a46b1a890604401602060405180830381865afa158015612954573d6000803e3d6000fd5b505050506040513d601f19601f8201168201806040525081019061186d9190614eed565b600654604080516001600160a01b03928316815291831660208301527f08f74ea46ef7894f65eabfb5e6e695de773a000b47c529ab559178069b226401910160405180910390a1600680546001600160a01b0319166001600160a01b0392909216919091179055565b606083156129f0575081611870565b6118708383613b2d565b805160208201206000612a188787612a128888612ab7565b85611ad1565b6000818152600860205260409020600981015491925090612aac5780546001600160a01b0319166001600160a01b038a161781558751612a6190600183019060208b0190614113565b508651612a7790600283019060208a0190614168565b508551612a8d90600383019060208901906141a2565b508451612aa390600483019060208801906141fb565b50600981018390555b505050505050505050565b6060600082516001600160401b03811115612ad457612ad4614379565b604051908082528060200260200182016040528015612b0757816020015b6060815260200190600190039081612af25790505b50905060005b8151811015612be157848181518110612b2857612b28615085565b602002602001015151600014612b9857848181518110612b4a57612b4a615085565b602002602001015180519060200120848281518110612b6b57612b6b615085565b6020026020010151604051602001612b849291906151b7565b604051602081830303815290604052612bb3565b838181518110612baa57612baa615085565b60200260200101515b828281518110612bc557612bc5615085565b602002602001018190525080612bda9061517c565b9050612b0d565b509392505050565b60006064612bf68361163e565b604051632394e7a360e21b8152600481018590527f00000000000000000000000000000000000000000000000000000000000000006001600160a01b031690638e539e8c90602401602060405180830381865afa158015612c5b573d6000803e3d6000fd5b505050506040513d601f19601f82011682018060405250810190612c7f9190614eed565b612c8991906151e8565b610c82919061521d565b600080829050601f81511115612cbe578260405163305a27a960e01b815260040161032d919061453e565b8051612cc98261523f565b179392505050565b825460009081908015612e17576000612cef87611d4560018561506e565b60408051808201909152905463ffffffff808216808452600160201b9092046001600160e01b031660208401529192509087161015612d705760405162461bcd60e51b815260206004820152601b60248201527f436865636b706f696e743a2064656372656173696e67206b6579730000000000604482015260640161032d565b805163ffffffff808816911603612db85784612d9188611d4560018661506e565b80546001600160e01b0392909216600160201b0263ffffffff909216919091179055612e07565b6040805180820190915263ffffffff80881682526001600160e01b0380881660208085019182528b54600181018d5560008d81529190912094519151909216600160201b029216919091179101555b602001519250839150611d239050565b50506040805180820190915263ffffffff80851682526001600160e01b0380851660208085019182528854600181018a5560008a815291822095519251909316600160201b029190931617920191909155905081611d23565b600063288ace0360e11b6318df743f60e31b63bf26d89760e01b6379dd796f60e01b6001600160e01b03198616821480612eb657506001600160e01b0319868116908216145b80612ecd57506001600160e01b0319868116908516145b80612ee857506001600160e01b03198616630271189760e51b145b8061173757506301ffc9a760e01b6001600160e01b03198716149695505050505050565b6000306001600160a01b037f000000000000000000000000000000000000000000000000000000000000000016148015612f6557507f000000000000000000000000000000000000000000000000000000000000000046145b15612f8f57507f000000000000000000000000000000000000000000000000000000000000000090565b610ba6604080517f8b73c3c69bb8fe3d512ecc4cf759cc79239f7b179b0ffacaa9a75d522b39400f60208201527f0000000000000000000000000000000000000000000000000000000000000000918101919091527f000000000000000000000000000000000000000000000000000000000000000060608201524660808201523060a082015260009060c00160405160208183030381529060405280519060200120905090565b6000807f7fffffffffffffffffffffffffffffff5d576e7357a4501ddfe92f46681b20a083111561306e57506000905060036130f2565b6040805160008082526020820180845289905260ff881692820192909252606081018690526080810185905260019060a0016020604051602081039080840390855afa1580156130c2573d6000803e3d6000fd5b5050604051601f1901519150506001600160a01b0381166130eb576000600192509250506130f2565b9150600090505b94509492505050565b600081600481111561310f5761310f614933565b036131175750565b600181600481111561312b5761312b614933565b036131785760405162461bcd60e51b815260206004820152601860248201527f45434453413a20696e76616c6964207369676e61747572650000000000000000604482015260640161032d565b600281600481111561318c5761318c614933565b036131d95760405162461bcd60e51b815260206004820152601f60248201527f45434453413a20696e76616c6964207369676e6174757265206c656e67746800604482015260640161032d565b60038160048111156131ed576131ed614933565b03610e075760405162461bcd60e51b815260206004820152602260248201527f45434453413a20696e76616c6964207369676e6174757265202773272076616c604482015261756560f01b606482015260840161032d565b60008581526008602081815260408084206001600160a01b0389168552928301909152909120805460ff16156132d35760405162461bcd60e51b815260206004820152602d60248201527f476f7665726e6f72436f6d7061746962696c697479427261766f3a20766f746560448201526c08185b1c9958591e4818d85cdd609a1b606482015260840161032d565b805460ff86166101000261ffff199091161760011781556132f384613b57565b81546001600160601b039190911662010000026dffffffffffffffffffffffff00001990911617815560ff851661334357838260060160008282546133389190614fc2565b90915550611ac89050565b60001960ff86160161336357838260050160008282546133389190614fc2565b60011960ff86160161338357838260070160008282546133389190614fc2565b60405162461bcd60e51b815260206004820152602d60248201527f476f7665726e6f72436f6d7061746962696c697479427261766f3a20696e766160448201526c6c696420766f7465207479706560981b606482015260840161032d565b8154600160801b90819004600f0b6000818152600180860160205260409091209390935583546001600160801b03908116939091011602179055565b60065460405163e38335e560e01b81526001600160a01b039091169063e38335e5903490613458908890889088906000908990600401614f06565b6000604051808303818588803b15801561347157600080fd5b505af1158015613485573d6000803e3d6000fd5b50505050505050505050565b6000818152600360205260408120600281015460ff16156134b55750600792915050565b6002810154610100900460ff16156134d05750600292915050565b6000838152600360205260408120546001600160401b0316908190036135385760405162461bcd60e51b815260206004820152601d60248201527f476f7665726e6f723a20756e6b6e6f776e2070726f706f73616c206964000000604482015260640161032d565b60006135426117d7565b65ffffffffffff16905080821061355e57506000949350505050565b6000858152600360205260409020600101546001600160401b031681811061358c5750600195945050505050565b61359586613bbf565b80156135b7575060008681526008602052604090206006810154600590910154115b156135c85750600495945050505050565b50600395945050505050565b600061150085858585613bfd565b6000816000036135f457506000919050565b6000600161360184613caf565b901c6001901b9050600181848161361a5761361a615207565b048201901c9050600181848161363257613632615207565b048201901c9050600181848161364a5761364a615207565b048201901c9050600181848161366257613662615207565b048201901c9050600181848161367a5761367a615207565b048201901c9050600181848161369257613692615207565b048201901c905060018184816136aa576136aa615207565b048201901c9050611870818285816136c4576136c4615207565b04613d43565b60005b81831015612be15760006136e18484613d59565b60008781526020902090915063ffffffff86169082015463ffffffff16111561370c5780925061371a565b613717816001614fc2565b93505b506136cd565b60003361372d8184613d74565b6137795760405162461bcd60e51b815260206004820152601d60248201527f476f7665726e6f723a2070726f706f7365722072657374726963746564000000604482015260640161032d565b60006137836117d7565b65ffffffffffff169050683635c9adc5dea000006137a683610afa60018561506e565b101561380e5760405162461bcd60e51b815260206004820152603160248201527f476f7665726e6f723a2070726f706f73657220766f7465732062656c6f7720706044820152701c9bdc1bdcd85b081d1a1c995cda1bdb19607a1b606482015260840161032d565b60006138238888888880519060200120611ad1565b905086518851146138465760405162461bcd60e51b815260040161032d90615263565b85518851146138675760405162461bcd60e51b815260040161032d90615263565b60008851116138b85760405162461bcd60e51b815260206004820152601860248201527f476f7665726e6f723a20656d7074792070726f706f73616c0000000000000000604482015260640161032d565b6000818152600360205260409020546001600160401b0316156139275760405162461bcd60e51b815260206004820152602160248201527f476f7665726e6f723a2070726f706f73616c20616c72656164792065786973746044820152607360f81b606482015260840161032d565b6000613934600184614fc2565b9050600061394461b2fa83614fc2565b90506040518060e0016040528061395a84613e65565b6001600160401b031681526001600160a01b03871660208201526000604082015260600161398783613e65565b6001600160401b039081168252600060208084018290526040808501839052606094850183905288835260038252918290208551815492870151878501519186166001600160e01b031990941693909317600160401b6001600160a01b039094168402176001600160e01b0316600160e01b60e09290921c91909102178155938501516080860151908416921c0217600183015560a08301516002909201805460c09094015161ffff1990941692151561ff00191692909217610100931515939093029290921790558a517f7d84a6263ae0d98d3329bd7b46bb4e8d6f98cd35a7adb45c274c8b7fd5ebd5e091859188918e918e91811115613a8b57613a8b614379565b604051908082528060200260200182016040528015613abe57816020015b6060815260200190600190039081613aa95790505b508d88888f604051613ad8999897969594939291906152a4565b60405180910390a1509098975050505050505050565b60606000613afb83613ecd565b604080516020808252818301909252919250600091906020820181803683375050509182525060208101929092525090565b815115613b3d5781518083602001fd5b8060405162461bcd60e51b815260040161032d919061453e565b60006001600160601b03821115611ca75760405162461bcd60e51b815260206004820152602660248201527f53616665436173743a2076616c756520646f65736e27742066697420696e203960448201526536206269747360d01b606482015260840161032d565b60008181526008602052604081206005810154613bf4610b46856000908152600360205260409020546001600160401b031690565b11159392505050565b600080613c0c86868686613ef5565b60008181526007602052604090205490915015611500576006546000828152600760205260409081902054905163c4d252f560e01b81526001600160a01b039092169163c4d252f591613c659160040190815260200190565b600060405180830381600087803b158015613c7f57600080fd5b505af1158015613c93573d6000803e3d6000fd5b5050506000828152600760205260408120555095945050505050565b600080608083901c15613cc457608092831c92015b604083901c15613cd657604092831c92015b602083901c15613ce857602092831c92015b601083901c15613cfa57601092831c92015b600883901c15613d0c57600892831c92015b600483901c15613d1e57600492831c92015b600283901c15613d3057600292831c92015b600183901c15610c825760010192915050565b6000818310613d525781611870565b5090919050565b6000613d68600284841861521d565b61187090848416614fc2565b80516000906034811015613d8c576001915050610c82565b82810160131901516001600160a01b031981166b046e0e4dee0dee6cae47a60f60a31b14613dbf57600192505050610c82565b600080613dcd60288561506e565b90505b83811015613e4457600080613e04888481518110613df057613df0615085565b01602001516001600160f81b031916614001565b9150915081613e1c5760019650505050505050610c82565b8060ff166004856001600160a01b0316901b179350505080613e3d9061517c565b9050613dd0565b50856001600160a01b0316816001600160a01b031614935050505092915050565b60006001600160401b03821115611ca75760405162461bcd60e51b815260206004820152602660248201527f53616665436173743a2076616c756520646f65736e27742066697420696e203660448201526534206269747360d01b606482015260840161032d565b600060ff8216601f811115610c8257604051632cd44ac360e21b815260040160405180910390fd5b600080613f0486868686611ad1565b90506000613f11826114bc565b90506002816007811115613f2757613f27614933565b14158015613f4757506006816007811115613f4457613f44614933565b14155b8015613f6557506007816007811115613f6257613f62614933565b14155b613fb15760405162461bcd60e51b815260206004820152601d60248201527f476f7665726e6f723a2070726f706f73616c206e6f7420616374697665000000604482015260640161032d565b60008281526003602052604090819020600201805461ff001916610100179055517f789cf55be980739dad1d0699b93b58e806b51c9d96619bfa8fe0a28abaa7b30c9061108b9084815260200190565b60008060f883901c602f8111801561401c5750603a8160ff16105b1561403157600194602f199091019350915050565b8060ff166040108015614047575060478160ff16105b1561405c576001946036199091019350915050565b8060ff166060108015614072575060678160ff16105b15614087576001946056199091019350915050565b50600093849350915050565b82805461409f90614e72565b90600052602060002090601f0160209004810192826140c15760008555614107565b82601f106140da57805160ff1916838001178555614107565b82800160010185558215614107579182015b828111156141075782518255916020019190600101906140ec565b50611ca7929150614254565b828054828255906000526020600020908101928215614107579160200282015b8281111561410757825182546001600160a01b0319166001600160a01b03909116178255602090920191600190910190614133565b82805482825590600052602060002090810192821561410757916020028201828111156141075782518255916020019190600101906140ec565b8280548282559060005260206000209081019282156141ef579160200282015b828111156141ef57825180516141df918491602090910190614093565b50916020019190600101906141c2565b50611ca7929150614269565b828054828255906000526020600020908101928215614248579160200282015b828111156142485782518051614238918491602090910190614093565b509160200191906001019061421b565b50611ca7929150614286565b5b80821115611ca75760008155600101614255565b80821115611ca757600061427d82826142a3565b50600101614269565b80821115611ca757600061429a82826142a3565b50600101614286565b5080546142af90614e72565b6000825580601f106142bf575050565b601f016020900490600052602060002090810190610e079190614254565b6000602082840312156142ef57600080fd5b5035919050565b60006020828403121561430857600080fd5b81356001600160e01b03198116811461187057600080fd5b803560ff811681146115c657600080fd5b60008083601f84011261434357600080fd5b5081356001600160401b0381111561435a57600080fd5b60208301915083602082850101111561437257600080fd5b9250929050565b634e487b7160e01b600052604160045260246000fd5b604051601f8201601f191681016001600160401b03811182821017156143b7576143b7614379565b604052919050565b60006001600160401b038211156143d8576143d8614379565b50601f01601f191660200190565b600082601f8301126143f757600080fd5b813561440a614405826143bf565b61438f565b81815284602083860101111561441f57600080fd5b816020850160208301376000918101602001919091529392505050565b60008060008060008060008060e0898b03121561445857600080fd5b8835975061446860208a01614320565b965060408901356001600160401b038082111561448457600080fd5b6144908c838d01614331565b909850965060608b01359150808211156144a957600080fd5b506144b68b828c016143e6565b9450506144c560808a01614320565b925060a0890135915060c089013590509295985092959890939650565b60005b838110156144fd5781810151838201526020016144e5565b8381111561450c576000848401525b50505050565b6000815180845261452a8160208601602086016144e2565b601f01601f19169290920160200192915050565b6020815260006118706020830184614512565b6001600160a01b0381168114610e0757600080fd5b6000806000806080858703121561457c57600080fd5b843561458781614551565b9350602085013561459781614551565b92506040850135915060608501356001600160401b038111156145b957600080fd5b6145c5878288016143e6565b91505092959194509250565b60006001600160401b038211156145ea576145ea614379565b5060051b60200190565b600082601f83011261460557600080fd5b81356020614615614405836145d1565b82815260059290921b8401810191818101908684111561463457600080fd5b8286015b8481101561465857803561464b81614551565b8352918301918301614638565b509695505050505050565b600082601f83011261467457600080fd5b81356020614684614405836145d1565b82815260059290921b840181019181810190868411156146a357600080fd5b8286015b8481101561465857803583529183019183016146a7565b600082601f8301126146cf57600080fd5b813560206146df614405836145d1565b82815260059290921b840181019181810190868411156146fe57600080fd5b8286015b848110156146585780356001600160401b038111156147215760008081fd5b61472f8986838b01016143e6565b845250918301918301614702565b6000806000806080858703121561475357600080fd5b84356001600160401b038082111561476a57600080fd5b614776888389016145f4565b9550602087013591508082111561478c57600080fd5b61479888838901614663565b945060408701359150808211156147ae57600080fd5b506147bb878288016146be565b949793965093946060013593505050565b600081518084526020808501945080840160005b838110156148055781516001600160a01b0316875295820195908201906001016147e0565b509495945050505050565b600081518084526020808501945080840160005b8381101561480557815187529582019590820190600101614824565b600082825180855260208086019550808260051b84010181860160005b8481101561488b57601f19868403018952614879838351614512565b9884019892509083019060010161485d565b5090979650505050505050565b6080815260006148ab60808301876147cc565b82810360208401526148bd8187614810565b905082810360408401526148d18186614840565b905082810360608401526114b18185614840565b600080600080600060a086880312156148fd57600080fd5b8535945061490d60208701614320565b935061491b60408701614320565b94979396509394606081013594506080013592915050565b634e487b7160e01b600052602160045260246000fd5b602081016008831061496b57634e487b7160e01b600052602160045260246000fd5b91905290565b6000806040838503121561498457600080fd5b82359150602083013561499681614551565b809150509250929050565b600080604083850312156149b457600080fd5b823591506149c460208401614320565b90509250929050565b6000806000806000608086880312156149e557600080fd5b853594506149f560208701614320565b935060408601356001600160401b0380821115614a1157600080fd5b614a1d89838a01614331565b90955093506060880135915080821115614a3657600080fd5b50614a43888289016143e6565b9150509295509295909350565b60008060008060608587031215614a6657600080fd5b84359350614a7660208601614320565b925060408501356001600160401b03811115614a9157600080fd5b614a9d87828801614331565b95989497509550505050565b60008060008060808587031215614abf57600080fd5b84356001600160401b0380821115614ad657600080fd5b614ae2888389016145f4565b95506020870135915080821115614af857600080fd5b614b0488838901614663565b94506040870135915080821115614b1a57600080fd5b614b26888389016146be565b93506060870135915080821115614b3c57600080fd5b506145c5878288016143e6565b60ff60f81b8816815260e060208201526000614b6860e0830189614512565b8281036040840152614b7a8189614512565b606084018890526001600160a01b038716608085015260a0840186905283810360c08501529050610d728185614810565b600080600060608486031215614bc057600080fd5b8335614bcb81614551565b92506020840135915060408401356001600160401b03811115614bed57600080fd5b614bf9868287016143e6565b9150509250925092565b600060208284031215614c1557600080fd5b813561187081614551565b600080600080600060a08688031215614c3857600080fd5b8535614c4381614551565b94506020860135614c5381614551565b935060408601356001600160401b0380821115614c6f57600080fd5b614c7b89838a01614663565b94506060880135915080821115614c9157600080fd5b614c9d89838a01614663565b93506080880135915080821115614a3657600080fd5b60008060008060608587031215614cc957600080fd5b8435614cd481614551565b93506020850135925060408501356001600160401b03811115614a9157600080fd5b600080600080600060a08688031215614d0e57600080fd5b85356001600160401b0380821115614d2557600080fd5b614d3189838a016145f4565b96506020880135915080821115614d4757600080fd5b614d5389838a01614663565b95506040880135915080821115614d6957600080fd5b614d7589838a016146be565b94506060880135915080821115614d8b57600080fd5b614c9d89838a016146be565b60008060408385031215614daa57600080fd5b8235614db581614551565b946020939093013593505050565b600080600080600060a08688031215614ddb57600080fd5b8535614de681614551565b94506020860135614df681614551565b9350604086013592506060860135915060808601356001600160401b03811115614e1f57600080fd5b614a43888289016143e6565b8183823760009101908152919050565b60208082526018908201527f476f7665726e6f723a206f6e6c79476f7665726e616e63650000000000000000604082015260600190565b600181811c90821680614e8657607f821691505b602082108103614ea657634e487b7160e01b600052602260045260246000fd5b50919050565b60208082526021908201527f476f7665726e6f723a2070726f706f73616c206e6f74207375636365737366756040820152601b60fa1b606082015260800190565b600060208284031215614eff57600080fd5b5051919050565b60a081526000614f1960a08301886147cc565b8281036020840152614f2b8188614810565b90508281036040840152614f3f8187614840565b60608401959095525050608001529392505050565b60c081526000614f6760c08301896147cc565b8281036020840152614f798189614810565b90508281036040840152614f8d8188614840565b60608401969096525050608081019290925260a0909101529392505050565b634e487b7160e01b600052601160045260246000fd5b60008219821115614fd557614fd5614fac565b500190565b600065ffffffffffff83811690831681811015614ff957614ff9614fac565b039392505050565b60006020828403121561501357600080fd5b81516001600160401b0381111561502957600080fd5b8201601f8101841361503a57600080fd5b8051615048614405826143bf565b81815285602083850101111561505d57600080fd5b6115008260208301602086016144e2565b60008282101561508057615080614fac565b500390565b634e487b7160e01b600052603260045260246000fd5b6000602082840312156150ad57600080fd5b815165ffffffffffff8116811461187057600080fd5b6080815260006150d660808301876147cc565b82810360208401526150e88187614810565b905082810360408401526150fc8186614840565b91505082606083015295945050505050565b84815260ff841660208201528260408201526080606082015260006117376080830184614512565b85815260ff8516602082015283604082015260a06060820152600061515e60a0830185614512565b82810360808401526151708185614512565b98975050505050505050565b60006001820161518e5761518e614fac565b5060010190565b6000602082840312156151a757600080fd5b8151801515811461187057600080fd5b6001600160e01b03198316815281516000906151da8160048501602087016144e2565b919091016004019392505050565b600081600019048311821515161561520257615202614fac565b500290565b634e487b7160e01b600052601260045260246000fd5b60008261523a57634e487b7160e01b600052601260045260246000fd5b500490565b80516020808301519190811015614ea65760001960209190910360031b1b16919050565b60208082526021908201527f476f7665726e6f723a20696e76616c69642070726f706f73616c206c656e67746040820152600d60fb1b606082015260800190565b8981526001600160a01b0389166020820152610120604082018190526000906152cf8382018b6147cc565b905082810360608401526152e3818a614810565b905082810360808401526152f78189614840565b905082810360a084015261530b8188614840565b90508560c08401528460e084015282810361010084015261532c8185614512565b9c9b50505050505050505050505056fe476f7665726e6f723a2072656c617920726576657274656420776974686f7574206d657373616765a264697066735822122054c26aab5eb4294f955579c7e79dde52df4da3aa986c062ce472ba00971dc2b664736f6c634300080d0033","linkReferences":{}},"methodIdentifiers":{"BALLOT_TYPEHASH()":"deaaa7cc","CLOCK_MODE()":"4bf5d7e9","COUNTING_MODE()":"dd4e2ba5","EXTENDED_BALLOT_TYPEHASH()":"2fe3e261","cancel(address[],uint256[],bytes[],bytes32)":"452115d6","cancel(uint256)":"40e58ee5","castVote(uint256,uint8)":"56781388","castVoteBySig(uint256,uint8,uint8,bytes32,bytes32)":"3bccf4fd","castVoteWithReason(uint256,uint8,string)":"7b3c71d3","castVoteWithReasonAndParams(uint256,uint8,string,bytes)":"5f398a14","castVoteWithReasonAndParamsBySig(uint256,uint8,string,bytes,uint8,bytes32,bytes32)":"03420181","clock()":"91ddadf4","eip712Domain()":"84b0196e","execute(address[],uint256[],bytes[],bytes32)":"2656227d","execute(uint256)":"fe0d94c1","getActions(uint256)":"328dd982","getReceipt(uint256,address)":"e23a9a52","getVotes(address,uint256)":"eb9019d4","getVotesWithParams(address,uint256,bytes)":"9a802a6d","hasVoted(uint256,address)":"43859632","hashProposal(address[],uint256[],bytes[],bytes32)":"c59057e4","name()":"06fdde03","onERC1155BatchReceived(address,address,uint256[],uint256[],bytes)":"bc197c81","onERC1155Received(address,address,uint256,uint256,bytes)":"f23a6e61","onERC721Received(address,address,uint256,bytes)":"150b7a02","proposalDeadline(uint256)":"c01f9e37","proposalEta(uint256)":"ab58fb8e","proposalProposer(uint256)":"143489d0","proposalSnapshot(uint256)":"2d63f693","proposalThreshold()":"b58131b0","proposals(uint256)":"013cf08b","propose(address[],uint256[],bytes[],string)":"7d5e81e2","propose(address[],uint256[],string[],bytes[],string)":"da95691a","queue(address[],uint256[],bytes[],bytes32)":"160cbed7","queue(uint256)":"ddf0b009","quorum(uint256)":"f8ce560a","quorumDenominator()":"97c3d334","quorumNumerator()":"a7713a70","quorumNumerator(uint256)":"60c4247f","quorumVotes()":"24bc1a64","relay(address,uint256,bytes)":"c28bc2fa","state(uint256)":"3e4f49e6","supportsInterface(bytes4)":"01ffc9a7","timelock()":"d33219b4","token()":"fc0c546a","updateQuorumNumerator(uint256)":"06f3f9e6","updateTimelock(address)":"a890c910","version()":"54fd4d50","votingDelay()":"3932abb1","votingPeriod()":"02a251a3"},"id":165}