{"abi":[{"type":"function","name":"bytesMap","inputs":[{"name":"","type":"uint256","internalType":"uint256"}],"outputs":[{"name":"","type":"bytes","internalType":"bytes"}],"stateMutability":"view"},{"type":"function","name":"getAddress","inputs":[{"name":"slot","type":"bytes32","internalType":"bytes32"}],"outputs":[{"name":"","type":"address","internalType":"address"}],"stateMutability":"view"},{"type":"function","name":"getBoolean","inputs":[{"name":"slot","type":"bytes32","internalType":"bytes32"}],"outputs":[{"name":"","type":"bool","internalType":"bool"}],"stateMutability":"view"},{"type":"function","name":"getBytes","inputs":[{"name":"slot","type":"bytes32","internalType":"bytes32"}],"outputs":[{"name":"","type":"bytes","internalType":"bytes"}],"stateMutability":"view"},{"type":"function","name":"getBytes32","inputs":[{"name":"slot","type":"bytes32","internalType":"bytes32"}],"outputs":[{"name":"","type":"bytes32","internalType":"bytes32"}],"stateMutability":"view"},{"type":"function","name":"getBytesStorage","inputs":[{"name":"key","type":"uint256","internalType":"uint256"}],"outputs":[{"name":"","type":"bytes","internalType":"bytes"}],"stateMutability":"view"},{"type":"function","name":"getString","inputs":[{"name":"slot","type":"bytes32","internalType":"bytes32"}],"outputs":[{"name":"","type":"string","internalType":"string"}],"stateMutability":"view"},{"type":"function","name":"getStringStorage","inputs":[{"name":"key","type":"uint256","internalType":"uint256"}],"outputs":[{"name":"","type":"string","internalType":"string"}],"stateMutability":"view"},{"type":"function","name":"getUint256","inputs":[{"name":"slot","type":"bytes32","internalType":"bytes32"}],"outputs":[{"name":"","type":"uint256","internalType":"uint256"}],"stateMutability":"view"},{"type":"function","name":"setAddress","inputs":[{"name":"slot","type":"bytes32","internalType":"bytes32"},{"name":"value","type":"address","internalType":"address"}],"outputs":[],"stateMutability":"nonpayable"},{"type":"function","name":"setBoolean","inputs":[{"name":"slot","type":"bytes32","internalType":"bytes32"},{"name":"value","type":"bool","internalType":"bool"}],"outputs":[],"stateMutability":"nonpayable"},{"type":"function","name":"setBytes","inputs":[{"name":"slot","type":"bytes32","internalType":"bytes32"},{"name":"value","type":"bytes","internalType":"bytes"}],"outputs":[],"stateMutability":"nonpayable"},{"type":"function","name":"setBytes32","inputs":[{"name":"slot","type":"bytes32","internalType":"bytes32"},{"name":"value","type":"bytes32","internalType":"bytes32"}],"outputs":[],"stateMutability":"nonpayable"},{"type":"function","name":"setBytesStorage","inputs":[{"name":"key","type":"uint256","internalType":"uint256"},{"name":"value","type":"bytes","internalType":"bytes"}],"outputs":[],"stateMutability":"nonpayable"},{"type":"function","name":"setString","inputs":[{"name":"slot","type":"bytes32","internalType":"bytes32"},{"name":"value","type":"string","internalType":"string"}],"outputs":[],"stateMutability":"nonpayable"},{"type":"function","name":"setStringStorage","inputs":[{"name":"key","type":"uint256","internalType":"uint256"},{"name":"value","type":"string","internalType":"string"}],"outputs":[],"stateMutability":"nonpayable"},{"type":"function","name":"setUint256","inputs":[{"name":"slot","type":"bytes32","internalType":"bytes32"},{"name":"value","type":"uint256","internalType":"uint256"}],"outputs":[],"stateMutability":"nonpayable"},{"type":"function","name":"stringMap","inputs":[{"name":"","type":"uint256","internalType":"uint256"}],"outputs":[{"name":"","type":"string","internalType":"string"}],"stateMutability":"view"}],"bytecode":{"object":"0x6080604052348015600e575f5ffd5b506107368061001c5f395ff3fe608060405234801561000f575f5ffd5b5060043610610111575f3560e01c80635a46e25d1161009e578063a6ed563e1161006e578063a6ed563e14610199578063c031a18014610216578063ca446dd91461023c578063df6e58d614610267578063f8715b3e1461027a575f5ffd5b80635a46e25d146102035780636e89955014610186578063986e791a146102165780639b22f34314610229575f5ffd5b806333598b00116100e457806333598b00146101995780633848207a146101b95780633e60bd78146101de5780634e91db08146101f15780634f3029c2146101f1575f5ffd5b80630afb30ba146101155780631e133d0f1461012a57806321f8a721146101535780632e28d08414610186575b5f5ffd5b610128610123366004610488565b610296565b005b61013d6101383660046104d0565b6102ba565b60405161014a9190610515565b60405180910390f35b61016e6101613660046104d0565b546001600160a01b031690565b6040516001600160a01b03909116815260200161014a565b610128610194366004610488565b610351565b6101ab6101a73660046104d0565b5490565b60405190815260200161014a565b6101ce6101c73660046104d0565b5460ff1690565b604051901515815260200161014a565b6101286101ec366004610488565b610359565b6101286101ff36600461052e565b9055565b61013d6102113660046104d0565b61036f565b61013d6102243660046104d0565b610387565b61013d6102373660046104d0565b610419565b61012861024a36600461054e565b81546001600160a01b0319166001600160a01b0391909116179055565b61013d6102753660046104d0565b61042e565b610128610288366004610587565b815460ff1916901515179055565b5f838152600160205260409020829082905b916102b4919083610646565b50505050565b5f60208190529081526040902080546102d2906105c2565b80601f01602080910402602001604051908101604052809291908181526020018280546102fe906105c2565b80156103495780601f1061032057610100808354040283529160200191610349565b820191905f5260205f20905b81548152906001019060200180831161032c57829003601f168201915b505050505081565b8181846102a8565b5f838152602081905260409020829082906102a8565b60016020525f9081526040902080546102d2906105c2565b6060815b8054610396906105c2565b80601f01602080910402602001604051908101604052809291908181526020018280546103c2906105c2565b801561040d5780601f106103e45761010080835404028352916020019161040d565b820191905f5260205f20905b8154815290600101906020018083116103f057829003601f168201915b50505050509050919050565b5f81815260016020526040902060609061038b565b5f81815260208190526040902060609061038b565b5f5f83601f840112610453575f5ffd5b50813567ffffffffffffffff81111561046a575f5ffd5b602083019150836020828501011115610481575f5ffd5b9250929050565b5f5f5f6040848603121561049a575f5ffd5b83359250602084013567ffffffffffffffff8111156104b7575f5ffd5b6104c386828701610443565b9497909650939450505050565b5f602082840312156104e0575f5ffd5b5035919050565b5f81518084528060208401602086015e5f602082860101526020601f19601f83011685010191505092915050565b602081525f61052760208301846104e7565b9392505050565b5f5f6040838503121561053f575f5ffd5b50508035926020909101359150565b5f5f6040838503121561055f575f5ffd5b8235915060208301356001600160a01b038116811461057c575f5ffd5b809150509250929050565b5f5f60408385031215610598575f5ffd5b823591506020830135801515811461057c575f5ffd5b634e487b7160e01b5f52604160045260245ffd5b600181811c908216806105d657607f821691505b6020821081036105f457634e487b7160e01b5f52602260045260245ffd5b50919050565b601f82111561064157805f5260205f20601f840160051c8101602085101561061f5750805b601f840160051c820191505b8181101561063e575f815560010161062b565b50505b505050565b67ffffffffffffffff83111561065e5761065e6105ae565b6106728361066c83546105c2565b836105fa565b5f601f8411600181146106a3575f851561068c5750838201355b5f19600387901b1c1916600186901b17835561063e565b5f83815260208120601f198716915b828110156106d257868501358255602094850194600190920191016106b2565b50868210156106ee575f1960f88860031b161c19848701351681555b505060018560011b018355505050505056fea264697066735822122076e586754c36a367a17f47f19bb9921c25d4ec72003109287dc576e84535ad6d64736f6c634300081c0033","linkReferences":{}},"methodIdentifiers":{"bytesMap(uint256)":"5a46e25d","getAddress(bytes32)":"21f8a721","getBoolean(bytes32)":"3848207a","getBytes(bytes32)":"c031a180","getBytes32(bytes32)":"a6ed563e","getBytesStorage(uint256)":"9b22f343","getString(bytes32)":"986e791a","getStringStorage(uint256)":"df6e58d6","getUint256(bytes32)":"33598b00","setAddress(bytes32,address)":"ca446dd9","setBoolean(bytes32,bool)":"f8715b3e","setBytes(bytes32,bytes)":"2e28d084","setBytes32(bytes32,bytes32)":"4e91db08","setBytesStorage(uint256,bytes)":"0afb30ba","setString(bytes32,string)":"6e899550","setStringStorage(uint256,string)":"3e60bd78","setUint256(bytes32,uint256)":"4f3029c2","stringMap(uint256)":"1e133d0f"},"id":129}