{"abi":[{"type":"function","name":"DEFAULT_ADMIN_ROLE","inputs":[],"outputs":[{"name":"","type":"bytes32","internalType":"bytes32"}],"stateMutability":"view"},{"type":"function","name":"MINTER_ROLE","inputs":[],"outputs":[{"name":"","type":"bytes32","internalType":"bytes32"}],"stateMutability":"view"},{"type":"function","name":"PAUSER_ROLE","inputs":[],"outputs":[{"name":"","type":"bytes32","internalType":"bytes32"}],"stateMutability":"view"},{"type":"function","name":"approve","inputs":[{"name":"to","type":"address","internalType":"address"},{"name":"tokenId","type":"uint256","internalType":"uint256"}],"outputs":[],"stateMutability":"nonpayable"},{"type":"function","name":"balanceOf","inputs":[{"name":"owner","type":"address","internalType":"address"}],"outputs":[{"name":"","type":"uint256","internalType":"uint256"}],"stateMutability":"view"},{"type":"function","name":"burn","inputs":[{"name":"tokenId","type":"uint256","internalType":"uint256"}],"outputs":[],"stateMutability":"nonpayable"},{"type":"function","name":"getApproved","inputs":[{"name":"tokenId","type":"uint256","internalType":"uint256"}],"outputs":[{"name":"","type":"address","internalType":"address"}],"stateMutability":"view"},{"type":"function","name":"getRoleAdmin","inputs":[{"name":"role","type":"bytes32","internalType":"bytes32"}],"outputs":[{"name":"","type":"bytes32","internalType":"bytes32"}],"stateMutability":"view"},{"type":"function","name":"getRoleMember","inputs":[{"name":"role","type":"bytes32","internalType":"bytes32"},{"name":"index","type":"uint256","internalType":"uint256"}],"outputs":[{"name":"","type":"address","internalType":"address"}],"stateMutability":"view"},{"type":"function","name":"getRoleMemberCount","inputs":[{"name":"role","type":"bytes32","internalType":"bytes32"}],"outputs":[{"name":"","type":"uint256","internalType":"uint256"}],"stateMutability":"view"},{"type":"function","name":"grantRole","inputs":[{"name":"role","type":"bytes32","internalType":"bytes32"},{"name":"account","type":"address","internalType":"address"}],"outputs":[],"stateMutability":"nonpayable"},{"type":"function","name":"hasRole","inputs":[{"name":"role","type":"bytes32","internalType":"bytes32"},{"name":"account","type":"address","internalType":"address"}],"outputs":[{"name":"","type":"bool","internalType":"bool"}],"stateMutability":"view"},{"type":"function","name":"initialize","inputs":[{"name":"name","type":"string","internalType":"string"},{"name":"symbol","type":"string","internalType":"string"},{"name":"baseTokenURI","type":"string","internalType":"string"}],"outputs":[],"stateMutability":"nonpayable"},{"type":"function","name":"isApprovedForAll","inputs":[{"name":"owner","type":"address","internalType":"address"},{"name":"operator","type":"address","internalType":"address"}],"outputs":[{"name":"","type":"bool","internalType":"bool"}],"stateMutability":"view"},{"type":"function","name":"mint","inputs":[{"name":"to","type":"address","internalType":"address"}],"outputs":[],"stateMutability":"nonpayable"},{"type":"function","name":"name","inputs":[],"outputs":[{"name":"","type":"string","internalType":"string"}],"stateMutability":"view"},{"type":"function","name":"ownerOf","inputs":[{"name":"tokenId","type":"uint256","internalType":"uint256"}],"outputs":[{"name":"","type":"address","internalType":"address"}],"stateMutability":"view"},{"type":"function","name":"pause","inputs":[],"outputs":[],"stateMutability":"nonpayable"},{"type":"function","name":"paused","inputs":[],"outputs":[{"name":"","type":"bool","internalType":"bool"}],"stateMutability":"view"},{"type":"function","name":"renounceRole","inputs":[{"name":"role","type":"bytes32","internalType":"bytes32"},{"name":"account","type":"address","internalType":"address"}],"outputs":[],"stateMutability":"nonpayable"},{"type":"function","name":"revokeRole","inputs":[{"name":"role","type":"bytes32","internalType":"bytes32"},{"name":"account","type":"address","internalType":"address"}],"outputs":[],"stateMutability":"nonpayable"},{"type":"function","name":"safeTransferFrom","inputs":[{"name":"from","type":"address","internalType":"address"},{"name":"to","type":"address","internalType":"address"},{"name":"tokenId","type":"uint256","internalType":"uint256"}],"outputs":[],"stateMutability":"nonpayable"},{"type":"function","name":"safeTransferFrom","inputs":[{"name":"from","type":"address","internalType":"address"},{"name":"to","type":"address","internalType":"address"},{"name":"tokenId","type":"uint256","internalType":"uint256"},{"name":"data","type":"bytes","internalType":"bytes"}],"outputs":[],"stateMutability":"nonpayable"},{"type":"function","name":"setApprovalForAll","inputs":[{"name":"operator","type":"address","internalType":"address"},{"name":"approved","type":"bool","internalType":"bool"}],"outputs":[],"stateMutability":"nonpayable"},{"type":"function","name":"supportsInterface","inputs":[{"name":"interfaceId","type":"bytes4","internalType":"bytes4"}],"outputs":[{"name":"","type":"bool","internalType":"bool"}],"stateMutability":"view"},{"type":"function","name":"symbol","inputs":[],"outputs":[{"name":"","type":"string","internalType":"string"}],"stateMutability":"view"},{"type":"function","name":"tokenByIndex","inputs":[{"name":"index","type":"uint256","internalType":"uint256"}],"outputs":[{"name":"","type":"uint256","internalType":"uint256"}],"stateMutability":"view"},{"type":"function","name":"tokenOfOwnerByIndex","inputs":[{"name":"owner","type":"address","internalType":"address"},{"name":"index","type":"uint256","internalType":"uint256"}],"outputs":[{"name":"","type":"uint256","internalType":"uint256"}],"stateMutability":"view"},{"type":"function","name":"tokenURI","inputs":[{"name":"tokenId","type":"uint256","internalType":"uint256"}],"outputs":[{"name":"","type":"string","internalType":"string"}],"stateMutability":"view"},{"type":"function","name":"totalSupply","inputs":[],"outputs":[{"name":"","type":"uint256","internalType":"uint256"}],"stateMutability":"view"},{"type":"function","name":"transferFrom","inputs":[{"name":"from","type":"address","internalType":"address"},{"name":"to","type":"address","internalType":"address"},{"name":"tokenId","type":"uint256","internalType":"uint256"}],"outputs":[],"stateMutability":"nonpayable"},{"type":"function","name":"unpause","inputs":[],"outputs":[],"stateMutability":"nonpayable"},{"type":"event","name":"Approval","inputs":[{"name":"owner","type":"address","indexed":true,"internalType":"address"},{"name":"approved","type":"address","indexed":true,"internalType":"address"},{"name":"tokenId","type":"uint256","indexed":true,"internalType":"uint256"}],"anonymous":false},{"type":"event","name":"ApprovalForAll","inputs":[{"name":"owner","type":"address","indexed":true,"internalType":"address"},{"name":"operator","type":"address","indexed":true,"internalType":"address"},{"name":"approved","type":"bool","indexed":false,"internalType":"bool"}],"anonymous":false},{"type":"event","name":"Initialized","inputs":[{"name":"version","type":"uint8","indexed":false,"internalType":"uint8"}],"anonymous":false},{"type":"event","name":"Paused","inputs":[{"name":"account","type":"address","indexed":false,"internalType":"address"}],"anonymous":false},{"type":"event","name":"RoleAdminChanged","inputs":[{"name":"role","type":"bytes32","indexed":true,"internalType":"bytes32"},{"name":"previousAdminRole","type":"bytes32","indexed":true,"internalType":"bytes32"},{"name":"newAdminRole","type":"bytes32","indexed":true,"internalType":"bytes32"}],"anonymous":false},{"type":"event","name":"RoleGranted","inputs":[{"name":"role","type":"bytes32","indexed":true,"internalType":"bytes32"},{"name":"account","type":"address","indexed":true,"internalType":"address"},{"name":"sender","type":"address","indexed":true,"internalType":"address"}],"anonymous":false},{"type":"event","name":"RoleRevoked","inputs":[{"name":"role","type":"bytes32","indexed":true,"internalType":"bytes32"},{"name":"account","type":"address","indexed":true,"internalType":"address"},{"name":"sender","type":"address","indexed":true,"internalType":"address"}],"anonymous":false},{"type":"event","name":"Transfer","inputs":[{"name":"from","type":"address","indexed":true,"internalType":"address"},{"name":"to","type":"address","indexed":true,"internalType":"address"},{"name":"tokenId","type":"uint256","indexed":true,"internalType":"uint256"}],"anonymous":false},{"type":"event","name":"Unpaused","inputs":[{"name":"account","type":"address","indexed":false,"internalType":"address"}],"anonymous":false}],"bytecode":{"object":"0x608060405234801561001057600080fd5b50614f74806100206000396000f3fe608060405234801561001057600080fd5b50600436106101f05760003560e01c80636a6278421161010f578063a6487c53116100a2578063d539139311610071578063d5391393146105c7578063d547741f146105e5578063e63ab1e914610601578063e985e9c51461061f576101f0565b8063a6487c531461052f578063b88d4fde1461054b578063c87b56dd14610567578063ca15c87314610597576101f0565b806391d14854116100de57806391d14854146104a757806395d89b41146104d7578063a217fddf146104f5578063a22cb46514610513576101f0565b80636a6278421461042157806370a082311461043d5780638456cb591461046d5780639010d07c14610477576101f0565b80632f745c591161018757806342966c681161015657806342966c68146103875780634f6ccce7146103a35780635c975abb146103d35780636352211e146103f1576101f0565b80632f745c591461031557806336568abe146103455780633f4ba83a1461036157806342842e0e1461036b576101f0565b806318160ddd116101c357806318160ddd1461028f57806323b872dd146102ad578063248a9ca3146102c95780632f2ff15d146102f9576101f0565b806301ffc9a7146101f557806306fdde0314610225578063081812fc14610243578063095ea7b314610273575b600080fd5b61020f600480360381019061020a9190613641565b61064f565b60405161021c9190613689565b60405180910390f35b61022d610661565b60405161023a919061373d565b60405180910390f35b61025d60048036038101906102589190613795565b6106f3565b60405161026a9190613803565b60405180910390f35b61028d6004803603810190610288919061384a565b610739565b005b610297610850565b6040516102a49190613899565b60405180910390f35b6102c760048036038101906102c291906138b4565b61085d565b005b6102e360048036038101906102de919061393d565b6108bd565b6040516102f09190613979565b60405180910390f35b610313600480360381019061030e9190613994565b6108dd565b005b61032f600480360381019061032a919061384a565b6108fe565b60405161033c9190613899565b60405180910390f35b61035f600480360381019061035a9190613994565b6109a3565b005b610369610a26565b005b610385600480360381019061038091906138b4565b610aa0565b005b6103a1600480360381019061039c9190613795565b610ac0565b005b6103bd60048036038101906103b89190613795565b610b1c565b6040516103ca9190613899565b60405180910390f35b6103db610b8d565b6040516103e89190613689565b60405180910390f35b61040b60048036038101906104069190613795565b610ba5565b6040516104189190613803565b60405180910390f35b61043b600480360381019061043691906139d4565b610c2b565b005b610457600480360381019061045291906139d4565b610cbd565b6040516104649190613899565b60405180910390f35b610475610d74565b005b610491600480360381019061048c9190613a01565b610dee565b60405161049e9190613803565b60405180910390f35b6104c160048036038101906104bc9190613994565b610e1d565b6040516104ce9190613689565b60405180910390f35b6104df610e88565b6040516104ec919061373d565b60405180910390f35b6104fd610f1a565b60405161050a9190613979565b60405180910390f35b61052d60048036038101906105289190613a6d565b610f21565b005b61054960048036038101906105449190613be2565b610f37565b005b61056560048036038101906105609190613d2a565b61107b565b005b610581600480360381019061057c9190613795565b6110dd565b60405161058e919061373d565b60405180910390f35b6105b160048036038101906105ac919061393d565b611145565b6040516105be9190613899565b60405180910390f35b6105cf611169565b6040516105dc9190613979565b60405180910390f35b6105ff60048036038101906105fa9190613994565b61118d565b005b6106096111ae565b6040516106169190613979565b60405180910390f35b61063960048036038101906106349190613dad565b6111d2565b6040516106469190613689565b60405180910390f35b600061065a82611266565b9050919050565b606060c9805461067090613e1c565b80601f016020809104026020016040519081016040528092919081815260200182805461069c90613e1c565b80156106e95780601f106106be576101008083540402835291602001916106e9565b820191906000526020600020905b8154815290600101906020018083116106cc57829003601f168201915b5050505050905090565b60006106fe826112e0565b60cd600083815260200190815260200160002060009054906101000a900473ffffffffffffffffffffffffffffffffffffffff169050919050565b600061074482610ba5565b90508073ffffffffffffffffffffffffffffffffffffffff168373ffffffffffffffffffffffffffffffffffffffff16036107b4576040517f08c379a00000000000000000000000000000000000000000000000000000000081526004016107ab90613ebf565b60405180910390fd5b8073ffffffffffffffffffffffffffffffffffffffff166107d361132b565b73ffffffffffffffffffffffffffffffffffffffff1614806108025750610801816107fc61132b565b6111d2565b5b610841576040517f08c379a000000000000000000000000000000000000000000000000000000000815260040161083890613f51565b60405180910390fd5b61084b8383611333565b505050565b600060fd80549050905090565b61086e61086861132b565b826113ec565b6108ad576040517f08c379a00000000000000000000000000000000000000000000000000000000081526004016108a490613fe3565b60405180910390fd5b6108b8838383611481565b505050565b600060656000838152602001908152602001600020600101549050919050565b6108e6826108bd565b6108ef8161177a565b6108f9838361178e565b505050565b600061090983610cbd565b821061094a576040517f08c379a000000000000000000000000000000000000000000000000000000000815260040161094190614075565b60405180910390fd5b60fb60008473ffffffffffffffffffffffffffffffffffffffff1673ffffffffffffffffffffffffffffffffffffffff168152602001908152602001600020600083815260200190815260200160002054905092915050565b6109ab61132b565b73ffffffffffffffffffffffffffffffffffffffff168173ffffffffffffffffffffffffffffffffffffffff1614610a18576040517f08c379a0000000000000000000000000000000000000000000000000000000008152600401610a0f90614107565b60405180910390fd5b610a2282826117c2565b5050565b610a577f65d7a28e3265b37a6474929f336521b332c1681b933f6cb9f3376673440d862a610a5261132b565b610e1d565b610a96576040517f08c379a0000000000000000000000000000000000000000000000000000000008152600401610a8d90614199565b60405180910390fd5b610a9e6117f6565b565b610abb8383836040518060200160405280600081525061107b565b505050565b610ad1610acb61132b565b826113ec565b610b10576040517f08c379a0000000000000000000000000000000000000000000000000000000008152600401610b0790613fe3565b60405180910390fd5b610b198161185a565b50565b6000610b26610850565b8210610b67576040517f08c379a0000000000000000000000000000000000000000000000000000000008152600401610b5e9061422b565b60405180910390fd5b60fd8281548110610b7b57610b7a61424b565b5b90600052602060002001549050919050565b600061015f60009054906101000a900460ff16905090565b600080610bb1836119a8565b9050600073ffffffffffffffffffffffffffffffffffffffff168173ffffffffffffffffffffffffffffffffffffffff1603610c22576040517f08c379a0000000000000000000000000000000000000000000000000000000008152600401610c19906142c6565b60405180910390fd5b80915050919050565b610c5c7f9f2df0fed2c77648de5860a4cc508cd0818c85b8b8a1ab4ceeef8d981c8956a6610c5761132b565b610e1d565b610c9b576040517f08c379a0000000000000000000000000000000000000000000000000000000008152600401610c9290614358565b60405180910390fd5b610caf81610caa6101c36119e5565b6119f3565b610cba6101c3611c10565b50565b60008073ffffffffffffffffffffffffffffffffffffffff168273ffffffffffffffffffffffffffffffffffffffff1603610d2d576040517f08c379a0000000000000000000000000000000000000000000000000000000008152600401610d24906143ea565b60405180910390fd5b60cc60008373ffffffffffffffffffffffffffffffffffffffff1673ffffffffffffffffffffffffffffffffffffffff168152602001908152602001600020549050919050565b610da57f65d7a28e3265b37a6474929f336521b332c1681b933f6cb9f3376673440d862a610da061132b565b610e1d565b610de4576040517f08c379a0000000000000000000000000000000000000000000000000000000008152600401610ddb9061447c565b60405180910390fd5b610dec611c26565b565b6000610e158260976000868152602001908152602001600020611c8a90919063ffffffff16565b905092915050565b60006065600084815260200190815260200160002060000160008373ffffffffffffffffffffffffffffffffffffffff1673ffffffffffffffffffffffffffffffffffffffff16815260200190815260200160002060009054906101000a900460ff16905092915050565b606060ca8054610e9790613e1c565b80601f0160208091040260200160405190810160405280929190818152602001828054610ec390613e1c565b8015610f105780601f10610ee557610100808354040283529160200191610f10565b820191906000526020600020905b815481529060010190602001808311610ef357829003601f168201915b5050505050905090565b6000801b81565b610f33610f2c61132b565b8383611ca4565b5050565b60008060019054906101000a900460ff16159050808015610f685750600160008054906101000a900460ff1660ff16105b80610f955750610f7730611e10565b158015610f945750600160008054906101000a900460ff1660ff16145b5b610fd4576040517f08c379a0000000000000000000000000000000000000000000000000000000008152600401610fcb9061450e565b60405180910390fd5b60016000806101000a81548160ff021916908360ff1602179055508015611011576001600060016101000a81548160ff0219169083151502179055505b61101c848484611e33565b80156110755760008060016101000a81548160ff0219169083151502179055507f7f26b83ff96e1f2b6a682f133852f6798a09c465da95921460cefb3847402498600160405161106c9190614580565b60405180910390a15b50505050565b61108c61108661132b565b836113ec565b6110cb576040517f08c379a00000000000000000000000000000000000000000000000000000000081526004016110c290613fe3565b60405180910390fd5b6110d784848484611ea4565b50505050565b60606110e8826112e0565b60006110f2611f00565b90506000815111611112576040518060200160405280600081525061113d565b8061111c84611f93565b60405160200161112d9291906145d7565b6040516020818303038152906040525b915050919050565b600061116260976000848152602001908152602001600020612061565b9050919050565b7f9f2df0fed2c77648de5860a4cc508cd0818c85b8b8a1ab4ceeef8d981c8956a681565b611196826108bd565b61119f8161177a565b6111a983836117c2565b505050565b7f65d7a28e3265b37a6474929f336521b332c1681b933f6cb9f3376673440d862a81565b600060ce60008473ffffffffffffffffffffffffffffffffffffffff1673ffffffffffffffffffffffffffffffffffffffff16815260200190815260200160002060008373ffffffffffffffffffffffffffffffffffffffff1673ffffffffffffffffffffffffffffffffffffffff16815260200190815260200160002060009054906101000a900460ff16905092915050565b60007f780e9d63000000000000000000000000000000000000000000000000000000007bffffffffffffffffffffffffffffffffffffffffffffffffffffffff1916827bffffffffffffffffffffffffffffffffffffffffffffffffffffffff191614806112d957506112d882612076565b5b9050919050565b6112e981612158565b611328576040517f08c379a000000000000000000000000000000000000000000000000000000000815260040161131f906142c6565b60405180910390fd5b50565b600033905090565b8160cd600083815260200190815260200160002060006101000a81548173ffffffffffffffffffffffffffffffffffffffff021916908373ffffffffffffffffffffffffffffffffffffffff160217905550808273ffffffffffffffffffffffffffffffffffffffff166113a683610ba5565b73ffffffffffffffffffffffffffffffffffffffff167f8c5be1e5ebec7d5bd14f71427d1e84f3dd0314c0f7b2291e5b200ac8c7c3b92560405160405180910390a45050565b6000806113f883610ba5565b90508073ffffffffffffffffffffffffffffffffffffffff168473ffffffffffffffffffffffffffffffffffffffff16148061143a575061143981856111d2565b5b8061147857508373ffffffffffffffffffffffffffffffffffffffff16611460846106f3565b73ffffffffffffffffffffffffffffffffffffffff16145b91505092915050565b8273ffffffffffffffffffffffffffffffffffffffff166114a182610ba5565b73ffffffffffffffffffffffffffffffffffffffff16146114f7576040517f08c379a00000000000000000000000000000000000000000000000000000000081526004016114ee9061466d565b60405180910390fd5b600073ffffffffffffffffffffffffffffffffffffffff168273ffffffffffffffffffffffffffffffffffffffff1603611566576040517f08c379a000000000000000000000000000000000000000000000000000000000815260040161155d906146ff565b60405180910390fd5b6115738383836001612199565b8273ffffffffffffffffffffffffffffffffffffffff1661159382610ba5565b73ffffffffffffffffffffffffffffffffffffffff16146115e9576040517f08c379a00000000000000000000000000000000000000000000000000000000081526004016115e09061466d565b60405180910390fd5b60cd600082815260200190815260200160002060006101000a81549073ffffffffffffffffffffffffffffffffffffffff0219169055600160cc60008573ffffffffffffffffffffffffffffffffffffffff1673ffffffffffffffffffffffffffffffffffffffff16815260200190815260200160002060008282540392505081905550600160cc60008473ffffffffffffffffffffffffffffffffffffffff1673ffffffffffffffffffffffffffffffffffffffff168152602001908152602001600020600082825401925050819055508160cb600083815260200190815260200160002060006101000a81548173ffffffffffffffffffffffffffffffffffffffff021916908373ffffffffffffffffffffffffffffffffffffffff160217905550808273ffffffffffffffffffffffffffffffffffffffff168473ffffffffffffffffffffffffffffffffffffffff167fddf252ad1be2c89b69c2b068fc378daa952ba7f163c4a11628f55a4df523b3ef60405160405180910390a461177583838360016121ab565b505050565b61178b8161178661132b565b6121b1565b50565b6117988282612236565b6117bd816097600085815260200190815260200160002061231790919063ffffffff16565b505050565b6117cc8282612347565b6117f1816097600085815260200190815260200160002061242990919063ffffffff16565b505050565b6117fe612459565b600061015f60006101000a81548160ff0219169083151502179055507f5db9ee0a495bf2e6ff9c91a7834c1ba4fdd244a5e8aa4e537bd38aeae4b073aa61184361132b565b6040516118509190613803565b60405180910390a1565b600061186582610ba5565b9050611875816000846001612199565b61187e82610ba5565b905060cd600083815260200190815260200160002060006101000a81549073ffffffffffffffffffffffffffffffffffffffff0219169055600160cc60008373ffffffffffffffffffffffffffffffffffffffff1673ffffffffffffffffffffffffffffffffffffffff1681526020019081526020016000206000828254039250508190555060cb600083815260200190815260200160002060006101000a81549073ffffffffffffffffffffffffffffffffffffffff021916905581600073ffffffffffffffffffffffffffffffffffffffff168273ffffffffffffffffffffffffffffffffffffffff167fddf252ad1be2c89b69c2b068fc378daa952ba7f163c4a11628f55a4df523b3ef60405160405180910390a46119a48160008460016121ab565b5050565b600060cb600083815260200190815260200160002060009054906101000a900473ffffffffffffffffffffffffffffffffffffffff169050919050565b600081600001549050919050565b600073ffffffffffffffffffffffffffffffffffffffff168273ffffffffffffffffffffffffffffffffffffffff1603611a62576040517f08c379a0000000000000000000000000000000000000000000000000000000008152600401611a599061476b565b60405180910390fd5b611a6b81612158565b15611aab576040517f08c379a0000000000000000000000000000000000000000000000000000000008152600401611aa2906147d7565b60405180910390fd5b611ab9600083836001612199565b611ac281612158565b15611b02576040517f08c379a0000000000000000000000000000000000000000000000000000000008152600401611af9906147d7565b60405180910390fd5b600160cc60008473ffffffffffffffffffffffffffffffffffffffff1673ffffffffffffffffffffffffffffffffffffffff168152602001908152602001600020600082825401925050819055508160cb600083815260200190815260200160002060006101000a81548173ffffffffffffffffffffffffffffffffffffffff021916908373ffffffffffffffffffffffffffffffffffffffff160217905550808273ffffffffffffffffffffffffffffffffffffffff16600073ffffffffffffffffffffffffffffffffffffffff167fddf252ad1be2c89b69c2b068fc378daa952ba7f163c4a11628f55a4df523b3ef60405160405180910390a4611c0c6000838360016121ab565b5050565b6001816000016000828254019250508190555050565b611c2e6124a2565b600161015f60006101000a81548160ff0219169083151502179055507f62e78cea01bee320cd4e420270b5ea74000d11b0c9f74754ebdbfc544b05a258611c7361132b565b604051611c809190613803565b60405180910390a1565b6000611c9983600001836124ec565b60001c905092915050565b8173ffffffffffffffffffffffffffffffffffffffff168373ffffffffffffffffffffffffffffffffffffffff1603611d12576040517f08c379a0000000000000000000000000000000000000000000000000000000008152600401611d0990614843565b60405180910390fd5b8060ce60008573ffffffffffffffffffffffffffffffffffffffff1673ffffffffffffffffffffffffffffffffffffffff16815260200190815260200160002060008473ffffffffffffffffffffffffffffffffffffffff1673ffffffffffffffffffffffffffffffffffffffff16815260200190815260200160002060006101000a81548160ff0219169083151502179055508173ffffffffffffffffffffffffffffffffffffffff168373ffffffffffffffffffffffffffffffffffffffff167f17307eab39ab6107e8899845ad3d59bd9653f200f220920489ca2b5937696c3183604051611e039190613689565b60405180910390a3505050565b6000808273ffffffffffffffffffffffffffffffffffffffff163b119050919050565b600060019054906101000a900460ff16611e82576040517f08c379a0000000000000000000000000000000000000000000000000000000008152600401611e79906148d5565b60405180910390fd5b611e8c8383612517565b611e94612598565b611e9f838383612605565b505050565b611eaf848484611481565b611ebb848484846126e7565b611efa576040517f08c379a0000000000000000000000000000000000000000000000000000000008152600401611ef190614967565b60405180910390fd5b50505050565b60606101c48054611f1090613e1c565b80601f0160208091040260200160405190810160405280929190818152602001828054611f3c90613e1c565b8015611f895780601f10611f5e57610100808354040283529160200191611f89565b820191906000526020600020905b815481529060010190602001808311611f6c57829003601f168201915b5050505050905090565b606060006001611fa28461286e565b01905060008167ffffffffffffffff811115611fc157611fc0613ab7565b5b6040519080825280601f01601f191660200182016040528015611ff35781602001600182028036833780820191505090505b509050600082602001820190505b600115612056578080600190039150507f3031323334353637383961626364656600000000000000000000000000000000600a86061a8153600a858161204a57612049614987565b5b04945060008503612001575b819350505050919050565b600061206f826000016129c1565b9050919050565b60007f80ac58cd000000000000000000000000000000000000000000000000000000007bffffffffffffffffffffffffffffffffffffffffffffffffffffffff1916827bffffffffffffffffffffffffffffffffffffffffffffffffffffffff1916148061214157507f5b5e139f000000000000000000000000000000000000000000000000000000007bffffffffffffffffffffffffffffffffffffffffffffffffffffffff1916827bffffffffffffffffffffffffffffffffffffffffffffffffffffffff1916145b806121515750612150826129d2565b5b9050919050565b60008073ffffffffffffffffffffffffffffffffffffffff1661217a836119a8565b73ffffffffffffffffffffffffffffffffffffffff1614159050919050565b6121a584848484612a4c565b50505050565b50505050565b6121bb8282610e1d565b612232576121c881612aa6565b6121d68360001c6020612ad3565b6040516020016121e7929190614a4e565b6040516020818303038152906040526040517f08c379a0000000000000000000000000000000000000000000000000000000008152600401612229919061373d565b60405180910390fd5b5050565b6122408282610e1d565b6123135760016065600084815260200190815260200160002060000160008373ffffffffffffffffffffffffffffffffffffffff1673ffffffffffffffffffffffffffffffffffffffff16815260200190815260200160002060006101000a81548160ff0219169083151502179055506122b861132b565b73ffffffffffffffffffffffffffffffffffffffff168173ffffffffffffffffffffffffffffffffffffffff16837f2f8788117e7eff1d82e926ec794901d17c78024a50270940304540a733656f0d60405160405180910390a45b5050565b600061233f836000018373ffffffffffffffffffffffffffffffffffffffff1660001b612d0f565b905092915050565b6123518282610e1d565b156124255760006065600084815260200190815260200160002060000160008373ffffffffffffffffffffffffffffffffffffffff1673ffffffffffffffffffffffffffffffffffffffff16815260200190815260200160002060006101000a81548160ff0219169083151502179055506123ca61132b565b73ffffffffffffffffffffffffffffffffffffffff168173ffffffffffffffffffffffffffffffffffffffff16837ff6391f5c32d9c69d2a47ea670b442974b53935d1edc7fd64eb21e047a839171b60405160405180910390a45b5050565b6000612451836000018373ffffffffffffffffffffffffffffffffffffffff1660001b612d7f565b905092915050565b612461610b8d565b6124a0576040517f08c379a000000000000000000000000000000000000000000000000000000000815260040161249790614ad4565b60405180910390fd5b565b6124aa610b8d565b156124ea576040517f08c379a00000000000000000000000000000000000000000000000000000000081526004016124e190614b40565b60405180910390fd5b565b60008260000182815481106125045761250361424b565b5b9060005260206000200154905092915050565b600060019054906101000a900460ff16612566576040517f08c379a000000000000000000000000000000000000000000000000000000000815260040161255d906148d5565b60405180910390fd5b8160c9908051906020019061257c929190613532565b508060ca9080519060200190612593929190613532565b505050565b600060019054906101000a900460ff166125e7576040517f08c379a00000000000000000000000000000000000000000000000000000000081526004016125de906148d5565b60405180910390fd5b600061015f60006101000a81548160ff021916908315150217905550565b600060019054906101000a900460ff16612654576040517f08c379a000000000000000000000000000000000000000000000000000000000815260040161264b906148d5565b60405180910390fd5b806101c4908051906020019061266b929190613532565b506126806000801b61267b61132b565b612e93565b6126b17f9f2df0fed2c77648de5860a4cc508cd0818c85b8b8a1ab4ceeef8d981c8956a66126ac61132b565b612e93565b6126e27f65d7a28e3265b37a6474929f336521b332c1681b933f6cb9f3376673440d862a6126dd61132b565b612e93565b505050565b60006127088473ffffffffffffffffffffffffffffffffffffffff16611e10565b15612861578373ffffffffffffffffffffffffffffffffffffffff1663150b7a0261273161132b565b8786866040518563ffffffff1660e01b81526004016127539493929190614bb5565b6020604051808303816000875af192505050801561278f57506040513d601f19601f8201168201806040525081019061278c9190614c16565b60015b612811573d80600081146127bf576040519150601f19603f3d011682016040523d82523d6000602084013e6127c4565b606091505b506000815103612809576040517f08c379a000000000000000000000000000000000000000000000000000000000815260040161280090614967565b60405180910390fd5b805181602001fd5b63150b7a0260e01b7bffffffffffffffffffffffffffffffffffffffffffffffffffffffff1916817bffffffffffffffffffffffffffffffffffffffffffffffffffffffff191614915050612866565b600190505b949350505050565b600080600090507a184f03e93ff9f4daa797ed6e38ed64bf6a1f01000000000000000083106128cc577a184f03e93ff9f4daa797ed6e38ed64bf6a1f01000000000000000083816128c2576128c1614987565b5b0492506040810190505b6d04ee2d6d415b85acef81000000008310612909576d04ee2d6d415b85acef810000000083816128ff576128fe614987565b5b0492506020810190505b662386f26fc10000831061293857662386f26fc10000838161292e5761292d614987565b5b0492506010810190505b6305f5e1008310612961576305f5e100838161295757612956614987565b5b0492506008810190505b612710831061298657612710838161297c5761297b614987565b5b0492506004810190505b606483106129a9576064838161299f5761299e614987565b5b0492506002810190505b600a83106129b8576001810190505b80915050919050565b600081600001805490509050919050565b60007f5a05180f000000000000000000000000000000000000000000000000000000007bffffffffffffffffffffffffffffffffffffffffffffffffffffffff1916827bffffffffffffffffffffffffffffffffffffffffffffffffffffffff19161480612a455750612a4482612ea1565b5b9050919050565b612a5884848484612f1b565b612a60610b8d565b15612aa0576040517f08c379a0000000000000000000000000000000000000000000000000000000008152600401612a9790614cb5565b60405180910390fd5b50505050565b6060612acc8273ffffffffffffffffffffffffffffffffffffffff16601460ff16612ad3565b9050919050565b606060006002836002612ae69190614d04565b612af09190614d5e565b67ffffffffffffffff811115612b0957612b08613ab7565b5b6040519080825280601f01601f191660200182016040528015612b3b5781602001600182028036833780820191505090505b5090507f300000000000000000000000000000000000000000000000000000000000000081600081518110612b7357612b7261424b565b5b60200101907effffffffffffffffffffffffffffffffffffffffffffffffffffffffffffff1916908160001a9053507f780000000000000000000000000000000000000000000000000000000000000081600181518110612bd757612bd661424b565b5b60200101907effffffffffffffffffffffffffffffffffffffffffffffffffffffffffffff1916908160001a90535060006001846002612c179190614d04565b612c219190614d5e565b90505b6001811115612cc1577f3031323334353637383961626364656600000000000000000000000000000000600f861660108110612c6357612c6261424b565b5b1a60f81b828281518110612c7a57612c7961424b565b5b60200101907effffffffffffffffffffffffffffffffffffffffffffffffffffffffffffff1916908160001a905350600485901c945080612cba90614db4565b9050612c24565b5060008414612d05576040517f08c379a0000000000000000000000000000000000000000000000000000000008152600401612cfc90614e29565b60405180910390fd5b8091505092915050565b6000612d1b8383613079565b612d74578260000182908060018154018082558091505060019003906000526020600020016000909190919091505582600001805490508360010160008481526020019081526020016000208190555060019050612d79565b600090505b92915050565b60008083600101600084815260200190815260200160002054905060008114612e87576000600182612db19190614e49565b9050600060018660000180549050612dc99190614e49565b9050818114612e38576000866000018281548110612dea57612de961424b565b5b9060005260206000200154905080876000018481548110612e0e57612e0d61424b565b5b90600052602060002001819055508387600101600083815260200190815260200160002081905550505b85600001805480612e4c57612e4b614e7d565b5b600190038181906000526020600020016000905590558560010160008681526020019081526020016000206000905560019350505050612e8d565b60009150505b92915050565b612e9d828261178e565b5050565b60007f7965db0b000000000000000000000000000000000000000000000000000000007bffffffffffffffffffffffffffffffffffffffffffffffffffffffff1916827bffffffffffffffffffffffffffffffffffffffffffffffffffffffff19161480612f145750612f138261309c565b5b9050919050565b612f2784848484613106565b6001811115612f6b576040517f08c379a0000000000000000000000000000000000000000000000000000000008152600401612f6290614f1e565b60405180910390fd5b6000829050600073ffffffffffffffffffffffffffffffffffffffff168573ffffffffffffffffffffffffffffffffffffffff1603612fb257612fad8161322c565b612ff1565b8373ffffffffffffffffffffffffffffffffffffffff168573ffffffffffffffffffffffffffffffffffffffff1614612ff057612fef8582613275565b5b5b600073ffffffffffffffffffffffffffffffffffffffff168473ffffffffffffffffffffffffffffffffffffffff16036130335761302e816133e2565b613072565b8473ffffffffffffffffffffffffffffffffffffffff168473ffffffffffffffffffffffffffffffffffffffff16146130715761307084826134b3565b5b5b5050505050565b600080836001016000848152602001908152602001600020541415905092915050565b60007f01ffc9a7000000000000000000000000000000000000000000000000000000007bffffffffffffffffffffffffffffffffffffffffffffffffffffffff1916827bffffffffffffffffffffffffffffffffffffffffffffffffffffffff1916149050919050565b600181111561322657600073ffffffffffffffffffffffffffffffffffffffff168473ffffffffffffffffffffffffffffffffffffffff161461319a578060cc60008673ffffffffffffffffffffffffffffffffffffffff1673ffffffffffffffffffffffffffffffffffffffff16815260200190815260200160002060008282546131929190614e49565b925050819055505b600073ffffffffffffffffffffffffffffffffffffffff168373ffffffffffffffffffffffffffffffffffffffff1614613225578060cc60008573ffffffffffffffffffffffffffffffffffffffff1673ffffffffffffffffffffffffffffffffffffffff168152602001908152602001600020600082825461321d9190614d5e565b925050819055505b5b50505050565b60fd8054905060fe60008381526020019081526020016000208190555060fd81908060018154018082558091505060019003906000526020600020016000909190919091505550565b6000600161328284610cbd565b61328c9190614e49565b9050600060fc600084815260200190815260200160002054905081811461337157600060fb60008673ffffffffffffffffffffffffffffffffffffffff1673ffffffffffffffffffffffffffffffffffffffff16815260200190815260200160002060008481526020019081526020016000205490508060fb60008773ffffffffffffffffffffffffffffffffffffffff1673ffffffffffffffffffffffffffffffffffffffff1681526020019081526020016000206000848152602001908152602001600020819055508160fc600083815260200190815260200160002081905550505b60fc60008481526020019081526020016000206000905560fb60008573ffffffffffffffffffffffffffffffffffffffff1673ffffffffffffffffffffffffffffffffffffffff16815260200190815260200160002060008381526020019081526020016000206000905550505050565b6000600160fd805490506133f69190614e49565b9050600060fe6000848152602001908152602001600020549050600060fd83815481106134265761342561424b565b5b906000526020600020015490508060fd83815481106134485761344761424b565b5b90600052602060002001819055508160fe60008381526020019081526020016000208190555060fe60008581526020019081526020016000206000905560fd80548061349757613496614e7d565b5b6001900381819060005260206000200160009055905550505050565b60006134be83610cbd565b90508160fb60008573ffffffffffffffffffffffffffffffffffffffff1673ffffffffffffffffffffffffffffffffffffffff1681526020019081526020016000206000838152602001908152602001600020819055508060fc600084815260200190815260200160002081905550505050565b82805461353e90613e1c565b90600052602060002090601f01602090048101928261356057600085556135a7565b82601f1061357957805160ff19168380011785556135a7565b828001600101855582156135a7579182015b828111156135a657825182559160200191906001019061358b565b5b5090506135b491906135b8565b5090565b5b808211156135d15760008160009055506001016135b9565b5090565b6000604051905090565b600080fd5b600080fd5b60007fffffffff0000000000000000000000000000000000000000000000000000000082169050919050565b61361e816135e9565b811461362957600080fd5b50565b60008135905061363b81613615565b92915050565b600060208284031215613657576136566135df565b5b60006136658482850161362c565b91505092915050565b60008115159050919050565b6136838161366e565b82525050565b600060208201905061369e600083018461367a565b92915050565b600081519050919050565b600082825260208201905092915050565b60005b838110156136de5780820151818401526020810190506136c3565b838111156136ed576000848401525b50505050565b6000601f19601f8301169050919050565b600061370f826136a4565b61371981856136af565b93506137298185602086016136c0565b613732816136f3565b840191505092915050565b600060208201905081810360008301526137578184613704565b905092915050565b6000819050919050565b6137728161375f565b811461377d57600080fd5b50565b60008135905061378f81613769565b92915050565b6000602082840312156137ab576137aa6135df565b5b60006137b984828501613780565b91505092915050565b600073ffffffffffffffffffffffffffffffffffffffff82169050919050565b60006137ed826137c2565b9050919050565b6137fd816137e2565b82525050565b600060208201905061381860008301846137f4565b92915050565b613827816137e2565b811461383257600080fd5b50565b6000813590506138448161381e565b92915050565b60008060408385031215613861576138606135df565b5b600061386f85828601613835565b925050602061388085828601613780565b9150509250929050565b6138938161375f565b82525050565b60006020820190506138ae600083018461388a565b92915050565b6000806000606084860312156138cd576138cc6135df565b5b60006138db86828701613835565b93505060206138ec86828701613835565b92505060406138fd86828701613780565b9150509250925092565b6000819050919050565b61391a81613907565b811461392557600080fd5b50565b60008135905061393781613911565b92915050565b600060208284031215613953576139526135df565b5b600061396184828501613928565b91505092915050565b61397381613907565b82525050565b600060208201905061398e600083018461396a565b92915050565b600080604083850312156139ab576139aa6135df565b5b60006139b985828601613928565b92505060206139ca85828601613835565b9150509250929050565b6000602082840312156139ea576139e96135df565b5b60006139f884828501613835565b91505092915050565b60008060408385031215613a1857613a176135df565b5b6000613a2685828601613928565b9250506020613a3785828601613780565b9150509250929050565b613a4a8161366e565b8114613a5557600080fd5b50565b600081359050613a6781613a41565b92915050565b60008060408385031215613a8457613a836135df565b5b6000613a9285828601613835565b9250506020613aa385828601613a58565b9150509250929050565b600080fd5b600080fd5b7f4e487b7100000000000000000000000000000000000000000000000000000000600052604160045260246000fd5b613aef826136f3565b810181811067ffffffffffffffff82111715613b0e57613b0d613ab7565b5b80604052505050565b6000613b216135d5565b9050613b2d8282613ae6565b919050565b600067ffffffffffffffff821115613b4d57613b4c613ab7565b5b613b56826136f3565b9050602081019050919050565b82818337600083830152505050565b6000613b85613b8084613b32565b613b17565b905082815260208101848484011115613ba157613ba0613ab2565b5b613bac848285613b63565b509392505050565b600082601f830112613bc957613bc8613aad565b5b8135613bd9848260208601613b72565b91505092915050565b600080600060608486031215613bfb57613bfa6135df565b5b600084013567ffffffffffffffff811115613c1957613c186135e4565b5b613c2586828701613bb4565b935050602084013567ffffffffffffffff811115613c4657613c456135e4565b5b613c5286828701613bb4565b925050604084013567ffffffffffffffff811115613c7357613c726135e4565b5b613c7f86828701613bb4565b9150509250925092565b600067ffffffffffffffff821115613ca457613ca3613ab7565b5b613cad826136f3565b9050602081019050919050565b6000613ccd613cc884613c89565b613b17565b905082815260208101848484011115613ce957613ce8613ab2565b5b613cf4848285613b63565b509392505050565b600082601f830112613d1157613d10613aad565b5b8135613d21848260208601613cba565b91505092915050565b60008060008060808587031215613d4457613d436135df565b5b6000613d5287828801613835565b9450506020613d6387828801613835565b9350506040613d7487828801613780565b925050606085013567ffffffffffffffff811115613d9557613d946135e4565b5b613da187828801613cfc565b91505092959194509250565b60008060408385031215613dc457613dc36135df565b5b6000613dd285828601613835565b9250506020613de385828601613835565b9150509250929050565b7f4e487b7100000000000000000000000000000000000000000000000000000000600052602260045260246000fd5b60006002820490506001821680613e3457607f821691505b602082108103613e4757613e46613ded565b5b50919050565b7f4552433732313a20617070726f76616c20746f2063757272656e74206f776e6560008201527f7200000000000000000000000000000000000000000000000000000000000000602082015250565b6000613ea96021836136af565b9150613eb482613e4d565b604082019050919050565b60006020820190508181036000830152613ed881613e9c565b9050919050565b7f4552433732313a20617070726f76652063616c6c6572206973206e6f7420746f60008201527f6b656e206f776e6572206f7220617070726f76656420666f7220616c6c000000602082015250565b6000613f3b603d836136af565b9150613f4682613edf565b604082019050919050565b60006020820190508181036000830152613f6a81613f2e565b9050919050565b7f4552433732313a2063616c6c6572206973206e6f7420746f6b656e206f776e6560008201527f72206f7220617070726f76656400000000000000000000000000000000000000602082015250565b6000613fcd602d836136af565b9150613fd882613f71565b604082019050919050565b60006020820190508181036000830152613ffc81613fc0565b9050919050565b7f455243373231456e756d657261626c653a206f776e657220696e646578206f7560008201527f74206f6620626f756e6473000000000000000000000000000000000000000000602082015250565b600061405f602b836136af565b915061406a82614003565b604082019050919050565b6000602082019050818103600083015261408e81614052565b9050919050565b7f416363657373436f6e74726f6c3a2063616e206f6e6c792072656e6f756e636560008201527f20726f6c657320666f722073656c660000000000000000000000000000000000602082015250565b60006140f1602f836136af565b91506140fc82614095565b604082019050919050565b60006020820190508181036000830152614120816140e4565b9050919050565b7f4552433732315072657365744d696e7465725061757365724175746f49643a2060008201527f6d75737420686176652070617573657220726f6c6520746f20756e7061757365602082015250565b60006141836040836136af565b915061418e82614127565b604082019050919050565b600060208201905081810360008301526141b281614176565b9050919050565b7f455243373231456e756d657261626c653a20676c6f62616c20696e646578206f60008201527f7574206f6620626f756e64730000000000000000000000000000000000000000602082015250565b6000614215602c836136af565b9150614220826141b9565b604082019050919050565b6000602082019050818103600083015261424481614208565b9050919050565b7f4e487b7100000000000000000000000000000000000000000000000000000000600052603260045260246000fd5b7f4552433732313a20696e76616c696420746f6b656e2049440000000000000000600082015250565b60006142b06018836136af565b91506142bb8261427a565b602082019050919050565b600060208201905081810360008301526142df816142a3565b9050919050565b7f4552433732315072657365744d696e7465725061757365724175746f49643a2060008201527f6d7573742068617665206d696e74657220726f6c6520746f206d696e74000000602082015250565b6000614342603d836136af565b915061434d826142e6565b604082019050919050565b6000602082019050818103600083015261437181614335565b9050919050565b7f4552433732313a2061646472657373207a65726f206973206e6f74206120766160008201527f6c6964206f776e65720000000000000000000000000000000000000000000000602082015250565b60006143d46029836136af565b91506143df82614378565b604082019050919050565b60006020820190508181036000830152614403816143c7565b9050919050565b7f4552433732315072657365744d696e7465725061757365724175746f49643a2060008201527f6d75737420686176652070617573657220726f6c6520746f2070617573650000602082015250565b6000614466603e836136af565b91506144718261440a565b604082019050919050565b6000602082019050818103600083015261449581614459565b9050919050565b7f496e697469616c697a61626c653a20636f6e747261637420697320616c72656160008201527f647920696e697469616c697a6564000000000000000000000000000000000000602082015250565b60006144f8602e836136af565b91506145038261449c565b604082019050919050565b60006020820190508181036000830152614527816144eb565b9050919050565b6000819050919050565b600060ff82169050919050565b6000819050919050565b600061456a6145656145608461452e565b614545565b614538565b9050919050565b61457a8161454f565b82525050565b60006020820190506145956000830184614571565b92915050565b600081905092915050565b60006145b1826136a4565b6145bb818561459b565b93506145cb8185602086016136c0565b80840191505092915050565b60006145e382856145a6565b91506145ef82846145a6565b91508190509392505050565b7f4552433732313a207472616e736665722066726f6d20696e636f72726563742060008201527f6f776e6572000000000000000000000000000000000000000000000000000000602082015250565b60006146576025836136af565b9150614662826145fb565b604082019050919050565b600060208201905081810360008301526146868161464a565b9050919050565b7f4552433732313a207472616e7366657220746f20746865207a65726f2061646460008201527f7265737300000000000000000000000000000000000000000000000000000000602082015250565b60006146e96024836136af565b91506146f48261468d565b604082019050919050565b60006020820190508181036000830152614718816146dc565b9050919050565b7f4552433732313a206d696e7420746f20746865207a65726f2061646472657373600082015250565b60006147556020836136af565b91506147608261471f565b602082019050919050565b6000602082019050818103600083015261478481614748565b9050919050565b7f4552433732313a20746f6b656e20616c7265616479206d696e74656400000000600082015250565b60006147c1601c836136af565b91506147cc8261478b565b602082019050919050565b600060208201905081810360008301526147f0816147b4565b9050919050565b7f4552433732313a20617070726f766520746f2063616c6c657200000000000000600082015250565b600061482d6019836136af565b9150614838826147f7565b602082019050919050565b6000602082019050818103600083015261485c81614820565b9050919050565b7f496e697469616c697a61626c653a20636f6e7472616374206973206e6f74206960008201527f6e697469616c697a696e67000000000000000000000000000000000000000000602082015250565b60006148bf602b836136af565b91506148ca82614863565b604082019050919050565b600060208201905081810360008301526148ee816148b2565b9050919050565b7f4552433732313a207472616e7366657220746f206e6f6e20455243373231526560008201527f63656976657220696d706c656d656e7465720000000000000000000000000000602082015250565b60006149516032836136af565b915061495c826148f5565b604082019050919050565b6000602082019050818103600083015261498081614944565b9050919050565b7f4e487b7100000000000000000000000000000000000000000000000000000000600052601260045260246000fd5b7f416363657373436f6e74726f6c3a206163636f756e7420000000000000000000600082015250565b60006149ec60178361459b565b91506149f7826149b6565b601782019050919050565b7f206973206d697373696e6720726f6c6520000000000000000000000000000000600082015250565b6000614a3860118361459b565b9150614a4382614a02565b601182019050919050565b6000614a59826149df565b9150614a6582856145a6565b9150614a7082614a2b565b9150614a7c82846145a6565b91508190509392505050565b7f5061757361626c653a206e6f7420706175736564000000000000000000000000600082015250565b6000614abe6014836136af565b9150614ac982614a88565b602082019050919050565b60006020820190508181036000830152614aed81614ab1565b9050919050565b7f5061757361626c653a2070617573656400000000000000000000000000000000600082015250565b6000614b2a6010836136af565b9150614b3582614af4565b602082019050919050565b60006020820190508181036000830152614b5981614b1d565b9050919050565b600081519050919050565b600082825260208201905092915050565b6000614b8782614b60565b614b918185614b6b565b9350614ba18185602086016136c0565b614baa816136f3565b840191505092915050565b6000608082019050614bca60008301876137f4565b614bd760208301866137f4565b614be4604083018561388a565b8181036060830152614bf68184614b7c565b905095945050505050565b600081519050614c1081613615565b92915050565b600060208284031215614c2c57614c2b6135df565b5b6000614c3a84828501614c01565b91505092915050565b7f4552433732315061757361626c653a20746f6b656e207472616e73666572207760008201527f68696c6520706175736564000000000000000000000000000000000000000000602082015250565b6000614c9f602b836136af565b9150614caa82614c43565b604082019050919050565b60006020820190508181036000830152614cce81614c92565b9050919050565b7f4e487b7100000000000000000000000000000000000000000000000000000000600052601160045260246000fd5b6000614d0f8261375f565b9150614d1a8361375f565b9250817fffffffffffffffffffffffffffffffffffffffffffffffffffffffffffffffff0483118215151615614d5357614d52614cd5565b5b828202905092915050565b6000614d698261375f565b9150614d748361375f565b9250827fffffffffffffffffffffffffffffffffffffffffffffffffffffffffffffffff03821115614da957614da8614cd5565b5b828201905092915050565b6000614dbf8261375f565b915060008203614dd257614dd1614cd5565b5b600182039050919050565b7f537472696e67733a20686578206c656e67746820696e73756666696369656e74600082015250565b6000614e136020836136af565b9150614e1e82614ddd565b602082019050919050565b60006020820190508181036000830152614e4281614e06565b9050919050565b6000614e548261375f565b9150614e5f8361375f565b925082821015614e7257614e71614cd5565b5b828203905092915050565b7f4e487b7100000000000000000000000000000000000000000000000000000000600052603160045260246000fd5b7f455243373231456e756d657261626c653a20636f6e736563757469766520747260008201527f616e7366657273206e6f7420737570706f727465640000000000000000000000602082015250565b6000614f086035836136af565b9150614f1382614eac565b604082019050919050565b60006020820190508181036000830152614f3781614efb565b905091905056fea2646970667358221220860e3ebe1dbe913353ad23008e585bdd7c9718747485845abe1d08b1f8550efb64736f6c634300080d0033","linkReferences":{}},"methodIdentifiers":{"DEFAULT_ADMIN_ROLE()":"a217fddf","MINTER_ROLE()":"d5391393","PAUSER_ROLE()":"e63ab1e9","approve(address,uint256)":"095ea7b3","balanceOf(address)":"70a08231","burn(uint256)":"42966c68","getApproved(uint256)":"081812fc","getRoleAdmin(bytes32)":"248a9ca3","getRoleMember(bytes32,uint256)":"9010d07c","getRoleMemberCount(bytes32)":"ca15c873","grantRole(bytes32,address)":"2f2ff15d","hasRole(bytes32,address)":"91d14854","initialize(string,string,string)":"a6487c53","isApprovedForAll(address,address)":"e985e9c5","mint(address)":"6a627842","name()":"06fdde03","ownerOf(uint256)":"6352211e","pause()":"8456cb59","paused()":"5c975abb","renounceRole(bytes32,address)":"36568abe","revokeRole(bytes32,address)":"d547741f","safeTransferFrom(address,address,uint256)":"42842e0e","safeTransferFrom(address,address,uint256,bytes)":"b88d4fde","setApprovalForAll(address,bool)":"a22cb465","supportsInterface(bytes4)":"01ffc9a7","symbol()":"95d89b41","tokenByIndex(uint256)":"4f6ccce7","tokenOfOwnerByIndex(address,uint256)":"2f745c59","tokenURI(uint256)":"c87b56dd","totalSupply()":"18160ddd","transferFrom(address,address,uint256)":"23b872dd","unpause()":"3f4ba83a"},"id":141}