{"abi":[{"type":"constructor","inputs":[{"name":"name","type":"string","internalType":"string"},{"name":"symbol","type":"string","internalType":"string"},{"name":"delegates","type":"address[]","internalType":"address[]"},{"name":"receivers","type":"address[]","internalType":"address[]"},{"name":"amounts","type":"uint96[]","internalType":"uint96[]"}],"stateMutability":"nonpayable"},{"type":"function","name":"CLOCK_MODE","inputs":[],"outputs":[{"name":"","type":"string","internalType":"string"}],"stateMutability":"view"},{"type":"function","name":"DOMAIN_SEPARATOR","inputs":[],"outputs":[{"name":"","type":"bytes32","internalType":"bytes32"}],"stateMutability":"view"},{"type":"function","name":"approve","inputs":[{"name":"to","type":"address","internalType":"address"},{"name":"tokenId","type":"uint256","internalType":"uint256"}],"outputs":[],"stateMutability":"nonpayable"},{"type":"function","name":"balanceOf","inputs":[{"name":"owner","type":"address","internalType":"address"}],"outputs":[{"name":"","type":"uint256","internalType":"uint256"}],"stateMutability":"view"},{"type":"function","name":"clock","inputs":[],"outputs":[{"name":"","type":"uint48","internalType":"uint48"}],"stateMutability":"view"},{"type":"function","name":"delegate","inputs":[{"name":"delegatee","type":"address","internalType":"address"}],"outputs":[],"stateMutability":"nonpayable"},{"type":"function","name":"delegateBySig","inputs":[{"name":"delegatee","type":"address","internalType":"address"},{"name":"nonce","type":"uint256","internalType":"uint256"},{"name":"expiry","type":"uint256","internalType":"uint256"},{"name":"v","type":"uint8","internalType":"uint8"},{"name":"r","type":"bytes32","internalType":"bytes32"},{"name":"s","type":"bytes32","internalType":"bytes32"}],"outputs":[],"stateMutability":"nonpayable"},{"type":"function","name":"delegates","inputs":[{"name":"account","type":"address","internalType":"address"}],"outputs":[{"name":"","type":"address","internalType":"address"}],"stateMutability":"view"},{"type":"function","name":"eip712Domain","inputs":[],"outputs":[{"name":"fields","type":"bytes1","internalType":"bytes1"},{"name":"name","type":"string","internalType":"string"},{"name":"version","type":"string","internalType":"string"},{"name":"chainId","type":"uint256","internalType":"uint256"},{"name":"verifyingContract","type":"address","internalType":"address"},{"name":"salt","type":"bytes32","internalType":"bytes32"},{"name":"extensions","type":"uint256[]","internalType":"uint256[]"}],"stateMutability":"view"},{"type":"function","name":"getApproved","inputs":[{"name":"tokenId","type":"uint256","internalType":"uint256"}],"outputs":[{"name":"","type":"address","internalType":"address"}],"stateMutability":"view"},{"type":"function","name":"getPastTotalSupply","inputs":[{"name":"timepoint","type":"uint256","internalType":"uint256"}],"outputs":[{"name":"","type":"uint256","internalType":"uint256"}],"stateMutability":"view"},{"type":"function","name":"getPastVotes","inputs":[{"name":"account","type":"address","internalType":"address"},{"name":"timepoint","type":"uint256","internalType":"uint256"}],"outputs":[{"name":"","type":"uint256","internalType":"uint256"}],"stateMutability":"view"},{"type":"function","name":"getVotes","inputs":[{"name":"account","type":"address","internalType":"address"}],"outputs":[{"name":"","type":"uint256","internalType":"uint256"}],"stateMutability":"view"},{"type":"function","name":"isApprovedForAll","inputs":[{"name":"owner","type":"address","internalType":"address"},{"name":"operator","type":"address","internalType":"address"}],"outputs":[{"name":"","type":"bool","internalType":"bool"}],"stateMutability":"view"},{"type":"function","name":"name","inputs":[],"outputs":[{"name":"","type":"string","internalType":"string"}],"stateMutability":"view"},{"type":"function","name":"nonces","inputs":[{"name":"owner","type":"address","internalType":"address"}],"outputs":[{"name":"","type":"uint256","internalType":"uint256"}],"stateMutability":"view"},{"type":"function","name":"ownerOf","inputs":[{"name":"tokenId","type":"uint256","internalType":"uint256"}],"outputs":[{"name":"","type":"address","internalType":"address"}],"stateMutability":"view"},{"type":"function","name":"paused","inputs":[],"outputs":[{"name":"","type":"bool","internalType":"bool"}],"stateMutability":"view"},{"type":"function","name":"safeTransferFrom","inputs":[{"name":"from","type":"address","internalType":"address"},{"name":"to","type":"address","internalType":"address"},{"name":"tokenId","type":"uint256","internalType":"uint256"}],"outputs":[],"stateMutability":"nonpayable"},{"type":"function","name":"safeTransferFrom","inputs":[{"name":"from","type":"address","internalType":"address"},{"name":"to","type":"address","internalType":"address"},{"name":"tokenId","type":"uint256","internalType":"uint256"},{"name":"data","type":"bytes","internalType":"bytes"}],"outputs":[],"stateMutability":"nonpayable"},{"type":"function","name":"setApprovalForAll","inputs":[{"name":"operator","type":"address","internalType":"address"},{"name":"approved","type":"bool","internalType":"bool"}],"outputs":[],"stateMutability":"nonpayable"},{"type":"function","name":"supportsInterface","inputs":[{"name":"interfaceId","type":"bytes4","internalType":"bytes4"}],"outputs":[{"name":"","type":"bool","internalType":"bool"}],"stateMutability":"view"},{"type":"function","name":"symbol","inputs":[],"outputs":[{"name":"","type":"string","internalType":"string"}],"stateMutability":"view"},{"type":"function","name":"tokenURI","inputs":[{"name":"tokenId","type":"uint256","internalType":"uint256"}],"outputs":[{"name":"","type":"string","internalType":"string"}],"stateMutability":"view"},{"type":"function","name":"transferFrom","inputs":[{"name":"from","type":"address","internalType":"address"},{"name":"to","type":"address","internalType":"address"},{"name":"tokenId","type":"uint256","internalType":"uint256"}],"outputs":[],"stateMutability":"nonpayable"},{"type":"event","name":"Approval","inputs":[{"name":"owner","type":"address","indexed":true,"internalType":"address"},{"name":"approved","type":"address","indexed":true,"internalType":"address"},{"name":"tokenId","type":"uint256","indexed":true,"internalType":"uint256"}],"anonymous":false},{"type":"event","name":"ApprovalForAll","inputs":[{"name":"owner","type":"address","indexed":true,"internalType":"address"},{"name":"operator","type":"address","indexed":true,"internalType":"address"},{"name":"approved","type":"bool","indexed":false,"internalType":"bool"}],"anonymous":false},{"type":"event","name":"ConsecutiveTransfer","inputs":[{"name":"fromTokenId","type":"uint256","indexed":true,"internalType":"uint256"},{"name":"toTokenId","type":"uint256","indexed":false,"internalType":"uint256"},{"name":"fromAddress","type":"address","indexed":true,"internalType":"address"},{"name":"toAddress","type":"address","indexed":true,"internalType":"address"}],"anonymous":false},{"type":"event","name":"DelegateChanged","inputs":[{"name":"delegator","type":"address","indexed":true,"internalType":"address"},{"name":"fromDelegate","type":"address","indexed":true,"internalType":"address"},{"name":"toDelegate","type":"address","indexed":true,"internalType":"address"}],"anonymous":false},{"type":"event","name":"DelegateVotesChanged","inputs":[{"name":"delegate","type":"address","indexed":true,"internalType":"address"},{"name":"previousBalance","type":"uint256","indexed":false,"internalType":"uint256"},{"name":"newBalance","type":"uint256","indexed":false,"internalType":"uint256"}],"anonymous":false},{"type":"event","name":"EIP712DomainChanged","inputs":[],"anonymous":false},{"type":"event","name":"Paused","inputs":[{"name":"account","type":"address","indexed":false,"internalType":"address"}],"anonymous":false},{"type":"event","name":"Transfer","inputs":[{"name":"from","type":"address","indexed":true,"internalType":"address"},{"name":"to","type":"address","indexed":true,"internalType":"address"},{"name":"tokenId","type":"uint256","indexed":true,"internalType":"uint256"}],"anonymous":false},{"type":"event","name":"Unpaused","inputs":[{"name":"account","type":"address","indexed":false,"internalType":"address"}],"anonymous":false},{"type":"error","name":"InvalidShortString","inputs":[]},{"type":"error","name":"StringTooLong","inputs":[{"name":"str","type":"string","internalType":"string"}]}],"bytecode":{"object":"0x6101606040523480156200001257600080fd5b506040516200435638038062004356833981016040819052620000359162001449565b84604051806040016040528060018152602001603160f81b815250868681600090805190602001906200006a92919062001198565b5080516200008090600190602084019062001198565b50506008805460ff1916905550620000a68260096200023c602090811b62000b9c17901c565b61012052620000c381600a6200023c602090811b62000b9c17901c565b61014052815160208084019190912060e052815190820120610100524660a0526200015160e05161010051604080517f8b73c3c69bb8fe3d512ecc4cf759cc79239f7b179b0ffacaa9a75d522b39400f60208201529081019290925260608201524660808201523060a082015260009060c00160405160208183030381529060405280519060200120905090565b60805250503060c05260005b8351811015620001c457620001b18482815181106200018057620001806200152a565b60200260200101518583815181106200019d576200019d6200152a565b60200260200101516200029060201b60201c565b620001bc8162001556565b90506200015d565b5060005b825181101562000230576200021c838281518110620001eb57620001eb6200152a565b60200260200101518383815181106200020857620002086200152a565b60200260200101516200030b60201b60201c565b50620002288162001556565b9050620001c8565b505050505050620016db565b60006020835110156200025c5762000254836200056d565b90506200028a565b826200027383620005b060201b62000bd31760201c565b815162000284926020019062001198565b5060ff90505b92915050565b6001600160a01b038281166000818152600b602052604080822080548686166001600160a01b0319821681179092559151919094169392849290917f3134e8a2e6d97e929a7e54011ea5485d7d196dd5f0ba4d4ef95803e8e3fc257f9190a46200030681836200030086620005b3565b620005c0565b505050565b6000806200031862000759565b90506001600160601b03831615620005665762000340306200079c60201b62000bd61760201c565b15620003b95760405162461bcd60e51b815260206004820152603a60248201527f455243373231436f6e73656375746976653a206261746368206d696e74696e6760448201527f207265737472696374656420746f20636f6e7374727563746f7200000000000060648201526084015b60405180910390fd5b6001600160a01b038416620004255760405162461bcd60e51b815260206004820152602b60248201527f455243373231436f6e73656375746976653a206d696e7420746f20746865207a60448201526a65726f206164647265737360a81b6064820152608401620003b0565b6113886001600160601b03841611156200048d5760405162461bcd60e51b815260206004820152602260248201527f455243373231436f6e73656375746976653a20626174636820746f6f206c6172604482015261676560f01b6064820152608401620003b0565b620004a86000856001600160601b03808516908716620007ab565b60006001620004b8858462001572565b620004c49190620015a0565b9050620004e381866006620007ca60201b62000be5179092919060201c565b50620004fb9050856001600160601b038616620007e7565b6040516001600160601b0382811682526001600160a01b038716916000918516907fdeaa91b6123d068f5821d0fb0678463d1a8a6079fe8af5de3ce5e896dcf9133d9060200160405180910390a4620005646000866001600160601b038086169088166200081a565b505b9392505050565b600080829050601f815111156200059b578260405163305a27a960e01b8152600401620003b09190620015cb565b8051620005a88262001600565b179392505050565b90565b60006200028a8262000833565b816001600160a01b0316836001600160a01b031614158015620005e35750600081115b1562000306576001600160a01b03831615620006a2576000806200064d600c6000876001600160a01b03166001600160a01b03168152602001908152602001600020620008bb60201b62000c00176200064786620008c960201b62000c0c1760201c565b62000938565b6001600160e01b031691506001600160e01b03169150846001600160a01b031660008051602062004336833981519152838360405162000697929190918252602082015260400190565b60405180910390a250505b6001600160a01b03821615620003065760008062000700600c6000866001600160a01b03166001600160a01b031681526020019081526020016000206200099d60201b62000c79176200064786620008c960201b62000c0c1760201c565b6001600160e01b031691506001600160e01b03169150836001600160a01b03166000805160206200433683398151915283836040516200074a929190918252602082015260400190565b60405180910390a25050505050565b6000806000620007756006620009ab60201b62000c851760201c565b5091509150816200078857600062000795565b6200079581600162001572565b9250505090565b6001600160a01b03163b151590565b620007c48484848462000a4360201b62000d0e1760201c565b50505050565b600080620007da85858562000ac5565b915091505b935093915050565b6001600160a01b038216600090815260036020526040812080548392906200081190849062001628565b90915550505050565b620007c48484848462000ca460201b62000d751760201c565b60006001600160a01b0382166200089f5760405162461bcd60e51b815260206004820152602960248201527f4552433732313a2061646472657373207a65726f206973206e6f7420612076616044820152683634b21037bbb732b960b91b6064820152608401620003b0565b506001600160a01b031660009081526003602052604090205490565b600062000566828462001643565b60006001600160e01b03821115620009345760405162461bcd60e51b815260206004820152602760248201527f53616665436173743a2076616c756520646f65736e27742066697420696e20326044820152663234206269747360c81b6064820152608401620003b0565b5090565b600080620007da620009666200094d62000cca565b65ffffffffffff1662000ce760201b62000d8c1760201c565b62000987620009808862000d4e60201b62000df11760201c565b868860201c565b8762000d8d60201b62000e2b179092919060201c565b600062000566828462001666565b805460009081908190808203620009ce5760008060009350935093505062000a3c565b6000620009f086620009e26001856200168b565b600091825260209091200190565b6040805180820190915290546001600160601b0381168083526c010000000000000000000000009091046001600160a01b03166020909201829052600196509450925062000a3c915050565b9193909250565b62000a5c84848484620007c460201b620009f51760201c565b60085460ff1615620007c45760405162461bcd60e51b815260206004820152602b60248201527f4552433732315061757361626c653a20746f6b656e207472616e73666572207760448201526a1a1a5b19481c185d5cd95960aa1b6064820152608401620003b0565b82546000908190801562000c3e57600062000ae787620009e26001856200168b565b6040805180820190915290546001600160601b038082168084526c010000000000000000000000009092046001600160a01b03166020840152919250908716101562000b765760405162461bcd60e51b815260206004820152601b60248201527f436865636b706f696e743a2064656372656173696e67206b65797300000000006044820152606401620003b0565b80516001600160601b0380881691160362000bd2578462000b9e88620009e26001866200168b565b80546001600160a01b03929092166c01000000000000000000000000026001600160601b0390921691909117905562000c2d565b604080518082019091526001600160601b0380881682526001600160a01b0380881660208085019182528b54600181018d5560008d815291909120945191519092166c01000000000000000000000000029216919091179101555b602001519250839150620007df9050565b5050604080518082019091526001600160601b0380851682526001600160a01b0380851660208085019182528854600181018a5560008a8152918220955192519093166c01000000000000000000000000029190931617920191909155905081620007df565b62000cb184848362000d9d565b620007c48484848462000e4560201b62000e391760201c565b600062000ce24362000f3360201b62000eec1760201c565b905090565b600063ffffffff821115620009345760405162461bcd60e51b815260206004820152602660248201527f53616665436173743a2076616c756520646f65736e27742066697420696e203360448201526532206269747360d01b6064820152608401620003b0565b8054600090801562000d845762000d6c83620009e26001846200168b565b5464010000000090046001600160e01b031662000566565b60009392505050565b600080620007da85858562000f9c565b6001600160a01b03831662000dd75762000dd4600d6200099d60201b62000c79176200064784620008c960201b62000c0c1760201c565b50505b6001600160a01b03821662000e115762000e0e600d620008bb60201b62000c00176200064784620008c960201b62000c0c1760201c565b50505b6001600160a01b038381166000908152600b60205260408082205485841683529120546200030692918216911683620005c0565b6001600160a01b03831615801562000e6e575062000e6262000759565b6001600160601b031682105b801562000e93575062000e918260076200114b60201b62000f531790919060201c565b155b1562000f1a578060011462000eff5760405162461bcd60e51b815260206004820152602b60248201527f455243373231436f6e73656375746976653a206261746368206275726e206e6f60448201526a1d081cdd5c1c1bdc9d195960aa1b6064820152608401620003b0565b62000f1a8260076200116f60201b62000f771790919060201c565b620007c484848484620007c460201b620009f51760201c565b600065ffffffffffff821115620009345760405162461bcd60e51b815260206004820152602660248201527f53616665436173743a2076616c756520646f65736e27742066697420696e203460448201526538206269747360d01b6064820152608401620003b0565b825460009081908015620010f057600062000fbe87620009e26001856200168b565b60408051808201909152905463ffffffff8082168084526401000000009092046001600160e01b031660208401529192509087161015620010425760405162461bcd60e51b815260206004820152601b60248201527f436865636b706f696e743a2064656372656173696e67206b65797300000000006044820152606401620003b0565b805163ffffffff8088169116036200109057846200106788620009e26001866200168b565b80546001600160e01b03929092166401000000000263ffffffff90921691909117905562000c2d565b6040805180820190915263ffffffff80881682526001600160e01b0380881660208085019182528b54600181018d5560008d8152919091209451915190921664010000000002921691909117910155602001519250839150620007df9050565b50506040805180820190915263ffffffff80851682526001600160e01b0380851660208085019182528854600181018a5560008a815291822095519251909316640100000000029190931617920191909155905081620007df565b600881901c600090815260208390526040902054600160ff83161b16151592915050565b600881901c600090815260209290925260409091208054600160ff9093169290921b9091179055565b828054620011a690620016a5565b90600052602060002090601f016020900481019282620011ca576000855562001215565b82601f10620011e557805160ff191683800117855562001215565b8280016001018555821562001215579182015b8281111562001215578251825591602001919060010190620011f8565b50620009349291505b808211156200093457600081556001016200121e565b634e487b7160e01b600052604160045260246000fd5b604051601f8201601f191681016001600160401b038111828210171562001275576200127562001234565b604052919050565b60005b838110156200129a57818101518382015260200162001280565b83811115620007c45750506000910152565b600082601f830112620012be57600080fd5b81516001600160401b03811115620012da57620012da62001234565b620012ef601f8201601f19166020016200124a565b8181528460208386010111156200130557600080fd5b620013188260208301602087016200127d565b949350505050565b60006001600160401b038211156200133c576200133c62001234565b5060051b60200190565b600082601f8301126200135857600080fd5b81516020620013716200136b8362001320565b6200124a565b82815260059290921b840181019181810190868411156200139157600080fd5b8286015b84811015620013c55780516001600160a01b0381168114620013b75760008081fd5b835291830191830162001395565b509695505050505050565b600082601f830112620013e257600080fd5b81516020620013f56200136b8362001320565b82815260059290921b840181019181810190868411156200141557600080fd5b8286015b84811015620013c55780516001600160601b03811681146200143b5760008081fd5b835291830191830162001419565b600080600080600060a086880312156200146257600080fd5b85516001600160401b03808211156200147a57600080fd5b6200148889838a01620012ac565b965060208801519150808211156200149f57600080fd5b620014ad89838a01620012ac565b95506040880151915080821115620014c457600080fd5b620014d289838a0162001346565b94506060880151915080821115620014e957600080fd5b620014f789838a0162001346565b935060808801519150808211156200150e57600080fd5b506200151d88828901620013d0565b9150509295509295909350565b634e487b7160e01b600052603260045260246000fd5b634e487b7160e01b600052601160045260246000fd5b6000600182016200156b576200156b62001540565b5060010190565b60006001600160601b0382811684821680830382111562001597576200159762001540565b01949350505050565b60006001600160601b0383811690831681811015620015c357620015c362001540565b039392505050565b6020815260008251806020840152620015ec8160408501602087016200127d565b601f01601f19169190910160400192915050565b8051602080830151919081101562001622576000198160200360031b1b821691505b50919050565b600082198211156200163e576200163e62001540565b500190565b60006001600160e01b0383811690831681811015620015c357620015c362001540565b60006001600160e01b0382811684821680830382111562001597576200159762001540565b600082821015620016a057620016a062001540565b500390565b600181811c90821680620016ba57607f821691505b6020821081036200162257634e487b7160e01b600052602260045260246000fd5b60805160a05160c05160e051610100516101205161014051612c006200173660003960006108b301526000610888015260006113330152600061130b0152600061126601526000611290015260006112ba0152612c006000f3fe608060405234801561001057600080fd5b50600436106101735760003560e01c80636352211e116100de57806395d89b4111610097578063b88d4fde11610071578063b88d4fde1461034a578063c3cda5201461035d578063c87b56dd14610370578063e985e9c51461038357600080fd5b806395d89b411461031c5780639ab24eb014610324578063a22cb4651461033757600080fd5b80636352211e1461029657806370a08231146102a95780637ecebe00146102bc57806384b0196e146102cf5780638e539e8c146102ea57806391ddadf4146102fd57600080fd5b80633a46b1a8116101305780633a46b1a81461021e57806342842e0e146102315780634bf5d7e914610244578063587cde1e1461024c5780635c19a95c146102785780635c975abb1461028b57600080fd5b806301ffc9a71461017857806306fdde03146101a0578063081812fc146101b5578063095ea7b3146101e057806323b872dd146101f55780633644e51514610208575b600080fd5b61018b610186366004612571565b6103bf565b60405190151581526020015b60405180910390f35b6101a8610411565b60405161019791906125e6565b6101c86101c33660046125f9565b6104a3565b6040516001600160a01b039091168152602001610197565b6101f36101ee36600461262e565b6104ca565b005b6101f3610203366004612658565b6105e4565b610210610615565b604051908152602001610197565b61021061022c36600461262e565b610624565b6101f361023f366004612658565b6106b5565b6101a86106d0565b6101c861025a366004612694565b6001600160a01b039081166000908152600b60205260409020541690565b6101f3610286366004612694565b610768565b60085460ff1661018b565b6101c86102a43660046125f9565b610777565b6102106102b7366004612694565b6107d6565b6102106102ca366004612694565b61085c565b6102d761087a565b60405161019797969594939291906126af565b6102106102f83660046125f9565b610903565b61030561097d565b60405165ffffffffffff9091168152602001610197565b6101a8610988565b610210610332366004612694565b610997565b6101f3610345366004612745565b6109b8565b6101f3610358366004612797565b6109c3565b6101f361036b366004612873565b6109fb565b6101a861037e3660046125f9565b610b28565b61018b6103913660046128d3565b6001600160a01b03918216600090815260056020908152604080832093909416825291909152205460ff1690565b60006001600160e01b031982166380ac58cd60e01b14806103f057506001600160e01b03198216635b5e139f60e01b145b8061040b57506301ffc9a760e01b6001600160e01b03198316145b92915050565b60606000805461042090612906565b80601f016020809104026020016040519081016040528092919081815260200182805461044c90612906565b80156104995780601f1061046e57610100808354040283529160200191610499565b820191906000526020600020905b81548152906001019060200180831161047c57829003601f168201915b5050505050905090565b60006104ae82610fa0565b506000908152600460205260409020546001600160a01b031690565b60006104d582610777565b9050806001600160a01b0316836001600160a01b0316036105475760405162461bcd60e51b815260206004820152602160248201527f4552433732313a20617070726f76616c20746f2063757272656e74206f776e656044820152603960f91b60648201526084015b60405180910390fd5b336001600160a01b038216148061056357506105638133610391565b6105d55760405162461bcd60e51b815260206004820152603d60248201527f4552433732313a20617070726f76652063616c6c6572206973206e6f7420746f60448201527f6b656e206f776e6572206f7220617070726f76656420666f7220616c6c000000606482015260840161053e565b6105df8383610ff3565b505050565b6105ee3382611061565b61060a5760405162461bcd60e51b815260040161053e9061293a565b6105df8383836110e0565b600061061f611259565b905090565b600061062e61097d565b65ffffffffffff16821061067b5760405162461bcd60e51b81526020600482015260146024820152730566f7465733a20667574757265206c6f6f6b75760641b604482015260640161053e565b6106a561068783610d8c565b6001600160a01b0385166000908152600c6020526040902090611384565b6001600160e01b03169392505050565b6105df838383604051806020016040528060008152506109c3565b6060436106db61097d565b65ffffffffffff16146107305760405162461bcd60e51b815260206004820152601860248201527f566f7465733a2062726f6b656e20636c6f636b206d6f64650000000000000000604482015260640161053e565b5060408051808201909152601d81527f6d6f64653d626c6f636b6e756d6265722666726f6d3d64656661756c74000000602082015290565b33610773818361142b565b5050565b6000806107838361149d565b90506001600160a01b03811661040b5760405162461bcd60e51b8152602060048201526018602482015277115490cdcc8c4e881a5b9d985b1a59081d1bdad95b88125160421b604482015260640161053e565b60006001600160a01b0382166108405760405162461bcd60e51b815260206004820152602960248201527f4552433732313a2061646472657373207a65726f206973206e6f7420612076616044820152683634b21037bbb732b960b91b606482015260840161053e565b506001600160a01b031660009081526003602052604090205490565b6001600160a01b0381166000908152600e602052604081205461040b565b6000606080828080836108ae7f000000000000000000000000000000000000000000000000000000000000000060096114a8565b6108d97f0000000000000000000000000000000000000000000000000000000000000000600a6114a8565b60408051600080825260208201909252600f60f81b9b939a50919850469750309650945092509050565b600061090d61097d565b65ffffffffffff16821061095a5760405162461bcd60e51b81526020600482015260146024820152730566f7465733a20667574757265206c6f6f6b75760641b604482015260640161053e565b61096e61096683610d8c565b600d90611384565b6001600160e01b031692915050565b600061061f43610eec565b60606001805461042090612906565b6001600160a01b0381166000908152600c6020526040812061096e90610df1565b61077333838361154c565b6109cd3383611061565b6109e95760405162461bcd60e51b815260040161053e9061293a565b6109f58484848461161a565b50505050565b83421115610a4b5760405162461bcd60e51b815260206004820152601860248201527f566f7465733a207369676e617475726520657870697265640000000000000000604482015260640161053e565b604080517fe48329057bfd03d55e49b547132e39cffd9c1820ad7b9d4c5307691425d15adf60208201526001600160a01b038816918101919091526060810186905260808101859052600090610ac590610abd9060a0016040516020818303038152906040528051906020012061164d565b85858561167a565b9050610ad0816116a2565b8614610b155760405162461bcd60e51b8152602060048201526014602482015273566f7465733a20696e76616c6964206e6f6e636560601b604482015260640161053e565b610b1f818861142b565b50505050505050565b6060610b3382610fa0565b6000610b4a60408051602081019091526000815290565b90506000815111610b6a5760405180602001604052806000815250610b95565b80610b74846116ca565b604051602001610b85929190612987565b6040516020818303038152906040525b9392505050565b6000602083511015610bb857610bb18361175d565b905061040b565b82828151610bc992602001906124cb565b5060ff905061040b565b90565b6001600160a01b03163b151590565b600080610bf385858561179b565b915091505b935093915050565b6000610b9582846129cc565b60006001600160e01b03821115610c755760405162461bcd60e51b815260206004820152602760248201527f53616665436173743a2076616c756520646f65736e27742066697420696e20326044820152663234206269747360c81b606482015260840161053e565b5090565b6000610b9582846129f4565b805460009081908190808203610ca657600080600093509350935050610d07565b6000610cc586610cb7600185612a16565b600091825260209091200190565b6040805180820190915290546001600160601b038116808352600160601b9091046001600160a01b031660209092018290526001965094509250610d07915050565b9193909250565b60085460ff16156109f55760405162461bcd60e51b815260206004820152602b60248201527f4552433732315061757361626c653a20746f6b656e207472616e73666572207760448201526a1a1a5b19481c185d5cd95960aa1b606482015260840161053e565b610d80848483611949565b6109f584848484610e39565b600063ffffffff821115610c755760405162461bcd60e51b815260206004820152602660248201527f53616665436173743a2076616c756520646f65736e27742066697420696e203360448201526532206269747360d01b606482015260840161053e565b80546000908015610e2257610e0b83610cb7600184612a16565b5464010000000090046001600160e01b0316610b95565b60009392505050565b600080610bf38585856119c4565b6001600160a01b038316158015610e5f5750610e53611b66565b6001600160601b031682105b8015610e735750610e71600783610f53565b155b15610ee75780600114610edc5760405162461bcd60e51b815260206004820152602b60248201527f455243373231436f6e73656375746976653a206261746368206275726e206e6f60448201526a1d081cdd5c1c1bdc9d195960aa1b606482015260840161053e565b610ee7600783610f77565b6109f5565b600065ffffffffffff821115610c755760405162461bcd60e51b815260206004820152602660248201527f53616665436173743a2076616c756520646f65736e27742066697420696e203460448201526538206269747360d01b606482015260840161053e565b600881901c600090815260208390526040902054600160ff83161b16151592915050565b600881901c600090815260209290925260409091208054600160ff9093169290921b9091179055565b610fa981611b98565b610ff05760405162461bcd60e51b8152602060048201526018602482015277115490cdcc8c4e881a5b9d985b1a59081d1bdad95b88125160421b604482015260640161053e565b50565b600081815260046020526040902080546001600160a01b0319166001600160a01b038416908117909155819061102882610777565b6001600160a01b03167f8c5be1e5ebec7d5bd14f71427d1e84f3dd0314c0f7b2291e5b200ac8c7c3b92560405160405180910390a45050565b60008061106d83610777565b9050806001600160a01b0316846001600160a01b031614806110b457506001600160a01b0380821660009081526005602090815260408083209388168352929052205460ff165b806110d85750836001600160a01b03166110cd846104a3565b6001600160a01b0316145b949350505050565b826001600160a01b03166110f382610777565b6001600160a01b0316146111195760405162461bcd60e51b815260040161053e90612a2d565b6001600160a01b03821661117b5760405162461bcd60e51b8152602060048201526024808201527f4552433732313a207472616e7366657220746f20746865207a65726f206164646044820152637265737360e01b606482015260840161053e565b6111888383836001611bb5565b826001600160a01b031661119b82610777565b6001600160a01b0316146111c15760405162461bcd60e51b815260040161053e90612a2d565b600081815260046020908152604080832080546001600160a01b03199081169091556001600160a01b0387811680865260038552838620805460001901905590871680865283862080546001019055868652600290945282852080549092168417909155905184937fddf252ad1be2c89b69c2b068fc378daa952ba7f163c4a11628f55a4df523b3ef91a46105df8383836001611bc1565b6000306001600160a01b037f0000000000000000000000000000000000000000000000000000000000000000161480156112b257507f000000000000000000000000000000000000000000000000000000000000000046145b156112dc57507f000000000000000000000000000000000000000000000000000000000000000090565b61061f604080517f8b73c3c69bb8fe3d512ecc4cf759cc79239f7b179b0ffacaa9a75d522b39400f60208201527f0000000000000000000000000000000000000000000000000000000000000000918101919091527f000000000000000000000000000000000000000000000000000000000000000060608201524660808201523060a082015260009060c00160405160208183030381529060405280519060200120905090565b8154600090818160058111156113e157600061139f84611bcd565b6113a99085612a16565b60008881526020902090915081015463ffffffff90811690871610156113d1578091506113df565b6113dc816001612a72565b92505b505b60006113ef87878585611cb5565b9050801561141d5761140687610cb7600184612a16565b5464010000000090046001600160e01b0316611420565b60005b979650505050505050565b6001600160a01b038281166000818152600b602052604080822080548686166001600160a01b0319821681179092559151919094169392849290917f3134e8a2e6d97e929a7e54011ea5485d7d196dd5f0ba4d4ef95803e8e3fc257f9190a46105df818361149886611d13565b611d1e565b600061040b82611e85565b606060ff83146114bb57610bb183611edb565b8180546114c790612906565b80601f01602080910402602001604051908101604052809291908181526020018280546114f390612906565b80156115405780601f1061151557610100808354040283529160200191611540565b820191906000526020600020905b81548152906001019060200180831161152357829003601f168201915b5050505050905061040b565b816001600160a01b0316836001600160a01b0316036115ad5760405162461bcd60e51b815260206004820152601960248201527f4552433732313a20617070726f766520746f2063616c6c657200000000000000604482015260640161053e565b6001600160a01b03838116600081815260056020908152604080832094871680845294825291829020805460ff191686151590811790915591519182527f17307eab39ab6107e8899845ad3d59bd9653f200f220920489ca2b5937696c31910160405180910390a3505050565b6116258484846110e0565b61163184848484611f1a565b6109f55760405162461bcd60e51b815260040161053e90612a8a565b600061040b61165a611259565b8360405161190160f01b8152600281019290925260228201526042902090565b600080600061168b87878787612018565b91509150611698816120dc565b5095945050505050565b6001600160a01b0381166000908152600e602052604090208054600181018255905b50919050565b606060006116d783612226565b600101905060008167ffffffffffffffff8111156116f7576116f7612781565b6040519080825280601f01601f191660200182016040528015611721576020820181803683370190505b5090508181016020015b600019016f181899199a1a9b1b9c1cb0b131b232b360811b600a86061a8153600a850494508461172b57509392505050565b600080829050601f81511115611788578260405163305a27a960e01b815260040161053e91906125e6565b805161179382612af2565b179392505050565b8254600090819080156118ed5760006117b987610cb7600185612a16565b6040805180820190915290546001600160601b03808216808452600160601b9092046001600160a01b03166020840152919250908716101561183d5760405162461bcd60e51b815260206004820152601b60248201527f436865636b706f696e743a2064656372656173696e67206b6579730000000000604482015260640161053e565b80516001600160601b0380881691160361188b578461186188610cb7600186612a16565b80546001600160a01b0392909216600160601b026001600160601b039092169190911790556118dd565b604080518082019091526001600160601b0380881682526001600160a01b0380881660208085019182528b54600181018d5560008d81529190912094519151909216600160601b029216919091179101555b602001519250839150610bf89050565b5050604080518082019091526001600160601b0380851682526001600160a01b0380851660208085019182528854600181018a5560008a815291822095519251909316600160601b029190931617920191909155905081610bf8565b6001600160a01b0383166119705761196d600d610c7961196884610c0c565b6122fe565b50505b6001600160a01b0382166119925761198f600d610c0061196884610c0c565b50505b6001600160a01b038381166000908152600b60205260408082205485841683529120546105df92918216911683611d1e565b825460009081908015611b0c5760006119e287610cb7600185612a16565b60408051808201909152905463ffffffff8082168084526401000000009092046001600160e01b031660208401529192509087161015611a645760405162461bcd60e51b815260206004820152601b60248201527f436865636b706f696e743a2064656372656173696e67206b6579730000000000604482015260640161053e565b805163ffffffff808816911603611aad5784611a8588610cb7600186612a16565b80546001600160e01b03929092166401000000000263ffffffff9092169190911790556118dd565b6040805180820190915263ffffffff80881682526001600160e01b0380881660208085019182528b54600181018d5560008d8152919091209451915190921664010000000002921691909117910155602001519250839150610bf89050565b50506040805180820190915263ffffffff80851682526001600160e01b0380851660208085019182528854600181018a5560008a815291822095519251909316640100000000029190931617920191909155905081610bf8565b6000806000611b756006610c85565b509150915081611b86576000611b91565b611b91816001612b16565b9250505090565b600080611ba48361149d565b6001600160a01b0316141592915050565b6109f584848484610d0e565b6109f584848484610d75565b600081600003611bdf57506000919050565b60006001611bec8461233a565b901c6001901b90506001818481611c0557611c05612adc565b048201901c90506001818481611c1d57611c1d612adc565b048201901c90506001818481611c3557611c35612adc565b048201901c90506001818481611c4d57611c4d612adc565b048201901c90506001818481611c6557611c65612adc565b048201901c90506001818481611c7d57611c7d612adc565b048201901c90506001818481611c9557611c95612adc565b048201901c9050610b9581828581611caf57611caf612adc565b046123ce565b60005b81831015611d0b576000611ccc84846123e4565b60008781526020902090915063ffffffff86169082015463ffffffff161115611cf757809250611d05565b611d02816001612a72565b93505b50611cb8565b509392505050565b600061040b826107d6565b816001600160a01b0316836001600160a01b031614158015611d405750600081115b156105df576001600160a01b03831615611de3576001600160a01b0383166000908152600c602052604081208190611d7e90610c0061196886610c0c565b6001600160e01b031691506001600160e01b03169150846001600160a01b03167fdec2bacdd2f05b59de34da9b523dff8be42e5e38e818c82fdb0bae774387a7248383604051611dd8929190918252602082015260400190565b60405180910390a250505b6001600160a01b038216156105df576001600160a01b0382166000908152600c602052604081208190611e1c90610c7961196886610c0c565b6001600160e01b031691506001600160e01b03169150836001600160a01b03167fdec2bacdd2f05b59de34da9b523dff8be42e5e38e818c82fdb0bae774387a7248383604051611e76929190918252602082015260400190565b60405180910390a25050505050565b6000818152600260205260408120546001600160a01b031680151580611eb157506001600160601b0383115b15611ebc5792915050565b611ec7600784610f53565b610e2257611ed66006846123ff565b610b95565b60606000611ee883612447565b604080516020808252818301909252919250600091906020820181803683375050509182525060208101929092525090565b60006001600160a01b0384163b1561201057604051630a85bd0160e11b81526001600160a01b0385169063150b7a0290611f5e903390899088908890600401612b38565b6020604051808303816000875af1925050508015611f99575060408051601f3d908101601f19168201909252611f9691810190612b75565b60015b611ff6573d808015611fc7576040519150601f19603f3d011682016040523d82523d6000602084013e611fcc565b606091505b508051600003611fee5760405162461bcd60e51b815260040161053e90612a8a565b805181602001fd5b6001600160e01b031916630a85bd0160e11b1490506110d8565b5060016110d8565b6000807f7fffffffffffffffffffffffffffffff5d576e7357a4501ddfe92f46681b20a083111561204f57506000905060036120d3565b6040805160008082526020820180845289905260ff881692820192909252606081018690526080810185905260019060a0016020604051602081039080840390855afa1580156120a3573d6000803e3d6000fd5b5050604051601f1901519150506001600160a01b0381166120cc576000600192509250506120d3565b9150600090505b94509492505050565b60008160048111156120f0576120f0612b92565b036120f85750565b600181600481111561210c5761210c612b92565b036121595760405162461bcd60e51b815260206004820152601860248201527f45434453413a20696e76616c6964207369676e61747572650000000000000000604482015260640161053e565b600281600481111561216d5761216d612b92565b036121ba5760405162461bcd60e51b815260206004820152601f60248201527f45434453413a20696e76616c6964207369676e6174757265206c656e67746800604482015260640161053e565b60038160048111156121ce576121ce612b92565b03610ff05760405162461bcd60e51b815260206004820152602260248201527f45434453413a20696e76616c6964207369676e6174757265202773272076616c604482015261756560f01b606482015260840161053e565b60008072184f03e93ff9f4daa797ed6e38ed64bf6a1f0160401b83106122655772184f03e93ff9f4daa797ed6e38ed64bf6a1f0160401b830492506040015b6d04ee2d6d415b85acef81000000008310612291576d04ee2d6d415b85acef8100000000830492506020015b662386f26fc1000083106122af57662386f26fc10000830492506010015b6305f5e10083106122c7576305f5e100830492506008015b61271083106122db57612710830492506004015b606483106122ed576064830492506002015b600a831061040b5760010192915050565b600080610bf361231c61230f61097d565b65ffffffffffff16610d8c565b61233261232888610df1565b868863ffffffff16565b879190610e2b565b600080608083901c1561234f57608092831c92015b604083901c1561236157604092831c92015b602083901c1561237357602092831c92015b601083901c1561238557601092831c92015b600883901c1561239757600892831c92015b600483901c156123a957600492831c92015b600283901c156123bb57600292831c92015b600183901c1561040b5760010192915050565b60008183106123dd5781610b95565b5090919050565b60006123f36002848418612ba8565b610b9590848416612a72565b8154600090816124118585838561246f565b905081811461243b57600085815260209020810154600160601b90046001600160a01b031661243e565b60005b95945050505050565b600060ff8216601f81111561040b57604051632cd44ac360e21b815260040160405180910390fd5b60005b81831015611d0b57600061248684846123e4565b6000878152602090209091506001600160601b038616908201546001600160601b031610156124c1576124ba816001612a72565b93506124c5565b8092505b50612472565b8280546124d790612906565b90600052602060002090601f0160209004810192826124f9576000855561253f565b82601f1061251257805160ff191683800117855561253f565b8280016001018555821561253f579182015b8281111561253f578251825591602001919060010190612524565b50610c759291505b80821115610c755760008155600101612547565b6001600160e01b031981168114610ff057600080fd5b60006020828403121561258357600080fd5b8135610b958161255b565b60005b838110156125a9578181015183820152602001612591565b838111156109f55750506000910152565b600081518084526125d281602086016020860161258e565b601f01601f19169290920160200192915050565b602081526000610b9560208301846125ba565b60006020828403121561260b57600080fd5b5035919050565b80356001600160a01b038116811461262957600080fd5b919050565b6000806040838503121561264157600080fd5b61264a83612612565b946020939093013593505050565b60008060006060848603121561266d57600080fd5b61267684612612565b925061268460208501612612565b9150604084013590509250925092565b6000602082840312156126a657600080fd5b610b9582612612565b60ff60f81b881681526000602060e0818401526126cf60e084018a6125ba565b83810360408501526126e1818a6125ba565b606085018990526001600160a01b038816608086015260a0850187905284810360c0860152855180825283870192509083019060005b8181101561273357835183529284019291840191600101612717565b50909c9b505050505050505050505050565b6000806040838503121561275857600080fd5b61276183612612565b91506020830135801515811461277657600080fd5b809150509250929050565b634e487b7160e01b600052604160045260246000fd5b600080600080608085870312156127ad57600080fd5b6127b685612612565b93506127c460208601612612565b925060408501359150606085013567ffffffffffffffff808211156127e857600080fd5b818701915087601f8301126127fc57600080fd5b81358181111561280e5761280e612781565b604051601f8201601f19908116603f0116810190838211818310171561283657612836612781565b816040528281528a602084870101111561284f57600080fd5b82602086016020830137600060208483010152809550505050505092959194509250565b60008060008060008060c0878903121561288c57600080fd5b61289587612612565b95506020870135945060408701359350606087013560ff811681146128b957600080fd5b9598949750929560808101359460a0909101359350915050565b600080604083850312156128e657600080fd5b6128ef83612612565b91506128fd60208401612612565b90509250929050565b600181811c9082168061291a57607f821691505b6020821081036116c457634e487b7160e01b600052602260045260246000fd5b6020808252602d908201527f4552433732313a2063616c6c6572206973206e6f7420746f6b656e206f776e6560408201526c1c881bdc88185c1c1c9bdd9959609a1b606082015260800190565b6000835161299981846020880161258e565b8351908301906129ad81836020880161258e565b01949350505050565b634e487b7160e01b600052601160045260246000fd5b60006001600160e01b03838116908316818110156129ec576129ec6129b6565b039392505050565b60006001600160e01b038281168482168083038211156129ad576129ad6129b6565b600082821015612a2857612a286129b6565b500390565b60208082526025908201527f4552433732313a207472616e736665722066726f6d20696e636f72726563742060408201526437bbb732b960d91b606082015260800190565b60008219821115612a8557612a856129b6565b500190565b60208082526032908201527f4552433732313a207472616e7366657220746f206e6f6e20455243373231526560408201527131b2b4bb32b91034b6b83632b6b2b73a32b960711b606082015260800190565b634e487b7160e01b600052601260045260246000fd5b805160208083015191908110156116c45760001960209190910360031b1b16919050565b60006001600160601b038083168185168083038211156129ad576129ad6129b6565b6001600160a01b0385811682528416602082015260408101839052608060608201819052600090612b6b908301846125ba565b9695505050505050565b600060208284031215612b8757600080fd5b8151610b958161255b565b634e487b7160e01b600052602160045260246000fd5b600082612bc557634e487b7160e01b600052601260045260246000fd5b50049056fea2646970667358221220eefa6ac4c11b8e4254072d12145ed9ba20df8edd9adaf0db77d889437c94241964736f6c634300080d0033dec2bacdd2f05b59de34da9b523dff8be42e5e38e818c82fdb0bae774387a724","linkReferences":{}},"methodIdentifiers":{"CLOCK_MODE()":"4bf5d7e9","DOMAIN_SEPARATOR()":"3644e515","approve(address,uint256)":"095ea7b3","balanceOf(address)":"70a08231","clock()":"91ddadf4","delegate(address)":"5c19a95c","delegateBySig(address,uint256,uint256,uint8,bytes32,bytes32)":"c3cda520","delegates(address)":"587cde1e","eip712Domain()":"84b0196e","getApproved(uint256)":"081812fc","getPastTotalSupply(uint256)":"8e539e8c","getPastVotes(address,uint256)":"3a46b1a8","getVotes(address)":"9ab24eb0","isApprovedForAll(address,address)":"e985e9c5","name()":"06fdde03","nonces(address)":"7ecebe00","ownerOf(uint256)":"6352211e","paused()":"5c975abb","safeTransferFrom(address,address,uint256)":"42842e0e","safeTransferFrom(address,address,uint256,bytes)":"b88d4fde","setApprovalForAll(address,bool)":"a22cb465","supportsInterface(bytes4)":"01ffc9a7","symbol()":"95d89b41","tokenURI(uint256)":"c87b56dd","transferFrom(address,address,uint256)":"23b872dd"},"id":157}