{"abi":[{"type":"function","name":"allowance","inputs":[{"name":"owner","type":"address","internalType":"address"},{"name":"spender","type":"address","internalType":"address"}],"outputs":[{"name":"","type":"uint256","internalType":"uint256"}],"stateMutability":"view"},{"type":"function","name":"approve","inputs":[{"name":"spender","type":"address","internalType":"address"},{"name":"amount","type":"uint256","internalType":"uint256"}],"outputs":[{"name":"","type":"bool","internalType":"bool"}],"stateMutability":"nonpayable"},{"type":"function","name":"balanceOf","inputs":[{"name":"account","type":"address","internalType":"address"}],"outputs":[{"name":"","type":"uint256","internalType":"uint256"}],"stateMutability":"view"},{"type":"function","name":"burn","inputs":[{"name":"amount","type":"uint256","internalType":"uint256"}],"outputs":[],"stateMutability":"nonpayable"},{"type":"function","name":"burnFrom","inputs":[{"name":"account","type":"address","internalType":"address"},{"name":"amount","type":"uint256","internalType":"uint256"}],"outputs":[],"stateMutability":"nonpayable"},{"type":"function","name":"decimals","inputs":[],"outputs":[{"name":"","type":"uint8","internalType":"uint8"}],"stateMutability":"view"},{"type":"function","name":"decreaseAllowance","inputs":[{"name":"spender","type":"address","internalType":"address"},{"name":"subtractedValue","type":"uint256","internalType":"uint256"}],"outputs":[{"name":"","type":"bool","internalType":"bool"}],"stateMutability":"nonpayable"},{"type":"function","name":"increaseAllowance","inputs":[{"name":"spender","type":"address","internalType":"address"},{"name":"addedValue","type":"uint256","internalType":"uint256"}],"outputs":[{"name":"","type":"bool","internalType":"bool"}],"stateMutability":"nonpayable"},{"type":"function","name":"initialize","inputs":[{"name":"name","type":"string","internalType":"string"},{"name":"symbol","type":"string","internalType":"string"},{"name":"initialSupply","type":"uint256","internalType":"uint256"},{"name":"owner","type":"address","internalType":"address"}],"outputs":[],"stateMutability":"nonpayable"},{"type":"function","name":"name","inputs":[],"outputs":[{"name":"","type":"string","internalType":"string"}],"stateMutability":"view"},{"type":"function","name":"symbol","inputs":[],"outputs":[{"name":"","type":"string","internalType":"string"}],"stateMutability":"view"},{"type":"function","name":"totalSupply","inputs":[],"outputs":[{"name":"","type":"uint256","internalType":"uint256"}],"stateMutability":"view"},{"type":"function","name":"transfer","inputs":[{"name":"to","type":"address","internalType":"address"},{"name":"amount","type":"uint256","internalType":"uint256"}],"outputs":[{"name":"","type":"bool","internalType":"bool"}],"stateMutability":"nonpayable"},{"type":"function","name":"transferFrom","inputs":[{"name":"from","type":"address","internalType":"address"},{"name":"to","type":"address","internalType":"address"},{"name":"amount","type":"uint256","internalType":"uint256"}],"outputs":[{"name":"","type":"bool","internalType":"bool"}],"stateMutability":"nonpayable"},{"type":"event","name":"Approval","inputs":[{"name":"owner","type":"address","indexed":true,"internalType":"address"},{"name":"spender","type":"address","indexed":true,"internalType":"address"},{"name":"value","type":"uint256","indexed":false,"internalType":"uint256"}],"anonymous":false},{"type":"event","name":"Initialized","inputs":[{"name":"version","type":"uint8","indexed":false,"internalType":"uint8"}],"anonymous":false},{"type":"event","name":"Transfer","inputs":[{"name":"from","type":"address","indexed":true,"internalType":"address"},{"name":"to","type":"address","indexed":true,"internalType":"address"},{"name":"value","type":"uint256","indexed":false,"internalType":"uint256"}],"anonymous":false}],"bytecode":{"object":"0x6080604052348015600e575f5ffd5b50610ee78061001c5f395ff3fe608060405234801561000f575f5ffd5b50600436106100e5575f3560e01c806370a0823111610088578063a457c2d711610063578063a457c2d7146101c9578063a9059cbb146101dc578063bd3a13f6146101ef578063dd62ed3e14610202575f5ffd5b806370a082311461018657806379cc6790146101ae57806395d89b41146101c1575f5ffd5b806323b872dd116100c357806323b872dd1461013c578063313ce5671461014f578063395093511461015e57806342966c6814610171575f5ffd5b806306fdde03146100e9578063095ea7b31461010757806318160ddd1461012a575b5f5ffd5b6100f1610215565b6040516100fe9190610ad9565b60405180910390f35b61011a610115366004610b29565b6102a5565b60405190151581526020016100fe565b6035545b6040519081526020016100fe565b61011a61014a366004610b51565b6102be565b604051601281526020016100fe565b61011a61016c366004610b29565b6102e1565b61018461017f366004610b8b565b610302565b005b61012e610194366004610ba2565b6001600160a01b03165f9081526033602052604090205490565b6101846101bc366004610b29565b61030f565b6100f1610328565b61011a6101d7366004610b29565b610337565b61011a6101ea366004610b29565b6103b6565b6101846101fd366004610c61565b6103c3565b61012e610210366004610cdf565b6104d6565b60606036805461022490610d10565b80601f016020809104026020016040519081016040528092919081815260200182805461025090610d10565b801561029b5780601f106102725761010080835404028352916020019161029b565b820191905f5260205f20905b81548152906001019060200180831161027e57829003601f168201915b5050505050905090565b5f336102b2818585610500565b60019150505b92915050565b5f336102cb858285610624565b6102d685858561069c565b506001949350505050565b5f336102b28185856102f383836104d6565b6102fd9190610d48565b610500565b61030c3382610845565b50565b61031a823383610624565b6103248282610845565b5050565b60606037805461022490610d10565b5f338161034482866104d6565b9050838110156103a95760405162461bcd60e51b815260206004820152602560248201527f45524332303a2064656372656173656420616c6c6f77616e63652062656c6f77604482015264207a65726f60d81b60648201526084015b60405180910390fd5b6102d68286868403610500565b5f336102b281858561069c565b5f54610100900460ff16158080156103e157505f54600160ff909116105b806103fa5750303b1580156103fa57505f5460ff166001145b61045d5760405162461bcd60e51b815260206004820152602e60248201527f496e697469616c697a61626c653a20636f6e747261637420697320616c72656160448201526d191e481a5b9a5d1a585b1a5e995960921b60648201526084016103a0565b5f805460ff19166001179055801561047e575f805461ff0019166101001790555b61048a85858585610974565b80156104cf575f805461ff0019169055604051600181527f7f26b83ff96e1f2b6a682f133852f6798a09c465da95921460cefb38474024989060200160405180910390a15b5050505050565b6001600160a01b039182165f90815260346020908152604080832093909416825291909152205490565b6001600160a01b0383166105625760405162461bcd60e51b8152602060048201526024808201527f45524332303a20617070726f76652066726f6d20746865207a65726f206164646044820152637265737360e01b60648201526084016103a0565b6001600160a01b0382166105c35760405162461bcd60e51b815260206004820152602260248201527f45524332303a20617070726f766520746f20746865207a65726f206164647265604482015261737360f01b60648201526084016103a0565b6001600160a01b038381165f8181526034602090815260408083209487168084529482529182902085905590518481527f8c5be1e5ebec7d5bd14f71427d1e84f3dd0314c0f7b2291e5b200ac8c7c3b92591015b60405180910390a3505050565b5f61062f84846104d6565b90505f19811461069657818110156106895760405162461bcd60e51b815260206004820152601d60248201527f45524332303a20696e73756666696369656e7420616c6c6f77616e636500000060448201526064016103a0565b6106968484848403610500565b50505050565b6001600160a01b0383166107005760405162461bcd60e51b815260206004820152602560248201527f45524332303a207472616e736665722066726f6d20746865207a65726f206164604482015264647265737360d81b60648201526084016103a0565b6001600160a01b0382166107625760405162461bcd60e51b815260206004820152602360248201527f45524332303a207472616e7366657220746f20746865207a65726f206164647260448201526265737360e81b60648201526084016103a0565b6001600160a01b0383165f90815260336020526040902054818110156107d95760405162461bcd60e51b815260206004820152602660248201527f45524332303a207472616e7366657220616d6f756e7420657863656564732062604482015265616c616e636560d01b60648201526084016103a0565b6001600160a01b038085165f8181526033602052604080822086860390559286168082529083902080548601905591517fddf252ad1be2c89b69c2b068fc378daa952ba7f163c4a11628f55a4df523b3ef906108389086815260200190565b60405180910390a3610696565b6001600160a01b0382166108a55760405162461bcd60e51b815260206004820152602160248201527f45524332303a206275726e2066726f6d20746865207a65726f206164647265736044820152607360f81b60648201526084016103a0565b6001600160a01b0382165f90815260336020526040902054818110156109185760405162461bcd60e51b815260206004820152602260248201527f45524332303a206275726e20616d6f756e7420657863656564732062616c616e604482015261636560f01b60648201526084016103a0565b6001600160a01b0383165f8181526033602090815260408083208686039055603580548790039055518581529192917fddf252ad1be2c89b69c2b068fc378daa952ba7f163c4a11628f55a4df523b3ef9101610617565b505050565b5f54610100900460ff1661099a5760405162461bcd60e51b81526004016103a090610d67565b6109a484846109b0565b610696848484846109ef565b5f54610100900460ff166109d65760405162461bcd60e51b81526004016103a090610d67565b60366109e28382610df6565b50603761096f8282610df6565b5f54610100900460ff16610a155760405162461bcd60e51b81526004016103a090610d67565b61069681836001600160a01b038216610a705760405162461bcd60e51b815260206004820152601f60248201527f45524332303a206d696e7420746f20746865207a65726f20616464726573730060448201526064016103a0565b8060355f828254610a819190610d48565b90915550506001600160a01b0382165f818152603360209081526040808320805486019055518481527fddf252ad1be2c89b69c2b068fc378daa952ba7f163c4a11628f55a4df523b3ef910160405180910390a35050565b602081525f82518060208401528060208501604085015e5f604082850101526040601f19601f83011684010191505092915050565b80356001600160a01b0381168114610b24575f5ffd5b919050565b5f5f60408385031215610b3a575f5ffd5b610b4383610b0e565b946020939093013593505050565b5f5f5f60608486031215610b63575f5ffd5b610b6c84610b0e565b9250610b7a60208501610b0e565b929592945050506040919091013590565b5f60208284031215610b9b575f5ffd5b5035919050565b5f60208284031215610bb2575f5ffd5b610bbb82610b0e565b9392505050565b634e487b7160e01b5f52604160045260245ffd5b5f82601f830112610be5575f5ffd5b813567ffffffffffffffff811115610bff57610bff610bc2565b604051601f8201601f19908116603f0116810167ffffffffffffffff81118282101715610c2e57610c2e610bc2565b604052818152838201602001851015610c45575f5ffd5b816020850160208301375f918101602001919091529392505050565b5f5f5f5f60808587031215610c74575f5ffd5b843567ffffffffffffffff811115610c8a575f5ffd5b610c9687828801610bd6565b945050602085013567ffffffffffffffff811115610cb2575f5ffd5b610cbe87828801610bd6565b93505060408501359150610cd460608601610b0e565b905092959194509250565b5f5f60408385031215610cf0575f5ffd5b610cf983610b0e565b9150610d0760208401610b0e565b90509250929050565b600181811c90821680610d2457607f821691505b602082108103610d4257634e487b7160e01b5f52602260045260245ffd5b50919050565b808201808211156102b857634e487b7160e01b5f52601160045260245ffd5b6020808252602b908201527f496e697469616c697a61626c653a20636f6e7472616374206973206e6f74206960408201526a6e697469616c697a696e6760a81b606082015260800190565b601f82111561096f57805f5260205f20601f840160051c81016020851015610dd75750805b601f840160051c820191505b818110156104cf575f8155600101610de3565b815167ffffffffffffffff811115610e1057610e10610bc2565b610e2481610e1e8454610d10565b84610db2565b6020601f821160018114610e56575f8315610e3f5750848201515b5f19600385901b1c1916600184901b1784556104cf565b5f84815260208120601f198516915b82811015610e855787850151825560209485019460019092019101610e65565b5084821015610ea257868401515f19600387901b60f8161c191681555b50505050600190811b0190555056fea2646970667358221220802426d1ddf0baf451071628cde2d83384d4c660940b855c3ea5849d2e4e16e664736f6c634300081c0033","linkReferences":{}},"methodIdentifiers":{"allowance(address,address)":"dd62ed3e","approve(address,uint256)":"095ea7b3","balanceOf(address)":"70a08231","burn(uint256)":"42966c68","burnFrom(address,uint256)":"79cc6790","decimals()":"313ce567","decreaseAllowance(address,uint256)":"a457c2d7","increaseAllowance(address,uint256)":"39509351","initialize(string,string,uint256,address)":"bd3a13f6","name()":"06fdde03","symbol()":"95d89b41","totalSupply()":"18160ddd","transfer(address,uint256)":"a9059cbb","transferFrom(address,address,uint256)":"23b872dd"},"id":121}