{"abi":[{"type":"function","name":"decimals","inputs":[],"outputs":[{"name":"","type":"uint256","internalType":"uint256"}],"stateMutability":"pure"}],"bytecode":{"object":"0x6080604052348015600e575f5ffd5b50607480601a5f395ff3fe6080604052348015600e575f5ffd5b50600436106026575f3560e01c8063313ce56714602a575b5f5ffd5b5f1960405190815260200160405180910390f3fea26469706673582212207ad5277ffb422c121e67acb76a3fcf0af71475e63ec4d3172582233b3b335fbc64736f6c634300081c0033","linkReferences":{}},"methodIdentifiers":{"decimals()":"313ce567"},"id":156}