{"abi":[{"type":"constructor","inputs":[{"name":"array","type":"uint256[]","internalType":"uint256[]"}],"stateMutability":"nonpayable"},{"type":"function","name":"findUpperBound","inputs":[{"name":"element","type":"uint256","internalType":"uint256"}],"outputs":[{"name":"","type":"uint256","internalType":"uint256"}],"stateMutability":"view"},{"type":"function","name":"unsafeAccess","inputs":[{"name":"pos","type":"uint256","internalType":"uint256"}],"outputs":[{"name":"","type":"uint256","internalType":"uint256"}],"stateMutability":"view"}],"bytecode":{"object":"0x608060405234801561000f575f5ffd5b5060405161039e38038061039e83398101604081905261002e916100b8565b8051610040905f906020840190610047565b505061017f565b828054828255905f5260205f20908101928215610080579160200282015b82811115610080578251825591602001919060010190610065565b5061008c929150610090565b5090565b5b8082111561008c575f8155600101610091565b634e487b7160e01b5f52604160045260245ffd5b5f602082840312156100c8575f5ffd5b81516001600160401b038111156100dd575f5ffd5b8201601f810184136100ed575f5ffd5b80516001600160401b03811115610106576101066100a4565b604051600582901b90603f8201601f191681016001600160401b0381118282101715610134576101346100a4565b604052918252602081840181019290810187841115610151575f5ffd5b6020850194505b8385101561017457845180825260209586019590935001610158565b509695505050505050565b6102128061018c5f395ff3fe608060405234801561000f575f5ffd5b5060043610610034575f3560e01c806333e3a58a1461003857806340aa934d1461005d575b5f5ffd5b61004b61004636600461016c565b610094565b60405190815260200160405180910390f35b61004b61006b36600461016c565b5f80527f290decd9548b62a8d60345a988386fc84ba6bc95484008f6362f93160ef3e563015490565b5f61009f81836100a5565b92915050565b81545f9081036100b657505f61009f565b82545f905b80821015610100575f6100ce838361014b565b5f87815260209020909150859082015411156100ec578091506100fa565b6100f7816001610197565b92505b506100bb565b5f8211801561012a5750836101278661011a6001866101aa565b5f91825260209091200190565b54145b156101435761013a6001836101aa565b9250505061009f565b509392505050565b5f61015960028484186101bd565b61016590848416610197565b9392505050565b5f6020828403121561017c575f5ffd5b5035919050565b634e487b7160e01b5f52601160045260245ffd5b8082018082111561009f5761009f610183565b8181038181111561009f5761009f610183565b5f826101d757634e487b7160e01b5f52601260045260245ffd5b50049056fea2646970667358221220351a41f2c9b427abae22d9d4103278cf86f18bee9bc09b431b4c03d091335a8d64736f6c634300081c0033","linkReferences":{}},"methodIdentifiers":{"findUpperBound(uint256)":"33e3a58a","unsafeAccess(uint256)":"40aa934d"},"id":101}