{"abi":[{"type":"receive","stateMutability":"payable"},{"type":"function","name":"setAcceptEther","inputs":[{"name":"acceptEther","type":"bool","internalType":"bool"}],"outputs":[],"stateMutability":"nonpayable"}],"bytecode":{"object":"0x6080604052348015600e575f5ffd5b5060b680601a5f395ff3fe608060405260043610601e575f3560e01c80634fea120c146034575f5ffd5b366030575f5460ff16602e575f5ffd5b005b5f5ffd5b348015603e575f5ffd5b50602e604a366004605c565b5f805460ff1916911515919091179055565b5f60208284031215606b575f5ffd5b813580151581146079575f5ffd5b939250505056fea2646970667358221220132b5f3904d0e09b58df20c56396abae43cfe7b35556d32fecccaf42864f233f64736f6c634300081c0033","linkReferences":{}},"methodIdentifiers":{"setAcceptEther(bool)":"4fea120c"},"id":118}