{"abi":[{"type":"function","name":"encode","inputs":[{"name":"input","type":"bytes","internalType":"bytes"}],"outputs":[{"name":"","type":"string","internalType":"string"}],"stateMutability":"pure"}],"bytecode":{"object":"0x608060405234801561001057600080fd5b506103dd806100206000396000f3fe608060405234801561001057600080fd5b506004361061002b5760003560e01c806312496a1b14610030575b600080fd5b61004361003e3660046101f2565b610059565b60405161005091906102a3565b60405180910390f35b604080516020810190915260001981526060906100758361007c565b9392505050565b6060815160000361009b57505060408051602081019091526000815290565b600060405180606001604052806040815260200161036860409139905060006003845160026100ca919061030e565b6100d49190610326565b6100df906004610348565b67ffffffffffffffff8111156100f7576100f76101dc565b6040519080825280601f01601f191660200182016040528015610121576020820181803683370190505b50905060018201602082018586518701602081018051600082525b82841015610197576003840193508351603f8160121c168701518653600186019550603f81600c1c168701518653600186019550603f8160061c168701518653600186019550603f811687015186535060018501945061013c565b90525050855160039006600181146101b657600281146101c9576101d1565b603d6001830353603d60028303536101d1565b603d60018303535b509195945050505050565b634e487b7160e01b600052604160045260246000fd5b60006020828403121561020457600080fd5b813567ffffffffffffffff8082111561021c57600080fd5b818401915084601f83011261023057600080fd5b813581811115610242576102426101dc565b604051601f8201601f19908116603f0116810190838211818310171561026a5761026a6101dc565b8160405282815287602084870101111561028357600080fd5b826020860160208301376000928101602001929092525095945050505050565b600060208083528351808285015260005b818110156102d0578581018301518582016040015282016102b4565b818111156102e2576000604083870101525b50601f01601f1916929092016040019392505050565b634e487b7160e01b600052601160045260246000fd5b60008219821115610321576103216102f8565b500190565b60008261034357634e487b7160e01b600052601260045260246000fd5b500490565b6000816000190483118215151615610362576103626102f8565b50029056fe4142434445464748494a4b4c4d4e4f505152535455565758595a6162636465666768696a6b6c6d6e6f707172737475767778797a303132333435363738392b2fa2646970667358221220f40519da41a9356ff60110ec0713263d62d10dfaf5445334966ca3fba568481064736f6c634300080d0033","linkReferences":{}},"methodIdentifiers":{"encode(bytes)":"12496a1b"},"id":92}