{"abi":[{"type":"function","name":"deposit","inputs":[{"name":"payee","type":"address","internalType":"address"}],"outputs":[],"stateMutability":"payable"},{"type":"function","name":"depositsOf","inputs":[{"name":"payee","type":"address","internalType":"address"}],"outputs":[{"name":"","type":"uint256","internalType":"uint256"}],"stateMutability":"view"},{"type":"function","name":"initialize","inputs":[],"outputs":[],"stateMutability":"nonpayable"},{"type":"function","name":"owner","inputs":[],"outputs":[{"name":"","type":"address","internalType":"address"}],"stateMutability":"view"},{"type":"function","name":"renounceOwnership","inputs":[],"outputs":[],"stateMutability":"nonpayable"},{"type":"function","name":"transferOwnership","inputs":[{"name":"newOwner","type":"address","internalType":"address"}],"outputs":[],"stateMutability":"nonpayable"},{"type":"function","name":"withdraw","inputs":[{"name":"payee","type":"address","internalType":"address payable"}],"outputs":[],"stateMutability":"nonpayable"},{"type":"event","name":"Deposited","inputs":[{"name":"payee","type":"address","indexed":true,"internalType":"address"},{"name":"weiAmount","type":"uint256","indexed":false,"internalType":"uint256"}],"anonymous":false},{"type":"event","name":"Initialized","inputs":[{"name":"version","type":"uint8","indexed":false,"internalType":"uint8"}],"anonymous":false},{"type":"event","name":"OwnershipTransferred","inputs":[{"name":"previousOwner","type":"address","indexed":true,"internalType":"address"},{"name":"newOwner","type":"address","indexed":true,"internalType":"address"}],"anonymous":false},{"type":"event","name":"Withdrawn","inputs":[{"name":"payee","type":"address","indexed":true,"internalType":"address"},{"name":"weiAmount","type":"uint256","indexed":false,"internalType":"uint256"}],"anonymous":false}],"bytecode":{"object":"0x608060405234801561001057600080fd5b50610e97806100206000396000f3fe6080604052600436106100705760003560e01c80638da5cb5b1161004e5780638da5cb5b146100cc578063e3a9db1a146100f7578063f2fde38b14610134578063f340fa011461015d57610070565b806351cff8d914610075578063715018a61461009e5780638129fc1c146100b5575b600080fd5b34801561008157600080fd5b5061009c60048036038101906100979190610902565b610179565b005b3480156100aa57600080fd5b506100b3610285565b005b3480156100c157600080fd5b506100ca610299565b005b3480156100d857600080fd5b506100e16103d7565b6040516100ee9190610950565b60405180910390f35b34801561010357600080fd5b5061011e60048036038101906101199190610997565b610401565b60405161012b91906109dd565b60405180910390f35b34801561014057600080fd5b5061015b60048036038101906101569190610997565b61044a565b005b61017760048036038101906101729190610997565b6104cd565b005b610181610582565b6000606560008373ffffffffffffffffffffffffffffffffffffffff1673ffffffffffffffffffffffffffffffffffffffff1681526020019081526020016000205490506000606560008473ffffffffffffffffffffffffffffffffffffffff1673ffffffffffffffffffffffffffffffffffffffff16815260200190815260200160002081905550610233818373ffffffffffffffffffffffffffffffffffffffff1661060090919063ffffffff16565b8173ffffffffffffffffffffffffffffffffffffffff167f7084f5476618d8e60b11ef0d7d3f06914655adb8793e28ff7f018d4c76d505d58260405161027991906109dd565b60405180910390a25050565b61028d610582565b61029760006106f4565b565b60008060019054906101000a900460ff161590508080156102ca5750600160008054906101000a900460ff1660ff16105b806102f757506102d9306107ba565b1580156102f65750600160008054906101000a900460ff1660ff16145b5b610336576040517f08c379a000000000000000000000000000000000000000000000000000000000815260040161032d90610a7b565b60405180910390fd5b60016000806101000a81548160ff021916908360ff1602179055508015610373576001600060016101000a81548160ff0219169083151502179055505b61037b6107dd565b80156103d45760008060016101000a81548160ff0219169083151502179055507f7f26b83ff96e1f2b6a682f133852f6798a09c465da95921460cefb384740249860016040516103cb9190610aed565b60405180910390a15b50565b6000603360009054906101000a900473ffffffffffffffffffffffffffffffffffffffff16905090565b6000606560008373ffffffffffffffffffffffffffffffffffffffff1673ffffffffffffffffffffffffffffffffffffffff168152602001908152602001600020549050919050565b610452610582565b600073ffffffffffffffffffffffffffffffffffffffff168173ffffffffffffffffffffffffffffffffffffffff16036104c1576040517f08c379a00000000000000000000000000000000000000000000000000000000081526004016104b890610b7a565b60405180910390fd5b6104ca816106f4565b50565b6104d5610582565b600034905080606560008473ffffffffffffffffffffffffffffffffffffffff1673ffffffffffffffffffffffffffffffffffffffff16815260200190815260200160002060008282546105299190610bc9565b925050819055508173ffffffffffffffffffffffffffffffffffffffff167f2da466a7b24304f47e87fa2e1e5a81b9831ce54fec19055ce277ca2f39ba42c48260405161057691906109dd565b60405180910390a25050565b61058a610836565b73ffffffffffffffffffffffffffffffffffffffff166105a86103d7565b73ffffffffffffffffffffffffffffffffffffffff16146105fe576040517f08c379a00000000000000000000000000000000000000000000000000000000081526004016105f590610c6b565b60405180910390fd5b565b80471015610643576040517f08c379a000000000000000000000000000000000000000000000000000000000815260040161063a90610cd7565b60405180910390fd5b60008273ffffffffffffffffffffffffffffffffffffffff168260405161066990610d28565b60006040518083038185875af1925050503d80600081146106a6576040519150601f19603f3d011682016040523d82523d6000602084013e6106ab565b606091505b50509050806106ef576040517f08c379a00000000000000000000000000000000000000000000000000000000081526004016106e690610daf565b60405180910390fd5b505050565b6000603360009054906101000a900473ffffffffffffffffffffffffffffffffffffffff16905081603360006101000a81548173ffffffffffffffffffffffffffffffffffffffff021916908373ffffffffffffffffffffffffffffffffffffffff1602179055508173ffffffffffffffffffffffffffffffffffffffff168173ffffffffffffffffffffffffffffffffffffffff167f8be0079c531659141344cd1fd0a4f28419497f9722a3daafe3b4186f6b6457e060405160405180910390a35050565b6000808273ffffffffffffffffffffffffffffffffffffffff163b119050919050565b600060019054906101000a900460ff1661082c576040517f08c379a000000000000000000000000000000000000000000000000000000000815260040161082390610e41565b60405180910390fd5b61083461083e565b565b600033905090565b600060019054906101000a900460ff1661088d576040517f08c379a000000000000000000000000000000000000000000000000000000000815260040161088490610e41565b60405180910390fd5b61089d610898610836565b6106f4565b565b600080fd5b600073ffffffffffffffffffffffffffffffffffffffff82169050919050565b60006108cf826108a4565b9050919050565b6108df816108c4565b81146108ea57600080fd5b50565b6000813590506108fc816108d6565b92915050565b6000602082840312156109185761091761089f565b5b6000610926848285016108ed565b91505092915050565b600061093a826108a4565b9050919050565b61094a8161092f565b82525050565b60006020820190506109656000830184610941565b92915050565b6109748161092f565b811461097f57600080fd5b50565b6000813590506109918161096b565b92915050565b6000602082840312156109ad576109ac61089f565b5b60006109bb84828501610982565b91505092915050565b6000819050919050565b6109d7816109c4565b82525050565b60006020820190506109f260008301846109ce565b92915050565b600082825260208201905092915050565b7f496e697469616c697a61626c653a20636f6e747261637420697320616c72656160008201527f647920696e697469616c697a6564000000000000000000000000000000000000602082015250565b6000610a65602e836109f8565b9150610a7082610a09565b604082019050919050565b60006020820190508181036000830152610a9481610a58565b9050919050565b6000819050919050565b600060ff82169050919050565b6000819050919050565b6000610ad7610ad2610acd84610a9b565b610ab2565b610aa5565b9050919050565b610ae781610abc565b82525050565b6000602082019050610b026000830184610ade565b92915050565b7f4f776e61626c653a206e6577206f776e657220697320746865207a65726f206160008201527f6464726573730000000000000000000000000000000000000000000000000000602082015250565b6000610b646026836109f8565b9150610b6f82610b08565b604082019050919050565b60006020820190508181036000830152610b9381610b57565b9050919050565b7f4e487b7100000000000000000000000000000000000000000000000000000000600052601160045260246000fd5b6000610bd4826109c4565b9150610bdf836109c4565b9250827fffffffffffffffffffffffffffffffffffffffffffffffffffffffffffffffff03821115610c1457610c13610b9a565b5b828201905092915050565b7f4f776e61626c653a2063616c6c6572206973206e6f7420746865206f776e6572600082015250565b6000610c556020836109f8565b9150610c6082610c1f565b602082019050919050565b60006020820190508181036000830152610c8481610c48565b9050919050565b7f416464726573733a20696e73756666696369656e742062616c616e6365000000600082015250565b6000610cc1601d836109f8565b9150610ccc82610c8b565b602082019050919050565b60006020820190508181036000830152610cf081610cb4565b9050919050565b600081905092915050565b50565b6000610d12600083610cf7565b9150610d1d82610d02565b600082019050919050565b6000610d3382610d05565b9150819050919050565b7f416464726573733a20756e61626c6520746f2073656e642076616c75652c207260008201527f6563697069656e74206d61792068617665207265766572746564000000000000602082015250565b6000610d99603a836109f8565b9150610da482610d3d565b604082019050919050565b60006020820190508181036000830152610dc881610d8c565b9050919050565b7f496e697469616c697a61626c653a20636f6e7472616374206973206e6f74206960008201527f6e697469616c697a696e67000000000000000000000000000000000000000000602082015250565b6000610e2b602b836109f8565b9150610e3682610dcf565b604082019050919050565b60006020820190508181036000830152610e5a81610e1e565b905091905056fea2646970667358221220857f25c34acbfe1e470258a2329650456d856e64269de90de2f50c5dcb4b5a8d64736f6c634300080d0033","linkReferences":{}},"methodIdentifiers":{"deposit(address)":"f340fa01","depositsOf(address)":"e3a9db1a","initialize()":"8129fc1c","owner()":"8da5cb5b","renounceOwnership()":"715018a6","transferOwnership(address)":"f2fde38b","withdraw(address)":"51cff8d9"},"id":166}