{"abi":[{"type":"constructor","inputs":[],"stateMutability":"nonpayable"},{"type":"function","name":"initialize","inputs":[],"outputs":[],"stateMutability":"nonpayable"},{"type":"function","name":"initializeOnlyInitializing","inputs":[],"outputs":[],"stateMutability":"nonpayable"},{"type":"function","name":"initializerRan","inputs":[],"outputs":[{"name":"","type":"bool","internalType":"bool"}],"stateMutability":"view"},{"type":"function","name":"onlyInitializingRan","inputs":[],"outputs":[{"name":"","type":"bool","internalType":"bool"}],"stateMutability":"view"},{"type":"event","name":"Initialized","inputs":[{"name":"version","type":"uint8","indexed":false,"internalType":"uint8"}],"anonymous":false}],"bytecode":{"object":"0x608060405234801561000f575f5ffd5b505f54610100900460ff161580801561002e57505f54600160ff909116105b806100475750303b15801561004757505f5460ff166001145b61009c5760405162461bcd60e51b815260206004820152602e60248201525f5160206104e25f395f51905f5260448201526d191e481a5b9a5d1a585b1a5e995960921b60648201526084015b60405180910390fd5b5f805460ff1916600117905580156100bd575f805461ff0019166101001790555b6100c5610105565b6100cd6101f2565b80156100ff575f805461ff0019169055604051600181525f5160206105025f395f51905f529060200160405180910390a15b50610270565b5f54610100900460ff161580801561012357505f54600160ff909116105b8061013c5750303b15801561013c57505f5460ff166001145b61018c5760405162461bcd60e51b815260206004820152602e60248201525f5160206104e25f395f51905f5260448201526d191e481a5b9a5d1a585b1a5e995960921b6064820152608401610093565b5f805460ff1916600117905580156101ad575f805461ff0019166101001790555b5f805462ff000019166201000017905580156101ef575f805461ff0019169055604051600181525f5160206105025f395f51905f529060200160405180910390a15b50565b5f54610100900460ff1661025c5760405162461bcd60e51b815260206004820152602b60248201527f496e697469616c697a61626c653a20636f6e7472616374206973206e6f74206960448201526a6e697469616c697a696e6760a81b6064820152608401610093565b5f805463ff00000019166301000000179055565b6102658061027d5f395ff3fe608060405234801561000f575f5ffd5b506004361061004a575f3560e01c806310065ed21461004e5780637cffe97a146100585780638129fc1c1461007f578063c3b8ef2a14610087575b5f5ffd5b610056610099565b005b5f5461006b906301000000900460ff1681565b604051901515815260200160405180910390f35b61005661011c565b5f5461006b9062010000900460ff1681565b5f54610100900460ff166101085760405162461bcd60e51b815260206004820152602b60248201527f496e697469616c697a61626c653a20636f6e7472616374206973206e6f74206960448201526a6e697469616c697a696e6760a81b60648201526084015b60405180910390fd5b5f805463ff00000019166301000000179055565b5f54610100900460ff161580801561013a57505f54600160ff909116105b806101535750303b15801561015357505f5460ff166001145b6101b65760405162461bcd60e51b815260206004820152602e60248201527f496e697469616c697a61626c653a20636f6e747261637420697320616c72656160448201526d191e481a5b9a5d1a585b1a5e995960921b60648201526084016100ff565b5f805460ff1916600117905580156101d7575f805461ff0019166101001790555b5f805462ff0000191662010000179055801561022c575f805461ff0019169055604051600181527f7f26b83ff96e1f2b6a682f133852f6798a09c465da95921460cefb38474024989060200160405180910390a15b5056fea26469706673582212207c0cc7242d7e48df42f21cbb3cfbb51ed8899f2ef0cfba80902c73d02e1742e064736f6c634300081c0033496e697469616c697a61626c653a20636f6e747261637420697320616c7265617f26b83ff96e1f2b6a682f133852f6798a09c465da95921460cefb3847402498","linkReferences":{}},"methodIdentifiers":{"initialize()":"8129fc1c","initializeOnlyInitializing()":"10065ed2","initializerRan()":"c3b8ef2a","onlyInitializingRan()":"7cffe97a"},"id":119}