{"abi":[{"type":"constructor","inputs":[{"name":"bridge","type":"address","internalType":"address"}],"stateMutability":"nonpayable"},{"type":"function","name":"crossChainOwnerRestricted","inputs":[],"outputs":[],"stateMutability":"nonpayable"},{"type":"function","name":"crossChainRestricted","inputs":[],"outputs":[],"stateMutability":"nonpayable"},{"type":"function","name":"owner","inputs":[],"outputs":[{"name":"","type":"address","internalType":"address"}],"stateMutability":"view"},{"type":"function","name":"processMessageFromRoot","inputs":[{"name":"","type":"uint256","internalType":"uint256"},{"name":"rootMessageSender","type":"address","internalType":"address"},{"name":"data","type":"bytes","internalType":"bytes"}],"outputs":[],"stateMutability":"nonpayable"},{"type":"error","name":"InvalidCrossChainSender","inputs":[{"name":"actual","type":"address","internalType":"address"},{"name":"expected","type":"address","internalType":"address"}]},{"type":"error","name":"NotCrossChainCall","inputs":[]}],"bytecode":{"object":"0x60c060405233608052600180546001600160a01b03191661dead179055348015610027575f5ffd5b506040516105d13803806105d18339810160408190526100469161005b565b60015f556001600160a01b031660a052610088565b5f6020828403121561006b575f5ffd5b81516001600160a01b0381168114610081575f5ffd5b9392505050565b60805160a0516105226100af5f395f61024201525f8181605d01526101bf01526105225ff3fe608060405234801561000f575f5ffd5b506004361061004a575f3560e01c80634b074af51461004e5780638da5cb5b146100585780639a7c4b711461009b578063f97f5189146100ae575b5f5ffd5b6100566100b6565b005b61007f7f000000000000000000000000000000000000000000000000000000000000000081565b6040516001600160a01b03909116815260200160405180910390f35b6100566100a9366004610411565b6100dd565b6100566101bd565b6100be610237565b6100db5760405163253a6fc960e11b815260040160405180910390fd5b565b6100e5610266565b6100ed610237565b61010a5760405163253a6fc960e11b815260040160405180910390fd5b600180546001600160a01b0319166001600160a01b038516179055604080516020601f84018190048102820181019092528281526101999130919085908590819084018382808284375f920191909152505060408051808201909152601c81527f63726f73732d636861696e20657865637574696f6e206661696c656400000000602082015291506102bd9050565b50600180546001600160a01b03191661dead1790556101b760015f55565b50505050565b7f00000000000000000000000000000000000000000000000000000000000000005f6101e7610331565b9050806001600160a01b0316826001600160a01b0316146102335760405163ef25d32b60e01b81526001600160a01b038083166004830152831660248201526044015b60405180910390fd5b5050565b336001600160a01b037f0000000000000000000000000000000000000000000000000000000000000000161490565b60025f54036102b75760405162461bcd60e51b815260206004820152601f60248201527f5265656e7472616e637947756172643a207265656e7472616e742063616c6c00604482015260640161022a565b60025f55565b60605f5f856001600160a01b0316856040516102d991906104a1565b5f60405180830381855af49150503d805f8114610311576040519150601f19603f3d011682016040523d82523d5f602084013e610316565b606091505b509150915061032786838387610367565b9695505050505050565b5f61033a610237565b6103575760405163253a6fc960e11b815260040160405180910390fd5b506001546001600160a01b031690565b606083156103d55782515f036103ce576001600160a01b0385163b6103ce5760405162461bcd60e51b815260206004820152601d60248201527f416464726573733a2063616c6c20746f206e6f6e2d636f6e7472616374000000604482015260640161022a565b50816103df565b6103df83836103e7565b949350505050565b8151156103f75781518083602001fd5b8060405162461bcd60e51b815260040161022a91906104b7565b5f5f5f5f60608587031215610424575f5ffd5b8435935060208501356001600160a01b0381168114610441575f5ffd5b9250604085013567ffffffffffffffff81111561045c575f5ffd5b8501601f8101871361046c575f5ffd5b803567ffffffffffffffff811115610482575f5ffd5b876020828401011115610493575f5ffd5b949793965060200194505050565b5f82518060208501845e5f920191825250919050565b602081525f82518060208401528060208501604085015e5f604082850101526040601f19601f8301168401019150509291505056fea2646970667358221220fe70cf50d2fcca3c400eacf1866375ee99ec3c7b06a4815baace778f64749b5e64736f6c634300081c0033","linkReferences":{}},"methodIdentifiers":{"crossChainOwnerRestricted()":"f97f5189","crossChainRestricted()":"4b074af5","owner()":"8da5cb5b","processMessageFromRoot(uint256,address,bytes)":"9a7c4b71"},"id":136}