{"abi":[{"type":"function","name":"bytesMap","inputs":[{"name":"","type":"uint256","internalType":"uint256"}],"outputs":[{"name":"","type":"bytes","internalType":"bytes"}],"stateMutability":"view"},{"type":"function","name":"getAddress","inputs":[{"name":"slot","type":"bytes32","internalType":"bytes32"}],"outputs":[{"name":"","type":"address","internalType":"address"}],"stateMutability":"view"},{"type":"function","name":"getBoolean","inputs":[{"name":"slot","type":"bytes32","internalType":"bytes32"}],"outputs":[{"name":"","type":"bool","internalType":"bool"}],"stateMutability":"view"},{"type":"function","name":"getBytes","inputs":[{"name":"slot","type":"bytes32","internalType":"bytes32"}],"outputs":[{"name":"","type":"bytes","internalType":"bytes"}],"stateMutability":"view"},{"type":"function","name":"getBytes32","inputs":[{"name":"slot","type":"bytes32","internalType":"bytes32"}],"outputs":[{"name":"","type":"bytes32","internalType":"bytes32"}],"stateMutability":"view"},{"type":"function","name":"getBytesStorage","inputs":[{"name":"key","type":"uint256","internalType":"uint256"}],"outputs":[{"name":"","type":"bytes","internalType":"bytes"}],"stateMutability":"view"},{"type":"function","name":"getString","inputs":[{"name":"slot","type":"bytes32","internalType":"bytes32"}],"outputs":[{"name":"","type":"string","internalType":"string"}],"stateMutability":"view"},{"type":"function","name":"getStringStorage","inputs":[{"name":"key","type":"uint256","internalType":"uint256"}],"outputs":[{"name":"","type":"string","internalType":"string"}],"stateMutability":"view"},{"type":"function","name":"getUint256","inputs":[{"name":"slot","type":"bytes32","internalType":"bytes32"}],"outputs":[{"name":"","type":"uint256","internalType":"uint256"}],"stateMutability":"view"},{"type":"function","name":"setAddress","inputs":[{"name":"slot","type":"bytes32","internalType":"bytes32"},{"name":"value","type":"address","internalType":"address"}],"outputs":[],"stateMutability":"nonpayable"},{"type":"function","name":"setBoolean","inputs":[{"name":"slot","type":"bytes32","internalType":"bytes32"},{"name":"value","type":"bool","internalType":"bool"}],"outputs":[],"stateMutability":"nonpayable"},{"type":"function","name":"setBytes","inputs":[{"name":"slot","type":"bytes32","internalType":"bytes32"},{"name":"value","type":"bytes","internalType":"bytes"}],"outputs":[],"stateMutability":"nonpayable"},{"type":"function","name":"setBytes32","inputs":[{"name":"slot","type":"bytes32","internalType":"bytes32"},{"name":"value","type":"bytes32","internalType":"bytes32"}],"outputs":[],"stateMutability":"nonpayable"},{"type":"function","name":"setBytesStorage","inputs":[{"name":"key","type":"uint256","internalType":"uint256"},{"name":"value","type":"bytes","internalType":"bytes"}],"outputs":[],"stateMutability":"nonpayable"},{"type":"function","name":"setString","inputs":[{"name":"slot","type":"bytes32","internalType":"bytes32"},{"name":"value","type":"string","internalType":"string"}],"outputs":[],"stateMutability":"nonpayable"},{"type":"function","name":"setStringStorage","inputs":[{"name":"key","type":"uint256","internalType":"uint256"},{"name":"value","type":"string","internalType":"string"}],"outputs":[],"stateMutability":"nonpayable"},{"type":"function","name":"setUint256","inputs":[{"name":"slot","type":"bytes32","internalType":"bytes32"},{"name":"value","type":"uint256","internalType":"uint256"}],"outputs":[],"stateMutability":"nonpayable"},{"type":"function","name":"stringMap","inputs":[{"name":"","type":"uint256","internalType":"uint256"}],"outputs":[{"name":"","type":"string","internalType":"string"}],"stateMutability":"view"}],"bytecode":{"object":"0x608060405234801561001057600080fd5b506106f8806100206000396000f3fe608060405234801561001057600080fd5b50600436106101165760003560e01c80635a46e25d116100a2578063a6ed563e11610071578063a6ed563e1461019f578063c031a1801461021c578063ca446dd914610242578063df6e58d61461026d578063f8715b3e1461028057600080fd5b80635a46e25d146102095780636e8995501461018c578063986e791a1461021c5780639b22f3431461022f57600080fd5b806333598b00116100e957806333598b001461019f5780633848207a146101bf5780633e60bd78146101e45780634e91db08146101f75780634f3029c2146101f757600080fd5b80630afb30ba1461011b5780631e133d0f1461013057806321f8a721146101595780632e28d0841461018c575b600080fd5b61012e610129366004610534565b61029c565b005b61014361013e366004610580565b6102c0565b60405161015091906105e6565b60405180910390f35b610174610167366004610580565b546001600160a01b031690565b6040516001600160a01b039091168152602001610150565b61012e61019a366004610534565b61035a565b6101b16101ad366004610580565b5490565b604051908152602001610150565b6101d46101cd366004610580565b5460ff1690565b6040519015158152602001610150565b61012e6101f2366004610534565b610362565b61012e610205366004610600565b9055565b610143610217366004610580565b610379565b61014361022a366004610580565b610392565b61014361023d366004610580565b610426565b61012e610250366004610622565b81546001600160a01b0319166001600160a01b0391909116179055565b61014361027b366004610580565b61043c565b61012e61028e36600461065e565b815460ff1916901515179055565b6000838152600160205260409020829082905b6102ba929091610452565b50505050565b600060208190529081526040902080546102d990610688565b80601f016020809104026020016040519081016040528092919081815260200182805461030590610688565b80156103525780601f1061032757610100808354040283529160200191610352565b820191906000526020600020905b81548152906001019060200180831161033557829003601f168201915b505050505081565b8181846102af565b6000838152602081905260409020829082906102af565b600160205260009081526040902080546102d990610688565b6060815b80546103a190610688565b80601f01602080910402602001604051908101604052809291908181526020018280546103cd90610688565b801561041a5780601f106103ef5761010080835404028352916020019161041a565b820191906000526020600020905b8154815290600101906020018083116103fd57829003601f168201915b50505050509050919050565b6000818152600160205260409020606090610396565b6000818152602081905260409020606090610396565b82805461045e90610688565b90600052602060002090601f01602090048101928261048057600085556104c6565b82601f106104995782800160ff198235161785556104c6565b828001600101855582156104c6579182015b828111156104c65782358255916020019190600101906104ab565b506104d29291506104d6565b5090565b5b808211156104d257600081556001016104d7565b60008083601f8401126104fd57600080fd5b50813567ffffffffffffffff81111561051557600080fd5b60208301915083602082850101111561052d57600080fd5b9250929050565b60008060006040848603121561054957600080fd5b83359250602084013567ffffffffffffffff81111561056757600080fd5b610573868287016104eb565b9497909650939450505050565b60006020828403121561059257600080fd5b5035919050565b6000815180845260005b818110156105bf576020818501810151868301820152016105a3565b818111156105d1576000602083870101525b50601f01601f19169290920160200192915050565b6020815260006105f96020830184610599565b9392505050565b6000806040838503121561061357600080fd5b50508035926020909101359150565b6000806040838503121561063557600080fd5b8235915060208301356001600160a01b038116811461065357600080fd5b809150509250929050565b6000806040838503121561067157600080fd5b823591506020830135801515811461065357600080fd5b600181811c9082168061069c57607f821691505b6020821081036106bc57634e487b7160e01b600052602260045260246000fd5b5091905056fea2646970667358221220af313b9e45cafe2070ba00465b09796b9b8506d7a1b25a6be0e9915b4ce0822064736f6c634300080d0033","linkReferences":{}},"methodIdentifiers":{"bytesMap(uint256)":"5a46e25d","getAddress(bytes32)":"21f8a721","getBoolean(bytes32)":"3848207a","getBytes(bytes32)":"c031a180","getBytes32(bytes32)":"a6ed563e","getBytesStorage(uint256)":"9b22f343","getString(bytes32)":"986e791a","getStringStorage(uint256)":"df6e58d6","getUint256(bytes32)":"33598b00","setAddress(bytes32,address)":"ca446dd9","setBoolean(bytes32,bool)":"f8715b3e","setBytes(bytes32,bytes)":"2e28d084","setBytes32(bytes32,bytes32)":"4e91db08","setBytesStorage(uint256,bytes)":"0afb30ba","setString(bytes32,string)":"6e899550","setStringStorage(uint256,string)":"3e60bd78","setUint256(bytes32,uint256)":"4f3029c2","stringMap(uint256)":"1e133d0f"},"id":119}