{"abi":[{"type":"function","name":"disableReentrancy","inputs":[],"outputs":[],"stateMutability":"nonpayable"},{"type":"function","name":"enableRentrancy","inputs":[{"name":"target","type":"address","internalType":"address"},{"name":"data","type":"bytes","internalType":"bytes"}],"outputs":[],"stateMutability":"nonpayable"},{"type":"function","name":"reenter","inputs":[],"outputs":[],"stateMutability":"nonpayable"}],"bytecode":{"object":"0x608060405234801561001057600080fd5b50610542806100206000396000f3fe608060405234801561001057600080fd5b50600436106100415760003560e01c80633654421b14610046578063a0fe97e31461005b578063cc23fb1c14610063575b600080fd5b6100596100543660046103c6565b610075565b005b6100596100a2565b6100596002805460ff19166001179055565b600080546001600160a01b0319166001600160a01b03851617905561009c6001838361032d565b50505050565b60025460ff16610160576002805460ff19166001908117909155600054815461015e926001600160a01b0390921691906100db90610457565b80601f016020809104026020016040519081016040528092919081815260200182805461010790610457565b80156101545780601f1061012957610100808354040283529160200191610154565b820191906000526020600020905b81548152906001019060200180831161013757829003601f168201915b5050505050610162565b505b565b60606101a6838360006040518060400160405280601e81526020017f416464726573733a206c6f772d6c6576656c2063616c6c206661696c656400008152506101ad565b9392505050565b6060824710156102135760405162461bcd60e51b815260206004820152602660248201527f416464726573733a20696e73756666696369656e742062616c616e636520666f6044820152651c8818d85b1b60d21b60648201526084015b60405180910390fd5b600080866001600160a01b0316858760405161022f91906104bd565b60006040518083038185875af1925050503d806000811461026c576040519150601f19603f3d011682016040523d82523d6000602084013e610271565b606091505b50915091506102828783838761028f565b925050505b949350505050565b606083156102fe5782516000036102f7576001600160a01b0385163b6102f75760405162461bcd60e51b815260206004820152601d60248201527f416464726573733a2063616c6c20746f206e6f6e2d636f6e7472616374000000604482015260640161020a565b5081610287565b61028783838151156103135781518083602001fd5b8060405162461bcd60e51b815260040161020a91906104d9565b82805461033990610457565b90600052602060002090601f01602090048101928261035b57600085556103a1565b82601f106103745782800160ff198235161785556103a1565b828001600101855582156103a1579182015b828111156103a1578235825591602001919060010190610386565b506103ad9291506103b1565b5090565b5b808211156103ad57600081556001016103b2565b6000806000604084860312156103db57600080fd5b83356001600160a01b03811681146103f257600080fd5b9250602084013567ffffffffffffffff8082111561040f57600080fd5b818601915086601f83011261042357600080fd5b81358181111561043257600080fd5b87602082850101111561044457600080fd5b6020830194508093505050509250925092565b600181811c9082168061046b57607f821691505b60208210810361048b57634e487b7160e01b600052602260045260246000fd5b50919050565b60005b838110156104ac578181015183820152602001610494565b8381111561009c5750506000910152565b600082516104cf818460208701610491565b9190910192915050565b60208152600082518060208401526104f8816040850160208701610491565b601f01601f1916919091016040019291505056fea26469706673582212200344f77c66578a9a890f4ffbdaccac993de052abe6e72c287b6d13b7bb8c56a264736f6c634300080d0033","linkReferences":{}},"methodIdentifiers":{"disableReentrancy()":"cc23fb1c","enableRentrancy(address,bytes)":"3654421b","reenter()":"a0fe97e3"},"id":120}