{"abi":[{"type":"constructor","inputs":[{"name":"enableReturn","type":"bool","internalType":"bool"},{"name":"enableApprove","type":"bool","internalType":"bool"}],"stateMutability":"nonpayable"},{"type":"function","name":"onFlashLoan","inputs":[{"name":"","type":"address","internalType":"address"},{"name":"token","type":"address","internalType":"address"},{"name":"amount","type":"uint256","internalType":"uint256"},{"name":"fee","type":"uint256","internalType":"uint256"},{"name":"data","type":"bytes","internalType":"bytes"}],"outputs":[{"name":"","type":"bytes32","internalType":"bytes32"}],"stateMutability":"nonpayable"},{"type":"event","name":"BalanceOf","inputs":[{"name":"token","type":"address","indexed":false,"internalType":"address"},{"name":"account","type":"address","indexed":false,"internalType":"address"},{"name":"value","type":"uint256","indexed":false,"internalType":"uint256"}],"anonymous":false},{"type":"event","name":"TotalSupply","inputs":[{"name":"token","type":"address","indexed":false,"internalType":"address"},{"name":"value","type":"uint256","indexed":false,"internalType":"uint256"}],"anonymous":false}],"bytecode":{"object":"0x60c0604052348015600e575f5ffd5b50604051610707380380610707833981016040819052602b91604c565b1515608052151560a0526078565b805180151581146047575f5ffd5b919050565b5f5f60408385031215605c575f5ffd5b6063836039565b9150606f602084016039565b90509250929050565b60805160a05161066e6100995f395f6102b801525f61020a015261066e5ff3fe608060405234801561000f575f5ffd5b5060043610610029575f3560e01c806323e30c8b1461002d575b5f5ffd5b61004061003b3660046104f0565b610052565b60405190815260200160405180910390f35b5f336001600160a01b03871614610067575f5ffd5b6040516370a0823160e01b815230600482018190527f6ff2acfcb07917b1e80e53f0fe390b467b1151d15b38730a6e08397799c05a8b918891906001600160a01b038316906370a0823190602401602060405180830381865afa1580156100d0573d5f5f3e3d5ffd5b505050506040513d601f19601f820116820180604052508101906100f49190610591565b604080516001600160a01b0394851681529390921660208401529082015260600160405180910390a17f7249fd4c03cce09b30a13d77804b198e2647c0ccd59eadf4de4e7c16099badc586876001600160a01b03166318160ddd6040518163ffffffff1660e01b8152600401602060405180830381865afa15801561017b573d5f5f3e3d5ffd5b505050506040513d601f19601f8201168201806040525081019061019f9190610591565b604080516001600160a01b03909316835260208301919091520160405180910390a18115610208576102068684848080601f0160208091040260200160405190810160405280939291908181526020018383808284375f9201919091525061030e92505050565b505b7f0000000000000000000000000000000000000000000000000000000000000000156102b6576001600160a01b03861663095ea7b38761024887896105a8565b6040516001600160e01b031960e085901b1681526001600160a01b03909216600483015260248201526044016020604051808303815f875af1158015610290573d5f5f3e3d5ffd5b505050506040513d601f19601f820116820180604052508101906102b491906105c7565b505b7f00000000000000000000000000000000000000000000000000000000000000006102e1575f610303565b7f439148f0bbc682ca079e46d6e2c2f0c1e3b820f1a291b069d8882abf8cf18dd95b979650505050505050565b606061035183835f6040518060400160405280601e81526020017f416464726573733a206c6f772d6c6576656c2063616c6c206661696c6564000081525061035a565b90505b92915050565b6060824710156103c05760405162461bcd60e51b815260206004820152602660248201527f416464726573733a20696e73756666696369656e742062616c616e636520666f6044820152651c8818d85b1b60d21b60648201526084015b60405180910390fd5b5f5f866001600160a01b031685876040516103db91906105ed565b5f6040518083038185875af1925050503d805f8114610415576040519150601f19603f3d011682016040523d82523d5f602084013e61041a565b606091505b509150915061042b87838387610438565b925050505b949350505050565b606083156104a65782515f0361049f576001600160a01b0385163b61049f5760405162461bcd60e51b815260206004820152601d60248201527f416464726573733a2063616c6c20746f206e6f6e2d636f6e747261637400000060448201526064016103b7565b5081610430565b61043083838151156104bb5781518083602001fd5b8060405162461bcd60e51b81526004016103b79190610603565b80356001600160a01b03811681146104eb575f5ffd5b919050565b5f5f5f5f5f5f60a08789031215610505575f5ffd5b61050e876104d5565b955061051c602088016104d5565b94506040870135935060608701359250608087013567ffffffffffffffff811115610545575f5ffd5b8701601f81018913610555575f5ffd5b803567ffffffffffffffff81111561056b575f5ffd5b89602082840101111561057c575f5ffd5b60208201935080925050509295509295509295565b5f602082840312156105a1575f5ffd5b5051919050565b8082018082111561035457634e487b7160e01b5f52601160045260245ffd5b5f602082840312156105d7575f5ffd5b815180151581146105e6575f5ffd5b9392505050565b5f82518060208501845e5f920191825250919050565b602081525f82518060208401528060208501604085015e5f604082850101526040601f19601f8301168401019150509291505056fea264697066735822122069b66eaf9de52788211a05979845a71d937b7d915096c00f4c08c29d9f26a63a64736f6c634300081c0033","linkReferences":{}},"methodIdentifiers":{"onFlashLoan(address,address,uint256,uint256,bytes)":"23e30c8b"},"id":116}