{"abi":[{"type":"function","name":"disableReentrancy","inputs":[],"outputs":[],"stateMutability":"nonpayable"},{"type":"function","name":"enableRentrancy","inputs":[{"name":"target","type":"address","internalType":"address"},{"name":"data","type":"bytes","internalType":"bytes"}],"outputs":[],"stateMutability":"nonpayable"},{"type":"function","name":"reenter","inputs":[],"outputs":[],"stateMutability":"nonpayable"}],"bytecode":{"object":"0x6080604052348015600e575f5ffd5b5061057f8061001c5f395ff3fe608060405234801561000f575f5ffd5b506004361061003f575f3560e01c80633654421b14610043578063a0fe97e314610058578063cc23fb1c14610060575b5f5ffd5b610056610051366004610321565b610072565b005b61005661009f565b6100566002805460ff19166001179055565b5f80546001600160a01b0319166001600160a01b0385161790556001610099828483610444565b50505050565b60025460ff1661015a576002805460ff191660019081179091555f548154610158926001600160a01b0390921691906100d7906103c0565b80601f0160208091040260200160405190810160405280929190818152602001828054610103906103c0565b801561014e5780601f106101255761010080835404028352916020019161014e565b820191905f5260205f20905b81548152906001019060200180831161013157829003601f168201915b505050505061015c565b505b565b606061019f83835f6040518060400160405280601e81526020017f416464726573733a206c6f772d6c6576656c2063616c6c206661696c656400008152506101a6565b9392505050565b60608247101561020c5760405162461bcd60e51b815260206004820152602660248201527f416464726573733a20696e73756666696369656e742062616c616e636520666f6044820152651c8818d85b1b60d21b60648201526084015b60405180910390fd5b5f5f866001600160a01b0316858760405161022791906104fe565b5f6040518083038185875af1925050503d805f8114610261576040519150601f19603f3d011682016040523d82523d5f602084013e610266565b606091505b509150915061027787838387610284565b925050505b949350505050565b606083156102f25782515f036102eb576001600160a01b0385163b6102eb5760405162461bcd60e51b815260206004820152601d60248201527f416464726573733a2063616c6c20746f206e6f6e2d636f6e74726163740000006044820152606401610203565b508161027c565b61027c83838151156103075781518083602001fd5b8060405162461bcd60e51b81526004016102039190610514565b5f5f5f60408486031215610333575f5ffd5b83356001600160a01b0381168114610349575f5ffd5b9250602084013567ffffffffffffffff811115610364575f5ffd5b8401601f81018613610374575f5ffd5b803567ffffffffffffffff81111561038a575f5ffd5b86602082840101111561039b575f5ffd5b939660209190910195509293505050565b634e487b7160e01b5f52604160045260245ffd5b600181811c908216806103d457607f821691505b6020821081036103f257634e487b7160e01b5f52602260045260245ffd5b50919050565b601f82111561043f57805f5260205f20601f840160051c8101602085101561041d5750805b601f840160051c820191505b8181101561043c575f8155600101610429565b50505b505050565b67ffffffffffffffff83111561045c5761045c6103ac565b6104708361046a83546103c0565b836103f8565b5f601f8411600181146104a1575f851561048a5750838201355b5f19600387901b1c1916600186901b17835561043c565b5f83815260208120601f198716915b828110156104d057868501358255602094850194600190920191016104b0565b50868210156104ec575f1960f88860031b161c19848701351681555b505060018560011b0183555050505050565b5f82518060208501845e5f920191825250919050565b602081525f82518060208401528060208501604085015e5f604082850101526040601f19601f8301168401019150509291505056fea26469706673582212207ca722e12628a8b5064630e9612bdd47133ce3c9dd51f081d73ea522d7a2196664736f6c634300081c0033","linkReferences":{}},"methodIdentifiers":{"disableReentrancy()":"cc23fb1c","enableRentrancy(address,bytes)":"3654421b","reenter()":"a0fe97e3"},"id":130}