{"abi":[{"type":"receive","stateMutability":"payable"},{"type":"function","name":"beneficiary","inputs":[],"outputs":[{"name":"","type":"address","internalType":"address"}],"stateMutability":"view"},{"type":"function","name":"duration","inputs":[],"outputs":[{"name":"","type":"uint256","internalType":"uint256"}],"stateMutability":"view"},{"type":"function","name":"releasable","inputs":[{"name":"token","type":"address","internalType":"address"}],"outputs":[{"name":"","type":"uint256","internalType":"uint256"}],"stateMutability":"view"},{"type":"function","name":"releasable","inputs":[],"outputs":[{"name":"","type":"uint256","internalType":"uint256"}],"stateMutability":"view"},{"type":"function","name":"release","inputs":[{"name":"token","type":"address","internalType":"address"}],"outputs":[],"stateMutability":"nonpayable"},{"type":"function","name":"release","inputs":[],"outputs":[],"stateMutability":"nonpayable"},{"type":"function","name":"released","inputs":[],"outputs":[{"name":"","type":"uint256","internalType":"uint256"}],"stateMutability":"view"},{"type":"function","name":"released","inputs":[{"name":"token","type":"address","internalType":"address"}],"outputs":[{"name":"","type":"uint256","internalType":"uint256"}],"stateMutability":"view"},{"type":"function","name":"start","inputs":[],"outputs":[{"name":"","type":"uint256","internalType":"uint256"}],"stateMutability":"view"},{"type":"function","name":"vestedAmount","inputs":[{"name":"timestamp","type":"uint64","internalType":"uint64"}],"outputs":[{"name":"","type":"uint256","internalType":"uint256"}],"stateMutability":"view"},{"type":"function","name":"vestedAmount","inputs":[{"name":"token","type":"address","internalType":"address"},{"name":"timestamp","type":"uint64","internalType":"uint64"}],"outputs":[{"name":"","type":"uint256","internalType":"uint256"}],"stateMutability":"view"},{"type":"event","name":"ERC20Released","inputs":[{"name":"token","type":"address","indexed":true,"internalType":"address"},{"name":"amount","type":"uint256","indexed":false,"internalType":"uint256"}],"anonymous":false},{"type":"event","name":"EtherReleased","inputs":[{"name":"amount","type":"uint256","indexed":false,"internalType":"uint256"}],"anonymous":false},{"type":"event","name":"Initialized","inputs":[{"name":"version","type":"uint8","indexed":false,"internalType":"uint8"}],"anonymous":false}],"bytecode":{"object":"0x6080604052348015600e575f5ffd5b50610a6b8061001c5f395ff3fe60806040526004361061009d575f3560e01c806386d1a69f1161006257806386d1a69f1461015f57806396132521146101735780639852595c14610187578063a3f8eace146101bb578063be9a6555146101da578063fbccedae146101ff575f5ffd5b80630a17b06b146100a85780630fb5a6b4146100da57806319165587146100f857806338af3eed14610119578063810ec23b14610140575f5ffd5b366100a457005b5f5ffd5b3480156100b3575f5ffd5b506100c76100c23660046108cb565b610213565b6040519081526020015b60405180910390f35b3480156100e5575f5ffd5b5060365467ffffffffffffffff166100c7565b348015610103575f5ffd5b506101176101123660046108fa565b610236565b005b348015610124575f5ffd5b506035546040516001600160a01b0390911681526020016100d1565b34801561014b575f5ffd5b506100c761015a366004610913565b6102cf565b34801561016a575f5ffd5b50610117610362565b34801561017e575f5ffd5b506033546100c7565b348015610192575f5ffd5b506100c76101a13660046108fa565b6001600160a01b03165f9081526034602052604090205490565b3480156101c6575f5ffd5b506100c76101d53660046108fa565b6103d4565b3480156101e5575f5ffd5b50603554600160a01b900467ffffffffffffffff166100c7565b34801561020a575f5ffd5b506100c7610400565b5f61023061022060335490565b61022a9047610958565b83610422565b92915050565b5f610240826103d4565b6001600160a01b0383165f9081526034602052604081208054929350839290919061026c908490610958565b90915550506040518181526001600160a01b038316907fc0e523490dd523c33b1878c9eb14ff46991e3f5b2cd33710918618f2a39cba1b9060200160405180910390a26102cb826102c56035546001600160a01b031690565b836104e3565b5050565b6001600160a01b0382165f9081526034602052604081205461035b906040516370a0823160e01b81523060048201526001600160a01b038616906370a0823190602401602060405180830381865afa15801561032d573d5f5f3e3d5ffd5b505050506040513d601f19601f82011682018060405250810190610351919061096b565b61022a9190610958565b9392505050565b5f61036b610400565b90508060335f82825461037e9190610958565b90915550506040518181527fda9d4e5f101b8b9b1c5b76d0c5a9f7923571acfc02376aa076b75a8c080c956b9060200160405180910390a16103d16103cb6035546001600160a01b031690565b8261053a565b50565b6001600160a01b0381165f908152603460205260408120546103f683426102cf565b6102309190610982565b5f61040a60335490565b61041342610213565b61041d9190610982565b905090565b6035545f90600160a01b900467ffffffffffffffff168267ffffffffffffffff16101561045057505f610230565b60365467ffffffffffffffff16603554600160a01b900467ffffffffffffffff1661047b9190610958565b8267ffffffffffffffff161115610493575081610230565b60365467ffffffffffffffff16603554600160a01b900467ffffffffffffffff166104c89067ffffffffffffffff8516610982565b6104d29085610995565b6104dc91906109ac565b9050610230565b604080516001600160a01b038416602482015260448082018490528251808303909101815260649091019091526020810180516001600160e01b031663a9059cbb60e01b179052610535908490610654565b505050565b8047101561058f5760405162461bcd60e51b815260206004820152601d60248201527f416464726573733a20696e73756666696369656e742062616c616e636500000060448201526064015b60405180910390fd5b5f826001600160a01b0316826040515f6040518083038185875af1925050503d805f81146105d8576040519150601f19603f3d011682016040523d82523d5f602084013e6105dd565b606091505b50509050806105355760405162461bcd60e51b815260206004820152603a60248201527f416464726573733a20756e61626c6520746f2073656e642076616c75652c207260448201527f6563697069656e74206d617920686176652072657665727465640000000000006064820152608401610586565b5f6106a8826040518060400160405280602081526020017f5361666545524332303a206c6f772d6c6576656c2063616c6c206661696c6564815250856001600160a01b03166107259092919063ffffffff16565b80519091501561053557808060200190518101906106c691906109cb565b6105355760405162461bcd60e51b815260206004820152602a60248201527f5361666545524332303a204552433230206f7065726174696f6e20646964206e6044820152691bdd081cdd58d8d9595960b21b6064820152608401610586565b606061073384845f8561073b565b949350505050565b60608247101561079c5760405162461bcd60e51b815260206004820152602660248201527f416464726573733a20696e73756666696369656e742062616c616e636520666f6044820152651c8818d85b1b60d21b6064820152608401610586565b5f5f866001600160a01b031685876040516107b791906109ea565b5f6040518083038185875af1925050503d805f81146107f1576040519150601f19603f3d011682016040523d82523d5f602084013e6107f6565b606091505b509150915061080787838387610812565b979650505050505050565b606083156108805782515f03610879576001600160a01b0385163b6108795760405162461bcd60e51b815260206004820152601d60248201527f416464726573733a2063616c6c20746f206e6f6e2d636f6e74726163740000006044820152606401610586565b5081610733565b61073383838151156108955781518083602001fd5b8060405162461bcd60e51b81526004016105869190610a00565b803567ffffffffffffffff811681146108c6575f5ffd5b919050565b5f602082840312156108db575f5ffd5b61035b826108af565b80356001600160a01b03811681146108c6575f5ffd5b5f6020828403121561090a575f5ffd5b61035b826108e4565b5f5f60408385031215610924575f5ffd5b61092d836108e4565b915061093b602084016108af565b90509250929050565b634e487b7160e01b5f52601160045260245ffd5b8082018082111561023057610230610944565b5f6020828403121561097b575f5ffd5b5051919050565b8181038181111561023057610230610944565b808202811582820484141761023057610230610944565b5f826109c657634e487b7160e01b5f52601260045260245ffd5b500490565b5f602082840312156109db575f5ffd5b8151801515811461035b575f5ffd5b5f82518060208501845e5f920191825250919050565b602081525f82518060208401528060208501604085015e5f604082850101526040601f19601f8301168401019150509291505056fea2646970667358221220a6c4ea06473aa727c99e67f17a39ff3eea6f3c97f77e68ede5c93aa2c812e64464736f6c634300081c0033","linkReferences":{}},"methodIdentifiers":{"beneficiary()":"38af3eed","duration()":"0fb5a6b4","releasable()":"fbccedae","releasable(address)":"a3f8eace","release()":"86d1a69f","release(address)":"19165587","released()":"96132521","released(address)":"9852595c","start()":"be9a6555","vestedAmount(address,uint64)":"810ec23b","vestedAmount(uint64)":"0a17b06b"},"id":40}