{"abi":[{"type":"function","name":"burn","inputs":[{"name":"token","type":"address","internalType":"contract IERC777"},{"name":"amount","type":"uint256","internalType":"uint256"},{"name":"data","type":"bytes","internalType":"bytes"}],"outputs":[],"stateMutability":"nonpayable"},{"type":"function","name":"canImplementInterfaceForAddress","inputs":[{"name":"interfaceHash","type":"bytes32","internalType":"bytes32"},{"name":"account","type":"address","internalType":"address"}],"outputs":[{"name":"","type":"bytes32","internalType":"bytes32"}],"stateMutability":"view"},{"type":"function","name":"recipientFor","inputs":[{"name":"account","type":"address","internalType":"address"}],"outputs":[],"stateMutability":"nonpayable"},{"type":"function","name":"registerRecipient","inputs":[{"name":"recipient","type":"address","internalType":"address"}],"outputs":[],"stateMutability":"nonpayable"},{"type":"function","name":"registerSender","inputs":[{"name":"sender","type":"address","internalType":"address"}],"outputs":[],"stateMutability":"nonpayable"},{"type":"function","name":"send","inputs":[{"name":"token","type":"address","internalType":"contract IERC777"},{"name":"to","type":"address","internalType":"address"},{"name":"amount","type":"uint256","internalType":"uint256"},{"name":"data","type":"bytes","internalType":"bytes"}],"outputs":[],"stateMutability":"nonpayable"},{"type":"function","name":"senderFor","inputs":[{"name":"account","type":"address","internalType":"address"}],"outputs":[],"stateMutability":"nonpayable"},{"type":"function","name":"setShouldRevertReceive","inputs":[{"name":"shouldRevert","type":"bool","internalType":"bool"}],"outputs":[],"stateMutability":"nonpayable"},{"type":"function","name":"setShouldRevertSend","inputs":[{"name":"shouldRevert","type":"bool","internalType":"bool"}],"outputs":[],"stateMutability":"nonpayable"},{"type":"function","name":"tokensReceived","inputs":[{"name":"operator","type":"address","internalType":"address"},{"name":"from","type":"address","internalType":"address"},{"name":"to","type":"address","internalType":"address"},{"name":"amount","type":"uint256","internalType":"uint256"},{"name":"userData","type":"bytes","internalType":"bytes"},{"name":"operatorData","type":"bytes","internalType":"bytes"}],"outputs":[],"stateMutability":"nonpayable"},{"type":"function","name":"tokensToSend","inputs":[{"name":"operator","type":"address","internalType":"address"},{"name":"from","type":"address","internalType":"address"},{"name":"to","type":"address","internalType":"address"},{"name":"amount","type":"uint256","internalType":"uint256"},{"name":"userData","type":"bytes","internalType":"bytes"},{"name":"operatorData","type":"bytes","internalType":"bytes"}],"outputs":[],"stateMutability":"nonpayable"},{"type":"event","name":"BeforeTokenTransfer","inputs":[],"anonymous":false},{"type":"event","name":"TokensReceivedCalled","inputs":[{"name":"operator","type":"address","indexed":false,"internalType":"address"},{"name":"from","type":"address","indexed":false,"internalType":"address"},{"name":"to","type":"address","indexed":false,"internalType":"address"},{"name":"amount","type":"uint256","indexed":false,"internalType":"uint256"},{"name":"data","type":"bytes","indexed":false,"internalType":"bytes"},{"name":"operatorData","type":"bytes","indexed":false,"internalType":"bytes"},{"name":"token","type":"address","indexed":false,"internalType":"address"},{"name":"fromBalance","type":"uint256","indexed":false,"internalType":"uint256"},{"name":"toBalance","type":"uint256","indexed":false,"internalType":"uint256"}],"anonymous":false},{"type":"event","name":"TokensToSendCalled","inputs":[{"name":"operator","type":"address","indexed":false,"internalType":"address"},{"name":"from","type":"address","indexed":false,"internalType":"address"},{"name":"to","type":"address","indexed":false,"internalType":"address"},{"name":"amount","type":"uint256","indexed":false,"internalType":"uint256"},{"name":"data","type":"bytes","indexed":false,"internalType":"bytes"},{"name":"operatorData","type":"bytes","indexed":false,"internalType":"bytes"},{"name":"token","type":"address","indexed":false,"internalType":"address"},{"name":"fromBalance","type":"uint256","indexed":false,"internalType":"uint256"},{"name":"toBalance","type":"uint256","indexed":false,"internalType":"uint256"}],"anonymous":false}],"bytecode":{"object":"0x60806040526001805462010000600160b01b031916751820a4b7618bde71dce8cdc73aab6c95905fad24000017905534801561003a57600080fd5b50610b918061004a6000396000f3fe608060405234801561001057600080fd5b50600436106100a85760003560e01c806375ab97821161007157806375ab97821461012e578063a8badaa514610141578063c97e18fc14610154578063d2de64741461017c578063e0eb21801461018f578063e1ecbd30146101a257600080fd5b806223de29146100ad578063249cb3fa146100c25780633836ef89146100e757806344d17187146100fa5780634e4ae5a51461010d575b600080fd5b6100c06100bb36600461077c565b6101b5565b005b6100d56100d036600461082d565b610307565b60405190815260200160405180910390f35b6100c06100f5366004610900565b61035f565b6100c061010836600461096c565b6103c7565b6100c061011b3660046109c5565b6001805460ff1916911515919091179055565b6100c061013c36600461077c565b61042c565b6100c061014f3660046109e7565b610564565b6100c06101623660046109c5565b600180549115156101000261ff0019909216919091179055565b6100c061018a3660046109e7565b6105fa565b6100c061019d3660046109e7565b610643565b6100c06101b03660046109e7565b610688565b600154610100900460ff16156101ca57600080fd5b6000336040516370a0823160e01b81526001600160a01b038a811660048301529192506000918316906370a0823190602401602060405180830381865afa158015610219573d6000803e3d6000fd5b505050506040513d601f19601f8201168201806040525081019061023d9190610a04565b6040516370a0823160e01b81526001600160a01b038a811660048301529192506000918416906370a0823190602401602060405180830381865afa158015610289573d6000803e3d6000fd5b505050506040513d601f19601f820116820180604052508101906102ad9190610a04565b90507f47e915878c47f3ec4d7ff646a2becb229f64fd2abe4d2b5e2bb4275b0cf50d4e8b8b8b8b8b8b8b8b8b8b8b6040516102f29b9a99989796959493929190610a46565b60405180910390a15050505050505050505050565b6000828152602081815260408083206001600160a01b038516845290915281205460ff16610336576000610358565b7fa2ef4600d742022d532d4747cb3547474667d6f13804902513b2ec01c848f4b45b9392505050565b604051634decdde360e11b81526001600160a01b03851690639bd9bbc69061038f90869086908690600401610b0a565b600060405180830381600087803b1580156103a957600080fd5b505af11580156103bd573d6000803e3d6000fd5b5050505050505050565b60405163fe9d930360e01b81526001600160a01b0384169063fe9d9303906103f59085908590600401610b3a565b600060405180830381600087803b15801561040f57600080fd5b505af1158015610423573d6000803e3d6000fd5b50505050505050565b60015460ff161561043c57600080fd5b6000336040516370a0823160e01b81526001600160a01b038a811660048301529192506000918316906370a0823190602401602060405180830381865afa15801561048b573d6000803e3d6000fd5b505050506040513d601f19601f820116820180604052508101906104af9190610a04565b6040516370a0823160e01b81526001600160a01b038a811660048301529192506000918416906370a0823190602401602060405180830381865afa1580156104fb573d6000803e3d6000fd5b505050506040513d601f19601f8201168201806040525081019061051f9190610a04565b90507faa3e88aca472e90221daf7d3d601abafb62b120319089d7a2c2f63588da855298b8b8b8b8b8b8b8b8b8b8b6040516102f29b9a99989796959493929190610a46565b6001546040516329965a1d60e01b81523060048201527fb281fc8c12954d22544db45de3159a39272895b169a852b314f9cc762e44c53b60248201526001600160a01b03838116604483015262010000909204909116906329965a1d906064015b600060405180830381600087803b1580156105df57600080fd5b505af11580156105f3573d6000803e3d6000fd5b5050505050565b6106247f29ddb589b1fb5fc7cf394961c1adf5f8c6454761adf795e67fe149f658abe895826106ed565b306001600160a01b03821681900361063f5761063f81610688565b5050565b61066d7fb281fc8c12954d22544db45de3159a39272895b169a852b314f9cc762e44c53b826106ed565b306001600160a01b03821681900361063f5761063f81610564565b6001546040516329965a1d60e01b81523060048201527f29ddb589b1fb5fc7cf394961c1adf5f8c6454761adf795e67fe149f658abe89560248201526001600160a01b03838116604483015262010000909204909116906329965a1d906064016105c5565b6000918252602082815260408084206001600160a01b0390931684529190529020805460ff19166001179055565b6001600160a01b038116811461073057600080fd5b50565b60008083601f84011261074557600080fd5b50813567ffffffffffffffff81111561075d57600080fd5b60208301915083602082850101111561077557600080fd5b9250929050565b60008060008060008060008060c0898b03121561079857600080fd5b88356107a38161071b565b975060208901356107b38161071b565b965060408901356107c38161071b565b955060608901359450608089013567ffffffffffffffff808211156107e757600080fd5b6107f38c838d01610733565b909650945060a08b013591508082111561080c57600080fd5b506108198b828c01610733565b999c989b5096995094979396929594505050565b6000806040838503121561084057600080fd5b8235915060208301356108528161071b565b809150509250929050565b634e487b7160e01b600052604160045260246000fd5b600082601f83011261088457600080fd5b813567ffffffffffffffff8082111561089f5761089f61085d565b604051601f8301601f19908116603f011681019082821181831017156108c7576108c761085d565b816040528381528660208588010111156108e057600080fd5b836020870160208301376000602085830101528094505050505092915050565b6000806000806080858703121561091657600080fd5b84356109218161071b565b935060208501356109318161071b565b925060408501359150606085013567ffffffffffffffff81111561095457600080fd5b61096087828801610873565b91505092959194509250565b60008060006060848603121561098157600080fd5b833561098c8161071b565b925060208401359150604084013567ffffffffffffffff8111156109af57600080fd5b6109bb86828701610873565b9150509250925092565b6000602082840312156109d757600080fd5b8135801515811461035857600080fd5b6000602082840312156109f957600080fd5b81356103588161071b565b600060208284031215610a1657600080fd5b5051919050565b81835281816020850137506000828201602090810191909152601f909101601f19169091010190565b6001600160a01b038c811682528b811660208301528a81166040830152606082018a905261012060808301819052600091610a848483018b8d610a1d565b915083820360a0850152610a9982898b610a1d565b961660c0840152505060e08101929092526101009091015298975050505050505050565b6000815180845260005b81811015610ae357602081850181015186830182015201610ac7565b81811115610af5576000602083870101525b50601f01601f19169290920160200192915050565b60018060a01b0384168152826020820152606060408201526000610b316060830184610abd565b95945050505050565b828152604060208201526000610b536040830184610abd565b94935050505056fea264697066735822122037208a68d67e42e52ea5368c072ef522a8376d5799264c9912c414b5c592d16064736f6c634300080d0033","linkReferences":{}},"methodIdentifiers":{"burn(address,uint256,bytes)":"44d17187","canImplementInterfaceForAddress(bytes32,address)":"249cb3fa","recipientFor(address)":"e0eb2180","registerRecipient(address)":"a8badaa5","registerSender(address)":"e1ecbd30","send(address,address,uint256,bytes)":"3836ef89","senderFor(address)":"d2de6474","setShouldRevertReceive(bool)":"c97e18fc","setShouldRevertSend(bool)":"4e4ae5a5","tokensReceived(address,address,address,uint256,bytes,bytes)":"0023de29","tokensToSend(address,address,address,uint256,bytes,bytes)":"75ab9782"},"id":161}