{"abi":[{"type":"receive","stateMutability":"payable"},{"type":"function","name":"CANCELLER_ROLE","inputs":[],"outputs":[{"name":"","type":"bytes32","internalType":"bytes32"}],"stateMutability":"view"},{"type":"function","name":"DEFAULT_ADMIN_ROLE","inputs":[],"outputs":[{"name":"","type":"bytes32","internalType":"bytes32"}],"stateMutability":"view"},{"type":"function","name":"EXECUTOR_ROLE","inputs":[],"outputs":[{"name":"","type":"bytes32","internalType":"bytes32"}],"stateMutability":"view"},{"type":"function","name":"PROPOSER_ROLE","inputs":[],"outputs":[{"name":"","type":"bytes32","internalType":"bytes32"}],"stateMutability":"view"},{"type":"function","name":"TIMELOCK_ADMIN_ROLE","inputs":[],"outputs":[{"name":"","type":"bytes32","internalType":"bytes32"}],"stateMutability":"view"},{"type":"function","name":"cancel","inputs":[{"name":"id","type":"bytes32","internalType":"bytes32"}],"outputs":[],"stateMutability":"nonpayable"},{"type":"function","name":"execute","inputs":[{"name":"target","type":"address","internalType":"address"},{"name":"value","type":"uint256","internalType":"uint256"},{"name":"payload","type":"bytes","internalType":"bytes"},{"name":"predecessor","type":"bytes32","internalType":"bytes32"},{"name":"salt","type":"bytes32","internalType":"bytes32"}],"outputs":[],"stateMutability":"payable"},{"type":"function","name":"executeBatch","inputs":[{"name":"targets","type":"address[]","internalType":"address[]"},{"name":"values","type":"uint256[]","internalType":"uint256[]"},{"name":"payloads","type":"bytes[]","internalType":"bytes[]"},{"name":"predecessor","type":"bytes32","internalType":"bytes32"},{"name":"salt","type":"bytes32","internalType":"bytes32"}],"outputs":[],"stateMutability":"payable"},{"type":"function","name":"getMinDelay","inputs":[],"outputs":[{"name":"duration","type":"uint256","internalType":"uint256"}],"stateMutability":"view"},{"type":"function","name":"getRoleAdmin","inputs":[{"name":"role","type":"bytes32","internalType":"bytes32"}],"outputs":[{"name":"","type":"bytes32","internalType":"bytes32"}],"stateMutability":"view"},{"type":"function","name":"getTimestamp","inputs":[{"name":"id","type":"bytes32","internalType":"bytes32"}],"outputs":[{"name":"timestamp","type":"uint256","internalType":"uint256"}],"stateMutability":"view"},{"type":"function","name":"grantRole","inputs":[{"name":"role","type":"bytes32","internalType":"bytes32"},{"name":"account","type":"address","internalType":"address"}],"outputs":[],"stateMutability":"nonpayable"},{"type":"function","name":"hasRole","inputs":[{"name":"role","type":"bytes32","internalType":"bytes32"},{"name":"account","type":"address","internalType":"address"}],"outputs":[{"name":"","type":"bool","internalType":"bool"}],"stateMutability":"view"},{"type":"function","name":"hashOperation","inputs":[{"name":"target","type":"address","internalType":"address"},{"name":"value","type":"uint256","internalType":"uint256"},{"name":"data","type":"bytes","internalType":"bytes"},{"name":"predecessor","type":"bytes32","internalType":"bytes32"},{"name":"salt","type":"bytes32","internalType":"bytes32"}],"outputs":[{"name":"hash","type":"bytes32","internalType":"bytes32"}],"stateMutability":"pure"},{"type":"function","name":"hashOperationBatch","inputs":[{"name":"targets","type":"address[]","internalType":"address[]"},{"name":"values","type":"uint256[]","internalType":"uint256[]"},{"name":"payloads","type":"bytes[]","internalType":"bytes[]"},{"name":"predecessor","type":"bytes32","internalType":"bytes32"},{"name":"salt","type":"bytes32","internalType":"bytes32"}],"outputs":[{"name":"hash","type":"bytes32","internalType":"bytes32"}],"stateMutability":"pure"},{"type":"function","name":"isOperation","inputs":[{"name":"id","type":"bytes32","internalType":"bytes32"}],"outputs":[{"name":"registered","type":"bool","internalType":"bool"}],"stateMutability":"view"},{"type":"function","name":"isOperationDone","inputs":[{"name":"id","type":"bytes32","internalType":"bytes32"}],"outputs":[{"name":"done","type":"bool","internalType":"bool"}],"stateMutability":"view"},{"type":"function","name":"isOperationPending","inputs":[{"name":"id","type":"bytes32","internalType":"bytes32"}],"outputs":[{"name":"pending","type":"bool","internalType":"bool"}],"stateMutability":"view"},{"type":"function","name":"isOperationReady","inputs":[{"name":"id","type":"bytes32","internalType":"bytes32"}],"outputs":[{"name":"ready","type":"bool","internalType":"bool"}],"stateMutability":"view"},{"type":"function","name":"migrateTo46","inputs":[],"outputs":[],"stateMutability":"nonpayable"},{"type":"function","name":"onERC1155BatchReceived","inputs":[{"name":"","type":"address","internalType":"address"},{"name":"","type":"address","internalType":"address"},{"name":"","type":"uint256[]","internalType":"uint256[]"},{"name":"","type":"uint256[]","internalType":"uint256[]"},{"name":"","type":"bytes","internalType":"bytes"}],"outputs":[{"name":"","type":"bytes4","internalType":"bytes4"}],"stateMutability":"nonpayable"},{"type":"function","name":"onERC1155Received","inputs":[{"name":"","type":"address","internalType":"address"},{"name":"","type":"address","internalType":"address"},{"name":"","type":"uint256","internalType":"uint256"},{"name":"","type":"uint256","internalType":"uint256"},{"name":"","type":"bytes","internalType":"bytes"}],"outputs":[{"name":"","type":"bytes4","internalType":"bytes4"}],"stateMutability":"nonpayable"},{"type":"function","name":"onERC721Received","inputs":[{"name":"","type":"address","internalType":"address"},{"name":"","type":"address","internalType":"address"},{"name":"","type":"uint256","internalType":"uint256"},{"name":"","type":"bytes","internalType":"bytes"}],"outputs":[{"name":"","type":"bytes4","internalType":"bytes4"}],"stateMutability":"nonpayable"},{"type":"function","name":"renounceRole","inputs":[{"name":"role","type":"bytes32","internalType":"bytes32"},{"name":"account","type":"address","internalType":"address"}],"outputs":[],"stateMutability":"nonpayable"},{"type":"function","name":"revokeRole","inputs":[{"name":"role","type":"bytes32","internalType":"bytes32"},{"name":"account","type":"address","internalType":"address"}],"outputs":[],"stateMutability":"nonpayable"},{"type":"function","name":"schedule","inputs":[{"name":"target","type":"address","internalType":"address"},{"name":"value","type":"uint256","internalType":"uint256"},{"name":"data","type":"bytes","internalType":"bytes"},{"name":"predecessor","type":"bytes32","internalType":"bytes32"},{"name":"salt","type":"bytes32","internalType":"bytes32"},{"name":"delay","type":"uint256","internalType":"uint256"}],"outputs":[],"stateMutability":"nonpayable"},{"type":"function","name":"scheduleBatch","inputs":[{"name":"targets","type":"address[]","internalType":"address[]"},{"name":"values","type":"uint256[]","internalType":"uint256[]"},{"name":"payloads","type":"bytes[]","internalType":"bytes[]"},{"name":"predecessor","type":"bytes32","internalType":"bytes32"},{"name":"salt","type":"bytes32","internalType":"bytes32"},{"name":"delay","type":"uint256","internalType":"uint256"}],"outputs":[],"stateMutability":"nonpayable"},{"type":"function","name":"supportsInterface","inputs":[{"name":"interfaceId","type":"bytes4","internalType":"bytes4"}],"outputs":[{"name":"","type":"bool","internalType":"bool"}],"stateMutability":"view"},{"type":"function","name":"updateDelay","inputs":[{"name":"newDelay","type":"uint256","internalType":"uint256"}],"outputs":[],"stateMutability":"nonpayable"},{"type":"event","name":"CallExecuted","inputs":[{"name":"id","type":"bytes32","indexed":true,"internalType":"bytes32"},{"name":"index","type":"uint256","indexed":true,"internalType":"uint256"},{"name":"target","type":"address","indexed":false,"internalType":"address"},{"name":"value","type":"uint256","indexed":false,"internalType":"uint256"},{"name":"data","type":"bytes","indexed":false,"internalType":"bytes"}],"anonymous":false},{"type":"event","name":"CallScheduled","inputs":[{"name":"id","type":"bytes32","indexed":true,"internalType":"bytes32"},{"name":"index","type":"uint256","indexed":true,"internalType":"uint256"},{"name":"target","type":"address","indexed":false,"internalType":"address"},{"name":"value","type":"uint256","indexed":false,"internalType":"uint256"},{"name":"data","type":"bytes","indexed":false,"internalType":"bytes"},{"name":"predecessor","type":"bytes32","indexed":false,"internalType":"bytes32"},{"name":"delay","type":"uint256","indexed":false,"internalType":"uint256"}],"anonymous":false},{"type":"event","name":"Cancelled","inputs":[{"name":"id","type":"bytes32","indexed":true,"internalType":"bytes32"}],"anonymous":false},{"type":"event","name":"Initialized","inputs":[{"name":"version","type":"uint8","indexed":false,"internalType":"uint8"}],"anonymous":false},{"type":"event","name":"MinDelayChange","inputs":[{"name":"oldDuration","type":"uint256","indexed":false,"internalType":"uint256"},{"name":"newDuration","type":"uint256","indexed":false,"internalType":"uint256"}],"anonymous":false},{"type":"event","name":"RoleAdminChanged","inputs":[{"name":"role","type":"bytes32","indexed":true,"internalType":"bytes32"},{"name":"previousAdminRole","type":"bytes32","indexed":true,"internalType":"bytes32"},{"name":"newAdminRole","type":"bytes32","indexed":true,"internalType":"bytes32"}],"anonymous":false},{"type":"event","name":"RoleGranted","inputs":[{"name":"role","type":"bytes32","indexed":true,"internalType":"bytes32"},{"name":"account","type":"address","indexed":true,"internalType":"address"},{"name":"sender","type":"address","indexed":true,"internalType":"address"}],"anonymous":false},{"type":"event","name":"RoleRevoked","inputs":[{"name":"role","type":"bytes32","indexed":true,"internalType":"bytes32"},{"name":"account","type":"address","indexed":true,"internalType":"address"},{"name":"sender","type":"address","indexed":true,"internalType":"address"}],"anonymous":false}],"bytecode":{"object":"0x6080604052348015600e575f5ffd5b50611e3b8061001c5f395ff3fe6080604052600436106101bd575f3560e01c806364d62353116100f2578063b1c5f42711610092578063d547741f11610062578063d547741f14610555578063e38335e514610574578063f23a6e6114610587578063f27a0c92146105b2575f5ffd5b8063b1c5f427146104c1578063bc197c81146104e0578063c4d252f51461050b578063d45c44351461052a575f5ffd5b80638f61f4f5116100cd5780638f61f4f51461044f57806391d148541461046f578063a217fddf1461048e578063b08e51c0146104a1575f5ffd5b806364d62353146103f25780638065657f146104115780638f2a0bb014610430575f5ffd5b80631fb787381161015d5780632f2ff15d116101385780632f2ff15d1461037657806331d507501461039557806336568abe146103b4578063584b153e146103d3575f5ffd5b80631fb7873814610306578063248a9ca31461031a5780632ab0f52914610348575f5ffd5b80630d3cf6fc116101985780630d3cf6fc1461025e578063134008d31461029157806313bc9f20146102a4578063150b7a02146102c3575f5ffd5b806301d5062a146101c857806301ffc9a7146101e957806307bd02651461021d575f5ffd5b366101c457005b5f5ffd5b3480156101d3575f5ffd5b506101e76101e2366004611497565b6105c6565b005b3480156101f4575f5ffd5b50610208610203366004611505565b610646565b60405190151581526020015b60405180910390f35b348015610228575f5ffd5b506102507fd8aa0f3194971a2a116679f7c2090f6939c8d4e01a2a8d7e41d55e5351469e6381565b604051908152602001610214565b348015610269575f5ffd5b506102507f5f58e3a2316349923ce3780f8d587db2d72378aed66a8261c916544fa6846ca581565b6101e761029f36600461152c565b610670565b3480156102af575f5ffd5b506102086102be366004611592565b610722565b3480156102ce575f5ffd5b506102ed6102dd366004611658565b630a85bd0160e11b949350505050565b6040516001600160e01b03199091168152602001610214565b348015610311575f5ffd5b506101e7610747565b348015610325575f5ffd5b50610250610334366004611592565b5f9081526065602052604090206001015490565b348015610353575f5ffd5b50610208610362366004611592565b5f9081526097602052604090205460011490565b348015610381575f5ffd5b506101e76103903660046116bb565b610876565b3480156103a0575f5ffd5b506102086103af366004611592565b61089f565b3480156103bf575f5ffd5b506101e76103ce3660046116bb565b6108b7565b3480156103de575f5ffd5b506102086103ed366004611592565b610935565b3480156103fd575f5ffd5b506101e761040c366004611592565b61094b565b34801561041c575f5ffd5b5061025061042b36600461152c565b6109ef565b34801561043b575f5ffd5b506101e761044a366004611725565b610a2d565b34801561045a575f5ffd5b506102505f516020611dc65f395f51905f5281565b34801561047a575f5ffd5b506102086104893660046116bb565b610b62565b348015610499575f5ffd5b506102505f81565b3480156104ac575f5ffd5b506102505f516020611de65f395f51905f5281565b3480156104cc575f5ffd5b506102506104db3660046117d7565b610b8c565b3480156104eb575f5ffd5b506102ed6104fa366004611900565b63bc197c8160e01b95945050505050565b348015610516575f5ffd5b506101e7610525366004611592565b610bd0565b348015610535575f5ffd5b50610250610544366004611592565b5f9081526097602052604090205490565b348015610560575f5ffd5b506101e761056f3660046116bb565b610c91565b6101e76105823660046117d7565b610cb5565b348015610592575f5ffd5b506102ed6105a13660046119ac565b63f23a6e6160e01b95945050505050565b3480156105bd575f5ffd5b50609854610250565b5f516020611dc65f395f51905f526105dd81610e33565b5f6105ec8989898989896109ef565b90506105f88184610e40565b5f817f4cf4410cc57040e44862ef0f45f3dd5a5e02db8eb8add648d4b0e236f1d07dca8b8b8b8b8b8a60405161063396959493929190611a27565b60405180910390a3505050505050505050565b5f6001600160e01b03198216630271189760e51b148061066a575061066a82610f2e565b92915050565b7fd8aa0f3194971a2a116679f7c2090f6939c8d4e01a2a8d7e41d55e5351469e6361069b815f610b62565b6106a9576106a98133610f62565b5f6106b88888888888886109ef565b90506106c48185610fbb565b6106d088888888611055565b5f817fc2617efa69bab66782fa219543714338489c4e9e178271560a91b82c3f612b588a8a8a8a6040516107079493929190611a63565b60405180910390a361071881611124565b5050505050505050565b5f818152609760205260408120546001811180156107405750428111155b9392505050565b5f516020611dc65f395f51905f525f5260656020527fafe71ff1fe81c59ca16af21c02420893e650adae4948ece1623218f842885478547f5f58e3a2316349923ce3780f8d587db2d72378aed66a8261c916544fa6846ca51480156107e057505f516020611de65f395f51905f525f5260656020527fb33a3829f2d1f31fd111fcd13892b72b93a782f7b93bf968903b15b040efa32154155b61083d5760405162461bcd60e51b8152602060048201526024808201527f54696d656c6f636b436f6e74726f6c6c65723a20616c7265616479206d696772604482015263185d195960e21b60648201526084015b60405180910390fd5b6108745f516020611de65f395f51905f527f5f58e3a2316349923ce3780f8d587db2d72378aed66a8261c916544fa6846ca561115c565b565b5f8281526065602052604090206001015461089081610e33565b61089a83836111a6565b505050565b5f8181526097602052604081205481905b1192915050565b6001600160a01b03811633146109275760405162461bcd60e51b815260206004820152602f60248201527f416363657373436f6e74726f6c3a2063616e206f6e6c792072656e6f756e636560448201526e103937b632b9903337b91039b2b63360891b6064820152608401610834565b610931828261122b565b5050565b5f818152609760205260408120546001906108b0565b3330146109ae5760405162461bcd60e51b815260206004820152602b60248201527f54696d656c6f636b436f6e74726f6c6c65723a2063616c6c6572206d7573742060448201526a62652074696d656c6f636b60a81b6064820152608401610834565b60985460408051918252602082018390527f11c24f4ead16507c69ac467fbd5e4eed5fb5c699626d2cc6d66421df253886d5910160405180910390a1609855565b5f868686868686604051602001610a0b96959493929190611a27565b6040516020818303038152906040528051906020012090509695505050505050565b5f516020611dc65f395f51905f52610a4481610e33565b888714610a635760405162461bcd60e51b815260040161083490611a8a565b888514610a825760405162461bcd60e51b815260040161083490611a8a565b5f610a938b8b8b8b8b8b8b8b610b8c565b9050610a9f8184610e40565b5f5b8a811015610b545780827f4cf4410cc57040e44862ef0f45f3dd5a5e02db8eb8add648d4b0e236f1d07dca8e8e85818110610ade57610ade611acd565b9050602002016020810190610af39190611ae1565b8d8d86818110610b0557610b05611acd565b905060200201358c8c87818110610b1e57610b1e611acd565b9050602002810190610b309190611afa565b8c8b604051610b4496959493929190611a27565b60405180910390a3600101610aa1565b505050505050505050505050565b5f9182526065602090815260408084206001600160a01b0393909316845291905290205460ff1690565b5f8888888888888888604051602001610bac989796959493929190611bd0565b60405160208183030381529060405280519060200120905098975050505050505050565b5f516020611de65f395f51905f52610be781610e33565b610bf082610935565b610c565760405162461bcd60e51b815260206004820152603160248201527f54696d656c6f636b436f6e74726f6c6c65723a206f7065726174696f6e2063616044820152701b9b9bdd0818994818d85b98d95b1b1959607a1b6064820152608401610834565b5f828152609760205260408082208290555183917fbaa1eb22f2a492ba1a5fea61b8df4d27c6c8b5f3971e63bb58fa14ff72eedb7091a25050565b5f82815260656020526040902060010154610cab81610e33565b61089a838361122b565b7fd8aa0f3194971a2a116679f7c2090f6939c8d4e01a2a8d7e41d55e5351469e63610ce0815f610b62565b610cee57610cee8133610f62565b878614610d0d5760405162461bcd60e51b815260040161083490611a8a565b878414610d2c5760405162461bcd60e51b815260040161083490611a8a565b5f610d3d8a8a8a8a8a8a8a8a610b8c565b9050610d498185610fbb565b5f5b89811015610e1d575f8b8b83818110610d6657610d66611acd565b9050602002016020810190610d7b9190611ae1565b90505f8a8a84818110610d9057610d90611acd565b905060200201359050365f8a8a86818110610dad57610dad611acd565b9050602002810190610dbf9190611afa565b91509150610dcf84848484611055565b84867fc2617efa69bab66782fa219543714338489c4e9e178271560a91b82c3f612b5886868686604051610e069493929190611a63565b60405180910390a350505050806001019050610d4b565b50610e2781611124565b50505050505050505050565b610e3d8133610f62565b50565b610e498261089f565b15610eae5760405162461bcd60e51b815260206004820152602f60248201527f54696d656c6f636b436f6e74726f6c6c65723a206f7065726174696f6e20616c60448201526e1c9958591e481cd8da19591d5b1959608a1b6064820152608401610834565b609854811015610f0f5760405162461bcd60e51b815260206004820152602660248201527f54696d656c6f636b436f6e74726f6c6c65723a20696e73756666696369656e746044820152652064656c617960d01b6064820152608401610834565b610f198142611c83565b5f928352609760205260409092209190915550565b5f6001600160e01b03198216637965db0b60e01b148061066a57506301ffc9a760e01b6001600160e01b031983161461066a565b610f6c8282610b62565b61093157610f7981611291565b610f848360206112a3565b604051602001610f95929190611cad565b60408051601f198184030181529082905262461bcd60e51b825261083491600401611d0b565b610fc482610722565b610fe05760405162461bcd60e51b815260040161083490611d40565b801580610ffa57505f818152609760205260409020546001145b6109315760405162461bcd60e51b815260206004820152602660248201527f54696d656c6f636b436f6e74726f6c6c65723a206d697373696e6720646570656044820152656e64656e637960d01b6064820152608401610834565b5f846001600160a01b0316848484604051611071929190611d8a565b5f6040518083038185875af1925050503d805f81146110ab576040519150601f19603f3d011682016040523d82523d5f602084013e6110b0565b606091505b505090508061111d5760405162461bcd60e51b815260206004820152603360248201527f54696d656c6f636b436f6e74726f6c6c65723a20756e6465726c79696e6720746044820152721c985b9cd858dd1a5bdb881c995d995c9d1959606a1b6064820152608401610834565b5050505050565b61112d81610722565b6111495760405162461bcd60e51b815260040161083490611d40565b5f90815260976020526040902060019055565b5f82815260656020526040808220600101805490849055905190918391839186917fbd79b86ffe0ab8e8776151514217cd7cacd52c909f66475c3af44e129f0b00ff9190a4505050565b6111b08282610b62565b610931575f8281526065602090815260408083206001600160a01b03851684529091529020805460ff191660011790556111e73390565b6001600160a01b0316816001600160a01b0316837f2f8788117e7eff1d82e926ec794901d17c78024a50270940304540a733656f0d60405160405180910390a45050565b6112358282610b62565b15610931575f8281526065602090815260408083206001600160a01b0385168085529252808320805460ff1916905551339285917ff6391f5c32d9c69d2a47ea670b442974b53935d1edc7fd64eb21e047a839171b9190a45050565b606061066a6001600160a01b03831660145b60605f6112b1836002611d99565b6112bc906002611c83565b6001600160401b038111156112d3576112d36115a9565b6040519080825280601f01601f1916602001820160405280156112fd576020820181803683370190505b509050600360fc1b815f8151811061131757611317611acd565b60200101906001600160f81b03191690815f1a905350600f60fb1b8160018151811061134557611345611acd565b60200101906001600160f81b03191690815f1a9053505f611367846002611d99565b611372906001611c83565b90505b60018111156113e9576f181899199a1a9b1b9c1cb0b131b232b360811b85600f16601081106113a6576113a6611acd565b1a60f81b8282815181106113bc576113bc611acd565b60200101906001600160f81b03191690815f1a90535060049490941c936113e281611db0565b9050611375565b5083156107405760405162461bcd60e51b815260206004820181905260248201527f537472696e67733a20686578206c656e67746820696e73756666696369656e746044820152606401610834565b80356001600160a01b038116811461144e575f5ffd5b919050565b5f5f83601f840112611463575f5ffd5b5081356001600160401b03811115611479575f5ffd5b602083019150836020828501011115611490575f5ffd5b9250929050565b5f5f5f5f5f5f5f60c0888a0312156114ad575f5ffd5b6114b688611438565b96506020880135955060408801356001600160401b038111156114d7575f5ffd5b6114e38a828b01611453565b989b979a50986060810135976080820135975060a09091013595509350505050565b5f60208284031215611515575f5ffd5b81356001600160e01b031981168114610740575f5ffd5b5f5f5f5f5f5f60a08789031215611541575f5ffd5b61154a87611438565b95506020870135945060408701356001600160401b0381111561156b575f5ffd5b61157789828a01611453565b979a9699509760608101359660809091013595509350505050565b5f602082840312156115a2575f5ffd5b5035919050565b634e487b7160e01b5f52604160045260245ffd5b604051601f8201601f191681016001600160401b03811182821017156115e5576115e56115a9565b604052919050565b5f82601f8301126115fc575f5ffd5b81356001600160401b03811115611615576116156115a9565b611628601f8201601f19166020016115bd565b81815284602083860101111561163c575f5ffd5b816020850160208301375f918101602001919091529392505050565b5f5f5f5f6080858703121561166b575f5ffd5b61167485611438565b935061168260208601611438565b92506040850135915060608501356001600160401b038111156116a3575f5ffd5b6116af878288016115ed565b91505092959194509250565b5f5f604083850312156116cc575f5ffd5b823591506116dc60208401611438565b90509250929050565b5f5f83601f8401126116f5575f5ffd5b5081356001600160401b0381111561170b575f5ffd5b6020830191508360208260051b8501011115611490575f5ffd5b5f5f5f5f5f5f5f5f5f60c08a8c03121561173d575f5ffd5b89356001600160401b03811115611752575f5ffd5b61175e8c828d016116e5565b909a5098505060208a01356001600160401b0381111561177c575f5ffd5b6117888c828d016116e5565b90985096505060408a01356001600160401b038111156117a6575f5ffd5b6117b28c828d016116e5565b9a9d999c50979a969997986060880135976080810135975060a0013595509350505050565b5f5f5f5f5f5f5f5f60a0898b0312156117ee575f5ffd5b88356001600160401b03811115611803575f5ffd5b61180f8b828c016116e5565b90995097505060208901356001600160401b0381111561182d575f5ffd5b6118398b828c016116e5565b90975095505060408901356001600160401b03811115611857575f5ffd5b6118638b828c016116e5565b999c989b509699959896976060870135966080013595509350505050565b5f82601f830112611890575f5ffd5b81356001600160401b038111156118a9576118a96115a9565b8060051b6118b9602082016115bd565b918252602081850181019290810190868411156118d4575f5ffd5b6020860192505b838310156118f65782358252602092830192909101906118db565b9695505050505050565b5f5f5f5f5f60a08688031215611914575f5ffd5b61191d86611438565b945061192b60208701611438565b935060408601356001600160401b03811115611945575f5ffd5b61195188828901611881565b93505060608601356001600160401b0381111561196c575f5ffd5b61197888828901611881565b92505060808601356001600160401b03811115611993575f5ffd5b61199f888289016115ed565b9150509295509295909350565b5f5f5f5f5f60a086880312156119c0575f5ffd5b6119c986611438565b94506119d760208701611438565b9350604086013592506060860135915060808601356001600160401b03811115611993575f5ffd5b81835281816020850137505f828201602090810191909152601f909101601f19169091010190565b60018060a01b038716815285602082015260a060408201525f611a4e60a0830186886119ff565b60608301949094525060800152949350505050565b60018060a01b0385168152836020820152606060408201525f6118f66060830184866119ff565b60208082526023908201527f54696d656c6f636b436f6e74726f6c6c65723a206c656e677468206d69736d616040820152620e8c6d60eb1b606082015260800190565b634e487b7160e01b5f52603260045260245ffd5b5f60208284031215611af1575f5ffd5b61074082611438565b5f5f8335601e19843603018112611b0f575f5ffd5b8301803591506001600160401b03821115611b28575f5ffd5b602001915036819003821315611490575f5ffd5b5f8383855260208501945060208460051b820101835f5b86811015611bc457838303601f19018852813536879003601e19018112611b78575f5ffd5b86016020810190356001600160401b03811115611b93575f5ffd5b803603821315611ba1575f5ffd5b611bac8582846119ff565b60209a8b019a90955093909301925050600101611b53565b50909695505050505050565b60a080825281018890525f8960c08301825b8b811015611c10576001600160a01b03611bfb84611438565b16825260209283019290910190600101611be2565b5083810360208501528881526001600160fb1b03891115611c2f575f5ffd5b8860051b9150818a60208301370182810360209081016040850152611c579082018789611b3c565b60608401959095525050608001529695505050505050565b634e487b7160e01b5f52601160045260245ffd5b8082018082111561066a5761066a611c6f565b5f81518060208401855e5f93019283525090919050565b7f416363657373436f6e74726f6c3a206163636f756e742000000000000000000081525f611cde6017830185611c96565b7001034b99036b4b9b9b4b733903937b6329607d1b8152611d026011820185611c96565b95945050505050565b602081525f82518060208401528060208501604085015e5f604082850101526040601f19601f83011684010191505092915050565b6020808252602a908201527f54696d656c6f636b436f6e74726f6c6c65723a206f7065726174696f6e206973604082015269206e6f7420726561647960b01b606082015260800190565b818382375f9101908152919050565b808202811582820484141761066a5761066a611c6f565b5f81611dbe57611dbe611c6f565b505f19019056feb09aa5aeb3702cfd50b6b62bc4532604938f21248a27a1d5ca736082b6819cc1fd643c72710c63c0180259aba6b2d05451e3591a24e58b62239378085726f783a264697066735822122061b705affd15cdc48ad64e931463fb8ee02311a9a623bf298e3ccca18d2fab8264736f6c634300081c0033","linkReferences":{}},"methodIdentifiers":{"CANCELLER_ROLE()":"b08e51c0","DEFAULT_ADMIN_ROLE()":"a217fddf","EXECUTOR_ROLE()":"07bd0265","PROPOSER_ROLE()":"8f61f4f5","TIMELOCK_ADMIN_ROLE()":"0d3cf6fc","cancel(bytes32)":"c4d252f5","execute(address,uint256,bytes,bytes32,bytes32)":"134008d3","executeBatch(address[],uint256[],bytes[],bytes32,bytes32)":"e38335e5","getMinDelay()":"f27a0c92","getRoleAdmin(bytes32)":"248a9ca3","getTimestamp(bytes32)":"d45c4435","grantRole(bytes32,address)":"2f2ff15d","hasRole(bytes32,address)":"91d14854","hashOperation(address,uint256,bytes,bytes32,bytes32)":"8065657f","hashOperationBatch(address[],uint256[],bytes[],bytes32,bytes32)":"b1c5f427","isOperation(bytes32)":"31d50750","isOperationDone(bytes32)":"2ab0f529","isOperationPending(bytes32)":"584b153e","isOperationReady(bytes32)":"13bc9f20","migrateTo46()":"1fb78738","onERC1155BatchReceived(address,address,uint256[],uint256[],bytes)":"bc197c81","onERC1155Received(address,address,uint256,uint256,bytes)":"f23a6e61","onERC721Received(address,address,uint256,bytes)":"150b7a02","renounceRole(bytes32,address)":"36568abe","revokeRole(bytes32,address)":"d547741f","schedule(address,uint256,bytes,bytes32,bytes32,uint256)":"01d5062a","scheduleBatch(address[],uint256[],bytes[],bytes32,bytes32,uint256)":"8f2a0bb0","supportsInterface(bytes4)":"01ffc9a7","updateDelay(uint256)":"64d62353"},"id":44}