{"abi":[{"type":"function","name":"father","inputs":[],"outputs":[{"name":"","type":"uint256","internalType":"uint256"}],"stateMutability":"view"},{"type":"function","name":"gramps","inputs":[],"outputs":[{"name":"","type":"string","internalType":"string"}],"stateMutability":"view"},{"type":"function","name":"initialize","inputs":[],"outputs":[],"stateMutability":"nonpayable"},{"type":"function","name":"initialize","inputs":[{"name":"_gramps","type":"string","internalType":"string"},{"name":"_father","type":"uint256","internalType":"uint256"}],"outputs":[],"stateMutability":"nonpayable"},{"type":"function","name":"initialize","inputs":[{"name":"value","type":"string","internalType":"string"}],"outputs":[],"stateMutability":"nonpayable"},{"type":"function","name":"isHuman","inputs":[],"outputs":[{"name":"","type":"bool","internalType":"bool"}],"stateMutability":"view"},{"type":"event","name":"Initialized","inputs":[{"name":"version","type":"uint8","indexed":false,"internalType":"uint8"}],"anonymous":false}],"bytecode":{"object":"0x608060405234801561001057600080fd5b5061083f806100206000396000f3fe608060405234801561001057600080fd5b50600436106100625760003560e01c80631c8aca3b146100675780634a6c9db6146100835780638129fc1c146100a65780638beaf7d7146100b0578063f62d1888146100c3578063fa39851f146100d6575b600080fd5b61007060025481565b6040519081526020015b60405180910390f35b6000546100969062010000900460ff1681565b604051901515815260200161007a565b6100ae6100eb565b005b6100ae6100be36600461065f565b6101be565b6100ae6100d13660046106a4565b61028c565b6100de610358565b60405161007a91906106e1565b600054610100900460ff161580801561010b5750600054600160ff909116105b806101255750303b158015610125575060005460ff166001145b61014a5760405162461bcd60e51b815260040161014190610736565b60405180910390fd5b6000805460ff19166001179055801561016d576000805461ff0019166101001790555b6101756103e6565b80156101bb576000805461ff0019169055604051600181527f7f26b83ff96e1f2b6a682f133852f6798a09c465da95921460cefb38474024989060200160405180910390a15b50565b600054610100900460ff16158080156101de5750600054600160ff909116105b806101f85750303b1580156101f8575060005460ff166001145b6102145760405162461bcd60e51b815260040161014190610736565b6000805460ff191660011790558015610237576000805461ff0019166101001790555b6102418383610417565b8015610287576000805461ff0019169055604051600181527f7f26b83ff96e1f2b6a682f133852f6798a09c465da95921460cefb38474024989060200160405180910390a15b505050565b600054610100900460ff16158080156102ac5750600054600160ff909116105b806102c65750303b1580156102c6575060005460ff166001145b6102e25760405162461bcd60e51b815260040161014190610736565b6000805460ff191660011790558015610305576000805461ff0019166101001790555b61030e82610450565b8015610354576000805461ff0019169055604051600181527f7f26b83ff96e1f2b6a682f133852f6798a09c465da95921460cefb38474024989060200160405180910390a15b5050565b6001805461036590610784565b80601f016020809104026020016040519081016040528092919081815260200182805461039190610784565b80156103de5780601f106103b3576101008083540402835291602001916103de565b820191906000526020600020905b8154815290600101906020018083116103c157829003601f168201915b505050505081565b600054610100900460ff1661040d5760405162461bcd60e51b8152600401610141906107be565b610415610488565b565b600054610100900460ff1661043e5760405162461bcd60e51b8152600401610141906107be565b61044782610450565b610354816104c2565b600054610100900460ff166104775760405162461bcd60e51b8152600401610141906107be565b61047f6103e6565b6101bb816104ee565b600054610100900460ff166104af5760405162461bcd60e51b8152600401610141906107be565b6000805462ff0000191662010000179055565b600054610100900460ff166104e95760405162461bcd60e51b8152600401610141906107be565b600255565b600054610100900460ff166105155760405162461bcd60e51b8152600401610141906107be565b805161035490600190602084019082805461052f90610784565b90600052602060002090601f0160209004810192826105515760008555610597565b82601f1061056a57805160ff1916838001178555610597565b82800160010185558215610597579182015b8281111561059757825182559160200191906001019061057c565b506105a39291506105a7565b5090565b5b808211156105a357600081556001016105a8565b634e487b7160e01b600052604160045260246000fd5b600082601f8301126105e357600080fd5b813567ffffffffffffffff808211156105fe576105fe6105bc565b604051601f8301601f19908116603f01168101908282118183101715610626576106266105bc565b8160405283815286602085880101111561063f57600080fd5b836020870160208301376000602085830101528094505050505092915050565b6000806040838503121561067257600080fd5b823567ffffffffffffffff81111561068957600080fd5b610695858286016105d2565b95602094909401359450505050565b6000602082840312156106b657600080fd5b813567ffffffffffffffff8111156106cd57600080fd5b6106d9848285016105d2565b949350505050565b600060208083528351808285015260005b8181101561070e578581018301518582016040015282016106f2565b81811115610720576000604083870101525b50601f01601f1916929092016040019392505050565b6020808252602e908201527f496e697469616c697a61626c653a20636f6e747261637420697320616c72656160408201526d191e481a5b9a5d1a585b1a5e995960921b606082015260800190565b600181811c9082168061079857607f821691505b6020821081036107b857634e487b7160e01b600052602260045260246000fd5b50919050565b6020808252602b908201527f496e697469616c697a61626c653a20636f6e7472616374206973206e6f74206960408201526a6e697469616c697a696e6760a81b60608201526080019056fea2646970667358221220ff4492b01ae3e8ab5432c7f4b1cc852cfcd580c56d584ad43989d5c403774c0264736f6c634300080d0033","linkReferences":{}},"methodIdentifiers":{"father()":"1c8aca3b","gramps()":"fa39851f","initialize()":"8129fc1c","initialize(string)":"f62d1888","initialize(string,uint256)":"8beaf7d7","isHuman()":"4a6c9db6"},"id":111}