{"abi":[{"type":"function","name":"beneficiary","inputs":[],"outputs":[{"name":"","type":"address","internalType":"address payable"}],"stateMutability":"view"},{"type":"function","name":"beneficiaryWithdraw","inputs":[],"outputs":[],"stateMutability":"nonpayable"},{"type":"function","name":"close","inputs":[],"outputs":[],"stateMutability":"nonpayable"},{"type":"function","name":"deposit","inputs":[{"name":"refundee","type":"address","internalType":"address"}],"outputs":[],"stateMutability":"payable"},{"type":"function","name":"depositsOf","inputs":[{"name":"payee","type":"address","internalType":"address"}],"outputs":[{"name":"","type":"uint256","internalType":"uint256"}],"stateMutability":"view"},{"type":"function","name":"enableRefunds","inputs":[],"outputs":[],"stateMutability":"nonpayable"},{"type":"function","name":"initialize","inputs":[],"outputs":[],"stateMutability":"nonpayable"},{"type":"function","name":"owner","inputs":[],"outputs":[{"name":"","type":"address","internalType":"address"}],"stateMutability":"view"},{"type":"function","name":"renounceOwnership","inputs":[],"outputs":[],"stateMutability":"nonpayable"},{"type":"function","name":"state","inputs":[],"outputs":[{"name":"","type":"uint8","internalType":"enum RefundEscrowUpgradeable.State"}],"stateMutability":"view"},{"type":"function","name":"transferOwnership","inputs":[{"name":"newOwner","type":"address","internalType":"address"}],"outputs":[],"stateMutability":"nonpayable"},{"type":"function","name":"withdraw","inputs":[{"name":"payee","type":"address","internalType":"address payable"}],"outputs":[],"stateMutability":"nonpayable"},{"type":"function","name":"withdrawalAllowed","inputs":[{"name":"","type":"address","internalType":"address"}],"outputs":[{"name":"","type":"bool","internalType":"bool"}],"stateMutability":"view"},{"type":"event","name":"Deposited","inputs":[{"name":"payee","type":"address","indexed":true,"internalType":"address"},{"name":"weiAmount","type":"uint256","indexed":false,"internalType":"uint256"}],"anonymous":false},{"type":"event","name":"Initialized","inputs":[{"name":"version","type":"uint8","indexed":false,"internalType":"uint8"}],"anonymous":false},{"type":"event","name":"OwnershipTransferred","inputs":[{"name":"previousOwner","type":"address","indexed":true,"internalType":"address"},{"name":"newOwner","type":"address","indexed":true,"internalType":"address"}],"anonymous":false},{"type":"event","name":"RefundsClosed","inputs":[],"anonymous":false},{"type":"event","name":"RefundsEnabled","inputs":[],"anonymous":false},{"type":"event","name":"Withdrawn","inputs":[{"name":"payee","type":"address","indexed":true,"internalType":"address"},{"name":"weiAmount","type":"uint256","indexed":false,"internalType":"uint256"}],"anonymous":false}],"bytecode":{"object":"0x6080604052348015600e575f5ffd5b50610b658061001c5f395ff3fe6080604052600436106100bf575f3560e01c80638c52dc411161007c578063c19d93fb11610057578063c19d93fb146101cf578063e3a9db1a146101ee578063f2fde38b14610230578063f340fa011461024f575f5ffd5b80638c52dc411461018a5780638da5cb5b1461019e5780639af6549a146101bb575f5ffd5b806338af3eed146100c357806343d726d6146100fe57806351cff8d914610114578063685ca19414610133578063715018a6146101625780638129fc1c14610176575b5f5ffd5b3480156100ce575f5ffd5b5060c95461010090046001600160a01b03165b6040516001600160a01b0390911681526020015b60405180910390f35b348015610109575f5ffd5b50610112610262565b005b34801561011f575f5ffd5b5061011261012e366004610a63565b61031d565b34801561013e575f5ffd5b5061015261014d366004610a63565b61039a565b60405190151581526020016100f5565b34801561016d575f5ffd5b506101126103bb565b348015610181575f5ffd5b506101126103ce565b348015610195575f5ffd5b506101126104d8565b3480156101a9575f5ffd5b506033546001600160a01b03166100e1565b3480156101c6575f5ffd5b50610112610597565b3480156101da575f5ffd5b5060c95460ff166040516100f59190610a99565b3480156101f9575f5ffd5b50610222610208366004610a63565b6001600160a01b03165f9081526065602052604090205490565b6040519081526020016100f5565b34801561023b575f5ffd5b5061011261024a366004610a63565b61064e565b61011261025d366004610a63565b6106c4565b61026a610746565b5f60c95460ff16600281111561028257610282610a85565b146102e65760405162461bcd60e51b815260206004820152602960248201527f526566756e64457363726f773a2063616e206f6e6c7920636c6f7365207768696044820152686c652061637469766560b81b60648201526084015b60405180910390fd5b60c9805460ff191660021790556040517f088672c3a6e342f7cd94a65ba63b79df24a8973927b4d05d803c44bbf787d12f905f90a1565b6103268161039a565b61038e5760405162461bcd60e51b815260206004820152603360248201527f436f6e646974696f6e616c457363726f773a207061796565206973206e6f7420604482015272616c6c6f77656420746f20776974686472617760681b60648201526084016102dd565b610397816107a0565b50565b5f600160c95460ff1660028111156103b4576103b4610a85565b1492915050565b6103c3610746565b6103cc5f610816565b565b5f54610100900460ff16158080156103ec57505f54600160ff909116105b806104055750303b15801561040557505f5460ff166001145b6104685760405162461bcd60e51b815260206004820152602e60248201527f496e697469616c697a61626c653a20636f6e747261637420697320616c72656160448201526d191e481a5b9a5d1a585b1a5e995960921b60648201526084016102dd565b5f805460ff191660011790558015610489575f805461ff0019166101001790555b610491610867565b8015610397575f805461ff0019169055604051600181527f7f26b83ff96e1f2b6a682f133852f6798a09c465da95921460cefb38474024989060200160405180910390a150565b6104e0610746565b5f60c95460ff1660028111156104f8576104f8610a85565b146105605760405162461bcd60e51b815260206004820152603260248201527f526566756e64457363726f773a2063616e206f6e6c7920656e61626c6520726560448201527166756e6473207768696c652061637469766560701b60648201526084016102dd565b60c9805460ff191660011790556040517f599d8e5a83cffb867d051598c4d70e805d59802d8081c1c7d6dffc5b6aca2b89905f90a1565b600260c95460ff1660028111156105b0576105b0610a85565b146106235760405162461bcd60e51b815260206004820152603860248201527f526566756e64457363726f773a2062656e65666963696172792063616e206f6e60448201527f6c79207769746864726177207768696c6520636c6f736564000000000000000060648201526084016102dd565b6103cc4761063f60c9546001600160a01b036101009091041690565b6001600160a01b031690610895565b610656610746565b6001600160a01b0381166106bb5760405162461bcd60e51b815260206004820152602660248201527f4f776e61626c653a206e6577206f776e657220697320746865207a65726f206160448201526564647265737360d01b60648201526084016102dd565b61039781610816565b5f60c95460ff1660028111156106dc576106dc610a85565b1461073d5760405162461bcd60e51b815260206004820152602b60248201527f526566756e64457363726f773a2063616e206f6e6c79206465706f736974207760448201526a68696c652061637469766560a81b60648201526084016102dd565b610397816109af565b6033546001600160a01b031633146103cc5760405162461bcd60e51b815260206004820181905260248201527f4f776e61626c653a2063616c6c6572206973206e6f7420746865206f776e657260448201526064016102dd565b6107a8610746565b6001600160a01b0381165f8181526065602052604081208054919055906107cf9082610895565b816001600160a01b03167f7084f5476618d8e60b11ef0d7d3f06914655adb8793e28ff7f018d4c76d505d58260405161080a91815260200190565b60405180910390a25050565b603380546001600160a01b038381166001600160a01b0319831681179093556040519116919082907f8be0079c531659141344cd1fd0a4f28419497f9722a3daafe3b4186f6b6457e0905f90a35050565b5f54610100900460ff1661088d5760405162461bcd60e51b81526004016102dd90610abf565b6103cc610a20565b804710156108e55760405162461bcd60e51b815260206004820152601d60248201527f416464726573733a20696e73756666696369656e742062616c616e636500000060448201526064016102dd565b5f826001600160a01b0316826040515f6040518083038185875af1925050503d805f811461092e576040519150601f19603f3d011682016040523d82523d5f602084013e610933565b606091505b50509050806109aa5760405162461bcd60e51b815260206004820152603a60248201527f416464726573733a20756e61626c6520746f2073656e642076616c75652c207260448201527f6563697069656e74206d6179206861766520726576657274656400000000000060648201526084016102dd565b505050565b6109b7610746565b6001600160a01b0381165f908152606560205260408120805434928392916109e0908490610b0a565b90915550506040518181526001600160a01b038316907f2da466a7b24304f47e87fa2e1e5a81b9831ce54fec19055ce277ca2f39ba42c49060200161080a565b5f54610100900460ff16610a465760405162461bcd60e51b81526004016102dd90610abf565b6103cc33610816565b6001600160a01b0381168114610397575f5ffd5b5f60208284031215610a73575f5ffd5b8135610a7e81610a4f565b9392505050565b634e487b7160e01b5f52602160045260245ffd5b6020810160038310610ab957634e487b7160e01b5f52602160045260245ffd5b91905290565b6020808252602b908201527f496e697469616c697a61626c653a20636f6e7472616374206973206e6f74206960408201526a6e697469616c697a696e6760a81b606082015260800190565b80820180821115610b2957634e487b7160e01b5f52601160045260245ffd5b9291505056fea26469706673582212205398f20422c04d64b2cb6d72489a2f43682637b264d77087bce1d2de5401b5d164736f6c634300081c0033","linkReferences":{}},"methodIdentifiers":{"beneficiary()":"38af3eed","beneficiaryWithdraw()":"9af6549a","close()":"43d726d6","deposit(address)":"f340fa01","depositsOf(address)":"e3a9db1a","enableRefunds()":"8c52dc41","initialize()":"8129fc1c","owner()":"8da5cb5b","renounceOwnership()":"715018a6","state()":"c19d93fb","transferOwnership(address)":"f2fde38b","withdraw(address)":"51cff8d9","withdrawalAllowed(address)":"685ca194"},"id":164}