{"abi":[{"type":"function","name":"mockFunction","inputs":[],"outputs":[{"name":"","type":"string","internalType":"string"}],"stateMutability":"payable"},{"type":"function","name":"mockFunctionEmptyReturn","inputs":[],"outputs":[],"stateMutability":"payable"},{"type":"function","name":"mockFunctionNonPayable","inputs":[],"outputs":[{"name":"","type":"string","internalType":"string"}],"stateMutability":"nonpayable"},{"type":"function","name":"mockFunctionOutOfGas","inputs":[],"outputs":[],"stateMutability":"payable"},{"type":"function","name":"mockFunctionRevertsNoReason","inputs":[],"outputs":[],"stateMutability":"payable"},{"type":"function","name":"mockFunctionRevertsReason","inputs":[],"outputs":[],"stateMutability":"payable"},{"type":"function","name":"mockFunctionThrows","inputs":[],"outputs":[],"stateMutability":"payable"},{"type":"function","name":"mockFunctionWithArgs","inputs":[{"name":"a","type":"uint256","internalType":"uint256"},{"name":"b","type":"uint256","internalType":"uint256"}],"outputs":[{"name":"","type":"string","internalType":"string"}],"stateMutability":"payable"},{"type":"function","name":"mockFunctionWritesStorage","inputs":[{"name":"slot","type":"bytes32","internalType":"bytes32"},{"name":"value","type":"bytes32","internalType":"bytes32"}],"outputs":[{"name":"","type":"string","internalType":"string"}],"stateMutability":"nonpayable"},{"type":"function","name":"mockStaticFunction","inputs":[],"outputs":[{"name":"","type":"string","internalType":"string"}],"stateMutability":"pure"},{"type":"event","name":"MockFunctionCalled","inputs":[],"anonymous":false},{"type":"event","name":"MockFunctionCalledWithArgs","inputs":[{"name":"a","type":"uint256","indexed":false,"internalType":"uint256"},{"name":"b","type":"uint256","indexed":false,"internalType":"uint256"}],"anonymous":false}],"bytecode":{"object":"0x608060405234801561001057600080fd5b506103cf806100206000396000f3fe6080604052600436106100915760003560e01c8063425397a211610059578063425397a2146100e3578063a793ab4714610120578063c292d81c14610128578063c8fc769614610130578063fdb273251461015f57600080fd5b80630c034968146100965780630f63e42c146100a05780632c81d638146100cb5780633bcfaa14146100d35780633e6fec04146100db575b600080fd5b61009e610172565b005b3480156100ac57600080fd5b506100b56101be565b6040516100c291906102e5565b60405180910390f35b61009e600080fd5b61009e61020b565b6100b56101be565b3480156100ef57600080fd5b506100b56100fe36600461033a565b90556040805180820190915260068152650c1e0c4c8ccd60d21b602082015290565b61009e610215565b61009e61025a565b34801561013c57600080fd5b506040805180820190915260068152650c1e0c4c8ccd60d21b60208201526100b5565b6100b561016d36600461033a565b610285565b60405162461bcd60e51b815260206004820152601b60248201527f43616c6c52656365697665724d6f636b3a20726576657274696e670000000000604482015260640160405180910390fd5b6040516060907f52c66ed6ec9ca819cba26fe2b2650059270d8981b295af300187a964f54a8c2390600090a1506040805180820190915260068152650c1e0c4c8ccd60d21b602082015290565b61021361035c565b565b60005b600080546001810182559080527f290decd9548b62a8d60345a988386fc84ba6bc95484008f6362f93160ef3e5630181905561025381610372565b9050610218565b6040517f52c66ed6ec9ca819cba26fe2b2650059270d8981b295af300187a964f54a8c2390600090a1565b60408051838152602081018390526060917f2b42b3c9af4187c86225f201736204c7597312c830cb5c2537dff6ef24b946ae910160405180910390a1506040805180820190915260068152650c1e0c4c8ccd60d21b602082015292915050565b600060208083528351808285015260005b81811015610312578581018301518582016040015282016102f6565b81811115610324576000604083870101525b50601f01601f1916929092016040019392505050565b6000806040838503121561034d57600080fd5b50508035926020909101359150565b634e487b7160e01b600052600160045260246000fd5b60006001820161039257634e487b7160e01b600052601160045260246000fd5b506001019056fea2646970667358221220e0c12d5013db022f918a49cdf278ea44a2fa198dc4f3a9864ba5af14aeeadf7e64736f6c634300080d0033","linkReferences":{}},"methodIdentifiers":{"mockFunction()":"3e6fec04","mockFunctionEmptyReturn()":"c292d81c","mockFunctionNonPayable()":"0f63e42c","mockFunctionOutOfGas()":"a793ab47","mockFunctionRevertsNoReason()":"2c81d638","mockFunctionRevertsReason()":"0c034968","mockFunctionThrows()":"3bcfaa14","mockFunctionWithArgs(uint256,uint256)":"fdb27325","mockFunctionWritesStorage(bytes32,bytes32)":"425397a2","mockStaticFunction()":"c8fc7696"},"id":93}