{"abi":[{"type":"constructor","inputs":[],"stateMutability":"nonpayable"},{"type":"function","name":"initialize","inputs":[],"outputs":[],"stateMutability":"nonpayable"},{"type":"function","name":"initializeOnlyInitializing","inputs":[],"outputs":[],"stateMutability":"nonpayable"},{"type":"function","name":"initializerRan","inputs":[],"outputs":[{"name":"","type":"bool","internalType":"bool"}],"stateMutability":"view"},{"type":"function","name":"onlyInitializingRan","inputs":[],"outputs":[{"name":"","type":"bool","internalType":"bool"}],"stateMutability":"view"},{"type":"event","name":"Initialized","inputs":[{"name":"version","type":"uint8","indexed":false,"internalType":"uint8"}],"anonymous":false}],"bytecode":{"object":"0x608060405234801561001057600080fd5b50600054610100900460ff16158080156100315750600054600160ff909116105b8061005c575061004a3061011f60201b61023d1760201c565b15801561005c575060005460ff166001145b6100b25760405162461bcd60e51b815260206004820152602e602482015260008051602061054683398151915260448201526d191e481a5b9a5d1a585b1a5e995960921b60648201526084015b60405180910390fd5b6000805460ff1916600117905580156100d5576000805461ff0019166101001790555b6100dd61012e565b6100e5610235565b8015610119576000805461ff0019169055604051600181526000805160206105668339815191529060200160405180910390a15b506102b5565b6001600160a01b03163b151590565b600054610100900460ff161580801561014e5750600054600160ff909116105b8061017957506101673061011f60201b61023d1760201c565b158015610179575060005460ff166001145b6101ca5760405162461bcd60e51b815260206004820152602e602482015260008051602061054683398151915260448201526d191e481a5b9a5d1a585b1a5e995960921b60648201526084016100a9565b6000805460ff1916600117905580156101ed576000805461ff0019166101001790555b6000805462ff00001916620100001790558015610232576000805461ff0019169055604051600181526000805160206105668339815191529060200160405180910390a15b50565b600054610100900460ff166102a05760405162461bcd60e51b815260206004820152602b60248201527f496e697469616c697a61626c653a20636f6e7472616374206973206e6f74206960448201526a6e697469616c697a696e6760a81b60648201526084016100a9565b6000805463ff00000019166301000000179055565b610282806102c46000396000f3fe608060405234801561001057600080fd5b506004361061004c5760003560e01c806310065ed2146100515780637cffe97a1461005b5780638129fc1c14610083578063c3b8ef2a1461008b575b600080fd5b61005961009e565b005b60005461006f906301000000900460ff1681565b604051901515815260200160405180910390f35b610059610123565b60005461006f9062010000900460ff1681565b600054610100900460ff1661010e5760405162461bcd60e51b815260206004820152602b60248201527f496e697469616c697a61626c653a20636f6e7472616374206973206e6f74206960448201526a6e697469616c697a696e6760a81b60648201526084015b60405180910390fd5b6000805463ff00000019166301000000179055565b600054610100900460ff16158080156101435750600054600160ff909116105b8061015d5750303b15801561015d575060005460ff166001145b6101c05760405162461bcd60e51b815260206004820152602e60248201527f496e697469616c697a61626c653a20636f6e747261637420697320616c72656160448201526d191e481a5b9a5d1a585b1a5e995960921b6064820152608401610105565b6000805460ff1916600117905580156101e3576000805461ff0019166101001790555b6000805462ff0000191662010000179055801561023a576000805461ff0019169055604051600181527f7f26b83ff96e1f2b6a682f133852f6798a09c465da95921460cefb38474024989060200160405180910390a15b50565b6001600160a01b03163b15159056fea2646970667358221220119ef80d0acb15cd57c5c4babed6e63232dd22a3decc11181aa81406f0d5639b64736f6c634300080d0033496e697469616c697a61626c653a20636f6e747261637420697320616c7265617f26b83ff96e1f2b6a682f133852f6798a09c465da95921460cefb3847402498","linkReferences":{}},"methodIdentifiers":{"initialize()":"8129fc1c","initializeOnlyInitializing()":"10065ed2","initializerRan()":"c3b8ef2a","onlyInitializingRan()":"7cffe97a"},"id":109}