{"abi":[{"type":"function","name":"fail","inputs":[],"outputs":[],"stateMutability":"pure"},{"type":"function","name":"initialize","inputs":[],"outputs":[],"stateMutability":"nonpayable"},{"type":"function","name":"initializeOnlyInitializing","inputs":[],"outputs":[],"stateMutability":"nonpayable"},{"type":"function","name":"initializeWithX","inputs":[{"name":"_x","type":"uint256","internalType":"uint256"}],"outputs":[],"stateMutability":"payable"},{"type":"function","name":"initializerNested","inputs":[],"outputs":[],"stateMutability":"nonpayable"},{"type":"function","name":"initializerRan","inputs":[],"outputs":[{"name":"","type":"bool","internalType":"bool"}],"stateMutability":"view"},{"type":"function","name":"isInitializing","inputs":[],"outputs":[{"name":"","type":"bool","internalType":"bool"}],"stateMutability":"view"},{"type":"function","name":"nonInitializable","inputs":[{"name":"_x","type":"uint256","internalType":"uint256"}],"outputs":[],"stateMutability":"payable"},{"type":"function","name":"onlyInitializingNested","inputs":[],"outputs":[],"stateMutability":"nonpayable"},{"type":"function","name":"onlyInitializingRan","inputs":[],"outputs":[{"name":"","type":"bool","internalType":"bool"}],"stateMutability":"view"},{"type":"function","name":"x","inputs":[],"outputs":[{"name":"","type":"uint256","internalType":"uint256"}],"stateMutability":"view"},{"type":"event","name":"Initialized","inputs":[{"name":"version","type":"uint8","indexed":false,"internalType":"uint8"}],"anonymous":false}],"bytecode":{"object":"0x608060405234801561001057600080fd5b5061060e806100206000396000f3fe60806040526004361061009b5760003560e01c806376268ae81161006457806376268ae8146101315780637cffe97a146101465780638129fc1c14610167578063a9cc47181461017c578063c3b8ef2a14610191578063e955c9ec146101b157600080fd5b806218eaa8146100a05780630c55699c146100b557806310065ed2146100de5780633ec91f05146100f357806368449d1b1461011c575b600080fd5b6100b36100ae366004610571565b6101c4565b005b3480156100c157600080fd5b506100cb60015481565b6040519081526020015b60405180910390f35b3480156100ea57600080fd5b506100b3610295565b3480156100ff57600080fd5b50600054610100900460ff165b60405190151581526020016100d5565b34801561012857600080fd5b506100b3610315565b34801561013d57600080fd5b506100b36103e0565b34801561015257600080fd5b5060005461010c906301000000900460ff1681565b34801561017357600080fd5b506100b361045d565b34801561018857600080fd5b506100b3610529565b34801561019d57600080fd5b5060005461010c9062010000900460ff1681565b6100b36101bf366004610571565b600155565b600054610100900460ff16158080156101e45750600054600160ff909116105b806101fe5750303b1580156101fe575060005460ff166001145b6102235760405162461bcd60e51b815260040161021a9061058a565b60405180910390fd5b6000805460ff191660011790558015610246576000805461ff0019166101001790555b60018290558015610291576000805461ff0019169055604051600181527f7f26b83ff96e1f2b6a682f133852f6798a09c465da95921460cefb38474024989060200160405180910390a15b5050565b600054610100900460ff166103005760405162461bcd60e51b815260206004820152602b60248201527f496e697469616c697a61626c653a20636f6e7472616374206973206e6f74206960448201526a6e697469616c697a696e6760a81b606482015260840161021a565b6000805463ff00000019166301000000179055565b600054610100900460ff16158080156103355750600054600160ff909116105b8061034f5750303b15801561034f575060005460ff166001145b61036b5760405162461bcd60e51b815260040161021a9061058a565b6000805460ff19166001179055801561038e576000805461ff0019166101001790555b610396610295565b80156103dd576000805461ff0019169055604051600181527f7f26b83ff96e1f2b6a682f133852f6798a09c465da95921460cefb3847402498906020015b60405180910390a15b50565b600054610100900460ff16158080156104005750600054600160ff909116105b8061041a5750303b15801561041a575060005460ff166001145b6104365760405162461bcd60e51b815260040161021a9061058a565b6000805460ff191660011790558015610459576000805461ff0019166101001790555b6103965b600054610100900460ff161580801561047d5750600054600160ff909116105b806104975750303b158015610497575060005460ff166001145b6104b35760405162461bcd60e51b815260040161021a9061058a565b6000805460ff1916600117905580156104d6576000805461ff0019166101001790555b6000805462ff000019166201000017905580156103dd576000805461ff0019169055604051600181527f7f26b83ff96e1f2b6a682f133852f6798a09c465da95921460cefb3847402498906020016103d4565b60405162461bcd60e51b815260206004820181905260248201527f496e697469616c697a61626c654d6f636b20666f72636564206661696c757265604482015260640161021a565b60006020828403121561058357600080fd5b5035919050565b6020808252602e908201527f496e697469616c697a61626c653a20636f6e747261637420697320616c72656160408201526d191e481a5b9a5d1a585b1a5e995960921b60608201526080019056fea2646970667358221220c86836ba259ea8a0f77c6074b6b325c64af0c87d76acbc4c390122e6fa1a3a3264736f6c634300080d0033","linkReferences":{}},"methodIdentifiers":{"fail()":"a9cc4718","initialize()":"8129fc1c","initializeOnlyInitializing()":"10065ed2","initializeWithX(uint256)":"0018eaa8","initializerNested()":"76268ae8","initializerRan()":"c3b8ef2a","isInitializing()":"3ec91f05","nonInitializable(uint256)":"e955c9ec","onlyInitializingNested()":"68449d1b","onlyInitializingRan()":"7cffe97a","x()":"0c55699c"},"id":109}