{"abi":[{"type":"function","name":"chainReinitialize","inputs":[{"name":"i","type":"uint8","internalType":"uint8"},{"name":"j","type":"uint8","internalType":"uint8"}],"outputs":[],"stateMutability":"nonpayable"},{"type":"function","name":"counter","inputs":[],"outputs":[{"name":"","type":"uint256","internalType":"uint256"}],"stateMutability":"view"},{"type":"function","name":"disableInitializers","inputs":[],"outputs":[],"stateMutability":"nonpayable"},{"type":"function","name":"doStuff","inputs":[],"outputs":[],"stateMutability":"nonpayable"},{"type":"function","name":"getInitializedVersion","inputs":[],"outputs":[{"name":"","type":"uint8","internalType":"uint8"}],"stateMutability":"view"},{"type":"function","name":"initialize","inputs":[],"outputs":[],"stateMutability":"nonpayable"},{"type":"function","name":"nestedReinitialize","inputs":[{"name":"i","type":"uint8","internalType":"uint8"},{"name":"j","type":"uint8","internalType":"uint8"}],"outputs":[],"stateMutability":"nonpayable"},{"type":"function","name":"reinitialize","inputs":[{"name":"i","type":"uint8","internalType":"uint8"}],"outputs":[],"stateMutability":"nonpayable"},{"type":"event","name":"Initialized","inputs":[{"name":"version","type":"uint8","indexed":false,"internalType":"uint8"}],"anonymous":false}],"bytecode":{"object":"0x608060405234801561001057600080fd5b5061056c806100206000396000f3fe608060405234801561001057600080fd5b50600436106100885760003560e01c80638129fc1c1161005b5780638129fc1c146100d9578063874f33a1146100e1578063b3c65015146100e9578063f8d6cdba146100fe57600080fd5b8063073de42e1461008d57806331f44900146100a257806361bc221a146100aa5780636b2d8f8f146100c6575b600080fd5b6100a061009b36600461044c565b610111565b005b6100a06101a6565b6100b360015481565b6040519081526020015b60405180910390f35b6100a06100d436600461046e565b6101b0565b6100a06101c6565b6100a061027e565b60005460405160ff90911681526020016100bd565b6100a061010c36600461046e565b610300565b6000548190610100900460ff16158015610132575060005460ff8083169116105b6101575760405162461bcd60e51b815260040161014e906104a1565b60405180910390fd5b6000805461ffff191660ff83161761010017905561017361027e565b6000805461ff001916905560405160ff821681526000805160206105178339815191529060200160405180910390a15050565b6101ae61038e565b565b6101b982610111565b6101c281610111565b5050565b600054610100900460ff16158080156101e65750600054600160ff909116105b806102005750303b158015610200575060005460ff166001145b61021c5760405162461bcd60e51b815260040161014e906104a1565b6000805460ff19166001179055801561023f576000805461ff0019166101001790555b61024761027e565b801561027b576000805461ff0019169055604051600181526000805160206105178339815191529060200160405180910390a15b50565b600054610100900460ff166102e95760405162461bcd60e51b815260206004820152602b60248201527f496e697469616c697a61626c653a20636f6e7472616374206973206e6f74206960448201526a6e697469616c697a696e6760a81b606482015260840161014e565b600180549060006102f9836104ef565b9190505550565b6000548290610100900460ff16158015610321575060005460ff8083169116105b61033d5760405162461bcd60e51b815260040161014e906104a1565b6000805461ffff191660ff83161761010017905561035a82610111565b6000805461ff001916905560405160ff821681526000805160206105178339815191529060200160405180910390a1505050565b600054610100900460ff16156103f65760405162461bcd60e51b815260206004820152602760248201527f496e697469616c697a61626c653a20636f6e747261637420697320696e697469604482015266616c697a696e6760c81b606482015260840161014e565b60005460ff908116146101ae576000805460ff191660ff9081179091556040519081526000805160206105178339815191529060200160405180910390a1565b803560ff8116811461044757600080fd5b919050565b60006020828403121561045e57600080fd5b61046782610436565b9392505050565b6000806040838503121561048157600080fd5b61048a83610436565b915061049860208401610436565b90509250929050565b6020808252602e908201527f496e697469616c697a61626c653a20636f6e747261637420697320616c72656160408201526d191e481a5b9a5d1a585b1a5e995960921b606082015260800190565b60006001820161050f57634e487b7160e01b600052601160045260246000fd5b506001019056fe7f26b83ff96e1f2b6a682f133852f6798a09c465da95921460cefb3847402498a2646970667358221220069fe30083909267e9aad0516e5ddf7f1b1c905abd8f05401f87ed95aa77115964736f6c634300080d0033","linkReferences":{}},"methodIdentifiers":{"chainReinitialize(uint8,uint8)":"6b2d8f8f","counter()":"61bc221a","disableInitializers()":"31f44900","doStuff()":"874f33a1","getInitializedVersion()":"b3c65015","initialize()":"8129fc1c","nestedReinitialize(uint8,uint8)":"f8d6cdba","reinitialize(uint8)":"073de42e"},"id":109}