{"abi":[{"type":"function","name":"msgData","inputs":[{"name":"integerValue","type":"uint256","internalType":"uint256"},{"name":"stringValue","type":"string","internalType":"string"}],"outputs":[],"stateMutability":"nonpayable"},{"type":"function","name":"msgDataShort","inputs":[],"outputs":[],"stateMutability":"nonpayable"},{"type":"function","name":"msgSender","inputs":[],"outputs":[],"stateMutability":"nonpayable"},{"type":"event","name":"Data","inputs":[{"name":"data","type":"bytes","indexed":false,"internalType":"bytes"},{"name":"integerValue","type":"uint256","indexed":false,"internalType":"uint256"},{"name":"stringValue","type":"string","indexed":false,"internalType":"string"}],"anonymous":false},{"type":"event","name":"DataShort","inputs":[{"name":"data","type":"bytes","indexed":false,"internalType":"bytes"}],"anonymous":false},{"type":"event","name":"Sender","inputs":[{"name":"sender","type":"address","indexed":false,"internalType":"address"}],"anonymous":false}],"bytecode":{"object":"0x608060405234801561001057600080fd5b506102cf806100206000396000f3fe608060405234801561001057600080fd5b50600436106100415760003560e01c8063376bf26214610046578063d737d0c71461005b578063ff5f6b5914610063575b600080fd5b61005961005436600461012b565b61006b565b005b6100596100ad565b6100596100e3565b7faf235354a0a47c91ee171961326335cb2d1a8e55b8a89859b0e61eb049e50ea060003684846040516100a1949392919061020f565b60405180910390a15050565b6040513381527fd6558c3ed910d959271054471fd1c326679d9fece99c5091b00ed89627cf2bfc906020015b60405180910390a1565b7f6d7cec71eba467294d92341ddc4e8634eb4d742a90e16f408f06e4b70bc4cd666000366040516100d992919061027d565b634e487b7160e01b600052604160045260246000fd5b6000806040838503121561013e57600080fd5b82359150602083013567ffffffffffffffff8082111561015d57600080fd5b818501915085601f83011261017157600080fd5b81358181111561018357610183610115565b604051601f8201601f19908116603f011681019083821181831017156101ab576101ab610115565b816040528281528860208487010111156101c457600080fd5b8260208601602083013760006020848301015280955050505050509250929050565b81835281816020850137506000828201602090810191909152601f909101601f19169091010190565b6060815260006102236060830186886101e6565b602085818501528382036040850152845180835260005b8181101561025557868101830151848201840152820161023a565b818111156102665760008383860101525b50601f01601f191691909101019695505050505050565b6020815260006102916020830184866101e6565b94935050505056fea2646970667358221220bb6822273e0b0cc0069d4ae3f785540a375e29a5040973e035df359e40d0027064736f6c634300080d0033","linkReferences":{}},"methodIdentifiers":{"msgData(uint256,string)":"376bf262","msgDataShort()":"ff5f6b59","msgSender()":"d737d0c7"},"id":95}