{"abi":[{"type":"function","name":"callData","inputs":[{"name":"context","type":"address","internalType":"contract ContextMock"},{"name":"integerValue","type":"uint256","internalType":"uint256"},{"name":"stringValue","type":"string","internalType":"string"}],"outputs":[],"stateMutability":"nonpayable"},{"type":"function","name":"callSender","inputs":[{"name":"context","type":"address","internalType":"contract ContextMock"}],"outputs":[],"stateMutability":"nonpayable"}],"bytecode":{"object":"0x608060405234801561001057600080fd5b506102cf806100206000396000f3fe608060405234801561001057600080fd5b50600436106100355760003560e01c80628604591461003a5780633207ad961461004f575b600080fd5b61004d61004836600461014f565b610062565b005b61004d61005d36600461021a565b6100c7565b604051631bb5f93160e11b81526001600160a01b0384169063376bf26290610090908590859060040161023c565b600060405180830381600087803b1580156100aa57600080fd5b505af11580156100be573d6000803e3d6000fd5b50505050505050565b806001600160a01b031663d737d0c76040518163ffffffff1660e01b8152600401600060405180830381600087803b15801561010257600080fd5b505af1158015610116573d6000803e3d6000fd5b5050505050565b80356001600160a01b038116811461013457600080fd5b919050565b634e487b7160e01b600052604160045260246000fd5b60008060006060848603121561016457600080fd5b61016d8461011d565b925060208401359150604084013567ffffffffffffffff8082111561019157600080fd5b818601915086601f8301126101a557600080fd5b8135818111156101b7576101b7610139565b604051601f8201601f19908116603f011681019083821181831017156101df576101df610139565b816040528281528960208487010111156101f857600080fd5b8260208601602083013760006020848301015280955050505050509250925092565b60006020828403121561022c57600080fd5b6102358261011d565b9392505050565b82815260006020604081840152835180604085015260005b8181101561027057858101830151858201606001528201610254565b81811115610282576000606083870101525b50601f01601f19169290920160600194935050505056fea2646970667358221220236c434166b2515a18633b3565dced7a178b32a1f195b84224405aad2afc2a7264736f6c634300080d0033","linkReferences":{}},"methodIdentifiers":{"callData(address,uint256,string)":"00860459","callSender(address)":"3207ad96"},"id":95}