{"abi":[{"type":"function","name":"AUTHORITY_THRESHOLD","inputs":[],"outputs":[{"name":"","type":"uint256","internalType":"uint256"}],"stateMutability":"view"},{"type":"function","name":"burn","inputs":[{"name":"token","type":"address","internalType":"address"},{"name":"amount","type":"uint256","internalType":"uint256"}],"outputs":[],"stateMutability":"nonpayable"},{"type":"function","name":"governanceCall","inputs":[{"name":"data","type":"bytes","internalType":"bytes"}],"outputs":[],"stateMutability":"nonpayable"},{"type":"function","name":"initialize","inputs":[{"name":"diamond_","type":"address","internalType":"address"},{"name":"hexensCoin_","type":"address","internalType":"address"}],"outputs":[],"stateMutability":"nonpayable"},{"type":"function","name":"owner","inputs":[],"outputs":[{"name":"","type":"address","internalType":"address"}],"stateMutability":"view"},{"type":"function","name":"proxiableUUID","inputs":[],"outputs":[{"name":"","type":"bytes32","internalType":"bytes32"}],"stateMutability":"view"},{"type":"function","name":"renounceOwnership","inputs":[],"outputs":[],"stateMutability":"nonpayable"},{"type":"function","name":"transferOwnership","inputs":[{"name":"newOwner","type":"address","internalType":"address"}],"outputs":[],"stateMutability":"nonpayable"},{"type":"function","name":"upgradeTo","inputs":[{"name":"newImplementation","type":"address","internalType":"address"}],"outputs":[],"stateMutability":"nonpayable"},{"type":"function","name":"upgradeToAndCall","inputs":[{"name":"newImplementation","type":"address","internalType":"address"},{"name":"data","type":"bytes","internalType":"bytes"}],"outputs":[],"stateMutability":"payable"},{"type":"event","name":"AdminChanged","inputs":[{"name":"previousAdmin","type":"address","indexed":false,"internalType":"address"},{"name":"newAdmin","type":"address","indexed":false,"internalType":"address"}],"anonymous":false},{"type":"event","name":"BeaconUpgraded","inputs":[{"name":"beacon","type":"address","indexed":true,"internalType":"address"}],"anonymous":false},{"type":"event","name":"Initialized","inputs":[{"name":"version","type":"uint8","indexed":false,"internalType":"uint8"}],"anonymous":false},{"type":"event","name":"OwnershipTransferred","inputs":[{"name":"previousOwner","type":"address","indexed":true,"internalType":"address"},{"name":"newOwner","type":"address","indexed":true,"internalType":"address"}],"anonymous":false},{"type":"event","name":"Upgraded","inputs":[{"name":"implementation","type":"address","indexed":true,"internalType":"address"}],"anonymous":false}],"bytecode":{"object":"0x60a06040523073ffffffffffffffffffffffffffffffffffffffff1660809073ffffffffffffffffffffffffffffffffffffffff1681525034801561004357600080fd5b506080516120f761007b60003960008181610219015281816102a701528181610563015281816105f101526106a101526120f76000f3fe6080604052600436106100915760003560e01c80638da5cb5b116100595780638da5cb5b146101465780639dc29fac14610171578063b248a8331461019a578063dbe0133f146101c3578063f2fde38b146101ee57610091565b80633659cfe614610096578063485cc955146100bf5780634f1ef286146100e857806352d1902d14610104578063715018a61461012f575b600080fd5b3480156100a257600080fd5b506100bd60048036038101906100b89190611342565b610217565b005b3480156100cb57600080fd5b506100e660048036038101906100e1919061136f565b61039f565b005b61010260048036038101906100fd91906114f5565b610561565b005b34801561011057600080fd5b5061011961069d565b604051610126919061156a565b60405180910390f35b34801561013b57600080fd5b50610144610756565b005b34801561015257600080fd5b5061015b61076a565b6040516101689190611594565b60405180910390f35b34801561017d57600080fd5b50610198600480360381019061019391906115e5565b610794565b005b3480156101a657600080fd5b506101c160048036038101906101bc9190611685565b61091a565b005b3480156101cf57600080fd5b506101d8610a87565b6040516101e591906116e1565b60405180910390f35b3480156101fa57600080fd5b5061021560048036038101906102109190611342565b610a95565b005b7f000000000000000000000000000000000000000000000000000000000000000073ffffffffffffffffffffffffffffffffffffffff163073ffffffffffffffffffffffffffffffffffffffff16036102a5576040517f08c379a000000000000000000000000000000000000000000000000000000000815260040161029c9061177f565b60405180910390fd5b7f000000000000000000000000000000000000000000000000000000000000000073ffffffffffffffffffffffffffffffffffffffff166102e4610b18565b73ffffffffffffffffffffffffffffffffffffffff161461033a576040517f08c379a000000000000000000000000000000000000000000000000000000000815260040161033190611811565b60405180910390fd5b61034381610b6f565b61039c81600067ffffffffffffffff811115610362576103616113ca565b5b6040519080825280601f01601f1916602001820160405280156103945781602001600182028036833780820191505090505b506000610c8f565b50565b60008060019054906101000a900460ff161590508080156103d05750600160008054906101000a900460ff1660ff16105b806103fd57506103df30610dfd565b1580156103fc5750600160008054906101000a900460ff1660ff16145b5b61043c576040517f08c379a0000000000000000000000000000000000000000000000000000000008152600401610433906118a3565b60405180910390fd5b60016000806101000a81548160ff021916908360ff1602179055508015610479576001600060016101000a81548160ff0219169083151502179055505b610481610e20565b8260c960006101000a81548173ffffffffffffffffffffffffffffffffffffffff021916908373ffffffffffffffffffffffffffffffffffffffff1602179055508160ca60006101000a81548173ffffffffffffffffffffffffffffffffffffffff021916908373ffffffffffffffffffffffffffffffffffffffff160217905550801561055c5760008060016101000a81548160ff0219169083151502179055507f7f26b83ff96e1f2b6a682f133852f6798a09c465da95921460cefb384740249860016040516105539190611915565b60405180910390a15b505050565b7f000000000000000000000000000000000000000000000000000000000000000073ffffffffffffffffffffffffffffffffffffffff163073ffffffffffffffffffffffffffffffffffffffff16036105ef576040517f08c379a00000000000000000000000000000000000000000000000000000000081526004016105e69061177f565b60405180910390fd5b7f000000000000000000000000000000000000000000000000000000000000000073ffffffffffffffffffffffffffffffffffffffff1661062e610b18565b73ffffffffffffffffffffffffffffffffffffffff1614610684576040517f08c379a000000000000000000000000000000000000000000000000000000000815260040161067b90611811565b60405180910390fd5b61068d82610b6f565b61069982826001610c8f565b5050565b60007f000000000000000000000000000000000000000000000000000000000000000073ffffffffffffffffffffffffffffffffffffffff163073ffffffffffffffffffffffffffffffffffffffff161461072d576040517f08c379a0000000000000000000000000000000000000000000000000000000008152600401610724906119a2565b60405180910390fd5b7f360894a13ba1a3210667c828492db98dca3e2076cc3735a920a3ca505d382bbc60001b905090565b61075e610e79565b6107686000610ef7565b565b6000609760009054906101000a900473ffffffffffffffffffffffffffffffffffffffff16905090565b61079c61076a565b73ffffffffffffffffffffffffffffffffffffffff163373ffffffffffffffffffffffffffffffffffffffff16148061080057503073ffffffffffffffffffffffffffffffffffffffff163373ffffffffffffffffffffffffffffffffffffffff16145b61080957600080fd5b6000604051610817906112c4565b604051809103906000f080158015610833573d6000803e3d6000fd5b5090508273ffffffffffffffffffffffffffffffffffffffff1663a9059cbb82846040518363ffffffff1660e01b81526004016108719291906119c2565b6020604051808303816000875af1158015610890573d6000803e3d6000fd5b505050506040513d601f19601f820116820180604052508101906108b49190611a23565b508073ffffffffffffffffffffffffffffffffffffffff16632b68b9c66040518163ffffffff1660e01b8152600401600060405180830381600087803b1580156108fd57600080fd5b505af1158015610911573d6000803e3d6000fd5b50505050505050565b61092261076a565b73ffffffffffffffffffffffffffffffffffffffff163373ffffffffffffffffffffffffffffffffffffffff161480610a00575069152d02c7e14af680000060ca60009054906101000a900473ffffffffffffffffffffffffffffffffffffffff1673ffffffffffffffffffffffffffffffffffffffff1663b4b5ea57336040518263ffffffff1660e01b81526004016109bc9190611594565b602060405180830381865afa1580156109d9573d6000803e3d6000fd5b505050506040513d601f19601f820116820180604052508101906109fd9190611a65565b10155b610a0957600080fd5b60003073ffffffffffffffffffffffffffffffffffffffff168383604051610a32929190611ac2565b6000604051808303816000865af19150503d8060008114610a6f576040519150601f19603f3d011682016040523d82523d6000602084013e610a74565b606091505b5050905080610a8257600080fd5b505050565b69152d02c7e14af680000081565b610a9d610e79565b600073ffffffffffffffffffffffffffffffffffffffff168173ffffffffffffffffffffffffffffffffffffffff1603610b0c576040517f08c379a0000000000000000000000000000000000000000000000000000000008152600401610b0390611b4d565b60405180910390fd5b610b1581610ef7565b50565b6000610b467f360894a13ba1a3210667c828492db98dca3e2076cc3735a920a3ca505d382bbc60001b610fbd565b60000160009054906101000a900473ffffffffffffffffffffffffffffffffffffffff16905090565b610b7761076a565b73ffffffffffffffffffffffffffffffffffffffff163373ffffffffffffffffffffffffffffffffffffffff161480610bdb57503073ffffffffffffffffffffffffffffffffffffffff163373ffffffffffffffffffffffffffffffffffffffff16145b610be457600080fd5b600060c960009054906101000a900473ffffffffffffffffffffffffffffffffffffffff1673ffffffffffffffffffffffffffffffffffffffff166370a08231306040518263ffffffff1660e01b8152600401610c419190611594565b602060405180830381865afa158015610c5e573d6000803e3d6000fd5b505050506040513d601f19601f82011682018060405250810190610c829190611a65565b14610c8c57600080fd5b50565b610cbb7f4910fdfa16fed3260ed0e7147f7cc6da11a60208b5b9406d12a635614ffd914360001b610fc7565b60000160009054906101000a900460ff1615610cdf57610cda83610fd1565b610df8565b8273ffffffffffffffffffffffffffffffffffffffff166352d1902d6040518163ffffffff1660e01b8152600401602060405180830381865afa925050508015610d4757506040513d601f19601f82011682018060405250810190610d449190611b99565b60015b610d86576040517f08c379a0000000000000000000000000000000000000000000000000000000008152600401610d7d90611c38565b60405180910390fd5b7f360894a13ba1a3210667c828492db98dca3e2076cc3735a920a3ca505d382bbc60001b8114610deb576040517f08c379a0000000000000000000000000000000000000000000000000000000008152600401610de290611cca565b60405180910390fd5b50610df783838361108a565b5b505050565b6000808273ffffffffffffffffffffffffffffffffffffffff163b119050919050565b600060019054906101000a900460ff16610e6f576040517f08c379a0000000000000000000000000000000000000000000000000000000008152600401610e6690611d5c565b60405180910390fd5b610e776110b6565b565b610e81611117565b73ffffffffffffffffffffffffffffffffffffffff16610e9f61076a565b73ffffffffffffffffffffffffffffffffffffffff1614610ef5576040517f08c379a0000000000000000000000000000000000000000000000000000000008152600401610eec90611dc8565b60405180910390fd5b565b6000609760009054906101000a900473ffffffffffffffffffffffffffffffffffffffff16905081609760006101000a81548173ffffffffffffffffffffffffffffffffffffffff021916908373ffffffffffffffffffffffffffffffffffffffff1602179055508173ffffffffffffffffffffffffffffffffffffffff168173ffffffffffffffffffffffffffffffffffffffff167f8be0079c531659141344cd1fd0a4f28419497f9722a3daafe3b4186f6b6457e060405160405180910390a35050565b6000819050919050565b6000819050919050565b610fda81610dfd565b611019576040517f08c379a000000000000000000000000000000000000000000000000000000000815260040161101090611e5a565b60405180910390fd5b806110467f360894a13ba1a3210667c828492db98dca3e2076cc3735a920a3ca505d382bbc60001b610fbd565b60000160006101000a81548173ffffffffffffffffffffffffffffffffffffffff021916908373ffffffffffffffffffffffffffffffffffffffff16021790555050565b6110938361111f565b6000825111806110a05750805b156110b1576110af838361116e565b505b505050565b600060019054906101000a900460ff16611105576040517f08c379a00000000000000000000000000000000000000000000000000000000081526004016110fc90611d5c565b60405180910390fd5b611115611110611117565b610ef7565b565b600033905090565b61112881610fd1565b8073ffffffffffffffffffffffffffffffffffffffff167fbc7cd75a20ee27fd9adebab32041f755214dbc6bffa90cc0225b39da2e5c2d3b60405160405180910390a250565b606061117983610dfd565b6111b8576040517f08c379a00000000000000000000000000000000000000000000000000000000081526004016111af90611eec565b60405180910390fd5b6000808473ffffffffffffffffffffffffffffffffffffffff16846040516111e09190611f7b565b600060405180830381855af49150503d806000811461121b576040519150601f19603f3d011682016040523d82523d6000602084013e611220565b606091505b5091509150611248828260405180606001604052806027815260200161209b60279139611252565b9250505092915050565b606083156112625782905061126d565b61126c8383611274565b5b9392505050565b6000825111156112875781518083602001fd5b806040517f08c379a00000000000000000000000000000000000000000000000000000000081526004016112bb9190611fd6565b60405180910390fd5b60a280611ff983390190565b6000604051905090565b600080fd5b600080fd5b600073ffffffffffffffffffffffffffffffffffffffff82169050919050565b600061130f826112e4565b9050919050565b61131f81611304565b811461132a57600080fd5b50565b60008135905061133c81611316565b92915050565b600060208284031215611358576113576112da565b5b60006113668482850161132d565b91505092915050565b60008060408385031215611386576113856112da565b5b60006113948582860161132d565b92505060206113a58582860161132d565b9150509250929050565b600080fd5b600080fd5b6000601f19601f8301169050919050565b7f4e487b7100000000000000000000000000000000000000000000000000000000600052604160045260246000fd5b611402826113b9565b810181811067ffffffffffffffff82111715611421576114206113ca565b5b80604052505050565b60006114346112d0565b905061144082826113f9565b919050565b600067ffffffffffffffff8211156114605761145f6113ca565b5b611469826113b9565b9050602081019050919050565b82818337600083830152505050565b600061149861149384611445565b61142a565b9050828152602081018484840111156114b4576114b36113b4565b5b6114bf848285611476565b509392505050565b600082601f8301126114dc576114db6113af565b5b81356114ec848260208601611485565b91505092915050565b6000806040838503121561150c5761150b6112da565b5b600061151a8582860161132d565b925050602083013567ffffffffffffffff81111561153b5761153a6112df565b5b611547858286016114c7565b9150509250929050565b6000819050919050565b61156481611551565b82525050565b600060208201905061157f600083018461155b565b92915050565b61158e81611304565b82525050565b60006020820190506115a96000830184611585565b92915050565b6000819050919050565b6115c2816115af565b81146115cd57600080fd5b50565b6000813590506115df816115b9565b92915050565b600080604083850312156115fc576115fb6112da565b5b600061160a8582860161132d565b925050602061161b858286016115d0565b9150509250929050565b600080fd5b600080fd5b60008083601f840112611645576116446113af565b5b8235905067ffffffffffffffff81111561166257611661611625565b5b60208301915083600182028301111561167e5761167d61162a565b5b9250929050565b6000806020838503121561169c5761169b6112da565b5b600083013567ffffffffffffffff8111156116ba576116b96112df565b5b6116c68582860161162f565b92509250509250929050565b6116db816115af565b82525050565b60006020820190506116f660008301846116d2565b92915050565b600082825260208201905092915050565b7f46756e6374696f6e206d7573742062652063616c6c6564207468726f7567682060008201527f64656c656761746563616c6c0000000000000000000000000000000000000000602082015250565b6000611769602c836116fc565b91506117748261170d565b604082019050919050565b600060208201905081810360008301526117988161175c565b9050919050565b7f46756e6374696f6e206d7573742062652063616c6c6564207468726f7567682060008201527f6163746976652070726f78790000000000000000000000000000000000000000602082015250565b60006117fb602c836116fc565b91506118068261179f565b604082019050919050565b6000602082019050818103600083015261182a816117ee565b9050919050565b7f496e697469616c697a61626c653a20636f6e747261637420697320616c72656160008201527f647920696e697469616c697a6564000000000000000000000000000000000000602082015250565b600061188d602e836116fc565b915061189882611831565b604082019050919050565b600060208201905081810360008301526118bc81611880565b9050919050565b6000819050919050565b600060ff82169050919050565b6000819050919050565b60006118ff6118fa6118f5846118c3565b6118da565b6118cd565b9050919050565b61190f816118e4565b82525050565b600060208201905061192a6000830184611906565b92915050565b7f555550535570677261646561626c653a206d757374206e6f742062652063616c60008201527f6c6564207468726f7567682064656c656761746563616c6c0000000000000000602082015250565b600061198c6038836116fc565b915061199782611930565b604082019050919050565b600060208201905081810360008301526119bb8161197f565b9050919050565b60006040820190506119d76000830185611585565b6119e460208301846116d2565b9392505050565b60008115159050919050565b611a00816119eb565b8114611a0b57600080fd5b50565b600081519050611a1d816119f7565b92915050565b600060208284031215611a3957611a386112da565b5b6000611a4784828501611a0e565b91505092915050565b600081519050611a5f816115b9565b92915050565b600060208284031215611a7b57611a7a6112da565b5b6000611a8984828501611a50565b91505092915050565b600081905092915050565b6000611aa98385611a92565b9350611ab6838584611476565b82840190509392505050565b6000611acf828486611a9d565b91508190509392505050565b7f4f776e61626c653a206e6577206f776e657220697320746865207a65726f206160008201527f6464726573730000000000000000000000000000000000000000000000000000602082015250565b6000611b376026836116fc565b9150611b4282611adb565b604082019050919050565b60006020820190508181036000830152611b6681611b2a565b9050919050565b611b7681611551565b8114611b8157600080fd5b50565b600081519050611b9381611b6d565b92915050565b600060208284031215611baf57611bae6112da565b5b6000611bbd84828501611b84565b91505092915050565b7f45524331393637557067726164653a206e657720696d706c656d656e7461746960008201527f6f6e206973206e6f742055555053000000000000000000000000000000000000602082015250565b6000611c22602e836116fc565b9150611c2d82611bc6565b604082019050919050565b60006020820190508181036000830152611c5181611c15565b9050919050565b7f45524331393637557067726164653a20756e737570706f727465642070726f7860008201527f6961626c65555549440000000000000000000000000000000000000000000000602082015250565b6000611cb46029836116fc565b9150611cbf82611c58565b604082019050919050565b60006020820190508181036000830152611ce381611ca7565b9050919050565b7f496e697469616c697a61626c653a20636f6e7472616374206973206e6f74206960008201527f6e697469616c697a696e67000000000000000000000000000000000000000000602082015250565b6000611d46602b836116fc565b9150611d5182611cea565b604082019050919050565b60006020820190508181036000830152611d7581611d39565b9050919050565b7f4f776e61626c653a2063616c6c6572206973206e6f7420746865206f776e6572600082015250565b6000611db26020836116fc565b9150611dbd82611d7c565b602082019050919050565b60006020820190508181036000830152611de181611da5565b9050919050565b7f455243313936373a206e657720696d706c656d656e746174696f6e206973206e60008201527f6f74206120636f6e747261637400000000000000000000000000000000000000602082015250565b6000611e44602d836116fc565b9150611e4f82611de8565b604082019050919050565b60006020820190508181036000830152611e7381611e37565b9050919050565b7f416464726573733a2064656c65676174652063616c6c20746f206e6f6e2d636f60008201527f6e74726163740000000000000000000000000000000000000000000000000000602082015250565b6000611ed66026836116fc565b9150611ee182611e7a565b604082019050919050565b60006020820190508181036000830152611f0581611ec9565b9050919050565b600081519050919050565b60005b83811015611f35578082015181840152602081019050611f1a565b83811115611f44576000848401525b50505050565b6000611f5582611f0c565b611f5f8185611a92565b9350611f6f818560208601611f17565b80840191505092915050565b6000611f878284611f4a565b915081905092915050565b600081519050919050565b6000611fa882611f92565b611fb281856116fc565b9350611fc2818560208601611f17565b611fcb816113b9565b840191505092915050565b60006020820190508181036000830152611ff08184611f9d565b90509291505056fe6080604052348015600f57600080fd5b5060848061001e6000396000f3fe6080604052348015600f57600080fd5b506004361060285760003560e01c80632b68b9c614602d575b600080fd5b60336035565b005b3073ffffffffffffffffffffffffffffffffffffffff16fffea2646970667358221220fb8a7ea08614dbf8a1abb680f2353ea0d49f536655464dec1e8d937341bbcb9764736f6c634300080d0033416464726573733a206c6f772d6c6576656c2064656c65676174652063616c6c206661696c6564a2646970667358221220c7f09ce19b72c3e59c60ef76921d6167b86ebcb3a731e5a26d2203fc329e607b64736f6c634300080d0033","linkReferences":{}},"methodIdentifiers":{"AUTHORITY_THRESHOLD()":"dbe0133f","burn(address,uint256)":"9dc29fac","governanceCall(bytes)":"b248a833","initialize(address,address)":"485cc955","owner()":"8da5cb5b","proxiableUUID()":"52d1902d","renounceOwnership()":"715018a6","transferOwnership(address)":"f2fde38b","upgradeTo(address)":"3659cfe6","upgradeToAndCall(address,bytes)":"4f1ef286"},"storageLayout":{"storage":[{"astId":1340,"contract":"src/Vault.sol:Vault","label":"_initialized","offset":0,"slot":"0","type":"t_uint8"},{"astId":1343,"contract":"src/Vault.sol:Vault","label":"_initializing","offset":1,"slot":"0","type":"t_bool"},{"astId":1322,"contract":"src/Vault.sol:Vault","label":"__gap","offset":0,"slot":"1","type":"t_array(t_uint256)50_storage"},{"astId":1637,"contract":"src/Vault.sol:Vault","label":"__gap","offset":0,"slot":"51","type":"t_array(t_uint256)50_storage"},{"astId":1963,"contract":"src/Vault.sol:Vault","label":"__gap","offset":0,"slot":"101","type":"t_array(t_uint256)50_storage"},{"astId":823,"contract":"src/Vault.sol:Vault","label":"_owner","offset":0,"slot":"151","type":"t_address"},{"astId":943,"contract":"src/Vault.sol:Vault","label":"__gap","offset":0,"slot":"152","type":"t_array(t_uint256)49_storage"},{"astId":662,"contract":"src/Vault.sol:Vault","label":"diamond","offset":0,"slot":"201","type":"t_contract(Diamond)42"},{"astId":665,"contract":"src/Vault.sol:Vault","label":"hexensCoin","offset":0,"slot":"202","type":"t_contract(HexensCoin)640"}],"types":{"t_address":{"encoding":"inplace","label":"address","numberOfBytes":"20"},"t_array(t_uint256)49_storage":{"encoding":"inplace","label":"uint256[49]","numberOfBytes":"1568","base":"t_uint256"},"t_array(t_uint256)50_storage":{"encoding":"inplace","label":"uint256[50]","numberOfBytes":"1600","base":"t_uint256"},"t_bool":{"encoding":"inplace","label":"bool","numberOfBytes":"1"},"t_contract(Diamond)42":{"encoding":"inplace","label":"contract Diamond","numberOfBytes":"20"},"t_contract(HexensCoin)640":{"encoding":"inplace","label":"contract HexensCoin","numberOfBytes":"20"},"t_uint256":{"encoding":"inplace","label":"uint256","numberOfBytes":"32"},"t_uint8":{"encoding":"inplace","label":"uint8","numberOfBytes":"1"}}},"id":3}