{"abi":[{"type":"function","name":"checkReturnValues","inputs":[{"name":"multicallToken","type":"address","internalType":"contract ERC20MulticallMock"},{"name":"recipients","type":"address[]","internalType":"address[]"},{"name":"amounts","type":"uint256[]","internalType":"uint256[]"}],"outputs":[],"stateMutability":"nonpayable"}],"bytecode":{"object":"0x608060405234801561001057600080fd5b506105d8806100206000396000f3fe608060405234801561001057600080fd5b506004361061002b5760003560e01c8063b568d01614610030575b600080fd5b61004361003e366004610295565b610045565b005b60008367ffffffffffffffff81111561006057610060610318565b60405190808252806020026020018201604052801561009357816020015b606081526020019060019003908161007e5790505b50905060005b8481101561015a578585828181106100b3576100b361032e565b90506020020160208101906100c89190610344565b8484838181106100da576100da61032e565b6040516001600160a01b039094166024850152602002919091013560448301525060640160408051601f198184030181529190526020810180516001600160e01b031663a9059cbb60e01b179052825183908390811061013c5761013c61032e565b6020026020010181905250808061015290610368565b915050610099565b50604051631592ca1b60e31b81526000906001600160a01b0388169063ac9650d89061018a9085906004016103bf565b6000604051808303816000875af11580156101a9573d6000803e3d6000fd5b505050506040513d6000823e601f3d908101601f191682016040526101d1919081019061046a565b905060005b8151811015610227578181815181106101f1576101f161032e565b602002602001015180602001905181019061020c9190610580565b61021557600080fd5b8061021f81610368565b9150506101d6565b5050505050505050565b6001600160a01b038116811461024657600080fd5b50565b60008083601f84011261025b57600080fd5b50813567ffffffffffffffff81111561027357600080fd5b6020830191508360208260051b850101111561028e57600080fd5b9250929050565b6000806000806000606086880312156102ad57600080fd5b85356102b881610231565b9450602086013567ffffffffffffffff808211156102d557600080fd5b6102e189838a01610249565b909650945060408801359150808211156102fa57600080fd5b5061030788828901610249565b969995985093965092949392505050565b634e487b7160e01b600052604160045260246000fd5b634e487b7160e01b600052603260045260246000fd5b60006020828403121561035657600080fd5b813561036181610231565b9392505050565b60006001820161038857634e487b7160e01b600052601160045260246000fd5b5060010190565b60005b838110156103aa578181015183820152602001610392565b838111156103b9576000848401525b50505050565b6000602080830181845280855180835260408601915060408160051b870101925083870160005b8281101561042c57878503603f190184528151805180875261040d818989018a850161038f565b601f01601f1916959095018601945092850192908501906001016103e6565b5092979650505050505050565b604051601f8201601f1916810167ffffffffffffffff8111828210171561046257610462610318565b604052919050565b6000602080838503121561047d57600080fd5b825167ffffffffffffffff8082111561049557600080fd5b8185019150601f86818401126104aa57600080fd5b8251828111156104bc576104bc610318565b8060051b6104cb868201610439565b918252848101860191868101908a8411156104e557600080fd5b87870192505b83831015610572578251868111156105035760008081fd5b8701603f81018c136105155760008081fd5b8881015160408882111561052b5761052b610318565b61053c828901601f19168c01610439565b8281528e828486010111156105515760008081fd5b610560838d830184870161038f565b855250505091870191908701906104eb565b9a9950505050505050505050565b60006020828403121561059257600080fd5b8151801515811461036157600080fdfea264697066735822122088ebed15c2245f30fc434671ebb88f4708b97ee650522d2fa1a94095831b834c64736f6c634300080d0033","linkReferences":{}},"methodIdentifiers":{"checkReturnValues(address,address[],uint256[])":"b568d016"},"id":110}