{"abi":[{"type":"constructor","inputs":[{"name":"_token","type":"address","internalType":"contract IVotes"},{"name":"_timelock","type":"address","internalType":"contract TimelockController"}],"stateMutability":"nonpayable"},{"type":"receive","stateMutability":"payable"},{"type":"function","name":"BALLOT_TYPEHASH","inputs":[],"outputs":[{"name":"","type":"bytes32","internalType":"bytes32"}],"stateMutability":"view"},{"type":"function","name":"CLOCK_MODE","inputs":[],"outputs":[{"name":"","type":"string","internalType":"string"}],"stateMutability":"view"},{"type":"function","name":"COUNTING_MODE","inputs":[],"outputs":[{"name":"","type":"string","internalType":"string"}],"stateMutability":"pure"},{"type":"function","name":"EXTENDED_BALLOT_TYPEHASH","inputs":[],"outputs":[{"name":"","type":"bytes32","internalType":"bytes32"}],"stateMutability":"view"},{"type":"function","name":"cancel","inputs":[{"name":"targets","type":"address[]","internalType":"address[]"},{"name":"values","type":"uint256[]","internalType":"uint256[]"},{"name":"calldatas","type":"bytes[]","internalType":"bytes[]"},{"name":"descriptionHash","type":"bytes32","internalType":"bytes32"}],"outputs":[{"name":"","type":"uint256","internalType":"uint256"}],"stateMutability":"nonpayable"},{"type":"function","name":"castVote","inputs":[{"name":"proposalId","type":"uint256","internalType":"uint256"},{"name":"support","type":"uint8","internalType":"uint8"}],"outputs":[{"name":"","type":"uint256","internalType":"uint256"}],"stateMutability":"nonpayable"},{"type":"function","name":"castVoteBySig","inputs":[{"name":"proposalId","type":"uint256","internalType":"uint256"},{"name":"support","type":"uint8","internalType":"uint8"},{"name":"v","type":"uint8","internalType":"uint8"},{"name":"r","type":"bytes32","internalType":"bytes32"},{"name":"s","type":"bytes32","internalType":"bytes32"}],"outputs":[{"name":"","type":"uint256","internalType":"uint256"}],"stateMutability":"nonpayable"},{"type":"function","name":"castVoteWithReason","inputs":[{"name":"proposalId","type":"uint256","internalType":"uint256"},{"name":"support","type":"uint8","internalType":"uint8"},{"name":"reason","type":"string","internalType":"string"}],"outputs":[{"name":"","type":"uint256","internalType":"uint256"}],"stateMutability":"nonpayable"},{"type":"function","name":"castVoteWithReasonAndParams","inputs":[{"name":"proposalId","type":"uint256","internalType":"uint256"},{"name":"support","type":"uint8","internalType":"uint8"},{"name":"reason","type":"string","internalType":"string"},{"name":"params","type":"bytes","internalType":"bytes"}],"outputs":[{"name":"","type":"uint256","internalType":"uint256"}],"stateMutability":"nonpayable"},{"type":"function","name":"castVoteWithReasonAndParamsBySig","inputs":[{"name":"proposalId","type":"uint256","internalType":"uint256"},{"name":"support","type":"uint8","internalType":"uint8"},{"name":"reason","type":"string","internalType":"string"},{"name":"params","type":"bytes","internalType":"bytes"},{"name":"v","type":"uint8","internalType":"uint8"},{"name":"r","type":"bytes32","internalType":"bytes32"},{"name":"s","type":"bytes32","internalType":"bytes32"}],"outputs":[{"name":"","type":"uint256","internalType":"uint256"}],"stateMutability":"nonpayable"},{"type":"function","name":"clock","inputs":[],"outputs":[{"name":"","type":"uint48","internalType":"uint48"}],"stateMutability":"view"},{"type":"function","name":"eip712Domain","inputs":[],"outputs":[{"name":"fields","type":"bytes1","internalType":"bytes1"},{"name":"name","type":"string","internalType":"string"},{"name":"version","type":"string","internalType":"string"},{"name":"chainId","type":"uint256","internalType":"uint256"},{"name":"verifyingContract","type":"address","internalType":"address"},{"name":"salt","type":"bytes32","internalType":"bytes32"},{"name":"extensions","type":"uint256[]","internalType":"uint256[]"}],"stateMutability":"view"},{"type":"function","name":"execute","inputs":[{"name":"targets","type":"address[]","internalType":"address[]"},{"name":"values","type":"uint256[]","internalType":"uint256[]"},{"name":"calldatas","type":"bytes[]","internalType":"bytes[]"},{"name":"descriptionHash","type":"bytes32","internalType":"bytes32"}],"outputs":[{"name":"","type":"uint256","internalType":"uint256"}],"stateMutability":"payable"},{"type":"function","name":"getVotes","inputs":[{"name":"account","type":"address","internalType":"address"},{"name":"timepoint","type":"uint256","internalType":"uint256"}],"outputs":[{"name":"","type":"uint256","internalType":"uint256"}],"stateMutability":"view"},{"type":"function","name":"getVotesWithParams","inputs":[{"name":"account","type":"address","internalType":"address"},{"name":"timepoint","type":"uint256","internalType":"uint256"},{"name":"params","type":"bytes","internalType":"bytes"}],"outputs":[{"name":"","type":"uint256","internalType":"uint256"}],"stateMutability":"view"},{"type":"function","name":"hasVoted","inputs":[{"name":"proposalId","type":"uint256","internalType":"uint256"},{"name":"account","type":"address","internalType":"address"}],"outputs":[{"name":"","type":"bool","internalType":"bool"}],"stateMutability":"view"},{"type":"function","name":"hashProposal","inputs":[{"name":"targets","type":"address[]","internalType":"address[]"},{"name":"values","type":"uint256[]","internalType":"uint256[]"},{"name":"calldatas","type":"bytes[]","internalType":"bytes[]"},{"name":"descriptionHash","type":"bytes32","internalType":"bytes32"}],"outputs":[{"name":"","type":"uint256","internalType":"uint256"}],"stateMutability":"pure"},{"type":"function","name":"name","inputs":[],"outputs":[{"name":"","type":"string","internalType":"string"}],"stateMutability":"view"},{"type":"function","name":"onERC1155BatchReceived","inputs":[{"name":"","type":"address","internalType":"address"},{"name":"","type":"address","internalType":"address"},{"name":"","type":"uint256[]","internalType":"uint256[]"},{"name":"","type":"uint256[]","internalType":"uint256[]"},{"name":"","type":"bytes","internalType":"bytes"}],"outputs":[{"name":"","type":"bytes4","internalType":"bytes4"}],"stateMutability":"nonpayable"},{"type":"function","name":"onERC1155Received","inputs":[{"name":"","type":"address","internalType":"address"},{"name":"","type":"address","internalType":"address"},{"name":"","type":"uint256","internalType":"uint256"},{"name":"","type":"uint256","internalType":"uint256"},{"name":"","type":"bytes","internalType":"bytes"}],"outputs":[{"name":"","type":"bytes4","internalType":"bytes4"}],"stateMutability":"nonpayable"},{"type":"function","name":"onERC721Received","inputs":[{"name":"","type":"address","internalType":"address"},{"name":"","type":"address","internalType":"address"},{"name":"","type":"uint256","internalType":"uint256"},{"name":"","type":"bytes","internalType":"bytes"}],"outputs":[{"name":"","type":"bytes4","internalType":"bytes4"}],"stateMutability":"nonpayable"},{"type":"function","name":"proposalDeadline","inputs":[{"name":"proposalId","type":"uint256","internalType":"uint256"}],"outputs":[{"name":"","type":"uint256","internalType":"uint256"}],"stateMutability":"view"},{"type":"function","name":"proposalEta","inputs":[{"name":"proposalId","type":"uint256","internalType":"uint256"}],"outputs":[{"name":"","type":"uint256","internalType":"uint256"}],"stateMutability":"view"},{"type":"function","name":"proposalProposer","inputs":[{"name":"proposalId","type":"uint256","internalType":"uint256"}],"outputs":[{"name":"","type":"address","internalType":"address"}],"stateMutability":"view"},{"type":"function","name":"proposalSnapshot","inputs":[{"name":"proposalId","type":"uint256","internalType":"uint256"}],"outputs":[{"name":"","type":"uint256","internalType":"uint256"}],"stateMutability":"view"},{"type":"function","name":"proposalThreshold","inputs":[],"outputs":[{"name":"","type":"uint256","internalType":"uint256"}],"stateMutability":"pure"},{"type":"function","name":"proposalVotes","inputs":[{"name":"proposalId","type":"uint256","internalType":"uint256"}],"outputs":[{"name":"againstVotes","type":"uint256","internalType":"uint256"},{"name":"forVotes","type":"uint256","internalType":"uint256"},{"name":"abstainVotes","type":"uint256","internalType":"uint256"}],"stateMutability":"view"},{"type":"function","name":"propose","inputs":[{"name":"targets","type":"address[]","internalType":"address[]"},{"name":"values","type":"uint256[]","internalType":"uint256[]"},{"name":"calldatas","type":"bytes[]","internalType":"bytes[]"},{"name":"description","type":"string","internalType":"string"}],"outputs":[{"name":"","type":"uint256","internalType":"uint256"}],"stateMutability":"nonpayable"},{"type":"function","name":"queue","inputs":[{"name":"targets","type":"address[]","internalType":"address[]"},{"name":"values","type":"uint256[]","internalType":"uint256[]"},{"name":"calldatas","type":"bytes[]","internalType":"bytes[]"},{"name":"descriptionHash","type":"bytes32","internalType":"bytes32"}],"outputs":[{"name":"","type":"uint256","internalType":"uint256"}],"stateMutability":"nonpayable"},{"type":"function","name":"quorum","inputs":[{"name":"blockNumber","type":"uint256","internalType":"uint256"}],"outputs":[{"name":"","type":"uint256","internalType":"uint256"}],"stateMutability":"view"},{"type":"function","name":"quorumDenominator","inputs":[],"outputs":[{"name":"","type":"uint256","internalType":"uint256"}],"stateMutability":"view"},{"type":"function","name":"quorumNumerator","inputs":[{"name":"timepoint","type":"uint256","internalType":"uint256"}],"outputs":[{"name":"","type":"uint256","internalType":"uint256"}],"stateMutability":"view"},{"type":"function","name":"quorumNumerator","inputs":[],"outputs":[{"name":"","type":"uint256","internalType":"uint256"}],"stateMutability":"view"},{"type":"function","name":"relay","inputs":[{"name":"target","type":"address","internalType":"address"},{"name":"value","type":"uint256","internalType":"uint256"},{"name":"data","type":"bytes","internalType":"bytes"}],"outputs":[],"stateMutability":"payable"},{"type":"function","name":"state","inputs":[{"name":"proposalId","type":"uint256","internalType":"uint256"}],"outputs":[{"name":"","type":"uint8","internalType":"enum IGovernor.ProposalState"}],"stateMutability":"view"},{"type":"function","name":"supportsInterface","inputs":[{"name":"interfaceId","type":"bytes4","internalType":"bytes4"}],"outputs":[{"name":"","type":"bool","internalType":"bool"}],"stateMutability":"view"},{"type":"function","name":"timelock","inputs":[],"outputs":[{"name":"","type":"address","internalType":"address"}],"stateMutability":"view"},{"type":"function","name":"token","inputs":[],"outputs":[{"name":"","type":"address","internalType":"contract IERC5805"}],"stateMutability":"view"},{"type":"function","name":"updateQuorumNumerator","inputs":[{"name":"newQuorumNumerator","type":"uint256","internalType":"uint256"}],"outputs":[],"stateMutability":"nonpayable"},{"type":"function","name":"updateTimelock","inputs":[{"name":"newTimelock","type":"address","internalType":"contract TimelockController"}],"outputs":[],"stateMutability":"nonpayable"},{"type":"function","name":"version","inputs":[],"outputs":[{"name":"","type":"string","internalType":"string"}],"stateMutability":"view"},{"type":"function","name":"votingDelay","inputs":[],"outputs":[{"name":"","type":"uint256","internalType":"uint256"}],"stateMutability":"pure"},{"type":"function","name":"votingPeriod","inputs":[],"outputs":[{"name":"","type":"uint256","internalType":"uint256"}],"stateMutability":"pure"},{"type":"event","name":"EIP712DomainChanged","inputs":[],"anonymous":false},{"type":"event","name":"ProposalCanceled","inputs":[{"name":"proposalId","type":"uint256","indexed":false,"internalType":"uint256"}],"anonymous":false},{"type":"event","name":"ProposalCreated","inputs":[{"name":"proposalId","type":"uint256","indexed":false,"internalType":"uint256"},{"name":"proposer","type":"address","indexed":false,"internalType":"address"},{"name":"targets","type":"address[]","indexed":false,"internalType":"address[]"},{"name":"values","type":"uint256[]","indexed":false,"internalType":"uint256[]"},{"name":"signatures","type":"string[]","indexed":false,"internalType":"string[]"},{"name":"calldatas","type":"bytes[]","indexed":false,"internalType":"bytes[]"},{"name":"voteStart","type":"uint256","indexed":false,"internalType":"uint256"},{"name":"voteEnd","type":"uint256","indexed":false,"internalType":"uint256"},{"name":"description","type":"string","indexed":false,"internalType":"string"}],"anonymous":false},{"type":"event","name":"ProposalExecuted","inputs":[{"name":"proposalId","type":"uint256","indexed":false,"internalType":"uint256"}],"anonymous":false},{"type":"event","name":"ProposalQueued","inputs":[{"name":"proposalId","type":"uint256","indexed":false,"internalType":"uint256"},{"name":"eta","type":"uint256","indexed":false,"internalType":"uint256"}],"anonymous":false},{"type":"event","name":"QuorumNumeratorUpdated","inputs":[{"name":"oldQuorumNumerator","type":"uint256","indexed":false,"internalType":"uint256"},{"name":"newQuorumNumerator","type":"uint256","indexed":false,"internalType":"uint256"}],"anonymous":false},{"type":"event","name":"TimelockChange","inputs":[{"name":"oldTimelock","type":"address","indexed":false,"internalType":"address"},{"name":"newTimelock","type":"address","indexed":false,"internalType":"address"}],"anonymous":false},{"type":"event","name":"VoteCast","inputs":[{"name":"voter","type":"address","indexed":true,"internalType":"address"},{"name":"proposalId","type":"uint256","indexed":false,"internalType":"uint256"},{"name":"support","type":"uint8","indexed":false,"internalType":"uint8"},{"name":"weight","type":"uint256","indexed":false,"internalType":"uint256"},{"name":"reason","type":"string","indexed":false,"internalType":"string"}],"anonymous":false},{"type":"event","name":"VoteCastWithParams","inputs":[{"name":"voter","type":"address","indexed":true,"internalType":"address"},{"name":"proposalId","type":"uint256","indexed":false,"internalType":"uint256"},{"name":"support","type":"uint8","indexed":false,"internalType":"uint8"},{"name":"weight","type":"uint256","indexed":false,"internalType":"uint256"},{"name":"reason","type":"string","indexed":false,"internalType":"string"},{"name":"params","type":"bytes","indexed":false,"internalType":"bytes"}],"anonymous":false},{"type":"error","name":"Empty","inputs":[]},{"type":"error","name":"InvalidShortString","inputs":[]},{"type":"error","name":"StringTooLong","inputs":[{"name":"str","type":"string","internalType":"string"}]}],"bytecode":{"object":"0x6101806040523480156200001257600080fd5b506040516200503238038062005032833981016040819052620000359162000923565b600482826040518060400160405280600a81526020016926bca3b7bb32b93737b960b11b815250806200006d6200018160201b60201c565b620000886000836200019c60201b620016741790919060201c565b61012052620000a58160016200019c602090811b6200167417901c565b61014052815160208084019190912060e052815190820120610100524660a0526200013360e05161010051604080517f8b73c3c69bb8fe3d512ecc4cf759cc79239f7b179b0ffacaa9a75d522b39400f60208201529081019290925260608201524660808201523060a082015260009060c00160405160208183030381529060405280519060200120905090565b60805250503060c0528051620001519060029060208401906200086e565b506200015f905081620001f0565b506001600160a01b031661016052620001788162000259565b50505062000a68565b6040805180820190915260018152603160f81b602082015290565b6000602083511015620001bc57620001b48362000412565b9050620001ea565b82620001d3836200045560201b620016ab1760201c565b8151620001e492602001906200086e565b5060ff90505b92915050565b600654604080516001600160a01b03928316815291831660208301527f08f74ea46ef7894f65eabfb5e6e695de773a000b47c529ab559178069b226401910160405180910390a1600680546001600160a01b0319166001600160a01b0392909216919091179055565b6064811115620002e25760405162461bcd60e51b815260206004820152604360248201527f476f7665726e6f72566f74657351756f72756d4672616374696f6e3a2071756f60448201527f72756d4e756d657261746f72206f7665722071756f72756d44656e6f6d696e616064820152623a37b960e91b608482015260a4015b60405180910390fd5b6000620002ee62000458565b90508015801590620003005750600954155b156200037b5760096000016040518060400160405280600063ffffffff16815260200162000339846200049260201b620016ae1760201c565b6001600160e01b0390811690915282546001810184556000938452602093849020835194909301519091166401000000000263ffffffff909316929092179101555b620003d3620003a66200038d62000501565b65ffffffffffff166200058360201b6200171b1760201c565b620003bc846200049260201b620016ae1760201c565b6009620005ea60201b62001780179092919060201c565b505060408051828152602081018490527f0553476bf02ef2726e8ce5ced78d63e26e602e4a2257b1f559418e24b4633997910160405180910390a15050565b600080829050601f8151111562000440578260405163305a27a960e01b8152600401620002d9919062000962565b80516200044d82620009ba565b179392505050565b90565b6009546000901562000489576200047b60096200060760201b6200179b1760201c565b6001600160e01b0316905090565b6008545b905090565b60006001600160e01b03821115620004fd5760405162461bcd60e51b815260206004820152602760248201527f53616665436173743a2076616c756520646f65736e27742066697420696e20326044820152663234206269747360c81b6064820152608401620002d9565b5090565b6000610160516001600160a01b03166391ddadf46040518163ffffffff1660e01b8152600401602060405180830381865afa92505050801562000563575060408051601f3d908101601f191682019092526200056091810190620009e2565b60015b6200057e576200048d436200065560201b620017d91760201c565b919050565b600063ffffffff821115620004fd5760405162461bcd60e51b815260206004820152602660248201527f53616665436173743a2076616c756520646f65736e27742066697420696e203360448201526532206269747360d01b6064820152608401620002d9565b600080620005fa858585620006be565b915091505b935093915050565b805460009080156200064b5762000633836200062560018462000a0c565b600091825260209091200190565b5464010000000090046001600160e01b03166200064e565b60005b9392505050565b600065ffffffffffff821115620004fd5760405162461bcd60e51b815260206004820152602660248201527f53616665436173743a2076616c756520646f65736e27742066697420696e203460448201526538206269747360d01b6064820152608401620002d9565b82546000908190801562000813576000620006e0876200062560018562000a0c565b60408051808201909152905463ffffffff8082168084526401000000009092046001600160e01b031660208401529192509087161015620007645760405162461bcd60e51b815260206004820152601b60248201527f436865636b706f696e743a2064656372656173696e67206b65797300000000006044820152606401620002d9565b805163ffffffff808816911603620007b2578462000789886200062560018662000a0c565b80546001600160e01b03929092166401000000000263ffffffff90921691909117905562000802565b6040805180820190915263ffffffff80881682526001600160e01b0380881660208085019182528b54600181018d5560008d81529190912094519151909216640100000000029216919091179101555b602001519250839150620005ff9050565b50506040805180820190915263ffffffff80851682526001600160e01b0380851660208085019182528854600181018a5560008a815291822095519251909316640100000000029190931617920191909155905081620005ff565b8280546200087c9062000a32565b90600052602060002090601f016020900481019282620008a05760008555620008eb565b82601f10620008bb57805160ff1916838001178555620008eb565b82800160010185558215620008eb579182015b82811115620008eb578251825591602001919060010190620008ce565b50620004fd9291505b80821115620004fd5760008155600101620008f4565b6001600160a01b03811681146200092057600080fd5b50565b600080604083850312156200093757600080fd5b825162000944816200090a565b602084015190925062000957816200090a565b809150509250929050565b600060208083528351808285015260005b81811015620009915785810183015185820160400152820162000973565b81811115620009a4576000604083870101525b50601f01601f1916929092016040019392505050565b80516020808301519190811015620009dc576000198160200360031b1b821691505b50919050565b600060208284031215620009f557600080fd5b815165ffffffffffff811681146200064e57600080fd5b60008282101562000a2d57634e487b7160e01b600052601160045260246000fd5b500390565b600181811c9082168062000a4757607f821691505b602082108103620009dc57634e487b7160e01b600052602260045260246000fd5b60805160a05160c05160e0516101005161012051610140516101605161454862000aea600039600081816109620152818161104b0152818161131801528181611fd501526120e7015260006112c40152600061129a015260006124c101526000612499015260006123f40152600061241e0152600061244801526145486000f3fe6080604052600436106102605760003560e01c806360c4247f11610144578063bc197c81116100b6578063dd4e2ba51161007a578063dd4e2ba51461086a578063deaaa7cc146108b0578063eb9019d4146108e4578063f23a6e6114610904578063f8ce560a14610930578063fc0c546a1461095057600080fd5b8063bc197c81146107b4578063c01f9e37146107e0578063c28bc2fa14610819578063c59057e41461082c578063d33219b41461084c57600080fd5b806397c3d3341161010857806397c3d3341461070f5780639a802a6d14610723578063a7713a7014610743578063a890c91014610758578063ab58fb8e14610778578063b58131b01461079857600080fd5b806360c4247f1461065b5780637b3c71d31461067b5780637d5e81e21461069b57806384b0196e146106bb57806391ddadf4146106e357600080fd5b80632fe3e261116101dd578063452115d6116101a1578063452115d6146105675780634bf5d7e914610587578063544ffc9c1461059c57806354fd4d50146105f1578063567813881461061b5780635f398a141461063b57600080fd5b80632fe3e261146104885780633932abb1146104bc5780633bccf4fd146104d05780633e4f49e6146104f0578063438596321461051d57600080fd5b8063143489d011610224578063143489d014610386578063150b7a02146103db578063160cbed71461041f5780632656227d1461043f5780632d63f6931461045257600080fd5b806301ffc9a7146102d057806302a251a314610305578063034201811461032457806306f3f9e61461034457806306fdde031461036457600080fd5b366102cb573061026e610984565b6001600160a01b0316146102c95760405162461bcd60e51b815260206004820152601f60248201527f476f7665726e6f723a206d7573742073656e6420746f206578656375746f720060448201526064015b60405180910390fd5b005b600080fd5b3480156102dc57600080fd5b506102f06102eb366004613579565b61099d565b60405190151581526020015b60405180910390f35b34801561031157600080fd5b5061b2fa5b6040519081526020016102fc565b34801561033057600080fd5b5061031661033f3660046136c7565b6109ae565b34801561035057600080fd5b506102c961035f36600461376d565b610aa6565b34801561037057600080fd5b50610379610b30565b6040516102fc91906137e2565b34801561039257600080fd5b506103c36103a136600461376d565b600090815260036020526040902054600160401b90046001600160a01b031690565b6040516001600160a01b0390911681526020016102fc565b3480156103e757600080fd5b506104066103f636600461380a565b630a85bd0160e11b949350505050565b6040516001600160e01b031990911681526020016102fc565b34801561042b57600080fd5b5061031661043a3660046139e1565b610bc2565b61031661044d3660046139e1565b610dc3565b34801561045e57600080fd5b5061031661046d36600461376d565b6000908152600360205260409020546001600160401b031690565b34801561049457600080fd5b506103167fb3b3f3b703cd84ce352197dcff232b1b5d3cfb2025ce47cf04742d0651f1af8881565b3480156104c857600080fd5b506001610316565b3480156104dc57600080fd5b506103166104eb366004613a70565b610eb5565b3480156104fc57600080fd5b5061051061050b36600461376d565b610f2b565b6040516102fc9190613ad4565b34801561052957600080fd5b506102f0610538366004613afc565b6000828152600a602090815260408083206001600160a01b038516845260030190915290205460ff1692915050565b34801561057357600080fd5b506103166105823660046139e1565b610f36565b34801561059357600080fd5b50610379611047565b3480156105a857600080fd5b506105d66105b736600461376d565b6000908152600a60205260409020805460018201546002909201549092565b604080519384526020840192909252908201526060016102fc565b3480156105fd57600080fd5b506040805180820190915260018152603160f81b6020820152610379565b34801561062757600080fd5b50610316610636366004613b2c565b611109565b34801561064757600080fd5b50610316610656366004613b58565b611132565b34801561066757600080fd5b5061031661067636600461376d565b61117c565b34801561068757600080fd5b50610316610696366004613bdb565b61122d565b3480156106a757600080fd5b506103166106b6366004613c34565b611275565b3480156106c757600080fd5b506106d061128c565b6040516102fc9796959493929190613d23565b3480156106ef57600080fd5b506106f8611314565b60405165ffffffffffff90911681526020016102fc565b34801561071b57600080fd5b506064610316565b34801561072f57600080fd5b5061031661073e366004613d85565b61139d565b34801561074f57600080fd5b506103166113b4565b34801561076457600080fd5b506102c9610773366004613ddd565b6113de565b34801561078457600080fd5b5061031661079336600461376d565b611465565b3480156107a457600080fd5b50683635c9adc5dea00000610316565b3480156107c057600080fd5b506104066107cf366004613dfa565b63bc197c8160e01b95945050505050565b3480156107ec57600080fd5b506103166107fb36600461376d565b6000908152600360205260409020600101546001600160401b031690565b6102c9610827366004613e8d565b6114ff565b34801561083857600080fd5b506103166108473660046139e1565b61160e565b34801561085857600080fd5b506006546001600160a01b03166103c3565b34801561087657600080fd5b506040805180820190915260208082527f737570706f72743d627261766f2671756f72756d3d666f722c6162737461696e90820152610379565b3480156108bc57600080fd5b506103167f150214d74d59b7d1e90c73fc22ef3d991dd0a76b046543d4d80ab92d2a50328f81565b3480156108f057600080fd5b506103166108ff366004613ed0565b611648565b34801561091057600080fd5b5061040661091f366004613efc565b63f23a6e6160e01b95945050505050565b34801561093c57600080fd5b5061031661094b36600461376d565b611669565b34801561095c57600080fd5b506103c37f000000000000000000000000000000000000000000000000000000000000000081565b60006109986006546001600160a01b031690565b905090565b60006109a882611840565b92915050565b600080610a52610a4a7fb3b3f3b703cd84ce352197dcff232b1b5d3cfb2025ce47cf04742d0651f1af888c8c8c8c6040516109ea929190613f64565b60405180910390208b80519060200120604051602001610a2f959493929190948552602085019390935260ff9190911660408401526060830152608082015260a00190565b60405160208183030381529060405280519060200120611865565b868686611892565b9050610a988a828b8b8b8080601f0160208091040260200160405190810160405280939291908181526020018383808284376000920191909152508d92506118b0915050565b9a9950505050505050505050565b610aae610984565b6001600160a01b0316336001600160a01b031614610ade5760405162461bcd60e51b81526004016102c090613f74565b30610ae7610984565b6001600160a01b031614610b245760008036604051610b07929190613f64565b604051809103902090505b80610b1d6004611a05565b03610b1257505b610b2d81611a84565b50565b606060028054610b3f90613fab565b80601f0160208091040260200160405190810160405280929190818152602001828054610b6b90613fab565b8015610bb85780601f10610b8d57610100808354040283529160200191610bb8565b820191906000526020600020905b815481529060010190602001808311610b9b57829003601f168201915b5050505050905090565b600080610bd18686868661160e565b90506004610bde82610f2b565b6007811115610bef57610bef613abe565b14610c0c5760405162461bcd60e51b81526004016102c090613fe5565b6006546040805163793d064960e11b815290516000926001600160a01b03169163f27a0c929160048083019260209291908290030181865afa158015610c56573d6000803e3d6000fd5b505050506040513d601f19601f82011682018060405250810190610c7a9190614026565b60065460405163b1c5f42760e01b81529192506001600160a01b03169063b1c5f42790610cb4908a908a908a906000908b906004016140cd565b602060405180830381865afa158015610cd1573d6000803e3d6000fd5b505050506040513d601f19601f82011682018060405250810190610cf59190614026565b6000838152600760205260408082209290925560065491516308f2a0bb60e41b81526001600160a01b0390921691638f2a0bb091610d40918b918b918b91908b90899060040161411b565b600060405180830381600087803b158015610d5a57600080fd5b505af1158015610d6e573d6000803e3d6000fd5b505050507f9a2e42fd6722813d69113e7d0079d3d940171428df7373df9c7f7617cfda2892828242610da09190614189565b604080519283526020830191909152015b60405180910390a15095945050505050565b600080610dd28686868661160e565b90506000610ddf82610f2b565b90506004816007811115610df557610df5613abe565b1480610e1257506005816007811115610e1057610e10613abe565b145b610e2e5760405162461bcd60e51b81526004016102c090613fe5565b60008281526003602052604090819020600201805460ff19166001179055517f712ae1383f79ac853f8d882153778e0260ef8f03b504e2866e0593e04d2b291f90610e7c9084815260200190565b60405180910390a1610e918288888888611bf2565b610e9e8288888888611c94565b610eab8288888888611ca1565b5095945050505050565b604080517f150214d74d59b7d1e90c73fc22ef3d991dd0a76b046543d4d80ab92d2a50328f602082015290810186905260ff851660608201526000908190610f0390610a4a90608001610a2f565b9050610f2087828860405180602001604052806000815250611cda565b979650505050505050565b60006109a882611cfd565b600080610f458686868661160e565b90506000610f5282610f2b565b6007811115610f6357610f63613abe565b14610fb05760405162461bcd60e51b815260206004820152601c60248201527f476f7665726e6f723a20746f6f206c61746520746f2063616e63656c0000000060448201526064016102c0565b600081815260036020526040902054600160401b90046001600160a01b0316336001600160a01b0316146110315760405162461bcd60e51b815260206004820152602260248201527f476f7665726e6f723a206f6e6c792070726f706f7365722063616e2063616e63604482015261195b60f21b60648201526084016102c0565b61103d86868686611e47565b9695505050505050565b60607f00000000000000000000000000000000000000000000000000000000000000006001600160a01b0316634bf5d7e96040518163ffffffff1660e01b8152600401600060405180830381865afa9250505080156110c857506040513d6000823e601f3d908101601f191682016040526110c591908101906141a1565b60015b611104575060408051808201909152601d81527f6d6f64653d626c6f636b6e756d6265722666726f6d3d64656661756c74000000602082015290565b919050565b60008033905061112a84828560405180602001604052806000815250611cda565b949350505050565b600080339050610f2087828888888080601f0160208091040260200160405190810160405280939291908181526020018383808284376000920191909152508a92506118b0915050565b600954600090808203611193575050600854919050565b600060096111a260018461420e565b815481106111b2576111b2614225565b60009182526020918290206040805180820190915291015463ffffffff8116808352600160201b9091046001600160e01b0316928201929092529150841061120857602001516001600160e01b03169392505050565b61121c6112148561171b565b600990611e55565b6001600160e01b0316949350505050565b60008033905061103d86828787878080601f016020809104026020016040519081016040528093929190818152602001838380828437600092019190915250611cda92505050565b600061128385858585611efa565b95945050505050565b6000606080828080836112bf7f000000000000000000000000000000000000000000000000000000000000000083611f08565b6112ea7f00000000000000000000000000000000000000000000000000000000000000006001611f08565b60408051600080825260208201909252600f60f81b9b939a50919850469750309650945092509050565b60007f00000000000000000000000000000000000000000000000000000000000000006001600160a01b03166391ddadf46040518163ffffffff1660e01b8152600401602060405180830381865afa925050508015611390575060408051601f3d908101601f1916820190925261138d9181019061423b565b60015b61110457610998436117d9565b60006113aa848484611fac565b90505b9392505050565b600954600090156113d7576113c9600961179b565b6001600160e01b0316905090565b5060085490565b6113e6610984565b6001600160a01b0316336001600160a01b0316146114165760405162461bcd60e51b81526004016102c090613f74565b3061141f610984565b6001600160a01b03161461145c576000803660405161143f929190613f64565b604051809103902090505b806114556004611a05565b0361144a57505b610b2d81612042565b60065460008281526007602052604080822054905163d45c443560e01b81526004810191909152909182916001600160a01b039091169063d45c443590602401602060405180830381865afa1580156114c2573d6000803e3d6000fd5b505050506040513d601f19601f820116820180604052508101906114e69190614026565b9050806001146114f657806113ad565b60009392505050565b611507610984565b6001600160a01b0316336001600160a01b0316146115375760405162461bcd60e51b81526004016102c090613f74565b30611540610984565b6001600160a01b03161461157d5760008036604051611560929190613f64565b604051809103902090505b806115766004611a05565b0361156b57505b600080856001600160a01b031685858560405161159b929190613f64565b60006040518083038185875af1925050503d80600081146115d8576040519150601f19603f3d011682016040523d82523d6000602084013e6115dd565b606091505b509150915061160582826040518060600160405280602881526020016144eb602891396120ab565b50505050505050565b6000848484846040516020016116279493929190614263565b60408051601f19818403018152919052805160209091012095945050505050565b60006113ad838361166460408051602081019091526000815290565b611fac565b60006109a8826120c4565b6000602083511015611690576116898361216e565b90506109a8565b828281516116a192602001906134e9565b5060ff90506109a8565b90565b60006001600160e01b038211156117175760405162461bcd60e51b815260206004820152602760248201527f53616665436173743a2076616c756520646f65736e27742066697420696e20326044820152663234206269747360c81b60648201526084016102c0565b5090565b600063ffffffff8211156117175760405162461bcd60e51b815260206004820152602660248201527f53616665436173743a2076616c756520646f65736e27742066697420696e203360448201526532206269747360d01b60648201526084016102c0565b60008061178e8585856121ac565b915091505b935093915050565b805460009080156114f6576117c3836117b560018461420e565b600091825260209091200190565b54600160201b90046001600160e01b03166113ad565b600065ffffffffffff8211156117175760405162461bcd60e51b815260206004820152602660248201527f53616665436173743a2076616c756520646f65736e27742066697420696e203460448201526538206269747360d01b60648201526084016102c0565b60006001600160e01b03198216636e665ced60e01b14806109a857506109a88261234b565b60006109a86118726123e7565b8360405161190160f01b8152600281019290925260228201526042902090565b60008060006118a387878787612512565b91509150610eab816125d6565b600085815260036020526040812060016118c988610f2b565b60078111156118da576118da613abe565b146119335760405162461bcd60e51b815260206004820152602360248201527f476f7665726e6f723a20766f7465206e6f742063757272656e746c792061637460448201526269766560e81b60648201526084016102c0565b805460009061194d9088906001600160401b031686611fac565b905061195c8888888488612720565b83516000036119b157866001600160a01b03167fb8e138887d0aa13bab447e82de9d5c1777041ecd21ca36ba824ff1e6c07ddda4898884896040516119a494939291906142ae565b60405180910390a2610f20565b866001600160a01b03167fe2babfbac5889a709b63bb7f598b324e08bc5a4fb9ec647fb3cbc9ec07eb871289888489896040516119f29594939291906142d6565b60405180910390a2979650505050505050565b6000611a208254600f81810b600160801b909204900b131590565b15611a3e57604051631ed9509560e11b815260040160405180910390fd5b508054600f0b6000818152600180840160205260408220805492905583546fffffffffffffffffffffffffffffffff191692016001600160801b03169190911790915590565b6064811115611b075760405162461bcd60e51b815260206004820152604360248201527f476f7665726e6f72566f74657351756f72756d4672616374696f6e3a2071756f60448201527f72756d4e756d657261746f72206f7665722071756f72756d44656e6f6d696e616064820152623a37b960e91b608482015260a4016102c0565b6000611b116113b4565b90508015801590611b225750600954155b15611b8657604080518082019091526000815260099060208101611b45846116ae565b6001600160e01b039081169091528254600181018455600093845260209384902083519490930151909116600160201b0263ffffffff909316929092179101555b611bb3611ba1611b94611314565b65ffffffffffff1661171b565b611baa846116ae565b60099190611780565b505060408051828152602081018490527f0553476bf02ef2726e8ce5ced78d63e26e602e4a2257b1f559418e24b4633997910160405180910390a15050565b30611bfb610984565b6001600160a01b031614611c8d5760005b8451811015611c8b57306001600160a01b0316858281518110611c3157611c31614225565b60200260200101516001600160a01b031603611c7b57611c7b838281518110611c5c57611c5c614225565b602002602001015180519060200120600461289a90919063ffffffff16565b611c848161431c565b9050611c0c565b505b5050505050565b611c8d85858585856128d6565b30611caa610984565b6001600160a01b031614611c8d57600454600f81810b600160801b909204900b1315611c8d576000600455611c8d565b600061128385858585611cf860408051602081019091526000815290565b6118b0565b600080611d098361294a565b90506004816007811115611d1f57611d1f613abe565b14611d2a5792915050565b60008381526007602052604090205480611d45575092915050565b600654604051632ab0f52960e01b8152600481018390526001600160a01b0390911690632ab0f52990602401602060405180830381865afa158015611d8e573d6000803e3d6000fd5b505050506040513d601f19601f82011682018060405250810190611db29190614335565b15611dc1575060079392505050565b600654604051632c258a9f60e11b8152600481018390526001600160a01b039091169063584b153e90602401602060405180830381865afa158015611e0a573d6000803e3d6000fd5b505050506040513d601f19601f82011682018060405250810190611e2e9190614335565b15611e3d575060059392505050565b5060029392505050565b600061128385858585612a8a565b815460009081816005811115611eb2576000611e7084612b3c565b611e7a908561420e565b60008881526020902090915081015463ffffffff9081169087161015611ea257809150611eb0565b611ead816001614189565b92505b505b6000611ec087878585612c24565b90508015611eed57611ed7876117b560018461420e565b54600160201b90046001600160e01b0316610f20565b6000979650505050505050565b600061128385858585612c82565b606060ff8314611f1b5761168983613050565b818054611f2790613fab565b80601f0160208091040260200160405190810160405280929190818152602001828054611f5390613fab565b8015611fa05780601f10611f7557610100808354040283529160200191611fa0565b820191906000526020600020905b815481529060010190602001808311611f8357829003601f168201915b505050505090506109a8565b604051630748d63560e31b81526001600160a01b038481166004830152602482018490526000917f000000000000000000000000000000000000000000000000000000000000000090911690633a46b1a890604401602060405180830381865afa15801561201e573d6000803e3d6000fd5b505050506040513d601f19601f820116820180604052508101906113aa9190614026565b600654604080516001600160a01b03928316815291831660208301527f08f74ea46ef7894f65eabfb5e6e695de773a000b47c529ab559178069b226401910160405180910390a1600680546001600160a01b0319166001600160a01b0392909216919091179055565b606083156120ba5750816113ad565b6113ad838361308f565b600060646120d18361117c565b604051632394e7a360e21b8152600481018590527f00000000000000000000000000000000000000000000000000000000000000006001600160a01b031690638e539e8c90602401602060405180830381865afa158015612136573d6000803e3d6000fd5b505050506040513d601f19601f8201168201806040525081019061215a9190614026565b6121649190614357565b6109a8919061438c565b600080829050601f81511115612199578260405163305a27a960e01b81526004016102c091906137e2565b80516121a4826143ae565b179392505050565b8254600090819080156122f25760006121ca876117b560018561420e565b60408051808201909152905463ffffffff808216808452600160201b9092046001600160e01b03166020840152919250908716101561224b5760405162461bcd60e51b815260206004820152601b60248201527f436865636b706f696e743a2064656372656173696e67206b657973000000000060448201526064016102c0565b805163ffffffff808816911603612293578461226c886117b560018661420e565b80546001600160e01b0392909216600160201b0263ffffffff9092169190911790556122e2565b6040805180820190915263ffffffff80881682526001600160e01b0380881660208085019182528b54600181018d5560008d81529190912094519151909216600160201b029216919091179101555b6020015192508391506117939050565b50506040805180820190915263ffffffff80851682526001600160e01b0380851660208085019182528854600181018a5560008a815291822095519251909316600160201b029190931617920191909155905081611793565b600063288ace0360e11b6318df743f60e31b63bf26d89760e01b6379dd796f60e01b6001600160e01b0319861682148061239157506001600160e01b0319868116908216145b806123a857506001600160e01b0319868116908516145b806123c357506001600160e01b03198616630271189760e51b145b8061103d57506301ffc9a760e01b6001600160e01b03198716149695505050505050565b6000306001600160a01b037f00000000000000000000000000000000000000000000000000000000000000001614801561244057507f000000000000000000000000000000000000000000000000000000000000000046145b1561246a57507f000000000000000000000000000000000000000000000000000000000000000090565b610998604080517f8b73c3c69bb8fe3d512ecc4cf759cc79239f7b179b0ffacaa9a75d522b39400f60208201527f0000000000000000000000000000000000000000000000000000000000000000918101919091527f000000000000000000000000000000000000000000000000000000000000000060608201524660808201523060a082015260009060c00160405160208183030381529060405280519060200120905090565b6000807f7fffffffffffffffffffffffffffffff5d576e7357a4501ddfe92f46681b20a083111561254957506000905060036125cd565b6040805160008082526020820180845289905260ff881692820192909252606081018690526080810185905260019060a0016020604051602081039080840390855afa15801561259d573d6000803e3d6000fd5b5050604051601f1901519150506001600160a01b0381166125c6576000600192509250506125cd565b9150600090505b94509492505050565b60008160048111156125ea576125ea613abe565b036125f25750565b600181600481111561260657612606613abe565b036126535760405162461bcd60e51b815260206004820152601860248201527f45434453413a20696e76616c6964207369676e6174757265000000000000000060448201526064016102c0565b600281600481111561266757612667613abe565b036126b45760405162461bcd60e51b815260206004820152601f60248201527f45434453413a20696e76616c6964207369676e6174757265206c656e6774680060448201526064016102c0565b60038160048111156126c8576126c8613abe565b03610b2d5760405162461bcd60e51b815260206004820152602260248201527f45434453413a20696e76616c6964207369676e6174757265202773272076616c604482015261756560f01b60648201526084016102c0565b6000858152600a602090815260408083206001600160a01b0388168452600381019092529091205460ff16156127a85760405162461bcd60e51b815260206004820152602760248201527f476f7665726e6f72566f74696e6753696d706c653a20766f746520616c726561604482015266191e4818d85cdd60ca1b60648201526084016102c0565b6001600160a01b03851660009081526003820160205260409020805460ff1916600117905560ff84166127f457828160000160008282546127e99190614189565b90915550611c8b9050565b60001960ff85160161281457828160010160008282546127e99190614189565b60011960ff85160161283457828160020160008282546127e99190614189565b60405162461bcd60e51b815260206004820152603560248201527f476f7665726e6f72566f74696e6753696d706c653a20696e76616c69642076616044820152746c756520666f7220656e756d20566f74655479706560581b60648201526084016102c0565b8154600160801b90819004600f0b6000818152600180860160205260409091209390935583546001600160801b03908116939091011602179055565b60065460405163e38335e560e01b81526001600160a01b039091169063e38335e59034906129119088908890889060009089906004016140cd565b6000604051808303818588803b15801561292a57600080fd5b505af115801561293e573d6000803e3d6000fd5b50505050505050505050565b6000818152600360205260408120600281015460ff161561296e5750600792915050565b6002810154610100900460ff16156129895750600292915050565b6000838152600360205260408120546001600160401b0316908190036129f15760405162461bcd60e51b815260206004820152601d60248201527f476f7665726e6f723a20756e6b6e6f776e2070726f706f73616c20696400000060448201526064016102c0565b60006129fb611314565b65ffffffffffff169050808210612a1757506000949350505050565b6000858152600360205260409020600101546001600160401b0316818110612a455750600195945050505050565b612a4e866130b9565b8015612a6d57506000868152600a602052604090208054600190910154115b15612a7e5750600495945050505050565b50600395945050505050565b600080612a9986868686613105565b60008181526007602052604090205490915015611283576006546000828152600760205260409081902054905163c4d252f560e01b81526001600160a01b039092169163c4d252f591612af29160040190815260200190565b600060405180830381600087803b158015612b0c57600080fd5b505af1158015612b20573d6000803e3d6000fd5b5050506000828152600760205260408120555095945050505050565b600081600003612b4e57506000919050565b60006001612b5b84613211565b901c6001901b90506001818481612b7457612b74614376565b048201901c90506001818481612b8c57612b8c614376565b048201901c90506001818481612ba457612ba4614376565b048201901c90506001818481612bbc57612bbc614376565b048201901c90506001818481612bd457612bd4614376565b048201901c90506001818481612bec57612bec614376565b048201901c90506001818481612c0457612c04614376565b048201901c90506113ad81828581612c1e57612c1e614376565b046132a5565b60005b81831015612c7a576000612c3b84846132bb565b60008781526020902090915063ffffffff86169082015463ffffffff161115612c6657809250612c74565b612c71816001614189565b93505b50612c27565b509392505050565b600033612c8f81846132d6565b612cdb5760405162461bcd60e51b815260206004820152601d60248201527f476f7665726e6f723a2070726f706f736572207265737472696374656400000060448201526064016102c0565b6000612ce5611314565b65ffffffffffff169050683635c9adc5dea00000612d08836108ff60018561420e565b1015612d705760405162461bcd60e51b815260206004820152603160248201527f476f7665726e6f723a2070726f706f73657220766f7465732062656c6f7720706044820152701c9bdc1bdcd85b081d1a1c995cda1bdb19607a1b60648201526084016102c0565b6000612d85888888888051906020012061160e565b90508651885114612da85760405162461bcd60e51b81526004016102c0906143d2565b8551885114612dc95760405162461bcd60e51b81526004016102c0906143d2565b6000885111612e1a5760405162461bcd60e51b815260206004820152601860248201527f476f7665726e6f723a20656d7074792070726f706f73616c000000000000000060448201526064016102c0565b6000818152600360205260409020546001600160401b031615612e895760405162461bcd60e51b815260206004820152602160248201527f476f7665726e6f723a2070726f706f73616c20616c72656164792065786973746044820152607360f81b60648201526084016102c0565b6000612e96600184614189565b90506000612ea661b2fa83614189565b90506040518060e00160405280612ebc846133c7565b6001600160401b031681526001600160a01b038716602082015260006040820152606001612ee9836133c7565b6001600160401b039081168252600060208084018290526040808501839052606094850183905288835260038252918290208551815492870151878501519186166001600160e01b031990941693909317600160401b6001600160a01b039094168402176001600160e01b0316600160e01b60e09290921c91909102178155938501516080860151908416921c0217600183015560a08301516002909201805460c09094015161ffff1990941692151561ff00191692909217610100931515939093029290921790558a517f7d84a6263ae0d98d3329bd7b46bb4e8d6f98cd35a7adb45c274c8b7fd5ebd5e091859188918e918e91811115612fed57612fed6135fc565b60405190808252806020026020018201604052801561302057816020015b606081526020019060019003908161300b5790505b508d88888f60405161303a99989796959493929190614413565b60405180910390a1509098975050505050505050565b6060600061305d8361342f565b604080516020808252818301909252919250600091906020820181803683375050509182525060208101929092525090565b81511561309f5781518083602001fd5b8060405162461bcd60e51b81526004016102c091906137e2565b6000818152600a60205260408120600281015460018201546130db9190614189565b6000848152600360205260409020546130fc906001600160401b0316611669565b11159392505050565b6000806131148686868661160e565b9050600061312182610f2b565b9050600281600781111561313757613137613abe565b141580156131575750600681600781111561315457613154613abe565b14155b80156131755750600781600781111561317257613172613abe565b14155b6131c15760405162461bcd60e51b815260206004820152601d60248201527f476f7665726e6f723a2070726f706f73616c206e6f742061637469766500000060448201526064016102c0565b60008281526003602052604090819020600201805461ff001916610100179055517f789cf55be980739dad1d0699b93b58e806b51c9d96619bfa8fe0a28abaa7b30c90610db19084815260200190565b600080608083901c1561322657608092831c92015b604083901c1561323857604092831c92015b602083901c1561324a57602092831c92015b601083901c1561325c57601092831c92015b600883901c1561326e57600892831c92015b600483901c1561328057600492831c92015b600283901c1561329257600292831c92015b600183901c156109a85760010192915050565b60008183106132b457816113ad565b5090919050565b60006132ca600284841861438c565b6113ad90848416614189565b805160009060348110156132ee5760019150506109a8565b82810160131901516001600160a01b031981166b046e0e4dee0dee6cae47a60f60a31b14613321576001925050506109a8565b60008061332f60288561420e565b90505b838110156133a65760008061336688848151811061335257613352614225565b01602001516001600160f81b031916613457565b915091508161337e57600196505050505050506109a8565b8060ff166004856001600160a01b0316901b17935050508061339f9061431c565b9050613332565b50856001600160a01b0316816001600160a01b031614935050505092915050565b60006001600160401b038211156117175760405162461bcd60e51b815260206004820152602660248201527f53616665436173743a2076616c756520646f65736e27742066697420696e203660448201526534206269747360d01b60648201526084016102c0565b600060ff8216601f8111156109a857604051632cd44ac360e21b815260040160405180910390fd5b60008060f883901c602f811180156134725750603a8160ff16105b1561348757600194602f199091019350915050565b8060ff16604010801561349d575060478160ff16105b156134b2576001946036199091019350915050565b8060ff1660601080156134c8575060678160ff16105b156134dd576001946056199091019350915050565b50600093849350915050565b8280546134f590613fab565b90600052602060002090601f016020900481019282613517576000855561355d565b82601f1061353057805160ff191683800117855561355d565b8280016001018555821561355d579182015b8281111561355d578251825591602001919060010190613542565b506117179291505b808211156117175760008155600101613565565b60006020828403121561358b57600080fd5b81356001600160e01b0319811681146113ad57600080fd5b803560ff8116811461110457600080fd5b60008083601f8401126135c657600080fd5b5081356001600160401b038111156135dd57600080fd5b6020830191508360208285010111156135f557600080fd5b9250929050565b634e487b7160e01b600052604160045260246000fd5b604051601f8201601f191681016001600160401b038111828210171561363a5761363a6135fc565b604052919050565b60006001600160401b0382111561365b5761365b6135fc565b50601f01601f191660200190565b600061367c61367784613642565b613612565b905082815283838301111561369057600080fd5b828260208301376000602084830101529392505050565b600082601f8301126136b857600080fd5b6113ad83833560208501613669565b60008060008060008060008060e0898b0312156136e357600080fd5b883597506136f360208a016135a3565b965060408901356001600160401b038082111561370f57600080fd5b61371b8c838d016135b4565b909850965060608b013591508082111561373457600080fd5b506137418b828c016136a7565b94505061375060808a016135a3565b925060a0890135915060c089013590509295985092959890939650565b60006020828403121561377f57600080fd5b5035919050565b60005b838110156137a1578181015183820152602001613789565b838111156137b0576000848401525b50505050565b600081518084526137ce816020860160208601613786565b601f01601f19169290920160200192915050565b6020815260006113ad60208301846137b6565b6001600160a01b0381168114610b2d57600080fd5b6000806000806080858703121561382057600080fd5b843561382b816137f5565b9350602085013561383b816137f5565b92506040850135915060608501356001600160401b0381111561385d57600080fd5b613869878288016136a7565b91505092959194509250565b60006001600160401b0382111561388e5761388e6135fc565b5060051b60200190565b600082601f8301126138a957600080fd5b813560206138b961367783613875565b82815260059290921b840181019181810190868411156138d857600080fd5b8286015b848110156138fc5780356138ef816137f5565b83529183019183016138dc565b509695505050505050565b600082601f83011261391857600080fd5b8135602061392861367783613875565b82815260059290921b8401810191818101908684111561394757600080fd5b8286015b848110156138fc578035835291830191830161394b565b600082601f83011261397357600080fd5b8135602061398361367783613875565b82815260059290921b840181019181810190868411156139a257600080fd5b8286015b848110156138fc5780356001600160401b038111156139c55760008081fd5b6139d38986838b01016136a7565b8452509183019183016139a6565b600080600080608085870312156139f757600080fd5b84356001600160401b0380821115613a0e57600080fd5b613a1a88838901613898565b95506020870135915080821115613a3057600080fd5b613a3c88838901613907565b94506040870135915080821115613a5257600080fd5b50613a5f87828801613962565b949793965093946060013593505050565b600080600080600060a08688031215613a8857600080fd5b85359450613a98602087016135a3565b9350613aa6604087016135a3565b94979396509394606081013594506080013592915050565b634e487b7160e01b600052602160045260246000fd5b6020810160088310613af657634e487b7160e01b600052602160045260246000fd5b91905290565b60008060408385031215613b0f57600080fd5b823591506020830135613b21816137f5565b809150509250929050565b60008060408385031215613b3f57600080fd5b82359150613b4f602084016135a3565b90509250929050565b600080600080600060808688031215613b7057600080fd5b85359450613b80602087016135a3565b935060408601356001600160401b0380821115613b9c57600080fd5b613ba889838a016135b4565b90955093506060880135915080821115613bc157600080fd5b50613bce888289016136a7565b9150509295509295909350565b60008060008060608587031215613bf157600080fd5b84359350613c01602086016135a3565b925060408501356001600160401b03811115613c1c57600080fd5b613c28878288016135b4565b95989497509550505050565b60008060008060808587031215613c4a57600080fd5b84356001600160401b0380821115613c6157600080fd5b613c6d88838901613898565b95506020870135915080821115613c8357600080fd5b613c8f88838901613907565b94506040870135915080821115613ca557600080fd5b613cb188838901613962565b93506060870135915080821115613cc757600080fd5b508501601f81018713613cd957600080fd5b61386987823560208401613669565b600081518084526020808501945080840160005b83811015613d1857815187529582019590820190600101613cfc565b509495945050505050565b60ff60f81b8816815260e060208201526000613d4260e08301896137b6565b8281036040840152613d5481896137b6565b606084018890526001600160a01b038716608085015260a0840186905283810360c08501529050610a988185613ce8565b600080600060608486031215613d9a57600080fd5b8335613da5816137f5565b92506020840135915060408401356001600160401b03811115613dc757600080fd5b613dd3868287016136a7565b9150509250925092565b600060208284031215613def57600080fd5b81356113ad816137f5565b600080600080600060a08688031215613e1257600080fd5b8535613e1d816137f5565b94506020860135613e2d816137f5565b935060408601356001600160401b0380821115613e4957600080fd5b613e5589838a01613907565b94506060880135915080821115613e6b57600080fd5b613e7789838a01613907565b93506080880135915080821115613bc157600080fd5b60008060008060608587031215613ea357600080fd5b8435613eae816137f5565b93506020850135925060408501356001600160401b03811115613c1c57600080fd5b60008060408385031215613ee357600080fd5b8235613eee816137f5565b946020939093013593505050565b600080600080600060a08688031215613f1457600080fd5b8535613f1f816137f5565b94506020860135613f2f816137f5565b9350604086013592506060860135915060808601356001600160401b03811115613f5857600080fd5b613bce888289016136a7565b8183823760009101908152919050565b60208082526018908201527f476f7665726e6f723a206f6e6c79476f7665726e616e63650000000000000000604082015260600190565b600181811c90821680613fbf57607f821691505b602082108103613fdf57634e487b7160e01b600052602260045260246000fd5b50919050565b60208082526021908201527f476f7665726e6f723a2070726f706f73616c206e6f74207375636365737366756040820152601b60fa1b606082015260800190565b60006020828403121561403857600080fd5b5051919050565b600081518084526020808501945080840160005b83811015613d185781516001600160a01b031687529582019590820190600101614053565b600081518084526020808501808196508360051b8101915082860160005b858110156140c05782840389526140ae8483516137b6565b98850198935090840190600101614096565b5091979650505050505050565b60a0815260006140e060a083018861403f565b82810360208401526140f28188613ce8565b905082810360408401526141068187614078565b60608401959095525050608001529392505050565b60c08152600061412e60c083018961403f565b82810360208401526141408189613ce8565b905082810360408401526141548188614078565b60608401969096525050608081019290925260a0909101529392505050565b634e487b7160e01b600052601160045260246000fd5b6000821982111561419c5761419c614173565b500190565b6000602082840312156141b357600080fd5b81516001600160401b038111156141c957600080fd5b8201601f810184136141da57600080fd5b80516141e861367782613642565b8181528560208385010111156141fd57600080fd5b611283826020830160208601613786565b60008282101561422057614220614173565b500390565b634e487b7160e01b600052603260045260246000fd5b60006020828403121561424d57600080fd5b815165ffffffffffff811681146113ad57600080fd5b608081526000614276608083018761403f565b82810360208401526142888187613ce8565b9050828103604084015261429c8186614078565b91505082606083015295945050505050565b84815260ff8416602082015282604082015260806060820152600061103d60808301846137b6565b85815260ff8516602082015283604082015260a0606082015260006142fe60a08301856137b6565b828103608084015261431081856137b6565b98975050505050505050565b60006001820161432e5761432e614173565b5060010190565b60006020828403121561434757600080fd5b815180151581146113ad57600080fd5b600081600019048311821515161561437157614371614173565b500290565b634e487b7160e01b600052601260045260246000fd5b6000826143a957634e487b7160e01b600052601260045260246000fd5b500490565b80516020808301519190811015613fdf5760001960209190910360031b1b16919050565b60208082526021908201527f476f7665726e6f723a20696e76616c69642070726f706f73616c206c656e67746040820152600d60fb1b606082015260800190565b60006101208b8352602060018060a01b038c168185015281604085015261443c8285018c61403f565b91508382036060850152614450828b613ce8565b915083820360808501528189518084528284019150828160051b850101838c0160005b838110156144a157601f1987840301855261448f8383516137b6565b94860194925090850190600101614473565b505086810360a08801526144b5818c614078565b9450505050508560c08401528460e08401528281036101008401526144da81856137b6565b9c9b50505050505050505050505056fe476f7665726e6f723a2072656c617920726576657274656420776974686f7574206d657373616765a26469706673582212203cb072b2e8a2c77b3c6d20acc941cd9a67dd30c3534616c30e79d03fa88b80b064736f6c634300080d0033","linkReferences":{}},"methodIdentifiers":{"BALLOT_TYPEHASH()":"deaaa7cc","CLOCK_MODE()":"4bf5d7e9","COUNTING_MODE()":"dd4e2ba5","EXTENDED_BALLOT_TYPEHASH()":"2fe3e261","cancel(address[],uint256[],bytes[],bytes32)":"452115d6","castVote(uint256,uint8)":"56781388","castVoteBySig(uint256,uint8,uint8,bytes32,bytes32)":"3bccf4fd","castVoteWithReason(uint256,uint8,string)":"7b3c71d3","castVoteWithReasonAndParams(uint256,uint8,string,bytes)":"5f398a14","castVoteWithReasonAndParamsBySig(uint256,uint8,string,bytes,uint8,bytes32,bytes32)":"03420181","clock()":"91ddadf4","eip712Domain()":"84b0196e","execute(address[],uint256[],bytes[],bytes32)":"2656227d","getVotes(address,uint256)":"eb9019d4","getVotesWithParams(address,uint256,bytes)":"9a802a6d","hasVoted(uint256,address)":"43859632","hashProposal(address[],uint256[],bytes[],bytes32)":"c59057e4","name()":"06fdde03","onERC1155BatchReceived(address,address,uint256[],uint256[],bytes)":"bc197c81","onERC1155Received(address,address,uint256,uint256,bytes)":"f23a6e61","onERC721Received(address,address,uint256,bytes)":"150b7a02","proposalDeadline(uint256)":"c01f9e37","proposalEta(uint256)":"ab58fb8e","proposalProposer(uint256)":"143489d0","proposalSnapshot(uint256)":"2d63f693","proposalThreshold()":"b58131b0","proposalVotes(uint256)":"544ffc9c","propose(address[],uint256[],bytes[],string)":"7d5e81e2","queue(address[],uint256[],bytes[],bytes32)":"160cbed7","quorum(uint256)":"f8ce560a","quorumDenominator()":"97c3d334","quorumNumerator()":"a7713a70","quorumNumerator(uint256)":"60c4247f","relay(address,uint256,bytes)":"c28bc2fa","state(uint256)":"3e4f49e6","supportsInterface(bytes4)":"01ffc9a7","timelock()":"d33219b4","token()":"fc0c546a","updateQuorumNumerator(uint256)":"06f3f9e6","updateTimelock(address)":"a890c910","version()":"54fd4d50","votingDelay()":"3932abb1","votingPeriod()":"02a251a3"},"id":164}