{"abi":[{"type":"function","name":"relayAs","inputs":[{"name":"target","type":"address","internalType":"address"},{"name":"data","type":"bytes","internalType":"bytes"},{"name":"sender","type":"address","internalType":"address"}],"outputs":[],"stateMutability":"nonpayable"},{"type":"error","name":"InvalidCrossChainSender","inputs":[{"name":"sender","type":"address","internalType":"address"},{"name":"expected","type":"address","internalType":"address"}]},{"type":"error","name":"NotCrossChainCall","inputs":[]}],"bytecode":{"object":"0x608060405234801561001057600080fd5b506101dd806100206000396000f3fe608060405234801561001057600080fd5b506004361061002b5760003560e01c8063fb417a5b14610030575b600080fd5b61004361003e3660046100cc565b610045565b005b604051639a7c4b7160e01b81526001600160a01b03851690639a7c4b719061007890600090859088908890600401610160565b600060405180830381600087803b15801561009257600080fd5b505af11580156100a6573d6000803e3d6000fd5b5050505050505050565b80356001600160a01b03811681146100c757600080fd5b919050565b600080600080606085870312156100e257600080fd5b6100eb856100b0565b9350602085013567ffffffffffffffff8082111561010857600080fd5b818701915087601f83011261011c57600080fd5b81358181111561012b57600080fd5b88602082850101111561013d57600080fd5b602083019550809450505050610155604086016100b0565b905092959194509250565b8481526001600160a01b03841660208201526060604082018190528101829052818360808301376000818301608090810191909152601f909201601f19160101939250505056fea2646970667358221220be1b29e6136be08bc383391dafc7701b9b933d784c87955ab8ae750dd2d4846b64736f6c634300080d0033","linkReferences":{}},"methodIdentifiers":{"relayAs(address,bytes,address)":"fb417a5b"},"id":125}