{"abi":[{"type":"function","name":"bridge","inputs":[],"outputs":[{"name":"","type":"address","internalType":"address"}],"stateMutability":"view"}],"bytecode":{"object":"0x60a060405233608052348015601357600080fd5b5060805160a561002c60003960006031015260a56000f3fe6080604052348015600f57600080fd5b506004361060285760003560e01c8063e78cea9214602d575b600080fd5b60537f000000000000000000000000000000000000000000000000000000000000000081565b6040516001600160a01b03909116815260200160405180910390f3fea2646970667358221220c5936eb8de2842bfc04cf5679254551ec57a071d50432a690a55e19f652bcfc564736f6c634300080d0033","linkReferences":{}},"methodIdentifiers":{"bridge()":"e78cea92"},"id":125}