{"abi":[{"type":"function","name":"bridge","inputs":[],"outputs":[{"name":"","type":"address","internalType":"address"}],"stateMutability":"view"},{"type":"function","name":"l2ToL1Sender","inputs":[],"outputs":[{"name":"","type":"address","internalType":"address"}],"stateMutability":"view"}],"bytecode":{"object":"0x60a06040523360805234801561001457600080fd5b506080516101756100356000396000818160640152608a01526101756000f3fe608060405234801561001057600080fd5b50600436106100365760003560e01c806380648b021461003b578063e78cea921461005f575b600080fd5b610043610086565b6040516001600160a01b03909116815260200160405180910390f35b6100437f000000000000000000000000000000000000000000000000000000000000000081565b60007f00000000000000000000000000000000000000000000000000000000000000006001600160a01b03166370348f3e6040518163ffffffff1660e01b8152600401602060405180830381865afa1580156100e6573d6000803e3d6000fd5b505050506040513d601f19601f8201168201806040525081019061010a919061010f565b905090565b60006020828403121561012157600080fd5b81516001600160a01b038116811461013857600080fd5b939250505056fea264697066735822122062329bd48069e4b09fd57d7cbb0c13012dd25ca8e730a73f70d9e5d1809a644764736f6c634300080d0033","linkReferences":{}},"methodIdentifiers":{"bridge()":"e78cea92","l2ToL1Sender()":"80648b02"},"id":125}