{"abi":[{"type":"function","name":"myCallersAddressWithoutAliasing","inputs":[],"outputs":[{"name":"","type":"address","internalType":"address"}],"stateMutability":"view"},{"type":"function","name":"relayAs","inputs":[{"name":"target","type":"address","internalType":"address"},{"name":"data","type":"bytes","internalType":"bytes"},{"name":"sender","type":"address","internalType":"address"}],"outputs":[],"stateMutability":"nonpayable"},{"type":"function","name":"wasMyCallersAddressAliased","inputs":[],"outputs":[{"name":"","type":"bool","internalType":"bool"}],"stateMutability":"view"},{"type":"error","name":"InvalidCrossChainSender","inputs":[{"name":"sender","type":"address","internalType":"address"},{"name":"expected","type":"address","internalType":"address"}]},{"type":"error","name":"NotCrossChainCall","inputs":[]}],"bytecode":{"object":"0x608060405234801561001057600080fd5b5061037c806100206000396000f3fe608060405234801561001057600080fd5b50600436106100415760003560e01c8063175a260b14610046578063d74523b314610068578063fb417a5b14610083575b600080fd5b6000546040516001600160a01b03909116151581526020015b60405180910390f35b6000546040516001600160a01b03909116815260200161005f565b61009661009136600461024d565b610098565b005b600080546001600160a01b038381166001600160a01b03198316178355604051918116929182918816906100cf90889088906102e1565b6000604051808303816000865af19150503d806000811461010c576040519150601f19603f3d011682016040523d82523d6000602084013e610111565b606091505b50915091506101578783836040518060400160405280601781526020017f6c6f772d6c6576656c2063616c6c207265766572746564000000000000000000815250610181565b5050600080546001600160a01b0319166001600160a01b0393909316929092179091555050505050565b606083156101f55782516000036101ee576001600160a01b0385163b6101ee5760405162461bcd60e51b815260206004820152601d60248201527f416464726573733a2063616c6c20746f206e6f6e2d636f6e747261637400000060448201526064015b60405180910390fd5b50816101ff565b6101ff8383610207565b949350505050565b8151156102175781518083602001fd5b8060405162461bcd60e51b81526004016101e591906102f1565b80356001600160a01b038116811461024857600080fd5b919050565b6000806000806060858703121561026357600080fd5b61026c85610231565b9350602085013567ffffffffffffffff8082111561028957600080fd5b818701915087601f83011261029d57600080fd5b8135818111156102ac57600080fd5b8860208285010111156102be57600080fd5b6020830195508094505050506102d660408601610231565b905092959194509250565b8183823760009101908152919050565b600060208083528351808285015260005b8181101561031e57858101830151858201604001528201610302565b81811115610330576000604083870101525b50601f01601f191692909201604001939250505056fea26469706673582212207580837d1c1af1ec99d5f6fb7782c989a9da1e79f8caf2d0235872c8c7813d6364736f6c634300080d0033","linkReferences":{}},"methodIdentifiers":{"myCallersAddressWithoutAliasing()":"d74523b3","relayAs(address,bytes,address)":"fb417a5b","wasMyCallersAddressAliased()":"175a260b"},"id":125}