{"abi":[{"type":"receive","stateMutability":"payable"},{"type":"function","name":"CANCELLER_ROLE","inputs":[],"outputs":[{"name":"","type":"bytes32","internalType":"bytes32"}],"stateMutability":"view"},{"type":"function","name":"DEFAULT_ADMIN_ROLE","inputs":[],"outputs":[{"name":"","type":"bytes32","internalType":"bytes32"}],"stateMutability":"view"},{"type":"function","name":"EXECUTOR_ROLE","inputs":[],"outputs":[{"name":"","type":"bytes32","internalType":"bytes32"}],"stateMutability":"view"},{"type":"function","name":"PROPOSER_ROLE","inputs":[],"outputs":[{"name":"","type":"bytes32","internalType":"bytes32"}],"stateMutability":"view"},{"type":"function","name":"TIMELOCK_ADMIN_ROLE","inputs":[],"outputs":[{"name":"","type":"bytes32","internalType":"bytes32"}],"stateMutability":"view"},{"type":"function","name":"cancel","inputs":[{"name":"id","type":"bytes32","internalType":"bytes32"}],"outputs":[],"stateMutability":"nonpayable"},{"type":"function","name":"execute","inputs":[{"name":"target","type":"address","internalType":"address"},{"name":"value","type":"uint256","internalType":"uint256"},{"name":"payload","type":"bytes","internalType":"bytes"},{"name":"predecessor","type":"bytes32","internalType":"bytes32"},{"name":"salt","type":"bytes32","internalType":"bytes32"}],"outputs":[],"stateMutability":"payable"},{"type":"function","name":"executeBatch","inputs":[{"name":"targets","type":"address[]","internalType":"address[]"},{"name":"values","type":"uint256[]","internalType":"uint256[]"},{"name":"payloads","type":"bytes[]","internalType":"bytes[]"},{"name":"predecessor","type":"bytes32","internalType":"bytes32"},{"name":"salt","type":"bytes32","internalType":"bytes32"}],"outputs":[],"stateMutability":"payable"},{"type":"function","name":"getMinDelay","inputs":[],"outputs":[{"name":"duration","type":"uint256","internalType":"uint256"}],"stateMutability":"view"},{"type":"function","name":"getRoleAdmin","inputs":[{"name":"role","type":"bytes32","internalType":"bytes32"}],"outputs":[{"name":"","type":"bytes32","internalType":"bytes32"}],"stateMutability":"view"},{"type":"function","name":"getTimestamp","inputs":[{"name":"id","type":"bytes32","internalType":"bytes32"}],"outputs":[{"name":"timestamp","type":"uint256","internalType":"uint256"}],"stateMutability":"view"},{"type":"function","name":"grantRole","inputs":[{"name":"role","type":"bytes32","internalType":"bytes32"},{"name":"account","type":"address","internalType":"address"}],"outputs":[],"stateMutability":"nonpayable"},{"type":"function","name":"hasRole","inputs":[{"name":"role","type":"bytes32","internalType":"bytes32"},{"name":"account","type":"address","internalType":"address"}],"outputs":[{"name":"","type":"bool","internalType":"bool"}],"stateMutability":"view"},{"type":"function","name":"hashOperation","inputs":[{"name":"target","type":"address","internalType":"address"},{"name":"value","type":"uint256","internalType":"uint256"},{"name":"data","type":"bytes","internalType":"bytes"},{"name":"predecessor","type":"bytes32","internalType":"bytes32"},{"name":"salt","type":"bytes32","internalType":"bytes32"}],"outputs":[{"name":"hash","type":"bytes32","internalType":"bytes32"}],"stateMutability":"pure"},{"type":"function","name":"hashOperationBatch","inputs":[{"name":"targets","type":"address[]","internalType":"address[]"},{"name":"values","type":"uint256[]","internalType":"uint256[]"},{"name":"payloads","type":"bytes[]","internalType":"bytes[]"},{"name":"predecessor","type":"bytes32","internalType":"bytes32"},{"name":"salt","type":"bytes32","internalType":"bytes32"}],"outputs":[{"name":"hash","type":"bytes32","internalType":"bytes32"}],"stateMutability":"pure"},{"type":"function","name":"isOperation","inputs":[{"name":"id","type":"bytes32","internalType":"bytes32"}],"outputs":[{"name":"registered","type":"bool","internalType":"bool"}],"stateMutability":"view"},{"type":"function","name":"isOperationDone","inputs":[{"name":"id","type":"bytes32","internalType":"bytes32"}],"outputs":[{"name":"done","type":"bool","internalType":"bool"}],"stateMutability":"view"},{"type":"function","name":"isOperationPending","inputs":[{"name":"id","type":"bytes32","internalType":"bytes32"}],"outputs":[{"name":"pending","type":"bool","internalType":"bool"}],"stateMutability":"view"},{"type":"function","name":"isOperationReady","inputs":[{"name":"id","type":"bytes32","internalType":"bytes32"}],"outputs":[{"name":"ready","type":"bool","internalType":"bool"}],"stateMutability":"view"},{"type":"function","name":"migrateTo46","inputs":[],"outputs":[],"stateMutability":"nonpayable"},{"type":"function","name":"onERC1155BatchReceived","inputs":[{"name":"","type":"address","internalType":"address"},{"name":"","type":"address","internalType":"address"},{"name":"","type":"uint256[]","internalType":"uint256[]"},{"name":"","type":"uint256[]","internalType":"uint256[]"},{"name":"","type":"bytes","internalType":"bytes"}],"outputs":[{"name":"","type":"bytes4","internalType":"bytes4"}],"stateMutability":"nonpayable"},{"type":"function","name":"onERC1155Received","inputs":[{"name":"","type":"address","internalType":"address"},{"name":"","type":"address","internalType":"address"},{"name":"","type":"uint256","internalType":"uint256"},{"name":"","type":"uint256","internalType":"uint256"},{"name":"","type":"bytes","internalType":"bytes"}],"outputs":[{"name":"","type":"bytes4","internalType":"bytes4"}],"stateMutability":"nonpayable"},{"type":"function","name":"onERC721Received","inputs":[{"name":"","type":"address","internalType":"address"},{"name":"","type":"address","internalType":"address"},{"name":"","type":"uint256","internalType":"uint256"},{"name":"","type":"bytes","internalType":"bytes"}],"outputs":[{"name":"","type":"bytes4","internalType":"bytes4"}],"stateMutability":"nonpayable"},{"type":"function","name":"renounceRole","inputs":[{"name":"role","type":"bytes32","internalType":"bytes32"},{"name":"account","type":"address","internalType":"address"}],"outputs":[],"stateMutability":"nonpayable"},{"type":"function","name":"revokeRole","inputs":[{"name":"role","type":"bytes32","internalType":"bytes32"},{"name":"account","type":"address","internalType":"address"}],"outputs":[],"stateMutability":"nonpayable"},{"type":"function","name":"schedule","inputs":[{"name":"target","type":"address","internalType":"address"},{"name":"value","type":"uint256","internalType":"uint256"},{"name":"data","type":"bytes","internalType":"bytes"},{"name":"predecessor","type":"bytes32","internalType":"bytes32"},{"name":"salt","type":"bytes32","internalType":"bytes32"},{"name":"delay","type":"uint256","internalType":"uint256"}],"outputs":[],"stateMutability":"nonpayable"},{"type":"function","name":"scheduleBatch","inputs":[{"name":"targets","type":"address[]","internalType":"address[]"},{"name":"values","type":"uint256[]","internalType":"uint256[]"},{"name":"payloads","type":"bytes[]","internalType":"bytes[]"},{"name":"predecessor","type":"bytes32","internalType":"bytes32"},{"name":"salt","type":"bytes32","internalType":"bytes32"},{"name":"delay","type":"uint256","internalType":"uint256"}],"outputs":[],"stateMutability":"nonpayable"},{"type":"function","name":"supportsInterface","inputs":[{"name":"interfaceId","type":"bytes4","internalType":"bytes4"}],"outputs":[{"name":"","type":"bool","internalType":"bool"}],"stateMutability":"view"},{"type":"function","name":"updateDelay","inputs":[{"name":"newDelay","type":"uint256","internalType":"uint256"}],"outputs":[],"stateMutability":"nonpayable"},{"type":"event","name":"CallExecuted","inputs":[{"name":"id","type":"bytes32","indexed":true,"internalType":"bytes32"},{"name":"index","type":"uint256","indexed":true,"internalType":"uint256"},{"name":"target","type":"address","indexed":false,"internalType":"address"},{"name":"value","type":"uint256","indexed":false,"internalType":"uint256"},{"name":"data","type":"bytes","indexed":false,"internalType":"bytes"}],"anonymous":false},{"type":"event","name":"CallScheduled","inputs":[{"name":"id","type":"bytes32","indexed":true,"internalType":"bytes32"},{"name":"index","type":"uint256","indexed":true,"internalType":"uint256"},{"name":"target","type":"address","indexed":false,"internalType":"address"},{"name":"value","type":"uint256","indexed":false,"internalType":"uint256"},{"name":"data","type":"bytes","indexed":false,"internalType":"bytes"},{"name":"predecessor","type":"bytes32","indexed":false,"internalType":"bytes32"},{"name":"delay","type":"uint256","indexed":false,"internalType":"uint256"}],"anonymous":false},{"type":"event","name":"Cancelled","inputs":[{"name":"id","type":"bytes32","indexed":true,"internalType":"bytes32"}],"anonymous":false},{"type":"event","name":"Initialized","inputs":[{"name":"version","type":"uint8","indexed":false,"internalType":"uint8"}],"anonymous":false},{"type":"event","name":"MinDelayChange","inputs":[{"name":"oldDuration","type":"uint256","indexed":false,"internalType":"uint256"},{"name":"newDuration","type":"uint256","indexed":false,"internalType":"uint256"}],"anonymous":false},{"type":"event","name":"RoleAdminChanged","inputs":[{"name":"role","type":"bytes32","indexed":true,"internalType":"bytes32"},{"name":"previousAdminRole","type":"bytes32","indexed":true,"internalType":"bytes32"},{"name":"newAdminRole","type":"bytes32","indexed":true,"internalType":"bytes32"}],"anonymous":false},{"type":"event","name":"RoleGranted","inputs":[{"name":"role","type":"bytes32","indexed":true,"internalType":"bytes32"},{"name":"account","type":"address","indexed":true,"internalType":"address"},{"name":"sender","type":"address","indexed":true,"internalType":"address"}],"anonymous":false},{"type":"event","name":"RoleRevoked","inputs":[{"name":"role","type":"bytes32","indexed":true,"internalType":"bytes32"},{"name":"account","type":"address","indexed":true,"internalType":"address"},{"name":"sender","type":"address","indexed":true,"internalType":"address"}],"anonymous":false}],"bytecode":{"object":"0x608060405234801561001057600080fd5b506134ef806100206000396000f3fe6080604052600436106101c65760003560e01c806364d62353116100f7578063b1c5f42711610095578063d547741f11610064578063d547741f146106ae578063e38335e5146106d7578063f23a6e61146106f3578063f27a0c9214610730576101cd565b8063b1c5f427146105ce578063bc197c811461060b578063c4d252f514610648578063d45c443514610671576101cd565b80638f61f4f5116100d15780638f61f4f51461051057806391d148541461053b578063a217fddf14610578578063b08e51c0146105a3576101cd565b806364d62353146104815780638065657f146104aa5780638f2a0bb0146104e7576101cd565b80631fb78738116101645780632f2ff15d1161013e5780632f2ff15d146103b557806331d50750146103de57806336568abe1461041b578063584b153e14610444576101cd565b80631fb7873814610324578063248a9ca31461033b5780632ab0f52914610378576101cd565b80630d3cf6fc116101a05780630d3cf6fc14610263578063134008d31461028e57806313bc9f20146102aa578063150b7a02146102e7576101cd565b806301d5062a146101d257806301ffc9a7146101fb57806307bd026514610238576101cd565b366101cd57005b600080fd5b3480156101de57600080fd5b506101f960048036038101906101f49190611c2f565b61075b565b005b34801561020757600080fd5b50610222600480360381019061021d9190611d36565b6107f0565b60405161022f9190611d7e565b60405180910390f35b34801561024457600080fd5b5061024d61086a565b60405161025a9190611da8565b60405180910390f35b34801561026f57600080fd5b5061027861088e565b6040516102859190611da8565b60405180910390f35b6102a860048036038101906102a39190611dc3565b6108b2565b005b3480156102b657600080fd5b506102d160048036038101906102cc9190611e5d565b61096f565b6040516102de9190611d7e565b60405180910390f35b3480156102f357600080fd5b5061030e60048036038101906103099190611fcb565b610995565b60405161031b919061205d565b60405180910390f35b34801561033057600080fd5b506103396109a9565b005b34801561034757600080fd5b50610362600480360381019061035d9190611e5d565b610ab5565b60405161036f9190611da8565b60405180910390f35b34801561038457600080fd5b5061039f600480360381019061039a9190611e5d565b610ad5565b6040516103ac9190611d7e565b60405180910390f35b3480156103c157600080fd5b506103dc60048036038101906103d79190612078565b610aea565b005b3480156103ea57600080fd5b5061040560048036038101906104009190611e5d565b610b0b565b6040516104129190611d7e565b60405180910390f35b34801561042757600080fd5b50610442600480360381019061043d9190612078565b610b1f565b005b34801561045057600080fd5b5061046b60048036038101906104669190611e5d565b610ba2565b6040516104789190611d7e565b60405180910390f35b34801561048d57600080fd5b506104a860048036038101906104a391906120b8565b610bb7565b005b3480156104b657600080fd5b506104d160048036038101906104cc9190611dc3565b610c6a565b6040516104de9190611da8565b60405180910390f35b3480156104f357600080fd5b5061050e600480360381019061050991906121e7565b610ca9565b005b34801561051c57600080fd5b50610525610e54565b6040516105329190611da8565b60405180910390f35b34801561054757600080fd5b50610562600480360381019061055d9190612078565b610e78565b60405161056f9190611d7e565b60405180910390f35b34801561058457600080fd5b5061058d610ee3565b60405161059a9190611da8565b60405180910390f35b3480156105af57600080fd5b506105b8610eea565b6040516105c59190611da8565b60405180910390f35b3480156105da57600080fd5b506105f560048036038101906105f091906122d6565b610f0e565b6040516106029190611da8565b60405180910390f35b34801561061757600080fd5b50610632600480360381019061062d9190612475565b610f53565b60405161063f919061205d565b60405180910390f35b34801561065457600080fd5b5061066f600480360381019061066a9190611e5d565b610f68565b005b34801561067d57600080fd5b5061069860048036038101906106939190611e5d565b611022565b6040516106a59190612553565b60405180910390f35b3480156106ba57600080fd5b506106d560048036038101906106d09190612078565b61103f565b005b6106f160048036038101906106ec91906122d6565b611060565b005b3480156106ff57600080fd5b5061071a6004803603810190610715919061256e565b61124a565b604051610727919061205d565b60405180910390f35b34801561073c57600080fd5b5061074561125f565b6040516107529190612553565b60405180910390f35b7fb09aa5aeb3702cfd50b6b62bc4532604938f21248a27a1d5ca736082b6819cc161078581611269565b6000610795898989898989610c6a565b90506107a1818461127d565b6000817f4cf4410cc57040e44862ef0f45f3dd5a5e02db8eb8add648d4b0e236f1d07dca8b8b8b8b8b8a6040516107dd96959493929190612652565b60405180910390a3505050505050505050565b60007f4e2312e0000000000000000000000000000000000000000000000000000000007bffffffffffffffffffffffffffffffffffffffffffffffffffffffff1916827bffffffffffffffffffffffffffffffffffffffffffffffffffffffff19161480610863575061086282611337565b5b9050919050565b7fd8aa0f3194971a2a116679f7c2090f6939c8d4e01a2a8d7e41d55e5351469e6381565b7f5f58e3a2316349923ce3780f8d587db2d72378aed66a8261c916544fa6846ca581565b7fd8aa0f3194971a2a116679f7c2090f6939c8d4e01a2a8d7e41d55e5351469e636108de816000610e78565b6108f4576108f3816108ee6113b1565b6113b9565b5b6000610904888888888888610c6a565b9050610910818561143e565b61091c888888886114df565b6000817fc2617efa69bab66782fa219543714338489c4e9e178271560a91b82c3f612b588a8a8a8a60405161095494939291906126ae565b60405180910390a361096581611596565b5050505050505050565b60008061097b83611022565b905060018111801561098d5750428111155b915050919050565b600063150b7a0260e01b9050949350505050565b7f5f58e3a2316349923ce3780f8d587db2d72378aed66a8261c916544fa6846ca56109f37fb09aa5aeb3702cfd50b6b62bc4532604938f21248a27a1d5ca736082b6819cc1610ab5565b148015610a2a57506000801b610a287ffd643c72710c63c0180259aba6b2d05451e3591a24e58b62239378085726f783610ab5565b145b610a69576040517f08c379a0000000000000000000000000000000000000000000000000000000008152600401610a6090612771565b60405180910390fd5b610ab37ffd643c72710c63c0180259aba6b2d05451e3591a24e58b62239378085726f7837f5f58e3a2316349923ce3780f8d587db2d72378aed66a8261c916544fa6846ca56115fa565b565b600060656000838152602001908152602001600020600101549050919050565b60006001610ae283611022565b149050919050565b610af382610ab5565b610afc81611269565b610b068383611656565b505050565b600080610b1783611022565b119050919050565b610b276113b1565b73ffffffffffffffffffffffffffffffffffffffff168173ffffffffffffffffffffffffffffffffffffffff1614610b94576040517f08c379a0000000000000000000000000000000000000000000000000000000008152600401610b8b90612803565b60405180910390fd5b610b9e8282611737565b5050565b60006001610baf83611022565b119050919050565b3073ffffffffffffffffffffffffffffffffffffffff163373ffffffffffffffffffffffffffffffffffffffff1614610c25576040517f08c379a0000000000000000000000000000000000000000000000000000000008152600401610c1c90612895565b60405180910390fd5b7f11c24f4ead16507c69ac467fbd5e4eed5fb5c699626d2cc6d66421df253886d560985482604051610c589291906128b5565b60405180910390a18060988190555050565b6000868686868686604051602001610c87969594939291906128de565b6040516020818303038152906040528051906020012090509695505050505050565b7fb09aa5aeb3702cfd50b6b62bc4532604938f21248a27a1d5ca736082b6819cc1610cd381611269565b878790508a8a905014610d1b576040517f08c379a0000000000000000000000000000000000000000000000000000000008152600401610d12906129ac565b60405180910390fd5b858590508a8a905014610d63576040517f08c379a0000000000000000000000000000000000000000000000000000000008152600401610d5a906129ac565b60405180910390fd5b6000610d758b8b8b8b8b8b8b8b610f0e565b9050610d81818461127d565b60005b8b8b9050811015610e465780827f4cf4410cc57040e44862ef0f45f3dd5a5e02db8eb8add648d4b0e236f1d07dca8e8e85818110610dc557610dc46129cc565b5b9050602002016020810190610dda91906129fb565b8d8d86818110610ded57610dec6129cc565b5b905060200201358c8c87818110610e0757610e066129cc565b5b9050602002810190610e199190612a37565b8c8b604051610e2d96959493929190612652565b60405180910390a380610e3f90612ac9565b9050610d84565b505050505050505050505050565b7fb09aa5aeb3702cfd50b6b62bc4532604938f21248a27a1d5ca736082b6819cc181565b60006065600084815260200190815260200160002060000160008373ffffffffffffffffffffffffffffffffffffffff1673ffffffffffffffffffffffffffffffffffffffff16815260200190815260200160002060009054906101000a900460ff16905092915050565b6000801b81565b7ffd643c72710c63c0180259aba6b2d05451e3591a24e58b62239378085726f78381565b60008888888888888888604051602001610f2f989796959493929190612daa565b60405160208183030381529060405280519060200120905098975050505050505050565b600063bc197c8160e01b905095945050505050565b7ffd643c72710c63c0180259aba6b2d05451e3591a24e58b62239378085726f783610f9281611269565b610f9b82610ba2565b610fda576040517f08c379a0000000000000000000000000000000000000000000000000000000008152600401610fd190612e8a565b60405180910390fd5b6097600083815260200190815260200160002060009055817fbaa1eb22f2a492ba1a5fea61b8df4d27c6c8b5f3971e63bb58fa14ff72eedb7060405160405180910390a25050565b600060976000838152602001908152602001600020549050919050565b61104882610ab5565b61105181611269565b61105b8383611737565b505050565b7fd8aa0f3194971a2a116679f7c2090f6939c8d4e01a2a8d7e41d55e5351469e6361108c816000610e78565b6110a2576110a18161109c6113b1565b6113b9565b5b8686905089899050146110ea576040517f08c379a00000000000000000000000000000000000000000000000000000000081526004016110e1906129ac565b60405180910390fd5b848490508989905014611132576040517f08c379a0000000000000000000000000000000000000000000000000000000008152600401611129906129ac565b60405180910390fd5b60006111448a8a8a8a8a8a8a8a610f0e565b9050611150818561143e565b60005b8a8a90508110156112345760008b8b83818110611173576111726129cc565b5b905060200201602081019061118891906129fb565b905060008a8a8481811061119f5761119e6129cc565b5b9050602002013590503660008a8a868181106111be576111bd6129cc565b5b90506020028101906111d09190612a37565b915091506111e0848484846114df565b84867fc2617efa69bab66782fa219543714338489c4e9e178271560a91b82c3f612b588686868660405161121794939291906126ae565b60405180910390a3505050508061122d90612ac9565b9050611153565b5061123e81611596565b50505050505050505050565b600063f23a6e6160e01b905095945050505050565b6000609854905090565b61127a816112756113b1565b6113b9565b50565b61128682610b0b565b156112c6576040517f08c379a00000000000000000000000000000000000000000000000000000000081526004016112bd90612f1c565b60405180910390fd5b6112ce61125f565b811015611310576040517f08c379a000000000000000000000000000000000000000000000000000000000815260040161130790612fae565b60405180910390fd5b804261131c9190612fce565b60976000848152602001908152602001600020819055505050565b60007f7965db0b000000000000000000000000000000000000000000000000000000007bffffffffffffffffffffffffffffffffffffffffffffffffffffffff1916827bffffffffffffffffffffffffffffffffffffffffffffffffffffffff191614806113aa57506113a982611819565b5b9050919050565b600033905090565b6113c38282610e78565b61143a576113d081611883565b6113de8360001c60206118b0565b6040516020016113ef929190613136565b6040516020818303038152906040526040517f08c379a000000000000000000000000000000000000000000000000000000000815260040161143191906131a9565b60405180910390fd5b5050565b6114478261096f565b611486576040517f08c379a000000000000000000000000000000000000000000000000000000000815260040161147d9061323d565b60405180910390fd5b6000801b81148061149c575061149b81610ad5565b5b6114db576040517f08c379a00000000000000000000000000000000000000000000000000000000081526004016114d2906132cf565b60405180910390fd5b5050565b60008473ffffffffffffffffffffffffffffffffffffffff1684848460405161150992919061331f565b60006040518083038185875af1925050503d8060008114611546576040519150601f19603f3d011682016040523d82523d6000602084013e61154b565b606091505b505090508061158f576040517f08c379a0000000000000000000000000000000000000000000000000000000008152600401611586906133aa565b60405180910390fd5b5050505050565b61159f8161096f565b6115de576040517f08c379a00000000000000000000000000000000000000000000000000000000081526004016115d59061323d565b60405180910390fd5b6001609760008381526020019081526020016000208190555050565b600061160583610ab5565b90508160656000858152602001908152602001600020600101819055508181847fbd79b86ffe0ab8e8776151514217cd7cacd52c909f66475c3af44e129f0b00ff60405160405180910390a4505050565b6116608282610e78565b6117335760016065600084815260200190815260200160002060000160008373ffffffffffffffffffffffffffffffffffffffff1673ffffffffffffffffffffffffffffffffffffffff16815260200190815260200160002060006101000a81548160ff0219169083151502179055506116d86113b1565b73ffffffffffffffffffffffffffffffffffffffff168173ffffffffffffffffffffffffffffffffffffffff16837f2f8788117e7eff1d82e926ec794901d17c78024a50270940304540a733656f0d60405160405180910390a45b5050565b6117418282610e78565b156118155760006065600084815260200190815260200160002060000160008373ffffffffffffffffffffffffffffffffffffffff1673ffffffffffffffffffffffffffffffffffffffff16815260200190815260200160002060006101000a81548160ff0219169083151502179055506117ba6113b1565b73ffffffffffffffffffffffffffffffffffffffff168173ffffffffffffffffffffffffffffffffffffffff16837ff6391f5c32d9c69d2a47ea670b442974b53935d1edc7fd64eb21e047a839171b60405160405180910390a45b5050565b60007f01ffc9a7000000000000000000000000000000000000000000000000000000007bffffffffffffffffffffffffffffffffffffffffffffffffffffffff1916827bffffffffffffffffffffffffffffffffffffffffffffffffffffffff1916149050919050565b60606118a98273ffffffffffffffffffffffffffffffffffffffff16601460ff166118b0565b9050919050565b6060600060028360026118c391906133ca565b6118cd9190612fce565b67ffffffffffffffff8111156118e6576118e5611ea0565b5b6040519080825280601f01601f1916602001820160405280156119185781602001600182028036833780820191505090505b5090507f3000000000000000000000000000000000000000000000000000000000000000816000815181106119505761194f6129cc565b5b60200101907effffffffffffffffffffffffffffffffffffffffffffffffffffffffffffff1916908160001a9053507f7800000000000000000000000000000000000000000000000000000000000000816001815181106119b4576119b36129cc565b5b60200101907effffffffffffffffffffffffffffffffffffffffffffffffffffffffffffff1916908160001a905350600060018460026119f491906133ca565b6119fe9190612fce565b90505b6001811115611a9e577f3031323334353637383961626364656600000000000000000000000000000000600f861660108110611a4057611a3f6129cc565b5b1a60f81b828281518110611a5757611a566129cc565b5b60200101907effffffffffffffffffffffffffffffffffffffffffffffffffffffffffffff1916908160001a905350600485901c945080611a9790613424565b9050611a01565b5060008414611ae2576040517f08c379a0000000000000000000000000000000000000000000000000000000008152600401611ad990613499565b60405180910390fd5b8091505092915050565b6000604051905090565b600080fd5b600080fd5b600073ffffffffffffffffffffffffffffffffffffffff82169050919050565b6000611b2b82611b00565b9050919050565b611b3b81611b20565b8114611b4657600080fd5b50565b600081359050611b5881611b32565b92915050565b6000819050919050565b611b7181611b5e565b8114611b7c57600080fd5b50565b600081359050611b8e81611b68565b92915050565b600080fd5b600080fd5b600080fd5b60008083601f840112611bb957611bb8611b94565b5b8235905067ffffffffffffffff811115611bd657611bd5611b99565b5b602083019150836001820283011115611bf257611bf1611b9e565b5b9250929050565b6000819050919050565b611c0c81611bf9565b8114611c1757600080fd5b50565b600081359050611c2981611c03565b92915050565b600080600080600080600060c0888a031215611c4e57611c4d611af6565b5b6000611c5c8a828b01611b49565b9750506020611c6d8a828b01611b7f565b965050604088013567ffffffffffffffff811115611c8e57611c8d611afb565b5b611c9a8a828b01611ba3565b95509550506060611cad8a828b01611c1a565b9350506080611cbe8a828b01611c1a565b92505060a0611ccf8a828b01611b7f565b91505092959891949750929550565b60007fffffffff0000000000000000000000000000000000000000000000000000000082169050919050565b611d1381611cde565b8114611d1e57600080fd5b50565b600081359050611d3081611d0a565b92915050565b600060208284031215611d4c57611d4b611af6565b5b6000611d5a84828501611d21565b91505092915050565b60008115159050919050565b611d7881611d63565b82525050565b6000602082019050611d936000830184611d6f565b92915050565b611da281611bf9565b82525050565b6000602082019050611dbd6000830184611d99565b92915050565b60008060008060008060a08789031215611de057611ddf611af6565b5b6000611dee89828a01611b49565b9650506020611dff89828a01611b7f565b955050604087013567ffffffffffffffff811115611e2057611e1f611afb565b5b611e2c89828a01611ba3565b94509450506060611e3f89828a01611c1a565b9250506080611e5089828a01611c1a565b9150509295509295509295565b600060208284031215611e7357611e72611af6565b5b6000611e8184828501611c1a565b91505092915050565b600080fd5b6000601f19601f8301169050919050565b7f4e487b7100000000000000000000000000000000000000000000000000000000600052604160045260246000fd5b611ed882611e8f565b810181811067ffffffffffffffff82111715611ef757611ef6611ea0565b5b80604052505050565b6000611f0a611aec565b9050611f168282611ecf565b919050565b600067ffffffffffffffff821115611f3657611f35611ea0565b5b611f3f82611e8f565b9050602081019050919050565b82818337600083830152505050565b6000611f6e611f6984611f1b565b611f00565b905082815260208101848484011115611f8a57611f89611e8a565b5b611f95848285611f4c565b509392505050565b600082601f830112611fb257611fb1611b94565b5b8135611fc2848260208601611f5b565b91505092915050565b60008060008060808587031215611fe557611fe4611af6565b5b6000611ff387828801611b49565b945050602061200487828801611b49565b935050604061201587828801611b7f565b925050606085013567ffffffffffffffff81111561203657612035611afb565b5b61204287828801611f9d565b91505092959194509250565b61205781611cde565b82525050565b6000602082019050612072600083018461204e565b92915050565b6000806040838503121561208f5761208e611af6565b5b600061209d85828601611c1a565b92505060206120ae85828601611b49565b9150509250929050565b6000602082840312156120ce576120cd611af6565b5b60006120dc84828501611b7f565b91505092915050565b60008083601f8401126120fb576120fa611b94565b5b8235905067ffffffffffffffff81111561211857612117611b99565b5b60208301915083602082028301111561213457612133611b9e565b5b9250929050565b60008083601f84011261215157612150611b94565b5b8235905067ffffffffffffffff81111561216e5761216d611b99565b5b60208301915083602082028301111561218a57612189611b9e565b5b9250929050565b60008083601f8401126121a7576121a6611b94565b5b8235905067ffffffffffffffff8111156121c4576121c3611b99565b5b6020830191508360208202830111156121e0576121df611b9e565b5b9250929050565b600080600080600080600080600060c08a8c03121561220957612208611af6565b5b60008a013567ffffffffffffffff81111561222757612226611afb565b5b6122338c828d016120e5565b995099505060208a013567ffffffffffffffff81111561225657612255611afb565b5b6122628c828d0161213b565b975097505060408a013567ffffffffffffffff81111561228557612284611afb565b5b6122918c828d01612191565b955095505060606122a48c828d01611c1a565b93505060806122b58c828d01611c1a565b92505060a06122c68c828d01611b7f565b9150509295985092959850929598565b60008060008060008060008060a0898b0312156122f6576122f5611af6565b5b600089013567ffffffffffffffff81111561231457612313611afb565b5b6123208b828c016120e5565b9850985050602089013567ffffffffffffffff81111561234357612342611afb565b5b61234f8b828c0161213b565b9650965050604089013567ffffffffffffffff81111561237257612371611afb565b5b61237e8b828c01612191565b945094505060606123918b828c01611c1a565b92505060806123a28b828c01611c1a565b9150509295985092959890939650565b600067ffffffffffffffff8211156123cd576123cc611ea0565b5b602082029050602081019050919050565b60006123f16123ec846123b2565b611f00565b9050808382526020820190506020840283018581111561241457612413611b9e565b5b835b8181101561243d57806124298882611b7f565b845260208401935050602081019050612416565b5050509392505050565b600082601f83011261245c5761245b611b94565b5b813561246c8482602086016123de565b91505092915050565b600080600080600060a0868803121561249157612490611af6565b5b600061249f88828901611b49565b95505060206124b088828901611b49565b945050604086013567ffffffffffffffff8111156124d1576124d0611afb565b5b6124dd88828901612447565b935050606086013567ffffffffffffffff8111156124fe576124fd611afb565b5b61250a88828901612447565b925050608086013567ffffffffffffffff81111561252b5761252a611afb565b5b61253788828901611f9d565b9150509295509295909350565b61254d81611b5e565b82525050565b60006020820190506125686000830184612544565b92915050565b600080600080600060a0868803121561258a57612589611af6565b5b600061259888828901611b49565b95505060206125a988828901611b49565b94505060406125ba88828901611b7f565b93505060606125cb88828901611b7f565b925050608086013567ffffffffffffffff8111156125ec576125eb611afb565b5b6125f888828901611f9d565b9150509295509295909350565b61260e81611b20565b82525050565b600082825260208201905092915050565b60006126318385612614565b935061263e838584611f4c565b61264783611e8f565b840190509392505050565b600060a0820190506126676000830189612605565b6126746020830188612544565b8181036040830152612687818688612625565b90506126966060830185611d99565b6126a36080830184612544565b979650505050505050565b60006060820190506126c36000830187612605565b6126d06020830186612544565b81810360408301526126e3818486612625565b905095945050505050565b600082825260208201905092915050565b7f54696d656c6f636b436f6e74726f6c6c65723a20616c7265616479206d69677260008201527f6174656400000000000000000000000000000000000000000000000000000000602082015250565b600061275b6024836126ee565b9150612766826126ff565b604082019050919050565b6000602082019050818103600083015261278a8161274e565b9050919050565b7f416363657373436f6e74726f6c3a2063616e206f6e6c792072656e6f756e636560008201527f20726f6c657320666f722073656c660000000000000000000000000000000000602082015250565b60006127ed602f836126ee565b91506127f882612791565b604082019050919050565b6000602082019050818103600083015261281c816127e0565b9050919050565b7f54696d656c6f636b436f6e74726f6c6c65723a2063616c6c6572206d7573742060008201527f62652074696d656c6f636b000000000000000000000000000000000000000000602082015250565b600061287f602b836126ee565b915061288a82612823565b604082019050919050565b600060208201905081810360008301526128ae81612872565b9050919050565b60006040820190506128ca6000830185612544565b6128d76020830184612544565b9392505050565b600060a0820190506128f36000830189612605565b6129006020830188612544565b8181036040830152612913818688612625565b90506129226060830185611d99565b61292f6080830184611d99565b979650505050505050565b7f54696d656c6f636b436f6e74726f6c6c65723a206c656e677468206d69736d6160008201527f7463680000000000000000000000000000000000000000000000000000000000602082015250565b60006129966023836126ee565b91506129a18261293a565b604082019050919050565b600060208201905081810360008301526129c581612989565b9050919050565b7f4e487b7100000000000000000000000000000000000000000000000000000000600052603260045260246000fd5b600060208284031215612a1157612a10611af6565b5b6000612a1f84828501611b49565b91505092915050565b600080fd5b600080fd5b600080fd5b60008083356001602003843603038112612a5457612a53612a28565b5b80840192508235915067ffffffffffffffff821115612a7657612a75612a2d565b5b602083019250600182023603831315612a9257612a91612a32565b5b509250929050565b7f4e487b7100000000000000000000000000000000000000000000000000000000600052601160045260246000fd5b6000612ad482611b5e565b91507fffffffffffffffffffffffffffffffffffffffffffffffffffffffffffffffff8203612b0657612b05612a9a565b5b600182019050919050565b600082825260208201905092915050565b6000819050919050565b612b3581611b20565b82525050565b6000612b478383612b2c565b60208301905092915050565b6000612b626020840184611b49565b905092915050565b6000602082019050919050565b6000612b838385612b11565b9350612b8e82612b22565b8060005b85811015612bc757612ba48284612b53565b612bae8882612b3b565b9750612bb983612b6a565b925050600181019050612b92565b5085925050509392505050565b600082825260208201905092915050565b600080fd5b6000612bf68385612bd4565b93507f07ffffffffffffffffffffffffffffffffffffffffffffffffffffffffffffff831115612c2957612c28612be5565b5b602083029250612c3a838584611f4c565b82840190509392505050565b600082825260208201905092915050565b6000819050919050565b600082825260208201905092915050565b6000612c7e8385612c61565b9350612c8b838584611f4c565b612c9483611e8f565b840190509392505050565b6000612cac848484612c72565b90509392505050565b600080fd5b600080fd5b600080fd5b60008083356001602003843603038112612ce157612ce0612cbf565b5b83810192508235915060208301925067ffffffffffffffff821115612d0957612d08612cb5565b5b600182023603841315612d1f57612d1e612cba565b5b509250929050565b6000602082019050919050565b6000612d408385612c46565b935083602084028501612d5284612c57565b8060005b87811015612d98578484038952612d6d8284612cc4565b612d78868284612c9f565b9550612d8384612d27565b935060208b019a505050600181019050612d56565b50829750879450505050509392505050565b600060a0820190508181036000830152612dc5818a8c612b77565b90508181036020830152612dda81888a612bea565b90508181036040830152612def818688612d34565b9050612dfe6060830185611d99565b612e0b6080830184611d99565b9998505050505050505050565b7f54696d656c6f636b436f6e74726f6c6c65723a206f7065726174696f6e20636160008201527f6e6e6f742062652063616e63656c6c6564000000000000000000000000000000602082015250565b6000612e746031836126ee565b9150612e7f82612e18565b604082019050919050565b60006020820190508181036000830152612ea381612e67565b9050919050565b7f54696d656c6f636b436f6e74726f6c6c65723a206f7065726174696f6e20616c60008201527f7265616479207363686564756c65640000000000000000000000000000000000602082015250565b6000612f06602f836126ee565b9150612f1182612eaa565b604082019050919050565b60006020820190508181036000830152612f3581612ef9565b9050919050565b7f54696d656c6f636b436f6e74726f6c6c65723a20696e73756666696369656e7460008201527f2064656c61790000000000000000000000000000000000000000000000000000602082015250565b6000612f986026836126ee565b9150612fa382612f3c565b604082019050919050565b60006020820190508181036000830152612fc781612f8b565b9050919050565b6000612fd982611b5e565b9150612fe483611b5e565b9250827fffffffffffffffffffffffffffffffffffffffffffffffffffffffffffffffff0382111561301957613018612a9a565b5b828201905092915050565b600081905092915050565b7f416363657373436f6e74726f6c3a206163636f756e7420000000000000000000600082015250565b6000613065601783613024565b91506130708261302f565b601782019050919050565b600081519050919050565b60005b838110156130a4578082015181840152602081019050613089565b838111156130b3576000848401525b50505050565b60006130c48261307b565b6130ce8185613024565b93506130de818560208601613086565b80840191505092915050565b7f206973206d697373696e6720726f6c6520000000000000000000000000000000600082015250565b6000613120601183613024565b915061312b826130ea565b601182019050919050565b600061314182613058565b915061314d82856130b9565b915061315882613113565b915061316482846130b9565b91508190509392505050565b600061317b8261307b565b61318581856126ee565b9350613195818560208601613086565b61319e81611e8f565b840191505092915050565b600060208201905081810360008301526131c38184613170565b905092915050565b7f54696d656c6f636b436f6e74726f6c6c65723a206f7065726174696f6e20697360008201527f206e6f7420726561647900000000000000000000000000000000000000000000602082015250565b6000613227602a836126ee565b9150613232826131cb565b604082019050919050565b600060208201905081810360008301526132568161321a565b9050919050565b7f54696d656c6f636b436f6e74726f6c6c65723a206d697373696e67206465706560008201527f6e64656e63790000000000000000000000000000000000000000000000000000602082015250565b60006132b96026836126ee565b91506132c48261325d565b604082019050919050565b600060208201905081810360008301526132e8816132ac565b9050919050565b600081905092915050565b600061330683856132ef565b9350613313838584611f4c565b82840190509392505050565b600061332c8284866132fa565b91508190509392505050565b7f54696d656c6f636b436f6e74726f6c6c65723a20756e6465726c79696e67207460008201527f72616e73616374696f6e20726576657274656400000000000000000000000000602082015250565b60006133946033836126ee565b915061339f82613338565b604082019050919050565b600060208201905081810360008301526133c381613387565b9050919050565b60006133d582611b5e565b91506133e083611b5e565b9250817fffffffffffffffffffffffffffffffffffffffffffffffffffffffffffffffff048311821515161561341957613418612a9a565b5b828202905092915050565b600061342f82611b5e565b91506000820361344257613441612a9a565b5b600182039050919050565b7f537472696e67733a20686578206c656e67746820696e73756666696369656e74600082015250565b60006134836020836126ee565b915061348e8261344d565b602082019050919050565b600060208201905081810360008301526134b281613476565b905091905056fea2646970667358221220cb724c4fda25507f0fb3425fdb1977166049c8fc91607dc33b79a5600f305f8664736f6c634300080d0033","linkReferences":{}},"methodIdentifiers":{"CANCELLER_ROLE()":"b08e51c0","DEFAULT_ADMIN_ROLE()":"a217fddf","EXECUTOR_ROLE()":"07bd0265","PROPOSER_ROLE()":"8f61f4f5","TIMELOCK_ADMIN_ROLE()":"0d3cf6fc","cancel(bytes32)":"c4d252f5","execute(address,uint256,bytes,bytes32,bytes32)":"134008d3","executeBatch(address[],uint256[],bytes[],bytes32,bytes32)":"e38335e5","getMinDelay()":"f27a0c92","getRoleAdmin(bytes32)":"248a9ca3","getTimestamp(bytes32)":"d45c4435","grantRole(bytes32,address)":"2f2ff15d","hasRole(bytes32,address)":"91d14854","hashOperation(address,uint256,bytes,bytes32,bytes32)":"8065657f","hashOperationBatch(address[],uint256[],bytes[],bytes32,bytes32)":"b1c5f427","isOperation(bytes32)":"31d50750","isOperationDone(bytes32)":"2ab0f529","isOperationPending(bytes32)":"584b153e","isOperationReady(bytes32)":"13bc9f20","migrateTo46()":"1fb78738","onERC1155BatchReceived(address,address,uint256[],uint256[],bytes)":"bc197c81","onERC1155Received(address,address,uint256,uint256,bytes)":"f23a6e61","onERC721Received(address,address,uint256,bytes)":"150b7a02","renounceRole(bytes32,address)":"36568abe","revokeRole(bytes32,address)":"d547741f","schedule(address,uint256,bytes,bytes32,bytes32,uint256)":"01d5062a","scheduleBatch(address[],uint256[],bytes[],bytes32,bytes32,uint256)":"8f2a0bb0","supportsInterface(bytes4)":"01ffc9a7","updateDelay(uint256)":"64d62353"},"id":47}