{"abi":[{"type":"constructor","inputs":[{"name":"player","type":"address","internalType":"address"}],"stateMutability":"nonpayable"},{"type":"function","name":"CASINO","inputs":[],"outputs":[{"name":"","type":"address","internalType":"contract Casino"}],"stateMutability":"view"},{"type":"function","name":"PLAYER","inputs":[],"outputs":[{"name":"","type":"address","internalType":"address"}],"stateMutability":"view"},{"type":"function","name":"isSolved","inputs":[],"outputs":[{"name":"","type":"bool","internalType":"bool"}],"stateMutability":"view"}],"bytecode":{"object":"0x60c060405234801561000f575f5ffd5b506040516111e13803806111e183398101604081905261002e91610092565b6001600160a01b038116608052604051339061004990610085565b6001600160a01b039091168152602001604051809103905ff080158015610072573d5f5f3e3d5ffd5b506001600160a01b031660a052506100bf565b610f898061025883390190565b5f602082840312156100a2575f5ffd5b81516001600160a01b03811681146100b8575f5ffd5b9392505050565b60805160a05161016d6100eb5f395f81816048015261010f01525f8181608c015260d3015261016d5ff3fe608060405234801561000f575f5ffd5b506004361061003f575f3560e01c8063014e10ad146100435780630236ca741461008757806364d98f6e146100ae575b5f5ffd5b61006a7f000000000000000000000000000000000000000000000000000000000000000081565b6040516001600160a01b0390911681526020015b60405180910390f35b61006a7f000000000000000000000000000000000000000000000000000000000000000081565b6100b66100c6565b604051901515815260200161007e565b5f68055de6a779bbac00007f00000000000000000000000000000000000000000000000000000000000000006001600160a01b0316311015801561013257506001600160a01b037f00000000000000000000000000000000000000000000000000000000000000001631155b90509056fea2646970667358221220c455e44d3489c95af637f3f0e1b27fa1d651cc659551410579841fc170856ae764736f6c634300081c003360a0604052348015600e575f5ffd5b50604051610f89380380610f89833981016040819052602b91603b565b6001600160a01b03166080526066565b5f60208284031215604a575f5ffd5b81516001600160a01b0381168114605f575f5ffd5b9392505050565b608051610f056100845f395f818160cf015261073c0152610f055ff3fe6080604052600436106100a8575f3560e01c80637e75df8b116100625780637e75df8b146101c0578063befa1e2f146101df578063d4d7b19a146101f4578063f340fa0114610222578063f3fef3a314610235578063fab0039714610254575f5ffd5b8063238ac933146100be57806327e235e31461010e5780632a11ced0146101475780632af674dd146101665780635c975abb146101785780637365870b146101a1575f5ffd5b366100ba576100b8333334610273565b005b5f5ffd5b3480156100c9575f5ffd5b506100f17f000000000000000000000000000000000000000000000000000000000000000081565b6040516001600160a01b0390911681526020015b60405180910390f35b348015610119575f5ffd5b50610139610128366004610c6b565b5f6020819052908152604090205481565b604051908152602001610105565b348015610152575f5ffd5b506100f1610161366004610c8d565b610406565b348015610171575f5ffd5b5047610139565b348015610183575f5ffd5b506005546101919060ff1681565b6040519015158152602001610105565b3480156101ac575f5ffd5b506101916101bb366004610c8d565b61042e565b3480156101cb575f5ffd5b506100b86101da366004610d43565b610550565b3480156101ea575f5ffd5b5061013960035481565b3480156101ff575f5ffd5b5061019161020e366004610c6b565b60016020525f908152604090205460ff1681565b6100b8610230366004610c6b565b610694565b348015610240575f5ffd5b506100b861024f366004610d9e565b6106a2565b34801561025f575f5ffd5b506100b861026e366004610dc8565b6106b1565b60055460ff1615610297576040516313d0ff5960e31b815260040160405180910390fd5b67016345785d8a00008110156102c0576040516316741f0d60e21b815260040160405180910390fd5b3481146102e05760405163162908e360e11b815260040160405180910390fd5b6001600160a01b0382165f9081526001602052604090205460ff1661038657600254606410156103235760405163039133e360e21b815260040160405180910390fd5b6002805460018082019092557f405787fa12a823e0f2b7631cc41b3ba8828b3321ca811111fa75cd3aa3bb5ace0180546001600160a01b0319166001600160a01b0385169081179091555f908152602082905260409020805460ff191690911790555b6001600160a01b0382165f90815260208190526040812080548392906103ad908490610e1e565b92505081905550816001600160a01b0316836001600160a01b03167f5548c837ab068cf56a2c2479df0882a4922fd203edb7517321831d95078c5f62836040516103f991815260200190565b60405180910390a3505050565b60028181548110610415575f80fd5b5f918252602090912001546001600160a01b0316905081565b335f9081526020819052604081205482111561045d5760405163162908e360e11b815260040160405180910390fd5b5f5a6003546040805160208101939093524390830152606082015260800160408051601f19818403018152919052805160209091012090505f6104a1600283610e31565b600114905080156104d557335f90815260208190526040812080548692906104ca908490610e1e565b909155506104f99050565b335f90815260208190526040812080548692906104f3908490610e50565b90915550505b60038054905f61050883610e63565b909155505060408051858152821515602082015233917f9617cace81b9513da7c8288c2084a08ed3c21daafff9d3681243f1fb741a4503910160405180910390a29392505050565b60408051600160208201526001600160a01b03851691810191909152606081018390526080810182905261059890859060a0015b6040516020818303038152906040526106e5565b5f6003819055600254905b8181101561063e575f600282815481106105bf576105bf610e7b565b5f918252602080832091909101546001600160a01b0316808352908290526040808320805490849055905191935019918391839181818185875af1925050503d805f8114610628576040519150601f19603f3d011682016040523d82523d5f602084013e61062d565b606091505b5050600190930192506105a3915050565b506040516001600160a01b0385169084905f81818185875af1925050503d805f8114610685576040519150601f19603f3d011682016040523d82523d5f602084013e61068a565b606091505b5050505050505050565b61069f338234610273565b50565b6106ad3383836107c3565b5050565b604080515f60208201529081018290526106cf908390606001610584565b50506005805460ff19811660ff90911615179055565b6004826040516106f59190610e8f565b9081526040519081900360200190205460ff16156107265760405163900bb2c960e01b815260040160405180910390fd5b5f6107388280519060200120846108f1565b90507f00000000000000000000000000000000000000000000000000000000000000006001600160a01b0316816001600160a01b03161461078c57604051638baa579f60e01b815260040160405180910390fd5b600160048460405161079e9190610e8f565b908152604051908190036020019020805491151560ff19909216919091179055505050565b60055460ff16156107e7576040516313d0ff5960e31b815260040160405180910390fd5b6001600160a01b0383165f9081526020819052604090205481111561081f5760405163162908e360e11b815260040160405180910390fd5b8047101561082a5750475b6001600160a01b0383165f9081526020819052604081208054839290610851908490610e50565b92505081905550816001600160a01b0316836001600160a01b03167f9b1bfa7fa9ee420a16e124f794c35ac9f90472acc99140eb2f6447c714cad8eb8360405161089d91815260200190565b60405180910390a36040516113379082905f81818185875af1925050503d805f81146108e4576040519150601f19603f3d011682016040523d82523d5f602084013e6108e9565b606091505b505050505050565b5f5f5f6108fe8585610915565b9150915061090b81610980565b5090505b92915050565b5f5f8251604103610949576020830151604084015160608501515f1a61093d87828585610b3a565b94509450505050610979565b82516040036109725760208301516040840151610967868383610c1f565b935093505050610979565b505f905060025b9250929050565b5f81600481111561099357610993610ebb565b0361099b5750565b60018160048111156109af576109af610ebb565b03610a015760405162461bcd60e51b815260206004820152601860248201527f45434453413a20696e76616c6964207369676e6174757265000000000000000060448201526064015b60405180910390fd5b6002816004811115610a1557610a15610ebb565b03610a625760405162461bcd60e51b815260206004820152601f60248201527f45434453413a20696e76616c6964207369676e6174757265206c656e6774680060448201526064016109f8565b6003816004811115610a7657610a76610ebb565b03610ace5760405162461bcd60e51b815260206004820152602260248201527f45434453413a20696e76616c6964207369676e6174757265202773272076616c604482015261756560f01b60648201526084016109f8565b6004816004811115610ae257610ae2610ebb565b0361069f5760405162461bcd60e51b815260206004820152602260248201527f45434453413a20696e76616c6964207369676e6174757265202776272076616c604482015261756560f01b60648201526084016109f8565b5f807f7fffffffffffffffffffffffffffffff5d576e7357a4501ddfe92f46681b20a0831115610b6f57505f90506003610c16565b8460ff16601b14158015610b8757508460ff16601c14155b15610b9757505f90506004610c16565b604080515f8082526020820180845289905260ff881692820192909252606081018690526080810185905260019060a0016020604051602081039080840390855afa158015610be8573d5f5f3e3d5ffd5b5050604051601f1901519150506001600160a01b038116610c10575f60019250925050610c16565b91505f90505b94509492505050565b5f806001600160ff1b03831681610c3b60ff86901c601b610e1e565b9050610c4987828885610b3a565b935093505050935093915050565b6001600160a01b038116811461069f575f5ffd5b5f60208284031215610c7b575f5ffd5b8135610c8681610c57565b9392505050565b5f60208284031215610c9d575f5ffd5b5035919050565b634e487b7160e01b5f52604160045260245ffd5b5f82601f830112610cc7575f5ffd5b813567ffffffffffffffff811115610ce157610ce1610ca4565b604051601f8201601f19908116603f0116810167ffffffffffffffff81118282101715610d1057610d10610ca4565b604052818152838201602001851015610d27575f5ffd5b816020850160208301375f918101602001919091529392505050565b5f5f5f5f60808587031215610d56575f5ffd5b843567ffffffffffffffff811115610d6c575f5ffd5b610d7887828801610cb8565b9450506020850135610d8981610c57565b93969395505050506040820135916060013590565b5f5f60408385031215610daf575f5ffd5b8235610dba81610c57565b946020939093013593505050565b5f5f60408385031215610dd9575f5ffd5b823567ffffffffffffffff811115610def575f5ffd5b610dfb85828601610cb8565b95602094909401359450505050565b634e487b7160e01b5f52601160045260245ffd5b8082018082111561090f5761090f610e0a565b5f82610e4b57634e487b7160e01b5f52601260045260245ffd5b500690565b8181038181111561090f5761090f610e0a565b5f60018201610e7457610e74610e0a565b5060010190565b634e487b7160e01b5f52603260045260245ffd5b5f82515f5b81811015610eae5760208186018101518583015201610e94565b505f920191825250919050565b634e487b7160e01b5f52602160045260245ffdfea26469706673582212207a0597dbe174e5b4273b92178cbd806438db7804063b0b232331115b180ba74864736f6c634300081c0033","linkReferences":{}},"methodIdentifiers":{"CASINO()":"014e10ad","PLAYER()":"0236ca74","isSolved()":"64d98f6e"},"id":24}