{"abi":[{"type":"function","name":"ARBSYS","inputs":[],"outputs":[{"name":"","type":"address","internalType":"address"}],"stateMutability":"view"}],"bytecode":{"object":"0x60e3610052600b82828239805160001a607314610045577f4e487b7100000000000000000000000000000000000000000000000000000000600052600060045260246000fd5b30600052607381538281f3fe730000000000000000000000000000000000000000301460806040526004361060335760003560e01c8063bf0a12cf146038575b600080fd5b603e6052565b604051604991906094565b60405180910390f35b606481565b600073ffffffffffffffffffffffffffffffffffffffff82169050919050565b60006080826057565b9050919050565b608e816077565b82525050565b600060208201905060a760008301846087565b9291505056fea264697066735822122096d3311f9e25f9352c6337555760973553cbed9aebfb13ef3a58227640ff895164736f6c634300080d0033","linkReferences":{}},"methodIdentifiers":{"ARBSYS()":"bf0a12cf"},"id":206}