{"abi":[{"type":"constructor","inputs":[{"name":"player","type":"address","internalType":"address"}],"stateMutability":"nonpayable"},{"type":"function","name":"COMPTROLLER","inputs":[],"outputs":[{"name":"","type":"address","internalType":"address"}],"stateMutability":"view"},{"type":"function","name":"CUSDC","inputs":[],"outputs":[{"name":"","type":"address","internalType":"contract IERC20"}],"stateMutability":"view"},{"type":"function","name":"LOCK_MARKETPLACE","inputs":[],"outputs":[{"name":"","type":"address","internalType":"contract LockMarketplace"}],"stateMutability":"view"},{"type":"function","name":"LOCK_TOKEN","inputs":[],"outputs":[{"name":"","type":"address","internalType":"contract LockToken"}],"stateMutability":"view"},{"type":"function","name":"NFT_ID","inputs":[],"outputs":[{"name":"","type":"uint256","internalType":"uint256"}],"stateMutability":"view"},{"type":"function","name":"PLAYER","inputs":[],"outputs":[{"name":"","type":"address","internalType":"address"}],"stateMutability":"view"},{"type":"function","name":"SYSTEM","inputs":[],"outputs":[{"name":"","type":"address","internalType":"address"}],"stateMutability":"view"},{"type":"function","name":"USDC","inputs":[],"outputs":[{"name":"","type":"address","internalType":"contract IERC20"}],"stateMutability":"view"},{"type":"function","name":"deploy","inputs":[],"outputs":[],"stateMutability":"nonpayable"},{"type":"function","name":"deployed","inputs":[],"outputs":[{"name":"","type":"bool","internalType":"bool"}],"stateMutability":"view"},{"type":"function","name":"isSolved","inputs":[],"outputs":[{"name":"","type":"bool","internalType":"bool"}],"stateMutability":"view"},{"type":"function","name":"onERC721Received","inputs":[{"name":"","type":"address","internalType":"address"},{"name":"","type":"address","internalType":"address"},{"name":"","type":"uint256","internalType":"uint256"},{"name":"","type":"bytes","internalType":"bytes"}],"outputs":[{"name":"","type":"bytes4","internalType":"bytes4"}],"stateMutability":"view"}],"bytecode":{"object":"0x60c060405234801561001057600080fd5b50604051615cb5380380615cb583398101604081905261002f91610044565b6001600160a01b03166080523360a052610074565b60006020828403121561005657600080fd5b81516001600160a01b038116811461006d57600080fd5b9392505050565b60805160a051615c076100ae60003960008181610168015261052a015260008181610104015281816104890152610a360152615c076000f3fe60806040523480156200001157600080fd5b5060043610620000c35760003560e01c8063707ddfae116200007a578063707ddfae14620001c1578063775c300c14620001da57806389a3027114620001e6578063a37b9e7f1462000202578063d0da6801146200021e578063f905c15a146200023257600080fd5b8063019894c214620000c85780630236ca7414620000fe578063150b7a02146200012657806351351d5314620001625780635f82c67e146200018a57806364d98f6e14620001a6575b600080fd5b600054620000e19061010090046001600160a01b031681565b6040516001600160a01b0390911681526020015b60405180910390f35b620000e17f000000000000000000000000000000000000000000000000000000000000000081565b620001486200013736600462000b08565b630a85bd0160e11b95945050505050565b6040516001600160e01b03199091168152602001620000f5565b620000e17f000000000000000000000000000000000000000000000000000000000000000081565b620000e1733d9819210a31b4961b30ef54be2aed79b9c9cd3b81565b620001b062000240565b6040519015158152602001620000f5565b620001cb60025481565b604051908152602001620000f5565b620001e46200051f565b005b620000e173a0b86991c6218b36c1d19d4a2e9eb0ce3606eb4881565b620000e17339aa39c021dfbae8fac545936693ac917d5e756381565b600154620000e1906001600160a01b031681565b600054620001b09060ff1681565b60008054600254604051635d528fc360e11b815260048101919091526101009091046001600160a01b03169063baa51f8690602401602060405180830381865afa15801562000293573d6000803e3d6000fd5b505050506040513d601f19601f82011682018060405250810190620002b9919062000bac565b80156200035357506000546040516370a0823160e01b81526101009091046001600160a01b03166004820152662386f26fc10000907339aa39c021dfbae8fac545936693ac917d5e7563906370a0823190602401602060405180830381865afa1580156200032b573d6000803e3d6000fd5b505050506040513d601f19601f8201168201806040525081019062000351919062000bd7565b105b8015620003ea57506000546040516370a0823160e01b81526101009091046001600160a01b031660048201526305f5e1009073a0b86991c6218b36c1d19d4a2e9eb0ce3606eb48906370a0823190602401602060405180830381865afa158015620003c2573d6000803e3d6000fd5b505050506040513d601f19601f82011682018060405250810190620003e8919062000bd7565b105b80156200046a57506040516370a0823160e01b815230600482015273a0b86991c6218b36c1d19d4a2e9eb0ce3606eb48906370a0823190602401602060405180830381865afa15801562000442573d6000803e3d6000fd5b505050506040513d601f19601f8201168201806040525081019062000468919062000bd7565b155b80156200051a57506040516370a0823160e01b81526001600160a01b037f000000000000000000000000000000000000000000000000000000000000000016600482015264e8d4a510009073a0b86991c6218b36c1d19d4a2e9eb0ce3606eb48906370a0823190602401602060405180830381865afa158015620004f2573d6000803e3d6000fd5b505050506040513d601f19601f8201168201806040525081019062000518919062000bd7565b115b905090565b336001600160a01b037f000000000000000000000000000000000000000000000000000000000000000016146200055557600080fd5b6040516370a0823160e01b815230600482015273a0b86991c6218b36c1d19d4a2e9eb0ce3606eb48906370a0823190602401602060405180830381865afa158015620005a5573d6000803e3d6000fd5b505050506040513d601f19601f82011682018060405250810190620005cb919062000bd7565b64e8f3a3a20014620005dc57600080fd5b60005460ff1615620005ed57600080fd5b6000805460ff19166001179055604051620006089062000acf565b604051809103906000f08015801562000625573d6000803e3d6000fd5b5060008054610100600160a81b0319166101006001600160a01b0393841681029190911791829055604051910490911690620006619062000add565b6001600160a01b039091168152602001604051809103906000f0801580156200068e573d6000803e3d6000fd5b50600180546001600160a01b0319166001600160a01b0392831690811790915560005460405163c0c53b8b60e01b815260048101929092527339aa39c021dfbae8fac545936693ac917d5e75636024830152733d9819210a31b4961b30ef54be2aed79b9c9cd3b604483015261010090049091169063c0c53b8b90606401600060405180830381600087803b1580156200072757600080fd5b505af11580156200073c573d6000803e3d6000fd5b50506000546040516305ce195b60e11b81526305f5e10060048201526301c9c38060248201526301312d0060448201526101009091046001600160a01b03169250630b9c32b69150606401600060405180830381600087803b158015620007a257600080fd5b505af1158015620007b7573d6000803e3d6000fd5b50505050600060019054906101000a90046001600160a01b03166001600160a01b0316635379c2e76040518163ffffffff1660e01b8152600401600060405180830381600087803b1580156200080c57600080fd5b505af115801562000821573d6000803e3d6000fd5b505060005460405163095ea7b360e01b81526101009091046001600160a01b0316600482015264e8d5d63d00602482015273a0b86991c6218b36c1d19d4a2e9eb0ce3606eb48925063095ea7b391506044016020604051808303816000875af115801562000893573d6000803e3d6000fd5b505050506040513d601f19601f82011682018060405250810190620008b9919062000bac565b50600054604051635b085e6360e11b815230600482015264e8d5d63d0060248201526101009091046001600160a01b03169063b610bcc6906044016020604051808303816000875af115801562000914573d6000803e3d6000fd5b505050506040513d601f19601f820116820180604052508101906200093a919062000bd7565b600281905560015460005460405163095ea7b360e01b81526001600160a01b03610100909204821660048201526024810193909352169063095ea7b390604401600060405180830381600087803b1580156200099557600080fd5b505af1158015620009aa573d6000803e3d6000fd5b50506000546002546040516307b0472f60e41b8152600481019190915264e8d4a5100060248201526101009091046001600160a01b03169250637b0472f09150604401600060405180830381600087803b15801562000a0857600080fd5b505af115801562000a1d573d6000803e3d6000fd5b505060405163a9059cbb60e01b81526001600160a01b037f0000000000000000000000000000000000000000000000000000000000000000166004820152631dcd6500602482015273a0b86991c6218b36c1d19d4a2e9eb0ce3606eb48925063a9059cbb91506044016020604051808303816000875af115801562000aa6573d6000803e3d6000fd5b505050506040513d601f19601f8201168201806040525081019062000acc919062000bac565b50565b61294b8062000bf283390190565b612695806200353d83390190565b80356001600160a01b038116811462000b0357600080fd5b919050565b60008060008060006080868803121562000b2157600080fd5b62000b2c8662000aeb565b945062000b3c6020870162000aeb565b935060408601359250606086013567ffffffffffffffff8082111562000b6157600080fd5b818801915088601f83011262000b7657600080fd5b81358181111562000b8657600080fd5b89602082850101111562000b9957600080fd5b9699959850939650602001949392505050565b60006020828403121562000bbf57600080fd5b8151801515811462000bd057600080fd5b9392505050565b60006020828403121562000bea57600080fd5b505191905056fe60806040526012805460ff1916905534801561001a57600080fd5b506100243361003a565b6000805460ff60b01b191690556001805561008a565b600080546001600160a01b038381166001600160a01b0319831681178455604051919092169283917f8be0079c531659141344cd1fd0a4f28419497f9722a3daafe3b4186f6b6457e09190a35050565b6128b2806100996000396000f3fe608060405234801561001057600080fd5b50600436106101a95760003560e01c8063873e31fa116100f9578063b610bcc611610097578063c895b8eb11610071578063c895b8eb14610398578063d9393814146103a0578063e740010f146103b3578063f2fde38b146103c657600080fd5b8063b610bcc61461034f578063baa51f8614610362578063c0c53b8b1461038557600080fd5b806392b7942b116100d357806392b7942b146103015780639f9fb96814610314578063acada2f414610334578063b33712c51461034757600080fd5b8063873e31fa146102aa57806388e08665146102d35780638da5cb5b146102e657600080fd5b80635c975abb11610166578063715018a611610140578063715018a6146102735780637a4fad741461027b5780637b0472f01461028e5780637d882097146102a157600080fd5b80635c975abb146102355780636a527072146102535780636fd556e81461026a57600080fd5b80630b9c32b6146101ae578063150b7a02146101c35780632023e673146101ff578063439766ce146102125780635379c2e71461021a5780635390271514610222575b600080fd5b6101c16101bc366004612439565b6103d9565b005b6101e16101d13660046124c1565b630a85bd0160e11b949350505050565b6040516001600160e01b031990911681526020015b60405180910390f35b6101c161020d366004612439565b61042f565b6101c1610445565b6101c1610457565b6101c1610230366004612593565b610528565b600054600160b01b900460ff165b60405190151581526020016101f6565b61025c600f5481565b6040519081526020016101f6565b61025c60105481565b6101c1610573565b6101c16102893660046125c3565b610585565b6101c161029c3660046125e8565b6105de565b61025c60115481565b61025c6102b836600461260a565b6001600160a01b03166000908152600b602052604090205490565b6101c16102e13660046125e8565b6108b8565b6000546040516001600160a01b0390911681526020016101f6565b61025c61030f3660046125e8565b610b61565b61025c610322366004612627565b60009081526006602052604090205490565b6101c161034236600461260a565b610f32565b6101c1610fbb565b61025c61035d366004612640565b610fcb565b610243610370366004612627565b60009081526007602052604090205460ff1690565b6101c161039336600461266c565b61129b565b6101c16114f7565b6101c16103ae366004612640565b611536565b6101c16103c13660046125e8565b61176a565b6101c16103d436600461260a565b61190d565b6103e1611986565b6103e96119d3565b60125460ff161561040d5760405163764c7cf560e11b815260040160405180910390fd5b60006011556012805460ff1916600117905561042a83838361042f565b505050565b6104376119d3565b600f92909255601055600d55565b61044d6119d3565b610455611a2d565b565b61045f6119d3565b60408051600180825281830190925260009160208083019080368337505060035482519293506001600160a01b0316918391506000906104a1576104a16126b7565b6001600160a01b03928316602091820292909201015260048054604051631853304760e31b815292169163c2998238916104dd918591016126cd565b6000604051808303816000875af11580156104fc573d6000803e3d6000fd5b505050506040513d6000823e601f3d908101601f19168201604052610524919081019061271a565b5050565b6005546001600160a01b0316331461055357604051633d0f0d9f60e21b815260040160405180910390fd5b600091825260076020526040909120805460ff1916911515919091179055565b61057b6119d3565b6104556000611a8d565b6005546001600160a01b031633146105b057604051633d0f0d9f60e21b815260040160405180910390fd5b6000918252600a602052604090912080546001600160a01b0319166001600160a01b03909216919091179055565b6105e6611986565b60125460ff1661060957604051635a90bb8d60e11b815260040160405180910390fd5b610611611add565b600554604051637c27433b60e11b8152336004820152602481018490526001600160a01b039091169063f84e867690604401602060405180830381865afa158015610660573d6000803e3d6000fd5b505050506040513d601f19601f8201168201806040525081019061068491906127c0565b5060008281526007602052604090205460ff16156106e05760405162461bcd60e51b8152602060048201526014602482015273151bdad95b88185b1c9958591e481cdd185ad95960621b60448201526064015b60405180910390fd5b6000828152600660205260409020548111156107345760405162461bcd60e51b81526020600482015260136024820152724e6f7420656e6f756768206465706f7369747360681b60448201526064016106d7565b6010548110156107865760405162461bcd60e51b815260206004820152601960248201527f496e73756666696369656e74207374616b6520616d6f756e740000000000000060448201526064016106d7565b60008281526008602090815260408083208490556009825280832080546001600160a01b03191633179055600790915290819020805460ff1916600117905560055490516331a9108f60e11b8152600481018490526001600160a01b03909116906323b872dd908290636352211e90602401602060405180830381865afa158015610815573d6000803e3d6000fd5b505050506040513d601f19601f8201168201806040525081019061083991906127dd565b30856040518463ffffffff1660e01b8152600401610859939291906127fa565b600060405180830381600087803b15801561087357600080fd5b505af1158015610887573d6000803e3d6000fd5b5050506000838152600a60205260409020546108ae91506001600160a01b03168284611b36565b5061052460018055565b6108c0611986565b60125460ff166108e357604051635a90bb8d60e11b815260040160405180910390fd5b6108eb611add565b600554604051637c27433b60e11b8152336004820152602481018490526001600160a01b039091169063f84e867690604401602060405180830381865afa15801561093a573d6000803e3d6000fd5b505050506040513d601f19601f8201168201806040525081019061095e91906127c0565b5060008281526007602052604090205460ff16156109b35760405162461bcd60e51b8152602060048201526012602482015271151bdad95b881cdd1a5b1b081cdd185ad95960721b60448201526064016106d7565b600082815260066020526040902054811115610a215760405162461bcd60e51b815260206004820152602760248201527f5769746864726177616c2067726561746572207468616e206465706f73697465604482015266642076616c756560c81b60648201526084016106d7565b80600003610a6a5760405162461bcd60e51b815260206004820152601660248201527543616e6e6f742077697468647261772030205553444360501b60448201526064016106d7565b610a748282611f08565b60025460405163095ea7b360e01b8152306004820152602481018390526001600160a01b039091169063095ea7b3906044016020604051808303816000875af1158015610ac5573d6000803e3d6000fd5b505050506040513d601f19601f82011682018060405250810190610ae991906127c0565b506002546040516323b872dd60e01b81526001600160a01b03909116906323b872dd90610b1e903090339086906004016127fa565b6020604051808303816000875af1158015610b3d573d6000803e3d6000fd5b505050506040513d601f19601f820116820180604052508101906108ae91906127c0565b6000610b6b611986565b60125460ff16610b8e57604051635a90bb8d60e11b815260040160405180910390fd5b610b96611add565b600554604051637c27433b60e11b8152336004820152602481018590526001600160a01b039091169063f84e867690604401602060405180830381865afa158015610be5573d6000803e3d6000fd5b505050506040513d601f19601f82011682018060405250810190610c0991906127c0565b5060008381526007602052604090205460ff1615610c5e5760405162461bcd60e51b8152602060048201526012602482015271151bdad95b881cdd1a5b1b081cdd185ad95960721b60448201526064016106d7565b60008211610c9b5760405162461bcd60e51b815260206004820152600a6024820152694e6f205265776172647360b01b60448201526064016106d7565b336000908152600b6020526040902054821115610d145760405162461bcd60e51b815260206004820152603160248201527f526564656d6d696e67206d6f72652072657761726473207468616e20617661696044820152701b18589b1948199bdc881858d8dbdd5b9d607a1b60648201526084016106d7565b610d1e8383611f08565b60025460405163095ea7b360e01b8152306004820152602481018490526001600160a01b039091169063095ea7b3906044016020604051808303816000875af1158015610d6f573d6000803e3d6000fd5b505050506040513d601f19601f82011682018060405250810190610d9391906127c0565b506002546040516370a0823160e01b81523060048201526000916001600160a01b0316906370a0823190602401602060405180830381865afa158015610ddd573d6000803e3d6000fd5b505050506040513d601f19601f82011682018060405250810190610e01919061281e565b6002546040516323b872dd60e01b81529192506001600160a01b0316906323b872dd90610e36903090339088906004016127fa565b6020604051808303816000875af1158015610e55573d6000803e3d6000fd5b505050506040513d601f19601f82011682018060405250810190610e7991906127c0565b506002546040516370a0823160e01b8152306004820152600091610ef39184916001600160a01b0316906370a08231906024015b602060405180830381865afa158015610eca573d6000803e3d6000fd5b505050506040513d601f19601f82011682018060405250810190610eee919061281e565b611f9b565b336000908152600b6020526040902054909150610f109082611f9b565b336000908152600b6020526040902055915050610f2c60018055565b92915050565b610f3a6119d3565b600254600e546040516323b872dd60e01b81526001600160a01b03909216916323b872dd91610f6f91309186916004016127fa565b6020604051808303816000875af1158015610f8e573d6000803e3d6000fd5b505050506040513d601f19601f82011682018060405250810190610fb291906127c0565b50506000600e55565b610fc36119d3565b610455611fc1565b6000610fd5611986565b60125460ff16610ff857604051635a90bb8d60e11b815260040160405180910390fd5b611000611add565b600f548210156110685760405162461bcd60e51b815260206004820152602d60248201527f4d696e7420616d6f756e74206c657373207468616e206d696e696d756d20696e60448201526c1a5d1a585b0819195c1bdcda5d609a1b60648201526084016106d7565b61107482600d54611f9b565b9150600d54600e600082825461108a919061284d565b909155505060055460408051636e02007d60e01b815290516000926001600160a01b031691636e02007d916004808301926020929190829003018187875af11580156110da573d6000803e3d6000fd5b505050506040513d601f19601f820116820180604052508101906110fe919061281e565b61110990600161284d565b6005546040516335313c2160e11b81526001600160a01b038781166004830152929350911690636a62784290602401600060405180830381600087803b15801561115257600080fd5b505af1158015611166573d6000803e3d6000fd5b505050506111748184611ffd565b600254600d546001600160a01b039091169063095ea7b3903090611198908761284d565b6040516001600160e01b031960e085901b1681526001600160a01b03909216600483015260248201526044016020604051808303816000875af11580156111e3573d6000803e3d6000fd5b505050506040513d601f19601f8201168201806040525081019061120791906127c0565b50600254600d546001600160a01b03909116906323b872dd903390309061122e908861284d565b6040518463ffffffff1660e01b815260040161124c939291906127fa565b6020604051808303816000875af115801561126b573d6000803e3d6000fd5b505050506040513d601f19601f8201168201806040525081019061128f91906127c0565b509050610f2c60018055565b600054600160a81b900460ff16158080156112c357506000546001600160a01b90910460ff16105b806112e45750303b1580156112e45750600054600160a01b900460ff166001145b6113475760405162461bcd60e51b815260206004820152602e60248201527f496e697469616c697a61626c653a20636f6e747261637420697320616c72656160448201526d191e481a5b9a5d1a585b1a5e995960921b60648201526084016106d7565b6000805460ff60a01b1916600160a01b1790558015611374576000805460ff60a81b1916600160a81b1790555b61137c6119d3565b6001600160a01b0384166113a35760405163d92e233d60e01b815260040160405180910390fd5b6001600160a01b0383166113ca5760405163d92e233d60e01b815260040160405180910390fd5b6001600160a01b0382166113f15760405163d92e233d60e01b815260040160405180910390fd5b600580546001600160a01b038087166001600160a01b031992831617909255600480548584169083161781556003805493871693909216831790915560408051636f307dc360e01b81529051636f307dc3928281019260209291908290030181865afa158015611465573d6000803e3d6000fd5b505050506040513d601f19601f8201168201806040525081019061148991906127dd565b600280546001600160a01b0319166001600160a01b039290921691909117905580156114f1576000805460ff60a81b19169055604051600181527f7f26b83ff96e1f2b6a682f133852f6798a09c465da95921460cefb38474024989060200160405180910390a15b50505050565b6114ff611986565b60125460ff1661152257604051635a90bb8d60e11b815260040160405180910390fd5b61152a6119d3565b6012805460ff19169055565b61153e611986565b60125460ff1661156157604051635a90bb8d60e11b815260040160405180910390fd5b611569611add565b60008181526007602052604090205460ff166115ba5760405162461bcd60e51b815260206004820152601060248201526f151bdad95b881b9bdd081cdd185ad95960821b60448201526064016106d7565b6000818152600960205260409020546001600160a01b03163314806115f557506000818152600a60205260409020546001600160a01b031633145b6116415760405162461bcd60e51b815260206004820152601a60248201527f43616c6c6572206973206e6f7420746f6b656e207374616b657200000000000060448201526064016106d7565b306001600160a01b038316036116995760405162461bcd60e51b815260206004820152601d60248201527f43616e6e6f7420756e7374616b6520746f206d61726b6574706c61636500000060448201526064016106d7565b60008181526009602052604080822080546001600160a01b03191690556005549051635c46a7ef60e11b81523060048201526001600160a01b0385811660248301526044820185905260806064830152608482019390935291169063b88d4fde9060a401600060405180830381600087803b15801561171757600080fd5b505af115801561172b573d6000803e3d6000fd5b5050506000828152600a602052604090205461175191506001600160a01b03168261208c565b5060008181526008602052604081205561052460018055565b611772611986565b60125460ff1661179557604051635a90bb8d60e11b815260040160405180910390fd5b61179d611add565b806000036117e55760405162461bcd60e51b815260206004820152601560248201527443616e6e6f74206465706f7369742030205553444360581b60448201526064016106d7565b600554604051637c27433b60e11b8152336004820152602481018490526001600160a01b039091169063f84e867690604401602060405180830381865afa158015611834573d6000803e3d6000fd5b505050506040513d601f19601f8201168201806040525081019061185891906127c0565b506118638282611ffd565b60025460405163095ea7b360e01b8152306004820152602481018390526001600160a01b039091169063095ea7b3906044016020604051808303816000875af11580156118b4573d6000803e3d6000fd5b505050506040513d601f19601f820116820180604052508101906118d891906127c0565b506002546040516323b872dd60e01b81526001600160a01b03909116906323b872dd90610b1e903390309086906004016127fa565b6119156119d3565b6001600160a01b03811661197a5760405162461bcd60e51b815260206004820152602660248201527f4f776e61626c653a206e6577206f776e657220697320746865207a65726f206160448201526564647265737360d01b60648201526084016106d7565b61198381611a8d565b50565b600054600160b01b900460ff16156104555760405162461bcd60e51b815260206004820152601060248201526f14185d5cd8589b194e881c185d5cd95960821b60448201526064016106d7565b6000546001600160a01b031633146104555760405162461bcd60e51b815260206004820181905260248201527f4f776e61626c653a2063616c6c6572206973206e6f7420746865206f776e657260448201526064016106d7565b611a35611986565b6000805460ff60b01b1916600160b01b1790557f62e78cea01bee320cd4e420270b5ea74000d11b0c9f74754ebdbfc544b05a258611a703390565b6040516001600160a01b03909116815260200160405180910390a1565b600080546001600160a01b038381166001600160a01b0319831681178455604051919092169283917f8be0079c531659141344cd1fd0a4f28419497f9722a3daafe3b4186f6b6457e09190a35050565b600260015403611b2f5760405162461bcd60e51b815260206004820152601f60248201527f5265656e7472616e637947756172643a207265656e7472616e742063616c6c0060448201526064016106d7565b6002600155565b600081815260086020908152604080832054600690925282205410801590611b6c57506000828152600860205260409020548311155b611bc75760405162461bcd60e51b815260206004820152602660248201527f4d696e74696e67206d6f7265204355534443207468616e206465706f7369746560448201526564205553444360d01b60648201526084016106d7565b6002546040516370a0823160e01b81523060048201526000916001600160a01b0316906370a0823190602401602060405180830381865afa158015611c10573d6000803e3d6000fd5b505050506040513d601f19601f82011682018060405250810190611c34919061281e565b6003546040516370a0823160e01b81523060048201529192506000916001600160a01b03909116906370a0823190602401602060405180830381865afa158015611c82573d6000803e3d6000fd5b505050506040513d601f19601f82011682018060405250810190611ca6919061281e565b60025460035460405163095ea7b360e01b81526001600160a01b03918216600482015260248101899052929350169063095ea7b3906044016020604051808303816000875af1158015611cfd573d6000803e3d6000fd5b505050506040513d601f19601f82011682018060405250810190611d2191906127c0565b5060035460405163140e25ad60e31b8152600481018790526001600160a01b039091169063a0712d68906024016020604051808303816000875af1158015611d6d573d6000803e3d6000fd5b505050506040513d601f19601f82011682018060405250810190611d91919061281e565b15611dd25760405162461bcd60e51b8152602060048201526011602482015270135a5b9d0810d554d110c819985a5b1959607a1b60448201526064016106d7565b6002546040516370a0823160e01b8152306004820152600091611e099185916001600160a01b0316906370a0823190602401610ead565b9050611e158582611f08565b6003546040516370a0823160e01b8152306004820152600091611e8e916001600160a01b03909116906370a0823190602401602060405180830381865afa158015611e64573d6000803e3d6000fd5b505050506040513d601f19601f82011682018060405250810190611e88919061281e565b84611f9b565b6001600160a01b0389166000908152600c6020526040812080549293508392909190611ebb90849061284d565b90915550506001600160a01b0388166000908152600b6020526040902054611ee39083611f9b565b6001600160a01b0389166000908152600b602052604090205593505050509392505050565b81600003611f295760405163163a09e160e31b815260040160405180910390fd5b600082815260066020526040902054611f429082611f9b565b600083815260066020526040902055601154611f5e9082611f9b565b60115560405181815282907f56ca301a9219608c91e7bcee90e083c19671d2cdcc96752c7af291cee5f9c8c8906020015b60405180910390a25050565b600081831015611fac576000611fba565b611fb68284612865565b9250825b9392505050565b611fc96123e9565b6000805460ff60b01b191690557f5db9ee0a495bf2e6ff9c91a7834c1ba4fdd244a5e8aa4e537bd38aeae4b073aa33611a70565b8160000361201e5760405163163a09e160e31b815260040160405180910390fd5b6000828152600660205260408120805483929061203c90849061284d565b925050819055508060116000828254612055919061284d565b909155505060405181815282907fa3af609bf46297028ce551832669030f9effef2b02606d02cbbcc40fe6b47c5590602001611f8f565b6003546040516370a0823160e01b815230600482015260009182916001600160a01b03909116906370a0823190602401602060405180830381865afa1580156120d9573d6000803e3d6000fd5b505050506040513d601f19601f820116820180604052508101906120fd919061281e565b6002546040516370a0823160e01b81523060048201529192506000916001600160a01b03909116906370a0823190602401602060405180830381865afa15801561214b573d6000803e3d6000fd5b505050506040513d601f19601f8201168201806040525081019061216f919061281e565b6003546005546040516331a9108f60e11b8152600481018890529293506001600160a01b039182169263db006a7592600c92600092911690636352211e90602401602060405180830381865afa1580156121cd573d6000803e3d6000fd5b505050506040513d601f19601f820116820180604052508101906121f191906127dd565b6001600160a01b03166001600160a01b03168152602001908152602001600020546040518263ffffffff1660e01b815260040161223091815260200190565b6020604051808303816000875af115801561224f573d6000803e3d6000fd5b505050506040513d601f19601f82011682018060405250810190612273919061281e565b156122b65760405162461bcd60e51b815260206004820152601360248201527214995919595b4810d554d110c811985a5b1959606a1b60448201526064016106d7565b6002546040516370a0823160e01b815230600482015260009161232f916001600160a01b03909116906370a0823190602401602060405180830381865afa158015612305573d6000803e3d6000fd5b505050506040513d601f19601f82011682018060405250810190612329919061281e565b83611f9b565b905061233b8582611ffd565b6001600160a01b0386166000908152600b60205260408120805483929061236390849061284d565b90915550506003546040516370a0823160e01b815230600482015260009161239f9186916001600160a01b0316906370a0823190602401610ead565b6001600160a01b0388166000908152600c60205260409020549091506123c59082611f9b565b6001600160a01b0388166000908152600c6020526040902055509250505092915050565b600054600160b01b900460ff166104555760405162461bcd60e51b815260206004820152601460248201527314185d5cd8589b194e881b9bdd081c185d5cd95960621b60448201526064016106d7565b60008060006060848603121561244e57600080fd5b505081359360208301359350604090920135919050565b6001600160a01b038116811461198357600080fd5b634e487b7160e01b600052604160045260246000fd5b604051601f8201601f1916810167ffffffffffffffff811182821017156124b9576124b961247a565b604052919050565b600080600080608085870312156124d757600080fd5b84356124e281612465565b93506020858101356124f381612465565b935060408601359250606086013567ffffffffffffffff8082111561251757600080fd5b818801915088601f83011261252b57600080fd5b81358181111561253d5761253d61247a565b61254f601f8201601f19168501612490565b9150808252898482850101111561256557600080fd5b808484018584013760008482840101525080935050505092959194509250565b801515811461198357600080fd5b600080604083850312156125a657600080fd5b8235915060208301356125b881612585565b809150509250929050565b600080604083850312156125d657600080fd5b8235915060208301356125b881612465565b600080604083850312156125fb57600080fd5b50508035926020909101359150565b60006020828403121561261c57600080fd5b8135611fba81612465565b60006020828403121561263957600080fd5b5035919050565b6000806040838503121561265357600080fd5b823561265e81612465565b946020939093013593505050565b60008060006060848603121561268157600080fd5b833561268c81612465565b9250602084013561269c81612465565b915060408401356126ac81612465565b809150509250925092565b634e487b7160e01b600052603260045260246000fd5b6020808252825182820181905260009190848201906040850190845b8181101561270e5783516001600160a01b0316835292840192918401916001016126e9565b50909695505050505050565b6000602080838503121561272d57600080fd5b825167ffffffffffffffff8082111561274557600080fd5b818501915085601f83011261275957600080fd5b81518181111561276b5761276b61247a565b8060051b915061277c848301612490565b818152918301840191848101908884111561279657600080fd5b938501935b838510156127b45784518252938501939085019061279b565b98975050505050505050565b6000602082840312156127d257600080fd5b8151611fba81612585565b6000602082840312156127ef57600080fd5b8151611fba81612465565b6001600160a01b039384168152919092166020820152604081019190915260600190565b60006020828403121561283057600080fd5b5051919050565b634e487b7160e01b600052601160045260246000fd5b6000821982111561286057612860612837565b500190565b60008282101561287757612877612837565b50039056fea2646970667358221220cf5247d7eb06bfc00740899b2f011f3ff7bcdcf5a6233d4938dd974c92a6c14464736f6c634300080d003360806040523480156200001157600080fd5b506040516200269538038062002695833981016040819052620000349162000258565b604080518082018252600a8152692627a1a5902a37b5b2b760b11b6020808301918252835180850190945260038452624c434b60e81b9084015281519192916200008191600091620001b2565b50805162000097906001906020840190620001b2565b5050600a805460ff19169055506001600c55620000b66000336200010d565b600e80546001600160a01b0319166001600160a01b03831690811790915562000101907f0ea61da3a8a09ad801432653699f8c1860b1ae9d2ea4a141fadfd63227717bc8906200010d565b506000600d55620002c6565b6000828152600b602090815260408083206001600160a01b038516845290915290205460ff16620001ae576000828152600b602090815260408083206001600160a01b03851684529091529020805460ff191660011790556200016d3390565b6001600160a01b0316816001600160a01b0316837f2f8788117e7eff1d82e926ec794901d17c78024a50270940304540a733656f0d60405160405180910390a45b5050565b828054620001c0906200028a565b90600052602060002090601f016020900481019282620001e457600085556200022f565b82601f10620001ff57805160ff19168380011785556200022f565b828001600101855582156200022f579182015b828111156200022f57825182559160200191906001019062000212565b506200023d92915062000241565b5090565b5b808211156200023d576000815560010162000242565b6000602082840312156200026b57600080fd5b81516001600160a01b03811681146200028357600080fd5b9392505050565b600181811c908216806200029f57607f821691505b602082108103620002c057634e487b7160e01b600052602260045260246000fd5b50919050565b6123bf80620002d66000396000f3fe608060405234801561001057600080fd5b50600436106101f05760003560e01c80636a6278421161010f578063a22cb465116100a2578063d547741f11610071578063d547741f14610412578063e985e9c514610425578063eb63631714610461578063f84e86761461047457600080fd5b8063a22cb465146103b2578063b88d4fde146103c5578063c3439f3f146103d8578063c87b56dd146103ff57600080fd5b806384c4bd4b116100de57806384c4bd4b1461038657806391d148541461038f57806395d89b41146103a2578063a217fddf146103aa57600080fd5b80636a627842146103505780636e02007d1461036357806370a082311461036b5780638456cb591461037e57600080fd5b80632f2ff15d1161018757806342842e0e1161015657806342842e0e1461030c5780634f6ccce71461031f5780635c975abb146103325780636352211e1461033d57600080fd5b80632f2ff15d146102cb5780632f745c59146102de57806336568abe146102f15780633f4ba83a1461030457600080fd5b80630d21bcd5116101c35780630d21bcd51461027257806318160ddd1461028357806323b872dd14610295578063248a9ca3146102a857600080fd5b806301ffc9a7146101f557806306fdde031461021d578063081812fc14610232578063095ea7b31461025d575b600080fd5b610208610203366004611e04565b610487565b60405190151581526020015b60405180910390f35b610225610498565b6040516102149190611e79565b610245610240366004611e8c565b61052a565b6040516001600160a01b039091168152602001610214565b61027061026b366004611ec1565b610551565b005b600e546001600160a01b0316610245565b6008545b604051908152602001610214565b6102706102a3366004611eeb565b61066b565b6102876102b6366004611e8c565b6000908152600b602052604090206001015490565b6102706102d9366004611f27565b61069c565b6102876102ec366004611ec1565b6106c1565b6102706102ff366004611f27565b610757565b6102706107d5565b61027061031a366004611eeb565b6107eb565b61028761032d366004611e8c565b610806565b600a5460ff16610208565b61024561034b366004611e8c565b610899565b61027061035e366004611f53565b6108f9565b600d54610287565b610287610379366004611f53565b61095c565b6102706109e2565b610287600d5481565b61020861039d366004611f27565b6109f5565b610225610a20565b610287600081565b6102706103c0366004611f6e565b610a2f565b6102706103d3366004611fc0565b610a3a565b6102877f0ea61da3a8a09ad801432653699f8c1860b1ae9d2ea4a141fadfd63227717bc881565b61022561040d366004611e8c565b610a72565b610270610420366004611f27565b610ae6565b61020861043336600461209c565b6001600160a01b03918216600090815260056020908152604080832093909416825291909152205460ff1690565b61027061046f366004611f53565b610b0b565b610208610482366004611ec1565b610b39565b600061049282610b9f565b92915050565b6060600080546104a7906120c6565b80601f01602080910402602001604051908101604052809291908181526020018280546104d3906120c6565b80156105205780601f106104f557610100808354040283529160200191610520565b820191906000526020600020905b81548152906001019060200180831161050357829003601f168201915b5050505050905090565b600061053582610bc4565b506000908152600460205260409020546001600160a01b031690565b600061055c82610899565b9050806001600160a01b0316836001600160a01b0316036105ce5760405162461bcd60e51b815260206004820152602160248201527f4552433732313a20617070726f76616c20746f2063757272656e74206f776e656044820152603960f91b60648201526084015b60405180910390fd5b336001600160a01b03821614806105ea57506105ea8133610433565b61065c5760405162461bcd60e51b815260206004820152603d60248201527f4552433732313a20617070726f76652063616c6c6572206973206e6f7420746f60448201527f6b656e206f776e6572206f7220617070726f76656420666f7220616c6c00000060648201526084016105c5565b6106668383610c23565b505050565b6106753382610c91565b6106915760405162461bcd60e51b81526004016105c590612100565b610666838383610d10565b6000828152600b60205260409020600101546106b781610e81565b6106668383610e8b565b60006106cc8361095c565b821061072e5760405162461bcd60e51b815260206004820152602b60248201527f455243373231456e756d657261626c653a206f776e657220696e646578206f7560448201526a74206f6620626f756e647360a81b60648201526084016105c5565b506001600160a01b03919091166000908152600660209081526040808320938352929052205490565b6001600160a01b03811633146107c75760405162461bcd60e51b815260206004820152602f60248201527f416363657373436f6e74726f6c3a2063616e206f6e6c792072656e6f756e636560448201526e103937b632b9903337b91039b2b63360891b60648201526084016105c5565b6107d18282610f11565b5050565b60006107e081610e81565b6107e8610f78565b50565b61066683838360405180602001604052806000815250610a3a565b600061081160085490565b82106108745760405162461bcd60e51b815260206004820152602c60248201527f455243373231456e756d657261626c653a20676c6f62616c20696e646578206f60448201526b7574206f6620626f756e647360a01b60648201526084016105c5565b600882815481106108875761088761214d565b90600052602060002001549050919050565b6000818152600260205260408120546001600160a01b0316806104925760405162461bcd60e51b8152602060048201526018602482015277115490cdcc8c4e881a5b9d985b1a59081d1bdad95b88125160421b60448201526064016105c5565b7f0ea61da3a8a09ad801432653699f8c1860b1ae9d2ea4a141fadfd63227717bc861092381610e81565b61092c82610fca565b6001600d600082825461093f9190612179565b9091555050600d5461095090611035565b6107d182600d54611091565b60006001600160a01b0382166109c65760405162461bcd60e51b815260206004820152602960248201527f4552433732313a2061646472657373207a65726f206973206e6f7420612076616044820152683634b21037bbb732b960b91b60648201526084016105c5565b506001600160a01b031660009081526003602052604090205490565b60006109ed81610e81565b6107e86110ab565b6000918252600b602090815260408084206001600160a01b0393909316845291905290205460ff1690565b6060600180546104a7906120c6565b6107d13383836110e8565b610a443383610c91565b610a605760405162461bcd60e51b81526004016105c590612100565b610a6c848484846111b6565b50505050565b6060610a7d82610bc4565b6000610a9460408051602081019091526000815290565b90506000815111610ab45760405180602001604052806000815250610adf565b80610abe846111e9565b604051602001610acf929190612191565b6040516020818303038152906040525b9392505050565b6000828152600b6020526040902060010154610b0181610e81565b6106668383610f11565b6000610b1681610e81565b50600e80546001600160a01b0319166001600160a01b0392909216919091179055565b6000610b458383610c91565b6104925760405162461bcd60e51b815260206004820152602560248201527f43616c6c6572206973206e6f7420746f6b656e206f776e6572206f72206170706044820152641c9bdd995960da1b60648201526084016105c5565b60006001600160e01b03198216637965db0b60e01b148061049257506104928261127c565b6000818152600260205260409020546001600160a01b03166107e85760405162461bcd60e51b8152602060048201526018602482015277115490cdcc8c4e881a5b9d985b1a59081d1bdad95b88125160421b60448201526064016105c5565b600081815260046020526040902080546001600160a01b0319166001600160a01b0384169081179091558190610c5882610899565b6001600160a01b03167f8c5be1e5ebec7d5bd14f71427d1e84f3dd0314c0f7b2291e5b200ac8c7c3b92560405160405180910390a45050565b600080610c9d83610899565b9050806001600160a01b0316846001600160a01b03161480610ce457506001600160a01b0380821660009081526005602090815260408083209388168352929052205460ff165b80610d085750836001600160a01b0316610cfd8461052a565b6001600160a01b0316145b949350505050565b826001600160a01b0316610d2382610899565b6001600160a01b031614610d495760405162461bcd60e51b81526004016105c5906121c0565b6001600160a01b038216610dab5760405162461bcd60e51b8152602060048201526024808201527f4552433732313a207472616e7366657220746f20746865207a65726f206164646044820152637265737360e01b60648201526084016105c5565b610db883838360016112a1565b826001600160a01b0316610dcb82610899565b6001600160a01b031614610df15760405162461bcd60e51b81526004016105c5906121c0565b600081815260046020908152604080832080546001600160a01b03199081169091556001600160a01b0387811680865260038552838620805460001901905590871680865283862080546001019055868652600290945282852080549092168417909155905184937fddf252ad1be2c89b69c2b068fc378daa952ba7f163c4a11628f55a4df523b3ef91a4505050565b6107e8813361149d565b610e9582826109f5565b6107d1576000828152600b602090815260408083206001600160a01b03851684529091529020805460ff19166001179055610ecd3390565b6001600160a01b0316816001600160a01b0316837f2f8788117e7eff1d82e926ec794901d17c78024a50270940304540a733656f0d60405160405180910390a45050565b610f1b82826109f5565b156107d1576000828152600b602090815260408083206001600160a01b0385168085529252808320805460ff1916905551339285917ff6391f5c32d9c69d2a47ea670b442974b53935d1edc7fd64eb21e047a839171b9190a45050565b610f806114f6565b600a805460ff191690557f5db9ee0a495bf2e6ff9c91a7834c1ba4fdd244a5e8aa4e537bd38aeae4b073aa335b6040516001600160a01b03909116815260200160405180910390a1565b600e546001600160a01b038281169116146107e857610fe88161095c565b156107e85760405162461bcd60e51b815260206004820152601c60248201527f4f6e6c79206f6e6520766f75636865722070657220616464726573730000000060448201526064016105c5565b6000818152600260205260409020546001600160a01b0316156107e85760405162461bcd60e51b8152602060048201526014602482015273151bdad95b88185b1c9958591e481b5a5b9d195960621b60448201526064016105c5565b6107d1828260405180602001604052806000815250611541565b6110b3611574565b600a805460ff191660011790557f62e78cea01bee320cd4e420270b5ea74000d11b0c9f74754ebdbfc544b05a258610fad3390565b816001600160a01b0316836001600160a01b0316036111495760405162461bcd60e51b815260206004820152601960248201527f4552433732313a20617070726f766520746f2063616c6c65720000000000000060448201526064016105c5565b6001600160a01b03838116600081815260056020908152604080832094871680845294825291829020805460ff191686151590811790915591519182527f17307eab39ab6107e8899845ad3d59bd9653f200f220920489ca2b5937696c31910160405180910390a3505050565b6111c1848484610d10565b6111cd848484846115ba565b610a6c5760405162461bcd60e51b81526004016105c590612205565b606060006111f6836116bb565b600101905060008167ffffffffffffffff81111561121657611216611faa565b6040519080825280601f01601f191660200182016040528015611240576020820181803683370190505b5090508181016020015b600019016f181899199a1a9b1b9c1cb0b131b232b360811b600a86061a8153600a850494508461124a57509392505050565b60006001600160e01b0319821663780e9d6360e01b1480610492575061049282611793565b6112ad848484846117e3565b6112b683610fca565b826001600160a01b0316846001600160a01b0316036113045760405162461bcd60e51b815260206004820152600a60248201526966726f6d203d3d20746f60b01b60448201526064016105c5565b6000828152600260205260409020546001600160a01b031615610a6c57600e546001600160a01b03908116908516036113a157600e54604051635390271560e01b815260048101849052600060248201526001600160a01b0390911690635390271590604401600060405180830381600087803b15801561138457600080fd5b505af1158015611398573d6000803e3d6000fd5b5050505061141c565b600e546001600160a01b0316637a4fad74836113bc81610899565b6040516001600160e01b031960e085901b16815260048101929092526001600160a01b03166024820152604401600060405180830381600087803b15801561140357600080fd5b505af1158015611417573d6000803e3d6000fd5b505050505b600e546001600160a01b0390811690841603610a6c57600e54604051635390271560e01b815260048101849052600160248201526001600160a01b0390911690635390271590604401600060405180830381600087803b15801561147f57600080fd5b505af1158015611493573d6000803e3d6000fd5b5050505050505050565b6114a782826109f5565b6107d1576114b481611917565b6114bf836020611929565b6040516020016114d0929190612257565b60408051601f198184030181529082905262461bcd60e51b82526105c591600401611e79565b600a5460ff1661153f5760405162461bcd60e51b815260206004820152601460248201527314185d5cd8589b194e881b9bdd081c185d5cd95960621b60448201526064016105c5565b565b61154b8383611ac5565b61155860008484846115ba565b6106665760405162461bcd60e51b81526004016105c590612205565b600a5460ff161561153f5760405162461bcd60e51b815260206004820152601060248201526f14185d5cd8589b194e881c185d5cd95960821b60448201526064016105c5565b60006001600160a01b0384163b156116b057604051630a85bd0160e11b81526001600160a01b0385169063150b7a02906115fe9033908990889088906004016122cc565b6020604051808303816000875af1925050508015611639575060408051601f3d908101601f1916820190925261163691810190612309565b60015b611696573d808015611667576040519150601f19603f3d011682016040523d82523d6000602084013e61166c565b606091505b50805160000361168e5760405162461bcd60e51b81526004016105c590612205565b805181602001fd5b6001600160e01b031916630a85bd0160e11b149050610d08565b506001949350505050565b60008072184f03e93ff9f4daa797ed6e38ed64bf6a1f0160401b83106116fa5772184f03e93ff9f4daa797ed6e38ed64bf6a1f0160401b830492506040015b6d04ee2d6d415b85acef81000000008310611726576d04ee2d6d415b85acef8100000000830492506020015b662386f26fc10000831061174457662386f26fc10000830492506010015b6305f5e100831061175c576305f5e100830492506008015b612710831061177057612710830492506004015b60648310611782576064830492506002015b600a83106104925760010192915050565b60006001600160e01b031982166380ac58cd60e01b14806117c457506001600160e01b03198216635b5e139f60e01b145b8061049257506301ffc9a760e01b6001600160e01b0319831614610492565b60018111156118525760405162461bcd60e51b815260206004820152603560248201527f455243373231456e756d657261626c653a20636f6e7365637574697665207472604482015274185b9cd9995c9cc81b9bdd081cdd5c1c1bdc9d1959605a1b60648201526084016105c5565b816001600160a01b0385166118ae576118a981600880546000838152600960205260408120829055600182018355919091527ff3f7a9fe364faab93b216da50a3214154f22a0a2b415b23a84c8169e8b636ee30155565b6118d1565b836001600160a01b0316856001600160a01b0316146118d1576118d18582611c5e565b6001600160a01b0384166118ed576118e881611cfb565b611910565b846001600160a01b0316846001600160a01b031614611910576119108482611daa565b5050505050565b60606104926001600160a01b03831660145b60606000611938836002612326565b611943906002612179565b67ffffffffffffffff81111561195b5761195b611faa565b6040519080825280601f01601f191660200182016040528015611985576020820181803683370190505b509050600360fc1b816000815181106119a0576119a061214d565b60200101906001600160f81b031916908160001a905350600f60fb1b816001815181106119cf576119cf61214d565b60200101906001600160f81b031916908160001a90535060006119f3846002612326565b6119fe906001612179565b90505b6001811115611a76576f181899199a1a9b1b9c1cb0b131b232b360811b85600f1660108110611a3257611a3261214d565b1a60f81b828281518110611a4857611a4861214d565b60200101906001600160f81b031916908160001a90535060049490941c93611a6f81612345565b9050611a01565b508315610adf5760405162461bcd60e51b815260206004820181905260248201527f537472696e67733a20686578206c656e67746820696e73756666696369656e7460448201526064016105c5565b6001600160a01b038216611b1b5760405162461bcd60e51b815260206004820181905260248201527f4552433732313a206d696e7420746f20746865207a65726f206164647265737360448201526064016105c5565b6000818152600260205260409020546001600160a01b031615611b805760405162461bcd60e51b815260206004820152601c60248201527f4552433732313a20746f6b656e20616c7265616479206d696e7465640000000060448201526064016105c5565b611b8e6000838360016112a1565b6000818152600260205260409020546001600160a01b031615611bf35760405162461bcd60e51b815260206004820152601c60248201527f4552433732313a20746f6b656e20616c7265616479206d696e7465640000000060448201526064016105c5565b6001600160a01b038216600081815260036020908152604080832080546001019055848352600290915280822080546001600160a01b0319168417905551839291907fddf252ad1be2c89b69c2b068fc378daa952ba7f163c4a11628f55a4df523b3ef908290a45050565b60006001611c6b8461095c565b611c75919061235c565b600083815260076020526040902054909150808214611cc8576001600160a01b03841660009081526006602090815260408083208584528252808320548484528184208190558352600790915290208190555b5060009182526007602090815260408084208490556001600160a01b039094168352600681528383209183525290812055565b600854600090611d0d9060019061235c565b60008381526009602052604081205460088054939450909284908110611d3557611d3561214d565b906000526020600020015490508060088381548110611d5657611d5661214d565b6000918252602080832090910192909255828152600990915260408082208490558582528120556008805480611d8e57611d8e612373565b6001900381819060005260206000200160009055905550505050565b6000611db58361095c565b6001600160a01b039093166000908152600660209081526040808320868452825280832085905593825260079052919091209190915550565b6001600160e01b0319811681146107e857600080fd5b600060208284031215611e1657600080fd5b8135610adf81611dee565b60005b83811015611e3c578181015183820152602001611e24565b83811115610a6c5750506000910152565b60008151808452611e65816020860160208601611e21565b601f01601f19169290920160200192915050565b602081526000610adf6020830184611e4d565b600060208284031215611e9e57600080fd5b5035919050565b80356001600160a01b0381168114611ebc57600080fd5b919050565b60008060408385031215611ed457600080fd5b611edd83611ea5565b946020939093013593505050565b600080600060608486031215611f0057600080fd5b611f0984611ea5565b9250611f1760208501611ea5565b9150604084013590509250925092565b60008060408385031215611f3a57600080fd5b82359150611f4a60208401611ea5565b90509250929050565b600060208284031215611f6557600080fd5b610adf82611ea5565b60008060408385031215611f8157600080fd5b611f8a83611ea5565b915060208301358015158114611f9f57600080fd5b809150509250929050565b634e487b7160e01b600052604160045260246000fd5b60008060008060808587031215611fd657600080fd5b611fdf85611ea5565b9350611fed60208601611ea5565b925060408501359150606085013567ffffffffffffffff8082111561201157600080fd5b818701915087601f83011261202557600080fd5b81358181111561203757612037611faa565b604051601f8201601f19908116603f0116810190838211818310171561205f5761205f611faa565b816040528281528a602084870101111561207857600080fd5b82602086016020830137600060208483010152809550505050505092959194509250565b600080604083850312156120af57600080fd5b6120b883611ea5565b9150611f4a60208401611ea5565b600181811c908216806120da57607f821691505b6020821081036120fa57634e487b7160e01b600052602260045260246000fd5b50919050565b6020808252602d908201527f4552433732313a2063616c6c6572206973206e6f7420746f6b656e206f776e6560408201526c1c881bdc88185c1c1c9bdd9959609a1b606082015260800190565b634e487b7160e01b600052603260045260246000fd5b634e487b7160e01b600052601160045260246000fd5b6000821982111561218c5761218c612163565b500190565b600083516121a3818460208801611e21565b8351908301906121b7818360208801611e21565b01949350505050565b60208082526025908201527f4552433732313a207472616e736665722066726f6d20696e636f72726563742060408201526437bbb732b960d91b606082015260800190565b60208082526032908201527f4552433732313a207472616e7366657220746f206e6f6e20455243373231526560408201527131b2b4bb32b91034b6b83632b6b2b73a32b960711b606082015260800190565b7f416363657373436f6e74726f6c3a206163636f756e742000000000000000000081526000835161228f816017850160208801611e21565b7001034b99036b4b9b9b4b733903937b6329607d1b60179184019182015283516122c0816028840160208801611e21565b01602801949350505050565b6001600160a01b03858116825284166020820152604081018390526080606082018190526000906122ff90830184611e4d565b9695505050505050565b60006020828403121561231b57600080fd5b8151610adf81611dee565b600081600019048311821515161561234057612340612163565b500290565b60008161235457612354612163565b506000190190565b60008282101561236e5761236e612163565b500390565b634e487b7160e01b600052603160045260246000fdfea2646970667358221220abb52144c966c0514dcb31ce480896ebc3e8ea474ced229732075f4ff46a058a64736f6c634300080d0033a2646970667358221220fcf593d9e60da7ff6d97ecff6691528f966ce2d0458da3f577167bd16b22ecd564736f6c634300080d0033","linkReferences":{}},"methodIdentifiers":{"COMPTROLLER()":"5f82c67e","CUSDC()":"a37b9e7f","LOCK_MARKETPLACE()":"019894c2","LOCK_TOKEN()":"d0da6801","NFT_ID()":"707ddfae","PLAYER()":"0236ca74","SYSTEM()":"51351d53","USDC()":"89a30271","deploy()":"775c300c","deployed()":"f905c15a","isSolved()":"64d98f6e","onERC721Received(address,address,uint256,bytes)":"150b7a02"},"id":42}