{"abi":[{"type":"function","name":"allowance","inputs":[{"name":"owner","type":"address","internalType":"address"},{"name":"spender","type":"address","internalType":"address"}],"outputs":[{"name":"","type":"uint256","internalType":"uint256"}],"stateMutability":"view"},{"type":"function","name":"approve","inputs":[{"name":"spender","type":"address","internalType":"address"},{"name":"amount","type":"uint256","internalType":"uint256"}],"outputs":[{"name":"","type":"bool","internalType":"bool"}],"stateMutability":"nonpayable"},{"type":"function","name":"balanceOf","inputs":[{"name":"account","type":"address","internalType":"address"}],"outputs":[{"name":"","type":"uint256","internalType":"uint256"}],"stateMutability":"view"},{"type":"function","name":"decimals","inputs":[],"outputs":[{"name":"","type":"uint8","internalType":"uint8"}],"stateMutability":"view"},{"type":"function","name":"decreaseAllowance","inputs":[{"name":"spender","type":"address","internalType":"address"},{"name":"subtractedValue","type":"uint256","internalType":"uint256"}],"outputs":[{"name":"","type":"bool","internalType":"bool"}],"stateMutability":"nonpayable"},{"type":"function","name":"functionCall","inputs":[{"name":"target","type":"address","internalType":"address"},{"name":"data","type":"bytes","internalType":"bytes"}],"outputs":[{"name":"","type":"bytes","internalType":"bytes"}],"stateMutability":"nonpayable"},{"type":"function","name":"increaseAllowance","inputs":[{"name":"spender","type":"address","internalType":"address"},{"name":"addedValue","type":"uint256","internalType":"uint256"}],"outputs":[{"name":"","type":"bool","internalType":"bool"}],"stateMutability":"nonpayable"},{"type":"function","name":"name","inputs":[],"outputs":[{"name":"","type":"string","internalType":"string"}],"stateMutability":"view"},{"type":"function","name":"scheduleReenter","inputs":[{"name":"when","type":"uint8","internalType":"enum ERC20Reentrant.Type"},{"name":"target","type":"address","internalType":"address"},{"name":"data","type":"bytes","internalType":"bytes"}],"outputs":[],"stateMutability":"nonpayable"},{"type":"function","name":"symbol","inputs":[],"outputs":[{"name":"","type":"string","internalType":"string"}],"stateMutability":"view"},{"type":"function","name":"totalSupply","inputs":[],"outputs":[{"name":"","type":"uint256","internalType":"uint256"}],"stateMutability":"view"},{"type":"function","name":"transfer","inputs":[{"name":"to","type":"address","internalType":"address"},{"name":"amount","type":"uint256","internalType":"uint256"}],"outputs":[{"name":"","type":"bool","internalType":"bool"}],"stateMutability":"nonpayable"},{"type":"function","name":"transferFrom","inputs":[{"name":"from","type":"address","internalType":"address"},{"name":"to","type":"address","internalType":"address"},{"name":"amount","type":"uint256","internalType":"uint256"}],"outputs":[{"name":"","type":"bool","internalType":"bool"}],"stateMutability":"nonpayable"},{"type":"event","name":"Approval","inputs":[{"name":"owner","type":"address","indexed":true,"internalType":"address"},{"name":"spender","type":"address","indexed":true,"internalType":"address"},{"name":"value","type":"uint256","indexed":false,"internalType":"uint256"}],"anonymous":false},{"type":"event","name":"Transfer","inputs":[{"name":"from","type":"address","indexed":true,"internalType":"address"},{"name":"to","type":"address","indexed":true,"internalType":"address"},{"name":"value","type":"uint256","indexed":false,"internalType":"uint256"}],"anonymous":false}],"bytecode":{"object":"0x608060405234801561000f575f5ffd5b5060405180604001604052806004815260200163151154d560e21b815250604051806040016040528060038152602001621514d560ea1b81525081600390816100589190610105565b5060046100658282610105565b5050506101bf565b634e487b7160e01b5f52604160045260245ffd5b600181811c9082168061009557607f821691505b6020821081036100b357634e487b7160e01b5f52602260045260245ffd5b50919050565b601f82111561010057805f5260205f20601f840160051c810160208510156100de5750805b601f840160051c820191505b818110156100fd575f81556001016100ea565b50505b505050565b81516001600160401b0381111561011e5761011e61006d565b6101328161012c8454610081565b846100b9565b6020601f821160018114610164575f831561014d5750848201515b5f19600385901b1c1916600184901b1784556100fd565b5f84815260208120601f198516915b828110156101935787850151825560209485019460019092019101610173565b50848210156101b057868401515f19600387901b60f8161c191681555b50505050600190811b01905550565b610e19806101cc5f395ff3fe608060405234801561000f575f5ffd5b50600436106100cb575f3560e01c806370a0823111610088578063a457c2d711610063578063a457c2d71461019a578063a9059cbb146101ad578063cd594b63146101c0578063dd62ed3e146101d5575f5ffd5b806370a082311461015757806395d89b411461017f578063a0b5ffb014610187575f5ffd5b806306fdde03146100cf578063095ea7b3146100ed57806318160ddd1461011057806323b872dd14610122578063313ce567146101355780633950935114610144575b5f5ffd5b6100d76101e8565b6040516100e49190610a24565b60405180910390f35b6101006100fb366004610a51565b610278565b60405190151581526020016100e4565b6002545b6040519081526020016100e4565b610100610130366004610a79565b610291565b604051601281526020016100e4565b610100610152366004610a51565b6102b4565b610114610165366004610ab3565b6001600160a01b03165f9081526020819052604090205490565b6100d76102d5565b6100d7610195366004610ae0565b6102e4565b6101006101a8366004610a51565b6102f7565b6101006101bb366004610a51565b610376565b6101d36101ce366004610ba4565b610383565b005b6101146101e3366004610c33565b6103db565b6060600380546101f790610c64565b80601f016020809104026020016040519081016040528092919081815260200182805461022390610c64565b801561026e5780601f106102455761010080835404028352916020019161026e565b820191905f5260205f20905b81548152906001019060200180831161025157829003601f168201915b5050505050905090565b5f33610285818585610405565b60019150505b92915050565b5f3361029e858285610528565b6102a98585856105a0565b506001949350505050565b5f336102858185856102c683836103db565b6102d09190610c9c565b610405565b6060600480546101f790610c64565b60606102f08383610753565b9392505050565b5f338161030482866103db565b9050838110156103695760405162461bcd60e51b815260206004820152602560248201527f45524332303a2064656372656173656420616c6c6f77616e63652062656c6f77604482015264207a65726f60d81b60648201526084015b60405180910390fd5b6102a98286868403610405565b5f336102858185856105a0565b6005805485919060ff191660018360028111156103a2576103a2610cbb565b021790555060058054610100600160a81b0319166101006001600160a01b0386160217905560066103d4828483610d13565b5050505050565b6001600160a01b039182165f90815260016020908152604080832093909416825291909152205490565b6001600160a01b0383166104675760405162461bcd60e51b8152602060048201526024808201527f45524332303a20617070726f76652066726f6d20746865207a65726f206164646044820152637265737360e01b6064820152608401610360565b6001600160a01b0382166104c85760405162461bcd60e51b815260206004820152602260248201527f45524332303a20617070726f766520746f20746865207a65726f206164647265604482015261737360f01b6064820152608401610360565b6001600160a01b038381165f8181526001602090815260408083209487168084529482529182902085905590518481527f8c5be1e5ebec7d5bd14f71427d1e84f3dd0314c0f7b2291e5b200ac8c7c3b925910160405180910390a3505050565b5f61053384846103db565b90505f19811461059a578181101561058d5760405162461bcd60e51b815260206004820152601d60248201527f45524332303a20696e73756666696369656e7420616c6c6f77616e63650000006044820152606401610360565b61059a8484848403610405565b50505050565b6001600160a01b0383166106045760405162461bcd60e51b815260206004820152602560248201527f45524332303a207472616e736665722066726f6d20746865207a65726f206164604482015264647265737360d81b6064820152608401610360565b6001600160a01b0382166106665760405162461bcd60e51b815260206004820152602360248201527f45524332303a207472616e7366657220746f20746865207a65726f206164647260448201526265737360e81b6064820152608401610360565b610671838383610796565b6001600160a01b0383165f90815260208190526040902054818110156106e85760405162461bcd60e51b815260206004820152602660248201527f45524332303a207472616e7366657220616d6f756e7420657863656564732062604482015265616c616e636560d01b6064820152608401610360565b6001600160a01b038481165f81815260208181526040808320878703905593871680835291849020805487019055925185815290927fddf252ad1be2c89b69c2b068fc378daa952ba7f163c4a11628f55a4df523b3ef910160405180910390a361059a848484610867565b60606102f083835f6040518060400160405280601e81526020017f416464726573733a206c6f772d6c6576656c2063616c6c206661696c65640000815250610880565b600160055460ff1660028111156107af576107af610cbb565b03610862576005805460ff1916908190556006805461059a9261010090046001600160a01b031691906107e190610c64565b80601f016020809104026020016040519081016040528092919081815260200182805461080d90610c64565b80156108585780601f1061082f57610100808354040283529160200191610858565b820191905f5260205f20905b81548152906001019060200180831161083b57829003601f168201915b50505050506102e4565b505050565b600260055460ff1660028111156107af576107af610cbb565b6060824710156108e15760405162461bcd60e51b815260206004820152602660248201527f416464726573733a20696e73756666696369656e742062616c616e636520666f6044820152651c8818d85b1b60d21b6064820152608401610360565b5f5f866001600160a01b031685876040516108fc9190610dcd565b5f6040518083038185875af1925050503d805f8114610936576040519150601f19603f3d011682016040523d82523d5f602084013e61093b565b606091505b509150915061094c87838387610959565b925050505b949350505050565b606083156109c75782515f036109c0576001600160a01b0385163b6109c05760405162461bcd60e51b815260206004820152601d60248201527f416464726573733a2063616c6c20746f206e6f6e2d636f6e74726163740000006044820152606401610360565b5081610951565b61095183838151156109dc5781518083602001fd5b8060405162461bcd60e51b81526004016103609190610a24565b5f81518084528060208401602086015e5f602082860101526020601f19601f83011685010191505092915050565b602081525f6102f060208301846109f6565b80356001600160a01b0381168114610a4c575f5ffd5b919050565b5f5f60408385031215610a62575f5ffd5b610a6b83610a36565b946020939093013593505050565b5f5f5f60608486031215610a8b575f5ffd5b610a9484610a36565b9250610aa260208501610a36565b929592945050506040919091013590565b5f60208284031215610ac3575f5ffd5b6102f082610a36565b634e487b7160e01b5f52604160045260245ffd5b5f5f60408385031215610af1575f5ffd5b610afa83610a36565b9150602083013567ffffffffffffffff811115610b15575f5ffd5b8301601f81018513610b25575f5ffd5b803567ffffffffffffffff811115610b3f57610b3f610acc565b604051601f8201601f19908116603f0116810167ffffffffffffffff81118282101715610b6e57610b6e610acc565b604052818152828201602001871015610b85575f5ffd5b816020840160208301375f602083830101528093505050509250929050565b5f5f5f5f60608587031215610bb7575f5ffd5b843560038110610bc5575f5ffd5b9350610bd360208601610a36565b9250604085013567ffffffffffffffff811115610bee575f5ffd5b8501601f81018713610bfe575f5ffd5b803567ffffffffffffffff811115610c14575f5ffd5b876020828401011115610c25575f5ffd5b949793965060200194505050565b5f5f60408385031215610c44575f5ffd5b610c4d83610a36565b9150610c5b60208401610a36565b90509250929050565b600181811c90821680610c7857607f821691505b602082108103610c9657634e487b7160e01b5f52602260045260245ffd5b50919050565b8082018082111561028b57634e487b7160e01b5f52601160045260245ffd5b634e487b7160e01b5f52602160045260245ffd5b601f82111561086257805f5260205f20601f840160051c81016020851015610cf45750805b601f840160051c820191505b818110156103d4575f8155600101610d00565b67ffffffffffffffff831115610d2b57610d2b610acc565b610d3f83610d398354610c64565b83610ccf565b5f601f841160018114610d70575f8515610d595750838201355b5f19600387901b1c1916600186901b1783556103d4565b5f83815260208120601f198716915b82811015610d9f5786850135825560209485019460019092019101610d7f565b5086821015610dbb575f1960f88860031b161c19848701351681555b505060018560011b0183555050505050565b5f82518060208501845e5f92019182525091905056fea2646970667358221220b629438462e10c1964414ab84151f7149586c4145fee8210767283aeae309d6f64736f6c634300081c0033","linkReferences":{}},"methodIdentifiers":{"allowance(address,address)":"dd62ed3e","approve(address,uint256)":"095ea7b3","balanceOf(address)":"70a08231","decimals()":"313ce567","decreaseAllowance(address,uint256)":"a457c2d7","functionCall(address,bytes)":"a0b5ffb0","increaseAllowance(address,uint256)":"39509351","name()":"06fdde03","scheduleReenter(uint8,address,bytes)":"cd594b63","symbol()":"95d89b41","totalSupply()":"18160ddd","transfer(address,uint256)":"a9059cbb","transferFrom(address,address,uint256)":"23b872dd"},"id":114}