{"abi":[{"type":"constructor","inputs":[{"name":"underlying","type":"address","internalType":"address"}],"stateMutability":"nonpayable"},{"type":"function","name":"allowance","inputs":[{"name":"owner","type":"address","internalType":"address"},{"name":"spender","type":"address","internalType":"address"}],"outputs":[{"name":"","type":"uint256","internalType":"uint256"}],"stateMutability":"view"},{"type":"function","name":"approve","inputs":[{"name":"spender","type":"address","internalType":"address"},{"name":"amount","type":"uint256","internalType":"uint256"}],"outputs":[{"name":"","type":"bool","internalType":"bool"}],"stateMutability":"nonpayable"},{"type":"function","name":"asset","inputs":[],"outputs":[{"name":"","type":"address","internalType":"address"}],"stateMutability":"view"},{"type":"function","name":"balanceOf","inputs":[{"name":"account","type":"address","internalType":"address"}],"outputs":[{"name":"","type":"uint256","internalType":"uint256"}],"stateMutability":"view"},{"type":"function","name":"burn","inputs":[{"name":"account","type":"address","internalType":"address"},{"name":"amount","type":"uint256","internalType":"uint256"}],"outputs":[],"stateMutability":"nonpayable"},{"type":"function","name":"convertToAssets","inputs":[{"name":"shares","type":"uint256","internalType":"uint256"}],"outputs":[{"name":"","type":"uint256","internalType":"uint256"}],"stateMutability":"view"},{"type":"function","name":"convertToShares","inputs":[{"name":"assets","type":"uint256","internalType":"uint256"}],"outputs":[{"name":"","type":"uint256","internalType":"uint256"}],"stateMutability":"view"},{"type":"function","name":"decimals","inputs":[],"outputs":[{"name":"","type":"uint8","internalType":"uint8"}],"stateMutability":"view"},{"type":"function","name":"decreaseAllowance","inputs":[{"name":"spender","type":"address","internalType":"address"},{"name":"subtractedValue","type":"uint256","internalType":"uint256"}],"outputs":[{"name":"","type":"bool","internalType":"bool"}],"stateMutability":"nonpayable"},{"type":"function","name":"deposit","inputs":[{"name":"assets","type":"uint256","internalType":"uint256"},{"name":"receiver","type":"address","internalType":"address"}],"outputs":[{"name":"","type":"uint256","internalType":"uint256"}],"stateMutability":"nonpayable"},{"type":"function","name":"increaseAllowance","inputs":[{"name":"spender","type":"address","internalType":"address"},{"name":"addedValue","type":"uint256","internalType":"uint256"}],"outputs":[{"name":"","type":"bool","internalType":"bool"}],"stateMutability":"nonpayable"},{"type":"function","name":"maxDeposit","inputs":[{"name":"","type":"address","internalType":"address"}],"outputs":[{"name":"","type":"uint256","internalType":"uint256"}],"stateMutability":"view"},{"type":"function","name":"maxMint","inputs":[{"name":"","type":"address","internalType":"address"}],"outputs":[{"name":"","type":"uint256","internalType":"uint256"}],"stateMutability":"view"},{"type":"function","name":"maxRedeem","inputs":[{"name":"owner","type":"address","internalType":"address"}],"outputs":[{"name":"","type":"uint256","internalType":"uint256"}],"stateMutability":"view"},{"type":"function","name":"maxWithdraw","inputs":[{"name":"owner","type":"address","internalType":"address"}],"outputs":[{"name":"","type":"uint256","internalType":"uint256"}],"stateMutability":"view"},{"type":"function","name":"mint","inputs":[{"name":"account","type":"address","internalType":"address"},{"name":"amount","type":"uint256","internalType":"uint256"}],"outputs":[],"stateMutability":"nonpayable"},{"type":"function","name":"mint","inputs":[{"name":"shares","type":"uint256","internalType":"uint256"},{"name":"receiver","type":"address","internalType":"address"}],"outputs":[{"name":"","type":"uint256","internalType":"uint256"}],"stateMutability":"nonpayable"},{"type":"function","name":"name","inputs":[],"outputs":[{"name":"","type":"string","internalType":"string"}],"stateMutability":"view"},{"type":"function","name":"previewDeposit","inputs":[{"name":"assets","type":"uint256","internalType":"uint256"}],"outputs":[{"name":"","type":"uint256","internalType":"uint256"}],"stateMutability":"view"},{"type":"function","name":"previewMint","inputs":[{"name":"shares","type":"uint256","internalType":"uint256"}],"outputs":[{"name":"","type":"uint256","internalType":"uint256"}],"stateMutability":"view"},{"type":"function","name":"previewRedeem","inputs":[{"name":"shares","type":"uint256","internalType":"uint256"}],"outputs":[{"name":"","type":"uint256","internalType":"uint256"}],"stateMutability":"view"},{"type":"function","name":"previewWithdraw","inputs":[{"name":"assets","type":"uint256","internalType":"uint256"}],"outputs":[{"name":"","type":"uint256","internalType":"uint256"}],"stateMutability":"view"},{"type":"function","name":"redeem","inputs":[{"name":"shares","type":"uint256","internalType":"uint256"},{"name":"receiver","type":"address","internalType":"address"},{"name":"owner","type":"address","internalType":"address"}],"outputs":[{"name":"","type":"uint256","internalType":"uint256"}],"stateMutability":"nonpayable"},{"type":"function","name":"symbol","inputs":[],"outputs":[{"name":"","type":"string","internalType":"string"}],"stateMutability":"view"},{"type":"function","name":"totalAssets","inputs":[],"outputs":[{"name":"","type":"uint256","internalType":"uint256"}],"stateMutability":"view"},{"type":"function","name":"totalSupply","inputs":[],"outputs":[{"name":"","type":"uint256","internalType":"uint256"}],"stateMutability":"view"},{"type":"function","name":"transfer","inputs":[{"name":"to","type":"address","internalType":"address"},{"name":"amount","type":"uint256","internalType":"uint256"}],"outputs":[{"name":"","type":"bool","internalType":"bool"}],"stateMutability":"nonpayable"},{"type":"function","name":"transferFrom","inputs":[{"name":"from","type":"address","internalType":"address"},{"name":"to","type":"address","internalType":"address"},{"name":"amount","type":"uint256","internalType":"uint256"}],"outputs":[{"name":"","type":"bool","internalType":"bool"}],"stateMutability":"nonpayable"},{"type":"function","name":"withdraw","inputs":[{"name":"assets","type":"uint256","internalType":"uint256"},{"name":"receiver","type":"address","internalType":"address"},{"name":"owner","type":"address","internalType":"address"}],"outputs":[{"name":"","type":"uint256","internalType":"uint256"}],"stateMutability":"nonpayable"},{"type":"event","name":"Approval","inputs":[{"name":"owner","type":"address","indexed":true,"internalType":"address"},{"name":"spender","type":"address","indexed":true,"internalType":"address"},{"name":"value","type":"uint256","indexed":false,"internalType":"uint256"}],"anonymous":false},{"type":"event","name":"Deposit","inputs":[{"name":"sender","type":"address","indexed":true,"internalType":"address"},{"name":"owner","type":"address","indexed":true,"internalType":"address"},{"name":"assets","type":"uint256","indexed":false,"internalType":"uint256"},{"name":"shares","type":"uint256","indexed":false,"internalType":"uint256"}],"anonymous":false},{"type":"event","name":"Transfer","inputs":[{"name":"from","type":"address","indexed":true,"internalType":"address"},{"name":"to","type":"address","indexed":true,"internalType":"address"},{"name":"value","type":"uint256","indexed":false,"internalType":"uint256"}],"anonymous":false},{"type":"event","name":"Withdraw","inputs":[{"name":"sender","type":"address","indexed":true,"internalType":"address"},{"name":"receiver","type":"address","indexed":true,"internalType":"address"},{"name":"owner","type":"address","indexed":true,"internalType":"address"},{"name":"assets","type":"uint256","indexed":false,"internalType":"uint256"},{"name":"shares","type":"uint256","indexed":false,"internalType":"uint256"}],"anonymous":false}],"bytecode":{"object":"0x60c06040523480156200001157600080fd5b5060405162001a6338038062001a6383398101604081905262000034916200026d565b604080518082018252600b81526a455243343632364d6f636b60a81b60208083019182528351808501909452600684526545343632364d60d01b908401528151849391620000869160039190620001c7565b5080516200009c906004906020840190620001c7565b505050600080620000b383620000e260201b60201c565b9150915081620000c5576012620000c7565b805b60ff1660a05250506001600160a01b03166080525062000333565b60408051600481526024810182526020810180516001600160e01b031663313ce56760e01b17905290516000918291829182916001600160a01b038716916200012b916200029f565b600060405180830381855afa9150503d806000811462000168576040519150601f19603f3d011682016040523d82523d6000602084013e6200016d565b606091505b50915091508180156200018257506020815110155b15620001ba57600081806020019051810190620001a09190620002dd565b905060ff8111620001b8576001969095509350505050565b505b5060009485945092505050565b828054620001d590620002f7565b90600052602060002090601f016020900481019282620001f9576000855562000244565b82601f106200021457805160ff191683800117855562000244565b8280016001018555821562000244579182015b828111156200024457825182559160200191906001019062000227565b506200025292915062000256565b5090565b5b8082111562000252576000815560010162000257565b6000602082840312156200028057600080fd5b81516001600160a01b03811681146200029857600080fd5b9392505050565b6000825160005b81811015620002c25760208186018101518583015201620002a6565b81811115620002d2576000828501525b509190910192915050565b600060208284031215620002f057600080fd5b5051919050565b600181811c908216806200030c57607f821691505b6020821081036200032d57634e487b7160e01b600052602260045260246000fd5b50919050565b60805160a0516116f56200036e600039600061059301526000818161028f0152818161042301528181610cbf0152610eae01526116f56000f3fe608060405234801561001057600080fd5b50600436106101cf5760003560e01c806370a0823111610104578063b460af94116100a2578063ce96cb7711610071578063ce96cb77146103d2578063d905777e146103e5578063dd62ed3e146103f8578063ef8b30f7146103bf57600080fd5b8063b460af9414610399578063ba087652146103ac578063c63d75b6146102cc578063c6e6f592146103bf57600080fd5b80639dc29fac116100de5780639dc29fac1461034d578063a457c2d714610360578063a9059cbb14610373578063b3d7f6b91461038657600080fd5b806370a082311461030957806394bf804d1461033257806395d89b411461034557600080fd5b8063313ce56711610171578063402d267d1161014b578063402d267d146102cc57806340c10f19146102e15780634cdad506146102045780636e553f65146102f657600080fd5b8063313ce5671461026857806338d52e0f1461028257806339509351146102b957600080fd5b8063095ea7b3116101ad578063095ea7b3146102175780630a28a4771461023a57806318160ddd1461024d57806323b872dd1461025557600080fd5b806301e1d114146101d457806306fdde03146101ef57806307a2d13a14610204575b600080fd5b6101dc61040b565b6040519081526020015b60405180910390f35b6101f761049b565b6040516101e69190611341565b6101dc610212366004611374565b61052d565b61022a6102253660046113a9565b610540565b60405190151581526020016101e6565b6101dc610248366004611374565b610558565b6002546101dc565b61022a6102633660046113d3565b610565565b61027061058b565b60405160ff90911681526020016101e6565b6040516001600160a01b037f00000000000000000000000000000000000000000000000000000000000000001681526020016101e6565b61022a6102c73660046113a9565b6105b7565b6101dc6102da36600461140f565b5060001990565b6102f46102ef3660046113a9565b6105d9565b005b6101dc61030436600461142a565b6105e7565b6101dc61031736600461140f565b6001600160a01b031660009081526020819052604090205490565b6101dc61034036600461142a565b610610565b6101f761062a565b6102f461035b3660046113a9565b610639565b61022a61036e3660046113a9565b610643565b61022a6103813660046113a9565b6106c9565b6101dc610394366004611374565b6106d7565b6101dc6103a7366004611456565b6106e4565b6101dc6103ba366004611456565b610760565b6101dc6103cd366004611374565b6107d4565b6101dc6103e036600461140f565b6107e1565b6101dc6103f336600461140f565b610805565b6101dc610406366004611492565b610823565b6040516370a0823160e01b81523060048201526000907f00000000000000000000000000000000000000000000000000000000000000006001600160a01b0316906370a0823190602401602060405180830381865afa158015610472573d6000803e3d6000fd5b505050506040513d601f19601f8201168201806040525081019061049691906114bc565b905090565b6060600380546104aa906114d5565b80601f01602080910402602001604051908101604052809291908181526020018280546104d6906114d5565b80156105235780601f106104f857610100808354040283529160200191610523565b820191906000526020600020905b81548152906001019060200180831161050657829003601f168201915b5050505050905090565b600061053a82600061084e565b92915050565b60003361054e818585610888565b5060019392505050565b600061053a8260016109ad565b6000336105738582856109dd565b61057e858585610a57565b60019150505b9392505050565b6000610496817f0000000000000000000000000000000000000000000000000000000000000000611525565b60003361054e8185856105ca8383610823565b6105d4919061154a565b610888565b6105e38282610bfb565b5050565b60006105f7565b60405180910390fd5b6000610602846107d4565b905061058433848684610cba565b60008061061c846106d7565b905061058433848387610cba565b6060600480546104aa906114d5565b6105e38282610d4c565b600033816106518286610823565b9050838110156106b15760405162461bcd60e51b815260206004820152602560248201527f45524332303a2064656372656173656420616c6c6f77616e63652062656c6f77604482015264207a65726f60d81b60648201526084016105ee565b6106be8286868403610888565b506001949350505050565b60003361054e818585610a57565b600061053a82600161084e565b60006106ef826107e1565b84111561073e5760405162461bcd60e51b815260206004820152601f60248201527f455243343632363a207769746864726177206d6f7265207468616e206d61780060448201526064016105ee565b600061074985610558565b90506107583385858885610e7b565b949350505050565b600061076b82610805565b8411156107ba5760405162461bcd60e51b815260206004820152601d60248201527f455243343632363a2072656465656d206d6f7265207468616e206d617800000060448201526064016105ee565b60006107c58561052d565b90506107583385858489610e7b565b600061053a8260006109ad565b6001600160a01b03811660009081526020819052604081205461053a90600061084e565b6001600160a01b03811660009081526020819052604081205461053a565b6001600160a01b03918216600090815260016020908152604080832093909416825291909152205490565b600061058461085b61040b565b61086690600161154a565b6108726000600a611646565b60025461087f919061154a565b85919085610f3b565b6001600160a01b0383166108ea5760405162461bcd60e51b8152602060048201526024808201527f45524332303a20617070726f76652066726f6d20746865207a65726f206164646044820152637265737360e01b60648201526084016105ee565b6001600160a01b03821661094b5760405162461bcd60e51b815260206004820152602260248201527f45524332303a20617070726f766520746f20746865207a65726f206164647265604482015261737360f01b60648201526084016105ee565b6001600160a01b0383811660008181526001602090815260408083209487168084529482529182902085905590518481527f8c5be1e5ebec7d5bd14f71427d1e84f3dd0314c0f7b2291e5b200ac8c7c3b92591015b60405180910390a3505050565b60006105846109bd82600a611646565b6002546109ca919061154a565b6109d261040b565b61087f90600161154a565b60006109e98484610823565b90506000198114610a515781811015610a445760405162461bcd60e51b815260206004820152601d60248201527f45524332303a20696e73756666696369656e7420616c6c6f77616e636500000060448201526064016105ee565b610a518484848403610888565b50505050565b6001600160a01b038316610abb5760405162461bcd60e51b815260206004820152602560248201527f45524332303a207472616e736665722066726f6d20746865207a65726f206164604482015264647265737360d81b60648201526084016105ee565b6001600160a01b038216610b1d5760405162461bcd60e51b815260206004820152602360248201527f45524332303a207472616e7366657220746f20746865207a65726f206164647260448201526265737360e81b60648201526084016105ee565b6001600160a01b03831660009081526020819052604090205481811015610b955760405162461bcd60e51b815260206004820152602660248201527f45524332303a207472616e7366657220616d6f756e7420657863656564732062604482015265616c616e636560d01b60648201526084016105ee565b6001600160a01b03848116600081815260208181526040808320878703905593871680835291849020805487019055925185815290927fddf252ad1be2c89b69c2b068fc378daa952ba7f163c4a11628f55a4df523b3ef910160405180910390a3610a51565b6001600160a01b038216610c515760405162461bcd60e51b815260206004820152601f60248201527f45524332303a206d696e7420746f20746865207a65726f20616464726573730060448201526064016105ee565b8060026000828254610c63919061154a565b90915550506001600160a01b038216600081815260208181526040808320805486019055518481527fddf252ad1be2c89b69c2b068fc378daa952ba7f163c4a11628f55a4df523b3ef910160405180910390a35050565b610ce67f0000000000000000000000000000000000000000000000000000000000000000853085610f98565b610cf08382610bfb565b826001600160a01b0316846001600160a01b03167fdcbc1c05240f31ff3ad067ef1ee35ce4997762752e3a095284754544f4c709d78484604051610d3e929190918252602082015260400190565b60405180910390a350505050565b6001600160a01b038216610dac5760405162461bcd60e51b815260206004820152602160248201527f45524332303a206275726e2066726f6d20746865207a65726f206164647265736044820152607360f81b60648201526084016105ee565b6001600160a01b03821660009081526020819052604090205481811015610e205760405162461bcd60e51b815260206004820152602260248201527f45524332303a206275726e20616d6f756e7420657863656564732062616c616e604482015261636560f01b60648201526084016105ee565b6001600160a01b0383166000818152602081815260408083208686039055600280548790039055518581529192917fddf252ad1be2c89b69c2b068fc378daa952ba7f163c4a11628f55a4df523b3ef91016109a0565b505050565b826001600160a01b0316856001600160a01b031614610e9f57610e9f8386836109dd565b610ea98382610d4c565b610ed47f00000000000000000000000000000000000000000000000000000000000000008584611003565b826001600160a01b0316846001600160a01b0316866001600160a01b03167ffbde797d201c681b91056529119e0b02407c7bb96a4a2c75c01fc9667232c8db8585604051610f2c929190918252602082015260400190565b60405180910390a45050505050565b600080610f49868686611033565b90506001836002811115610f5f57610f5f611655565b148015610f7c575060008480610f7757610f7761166b565b868809115b15610f8f57610f8c60018261154a565b90505b95945050505050565b6040516001600160a01b0380851660248301528316604482015260648101829052610a519085906323b872dd60e01b906084015b60408051601f198184030181529190526020810180516001600160e01b03166001600160e01b03199093169290921790915261111d565b6040516001600160a01b038316602482015260448101829052610e7690849063a9059cbb60e01b90606401610fcc565b600080806000198587098587029250828110838203039150508060000361106d578382816110635761106361166b565b0492505050610584565b8084116110b45760405162461bcd60e51b81526020600482015260156024820152744d6174683a206d756c446976206f766572666c6f7760581b60448201526064016105ee565b60008486880960026001871981018816978890046003810283188082028403028082028403028082028403028082028403028082028403029081029092039091026000889003889004909101858311909403939093029303949094049190911702949350505050565b6000611172826040518060400160405280602081526020017f5361666545524332303a206c6f772d6c6576656c2063616c6c206661696c6564815250856001600160a01b03166111f29092919063ffffffff16565b90508051600014806111935750808060200190518101906111939190611681565b610e765760405162461bcd60e51b815260206004820152602a60248201527f5361666545524332303a204552433230206f7065726174696f6e20646964206e6044820152691bdd081cdd58d8d9595960b21b60648201526084016105ee565b6060610758848460008585600080866001600160a01b0316858760405161121991906116a3565b60006040518083038185875af1925050503d8060008114611256576040519150601f19603f3d011682016040523d82523d6000602084013e61125b565b606091505b509150915061126c87838387611277565b979650505050505050565b606083156112e65782516000036112df576001600160a01b0385163b6112df5760405162461bcd60e51b815260206004820152601d60248201527f416464726573733a2063616c6c20746f206e6f6e2d636f6e747261637400000060448201526064016105ee565b5081610758565b61075883838151156112fb5781518083602001fd5b8060405162461bcd60e51b81526004016105ee9190611341565b60005b83811015611330578181015183820152602001611318565b83811115610a515750506000910152565b6020815260008251806020840152611360816040850160208701611315565b601f01601f19169190910160400192915050565b60006020828403121561138657600080fd5b5035919050565b80356001600160a01b03811681146113a457600080fd5b919050565b600080604083850312156113bc57600080fd5b6113c58361138d565b946020939093013593505050565b6000806000606084860312156113e857600080fd5b6113f18461138d565b92506113ff6020850161138d565b9150604084013590509250925092565b60006020828403121561142157600080fd5b6105848261138d565b6000806040838503121561143d57600080fd5b8235915061144d6020840161138d565b90509250929050565b60008060006060848603121561146b57600080fd5b8335925061147b6020850161138d565b91506114896040850161138d565b90509250925092565b600080604083850312156114a557600080fd5b6114ae8361138d565b915061144d6020840161138d565b6000602082840312156114ce57600080fd5b5051919050565b600181811c908216806114e957607f821691505b60208210810361150957634e487b7160e01b600052602260045260246000fd5b50919050565b634e487b7160e01b600052601160045260246000fd5b600060ff821660ff84168060ff038211156115425761154261150f565b019392505050565b6000821982111561155d5761155d61150f565b500190565b600181815b8085111561159d5781600019048211156115835761158361150f565b8085161561159057918102915b93841c9390800290611567565b509250929050565b6000826115b45750600161053a565b816115c15750600061053a565b81600181146115d757600281146115e1576115fd565b600191505061053a565b60ff8411156115f2576115f261150f565b50506001821b61053a565b5060208310610133831016604e8410600b8410161715611620575081810a61053a565b61162a8383611562565b806000190482111561163e5761163e61150f565b029392505050565b600061058460ff8416836115a5565b634e487b7160e01b600052602160045260246000fd5b634e487b7160e01b600052601260045260246000fd5b60006020828403121561169357600080fd5b8151801515811461058457600080fd5b600082516116b5818460208701611315565b919091019291505056fea264697066735822122074b1c098a04b6c9fb57a72c641134f6447cfa1c3ec4771cbf0adf2b20768145d64736f6c634300080d0033","linkReferences":{}},"methodIdentifiers":{"allowance(address,address)":"dd62ed3e","approve(address,uint256)":"095ea7b3","asset()":"38d52e0f","balanceOf(address)":"70a08231","burn(address,uint256)":"9dc29fac","convertToAssets(uint256)":"07a2d13a","convertToShares(uint256)":"c6e6f592","decimals()":"313ce567","decreaseAllowance(address,uint256)":"a457c2d7","deposit(uint256,address)":"6e553f65","increaseAllowance(address,uint256)":"39509351","maxDeposit(address)":"402d267d","maxMint(address)":"c63d75b6","maxRedeem(address)":"d905777e","maxWithdraw(address)":"ce96cb77","mint(address,uint256)":"40c10f19","mint(uint256,address)":"94bf804d","name()":"06fdde03","previewDeposit(uint256)":"ef8b30f7","previewMint(uint256)":"b3d7f6b9","previewRedeem(uint256)":"4cdad506","previewWithdraw(uint256)":"0a28a477","redeem(uint256,address,address)":"ba087652","symbol()":"95d89b41","totalAssets()":"01e1d114","totalSupply()":"18160ddd","transfer(address,uint256)":"a9059cbb","transferFrom(address,address,uint256)":"23b872dd","withdraw(uint256,address,address)":"b460af94"},"id":107}