{"abi":[{"type":"function","name":"DEFAULT_ADMIN_ROLE","inputs":[],"outputs":[{"name":"","type":"bytes32","internalType":"bytes32"}],"stateMutability":"view"},{"type":"function","name":"MINTER_ROLE","inputs":[],"outputs":[{"name":"","type":"bytes32","internalType":"bytes32"}],"stateMutability":"view"},{"type":"function","name":"PAUSER_ROLE","inputs":[],"outputs":[{"name":"","type":"bytes32","internalType":"bytes32"}],"stateMutability":"view"},{"type":"function","name":"balanceOf","inputs":[{"name":"account","type":"address","internalType":"address"},{"name":"id","type":"uint256","internalType":"uint256"}],"outputs":[{"name":"","type":"uint256","internalType":"uint256"}],"stateMutability":"view"},{"type":"function","name":"balanceOfBatch","inputs":[{"name":"accounts","type":"address[]","internalType":"address[]"},{"name":"ids","type":"uint256[]","internalType":"uint256[]"}],"outputs":[{"name":"","type":"uint256[]","internalType":"uint256[]"}],"stateMutability":"view"},{"type":"function","name":"burn","inputs":[{"name":"account","type":"address","internalType":"address"},{"name":"id","type":"uint256","internalType":"uint256"},{"name":"value","type":"uint256","internalType":"uint256"}],"outputs":[],"stateMutability":"nonpayable"},{"type":"function","name":"burnBatch","inputs":[{"name":"account","type":"address","internalType":"address"},{"name":"ids","type":"uint256[]","internalType":"uint256[]"},{"name":"values","type":"uint256[]","internalType":"uint256[]"}],"outputs":[],"stateMutability":"nonpayable"},{"type":"function","name":"getRoleAdmin","inputs":[{"name":"role","type":"bytes32","internalType":"bytes32"}],"outputs":[{"name":"","type":"bytes32","internalType":"bytes32"}],"stateMutability":"view"},{"type":"function","name":"getRoleMember","inputs":[{"name":"role","type":"bytes32","internalType":"bytes32"},{"name":"index","type":"uint256","internalType":"uint256"}],"outputs":[{"name":"","type":"address","internalType":"address"}],"stateMutability":"view"},{"type":"function","name":"getRoleMemberCount","inputs":[{"name":"role","type":"bytes32","internalType":"bytes32"}],"outputs":[{"name":"","type":"uint256","internalType":"uint256"}],"stateMutability":"view"},{"type":"function","name":"grantRole","inputs":[{"name":"role","type":"bytes32","internalType":"bytes32"},{"name":"account","type":"address","internalType":"address"}],"outputs":[],"stateMutability":"nonpayable"},{"type":"function","name":"hasRole","inputs":[{"name":"role","type":"bytes32","internalType":"bytes32"},{"name":"account","type":"address","internalType":"address"}],"outputs":[{"name":"","type":"bool","internalType":"bool"}],"stateMutability":"view"},{"type":"function","name":"initialize","inputs":[{"name":"uri","type":"string","internalType":"string"}],"outputs":[],"stateMutability":"nonpayable"},{"type":"function","name":"isApprovedForAll","inputs":[{"name":"account","type":"address","internalType":"address"},{"name":"operator","type":"address","internalType":"address"}],"outputs":[{"name":"","type":"bool","internalType":"bool"}],"stateMutability":"view"},{"type":"function","name":"mint","inputs":[{"name":"to","type":"address","internalType":"address"},{"name":"id","type":"uint256","internalType":"uint256"},{"name":"amount","type":"uint256","internalType":"uint256"},{"name":"data","type":"bytes","internalType":"bytes"}],"outputs":[],"stateMutability":"nonpayable"},{"type":"function","name":"mintBatch","inputs":[{"name":"to","type":"address","internalType":"address"},{"name":"ids","type":"uint256[]","internalType":"uint256[]"},{"name":"amounts","type":"uint256[]","internalType":"uint256[]"},{"name":"data","type":"bytes","internalType":"bytes"}],"outputs":[],"stateMutability":"nonpayable"},{"type":"function","name":"pause","inputs":[],"outputs":[],"stateMutability":"nonpayable"},{"type":"function","name":"paused","inputs":[],"outputs":[{"name":"","type":"bool","internalType":"bool"}],"stateMutability":"view"},{"type":"function","name":"renounceRole","inputs":[{"name":"role","type":"bytes32","internalType":"bytes32"},{"name":"account","type":"address","internalType":"address"}],"outputs":[],"stateMutability":"nonpayable"},{"type":"function","name":"revokeRole","inputs":[{"name":"role","type":"bytes32","internalType":"bytes32"},{"name":"account","type":"address","internalType":"address"}],"outputs":[],"stateMutability":"nonpayable"},{"type":"function","name":"safeBatchTransferFrom","inputs":[{"name":"from","type":"address","internalType":"address"},{"name":"to","type":"address","internalType":"address"},{"name":"ids","type":"uint256[]","internalType":"uint256[]"},{"name":"amounts","type":"uint256[]","internalType":"uint256[]"},{"name":"data","type":"bytes","internalType":"bytes"}],"outputs":[],"stateMutability":"nonpayable"},{"type":"function","name":"safeTransferFrom","inputs":[{"name":"from","type":"address","internalType":"address"},{"name":"to","type":"address","internalType":"address"},{"name":"id","type":"uint256","internalType":"uint256"},{"name":"amount","type":"uint256","internalType":"uint256"},{"name":"data","type":"bytes","internalType":"bytes"}],"outputs":[],"stateMutability":"nonpayable"},{"type":"function","name":"setApprovalForAll","inputs":[{"name":"operator","type":"address","internalType":"address"},{"name":"approved","type":"bool","internalType":"bool"}],"outputs":[],"stateMutability":"nonpayable"},{"type":"function","name":"supportsInterface","inputs":[{"name":"interfaceId","type":"bytes4","internalType":"bytes4"}],"outputs":[{"name":"","type":"bool","internalType":"bool"}],"stateMutability":"view"},{"type":"function","name":"unpause","inputs":[],"outputs":[],"stateMutability":"nonpayable"},{"type":"function","name":"uri","inputs":[{"name":"","type":"uint256","internalType":"uint256"}],"outputs":[{"name":"","type":"string","internalType":"string"}],"stateMutability":"view"},{"type":"event","name":"ApprovalForAll","inputs":[{"name":"account","type":"address","indexed":true,"internalType":"address"},{"name":"operator","type":"address","indexed":true,"internalType":"address"},{"name":"approved","type":"bool","indexed":false,"internalType":"bool"}],"anonymous":false},{"type":"event","name":"Initialized","inputs":[{"name":"version","type":"uint8","indexed":false,"internalType":"uint8"}],"anonymous":false},{"type":"event","name":"Paused","inputs":[{"name":"account","type":"address","indexed":false,"internalType":"address"}],"anonymous":false},{"type":"event","name":"RoleAdminChanged","inputs":[{"name":"role","type":"bytes32","indexed":true,"internalType":"bytes32"},{"name":"previousAdminRole","type":"bytes32","indexed":true,"internalType":"bytes32"},{"name":"newAdminRole","type":"bytes32","indexed":true,"internalType":"bytes32"}],"anonymous":false},{"type":"event","name":"RoleGranted","inputs":[{"name":"role","type":"bytes32","indexed":true,"internalType":"bytes32"},{"name":"account","type":"address","indexed":true,"internalType":"address"},{"name":"sender","type":"address","indexed":true,"internalType":"address"}],"anonymous":false},{"type":"event","name":"RoleRevoked","inputs":[{"name":"role","type":"bytes32","indexed":true,"internalType":"bytes32"},{"name":"account","type":"address","indexed":true,"internalType":"address"},{"name":"sender","type":"address","indexed":true,"internalType":"address"}],"anonymous":false},{"type":"event","name":"TransferBatch","inputs":[{"name":"operator","type":"address","indexed":true,"internalType":"address"},{"name":"from","type":"address","indexed":true,"internalType":"address"},{"name":"to","type":"address","indexed":true,"internalType":"address"},{"name":"ids","type":"uint256[]","indexed":false,"internalType":"uint256[]"},{"name":"values","type":"uint256[]","indexed":false,"internalType":"uint256[]"}],"anonymous":false},{"type":"event","name":"TransferSingle","inputs":[{"name":"operator","type":"address","indexed":true,"internalType":"address"},{"name":"from","type":"address","indexed":true,"internalType":"address"},{"name":"to","type":"address","indexed":true,"internalType":"address"},{"name":"id","type":"uint256","indexed":false,"internalType":"uint256"},{"name":"value","type":"uint256","indexed":false,"internalType":"uint256"}],"anonymous":false},{"type":"event","name":"URI","inputs":[{"name":"value","type":"string","indexed":false,"internalType":"string"},{"name":"id","type":"uint256","indexed":true,"internalType":"uint256"}],"anonymous":false},{"type":"event","name":"Unpaused","inputs":[{"name":"account","type":"address","indexed":false,"internalType":"address"}],"anonymous":false}],"bytecode":{"object":"0x6080604052348015600e575f5ffd5b50612bce8061001c5f395ff3fe608060405234801561000f575f5ffd5b5060043610610186575f3560e01c80638456cb59116100d9578063d539139311610093578063e985e9c51161006e578063e985e9c51461036b578063f242432a146103a6578063f5298aca146103b9578063f62d1888146103cc575f5ffd5b8063d539139314610330578063d547741f14610344578063e63ab1e914610357575f5ffd5b80638456cb59146102bd5780639010d07c146102c557806391d14854146102f0578063a217fddf14610303578063a22cb4651461030a578063ca15c8731461031d575f5ffd5b80632f2ff15d116101445780634e1273f41161011f5780634e1273f41461026b5780635c975abb1461028b5780636b20c45414610297578063731133e9146102aa575f5ffd5b80632f2ff15d1461023d57806336568abe146102505780633f4ba83a14610263575f5ffd5b8062fdd58e1461018a57806301ffc9a7146101b05780630e89341c146101d35780631f7fdffa146101f3578063248a9ca3146102085780632eb2c2d61461022a575b5f5ffd5b61019d610198366004611e3f565b6103df565b6040519081526020015b60405180910390f35b6101c36101be366004611e7c565b610478565b60405190151581526020016101a7565b6101e66101e1366004611e97565b610482565b6040516101a79190611edc565b61020661020136600461203e565b610514565b005b61019d610216366004611e97565b5f9081526065602052604090206001015490565b6102066102383660046120da565b610559565b61020661024b366004612186565b6105a5565b61020661025e366004612186565b6105ce565b61020661064c565b61027e6102793660046121b0565b6106df565b6040516101a791906122b7565b61012d5460ff166101c3565b6102066102a53660046122c9565b6107fe565b6102066102b836600461233b565b610841565b610206610880565b6102d86102d336600461237f565b610911565b6040516001600160a01b0390911681526020016101a7565b6101c36102fe366004612186565b61092f565b61019d5f81565b61020661031836600461239f565b610959565b61019d61032b366004611e97565b610964565b61019d5f516020612b795f395f51905f5281565b610206610352366004612186565b61097a565b61019d5f516020612b595f395f51905f5281565b6101c36103793660046123d8565b6001600160a01b039182165f90815260ca6020908152604080832093909416825291909152205460ff1690565b6102066103b4366004612400565b61099e565b6102066103c7366004612453565b6109e3565b6102066103da366004612483565b610a26565b5f6001600160a01b03831661044e5760405162461bcd60e51b815260206004820152602a60248201527f455243313135353a2061646472657373207a65726f206973206e6f742061207660448201526930b634b21037bbb732b960b11b60648201526084015b60405180910390fd5b505f81815260c9602090815260408083206001600160a01b03861684529091529020545b92915050565b5f61047282610b32565b606060cb8054610491906124cf565b80601f01602080910402602001604051908101604052809291908181526020018280546104bd906124cf565b80156105085780601f106104df57610100808354040283529160200191610508565b820191905f5260205f20905b8154815290600101906020018083116104eb57829003601f168201915b50505050509050919050565b61052b5f516020612b795f395f51905f523361092f565b6105475760405162461bcd60e51b815260040161044590612507565b61055384848484610b71565b50505050565b6001600160a01b03851633148061057557506105758533610379565b6105915760405162461bcd60e51b815260040161044590612564565b61059e8585858585610cb8565b5050505050565b5f828152606560205260409020600101546105bf81610e59565b6105c98383610e66565b505050565b6001600160a01b038116331461063e5760405162461bcd60e51b815260206004820152602f60248201527f416363657373436f6e74726f6c3a2063616e206f6e6c792072656e6f756e636560448201526e103937b632b9903337b91039b2b63360891b6064820152608401610445565b6106488282610e87565b5050565b6106635f516020612b595f395f51905f523361092f565b6106d55760405162461bcd60e51b815260206004820152603b60248201527f455243313135355072657365744d696e7465725061757365723a206d7573742060448201527f686176652070617573657220726f6c6520746f20756e706175736500000000006064820152608401610445565b6106dd610ea8565b565b606081518351146107445760405162461bcd60e51b815260206004820152602960248201527f455243313135353a206163636f756e747320616e6420696473206c656e677468604482015268040dad2e6dac2e8c6d60bb1b6064820152608401610445565b5f83516001600160401b0381111561075e5761075e611eee565b604051908082528060200260200182016040528015610787578160200160208202803683370190505b5090505f5b84518110156107f6576107d18582815181106107aa576107aa6125b2565b60200260200101518583815181106107c4576107c46125b2565b60200260200101516103df565b8282815181106107e3576107e36125b2565b602090810291909101015260010161078c565b509392505050565b6001600160a01b03831633148061081a575061081a8333610379565b6108365760405162461bcd60e51b815260040161044590612564565b6105c9838383610efb565b6108585f516020612b795f395f51905f523361092f565b6108745760405162461bcd60e51b815260040161044590612507565b61055384848484611086565b6108975f516020612b595f395f51905f523361092f565b6109095760405162461bcd60e51b815260206004820152603960248201527f455243313135355072657365744d696e7465725061757365723a206d7573742060448201527f686176652070617573657220726f6c6520746f207061757365000000000000006064820152608401610445565b6106dd61116b565b5f82815260976020526040812061092890836111a9565b9392505050565b5f9182526065602090815260408084206001600160a01b0393909316845291905290205460ff1690565b6106483383836111b4565b5f81815260976020526040812061047290611293565b5f8281526065602052604090206001015461099481610e59565b6105c98383610e87565b6001600160a01b0385163314806109ba57506109ba8533610379565b6109d65760405162461bcd60e51b815260040161044590612564565b61059e858585858561129c565b6001600160a01b0383163314806109ff57506109ff8333610379565b610a1b5760405162461bcd60e51b815260040161044590612564565b6105c98383836113d4565b5f54610100900460ff1615808015610a4457505f54600160ff909116105b80610a5d5750303b158015610a5d57505f5460ff166001145b610ac05760405162461bcd60e51b815260206004820152602e60248201527f496e697469616c697a61626c653a20636f6e747261637420697320616c72656160448201526d191e481a5b9a5d1a585b1a5e995960921b6064820152608401610445565b5f805460ff191660011790558015610ae1575f805461ff0019166101001790555b610aea826114e9565b8015610648575f805461ff0019169055604051600181527f7f26b83ff96e1f2b6a682f133852f6798a09c465da95921460cefb38474024989060200160405180910390a15050565b5f6001600160e01b03198216636cdb3d1360e11b1480610b6257506001600160e01b031982166303a24d0760e21b145b80610472575061047282611529565b6001600160a01b038416610b975760405162461bcd60e51b8152600401610445906125c6565b8151835114610bb85760405162461bcd60e51b815260040161044590612607565b33610bc7815f8787878761154d565b5f5b8451811015610c5257838181518110610be457610be46125b2565b602002602001015160c95f878481518110610c0157610c016125b2565b602002602001015181526020019081526020015f205f886001600160a01b03166001600160a01b031681526020019081526020015f205f828254610c459190612663565b9091555050600101610bc9565b50846001600160a01b03165f6001600160a01b0316826001600160a01b03167f4a39dc06d4c0dbc64b70af90fd698a233a518aa5d07e595d983b8c0526c8f7fb8787604051610ca2929190612676565b60405180910390a461059e815f8787878761155b565b8151835114610cd95760405162461bcd60e51b815260040161044590612607565b6001600160a01b038416610cff5760405162461bcd60e51b8152600401610445906126a3565b33610d0e81878787878761154d565b5f5b8451811015610deb575f858281518110610d2c57610d2c6125b2565b602002602001015190505f858381518110610d4957610d496125b2565b6020908102919091018101515f84815260c9835260408082206001600160a01b038e168352909352919091205490915081811015610d995760405162461bcd60e51b8152600401610445906126e8565b5f83815260c9602090815260408083206001600160a01b038e8116855292528083208585039055908b16825281208054849290610dd7908490612663565b909155505060019093019250610d10915050565b50846001600160a01b0316866001600160a01b0316826001600160a01b03167f4a39dc06d4c0dbc64b70af90fd698a233a518aa5d07e595d983b8c0526c8f7fb8787604051610e3b929190612676565b60405180910390a4610e5181878787878761155b565b505050505050565b610e6381336116b5565b50565b610e70828261170e565b5f8281526097602052604090206105c99082611793565b610e9182826117a7565b5f8281526097602052604090206105c9908261180d565b610eb0611821565b61012d805460ff191690557f5db9ee0a495bf2e6ff9c91a7834c1ba4fdd244a5e8aa4e537bd38aeae4b073aa335b6040516001600160a01b03909116815260200160405180910390a1565b6001600160a01b038316610f215760405162461bcd60e51b815260040161044590612732565b8051825114610f425760405162461bcd60e51b815260040161044590612607565b5f339050610f6281855f868660405180602001604052805f81525061154d565b5f5b835181101561101b575f848281518110610f8057610f806125b2565b602002602001015190505f848381518110610f9d57610f9d6125b2565b6020908102919091018101515f84815260c9835260408082206001600160a01b038c168352909352919091205490915081811015610fed5760405162461bcd60e51b815260040161044590612775565b5f92835260c9602090815260408085206001600160a01b038b16865290915290922091039055600101610f64565b505f6001600160a01b0316846001600160a01b0316826001600160a01b03167f4a39dc06d4c0dbc64b70af90fd698a233a518aa5d07e595d983b8c0526c8f7fb868660405161106b929190612676565b60405180910390a460408051602081019091525f9052610553565b6001600160a01b0384166110ac5760405162461bcd60e51b8152600401610445906125c6565b335f6110b78561186b565b90505f6110c38561186b565b90506110d3835f8985858961154d565b5f86815260c9602090815260408083206001600160a01b038b16845290915281208054879290611104908490612663565b909155505060408051878152602081018790526001600160a01b03808a16925f92918716917fc3d58168c5ae7397731d063d5bbf3d657854427343f4c083240f7aacaa2d0f62910160405180910390a4611162835f898989896118b4565b50505050505050565b61117361196e565b61012d805460ff191660011790557f62e78cea01bee320cd4e420270b5ea74000d11b0c9f74754ebdbfc544b05a258610ede3390565b5f61092883836119b5565b816001600160a01b0316836001600160a01b0316036112275760405162461bcd60e51b815260206004820152602960248201527f455243313135353a2073657474696e6720617070726f76616c20737461747573604482015268103337b91039b2b63360b91b6064820152608401610445565b6001600160a01b038381165f81815260ca6020908152604080832094871680845294825291829020805460ff191686151590811790915591519182527f17307eab39ab6107e8899845ad3d59bd9653f200f220920489ca2b5937696c31910160405180910390a3505050565b5f610472825490565b6001600160a01b0384166112c25760405162461bcd60e51b8152600401610445906126a3565b335f6112cd8561186b565b90505f6112d98561186b565b90506112e983898985858961154d565b5f86815260c9602090815260408083206001600160a01b038c1684529091529020548581101561132b5760405162461bcd60e51b8152600401610445906126e8565b5f87815260c9602090815260408083206001600160a01b038d8116855292528083208985039055908a16825281208054889290611369908490612663565b909155505060408051888152602081018890526001600160a01b03808b16928c821692918816917fc3d58168c5ae7397731d063d5bbf3d657854427343f4c083240f7aacaa2d0f62910160405180910390a46113c9848a8a8a8a8a6118b4565b505050505050505050565b6001600160a01b0383166113fa5760405162461bcd60e51b815260040161044590612732565b335f6114058461186b565b90505f6114118461186b565b905061142f83875f858560405180602001604052805f81525061154d565b5f85815260c9602090815260408083206001600160a01b038a168452909152902054848110156114715760405162461bcd60e51b815260040161044590612775565b5f86815260c9602090815260408083206001600160a01b038b81168086529184528285208a8703905582518b81529384018a90529092908816917fc3d58168c5ae7397731d063d5bbf3d657854427343f4c083240f7aacaa2d0f62910160405180910390a460408051602081019091525f9052611162565b5f54610100900460ff1661150f5760405162461bcd60e51b8152600401610445906127b9565b611518816119db565b611520611a0a565b610e6381611a3d565b5f6001600160e01b03198216635a05180f60e01b1480610472575061047282611a9b565b610e51868686868686611acf565b6001600160a01b0384163b15610e515760405163bc197c8160e01b81526001600160a01b0385169063bc197c819061159f9089908990889088908890600401612804565b6020604051808303815f875af19250505080156115d9575060408051601f3d908101601f191682019092526115d691810190612861565b60015b611685576115e561287c565b806308c379a00361161e57506115f9612895565b806116045750611620565b8060405162461bcd60e51b81526004016104459190611edc565b505b60405162461bcd60e51b815260206004820152603460248201527f455243313135353a207472616e7366657220746f206e6f6e2d455243313135356044820152732932b1b2b4bb32b91034b6b83632b6b2b73a32b960611b6064820152608401610445565b6001600160e01b0319811663bc197c8160e01b146111625760405162461bcd60e51b81526004016104459061290f565b6116bf828261092f565b610648576116cc81611b38565b6116d7836020611b4a565b6040516020016116e892919061296e565b60408051601f198184030181529082905262461bcd60e51b825261044591600401611edc565b611718828261092f565b610648575f8281526065602090815260408083206001600160a01b03851684529091529020805460ff1916600117905561174f3390565b6001600160a01b0316816001600160a01b0316837f2f8788117e7eff1d82e926ec794901d17c78024a50270940304540a733656f0d60405160405180910390a45050565b5f610928836001600160a01b038416611cdf565b6117b1828261092f565b15610648575f8281526065602090815260408083206001600160a01b0385168085529252808320805460ff1916905551339285917ff6391f5c32d9c69d2a47ea670b442974b53935d1edc7fd64eb21e047a839171b9190a45050565b5f610928836001600160a01b038416611d2b565b61012d5460ff166106dd5760405162461bcd60e51b815260206004820152601460248201527314185d5cd8589b194e881b9bdd081c185d5cd95960621b6044820152606401610445565b6040805160018082528183019092526060915f91906020808301908036833701905050905082815f815181106118a3576118a36125b2565b602090810291909101015292915050565b6001600160a01b0384163b15610e515760405163f23a6e6160e01b81526001600160a01b0385169063f23a6e61906118f890899089908890889088906004016129c3565b6020604051808303815f875af1925050508015611932575060408051601f3d908101601f1916820190925261192f91810190612861565b60015b61193e576115e561287c565b6001600160e01b0319811663f23a6e6160e01b146111625760405162461bcd60e51b81526004016104459061290f565b61012d5460ff16156106dd5760405162461bcd60e51b815260206004820152601060248201526f14185d5cd8589b194e881c185d5cd95960821b6044820152606401610445565b5f825f0182815481106119ca576119ca6125b2565b905f5260205f200154905092915050565b5f54610100900460ff16611a015760405162461bcd60e51b8152600401610445906127b9565b610e6381611e0e565b5f54610100900460ff16611a305760405162461bcd60e51b8152600401610445906127b9565b61012d805460ff19169055565b5f54610100900460ff16611a635760405162461bcd60e51b8152600401610445906127b9565b611a6d5f33611e1a565b611a845f516020612b795f395f51905f5233611e1a565b610e635f516020612b595f395f51905f5233611e1a565b5f6001600160e01b03198216637965db0b60e01b148061047257506301ffc9a760e01b6001600160e01b0319831614610472565b61012d5460ff1615610e515760405162461bcd60e51b815260206004820152602c60248201527f455243313135355061757361626c653a20746f6b656e207472616e736665722060448201526b1dda1a5b19481c185d5cd95960a21b6064820152608401610445565b60606104726001600160a01b03831660145b60605f611b58836002612a07565b611b63906002612663565b6001600160401b03811115611b7a57611b7a611eee565b6040519080825280601f01601f191660200182016040528015611ba4576020820181803683370190505b509050600360fc1b815f81518110611bbe57611bbe6125b2565b60200101906001600160f81b03191690815f1a905350600f60fb1b81600181518110611bec57611bec6125b2565b60200101906001600160f81b03191690815f1a9053505f611c0e846002612a07565b611c19906001612663565b90505b6001811115611c90576f181899199a1a9b1b9c1cb0b131b232b360811b85600f1660108110611c4d57611c4d6125b2565b1a60f81b828281518110611c6357611c636125b2565b60200101906001600160f81b03191690815f1a90535060049490941c93611c8981612a1e565b9050611c1c565b5083156109285760405162461bcd60e51b815260206004820181905260248201527f537472696e67733a20686578206c656e67746820696e73756666696369656e746044820152606401610445565b5f818152600183016020526040812054611d2457508154600181810184555f848152602080822090930184905584548482528286019093526040902091909155610472565b505f610472565b5f8181526001830160205260408120548015611e05575f611d4d600183612a33565b85549091505f90611d6090600190612a33565b9050818114611dbf575f865f018281548110611d7e57611d7e6125b2565b905f5260205f200154905080875f018481548110611d9e57611d9e6125b2565b5f918252602080832090910192909255918252600188019052604090208390555b8554869080611dd057611dd0612a46565b600190038181905f5260205f20015f90559055856001015f8681526020019081526020015f205f905560019350505050610472565b5f915050610472565b60cb6106488282612a9e565b6106488282610e66565b80356001600160a01b0381168114611e3a575f5ffd5b919050565b5f5f60408385031215611e50575f5ffd5b611e5983611e24565b946020939093013593505050565b6001600160e01b031981168114610e63575f5ffd5b5f60208284031215611e8c575f5ffd5b813561092881611e67565b5f60208284031215611ea7575f5ffd5b5035919050565b5f81518084528060208401602086015e5f602082860101526020601f19601f83011685010191505092915050565b602081525f6109286020830184611eae565b634e487b7160e01b5f52604160045260245ffd5b601f8201601f191681016001600160401b0381118282101715611f2757611f27611eee565b6040525050565b5f6001600160401b03821115611f4657611f46611eee565b5060051b60200190565b5f82601f830112611f5f575f5ffd5b8135611f6a81611f2e565b604051611f778282611f02565b80915082815260208101915060208360051b860101925085831115611f9a575f5ffd5b602085015b83811015611fb7578035835260209283019201611f9f565b5095945050505050565b5f5f6001600160401b03841115611fda57611fda611eee565b50604051601f8401601f191660200190611ff48282611f02565b809250848152858585011115612008575f5ffd5b848460208301375f6020868301015250509392505050565b5f82601f83011261202f575f5ffd5b61092883833560208501611fc1565b5f5f5f5f60808587031215612051575f5ffd5b61205a85611e24565b935060208501356001600160401b03811115612074575f5ffd5b61208087828801611f50565b93505060408501356001600160401b0381111561209b575f5ffd5b6120a787828801611f50565b92505060608501356001600160401b038111156120c2575f5ffd5b6120ce87828801612020565b91505092959194509250565b5f5f5f5f5f60a086880312156120ee575f5ffd5b6120f786611e24565b945061210560208701611e24565b935060408601356001600160401b0381111561211f575f5ffd5b61212b88828901611f50565b93505060608601356001600160401b03811115612146575f5ffd5b61215288828901611f50565b92505060808601356001600160401b0381111561216d575f5ffd5b61217988828901612020565b9150509295509295909350565b5f5f60408385031215612197575f5ffd5b823591506121a760208401611e24565b90509250929050565b5f5f604083850312156121c1575f5ffd5b82356001600160401b038111156121d6575f5ffd5b8301601f810185136121e6575f5ffd5b80356121f181611f2e565b6040516121fe8282611f02565b80915082815260208101915060208360051b850101925087831115612221575f5ffd5b6020840193505b8284101561224a5761223984611e24565b825260209384019390910190612228565b945050505060208301356001600160401b03811115612267575f5ffd5b61227385828601611f50565b9150509250929050565b5f8151808452602084019350602083015f5b828110156122ad57815186526020958601959091019060010161228f565b5093949350505050565b602081525f610928602083018461227d565b5f5f5f606084860312156122db575f5ffd5b6122e484611e24565b925060208401356001600160401b038111156122fe575f5ffd5b61230a86828701611f50565b92505060408401356001600160401b03811115612325575f5ffd5b61233186828701611f50565b9150509250925092565b5f5f5f5f6080858703121561234e575f5ffd5b61235785611e24565b9350602085013592506040850135915060608501356001600160401b038111156120c2575f5ffd5b5f5f60408385031215612390575f5ffd5b50508035926020909101359150565b5f5f604083850312156123b0575f5ffd5b6123b983611e24565b9150602083013580151581146123cd575f5ffd5b809150509250929050565b5f5f604083850312156123e9575f5ffd5b6123f283611e24565b91506121a760208401611e24565b5f5f5f5f5f60a08688031215612414575f5ffd5b61241d86611e24565b945061242b60208701611e24565b9350604086013592506060860135915060808601356001600160401b0381111561216d575f5ffd5b5f5f5f60608486031215612465575f5ffd5b61246e84611e24565b95602085013595506040909401359392505050565b5f60208284031215612493575f5ffd5b81356001600160401b038111156124a8575f5ffd5b8201601f810184136124b8575f5ffd5b6124c784823560208401611fc1565b949350505050565b600181811c908216806124e357607f821691505b60208210810361250157634e487b7160e01b5f52602260045260245ffd5b50919050565b60208082526038908201527f455243313135355072657365744d696e7465725061757365723a206d7573742060408201527f68617665206d696e74657220726f6c6520746f206d696e740000000000000000606082015260800190565b6020808252602e908201527f455243313135353a2063616c6c6572206973206e6f7420746f6b656e206f776e60408201526d195c881bdc88185c1c1c9bdd995960921b606082015260800190565b634e487b7160e01b5f52603260045260245ffd5b60208082526021908201527f455243313135353a206d696e7420746f20746865207a65726f206164647265736040820152607360f81b606082015260800190565b60208082526028908201527f455243313135353a2069647320616e6420616d6f756e7473206c656e677468206040820152670dad2e6dac2e8c6d60c31b606082015260800190565b634e487b7160e01b5f52601160045260245ffd5b808201808211156104725761047261264f565b604081525f612688604083018561227d565b828103602084015261269a818561227d565b95945050505050565b60208082526025908201527f455243313135353a207472616e7366657220746f20746865207a65726f206164604082015264647265737360d81b606082015260800190565b6020808252602a908201527f455243313135353a20696e73756666696369656e742062616c616e636520666f60408201526939103a3930b739b332b960b11b606082015260800190565b60208082526023908201527f455243313135353a206275726e2066726f6d20746865207a65726f206164647260408201526265737360e81b606082015260800190565b60208082526024908201527f455243313135353a206275726e20616d6f756e7420657863656564732062616c604082015263616e636560e01b606082015260800190565b6020808252602b908201527f496e697469616c697a61626c653a20636f6e7472616374206973206e6f74206960408201526a6e697469616c697a696e6760a81b606082015260800190565b6001600160a01b0386811682528516602082015260a0604082018190525f9061282f9083018661227d565b8281036060840152612841818661227d565b905082810360808401526128558185611eae565b98975050505050505050565b5f60208284031215612871575f5ffd5b815161092881611e67565b5f60033d11156128925760045f5f3e505f5160e01c5b90565b5f60443d10156128a25790565b6040513d600319016004823e80513d60248201116001600160401b03821117156128cb57505090565b80820180516001600160401b038111156128e6575050505090565b3d8401600319018282016020011115612900575050505090565b6107f660208285010185611f02565b60208082526028908201527f455243313135353a204552433131353552656365697665722072656a656374656040820152676420746f6b656e7360c01b606082015260800190565b5f81518060208401855e5f93019283525090919050565b7f416363657373436f6e74726f6c3a206163636f756e742000000000000000000081525f61299f6017830185612957565b7001034b99036b4b9b9b4b733903937b6329607d1b815261269a6011820185612957565b6001600160a01b03868116825285166020820152604081018490526060810183905260a0608082018190525f906129fc90830184611eae565b979650505050505050565b80820281158282048414176104725761047261264f565b5f81612a2c57612a2c61264f565b505f190190565b818103818111156104725761047261264f565b634e487b7160e01b5f52603160045260245ffd5b601f8211156105c957805f5260205f20601f840160051c81016020851015612a7f5750805b601f840160051c820191505b8181101561059e575f8155600101612a8b565b81516001600160401b03811115612ab757612ab7611eee565b612acb81612ac584546124cf565b84612a5a565b6020601f821160018114612afd575f8315612ae65750848201515b5f19600385901b1c1916600184901b17845561059e565b5f84815260208120601f198516915b82811015612b2c5787850151825560209485019460019092019101612b0c565b5084821015612b4957868401515f19600387901b60f8161c191681555b50505050600190811b0190555056fe65d7a28e3265b37a6474929f336521b332c1681b933f6cb9f3376673440d862a9f2df0fed2c77648de5860a4cc508cd0818c85b8b8a1ab4ceeef8d981c8956a6a2646970667358221220a1fea7621ce1ab05f471c01a5504d10a1f9abca52ff537b30b47a0e5caab611664736f6c634300081c0033","linkReferences":{}},"methodIdentifiers":{"DEFAULT_ADMIN_ROLE()":"a217fddf","MINTER_ROLE()":"d5391393","PAUSER_ROLE()":"e63ab1e9","balanceOf(address,uint256)":"00fdd58e","balanceOfBatch(address[],uint256[])":"4e1273f4","burn(address,uint256,uint256)":"f5298aca","burnBatch(address,uint256[],uint256[])":"6b20c454","getRoleAdmin(bytes32)":"248a9ca3","getRoleMember(bytes32,uint256)":"9010d07c","getRoleMemberCount(bytes32)":"ca15c873","grantRole(bytes32,address)":"2f2ff15d","hasRole(bytes32,address)":"91d14854","initialize(string)":"f62d1888","isApprovedForAll(address,address)":"e985e9c5","mint(address,uint256,uint256,bytes)":"731133e9","mintBatch(address,uint256[],uint256[],bytes)":"1f7fdffa","pause()":"8456cb59","paused()":"5c975abb","renounceRole(bytes32,address)":"36568abe","revokeRole(bytes32,address)":"d547741f","safeBatchTransferFrom(address,address,uint256[],uint256[],bytes)":"2eb2c2d6","safeTransferFrom(address,address,uint256,uint256,bytes)":"f242432a","setApprovalForAll(address,bool)":"a22cb465","supportsInterface(bytes4)":"01ffc9a7","unpause()":"3f4ba83a","uri(uint256)":"0e89341c"},"id":104}