{"abi":[{"type":"constructor","inputs":[],"stateMutability":"nonpayable"},{"type":"function","name":"callback","inputs":[],"outputs":[],"stateMutability":"nonpayable"},{"type":"function","name":"countAndCall","inputs":[{"name":"attacker","type":"address","internalType":"contract ReentrancyAttack"}],"outputs":[],"stateMutability":"nonpayable"},{"type":"function","name":"countLocalRecursive","inputs":[{"name":"n","type":"uint256","internalType":"uint256"}],"outputs":[],"stateMutability":"nonpayable"},{"type":"function","name":"countThisRecursive","inputs":[{"name":"n","type":"uint256","internalType":"uint256"}],"outputs":[],"stateMutability":"nonpayable"},{"type":"function","name":"counter","inputs":[],"outputs":[{"name":"","type":"uint256","internalType":"uint256"}],"stateMutability":"view"},{"type":"function","name":"guardedCheckEntered","inputs":[],"outputs":[],"stateMutability":"nonpayable"},{"type":"function","name":"unguardedCheckNotEntered","inputs":[],"outputs":[],"stateMutability":"view"}],"bytecode":{"object":"0x608060405234801561001057600080fd5b50600160008181559055610476806100296000396000f3fe608060405234801561001057600080fd5b506004361061007d5760003560e01c806396ffa6901161005b57806396ffa690146100ba578063a408f312146100cd578063b672ad8b146100d5578063cecc95a7146100e857600080fd5b8063083b27321461008257806361bc221a1461008c5780638c5344fa146100a7575b600080fd5b61008a6100f0565b005b61009560015481565b60405190815260200160405180910390f35b61008a6100b5366004610377565b61010c565b61008a6100c8366004610377565b61021e565b61008a610242565b61008a6100e3366004610390565b610259565b61008a6102f6565b6100f8610305565b61010061035e565b61010a6001600055565b565b610114610305565b80156102115761012261035e565b6000306101306001846103d6565b60405160240161014291815260200190565b60408051601f198184030181529181526020820180516001600160e01b0316634629a27d60e11b1790525161017791906103ed565b6000604051808303816000865af19150503d80600081146101b4576040519150601f19603f3d011682016040523d82523d6000602084013e6101b9565b606091505b505090508061020f5760405162461bcd60e51b815260206004820152601b60248201527f5265656e7472616e63794d6f636b3a206661696c65642063616c6c000000000060448201526064015b60405180910390fd5b505b61021b6001600055565b50565b610226610305565b80156102115761023461035e565b6102116100c86001836103d6565b61024a610305565b60005460021461010057600080fd5b610261610305565b61026961035e565b604051630a2df1ed60e01b815263041d939960e11b60048201527f083b2732f78169bfaad6b407fa338cc97d697ed69d3915a18239cc111d51a402906001600160a01b03831690630a2df1ed90602401600060405180830381600087803b1580156102d357600080fd5b505af11580156102e7573d6000803e3d6000fd5b505050505061021b6001600055565b60005460020361010a57600080fd5b6002600054036103575760405162461bcd60e51b815260206004820152601f60248201527f5265656e7472616e637947756172643a207265656e7472616e742063616c6c006044820152606401610206565b6002600055565b60018060008282546103709190610428565b9091555050565b60006020828403121561038957600080fd5b5035919050565b6000602082840312156103a257600080fd5b81356001600160a01b03811681146103b957600080fd5b9392505050565b634e487b7160e01b600052601160045260246000fd5b6000828210156103e8576103e86103c0565b500390565b6000825160005b8181101561040e57602081860181015185830152016103f4565b8181111561041d576000828501525b509190910192915050565b6000821982111561043b5761043b6103c0565b50019056fea26469706673582212207ee2a4d9bbae5dbe428a29cc4b16f0554ee460e38ca229b6b57afe87d22aa11264736f6c634300080d0033","linkReferences":{}},"methodIdentifiers":{"callback()":"083b2732","countAndCall(address)":"b672ad8b","countLocalRecursive(uint256)":"96ffa690","countThisRecursive(uint256)":"8c5344fa","counter()":"61bc221a","guardedCheckEntered()":"a408f312","unguardedCheckNotEntered()":"cecc95a7"},"id":115}